S015000074656D706C61746556756F746F2E7372656396
S113000061C1000089C1000087C1000085C10000F2
S11300100C947F1681C100007FC100000C94D5169A
S11300207BC1000079C1000077C1000075C10000E8
S113003073C1000071C100006FC100006DC10000F8
S11300400C94653769C100000C9453350C948535C4
S113005063C1000061C100005FC100005DC1000018
S11300605BC1000059C100000C946F3155C1000000
S113007053C1000051C100004FC100004DC1000038
S11300804BC1000049C1000047C10000450ED70E16
S1130090FE0E3A0FA10F2D10231183111312FE121D
S11300A06F1306201D201D201A201D2004201D2052
S11300B01D201D20F81F1D201D200D201820162096
S11300C01D201D201D20142000407A10F35A00A08A
S11300D0724E18090010A5D4E80000E8764817000D
S11300E000E40B54020000CA9A3B000000E1F5054D
S11300F0000080969800000040420F000000A08697
S113010001000000102700000000E80300000000C8
S11301106400000000000A0000000000010000006C
S113012000002C76D888DC674F0823DFC1DFAE5986
S1130130E1B1B796E5E3E453C63AE651997696E819
S1130140E6C28426EB898C9B62ED407C6FFCEFBC9D
S11301509C9F40F2BAA56FA5F490055A2AF75C93C8
S11301606B6CF9676DC11BFCE0E40D47FEF520E6FE
S1130170B500D0ED902E0300943577050080841EE1
S1130180080000204E0A000000C80C333333330F3C
S1130190986E12831141EF8D2114893BE65516CFD9
S11301A0FEE6DB18D1844B381BF77C1D901DA4BBE5
S11301B0E424203284725E228100C9F124ECA1E59A
S11301C03D275254432063686970204453333233CB
S11301D0314D20696E697469616C697A65642E00B9
S11301E06E6F6E2074726F766F206D6F64756C6FB6
S11301F020525443204453333233314D4D2E205238
S11302006970726F766F207472612033732E004AA6
S1130210756E20203320323032310031323A333699
S11302203A3338001F1C1F1E1F1E1F1F1E1F1E1FB8
S1130230000000000403080700000200090A00008F
S113024000000000000000000000000000000001A9
S11302500102040810204080010210204080102078
S113026040801008200440800102040801020408B0
S1130270040404040404040402020202020201014C
S11302800101030303030303010101010303020248
S113029000000000230026002900000000002500C3
S11302A028002B0000000000240027002A00541717
S11302B08C22E422DC25C327CE27A029702DFF330E
S11302C0B335721811241FBECFEFD0E4DEBFCDBF0B
S11302D019E0A0E0B1E0ECE8F6E800E00BBF02C0F2
S11302E007900D92A03EB107D9F72DE0A0EEB9E03A
S11302F001C01D92A832B207E1F711E0C1E6D1E0D6
S113030004C02197FE010E94993DC735D107C9F762
S11303100E943F360C943A4373CE80E090E00895F7
S1130320089544980895449A0895EF92FF920F9384
S11303301F93CF93DF93CDB7DEB768970FB6F894CA
S1130340DEBF0FBECDBF80EC99E09A8389834091D4
S1130350290A50912A0A60912B0A70912C0A4B8326
S11303605C836D837E8398878F8340912F0A50919D
S1130370300A6091310A7091320A49875A876B8733
S11303807C879E878D874091350A5091360A60910B
S1130390370A7091380A4F87588B698B7A8B9C8BFC
S11303A08B8B80913B0A90913C0AA0913D0AB091BD
S11303B03E0A8D8B9E8BAF8BB88FCE0101967C014C
S11303C08E01095F1F4F9E01235F3F4FAE014D5EBB
S11303D05F4F6AE271E08BE79BE00E949625689686
S11303E00FB6F894DEBF0FBECDBFDF91CF911F9142
S11303F00F91FF90EF9008951816190644F4EFE951
S1130400FFE03197F1F700C000000197F5CF0895A0
S1130410CF938EE79CE00E94C436CDE765ED71E092
S11304208EE79CE00E94BC36C150C1F78EE79CE089
S1130430CF910C94C436CF93DF93D82FC0E0CD175F
S113044041F067ED71E08EE79CE00E94BC36CF5F1F
S1130450F6CFDF91CF910895CF93C82F81E0EBDFE2
S113046069ED71E08EE79CE00E94BC36CC2319F064
S11304706DED71E002C062EE71E08EE79CE00E94D7
S1130480BC3681E0CF91D7CF4F925F926F927F922B
S11304908F929F92AF92BF92CF92DF92EF92FF9290
S11304A00F931F93CF93DF9300D000D000D0CDB72C
S11304B0DEB77C015B014DB65EB66FE077E00E946B
S11304C08239F501C284D3848DB79EB78C199D09F6
S11304D00FB6F8949EBF0FBE8DBFEDB7FEB7319631
S11304E04F013F01F50104851585C00ED11E0C1581
S11304F01D054CF4C8010E942443F30181933F017C
S11305000F5F1F4FF4CF6BED71E08EE79CE00E940C
S1130510E7366BED71E08EE79CE00E94E736B401AC
S1130520CE0101960E948239BE016F5F7F4FC701E1
S11305300E94F639CE0101960E941B39B501CE0105
S113054001960E94EE3968E877E0CE0101960E9498
S1130550683BBC018EE79CE00E94AE36CE0101965A
S11305600E941B39B7018EE79CE00E94D736C70171
S11305700FB6F8945EBE0FBE4DBE26960FB6F89425
S1130580DEBF0FBECDBFDF91CF911F910F91FF90C2
S1130590EF90DF90CF90BF90AF909F908F907F901F
S11305A06F905F904F9008958F929F92AF92BF92F9
S11305B0CF92DF92EF92FF920F931F93CF93DF932B
S11305C0CDB7DEB72C970FB6F894DEBF0FBECDBF04
S11305D05C018DB69EB6FC01C284D3848DB79EB7F0
S11305E08C199D090FB6F8949EBF0FBE8DBF0DB731
S11305F01EB70F5F1F4FA6014F5F5F4F20E030E033
S1130600B801C50106960E94A93B4AE0B601CE0195
S113061007960E94583A67EE71E0CE0101960E9457
S11306208239BE01695F7F4FCE0101960E94573B1C
S1130630BC018EE79CE00E94D736CE0101960E9451
S11306401B39CE0107960E941B396EEE71E08EE7CE
S11306509CE00E94E7366BED71E08EE79CE00E941F
S1130660E736F501E484F584F501848595858C0DE0
S11306709D1DE816F90664F4F80161918F01662363
S113068019F0C7010E942C43FFEFEF1AFF0AECCFC9
S11306906BED71E08EE79CE00E94E73681E00FB6D7
S11306A0F8949EBE0FBE8DBE2C960FB6F894DEBF96
S11306B00FBECDBFDF91CF911F910F91FF90EF90AF
S11306C0DF90CF90BF90AF909F908F9008950F933D
S11306D01F93CF93DF93EC018B016BED71E08EE7F9
S11306E09CE00E94E7366BED71E08EE79CE00E948F
S11306F0E7366CE072E08EE79CE00E94E736C017B4
S1130700D10734F460E0CE010E942C432196F7CF48
S113071069E272E08EE79CE00E94E7366BED71E0DF
S11307208EE79CE00E94E7366BED71E08EE79CE07B
S1130730DF91CF911F910F910C94E7364F925F9206
S11307406F927F928F929F92AF92BF92CF92DF92DD
S1130750EF92FF920F931F93CF93DF93CDB7DEB742
S11307602C970FB6F894DEBF0FBECDBF7C016B0192
S11307702A016DB67EB66FE077E00E9482398DB7AC
S11307809EB78C199D090FB6F8949EBF0FBE8DBFFE
S1130790EDB7FEB731965F016BED71E08EE79CE03B
S11307A00E94E7366AE372E08EE79CE00E94E73637
S11307B06BED71E08EE79CE00E94E7364501820113
S11307C0C40CD51C0C151D055CF5C8010E942443FE
S11307D0F40181934F01882301F14AE0682FCE018F
S11307E007960E942D3A6BED71E0CE0101960E94AE
S11307F08239BE01695F7F4FCE0101960E94573B4B
S1130800BC018EE79CE00E94AE36CE0101960E94A8
S11308101B39CE0107960E941B390F5F1F4FD2CFA1
S11308206BED71E08EE79CE00E94E7366BED71E0C2
S11308308EE79CE00E94E736B501CE0101960E9446
S11308408239BE016F5F7F4FC7010E94F639CE0126
S113085001960E941B396DE472E08EE79CE00E94D1
S1130860BC36B7018EE79CE00E94D736C7010FB6AD
S1130870F8947EBE0FBE6DBE2C960FB6F894DEBF04
S11308800FBECDBFDF91CF911F910F91FF90EF90DD
S1130890DF90CF90BF90AF909F908F907F906F909C
S11308A05F904F9008958F929F92AF92BF92CF9294
S11308B0DF92EF92FF920F931F93CF93DF93CDB705
S11308C0DEB72C970FB6F894DEBF0FBECDBF6B0119
S11308D04A01ADB6BEB62DB73EB7261B370B0FB6D1
S11308E0F8943EBF0FBE2DBFEDB7FEB731967F0122
S11308F0FC01448155814F5F5F4F20E030E0B70138
S11309000E94A93B4AE0B601CE0107960E94583ADC
S113091067EE71E0CE0101960E948239BE01695FE3
S11309207F4FCE0101960E94573BBC018EE79CE0AD
S11309300E94D736CE0101960E941B39CE0107963C
S11309400E941B396EEE71E08EE79CE00E94E73650
S11309506BED71E08EE79CE00E94E7368401C80CE1
S1130960D91C0C151D056CF5F7016081662319F17E
S1130970C8010E942C43F7016081CE0107960E94B2
S1130980163A6BED71E0CE0101960E948239BE01E8
S1130990695F7F4FCE0101960E94573BBC018EE7F1
S11309A09CE00E94AE36CE0101960E941B39CE0116
S11309B007960E941B390F5F1F4FFFEFEF1AFF0AC4
S11309C0D0CF6BED71E08EE79CE00E94E73681E0CA
S11309D00FB6F894BEBE0FBEADBE2C960FB6F894FB
S11309E0DEBF0FBECDBFDF91CF911F910F91FF905E
S11309F0EF90DF90CF90BF90AF909F908F9008952D
S1130A000F931F93CF93DF93EC018B010E94EE3978
S1130A10B8016A5F7F4FCE0106960E94EE39F80155
S1130A20848595859D878C87DF91CF911F910F9148
S1130A300895CF93DF93EC0106960E941B39CE01F3
S1130A40DF91CF910C941B39CF92DF92EF92FF92FA
S1130A500F931F93CF93DF936A017B01C0E0D0E033
S1130A60082F10E0C017D10724F4C601C5DC219675
S1130A70F9CFDF91CF911F910F91FF90EF90DF900D
S1130A80CF9008958232910509F49AC06CF58A30AA
S1130A90910509F483C0A4F48630910509F475C066
S1130AA08930910509F45DC0059709F0CFC06091C4
S1130AB006018EE79CE00E94BD3620E030E059C07C
S1130AC08231910509F473C08132910509F454C04F
S1130AD0419709F0BBC0609108018EE79CE00E9439
S1130AE0BD3622E030E045C08036910509F499C056
S1130AF0ACF48834910509F482C08035910509F479
S1130B0087C08434910509F0A1C0609112018EE779
S1130B109CE00E94BD3620E030E08BC0883891050F
S1130B2009F459C06CF48438910509F08FC06091C0
S1130B300E018EE79CE00E94BD3620E030E05CC0F0
S1130B408039910509F450C0803A910509F07EC0BE
S1130B50609111018EE79CE00E94BD3623E030E0F5
S1130B604BC0609107018EE79CE00E94BD3621E0F6
S1130B7030E080E090E05FC0609109018EE79CE086
S1130B800E94BD3623E030E0F4CF60910A018EE785
S1130B909CE00E94BD3620E030E01AC060910B0159
S1130BA08EE79CE00E94BD3621E030E011C06091E8
S1130BB00C018EE79CE00E94BD3622E030E008C0C4
S1130BC060910D018EE79CE00E94BD3623E030E089
S1130BD081E090E030C060910F018EE79CE00E94BC
S1130BE0BD3621E030E008C0609110018EE79CE042
S1130BF00E94BD3622E030E082E090E01CC06091AB
S1130C0013018EE79CE00E94BD3621E030E011C064
S1130C10609114018EE79CE00E94BD3622E030E032
S1130C2008C0609115018EE79CE00E94BD3623E068
S1130C3030E083E090E0880F991F880F991F8A5F46
S1130C409E4FFC01E20FF31F808108958EE4089506
S1130C50CF93DF93EC0187EB9AE00E94FB2D61E0D8
S1130C6087EB9AE00E94BD3641E060E087EB9AE0B2
S1130C700E94012EBE016A5F7F4F87EB9AE00E94BB
S1130C80AE3642E060E087EB9AE00E94012EBE019E
S1130C90645F7F4F87EB9AE00E94AE3643E060E0EA
S1130CA087EB9AE00E94012EBE016E5E7F4F87EBB8
S1130CB09AE0DF91CF910C94AE36CF92DF92EF920F
S1130CC0FF926B017C0187EB9AE00E94FB2D6091FF
S1130CD0900A7091910A4AE050E08FE39AE0B8DFFD
S1130CE0C092F509D092F609E092F709F092F8095A
S1130CF08FE19EE40197F1F700C000008FEE99E0C8
S1130D000E948E206093F9097093FA098093FB097D
S1130D109093FC098FE19EE40197F1F700C0000075
S1130D208091900A9091910A01969093910A8093F0
S1130D30900AFF90EF90DF90CF9008958F929F924A
S1130D40AF92BF92CF92DF92EF920F931F93CF9304
S1130D50DF93CDB7DEB7A2970FB6F894DEBF0FBE10
S1130D60CDBF5C014B0168ED71E0CE014D960E9450
S1130D70823908EC10E027ED3AE040ED5AE060E0FB
S1130D8080EA9AE00E94011E8093D80A882309F41D
S1130D90A3C08091D70A843009F098C086E0E7E6C2
S1130DA0F1E0DE01579601900D928A95E1F7CE01AC
S1130DB047966C01E12C04E010E020E030E044E0D0
S1130DC060ED7AE080EA9AE00E94551E8093D80A8A
S1130DD0882309F46BC080E1F401DE0111960190CF
S1130DE00D928A95E1F7AE014F5F5F4F64E080EAB0
S1130DF09AE00E94E81E8093D80A9FEF21EE84E0D7
S1130E00915020408040E1F700C00000AE014F5FE8
S1130E105F4F64E080EA9AE00E94B51E8093D80A8E
S1130E2064E672E08EE79CE00E94E736BE016F5FE5
S1130E307F4FCE0141960E9482398091D80A88233F
S1130E4001F1BE016F5E7F4F8EE79CE00E94D736B2
S1130E508D899E89069759F4BE016F5E7F4FC50147
S1130E600E94D139CE0141960E941B393BC09FEFAD
S1130E7021EE84E0915020408040E1F700C0000062
S1130E8010C087EB9AE00E94FB2D41E060E087EB05
S1130E909AE00E94012E62E772E087EB9AE00E94DA
S1130EA0BC36CE0141960E941B3910C087EB9AE0F4
S1130EB00E94FB2D41E060E087EB9AE00E94012E46
S1130EC06CE772E087EB9AE00E94BC3668ED71E053
S1130ED08EE79CE00E94E736BE01635E7F4FC5014A
S1130EE00E94D139CE014D960E941B39C501A296AC
S1130EF00FB6F894DEBF0FBECDBFDF91CF911F9127
S1130F000F91EF90DF90CF90BF90AF909F908F9014
S1130F100895AF92BF92CF92DF92EF92FF920F9318
S1130F201F93CF93DF93CDB7DEB7A2970FB6F89494
S1130F30DEBF0FBECDBF5C01F62E68ED71E0CE01C1
S1130F404D960E94823908EC10E027ED3AE040ED1E
S1130F505AE060E080EA9AE00E94011E8093D80A79
S1130F60882309F49DC04EE150E060E070E082E027
S1130F706BDD8091D70A843009F08CC086E0E7E607
S1130F80F1E0DE01579601900D928A95E1F7CE01CA
S1130F9047966C01E12C04E010E020E030E044E0EE
S1130FA060ED7AE080EA9AE00E94551E8093D80AA8
S1130FB0882309F45FC0FF2099F080E1EFE1F9E0B4
S1130FC0DE01119601900D928A95E1F7AE014F5F13
S1130FD05F4F64E080EA9AE00E94E81E8093D80A9A
S1130FE0AE014F5F5F4F64E080EA9AE00E94B51E55
S1130FF08093D80A882389F164E672E08EE79CE046
S11310000E94E736BE016F5F7F4FCE0141960E947A
S11310108239BE016F5E7F4F8EE79CE00E94D73617
S11310208D899E89069759F4BE016F5E7F4FC50175
S11310300E94D139CE0141960E941B3937C09FEFDF
S113104021EE84E0915020408040E1F700C0000090
S1131050CE0141960E941B391DC087EB9AE00E9485
S1131060FB2D41E060E087EB9AE00E94012E64E8EA
S113107072E00CC087EB9AE00E94FB2D41E060E037
S113108087EB9AE00E94012E61E972E087EB9AE017
S11310900E94BC3668ED71E08EE79CE00E94E73662
S11310A0BE01635E7F4FC5010E94D139CE014D96CA
S11310B00E941B39C501A2960FB6F894DEBF0FBE7D
S11310C0CDBFDF91CF911F910F91FF90EF90DF90F3
S11310D0CF90BF90AF900895CF92DF92EF92FF929E
S11310E00F931F93CF93DF93CDB7DEB764970FB6FB
S11310F0F894DEBF0FBECDBF7C01CE0101966C011A
S113110087E0F60111928A95E9F76FE972E0C70169
S11311100E94823900E010E09E012C5E3F4FA60140
S113112060E080EA9AE00E94011E882359F10C894C
S113113010E020E030E0A60160EA7AE0CE010E96ED
S11311400E94001CCE010E960E941A3C28E030E05A
S113115040E050E0BE01625F7F4FCE0108960E94DE
S1131160D73BBE01685F7F4FC7010E94F639CE01AD
S113117008960E941B3981E08093CF0ACE010E9617
S11311800E941B39C70164960FB6F894DEBF0FBEE8
S1131190CDBFDF91CF911F910F91FF90EF90DF9022
S11311A0CF900895EF92FF920F931F93CF93DF9305
S11311B0CDB7DEB762970FB6F894DEBF0FBECDBFD2
S11311C08C017B0166EA72E0CE010D960E948239A1
S11311D01FD96EEA72E08EE79CE00E94E736209108
S11311E04F0130915001F701848195812817390707
S11311F049F5A90143505109B701CE0107960E9450
S1131200D73B66EC72E0CE0101960E948239BE01A2
S1131210695F7F4FCE0101960E94573BBC018EE768
S11312209CE00E94D736CE0101960E941B39BE0174
S1131230695F7F4FC8010E94D139CE0107960E9491
S11312401B3909C080E008D9E3D8BE01635F7F4F32
S1131250C8010E94D139CE010D960E941B39C801E4
S113126062960FB6F894DEBF0FBECDBFDF91CF916B
S11312701F910F91FF90EF900895AF92BF92CF927C
S1131280DF92EF92FF920F931F93CF93DF93CDB72B
S1131290DEB762970FB6F894DEBF0FBECDBF5C0118
S11312A06B018A017901B4D881E0C5D86FE275E099
S11312B08EE79CE00E94BC36A501B601C8010E94DD
S11312C02426892B09F4B0C02FEF81EE94E021503D
S11312D080409040E1F700C000006FE675E084E9CB
S11312E09AE00E94013AB601CE0107960E94823923
S11312F06AE175E0CE0101960E948239BE01695F00
S11313007F4FCE0101960E94573BBC0184E99AE0CD
S11313100E94313BCE0101960E941B39CE010796F3
S11313200E941B3960E373E084E99AE00E94373B32
S113133067EA73E084E99AE00E94373B60E373E074
S113134084E99AE00E94373B61E574E084E99AE01D
S11313500E94373B60E373E084E99AE00E94373BE4
S113136061E275E084E99AE00E94373B60E373E050
S113137084E99AE00E94373BF701648175816B5ED2
S11313807F4F4AE0CE0107960E94823A61E975E0F8
S1131390CE0101960E948239BE01695F7F4FCE0162
S11313A001960E94573BBC0184E99AE00E94313BBC
S11313B0CE0101960E941B39CE0107960E941B396B
S11313C060E373E084E99AE00E94373B60E373E0F2
S11313D084E99AE00E94373BB70184E99AE00E94CD
S11313E0313B60E373E084E99AE00E94373B64E9AF
S11313F07AE08EE79CE00E94D73664E97AE0C8017F
S11314000E94AE36FFEF23EC89E0F150204080408B
S1131410E1F700C0000060E774E0C8010E94E7360D
S1131420C8010E94C43625C087EB9AE00E94FB2DB8
S113143041E060E087EB9AE00E94012E62E874E0EC
S113144087EB9AE00E94BC3643E060E087EB9AE0C9
S11314500E94012E67E974E087EB9AE00E94BC3693
S11314609FEFE3EDF0E39150E040F040E1F700C07E
S113147000008FE39CE90197F1F700C000006DE2E2
S113148075E0CE010D960E948239C8010E949B2608
S1131490892B21F120914F013091500180918B0AC9
S11314A090918C0A82179307C8F4C8010E94A5265C
S11314B0F82E67E87AE0CE0101960E94EE396F2D8E
S11314C0CE0101960E947F3BBC0187E89AE00E940E
S11314D0D939CE0101960E941B39D7CF67E87AE04B
S11314E0CE0107960E94EE39BE01695F7F4FCE019F
S11314F0019658DEBE016F5F7F4FCE010D960E94AC
S1131500F639CE0101960E941B39CE0107960E943E
S11315101B399FEFE7EEF3E09150E040F040E1F734
S113152000C000006CEA74E0CE010D960E948B3B73
S1131530882339F081E00E942C020E94080211E005
S113154001C010E0CE010D960E941B39812F6296D6
S11315500FB6F894DEBF0FBECDBFDF91CF911F91C0
S11315600F91FF90EF90DF90CF90BF90AF900895D0
S11315705798569888E08093680080EC80937300B5
S11315807894089509980A98089591E090936800D2
S1131590843419F40D9880E202C00E9880E480939C
S11315A06B0078940895CF92DF92EF92FF92BC0182
S11315B0990F880B990B0E94A1346B017C0120E0E8
S11315C030E0A9010E94023487FF03C0C12CD12C52
S11315D0760160914D0170914E01072E000C880B2D
S11315E0990B0E94A1349B01AC01C701B6010E9472
S11315F00634FF90EF90DF90CF9008953F9A8130AA
S1131600910571F082309105E1F0892B89F54798B5
S11316102FEF30E742E0215030404040E1F70EC068
S113162028B101C0880F6A95EAF7822B88B98FEF39
S113163090E722E0815090402040E1F700C0000094
S1131640089528B181E090E001C0880F6A95EAF717
S1131650982F9095922398B93FEF45EA2EE03150A8
S113166040402040E1F700C0000098B1892B88B9C0
S113167008950F9A81309105B9F08230910529F1CE
S1131680892BD1F522B181E090E001C0880F6A95E1
S1131690EAF78095822382B92FEF30E742E02150A8
S11316A030404040E1F70EC022B101C0880F6A9576
S11316B0EAF7822B82B98FEF90E722E081509040C5
S11316C02040E1F700C00000089522B181E090E0DD
S11316D001C0880F6A95EAF7982F9095922392B9E2
S11316E03FEF45EA2EE0315040402040E1F700C092
S11316F0000092B1892B82B90895239A2FEF36E71F
S113170041E0215030404040E1F700C0000081300A
S1131710910511F42B9A0895892B09F42B980895B7
S113172068ED71E087E89AE00E94013A10928F0A0E
S113173010928E0A1092CF0A6DE275E089ED9AE05C
S11317400E94013A6DE275E08FED9AE00E94013A41
S113175065E576E085EE9AE00E94013A10928D0AE2
S113176067E070E081E090E049DF67E070E081E0ED
S113177090E07FDF80E090E0C0DF8FE19EE401979E
S1131780F1F700C000008DE09AE00E94E3268DE0AE
S11317909AE00E9428278FE19EE40197F1F700C0A8
S11317A000008AE19AE00E94E3268AE19AE00E941E
S11317B028271092930A1092920A8FE19EE40197CF
S11317C0F1F700C000002C988FE19EE40197F1F737
S11317D000C000002C9A8FE19EE40197F1F700C04D
S11317E000000E9493018FE19EE40197F1F700C08D
S11317F000000E94910182B182B982B182B968ED80
S113180071E085E49AE00E94013A68ED71E08BE4AE
S11318109AE00E94013A68ED71E08BE49AE00E943C
S1131820013A87EB9AE00E94EB2D87EB9AE00E9445
S1131830432E1092FD091092FE091092FF09109296
S1131840000A1092F9091092FA091092FB091092F9
S1131850FC090E94080262EA75E08EE79CE00E949F
S1131860E7360E94080268ED71E089EE99E00E9473
S1131870013A8FEF9FEF9093910A8093900A089515
S1131880CF93DF93CDB7DEB762970FB6F894DEBF80
S11318900FBECDBF813421F1D8F4833209F486C060
S11318A08A3209F0B2C068ED71E089EE99E00E94D5
S11318B0013A67EB75E085E49AE00E94013A68ED2D
S11318C071E08BE49AE00E94013A68ED71E08FC008
S11318D0833409F451C0A0F08E3409F4D0C095C00B
S11318E08091ED099091EE09059709F0C8C069EE61
S11318F079E0CE0101960E94EE3963EB75E00FC0EA
S11319008091ED099091EE09059709F0B8C069EE50
S113191079E0CE0101960E94EE3965EB75E0CE01C7
S113192001960E94683BBC01CE0107960E94EE39E5
S1131930CE0101960E941B3920E030E047E050E0E0
S1131940BE01635F7F4FCE0107960E94A93BBE0193
S1131950635F7F4FCE010196F1D98FE39CE9019734
S1131960F1F700C00000CE0101960E941B39CE01A0
S113197007960E941B3983C02091ED093091EE092E
S11319802115310509F47BC02150310940E050E0B4
S113199069EE79E0CE0101960E94D73BBE016F5FEC
S11319A07F4F89EE99E00E94F6393BC08091ED09A2
S11319B09091EE09059709F062C069EE79E08FED28
S11319C09AE00E94D9396FED7AE089E69AE00E94A4
S11319D0D93968EF75E085E49AE00E94013A6CE039
S11319E076E08BE49AE00E94013A6BE176E081E5CF
S11319F09AE00E94013A60911E0170911F0180914A
S1131A0020019091210159D93AC0682FCE01019645
S1131A100E94163ABE016F5F7F4F89EE99E00E94E3
S1131A20313BCE0101960E941B396AEC75E085E4D6
S1131A309AE00E94013A6CED75E0CE0101960E9495
S1131A40823969EE79E0CE0101960E94573BBC01D0
S1131A508BE49AE00E94D939CE0101960E941B3989
S1131A6063EE75E081E59AE00E94013A6091900A84
S1131A707091910A4AE050E08FE39AE0E9D86296C7
S1131A800FB6F894DEBF0FBECDBFDF91CF9108959E
S1131A90CF93DF93CDB7DEB72C970FB6F894DEBFA4
S1131AA00FBECDBF833460F4813408F0C8C08A32DD
S1131AB009F4C5C08E3209F4C2C0833209F185C06D
S1131AC0833421F08E3409F080C0B9C02091E70935
S1131AD03091E8092115310509F487C021503109F5
S1131AE040E050E063EE79E0CE0101960E94D73BDE
S1131AF0BE016F5F7F4F83EE99E00E94F63971C09B
S1131B008091E7099091E809049709F098C063EE81
S1131B1079E085EE9AE00E94D93965EE7AE08BE7A8
S1131B209AE00E94D9396AE476E085E49AE00E945A
S1131B30013A60918E0A70918F0A4AE0CE010796AD
S1131B400E94583A67E576E0CE0101960E948239F8
S1131B50BE01695F7F4FCE0101960E94573BBC01D5
S1131B608BE49AE00E94D939CE0101960E941B3978
S1131B70CE0107960E941B396DE576E0CE010196F1
S1131B800E9482396AE97AE0CE0101960E94573BAD
S1131B90BC0181E59AE00E94D939CE0101960E94E8
S1131BA01B390E9493018FE39FE10197F1F700C075
S1131BB000000E94910160911A0170911B018091B3
S1131BC01C0190911D0179D83AC0682FCE0101966D
S1131BD00E94163ABE016F5F7F4F83EE99E00E9428
S1131BE0313BCE0101960E941B396AE276E085E41E
S1131BF09AE00E94013A6BE376E0CE0101960E94DE
S1131C00823963EE79E0CE0101960E94573BBC0114
S1131C108BE49AE00E94D939CE0101960E941B39C7
S1131C206FE376E081E59AE00E94013A6091900AC0
S1131C307091910A4AE050E08FE39AE009D82C961B
S1131C400FB6F894DEBF0FBECDBFDF91CF910895DC
S1131C50CF92DF92EF92FF920F931F93CF93DF9374
S1131C60CDB7DEB7AA970FB6F894DEBF0FBECDBFCF
S1131C70E091900AF091910A3296EB30F10508F068
S1131C806EC6EA5BFF4F0C94993D0E9408026AE617
S1131C9076E08EE79CE00E94BC366091270B709141
S1131CA0280BCE0101960E940005BE016F5F7F4F95
S1131CB0CE0185960E944402CE0101960E94190528
S1131CC049A55AA54F5F5F4F20E030E060E371E023
S1131CD0CE0185960E94A93B0E9408026091270BC1
S1131CE07091280B625F7F4FCE0101960E94000520
S1131CF0BE016F5F7F4FCE014F960E944402CE011A
S1131D0001960E9419050E9408026091270B7091A8
S1131D10280B665D7F4FCE0101960E940005BE012F
S1131D206F5F7F4FCE0147960E944402CE01019619
S1131D300E9419054B8D5C8D4F5F5F4F20E030E0B2
S1131D4062E471E0CE0147960E94A93B0E9408021A
S1131D506091270B7091280B645E7F4FCE01019632
S1131D600E940005BE016F5F7F4FCE010F960E9457
S1131D704402CE0101960E9419050E940802809136
S1131D80900A9091910A01969093910A8093900AF7
S1131D90CE010F960E941B39CE0147960E941B3933
S1131DA0CE014F960E941B39CE018596D6C52FEFE2
S1131DB039EF80E0215030408040E1F700C000005E
S1131DC0D7DB9FEF29EF30E0915020403040E1F71E
S1131DD000C00000D7DB8FEF99EF20E081509040E6
S1131DE02040E1F700C000008091900A9091910A90
S1131DF001969093910A8093900AB1C53FEF83EDC9
S1131E0090E3315080409040E1F700C00000109210
S1131E10CF0A0E94910163E876E085E49AE00E948B
S1131E20013A68ED71E08BE49AE00E94013A67E9B7
S1131E3076E081E59AE00E94013A6091900A7091FF
S1131E40910A42E350E08FE39AE00E9428068091D1
S1131E50900A9091910A01969093910A8093900A26
S1131E602FEF39E688E1215030408040E1F700C08F
S1131E70000075C568ED71E089EE99E00E94013AB1
S1131E8068ED71E083EE99E00E94013A6FE972E037
S1131E90CE010F960E9482398091CF0A811115C01C
S1131EA0CE01019619D9BE016F5F7F4FCE010F9607
S1131EB00E94F639CE0101960E941B3944E650E097
S1131EC060E070E082E00E9424056FE972E0CE01D8
S1131ED00F960E948B3B811102C0449B7FC56AEC24
S1131EE075E085E49AE00E94013A6CED75E08BE4BC
S1131EF09AE00E94013A63EE75E081E59AE00E945F
S1131F00013A449A6AEA76E081E89AE00E94013A4A
S1131F1048EC50E060E070E081E00E9424059FEF0F
S1131F2020E732E0915020403040E1F700C000004B
S1131F3060912601709127018091280190912901D7
S1131F40ECC540E060E087EB9AE00E94012E61E07E
S1131F5087EB9AE00E94BD364091F9095091FA0945
S1131F606091FB097091FC098091F5099091F60943
S1131F70A091F709B091F809480F591F6A1F7B1FF8
S1131F8041505109610971098091FD099091FE093F
S1131F90A091FF09B091000A481B590B6A0B7B0BF7
S1131FA02AE0CE010F960E94AC3A60ED76E0CE01B5
S1131FB001960E948239BE01615F7F4FCE01019676
S1131FC00E94573B6EEA76E00E94683BBC0187EBB7
S1131FD09AE00E94AE36CE0101960E941B39CE01D2
S1131FE00F960E941B396CE380EE99E00E94891BD6
S1131FF080EE99E00E94A01BE82E42E0BE01695EDB
S11320007F4F90E00E94564063EC80EE99E00E947E
S1132010891B80EE99E00E94A01BF82E42E0BE01CD
S1132020615F7F4F90E00E945640FE24EF2CF12C1C
S113203042E0BE016F5F7F4FC7010E945640C70157
S11320400E9442059FEF29EF30E09150204030403C
S1132050E1F700C0000014DC82C440E060E087EBDC
S11320609AE00E94012E61E087EB9AE00E94BD365F
S11320704091F9095091FA096091FB097091FC09AA
S11320808091F5099091F609A091F709B091F809AA
S1132090480F591F6A1F7B1F41505109610971097B
S11320A08091FD099091FE09A091FF09B091000A69
S11320B0481B590B6A0B7B0B2AE0CE010F960E943A
S11320C0AC3A60ED76E0CE0101960E948239BE0101
S11320D0615F7F4FCE0101960E94573B6EEA76E026
S11320E00E94683BBC0187EB9AE00E94AE36CE01A9
S11320F001960E941B39CE010F960E941B398091D4
S1132100ED099091EE090597E9F46DE275E089ED2A
S11321109AE00E94013A69EE79E08FED9AE00E941C
S1132120D93965E576E085EE9AE00E94013A10928D
S11321308D0A60911E0170911F0180912001909180
S11321402101CBC560E0CE010F960E9489078FE381
S11321509CE90197F1F700C00000BE01615F7F4F69
S11321608EE79CE00E94D7362B893C8945E050E0FD
S1132170BE01615F7F4FCE0101960E94D73BBE0135
S11321806F5F7F4F89ED9AE00E94F639CE01019688
S11321900E941B3925E030E040E050E0BE01615F61
S11321A07F4FCE0101960E94D73BBE016F5F7F4FE8
S11321B08FED9AE00E94F639CE0101960E941B39F8
S11321C065E576E085EE9AE00E94013A64EB76E0FC
S11321D0CE0101960E94823969ED7AE0CE01019622
S11321E00E94573BBC018EE79CE00E94D736CE018B
S11321F001960E941B3966EC76E0CE0101960E949E
S113220082396FED7AE0CE0101960E94573BBC0102
S11322108EE79CE00E94D736CE0101960E941B39BE
S113222065EB75E089ED9AE00E948B3B811141C416
S113223063EB75E089ED9AE00E948B3B811139C410
S1132240CE010F968AC340E060E087EB9AE00E94DB
S1132250012E61E087EB9AE00E94BD364091F909B6
S11322605091FA096091FB097091FC098091F5097C
S11322709091F609A091F709B091F809480F591FF8
S11322806A1F7B1F41505109610971098091FD0941
S11322909091FE09A091FF09B091000A481B590BC7
S11322A06A0B7B0B2AE0CE010F960E94AC3A60EDDC
S11322B076E0CE0101960E948239BE01615F7F4FB4
S11322C0CE0101960E94573B6EEA76E00E94683B7D
S11322D0BC0187EB9AE00E94AE36CE0101960E94C3
S11322E01B39CE010F960E941B3965EB75E089ED11
S11322F09AE00E948B3B811121C480918D0A823027
S113230009F00EC41BC440E060E087EB9AE00E9431
S1132310012E61E087EB9AE00E94BD364091F909F5
S11323205091FA096091FB097091FC098091F509BB
S11323309091F609A091F709B091F809480F591F37
S11323406A1F7B1F41505109610971098091FD0980
S11323509091FE09A091FF09B091000A481B590B06
S11323606A0B7B0B2AE0CE010F960E94AC3A60ED1B
S113237076E0CE0101960E948239BE01615F7F4FF3
S1132380CE0101960E94573B6EEA76E00E94683BBC
S1132390BC0187EB9AE00E94AE36CE0101960E9402
S11323A01B39CE010F960E941B396CE380EE99E035
S11323B00E94891B80EE99E00E94A01BE82E42E057
S11323C0BE01695E7F4F90E00E94564063EC80EE50
S11323D099E00E94891B80EE99E00E94A01BF82ED0
S11323E042E0BE01615F7F4F90E00E945640FE24B0
S11323F0EF2CF12C42E0BE016F5F7F4FC7010E94BA
S11324005640C7010E9442059FEF29EF30E09150EA
S113241020403040E1F700C000003ADB10928F0A00
S113242010928E0A9CC240E060E087EB9AE00E9422
S1132430012E61E087EB9AE00E94BD364091F909D4
S11324405091FA096091FB097091FC098091F5099A
S11324509091F609A091F709B091F809480F591F16
S11324606A1F7B1F41505109610971098091FD095F
S11324709091FE09A091FF09B091000A481B590BE5
S11324806A0B7B0B2AE0CE010F960E94AC3A6EECED
S113249076E0CE0101960E948239BE01615F7F4FD2
S11324A0CE0101960E94573B6EEA76E00E94683B9B
S11324B0BC0187EB9AE00E94AE36CE0101960E94E1
S11324C01B39CE010F960E941B3980918E0A909180
S11324D08F0A69D86B017C0122E0AB01BC01CE01FB
S11324E00F960E94D73A68ED76E0CE0101960E94DD
S11324F08239BE01615F7F4FCE0101960E94573B36
S1132500BC0185E49AE00E94D939CE0101960E946B
S11325101B39CE010F960E941B3960918E0A70916F
S11325208F0A4AE0CE010F960E94583A67E576E09A
S1132530CE0101960E948239BE01615F7F4FCE01B8
S113254001960E94573BBC018BE49AE00E94D93962
S1132550CE0101960E941B39CE010F960E941B39B1
S11325606DE576E0CE0101960E9482396AE97AE04F
S1132570CE0101960E94573BBC0181E59AE00E947E
S1132580D939CE0101960E941B3941E060E087EB06
S11325909AE00E94012E65E47AE087EB9AE00E94BB
S11325A0AE3642E060E087EB9AE00E94012E6BE4D5
S11325B07AE087EB9AE00E94AE3643E060E087EB76
S11325C09AE00E94012E61E57AE087EB9AE00E948E
S11325D0AE36019B08C063EB75E089ED9AE00E947A
S11325E08B3B81111FC3199BBAC165EB75E089ED63
S11325F09AE00E948B3B811144C3B1C168ED71E044
S113260085E49AE00E94013A60EE76E08BE49AE079
S11326100E94013A68ED71E081E59AE00E94013A76
S11326206091900A7091910A44E650E08FE39AE039
S11326300E94280668ED71E087E59AE00E94013A5D
S113264003E61AE0B801CE0101960E94EE396EEE5F
S113265076E0CE0101960E94683BBC0187E59AE0D2
S11326600E94313BCE0101960E941B390A5F1F4F25
S11326708AE00738180731F762E471E087E59AE0E9
S11326800E94373B60EF76E0CE0101960E948239CA
S113269067E57AE0CE0101960E94573BBC018EE7C4
S11326A09CE00E94D736CE0101960E941B390E94FD
S11326B093018FE39FE10197F1F700C000000E94AE
S11326C091019FEF23ED30E3915020403040E1F73A
S11326D000C000006EE170E080E090E0FEC244992A
S11326E03EC14AE050E068E070E08FE39AE00E9467
S11326F0280668ED71E087E59AE00E94013A03E656
S11327001AE097E8E92E9AE0F92EB801CE01019675
S11327100E94EE396EEE76E0CE0101960E94683B8F
S1132720BC0187E59AE00E94313BCE0101960E94EC
S11327301B390A5F1F4FE016F10639F762E471E0B6
S113274087E59AE00E94373B60EF76E0CE01019680
S11327500E94823967E57AE0CE0101960E94573BD8
S1132760BC018EE79CE00E94D736CE0101960E9400
S11327701B398FEF93ED20E3815090402040E1F727
S113278000C0000067E57AE0CE010F960E94EE39A2
S113279080911C0A90911D0A9C838B8380911E0A50
S11327A090911F0AA091200AB091210A8D839E83E3
S11327B0AF83B8878091220A9091230AA091240ABA
S11327C0B091250A89879A87AB87BC878CE399E007
S11327D09A8389838091260A8D879E01215F3F4FCA
S11327E0AE014F5F5F4F60E371E080E590E00E94CF
S11327F03D09182FCE010F960E941B391123A1F019
S11328000E9493013FEF83EC99E031508040904067
S1132810E1F700C000006BEF76E08EE79CE00E94D9
S1132820E7360E94900B9BC00E9493014BE054E05A
S113283064E070E0CE014F960E949E03CE014F9655
S11328400E94733C6B017C0100915B0A10915C0A4D
S113285067E57AE0CE0101960E94EE39A601B8013F
S1132860CE0101960E945304182FCE0101960E94B6
S11328701B39112309F46DC04AE0B601CE010F964D
S11328800E94583A62E177E0CE0101960E948239B3
S1132890BE01615F7F4FCE0101960E94573BBC0190
S11328A08EE79CE00E94D736CE0101960E941B3928
S11328B0CE010F960E941B3922E3C20ED11C39EBC4
S11328C0C3163BE0D30624F080EDC82E87E0D82E53
S11328D04AE0B601CE0147960E94583A0B8D1C8DF2
S11328E0BE01695E7F4FCE0101960E94EE394BE036
S11328F054E0B801CE0101960E945304182FCE0172
S113290001960E941B39112301F14AE0B601CE0160
S11329100F960E94583A68E277E0CE0101960E9431
S11329208239BE01615F7F4FCE0101960E94573B01
S1132930BC018EE79CE00E94D736CE0101960E942E
S11329401B39CE010F960E941B39CE0147960E9477
S11329501B390E94900BCE014F960E941B3961E0F7
S11329607AE0CE0101960E943D2186E0FE01319677
S1132970AFEEB9E001900D928A95E1F78FEE99E000
S11329800E948E206093FD097093FE098093FF09D5
S11329909093000A0091F9091091FA092091FB091A
S11329A03091FC09C090F509D090F609E090F70940
S11329B0F090F8090C0D1D1D2E1D3F1D68017901B5
S11329C0C61AD70AE80AF90AD701C6010297A1056F
S11329D0B10508F085C10E94900B82C168ED71E0D9
S11329E08EE79CE00E94E7366CE377E08EE79CE09C
S11329F00E94BC366CE777E0CE0101960E948239D2
S1132A00BE01615F7F4FCE0101960E94573BBC011E
S1132A108EE79CE00E94D736CE0101960E941B39B6
S1132A206CE377E08EE79CE00E94BC366BE877E0CD
S1132A308EE79CE00E94E736BE01615F7F4F83E62C
S1132A409AE00E94D93987EB9AE00E94E32D87EB44
S1132A509AE00E94492E8FE39CE90197F1F700C0A8
S1132A60000060EB77E085E49AE00E94013A62ECB2
S1132A7077E08BE49AE00E94013A65ED77E081E526
S1132A809AE00E94013A6091900A7091910A44E69A
S1132A9050E08FE39AE00E9428060E9495019FEF80
S1132AA023ED30E3915020403040E1F700C00000B6
S1132AB016CA6FED7AE089E69AE00E94D93969ED89
S1132AC07AE08FE69AE00E94D93966EC76E0CE018E
S1132AD001960E9482396FED7AE0CE0101960E9440
S1132AE0573BBC0181E59AE00E94D939CE01019699
S1132AF00E941B398FEF99E628E1815090402040D5
S1132B00E1F700C0000010928D0A60911E017091DF
S1132B101F0180912001909121010E945D0690CBBC
S1132B2063EB75E089ED9AE00E948B3B81113BC019
S1132B3080918D0A813009F012CF35C082E40E9461
S1132B40C50A65EB75E089ED9AE00E94013A67E0F9
S1132B5070E080E090E00E94390B62E276E08AE95E
S1132B609AE00E94013A69ED7AE08FE69AE00E94C9
S1132B70D9396AE276E085E49AE00E94013A6BE38F
S1132B8076E08BE49AE00E94013A6FE376E081E517
S1132B909AE00E94013A3FEF81EE94E03150804088
S1132BA09040E1F734C063EB75E089ED9AE00E9450
S1132BB0013A84E40E94C50A67E070E080E090E096
S1132BC00E94FE0A63E176E08AE99AE00E94013AF3
S1132BD069ED7AE08FE69AE00E94D9396AE276E0FC
S1132BE085E49AE00E94013A6BE376E08BE49AE094
S1132BF00E94013A6FE376E081E59AE00E94013A8F
S1132C002FEF31EE84E0215030408040E1F700C0E6
S1132C100000609122017091230180912401909120
S1132C2025015BC022E0B701A601CE0101960E94F6
S1132C30D73ABE016F5F7F4F85E79AE00E94F6396D
S1132C40CE0101960E941B3968EE77E08AE99AE08A
S1132C500E94013A67E070E081E090E00E94390B45
S1132C6067E070E081E090E00E94FE0A6091160146
S1132C707091170180911801909119010E945D06CD
S1132C80B2CC22E0B701A601CE0101960E94D73A48
S1132C90BE016F5F7F4F85E79AE00E94F639CE014F
S1132CA001960E941B3968EE77E08AE99AE00E9457
S1132CB0013A67E070E081E090E00E94390B67E040
S1132CC070E081E090E00E94FE0A6091160170912C
S1132CD0170180911801909119010E945D063FCE61
S1132CE0AA960FB6F894DEBF0FBECDBFDF91CF9189
S1132CF01F910F91FF90EF90DF90CF9008951F9256
S1132D000F920FB60F9211240BB60F922F933F938D
S1132D104F935F936F937F938F939F93AF93BF93DF
S1132D20EF93FF93059B16C080918E0A90918F0AB2
S1132D30019690938F0A80938E0A60914901709155
S1132D404A0180914B0190914C010E946E34CB0159
S1132D500E94FC01069B16C080918E0A90918F0AF6
S1132D60019690938F0A80938E0A60914901709125
S1132D704A0180914B0190914C010E946E34CB0129
S1132D800E94FC01FF91EF91BF91AF919F918F91B0
S1132D907F916F915F914F913F912F910F900BBE57
S1132DA00F900FBE0F901F9018951F920F920FB6A1
S1132DB00F9211248F939F938091900A9091910A7E
S1132DC0049709F06AC04E9B1CC08091ED0A909153
S1132DD0EE0A01969093EE0A8093ED0A8091ED0A33
S1132DE09091EE0A181619061CF51092EE0A10922C
S1132DF0ED0A1092EC0A1092EB0A82E080938D0A9D
S1132E0017C08091EB0A9091EC0A01969093EC0A1A
S1132E108093EB0A8091EB0A9091EC0A029744F0BC
S1132E201092EE0A1092ED0A1092EC0A1092EB0A3C
S1132E304F9B1CC08091ED0A9091EE0A01969093ED
S1132E40EE0A8093ED0A8091ED0A9091EE0A18162D
S1132E5019061CF51092EE0A1092ED0A1092EC0A73
S1132E601092EB0A81E080938D0A17C08091EB0ADF
S1132E709091EC0A01969093EC0A8093EB0A80916E
S1132E80EB0A9091EC0A029744F01092EE0A109229
S1132E90ED0A1092EC0A1092EB0A9F918F910F9019
S1132EA00FBE0F901F9018958F92AF92CF92EF9212
S1132EB00F93CF93DF9300E020E040E060E089E2ED
S1132EC09BE00E9429366DE671E08FEE9AE00E9445
S1132ED082396EE771E085EF9AE00E948239CFEE85
S1132EE0DAE088EE93E09D878C8761E971E08DEFED
S1132EF09AE00E94823969E971E083E09BE00E94D4
S1132F0082398CEF93E09B8F8A8F66EA71E08BE0C5
S1132F109BE00E94823963EB71E081E19BE00E94B7
S1132F2082398BE094E099A788A769EB71E089E185
S1132F309BE00E94823965EC71E08FE19BE00E9486
S1132F40823980E194E09FAB8EAB68ED71E089ED4E
S1132F509AE00E94823968ED71E08FED9AE00E9458
S1132F60823968ED71E085EE9AE00E9482391F9201
S1132F7083E08F9387E0882E96E0A92E25E0C22E69
S1132F8034E0E32E21E042E067E287EB9AE00E941E
S1132F90802F43E064E080EA9AE0FCD368EF77E0B6
S1132FA08AE99AE00E94823968ED71E084E99AE046
S1132FB00E94823968ED71E087E89AE00E948239C4
S1132FC068ED71E083E69AE00E94823968ED71E071
S1132FD089E69AE00E94823968ED71E08FE69AE012
S1132FE00E94823968ED71E085E79AE00E94823997
S1132FF068ED71E08BE79AE00E94823968ED71E038
S113300081E89AE00E94823968ED71E08DE59AE0EA
S11330100E94823968ED71E087E59AE00E94823966
S11330206DE275E08FE39AE00E9482396DE275E00B
S113303085E49AE00E9482396DE275E08BE49AE0BF
S11330400E9482396DE275E081E59AE00E9482393E
S113305002E023E048EA60EC89E39AE00E94293622
S113306005E121E048EA60EC83E39AE00E94293616
S113307001E020E048EA60EC8DE29AE00E94293603
S113308000E020E04FEF6FEF87E29AE00E942936DC
S11330908AE19AE00E94E6268DE09AE00E94E62604
S11330A081E09AE00E94C32040E050E0BA018FEE34
S11330B099E0FDD668ED71E089EE99E00E948239CD
S11330C068ED71E083EE99E00E9482390F900F90D1
S11330D080EE99E0DF91CF910F91EF90CF90AF9078
S11330E08F90B8C2CF93DF9383EE99E00E941B398F
S11330F089EE99E00E941B3981E09AE00E94CA207F
S113310081E59AE00E941B398BE49AE00E941B3906
S113311085E49AE00E941B398FE39AE00E941B39F0
S113312087E59AE00E941B398DE59AE00E941B39DD
S1133130C7E8DAE02697CE010E941B398AE0C3363D
S1133140D807C1F787E89AE00E941B3984E99AE01E
S11331500E941B398AE99AE00E941B3985EE9AE0A5
S11331600E941B398FED9AE00E941B3989ED9AE089
S11331700E941B3989E19BE00E9419058BE09BE0CA
S11331800E9419058DEF9AE00E9419058FEE9AE0CE
S1133190DF91CF910C941905CF92DF92EF92FF92B9
S11331A00F931F93CF93DF93CDB7DEB764970FB61A
S11331B0F894DEBF0FBECDBF3C9A8FE19EE4019729
S11331C0F1F700C000000E9493019FEF21EE84E01C
S11331D0915020408040E1F700C0000061E078E0B9
S11331E08EE79CE00E94E7360E9408028FEE9AE088
S11331F09093280B8093270B0E94080266E178E0E5
S11332008EE79CE00E94BC364AE050E060E070E14A
S11332108EE79CE00E9450376BED71E08EE79CE0F6
S11332200E94E73661E378E08EE79CE00E94BC36BA
S113323068ED71E0CE010F960E94823960E070E182
S113324080E090E00E9467036091270B7091280B47
S1133250CE0101960E940005CE0101960E94D4027F
S1133260182FCE0101960E941905112331F06AE44A
S113327078E08EE79CE00E94E7366091270B70911E
S1133280280B625F7F4FCE0101960E940005CE019C
S113329001960E94D402182FCE0101960E941905AE
S11332A0112331F06AE478E08EE79CE00E94E7366F
S11332B06091270B7091280B645E7F4FCE010196BD
S11332C00E940005CE0101960E94D402182FCE015F
S11332D001960E941905112331F06AE478E08EE723
S11332E09CE00E94E7366091270B7091280B665D85
S11332F07F4FCE0101960E940005CE0101960E94E7
S1133300D402182FCE0101960E941905112331F021
S11333106AE478E08EE79CE00E94E7360E940802A7
S11333203E9A3F9A0F9A8FE39CE90197F1F700C008
S11333300000479A8FE39CE90197F1F700C0000071
S1133340179A0E94080220E044E064E187EB9AE0C7
S11333500E94063087EB9AE00E94E32D9FEF24E35E
S11333608CE0915020408040E1F700C0000087EBE2
S11333709AE00E94EB2D9FEF24E38CE091502040D3
S11333808040E1F700C0000087EB9AE00E94E32D43
S11333909FEF24E38CE0915020408040E1F700C08F
S11333A0000087EB9AE00E94EB2D9FEF24E38CE072
S11333B0915020408040E1F700C0000041E551E019
S11333C061E087EB9AE00E94C92E9FEF29EF80E02D
S11333D0915020408040E1F700C0000087EB9AE064
S11333E00E94E32D0FE31AE068ED71E0C8010E942A
S11333F0013A0A5F1F4F9AE007351907A9F70E949F
S1133400080280EA9AE0D7D12FEF80E792E02150BA
S113341080409040E1F700C0000080EA9AE06BD35E
S11334206B017C01672B682B692B69F563E578E0F8
S11334308EE79CE00E94BC3687EB9AE00E94E32D65
S11334402FEF84E39CE0215080409040E1F700C0DE
S1133450000087EB9AE00E94FB2D6CE678E087EB96
S11334609AE00E94BC362FEF87EA91E62150804013
S11334709040E1F700C0000066E878E08AE99AE04D
S11334800E94013A06C069E978E08EE79CE00E9458
S1133490E7366EEA78E08EE79CE00E94BC364F2D5A
S11334A055276627772720E130E08EE79CE00E94CD
S11334B055376DEB78E08EE79CE00E94BC364E2DCC
S11334C050E060E070E02AE030E08EE79CE00E948B
S11334D03E376EE28EE79CE00E94BD364D2D50E0F3
S11334E060E070E02AE030E08EE79CE00E9455370F
S11334F06FEF80EA9AE075D380EA9AE044D30E94A1
S1133500080240EA56E861E070E081E09AE085D67E
S1133510811110C060EE71E08EE79CE00E94C73616
S11335202FEF83ED90E3215080409040E1F700C0FD
S11335300000E7CF2FEF80E792E0215080409040D9
S1133540E1F700C0000062EC71E08EE79CE00E94AD
S1133550C73681E09AE0BFD70E9408026CEC78E09D
S11335608EE79CE00E94E73688E29CE00E94693383
S113357068E270E088E29CE00E94863360E088E2C2
S11335809CE00E942B3362E388E29CE00E942B3390
S113359088E29CE00E94FD332FEF80E792E0215007
S11335A080409040E1F700C0000062E570E088E2EE
S11335B09CE00E94863360E088E29CE00E942B330A
S11335C062E388E29CE00E942B3388E29CE00E9444
S11335D0FD3388E29CE00E94783360E079E08EE776
S11335E09CE00E94E7360E94080260E280EE99E0C7
S11335F036D02CE340E063EC80EE99E036D08EEFD9
S11336009FEF9093910A8093900A61E179E08AE9AF
S11336109AE00E94013A6AE97AE08EE79CE00E940F
S1133620D7360E9408020E9408020E940802CE01B6
S11336300F960E941B3964960FB6F894DEBF0FBE36
S1133640CDBFDF91CF911F910F91FF90EF90DF904D
S1133650CF900895FC011082118212820895FC011A
S1133660608388E29CE00C946933FF920F931F936C
S1133670CF93DF93EC01F62E042F122F688188E29A
S11336809CE00E947C3361E088E29CE00E942B3342
S11336906F2D88E29CE00E942B3388E29CE00E941C
S11336A0FD33688188E29CE00E947C3362E088E21A
S11336B09CE00E942B33602F88E29CE00E942B3315
S11336C088E29CE00E94FD338FE39CE90197F1F7C7
S11336D000C00000688188E29CE00E947C3363E0C3
S11336E088E29CE00E942B33612F88E29CE00E94D8
S11336F02B3388E29CE00E94FD338FE39CE9019721
S1133700F1F700C00000DF91CF911F910F91FF905E
S11337100895CF93C62FFC01608188E29CE00E944B
S11337207C3363E088E29CE00E942B336C2F88E2B8
S11337309CE00E942B3388E29CE0CF910C94FD33F3
S1133740CF93DF93EC01688188E29CE00E947C3394
S113375060E088E29CE00E942B3388E29CE00E94B7
S1133760FD33688170E041E050E088E29CE00E9413
S1133770FB33C0E088E29CE00E949D32892B31F04B
S113378088E29CE00E94A532C82FF4CF8C2FDF91F1
S1133790CF910895CF93DF93EC01862F6C834D83F3
S11337A01D8A1E8A60E00E94883861E08D81DF9165
S11337B0CF910C948838CF93DF93EC0188E29CE09E
S11337C00E94693361E08D810E94C43860E08D817C
S11337D00E94C4382FEF87E893E121508040904045
S11337E0E1F700C0000061E08D810E94C4388FE3DE
S11337F09CE90197F1F700C00000DF91CF91089593
S11338004F925F926F927F928F929F92AF92BF92EC
S1133810EF92FF920F931F93CF93DF93CDB7DEB751
S11338202C970FB6F894DEBF0FBECDBF7C015A01B2
S11338302801390168ED71E00E9482398501812CEB
S1133840912C540184149504A604B70409F446C0C9
S1133850F80161918F0140E1CE016031F0F40196ED
S11338600E942D3AB701CE0107960E94EE3965E514
S113387076E0CE0107960E94683BBE016F5F7F4FE2
S11338800E94573BBC01C7010E94D939CE0107965B
S11338900E941B39CE01019619C007960E942D3A49
S11338A0B701CE0101960E94EE39BE01695F7F4FD8
S11338B0CE0101960E94573BBC01C7010E94D93931
S11338C0CE0101960E941B39CE0107960E941B3936
S11338D0FFEF8F1A9F0AAF0ABF0AB4CF8EE79CE0AE
S11338E00E94C436C7012C960FB6F894DEBF0FBEF3
S11338F0CDBFDF91CF911F910F91FF90EF90BF90BB
S1133900AF909F908F907F906F905F904F900895AD
S1133910FC0184810E94F23891E0811190E0892FAA
S11339200895CF92DF92EF92FF921F93CF93DF938C
S11339306C017B01C0E0D0E0C601EADF182F8111E1
S113394015C0E114F10459F02A96EC16FD0638F47A
S11339506FE279E08EE79CE00E94E73607C08FE3D0
S11339609CE90197F1F700C00000E6CF812FDF91B9
S1133970CF911F91FF90EF90DF90CF900895FF9229
S11339800F931F93CF93DF93F62E072F142F8FE3FC
S11339909FE10197F1F700C0000042E0410F64E2AB
S11339A088E29CE00E94F93388E29CE00E94A53200
S11339B0CF2DD02FCE01810F911D8C01C017D107BF
S11339C061F08FE99FE00197F1F700C0000088E201
S11339D09CE00E94A5328993F1CFDF91CF911F9192
S11339E00F91FF900895CF93DF9300D000D000D0C3
S11339F0CDB7DEB746E0BE016F5F7F4FC0DF46E064
S1133A0050E06FE571E0CE0101960E942F4021E065
S1133A10892B09F020E0822F26960FB6F894DEBF9A
S1133A200FBECDBFDF91CF910895682F88E29CE04F
S1133A300C942B33CF92DF92EF92FF920F931F934C
S1133A40CF93DF937B01C1E0C40F8FE39FE1019724
S1133A50F1F700C0000064E270E088E29CE00E949C
S1133A60863380E0E2DF80E0E0DF8FEFDEDF8C2F63
S1133A70DCDF8C2F8195D9DF84EDD7DFC12C83ED7A
S1133A80D82ED0E021970C2D10E00C171D0754F40C
S1133A900E0D1F1DF8018081C8DFF8018081D80E4A
S1133AA0C394F1CF8D2D8095C0DF80E0BEDF88E226
S1133AB09CE0DF91CF911F910F91FF90EF90DF90E9
S1133AC0CF900C94FD330F931F93CF93DF93EC01AE
S1133AD08901B0DFB801CE0124DF882331F0CE01A3
S1133AE0DF91CF911F910F917ECF80E0DF91CF9135
S1133AF01F910F910895CF93DF93EC0182E080939F
S1133B002F0B28EE33E041E06FE27BE0CE01DBDFF8
S1133B10811104C060E070E0CB0132C04CE06FE280
S1133B207BE0CE012CDF46E050E069E571E08FE2F6
S1133B309BE00E942F40892B69F78D89811103C076
S1133B40E7E0F0E002C0E6E0F0E0E15DF44F608120
S1133B50862F90E0A0E0B0E0BA2FA92F982F8827F5
S1133B602181822BBA2FA92F982F88272281822B7B
S1133B70BA2FA92F982F88272381BC01CD01622B4E
S1133B80DF91CF910895CF93DF93EC0194E190936B
S1133B902F0B81E08093300B9093310B8093320B89
S1133BA028EE33E044E06FE27BE0CE018CDF882333
S1133BB0A9F048E06FE27BE0CE01E1DE8D8981115E
S1133BC003C086E090E002C085E090E0FC01E15D86
S1133BD0F44F81E09081953109F080E0DF91CF913D
S1133BE00895EFE2FBE022E3208325E021832FEF19
S1133BF0228321E02383648328EE33E045E0BF0180
S1133C0062CFAF92BF92CF92DF92EF92FF920F9367
S1133C101F93CF93DF93EC017A01590168018AE481
S1133C2080932F0B81E08093300B6093310B9801CC
S1133C3043E06FE27BE0CE0146DF182F882341F199
S1133C408D89882379F044E16FE27BE0CE0197DE31
S1133C508091360B8130E1F480913B0BF501808338
S1133C6080E006C0B601CE015CDE8111ECCF10C04D
S1133C7090913B0B891768F4282F30E0F901E15D3E
S1133C80F44F9585F701E20FF31F90838F5FF0CF18
S1133C9010E0812FDF91CF911F910F91FF90EF9052
S1133CA0DF90CF90BF90AF900895AF92BF92CF9224
S1133CB0DF92EF920F931F93CF93DF93EC01142FB6
S1133CC05C018EE0A80EB11C86E0F601D5010190DE
S1133CD00D928A95E1F750E0CE0106960E941640B7
S1133CE01D8780E480932F0B81E08093300BE110DB
S1133CF002C080E601C081E68093310B0093320B51
S1133D0086E0F501A3E3BBE001900D928A95E1F70B
S1133D1080E04D85841760F4282F30E0FE01E20F27
S1133D20F31F9681F901E15DF44F92878F5FF1CF24
S1133D30465F28EE33E06FE27BE0CE01C4DE8823E9
S1133D4049F04CE06FE27BE0CE0119DE81E0909116
S1133D50360B911180E0DF91CF911F910F91EF907D
S1133D60DF90CF90BF90AF9008950F931F93CF93A0
S1133D70DF93EC018A0180E480932F0B81E0809330
S1133D80300B80E38093310B6093320B28EE33E0E9
S1133D9044E06FE27BE0CE0196DE811102C080E058
S1133DA012C04AE16FE27BE0CE01E9DD8091360B7F
S1133DB08111F5CF80E1E7E3FBE0D80101900D929A
S1133DC08A95E1F781E0DF91CF911F910F910895DA
S1133DD0CF93DF93EC0180E480932F0B81E08093F9
S1133DE0300B80EA8093310B6093320B80E1FA014F
S1133DF0A3E3BBE001900D928A95E1F728EE33E04E
S1133E0044E16FE27BE0CE015EDE882369F08FE35C
S1133E109CE90197F1F700C000004AE16FE27BE002
S1133E20CE01ADDD81E001C080E0DF91CF91089546
S1133E30803D27E0920710F0805D974050E0E4E277
S1133E40F2E021E0261730F43491430F511D2F5F27
S1133E503196F8CF633038F09C0123703327232B3D
S1133E6011F44F5F5F4FBC016D5F7F4F769567958F
S1133E7076956795EDE6F1E08E9F90018F9F300D6A
S1133E809E9F300D1124C9010197860F971F840F3F
S1133E90951F0895FC01908190539A3008F090E0AA
S1133EA0818180532AE0929F800D112408958F927E
S1133EB09F92AF92BF92CF92DF92EF92FF92CF93F5
S1133EC0DF93EC016A017B0180E8C81A83E4D80A15
S1133ED08DE6E80A88E3F80A8CE3882E912CA12C5D
S1133EE0B12CC701B601A50194010E94773D6D83F1
S1133EF0CA01B901A50194010E94773D6C83C701F1
S1133F00B60120E13EE040E050E00E94773DCA0166
S1133F10B90128E130E040E050E00E94773D6B8336
S1133F20C701B60120E831E541E050E00E94773D49
S1133F3018828881982F937041E050E011F040E09E
S1133F4050E0BA0163597E4F2617370738F0241B17
S1133F50350B2D5631408F5F8883EBCF81E0898309
S1133F608981E82FF0E0ED5DFD4FE491911103C0EC
S1133F70823009F4EF5FF0E02E173F0720F02E1B8C
S1133F803F0B8F5FECCF2F5F2A83DF91CF91FF90A0
S1133F90EF90DF90CF90BF90AF909F908F90089557
S1133FA0EF92FF920F931F93CF93DF93CDB7DEB7BA
S1133FB02B970FB6F894DEBF0FBECDBF8C017A01EC
S1133FC04BE050E0CE0101960E940D40CE010A96CE
S1133FD061DFF8018083E9818E2F90E0FC01E154D8
S1133FE0F109E331F10548F5EF5AFF4F0C94993D7F
S1133FF08A81813629F08B818E3621F087E01BC0BF
S113400081E019C086E017C082E015C08B81823739
S113401011F088E010C084E00EC08B81823711F06B
S113402085E009C083E007C089E005C08AE003C0D9
S11340308BE001C08CE0F8018183CE0105962ADF74
S1134040F801828348E050E0B701CE0101960E9456
S11340500D40CE0101961EDFF8018383CE01049644
S113406019DFF8018483CE01079614DFF8018583F4
S11340702B960FB6F894DEBF0FBECDBFDF91CF9164
S11340801F910F91FF90EF900895FC018081428170
S1134090618190E0CDDE069667E070E00C94633DAC
S11340A00895EF92FF920F931F93CF93DF93EC0148
S11340B088814A81698190E0BBDE9C01A8E1B0E07F
S11340C00E94A23D2B817B018C01E20EF11C011D9B
S11340D0111DA8019701ACE3B0E00E94B13D2C8111
S11340E07B018C01E20EF11C011D111DA801970139
S11340F00E94B13D2D81DC01CB01820F911DA11DD8
S1134100B11DBC01CD0160587C4B8249974CDF91B5
S1134110CF911F910F91FF90EF900895EF92FF922E
S11341200F931F93CF93DF93EC0188814A816981B8
S113413090E07EDE9C01A8E1B0E00E94A23D2B81CC
S11341407B018C01E20EF11C011D111DA8019701D8
S1134150ACE3B0E00E94B13D2C817B018C01E20E06
S1134160F11C011D111DA80197010E94B13D2D8173
S1134170620F711D811D911DDF91CF911F910F91D0
S1134180FF90EF900895FC01108211821282138235
S11341901482089508950F931F93CF93DF93EC0136
S11341A0062F142F68E688E29CE00E947C33602F7F
S11341B088E29CE00E942B33612F88E29CE00E94FD
S11341C02B3388E29CE00E94FD338883DF91CF91FA
S11341D01F910F9108951F93CF93DF93EC01162F36
S11341E068E688E29CE00E947C33612F88E29CE0D0
S11341F00E942B3388E29CE00E94FD33888341E0D7
S113420068E688E29CE00E94F93388E29CE00E9420
S1134210A532DF91CF911F910895CF92DF92EF9253
S1134220FF92CF93DF93EC016A017B0188E29CE06B
S11342300E946933B701A60188E29CE00E947933A9
S113424068E688E29CE00E947C3388E29CE00E945D
S1134250FD3381110AC062E0CE01BDDF482F4F7BE0
S113426062E0CE0198DF81E001C080E0DF91CF9170
S1134270FF90EF90DF90CF9008950F931F93CF930B
S1134280DF938C01EB0168E688E29CE00E947C33BA
S113429060E088E29CE00E942B3388E29CE00E946C
S11342A0FD33888347E068E688E29CE00E94F933A6
S11342B088E29CE00E949D32079709F064C088E27E
S11342C09CE00E94A532982F9695969596959E709F
S11342D0292F220F220F920F8F70890F8D8388E26E
S11342E09CE00E94A532982F9695969596959E707F
S11342F0292F220F220F920F8F70890F8E8388E24D
S11343009CE00E94A532982F9695969596959E705E
S1134310292F220F220F920F8F70890F8F8388E22B
S11343209CE00E94A53288E29CE00E94A532982F6E
S11343309695969596959670292F220F220F920F97
S11343408F70890F888788E29CE00E94A53284FBE5
S1134350992790F9990F292F220F220F920F8F700E
S1134360890F898788E29CE00E94A532982F929554
S11343709F708F702AE0929F800D112490E08053EB
S1134380984F9B878A872D813E814F815885698507
S11343908A859B85803D77E0970710F0805D974084
S11343A0F801808361835283438334832583C80166
S11343B0DF91CF911F910F910895DF92EF92FF92B9
S11343C00F931F93CF93DF9300D000D000D0CDB7CD
S11343D0DEB78C017B01FB0185819AE0D92E6D2D1E
S11343E00E94573D492FF0E18F9F400D112460E05A
S11343F0C801D1DEF70184816D2D0E94573D492FFC
S1134400F0E18F9F400D112461E0C801C4DEF70183
S113441083816D2D0E94573D492FF0E18F9F400D00
S1134420112462E0C801B7DEC7012FDE482F63E024
S1134430C801B1DEF70182816D2D0E94573D492FDD
S1134440F0E18F9F400D112464E0C801A4DEF70160
S113445081816D2D0E94573D492FF0E18F9F400DC2
S1134460112465E0C80197DEF70180816D2D0E945B
S1134470573D492FF0E18F9F400D112466E0C8019C
S11344808ADE6FE0C801A7DE482F4F776FE0C801CE
S113449082DE6EE0C8019FDE482F4F776EE0C801D0
S11344A07ADEB801CE010196E8DECE010196F9DD8F
S11344B0F801618372838383948326960FB6F894FC
S11344C0DEBF0FBECDBFDF91CF911F910F91FF9043
S11344D0EF90DF9008950F931F93CF93DF9300D055
S11344E000D000D0CDB7DEB78C014BE152E06FE0D5
S11344F072E0CE01019654DDBE016F5F7F4FC801AB
S11345005CDF26960FB6F894DEBF0FBECDBFDF91F9
S1134510CF911F910F9108950F9300E020E040E0A8
S113452060E08FE69BE00E9429360F910895FB011D
S11345304281538164817581FC0142835383648386
S11345407583178216820895CF93DF93DA01FB01F6
S1134550EB0189918111FDCF80E090E020E030E013
S11345604AE051915523E9F02430310544F55E3297
S113457069F48F3F910509F014F5ED01C20FD31FC3
S11345808A832F5F3F4F80E090E0EBCF489FB001DC
S1134590499F700D1124852F90E0C097860F971FB7
S11345A0E0CF8F3F910509F054F4243031053CF4F9
S11345B0FD01E20FF31F828381E090E002C080E0FE
S11345C090E0DF91CF9108950F9300E020E040E068
S11345D060E085E79BE00E9429360F9108958F9251
S11345E09F92AF92BF92CF92DF92EF92FF920F937E
S11345F01F93CF93DF9300D01F92CDB7DEB76C012A
S11346007B010E94AF37F601778366838601085FDA
S11346101F4FB6016A5F7F4F42E050E0C80130D5BA
S113462081E090E09A83898342E050E0BE016F5FAD
S11346307F4FC80125D580E091E09A83898342E0C9
S113464050E0BE016F5F7F4FC8011AD51A821982EC
S113465042E050E0BE016F5F7F4FC80111D542E0D8
S113466050E0BE016F5F7F4FC8010AD542E050E0C1
S1134670BE016F5F7F4FC80103D55701F5018081EB
S11346808823F9F0A7015A01F50181916F0188236C
S113469021F08E3211F0A601F6CF4A018E189F0840
S11346A01814190464F48B8241E050E0BE016D5F7C
S11346B07F4FC801E5D4A401B701C801E1D4760154
S11346C0DDCF1B8241E050E0BE016D5F7F4FC8012A
S11346D0D7D4E12CFF24F394FA82E98242E050E03B
S11346E0BE016F5F7F4FC801CBD4FA82E98242E0FA
S11346F050E0BE016F5F7F4FC801C2D481E090E0FB
S11347000F900F900F90DF91CF911F910F91FF9019
S1134710EF90DF90CF90BF90AF909F908F900895CF
S11347202F923F924F925F926F927F928F929F92BD
S1134730AF92BF92CF92DF92EF92FF920F931F93AB
S1134740CF93DF93CDB7DEB763970FB6F894DEBF90
S11347500FBECDBF7C016B011A010E94AF374B0124
S11347605C018701085F1F4F2601612C712CC80171
S113477029D518161906A4F00E94AF37DC01CB0125
S113478088199909AA09BB09481659066A067B06BD
S1134790D0F062E370E080E090E00E94E037E7CF81
S11347A0F7014281538164817581818D928DA38D3E
S11347B0B48D481759076A077B0749F4858D968D90
S11347C0C59729F409C0EE24EA94FE2CF0C09EEFAC
S11347D0E92EFF24FA94EBC0C80108D40C970CF41A
S11347E0E2C04CE050E0BE016F5F7F4FC80183D44C
S11347F08B819C819827892798279A8B898BF7012D
S11348004681578129813A814217530711F497FD54
S113481007C0C80105D47CEFE72EFF24FA94C7C073
S11348208F709270892B39F0C801FAD36BEFE62EA2
S1134830FF24FA94BCC0CF80D884DC24CD24DC24AB
S1134840C114D10419F0E12CF12C1FC0C801E8D324
S11348505AEFE52EFF24FA94AAC041E050E0BE01CD
S1134860635F7F4FC80147D48D85811117C08D8543
S11348708111F3CFC80117D4C80115D4C80113D4CA
S1134880C80111D4FFEFEF1AFF0A8D819E8198278A
S113489089279827E816F90600F309C08D859FEF4C
S11348A0980F9D87882319F3C801FDD3F7CFA12C56
S11348B0B12C41E050E0BE016D5E7F4FC8011BD4B6
S11348C08B89982F907C59F4882379F08B899FEFFA
S11348D0980F9B8B882331F0C801E5D3F7CFC8012B
S11348E0E2D31B8A8B898111E4CF42E050E0BE0100
S11348F0615F7F4FC801FFD342E050E0BE01635FB8
S11349007F4FC801F8D3C801CED3C801CCD3C801A6
S1134910CAD3C801C8D342E050E0BE016F5E7F4FE6
S1134920C801E9D38F8598898115914049F4ED84B4
S1134930FE84FE24EF24FE2481E0E816F10419F03D
S1134940E12CF12C14C089899A898115944039F09D
S1134950C80166D347EFE42EFF24FA9428C0B101BE
S11349606E5F7F4F44E050E0C801C5D320C0898901
S11349709A89982789279827E816F90630F4C801F8
S113498092D3FFEFEF1AFF0AF2CF2FEFA21AB20A67
S1134990CA14DB0409F08DCFC80142D336EFE32EED
S11349A0FF24FA9404C08DEFE82EFF24FA94C70183
S11349B063960FB6F894DEBF0FBECDBFDF91CF91E3
S11349C01F910F91FF90EF90DF90CF90BF90AF9029
S11349D09F908F907F906F905F904F903F902F901B
S11349E008958F929F92AF92BF92CF92DF92EF92EF
S11349F0FF920F931F93CF93DF9300D000D000D08A
S1134A00CDB7DEB77C014B015A019EDD8C01892BA9
S1134A1009F057C0F7014281538164817581809107
S1134A20770B9091780BA091790BB0917A0B481782
S1134A3059076A077B0709F447C00E94AF3767012B
S1134A40F8E0CF0ED11C6F7077277C5FC60189D345
S1134A50813009F03BC080EC99E09A838983F701A7
S1134A6082819381A481B5818B839C83AD83BE8332
S1134A7045E350E0BE016F5F7F4FC601F7D2892B3B
S1134A8019F400E010E01AC0B401C701A8DD892BB5
S1134A90C1F3C601F2D2892BA1F383E0882E912CB5
S1134AA0A50168E873E1C7013BDE8C0121E0821AAD
S1134AB0910821F00F3FFFEF1F0791F3C601C2D207
S1134AC005C001E010E002C00EEF1FEFC8012696FA
S1134AD00FB6F894DEBF0FBECDBFDF91CF911F910B
S1134AE00F91FF90EF90DF90CF90BF90AF909F9089
S1134AF08F90089524E030E0AC0164E081E090E020
S1134B0035C624E030E0AC0164E085E090E02EC6D8
S1134B1026E030E0AC0164E089E090E027C624E0C0
S1134B2030E0AC0164E08FE090E020C68F929F9269
S1134B30AF92BF92CF92DF92EF92FF920F931F93A7
S1134B40CF93DF934C015B016A01E901FC016485A9
S1134B5085EB9BE053D6C501DBDFC6010296DFDFA0
S1134B60C8010296C7DFC7010296CBDF8A819B8109
S1134B70AC81BD81F40182839383A483B583DF91E7
S1134B80CF911F910F91FF90EF90DF90CF90BF9046
S1134B90AF909F908F90089520EC39E0FC01318311
S1134BA02083FB014281538164817581FC0142832E
S1134BB053836483758308950F9300E020E040E0FD
S1134BC060E088E99BE00E9429368BE79BE00E9425
S1134BD01F36EBE7FBE0138612868AE084870F9189
S1134BE00895DC01ED91FC91028CF38DE02D099583
S1134BF091E089270895CF93DF931F92CDB7DEB755
S1134C006983DC01ED91FC910280F381E02D41E0A8
S1134C1050E0BE016F5F7F4F09950F90DF91CF91F8
S1134C20089521E0FC018485883009F420E0822F76
S1134C300895FC019485FB018485981303C081E0E9
S1134C40983009F480E00895CF92DF92EF92FF92BA
S1134C500F931F93CF93DF93CDB7DEB7AF970FB604
S1134C60F894DEBF0FBECDBF8C016B017A01CE017B
S1134C7001960E941F36CE010996F3D2CE018A9680
S1134C800E941F366BE77BE0CE01849685DFBE0170
S1134C906C5D7F4FCE0101964ADCAE01465D5F4FED
S1134CA0B601CE0101969DDE81309105C1F4D80193
S1134CB0ED91FC910684F785E02D80EC99E09DA3AD
S1134CC08CA38CA59DA5AEA5BFA58EA39FA3A8A7C5
S1134CD0B9A7A701BE016C5D7F4FC8010995AF96C6
S1134CE00FB6F894DEBF0FBECDBFDF91CF911F91F9
S1134CF00F91FF90EF90DF90CF9008950F931F9343
S1134D00CF93DF938C01D42FC52FFC018485883089
S1134D1041F481E090E0F8019383828380E090E0A5
S1134D2005C0CFD3892BA9F38D2F9C2FDF91CF9171
S1134D301F910F910895FC016485683019F085EB8B
S1134D409BE0D0C580E090E00895CF93DF931F925D
S1134D50CDB7DEB741E050E0BE016F5F7F4FFC018D
S1134D608485F7D3181619061CF4898190E002C0D3
S1134D708FEF9FEF0F90DF91CF910895FC01848511
S1134D80E8C30F931F93CF93DF931F92CDB7DEB782
S1134D908C01DC01ED91FC910084F185E02D0995F5
S1134DA0892B49F0BE016F5F7F4FF801848512D4CF
S1134DB0898190E002C08FEF9FEF0F90DF91CF9138
S1134DC01F910F910895FC01848511C4FC01138285
S1134DD0128288EE93E0A0E0B0E084839583A683FA
S1134DE0B7838CE399E09183808388E08487089576
S1134DF0FC016485683039F06295660F607E685FF7
S1134E0083E090E0DFC480E00895CF93DF93FC015A
S1134E1024852830C9F0EC01EBDF843181F088234C
S1134E2071F0883161F08C3161F4E881F98100849A
S1134E30F185E02DCE01099521E0892B19F420E0BC
S1134E4001C021E0822F01C080E0DF91CF9108955D
S1134E50CF92DF92EF92FF92CF93DF93EC018C8598
S1134E60883069F129D30E94AF376B017C01CE01F0
S1134E70BFDF8823A1F00E94AF37DC01CB018C197E
S1134E809D09AE09BF09883E9340A105B10538F4D8
S1134E9061E070E080E090E00E94E037E8CFCE016E
S1134EA0A7DF882311F08C8596D2EC85F0E0EE0F15
S1134EB0FF1FE857F44F1182108288E08C87DF913E
S1134EC0CF91FF90EF90DF90CF900895CF92DF9233
S1134ED0FF920F931F93CF93DF93FC012485283017
S1134EE0C1F56A018B01EC01F12C6F2D6295660FFF
S1134EF0607E685F83E090E065D4811102C0FC8627
S1134F0007C08B7F8831D9F3F394F8E0FF12EDCF1B
S1134F108C858830F1F020916501309166012F5F16
S1134F203F4F11F420E034E0309366012093650193
S1134F30409165015091660120E061E057D2B801CB
S1134F406E5F7F4FA6018C8584D2811105C088E0F5
S1134F508C8780E090E00FC0CE014ADF873149F0B2
S1134F6061E070E080E090E00E94E037CE0140DF35
S1134F70ECCF81E090E0DF91CF911F910F91FF90F2
S1134F80DF90CF9008950F9300E020E040E060E0D0
S1134F908EE99BE00E9429360F9108950F9300E05B
S1134FA020E040E060E084EA9BE00E9429360F9113
S1134FB0089580E00895DC01ED91FC91048CF58D59
S1134FC0E02D099420EC39E0FC0131832083FB01BE
S1134FD04189528963897489FC01428353836483C0
S1134FE075830895FC01858996890895FC01818D56
S1134FF0928D0895CF93DF931F92CDB7DEB7698367
S1135000DC01ED91FC910280F381E02D41E050E060
S1135010BE016F5F7F4F09950F90DF91CF91089587
S1135020CF93DF93EC01898D9A8D892B41F0E88130
S1135030F9810284F385E02DCE010995F4CFDF9147
S1135040CF910895CF93DF93EC018C85883059F08C
S1135050C2D1EC85F0E0EE0FFF1FE857F44F118248
S1135060108288E08C87DF91CF910895FC01108E27
S1135070178A6E5F7F4F8485E6C2FC01848506C370
S1135080CF93DF93EC019A018F89988DAB01BC011A
S11350908C85AED22F89388D280F391F388F2F8BEE
S11350A0DF91CF9108950F931F93CF93DF931F92B6
S11350B0CDB7DEB7FC01218D328D232B59F08C0145
S11350C041E050E0BE016F5F7F4F848542D21816E5
S11350D019061CF08FEF9FEF08C0F801818D928DA7
S11350E00197928F818F898190E00F90DF91CF910A
S11350F01F910F910895CF93DF93FC01218D328D81
S11351002115310519F48FEF9FEF10C0EC01421700
S1135110530708F0A9018C851CD2181619069CF7B0
S1135120298D3A8D281B390B3A8F298FDF91CF9126
S11351300895CF93DF931F92CDB7DEB7FC01218D85
S1135140328D232B41F0BE016F5F7F4F848542D2A5
S1135150898190E002C08FEF9FEF0F90DF91CF9194
S11351600895EF92FF921F93CF93DF93FC01248560
S1135170283011F080E020C07B01EC0110E0612FA9
S11351806295660F607E685F83E090E01BD38111B7
S113519002C01C8705C08831E1F31F5F183079F71E
S11351A08C85883039F3FE86ED861A8E198E20E0C0
S11351B0A70162E01BD181E0DF91CF911F91FF90A5
S11351C0EF9008950F931F93CF93DF93CDB7DEB77E
S11351D028970FB6F894DEBF0FBECDBF8C01DC015B
S11351E0ED91FC910680F781E02D0995F801648525
S11351F085EB9BE077D3892B39F148E050E0BE0181
S11352006F5F7F4FD8011C968C91A3D11816190695
S1135210ECF4BE016F5F7F4FC8010F960E943536D4
S11352208D8190E0982F88272E81820F911DF8019F
S1135230968B858B8F8190E0982F88272885820F05
S1135240911D928F818F02C080E090E028960FB666
S1135250F894DEBF0FBECDBFDF91CF911F910F91A8
S11352600895FC011382128288EE93E0A0E0B0E07E
S113527084839583A683B7838EE599E091838083A5
S113528088E08487CF010F960C941F36CF92DF926B
S1135290EF92FF920F931F93CF93DF93CDB7DEB7B7
S11352A0AF970FB6F894DEBF0FBECDBF8C016B0174
S11352B07A01CE0101960E941F36CE010996D1DFF4
S11352C0CE018A960E941F366BE77BE0CE0184965E
S11352D063DCBE016C5D7F4FCE01019628D9AE011F
S11352E0465D5F4FB601CE0101967BDB81309105AF
S11352F0C1F4D801ED91FC910488F589E02D80EC8E
S113530099E09DA38CA38CA59DA5AEA5BFA58EA356
S11353109FA3A8A7B9A7A701BE016C5D7F4FC801D1
S11353200995AF960FB6F894DEBF0FBECDBFDF91DF
S1135330CF911F910F91FF90EF90DF90CF90089540
S11353400F9300E020E040E060E08AEA9BE00E94E6
S113535029360F910895AB018295880F807E6CE009
S1135360680F24E030E08CE090E000C29B0182955D
S1135370880F807E68E0680FC90124C262E070E093
S1135380F5CF9B018295880F807E6CE0680FC90180
S1135390CFC1CF93DF93C82FD62F472F64E070E09F
S11353A0F0DF4D2F65E070E08C2FDF91CF91E9CFD6
S11353B0462F62E070E0E5CFCF93DF93C82FD62F5E
S11353C0472F60E170E0DDDF4D2F61E170E08C2F4D
S11353D0DF91CF91D6CFCF93C82F40E1682F85EBD3
S11353E09BE070D36FEF8C2FCF91E2CFFF920F939E
S11353F01F93CF93DF939FEF960F953018F5D22F1D
S11354008A01F62EC82FE7DF4F2D4D2B60E070E0A8
S11354108C2FB7DF0115110511F0B8010AC0609196
S1135420B00B7091B10B6F5F7F4F7093B10B6093B2
S1135430B00B8C2FAEDF41E06C2F85EB9BE042D3A9
S113544081E001C080E0DF91CF911F910F91FF9027
S113545008950F931F93CF93FB0190819F3F51F4C5
S113546091819F3F91F492819F3F79F493819F3F73
S113547061F41CC0911109C09181911106C09281FF
S1135480911103C09381992391F04115510571F055
S11354908A01BF01C82F5FDFB8018C2F8DDF44E084
S11354A06C2F85EB9BE00ED391E001C090E0892F37
S11354B0CF911F910F91089548E0682F85EB9BE0F1
S11354C001C3CF92DF92EF92FF920F931F93CF937A
S11354D0C82F7B018A014130584010F000E018E0E9
S11354E06C2F85EB9BE0CDD16C0163E070E08C2FD9
S11354F03DDF873111F08C3121F4C016D10680F3E1
S113550002C000E010E09801A7016C2F85EB9BE03E
S11355103DD240E26C2F85EB9BE0D4D28C2F2EDF62
S113552084FD0BC063E070E08C2F20DF8111F6CF87
S11355308C2F51DF80E090E004C060E18C2F38DFD5
S1135540C801CF911F910F91FF90EF90DF90CF9002
S11355500895CF92DF92EF92FF920F931F93CF9310
S1135560DF93182F6B017A01682F85EB9BE0BAD18A
S1135570EC01009791F463E070E0812FF7DE843151
S1135580F9F08823E9F0C1E0D0E08C3111F4C0E0F7
S1135590D0E0D195C195D10913C0E816F9060CF4F1
S11355A0E7011C161D0664F400E09E01A601612FAC
S11355B085EB9BE03AD240E4612F85EB9BE082D2FD
S11355C0CE01DF91CF911F910F91FF90EF90DF906B
S11355D0CF9008950F93AB0101E021E030E0682FF4
S11355E085EB9BE022D281E090E00F91089508952D
S11355F0AF92BF92CF92DF92FF920F931F93CF93FC
S1135600DF93F82E6B015A01E901682F85EB9BE0CB
S113561038D18C179D0728F46F2D85EB9BE031D191
S1135620EC018E019501A6016F2D85EB9BE074D1F1
S1135630CE01DF91CF911F910F91FF90DF90CF901A
S1135640BF90AF9008950F931F93CF93FB01908168
S1135650911109C09181911106C09281911103C0E9
S11356609381992369F04115510551F08A01BF01D5
S1135670C82F71DEB8018C2F9FDE81E090E002C05C
S113568080E090E0CF911F910F910895CF93C82FA0
S113569040E2682F85EB9BE015D28C2F6FDE84FDF2
S11356A00AC08C2F6BDE83FFF8CF68E18C2F80DE7D
S11356B080E090E005C060E18C2F7ADE81E090E02C
S11356C0CF9108952091B80B222399F04FB7F89405
S11356D02091B80B213059F42DB32093B60B3DB370
S11356E02091B70B209523232DBB4FBF02C04093BD
S11356F0B60B8CBD9DBD08958EBD00000DB407FE94
S1135700FDCF8EB508958091B80B882361F09FB7C3
S1135710F8942091B80B8091B60B213019F48DBB0D
S11357209FBF08958FBF089544980895449A08959B
S11357300F931F93CF93DF93182F092FD62FC42FC6
S11357408091B30B9091B40BBDDFEEDF802FD4DFDB
S1135750812FD2DF8D2FD0DF8C2FCEDFE7DFD3DF99
S113576081E0DF91CF911F910F910895DF92EF9225
S1135770FF920F931F93CF93DF93D82FD92EC62F69
S11357807A0189018091B30B9091B40B9BDFCCDF3C
S11357908D2DB2DF8D2FB0DF8C2FAEDFE701E00E51
S11357A0F11ECE15DF0519F08991A6DFFACFBEDF11
S11357B0AADFC801DF91CF911F910F91FF90EF9065
S11357C0DF9008951F93CF93DF93D82F192FC62FFF
S11357D08091B30B9091B40B75DFA6DF812F8CDF22
S11357E08D2F8ADF8C2F88DF80E086DFC82F9EDF35
S11357F08ADF8C2FDF91CF911F910895CF93DF9390
S11358006093B20B68EE73E080E090E00E94E037B2
S11358103C9A10D460E080E090E0D4DF482F4068E8
S113582064E080E090E084DFC0E0DC2FD295DD0FFF
S1135830D07ED45F42E06D2F8EE190E079DF42E0CC
S11358406D2F8FE190E074DFCF5FC83071F7DF9187
S1135850CF9108951F93CF93DF93182F60E270E0E8
S113586085DDC82FD0E0DC2FCC2761E270E0812FEA
S11358707DDD9E01280F311DC901DF91CF911F915C
S11358800895FF920F931F93CF93DF93F62EC0E0FA
S1135890D0E08F2DDFDF8C01892B19F08F2DDADF1B
S11358A0EC01C017D107A9F7CE01DF91CF911F9169
S11358B00F91FF9008951F93CF93DF93182F66E203
S11358C070E054DDC82FD0E0DC2FCC2767E270E015
S11358D0812F4CDD9E01280F311DC901DF91CF912D
S11358E01F910895FF920F931F93CF93DF93F62E8A
S11358F0C0E0D0E08F2DDFDF8C01892B19F08F2DD4
S1135900DADFEC01C017D107A9F7CE01DF91CF91FF
S11359101F910F91FF900895AF92BF92DF92EF9283
S1135920FF920F931F93CF93DF93D62E7A015901E1
S113593064E270E08D2D1ADDC82F65E270E08D2DD4
S113594015DDD0E0DC2FCC27E80EF11CCE0DDF1DD9
S11359506D2D6295660F607E6C5E9801A501CE0187
S113596005DFC00FD11F4D2F64E270E08D2D09DDDE
S11359704C2F65E270E08D2DDF91CF911F910F9137
S1135980FF90EF90DF90BF90AF90FBCC0F931F93ED
S113599089019A0140E050E0BFDF1F910F91089503
S11359A0DF92EF92FF920F931F93CF93DF93D82F41
S11359B0D92EC62F7A0189018091B30B9091B40B33
S11359C081DEB2DE8D2D98DE8D2F96DE8C2F94DE57
S11359D0E701E00EF11ECE15DF0521F080E08CDE3C
S11359E08993F9CFA3DE8FDEC801DF91CF911F9198
S11359F00F91FF90EF90DF9008950F931F93CF9333
S1135A00DF9300D0CDB7DEB75A834983A90198014B
S1135A1089819A816295660F607E685E0F900F900F
S1135A20DF91CF911F910F91BBCF8F929F92AF9235
S1135A30BF92CF92DF92EF92FF920F931F93CF9377
S1135A40DF936C01962E5A017901802E68E270E092
S1135A50892D8CDC082F69E270E0892D87DC10E049
S1135A60102F0027E801C80FD11D87019501AE0151
S1135A70692DC601C2DF811018C00C0F1D1F412FF4
S1135A8068E270E0892D7DDC402F69E270E0892DA9
S1135A90DF91CF911F910F91FF90EF90DF90CF9006
S1135AA0BF90AF909F908F906CCCDF91CF911F915E
S1135AB00F91FF90EF90DF90CF90BF90AF909F90A9
S1135AC08F900895CF93C62F61E070E08C2F59DC3E
S1135AD061E070E08C2F4ADC8111FACFCF910895F8
S1135AE0E3EBFBE080E5808381E081830895FC01A2
S1135AF012828FEF8183108213820895FC018381C7
S1135B00882331F0611103C08FEF818308951182DE
S1135B10089588E29CE0F0D588E29CE06ED691E09E
S1135B20811190E0892F0895CF93DF93EC016A836C
S1135B3088E29CE0CED56A81CE01EBDF8B8388239B
S1135B4021F088E29CE001D588838B8190E0DF918D
S1135B50CF910895CF93DF93FC012381222399F001
S1135B60EC018181809568236083628188E29CE0F6
S1135B70C3D5688188E29CE06ED588E29CE03DD67E
S1135B80282F30E002C020E030E081E090E0232BB9
S1135B9011F080E090E0DF91CF9108950895089589
S1135BA0DC01ED91FC910684F785E02D41E0099537
S1135BB081E090E00895FC011382128226E839E026
S1135BC0318320830895DC01ED91FC910484F585F3
S1135BD0E02D6FEF0994DC01ED91FC910484F585CF
S1135BE0E02D60E00994DC01ED91FC910684F785D9
S1135BF0E02D40E0099461E0F6DF80ED97E00C943D
S1135C001938CF93DF93CDB7DEB728970FB6F89442
S1135C10DEBF0FBECDBFFC018091CD019091CE01BE
S1135C20A091CF01B091D0018D839E83AF83B887BB
S1135C308091D1019091D201A091D301B091D4016E
S1135C4089839A83AB83BC838781481710F04FEF15
S1135C50480F908550E0DE01A40FB51F903129F460
S1135C60843019F411969C9102C015969C91690F89
S1135C706068CF0128960FB6F894DEBF0FBECDBF83
S1135C80DF91CF91B0CFFC0165816B7F6583686044
S1135C90AACFFC016581262F246025836C60A3CFE5
S1135CA0CF93DF93EC01423018F08C8188608C83B1
S1135CB04F836887222329F0413019F48C81846052
S1135CC08C8364E670E080E090E00E94E0376C81B1
S1135CD064FD31C0E881F9810684F785E02D42E056
S1135CE063E0CE01099584E991E10E941938E881C5
