S015000074656D706C61746556756F746F2E7372656396
S113000062C100008AC1000088C1000086C10000EE
S11300100C94FA1282C1000080C100000C942A13CF
S11300207CC100007AC1000078C1000076C10000E4
S113003074C1000072C1000070C100006EC10000F4
S11300400C947E356AC100000C946C330C949E337E
S113005064C1000062C1000060C100005EC1000014
S11300605CC100005AC100000C947D2E56C10000F2
S113007054C1000052C1000050C100004EC1000034
S11300804CC100004AC1000048C10000CF0BF50B71
S11300900A0C630CAF0C3B0D490EAF0E3F0F2B1037
S11300A09D119D11141D2B1D2B1D281D2B1D121D73
S11300B02B1D2B1D2B1D061D2B1D2B1D1B1D261D36
S11300C0241D2B1D2B1D2B1D221D00407A10F35ABD
S11300D000A0724E18090010A5D4E80000E8764884
S11300E0170000E40B54020000CA9A3B000000E130
S11300F0F505000080969800000040420F000000C3
S1130100A08601000000102700000000E8030000A2
S113011000006400000000000A000000000001006C
S1130120000000002C76D888DC674F0823DFC1DF8D
S1130130AE59E1B1B796E5E3E453C63AE651997690
S113014096E8E6C28426EB898C9B62ED407C6FFCCA
S1130150EFBC9C9F40F2BAA56FA5F490055A2AF70C
S11301605C936B6CF9676DC11BFCE0E40D47FEF515
S113017020E6B500D0ED902E03009435770500807D
S1130180841E080000204E0A000000C80C333333DC
S1130190330F986E12831141EF8D2114893BE6557C
S11301A016CFFEE6DB18D1844B381BF77C1D901D5F
S11301B0A4BBE424203284725E228100C9F124ECC1
S11301C0A1E53D27525443206368697020445333AA
S11301D03233314D20696E697469616C697A656482
S11301E02E00556E61626C6520746F2066696E64C2
S11301F0204453333233314D4D2E20436865636BB5
S1130200696E6720616761696E20696E2033732EA1
S1130210004D617920323320323032310031363AA8
S113022034343A3238001F1C1F1E1F1E1F1F1E1F8E
S11302301E1F000000000403080700000200090A52
S113024000000000000000000000000000000000AA
S113025000010102040810204080010210204080A7
S1130260102040801008200440800102040801028C
S11302700408040404040404040402020202020242
S1130280010101010303030303030101010103034A
S113029002020000000023002600290000000000E4
S11302A0250028002B0000000000240027002A005D
S11302B013149A1FF21FEA22D124DC24AE267E2ACC
S11302C00D31CC33471511241FBECFEFD0E4DEBF70
S11302D0CDBF19E0A0E0B1E0E2E8F0E800E00BBF38
S11302E002C007900D92A63FB107D9F72DE0A6EF03
S11302F0B9E001C01D92AF34B207E1F711E0C2E6E4
S1130300D1E004C02197FE010E94CF3AC835D1073D
S1130310C9F70E9458340C94354072CE80E090E0C6
S113032008950895449A0895EF92FF920F931F93AE
S1130330CF93DF93CDB7DEB768970FB6F894DEBFDF
S11303400FBECDBF87EE99E09A83898340913F0A1F
S11303505091400A6091410A7091420A4B835C8338
S11303606D837E8398878F834091450A5091460A16
S11303706091470A7091480A49875A876B877C873E
S11303809E878D8740914B0A50914C0A60914D0A8B
S113039070914E0A4F87588B698B7A8B9C8B8B8B11
S11303A08091510A9091520AA091530AB091540A33
S11303B08D8B9E8BAF8BB88FCE0101967C018E0105
S11303C0095F1F4F9E01235F3F4FAE014D5E5F4F9C
S11303D066E271E082EA9BE00E94A42268960FB66E
S11303E0F894DEBF0FBECDBFDF91CF911F910F9167
S11303F0FF90EF9008951816190644F4EFE9FFE012
S11304003197F1F700C000000197F5CF0895CF931D
S113041085EA9CE00E94DD34CDE767E372E085EA7B
S11304209CE00E94D534C150C1F785EA9CE0CF918D
S11304300C94DD34CF93DF93D82FC0E0CD1741F077
S113044069E372E085EA9CE00E94D534CF5FF6CF81
S1130450DF91CF910895CF93C82F81E0EBDF6BE359
S113046072E085EA9CE00E94D534CC2319F06FE356
S113047072E002C064E472E085EA9CE00E94D53434
S113048081E0CF91D7CF0F931F93CF93DF93EC01EC
S11304908B010E940738B8016A5F7F4FCE01069630
S11304A00E940738F801848595859D878C87DF91A4
S11304B0CF911F910F910895CF93DF93EC0106968E
S11304C00E943437CE01DF91CF910C943437CF9210
S11304D0DF92EF92FF920F931F93CF93DF936A0102
S11304E07B01C0E0D0E0082F10E0C017D10724F44E
S11304F0C60181DF2196F9CFDF91CF911F910F9132
S1130500FF90EF90DF90CF9008958232910509F427
S11305109AC06CF58A30910509F483C0A4F486303E
S1130520910509F475C08930910509F45DC00597FA
S113053009F0CFC06091060185EA9CE00E94D634A0
S113054020E030E059C08231910509F473C0813252
S1130550910509F454C0419709F0BBC060910801AA
S113056085EA9CE00E94D63422E030E045C0803623
S1130570910509F499C0ACF48834910509F482C05A
S11305808035910509F487C08434910509F0A1C030
S11305906091120185EA9CE00E94D63420E030E0AC
S11305A08BC08838910509F459C06CF484389105DE
S11305B009F08FC060910E0185EA9CE00E94D63458
S11305C020E030E05CC08039910509F450C0803AE5
S11305D0910509F07EC06091110185EA9CE00E94BA
S11305E0D63423E030E04BC06091070185EA9CE0FB
S11305F00E94D63421E030E080E090E05FC060915A
S1130600090185EA9CE00E94D63423E030E0F4CF6F
S113061060910A0185EA9CE00E94D63420E030E033
S11306201AC060910B0185EA9CE00E94D63421E057
S113063030E011C060910C0185EA9CE00E94D63440
S113064022E030E008C060910D0185EA9CE00E9440
S1130650D63423E030E081E090E030C060910F01B7
S113066085EA9CE00E94D63421E030E008C0609125
S1130670100185EA9CE00E94D63422E030E082E05A
S113068090E01CC06091130185EA9CE00E94D6347E
S113069021E030E011C06091140185EA9CE00E94E1
S11306A0D63422E030E008C06091150185EA9CE070
S11306B00E94D63423E030E083E090E0880F991F55
S11306C0880F991F8A5F9E4FFC01E20FF31F808100
S11306D008958EE408950F931F93CF93DF93EC0155
S11306E08A0182ED9AE00E94092B61E082ED9AE092
S11306F00E94D63441E060E082ED9AE00E940F2B24
S1130700BE016A5F7F4F82ED9AE00E94C73442E0E7
S113071060E082ED9AE00E940F2BBE01645F7F4F80
S113072082ED9AE00E94C73443E060E082ED9AE0F3
S11307300E940F2BBE016E5E7F4F82ED9AE00E94F5
S1130740C734C801DF91CF911F910F9154CECF923E
S1130750DF92EF92FF926B017C016091AB0A709182
S1130760AC0A4AE050E085E59AE0B5DFC0920B0A96
S1130770D0920C0AE0920D0AF0920E0A85E09AE0FB
S11307800E949C1D60930F0A7093100A8093110AB3
S11307909093120A8091AB0A9091AC0A01969093BF
S11307A0AC0A8093AB0AFF90EF90DF90CF9008954E
S11307B0AF92BF92CF92DF92EF92FF920F931F936B
S11307C0CF93DF93CDB7DEB7A2970FB6F894DEBF11
S11307D00FBECDBF5C01F62E6AE372E0CE014D96EA
S11307E00E949B3708EC10E022EF3AE04BEE5AE00F
S11307F060E08BEB9AE00E940F1B8093F30A88233E
S113080009F49DC04EE150E060E070E082E05FDEFC
S11308108091F20A843009F08CC086E0EFE5F1E0C3
S1130820DE01579601900D928A95E1F7CE01479625
S11308306C01E12C04E010E020E030E044E06BEED9
S11308407AE08BEB9AE00E94631B8093F30A88237F
S113085009F45FC0FF2099F080E1E4E3F9E0DE01F0
S1130860119601900D928A95E1F7AE014F5F5F4FAB
S113087064E08BEB9AE00E94F61B8093F30AAE01CE
S11308804F5F5F4F64E08BEB9AE00E94C31B809341
S1130890F30A882389F169E472E085EA9CE00E9406
S11308A00035BE016F5F7F4FCE0141960E949B379A
S11308B0BE016F5E7F4F85EA9CE00E94F0348D8913
S11308C09E89069759F4BE016F5E7F4FC5010E9451
S11308D0EA37CE0141960E94343737C09FEF21EEAC
S11308E084E0915020408040E1F700C00000CE0138
S11308F041960E9434371DC082ED9AE00E94092B74
S113090041E060E082ED9AE00E940F2B67E572E01F
S11309100CC082ED9AE00E94092B41E060E082ED78
S11309209AE00E940F2B61E672E082ED9AE00E9449
S1130930D5346AE372E085EA9CE00E940035BE018A
S1130940635E7F4FC5010E94EA37CE014D960E9437
S11309503437C501A2960FB6F894DEBF0FBECDBFE3
S1130960DF91CF911F910F91FF90EF90DF90CF9087
S1130970BF90AF900895CF92DF92EF92FF920F93C2
S11309801F93CF93DF93CDB7DEB764970FB6F89478
S1130990DEBF0FBECDBF7C01CE0101966C0187E0A6
S11309A0F60111928A95E9F769E672E0C7010E949F
S11309B09B3700E010E09E012C5E3F4FA60160E0F3
S11309C08BEB9AE00E940F1B882359F10C8910E0ED
S11309D020E030E0A6016BEB7AE0CE010E960E9497
S11309E00E19CE010E960E94333A28E030E040E022
S11309F050E0BE01625F7F4FCE0108960E94F0393D
S1130A00BE01685F7F4FC7010E940F38CE01089670
S1130A100E94343781E08093EA0ACE010E960E9448
S1130A203437C70164960FB6F894DEBF0FBECDBF4E
S1130A30DF91CF911F910F91FF90EF90DF90CF90B6
S1130A400895EF92FF920F931F93CF93DF93CDB747
S1130A50DEB762970FB6F894DEBF0FBECDBF8C0130
S1130A607B0160E772E0CE010D960E949B37CFDCDC
S1130A7068E772E085EA9CE00E9400352091470116
S1130A8030914801F701848195812817390749F588
S1130A90A90143505109B701CE0107960E94F039CC
S1130AA060E972E0CE0101960E949B37BE01695F46
S1130AB07F4FCE0101960E947039BC0185EA9CE00B
S1130AC00E94F034CE0101960E943437BE01695F62
S1130AD07F4FC8010E94EA37CE0107960E9434373F
S1130AE009C080E0B8DC93DCBE01635F7F4FC801BE
S1130AF00E94EA37CE010D960E943437C8016296EF
S1130B000FB6F894DEBF0FBECDBFDF91CF911F911A
S1130B100F91FF90EF900895AF92BF92CF92DF9222
S1130B20EF92FF920F931F93CF93DF93CDB7DEB76E
S1130B3062970FB6F894DEBF0FBECDBF5C016B01A8
S1130B408A01790164DC81E075DC64E774E085EA9C
S1130B509CE00E94D534A501B601C8010E9432234D
S1130B60892B09F498C02FEF81EE94E02150804046
S1130B709040E1F700C0000063EA74E08FEA9AE075
S1130B800E941A3865EC74E08FEA9AE00E945039AA
S1130B9062E475E08FEA9AE00E94503961E773E0FD
S1130BA08FEA9AE00E94503962E475E08FEA9AE095
S1130BB00E9450396BE174E08FEA9AE00E94503948
S1130BC062E475E08FEA9AE00E9450396DED74E0BA
S1130BD08FEA9AE00E94503962E475E08FEA9AE065
S1130BE00E945039F701648175816B5E7F4F4AE042
S1130BF0CE0107960E949B3869EE74E0CE010196FF
S1130C000E949B37BE01695F7F4FCE0101960E940F
S1130C107039BC018FEA9AE00E944A39CE010196EC
S1130C200E943437CE0107960E94343762E475E09F
S1130C308FEA9AE00E94503962E475E08FEA9AE004
S1130C400E945039B7018FEA9AE00E944A3962E45F
S1130C5075E08FEA9AE00E9450396FEA7AE0C801A1
S1130C600E94C734FFEF27EE83E0F150204080401C
S1130C70E1F700C000006AE374E0C8010E94003597
S1130C80C8010E94DD34C3DB6FEA7AE085EA9CE0A8
S1130C900E94F03425C082ED9AE00E94092B41E0C5
S1130CA060E082ED9AE00E940F2B6CE474E082ED28
S1130CB09AE00E94D53443E060E082ED9AE00E941D
S1130CC00F2B61E674E082ED9AE00E94D5349FEF29
S1130CD0E3EDF0E39150E040F040E1F700C00000A4
S1130CE02FEF81EE94E0215080409040E1F700C066
S1130CF00000F12CC8010E94A923892B09F483C0A8
S1130D0020914701309148018091A70A9091A80A47
S1130D108217930708F077C06AEF74E0CE010D964E
S1130D200E949B37C8010E94B323E82E63EA7AE04D
S1130D30CE0101960E9407386E2DCE0101960E94C5
S1130D409839BC0183EA9AE00E94F237CE010196F9
S1130D500E9434375CDB63EA7AE085EA9CE00E9417
S1130D60F03420914701309148018091A70A909175
S1130D70A80A2817390709F041C06AEF74E0CE01C8
S1130D800D960E94A4398823C9F163EA7AE0CE0162
S1130D9007960E940738BE01695F7F4FCE01019616
S1130DA050DEBE016F5F7F4FCE010D960E940F385B
S1130DB0CE0101960E943437CE0107960E94343743
S1130DC0FFEF27EE83E0F15020408040E1F700C0C0
S1130DD0000060E774E0CE010D960E94A4398823D8
S1130DE021F081E038DBFF24F394EFEFF7EE23E00A
S1130DF0E150F0402040E1F700C00000CE010D9624
S1130E000E94343777CF8FEF90E7E2E08150904033
S1130E10E040E1F700C000008F2D62960FB6F89411
S1130E20DEBF0FBECDBFDF91CF911F910F91FF9019
S1130E30EF90DF90CF90BF90AF9008955798569859
S1130E4088E08093680080EC809373007894089520
S1130E5009980A98089591E090936800843419F4ED
S1130E600D9880E202C00E9880E480936B00789421
S1130E700895CF92DF92EF92FF92BC01990F880BF5
S1130E80990B0E947E316B017C0120E030E0A901C6
S1130E900E94103187FF03C0C12CD12C76016091D0
S1130EA0450170914601072E000C880B990B0E9496
S1130EB07E319B01AC01C701B6010E941431FF9041
S1130EC0EF90DF90CF9008953F9A8130910571F0B3
S1130ED082309105E1F0892B89F547982FEF30E7AF
S1130EE042E0215030404040E1F70EC028B101C03B
S1130EF0880F6A95EAF7822B88B98FEF90E722E092
S1130F00815090402040E1F700C00000089528B1CE
S1130F1081E090E001C0880F6A95EAF7982F9095D8
S1130F20922398B93FEF45EA2EE0315040402040EB
S1130F30E1F700C0000098B1892B88B908950F9A91
S1130F4081309105B9F08230910529F1892BD1F5D1
S1130F5022B181E090E001C0880F6A95EAF780959C
S1130F60822382B92FEF30E742E0215030404040E5
S1130F70E1F70EC022B101C0880F6A95EAF7822B0F
S1130F8082B98FEF90E722E0815090402040E1F752
S1130F9000C00000089522B181E090E001C0880FF4
S1130FA06A95EAF7982F9095922392B93FEF45EA14
S1130FB02EE0315040402040E1F700C0000092B1E3
S1130FC0892B82B90895239A2FEF36E741E0215007
S1130FD030404040E1F700C000008130910511F439
S1130FE02B9A0895892B09F42B9808956AE372E0EB
S1130FF083EA9AE00E941A381092AA0A1092A90A67
S11310001092EA0A67E775E089E79AE00E941A38C5
S113101067E070E081E090E057DF67E070E081E036
S113102090E08DDF80E090E0CEDF8FE19EE40197D9
S1131030F1F700C0000083E29AE00E94F12383E20A
S11310409AE00E9436248FE19EE40197F1F700C0F4
S1131050000080E39AE00E94F12380E39AE00E947A
S113106036241092AE0A1092AD0A8FE19EE40197E5
S1131070F1F700C000002C988FE19EE40197F1F78E
S113108000C000002C9A8FE19EE40197F1F700C0A4
S1131090000048D98FE19EE40197F1F700C00000F9
S11310A0449882B182B982B182B96AE372E08BE575
S11310B09AE00E941A386AE372E081E69AE00E949C
S11310C01A386AE372E081E69AE00E941A3882EDE7
S11310D09AE00E94F92A82ED9AE00E94512B109224
S11310E0130A1092140A1092150A1092160A1092FA
S11310F00F0A1092100A1092110A1092120A87D93C
S113110069E775E085EA9CE00E94003580D96AE3CE
S113111072E08FEF99E00E941A388EEF9FEF909360
S1131120AC0A8093AB0A0895CF93DF9300D000D02C
S113113000D0CDB7DEB7823431F1F8F4833209F44C
S11311404BC0813409F061C06AE372E08FEF99E02B
S11311500E941A386AE875E08BE59AE00E941A3812
S11311606AE372E081E69AE00E941A386AE372E068
S113117087E69AE00E941A3842C0833499F08E348C
S113118009F47DC042C060E0CE01019611DB8FE31B
S11311909CE90197F1F700C00000CE0101960E947E
S11311A034376DC02091030A3091040A21153105AA
S11311B009F465C02150310940E050E06FEF79E057
S11311C0CE0101960E94F039BE016F5F7F4F8FEF11
S11311D099E00E940F3825C08091030A9091040A77
S11311E0059709F04CC06FEF79E08AEF9AE00E940E
S11311F0F2376AEF7AE085E89AE00E94F23761E418
S113120070E080E090E0A3DA3AC0682FCE01019646
S11312100E942F38BE016F5F7F4F8FEF99E00E94CD
S11312204A39CE0101960E9434376DE975E08BE5A9
S11312309AE00E941A3861EB75E0CE0101960E9493
S11312409B376FEF79E0CE0101960E947039BC01A3
S113125081E69AE00E94F237CE0101960E9434376B
S113126068EB75E087E69AE00E941A386091AB0A51
S11312707091AC0A4AE050E085E59AE02CDA2696B3
S11312800FB6F894DEBF0FBECDBFDF91CF910895A6
S1131290CF93DF93CDB7DEB72C970FB6F894DEBFAC
S11312A00FBECDBF833439F08E3409F4B8C0833215
S11312B009F07BC01AC02091FD093091FE09211567
S11312C0310509F482C02150310940E050E069EF52
S11312D079E0CE0101960E94F039BE016F5F7F4F25
S11312E089EF99E00E940F386CC08091FD099091BC
S11312F0FE09049709F093C069EF79E080E09BE070
S11313000E94F23760E07BE087E99AE00E94F237BE
S11313106DEE75E08BE59AE00E941A386091A90A97
S11313207091AA0A4AE0CE0107960E9471386AEFCA
S113133075E0CE0101960E949B37BE01695F7F4F25
S1131340CE0101960E947039BC0181E69AE00E94A8
S1131350F237CE0101960E943437CE0107960E94DF
S1131360343760E076E0CE0101960E949B3765EB4E
S11313707AE0CE0101960E947039BC0187E69AE0BA
S11313800E94F237CE0101960E9434370E949201E6
S11313908FE39FE10197F1F700C00000449868E7EC
S11313A070E080E090E0D3D93AC0682FCE01019676
S11313B00E942F38BE016F5F7F4F89EF99E00E9432
S11313C04A39CE0101960E9434376DEC75E08BE505
S11313D09AE00E941A386EED75E0CE0101960E94E3
S11313E09B3769EF79E0CE0101960E947039BC0108
S11313F081E69AE00E94F237CE0101960E943437CA
S113140062EE75E087E69AE00E941A386091AB0AB2
S11314107091AC0A4AE050E085E59AE05CD92C96DC
S11314200FB6F894DEBF0FBECDBFDF91CF91089504
S11314304F925F926F927F928F929F92AF92BF92E0
S1131440CF92DF92EF92FF920F931F93CF93DF938C
S113145000D000D000D0CDB7DEB77C015B014DB623
S11314605EB669E277E00E949B37F501C284D384BB
S11314708DB79EB78C199D090FB6F8949EBF0FBE09
S11314808DBFEDB7FEB731964F013F01F5010485DD
S11314901585C00ED11E0C151D054CF4C8010E9403
S11314A01F40F30181933F010F5F1F4FF4CF6DE3A2
S11314B072E085EA9CE00E9400356DE372E085EA03
S11314C09CE00E940035B401CE0101960E949B3736
S11314D0BE016F5F7F4FC7010E940F38CE01019696
S11314E00E943437B501CE0101960E94073863EAA1
S11314F077E0CE0101960E948139BC0185EA9CE027
S11315000E94C734CE0101960E943437B70185EAA0
S11315109CE00E94F034C7010FB6F8945EBE0FBE83
S11315204DBE26960FB6F894DEBF0FBECDBFDF9139
S1131530CF911F910F91FF90EF90DF90CF90BF90CC
S1131540AF909F908F907F906F905F904F90089591
S11315508F929F92AF92BF92CF92DF92EF92FF92BF
S11315600F931F93CF93DF93CDB7DEB72C970FB6AE
S1131570F894DEBF0FBECDBF5C018DB69EB6FC01F4
S1131580C480D5808DB79EB78C199D090FB6F89489
S11315909EBF0FBE8DBF0DB71EB70F5F1F4FA601B5
S11315A04F5F5F4F20E030E0B801C5010E94C239AF
S11315B04AE0B601CE0107960E9471386DE076E0EC
S11315C0CE0101960E949B37BE01695F7F4FCE0119
S11315D001960E947039BC0185EA9CE00E94F034B7
S11315E0CE0101960E943437CE0107960E9434370B
S11315F064E176E085EA9CE00E9400356DE372E0E8
S113160085EA9CE00E940035F501E680F780F5014B
S1131610868197818C0D9D1DE816F90664F4F80106
S113162061918F01662319F0C7010E942740FFEFE3
S1131630EF1AFF0AECCF6DE372E085EA9CE00E94AA
S1131640003581E00FB6F8949EBE0FBE8DBE2C9679
S11316500FB6F894DEBF0FBECDBFDF91CF911F91BF
S11316600F91FF90EF90DF90CF90BF90AF909F903D
S11316708F9008956F927F928F929F92AF92BF92B4
S1131680CF92DF92EF92FF920F931F93CF93DF934A
S113169000D000D000D0CDB7DEB77C018B016DB691
S11316A07EB669E277E00E949B37F801C480D5805A
S11316B08DB79EB78C199D090FB6F8949EBF0FBEC7
S11316C08DBFEDB7FEB731965F014F01F80106817A
S11316D01781C00ED11E0C151D054CF4C8010E94C3
S11316E01F40F40181934F010F5F1F4FF4CF6DE34F
S11316F072E085EA9CE00E9400356DE372E085EAC1
S11317009CE00E940035B501CE0101960E949B37F2
S1131710BE016F5F7F4FC7010E940F38CE01019653
S11317200E943437B70185EA9CE00E94F034C70177
S11317300FB6F8947EBE0FBE6DBE26960FB6F89413
S1131740DEBF0FBECDBFDF91CF911F910F91FF90F0
S1131750EF90DF90CF90BF90AF909F908F907F904D
S11317606F900895CF92DF92EF92FF920F931F93A1
S1131770CF93DF93CDB7DEB76D970FB6F894DEBF86
S11317800FBECDBFE091AB0AF091AC0A3296EC30BB
S1131790F10508F0D4C5EA5BFF4F0C94CF3A6AE335
S11317A072E08BE59AE00E941A3862E376E081E603
S11317B09AE00E941A386AE372E087E69AE00E948F
S11317C01A386091AB0A7091AC0A44E650E085E5A2
S11317D09AE00E946B032FEF33EC89E021503040F4
S11317E08040E1F700C000000BC028DB9FEFE9EF69
S11317F0F0E09150E040F040E1F700C0000028DB49
S11318008091AB0A9091AC0A01969093AC0A8093B4
S1131810AB0A95C56AE372E08BE59AE00E941A3838
S11318206AE372E081E69AE00E941A386AE372E0A1
S113183087E69AE00E941A382FEF37EA81E62150B2
S113184030408040E1F700C000001092EA0A44985A
S11318506EE376E08BE59AE00E941A386AE372E060
S113186081E69AE00E941A3862E576E087E69AE01B
S11318700E941A386091AB0A7091AC0A44E650E0B9
S113188085E59AE00E946B0381E490E0A0E0B0E07B
S11318908093220190932301A0932401B093250106
S11318A08091AB0A9091AC0A01969093AC0A809314
S11318B0AB0A9FEFE3EDF0E39150E040F040E1F735
S11318C000C000003CC56AE372E08FEF99E00E941B
S11318D01A386AE372E089EF99E00E941A3869E6DF
S11318E072E0CE010E960E949B378091EA0A811124
S11318F015C0CE0101963FD8BE016F5F7F4FCE0168
S11319000E960E940F38CE0101960E94343744E6A9
S113191050E060E070E082E00E94670269E672E0F5
S1131920CE010E960E94A439811102C0449B46C583
S11319306DE975E08BE59AE00E941A3861EB75E079
S113194081E69AE00E941A3865E676E087E69AE036
S11319500E941A3861E470E080E090E0DBC540E06A
S113196060E082ED9AE00E940F2B61E082ED9AE044
S11319700E94D63440910F0A5091100A6091110AC6
S11319807091120A80910B0A90910C0AA0910D0A91
S1131990B0910E0A480F591F6A1F7B1F415051090D
S11319A0610971098091130A9091140AA091150A92
S11319B0B091160A481B590B6A0B7B0B2AE0CE0127
S11319C00E960E94C5386BED76E0CE0101960E941A
S11319D09B37BE01625F7F4FCE0101960E94703932
S11319E069E776E00E948139BC0182ED9AE00E94A9
S11319F0C734CE0101960E943437CE010E960E9460
S1131A0034376CE386EF99E00E94971886EF99E0EB
S1131A100E94AE18082F42E0BE016A5E7F4F90E03C
S1131A200E94663D63EC86EF99E00E94971886EF6A
S1131A3099E00E94AE18182F42E0BE01625F7F4F0A
S1131A4090E00E94663D1027012F10E042E0BE01A5
S1131A506F5F7F4FC8010E94663DC8010E948502E6
S1131A602FEF39EF90E0215030409040E1F700C073
S1131A7000005ADB64C440E060E082ED9AE00E941A
S1131A800F2B61E082ED9AE00E94D63440910F0A58
S1131A905091100A6091110A7091120A80910B0AF8
S1131AA090910C0AA0910D0AB0910E0A480F591F8B
S1131AB06A1F7B1F41505109610971098091130A02
S1131AC09091140AA091150AB091160A481B590B5B
S1131AD06A0B7B0B2AE0CE010E960E94C5386BED93
S1131AE076E0CE0101960E949B37BE01625F7F4F74
S1131AF0CE0101960E94703969E776E00E9481392F
S1131B00BC0182ED9AE00E94C734CE0101960E9486
S1131B103437CE010E960E9434378091030A909197
S1131B20040A059769F567E775E084EF9AE00E9477
S1131B301A386FEF79E08AEF9AE00E94F23768EF83
S1131B4075E080E09BE00E941A386FE776E08BE551
S1131B509AE00E941A386AE372E081E69AE00E94F1
S1131B601A386AE976E087E69AE00E941A386091AA
S1131B701E0170911F01809120019091210128C5BF
S1131B8061E0CE010E960E94D803EFE3FCE93197A1
S1131B90F1F700C00000BE01625F7F4F85EA9CE060
S1131BA00E94F0342A893B8945E050E0BE01625F1F
S1131BB07F4FCE0101960E94F039BE016F5F7F4FC7
S1131BC084EF9AE00E940F38CE0101960E943437C8
S1131BD025E030E040E050E0BE01625F7F4FCE017F
S1131BE001960E94F039BE016F5F7F4F8AEF9AE041
S1131BF00E940F38CE0101960E94343768EF75E0D9
S1131C0080E09BE00E941A386BEA76E0CE010196F0
S1131C100E949B3764EF7AE0CE0101960E947039EE
S1131C20BC0185EA9CE00E94F034CE0101960E943A
S1131C3034376DEB76E0CE0101960E949B376AEF54
S1131C407AE0CE0101960E947039BC0185EA9CE0DD
S1131C500E94F034CE0101960E94343764EF7AE09A
S1131C6089E79AE00E94F23765EC76E084EF9AE027
S1131C700E94A439811112C467EC76E084EF9AE0E3
S1131C800E94A43981110AC4CE010E960E943437F1
S1131C9056C36FE776E08BE59AE00E941A386AE350
S1131CA072E081E69AE00E941A386AE976E087E6F3
S1131CB09AE00E941A3865EC76E084EF9AE00E947C
S1131CC0A439882351F082E4C6D867E070E080E04C
S1131CD090E035D969EC76E012C067EC76E084EFE9
S1131CE09AE00E94A439882309F429C384E4B3D870
S1131CF067E070E080E090E0E7D861ED76E085EBA6
S1131D009AE00E941A3864EF7AE08BE89AE00E9425
S1131D10F2376DEC75E08BE59AE00E941A386EEDAF
S1131D2075E0CE0101960E949B3769EF79E0CE0100
S1131D3001960E947039BC0181E69AE00E94F23754
S1131D40CE0101960E94343762EE75E087E69AE090
S1131D500E941A386CE370E080E090E039C440E0FF
S1131D6060E082ED9AE00E940F2B61E082ED9AE040
S1131D700E94D63440910F0A5091100A6091110AC2
S1131D807091120A80910B0A90910C0AA0910D0A8D
S1131D90B0910E0A480F591F6A1F7B1F4150510909
S1131DA0610971098091130A9091140AA091150A8E
S1131DB0B091160A481B590B6A0B7B0B2AE0CE0123
S1131DC00E960E94C5386BED76E0CE0101960E9416
S1131DD09B37BE01625F7F4FCE0101960E9470392E
S1131DE069E776E00E948139BC0182ED9AE00E94A5
S1131DF0C734CE0101960E943437CE010E960E945C
S1131E0034376CE386EF99E00E94971886EF99E0E7
S1131E100E94AE18082F42E0BE016A5E7F4F90E038
S1131E200E94663D63EC86EF99E00E94971886EF66
S1131E3099E00E94AE18182F42E0BE01625F7F4F06
S1131E4090E00E94663D1027012F10E042E0BE01A1
S1131E506F5F7F4FC8010E94663DC8010E948502E2
S1131E60FFEF29EF30E0F15020403040E1F700C0AF
S1131E7000000EDA1092AA0A1092A90A60C240E089
S1131E8060E082ED9AE00E940F2B61E082ED9AE01F
S1131E900E94D63440910F0A5091100A6091110AA1
S1131EA07091120A80910B0A90910C0AA0910D0A6C
S1131EB0B0910E0A480F591F6A1F7B1F41505109E8
S1131EC0610971098091130A9091140AA091150A6D
S1131ED0B091160A481B590B6A0B7B0B2AE0CE0102
S1131EE00E960E94C53869ED76E0CE0101960E94F7
S1131EF09B37BE01625F7F4FCE0101960E9470390D
S1131F0069E776E00E948139BC0182ED9AE00E9483
S1131F10C734CE0101960E943437CE010E960E943A
S1131F2034378091A90A9091AA0A0E9439076B015B
S1131F307C0122E0AB01BC01CE010E960E94F03878
S1131F4063EE76E0CE0101960E949B37BE01625F8C
S1131F507F4FCE0101960E947039BC018BE59AE057
S1131F600E94F237CE0101960E943437CE010E96BC
S1131F700E9434376091A90A7091AA0A4AE0CE01FE
S1131F800E960E9471386AEF75E0CE0101960E94A8
S1131F909B37BE01625F7F4FCE0101960E9470396C
S1131FA0BC0181E69AE00E94F237CE0101960E94BC
S1131FB03437CE010E960E94343760E076E0CE01CD
S1131FC001960E949B3765EB7AE0CE0101960E9450
S1131FD07039BC0187E69AE00E94F237CE0101967F
S1131FE00E94343741E060E082ED9AE00E940F2BBA
S1131FF06BE57AE082ED9AE00E94C73442E060E04B
S113200082ED9AE00E940F2B61E67AE082ED9AE07D
S11320100E94C73443E060E082ED9AE00E940F2BF7
S113202067E67AE082ED9AE00E94C734019B08C01B
S113203067EC76E089E79AE00E94A43981116DC2C9
S1132040199B7DC165EC76E089E79AE00E94A4398A
S1132050811192C274C16AE372E08BE59AE00E9436
S11320601A386BEE76E081E69AE00E941A386AE349
S113207072E087E69AE00E941A38449960C1609140
S1132080AB0A7091AC0A4AE050E085E59AE00E9400
S11320906B036AE372E08DE69AE00E941A380FE758
S11320A01AE093EAE92E9AE0F92EB801CE010196DE
S11320B00E94073869EF76E0CE0101960E948139CB
S11320C0BC018DE69AE00E944A39CE0101960E9435
S11320D034370A5F1F4FE016F10639F76EE371E0FB
S11320E08DE69AE00E9450396BEF76E0CE010196BE
S11320F00E949B376DE67AE0CE0101960E9470390A
S1132100BC0185EA9CE00E94F034CE0101960E9455
S113211034378FEF93EDE0E381509040E040E1F7F6
S113212000C000006DE67AE0CE010E960E940738EA
S11321308091320A9091330A9C838B838091340A74
S11321409091350AA091360AB091370A8D839E8307
S1132150AF83B8878091380A9091390AA0913A0ADE
S1132160B0913B0A89879A87AB87BC8781E599E060
S11321709A83898380913C0A8D879E01225F3F4F19
S1132180AE014F5F5F4F6CE271E080E590E00E942A
S11321908C05182FCE010E960E943437112351F16D
S11321A00E9492016AE372E08BE59AE00E941A3879
S11321B066E077E081E69AE00E941A386AE372E00A
S11321C087E69AE00E941A386091AB0A7091AC0AD3
S11321D044E650E085E59AE00E946B03FFEF29EFA7
S11321E030E0F15020403040E1F700C0000065E1EC
S11321F077E094C06DE67AE080914C0B90914D0BA2
S11322000E94F23700914C0B10914D0BB801CE0196
S113221001960E940738F8018681978198878F83F9
S1132220CE01019695D9182FCE0101960E9434371C
S1132230112331F06CE277E085EA9CE00E940035DE
S113224000E010E081E5C82E89E0D82E6DE67AE042
S1132250CE010E960E9407388091320A9091330A7B
S11322609C838B838091340A9091350AA091360A1D
S1132270B091370A8D839E83AF83B8878091380AE3
S11322809091390AA0913A0AB0913B0A89879A87BA
S1132290AB87BC87DA82C98280913C0A8D879E0114
S11322A0225F3F4FAE014F5F5F4F6CE271E080E50C
S11322B090E00E948C05811105C0FF24F394053041
S11322C011050CF0F12CCE010E960E943437FF203C
S11322D019F10F5F1F4F4AE0B801CE010E960E941C
S11322E0713865E377E0CE0101960E949B37BE0109
S11322F0625F7F4FCE0101960E947039BC0185EA6E
S11323009CE00E94F034CE0101960E943437CE0145
S11323100E960E9434379ACF60E477E085EA9CE019
S11323200E9400350E94920160911601709117017C
S113233080911801909119014BC10E94F60767E141
S11323407AE0CE0101960E944B1E86E0FE01319692
S1132350A5E0BAE001900D928A95E1F785E09AE054
S11323600E949C1D6093130A7093140A8093150AAB
S11323709093160A00910F0A1091100A2091110AE5
S11323803091120AC0900B0AD0900C0AE0900D0A0A
S1132390F0900E0A0C0D1D1D2E1D3F1D68017901C4
S11323A0C61AD70AE80AF90AD701C6010297A10595
S11323B0B10508F010C10E94F6070DC16AE372E08E
S11323C085EA9CE00E94003567E577E085EA9CE0B9
S11323D00E94D53467E977E0CE0101960E949B37CD
S11323E0BE01625F7F4FCE0101960E947039BC012D
S11323F085EA9CE00E94F034CE0101960E943437B5
S113240067E577E085EA9CE00E94D53466EA77E0E8
S113241085EA9CE00E9400356BEC77E08FE79AE058
S11324200E941A3864ED77E08DE99AE00E941A3828
S113243082ED9AE00E94F12A82ED9AE00E94572BE5
S11324408FE39CE90197F1F700C0000068ED77E0A5
S11324508BE59AE00E941A386AEE77E081E69AE00A
S11324600E941A386DEF77E087E69AE00E941A38E6
S11324706091AB0A7091AC0A44E650E085E59AE0BD
S11324800E946B030E9494019FEFE3EDF0E39150EF
S1132490E040F040E1F700C000004ACA6AEF7AE089
S11324A085E89AE00E94F23764EF7AE08BE89AE0DC
S11324B00E94F2376DEB76E0CE0101960E949B37C5
S11324C06AEF7AE0CE0101960E947039BC0187E67A
S11324D09AE00E94F237CE0101960E94343760914F
S11324E0AB0A7091AC0A4AE050E085E59AE00E949C
S11324F06B032FEF39E688E1215030408040E1F74B
S113250000C0000060911E0170911F0180912001A4
S1132510909121010E94A703B7CB22E0B701A60145
S1132520CE0101960E94F038BE016F5F7F4F81E9B2
S11325309AE00E940F38CE0101960E94343760E180
S113254078E085EB9AE00E941A3867E070E081E059
S113255090E00E949F0767E070E081E090E00E94B5
S1132560640792B182E0892782B96AE070E080E072
S113257090E00E94A70364CD22E0B701A601CE013A
S113258001960E94F038BE016F5F7F4F81E99AE0A7
S11325900E940F38CE0101960E94343760E178E042
S11325A085EB9AE00E941A3867E070E081E090E0E1
S11325B00E949F0767E070E081E090E00E9464075A
S11325C060911A0170911B0180911C0190911D0171
S11325D00E94A703B4CE6D960FB6F894DEBF0FBE6B
S11325E0CDBFDF91CF911F910F91FF90EF90DF90BE
S11325F0CF9008951F920F920FB60F9211248F93CC
S11326009F93059B0FC08091A90A9091AA0A0196F5
S11326109093AA0A8093A90A8FE190E80197F1F7B1
S113262000C00000069B0FC08091A90A9091AA0ADD
S113263001969093AA0A8093A90A8FE190E80197E2
S1132640F1F700C000009F918F910F900FBE0F9083
S11326501F9018951F920F920FB60F9211240BB66C
S11326600F922F933F934F935F936F937F938F9327
S11326709F93AF93BF93EF93FF938091AB0A909195
S1132680AC0A049709F0BCC04E9B45C08091080B6E
S11326909091090B01969093090B8093080B8091FC
S11326A0080B9091090B181619060CF04BC082E424
S11326B00E942B0767E070E080E090E00E949F0793
S11326C065EC76E089E79AE00E941A3869E77AE0D7
S11326D08BE89AE00E94F23769EC76E085EB9AE0A9
S11326E00E941A386DEC75E08BE59AE00E941A3866
S11326F06EED75E081E69AE00E941A3862EE75E0AC
S113270087E69AE00E941A386AE070E080E090E080
S11327100E94A7030FC08091060B9091070B0196AE
S11327209093070B8093060B8091060B9091070BF7
S1132730029744F01092090B1092080B1092070BA9
S11327401092060B4F9B45C08091080B9091090B8A
S113275001969093090B8093080B8091080B90913C
S1132760090B181619060CF04BC084E40E942B07C1
S113277067E070E080E090E00E94640767EC76E038
S113278089E79AE00E941A3869E77AE08BE89AE0D0
S11327900E94F23761ED76E085EB9AE00E941A38E8
S11327A06DEC75E08BE59AE00E941A386EED75E0E9
S11327B081E69AE00E941A3862EE75E087E69AE0B4
S11327C00E941A386AE070E080E090E00E94A7035B
S11327D00FC08091060B9091070B01969093070B05
S11327E08093060B8091060B9091070B029744F09F
S11327F01092090B1092080B1092070B1092060B03
S1132800FF91EF91BF91AF919F918F917F916F91C4
S11328105F914F913F912F910F900BBE0F900FBE80
S11328200F901F9018958F92AF92CF92EF920F93C3
S1132830CF93DF9300E020E040E060E080E59BE0A0
S11328400E94423465E671E082E29BE00E949B377D
S113285066E771E088E29BE00E949B37C2E2DBE01E
S113286088EE93E09D878C8769E871E080E39BE0C4
S11328700E949B3762E971E086E39BE00E949B37EC
S11328808CEF93E09B8F8A8F60EA71E08EE39BE08C
S11328900E949B3762EB71E084E49BE00E949B37CB
S11328A08BE094E099A788A767EB71E08AE09BE04E
S11328B00E949B37CAE0DBE080ED97E09F838E8324
S11328C06FED71E082E19BE00E949B3788EF97E017
S11328D09F878E8766E072E08AE19BE00E949B37C7
S11328E080E298E09F8B8E8B6AE372E084EF9AE03B
S11328F00E949B376AE372E08AEF9AE00E949B375A
S11329006AE372E080E09BE00E949B371F9283E0C1
S11329108F9387E0882E96E0A92E25E0C22E34E01E
S1132920E32E21E042E067E282ED9AE00E948E2CE1
S113293043E064E08BEB9AE03BD460E278E085EB23
S11329409AE00E949B376AE372E08FEA9AE00E9461
S11329509B376AE372E083EA9AE00E949B376AE35A
S113296072E08FE79AE00E949B376AE372E085E8A1
S11329709AE00E949B376AE372E08BE89AE00E9437
S11329809B376AE372E081E99AE00E949B376AE32D
S113299072E087E99AE00E949B376AE372E08DE96E
S11329A09AE00E949B3767E775E089E79AE00E9406
S11329B09B376AE372E083E79AE00E949B376AE3FD
S11329C072E08DE69AE00E949B3767E775E085E543
S11329D09AE00E949B3767E775E08BE59AE00E94D6
S11329E09B3767E775E081E69AE00E949B3767E7CB
S11329F075E087E69AE00E949B3702E320E048EA0C
S1132A0060EC8FE49AE00E94423405E121E048EA58
S1132A1060EC89E49AE00E94423401E020E048EA54
S1132A2060EC83E49AE00E94423400E020E04FEF3F
S1132A306FEF8DE39AE00E94423480E39AE00E94B3
S1132A40F42383E29AE00E94F42387E19AE00E944F
S1132A50D11D40E050E0BA0185E09AE036D76AE340
S1132A6072E08FEF99E00E949B376AE372E089EF8E
S1132A7099E00E949B370F900F9086EF99E0DF91C9
S1132A80CF910F91EF90CF90AF908F90F1C2CF93F1
S1132A90DF9389EF99E00E9434378FEF99E00E9429
S1132AA0343787E19AE00E94D81D87E69AE00E94B5
S1132AB0343781E69AE00E9434378BE59AE00E942D
S1132AC0343785E59AE00E9434378DE69AE00E9417
S1132AD0343783E79AE00E94343789E79AE00E940A
S1132AE03437C3EADAE02697CE010E9434378AE00D
S1132AF0CF37D807C1F783EA9AE00E9434378FEAC8
S1132B009AE00E94343785EB9AE00E94343780E0E3
S1132B109BE00E9434378AEF9AE00E94343784EFB6
S1132B209AE00E9434378AE19BE00E94343782E1C4
S1132B309BE00E9434378AE09BE00E9434378EE3A6
S1132B409BE00E945C0280E39BE00E945C0282E2C4
S1132B509BE0DF91CF910C945C02CF92DF92EF92D5
S1132B60FF920F931F93CF93DF93CDB7DEB76A978E
S1132B700FB6F894DEBF0FBECDBF2FEF81EE94E009
S1132B80215080409040E1F700C000003C9AEFE102
S1132B90FEE43197F1F700C000000E94920169E25F
S1132BA078E085EA9CE00E94003582E29BE0909305
S1132BB04F0B80934E0B8AE09BE090934D0B8093D8
S1132BC04C0B26E040E855E260E070E085EA9CE0CA
S1132BD00E9409336EE378E085EA9CE00E94D534D4
S1132BE04AE050E060E070E185EA9CE00E946935CB
S1132BF06DE372E085EA9CE00E9400356AE372E0CE
S1132C00CE0145960E949B3760914E0B70914F0BFD
S1132C10CE0101960E944302BE016F5F7F4FCE0139
S1132C200F960E94180ABE01615F7F4FCE01459640
S1132C300E940F38CE010F960E943437CE010196C0
S1132C400E945C02498D5A8D20E030E06CE271E014
S1132C50CE0145960E94C23960914E0B70914F0B84
S1132C60625F7F4FCE0101960E944302BE016F5FF7
S1132C707F4FCE010F960E94180ABE01615F7F4FFD
S1132C80CE0145960E940F38CE010F960E9434372C
S1132C90CE0101960E945C0260914E0B70914F0B25
S1132CA0645E7F4FCE0101960E944302BE016F5FB6
S1132CB07F4FCE010F960E94180ABE01615F7F4FBD
S1132CC0CE0145960E940F38CE010F960E943437EC
S1132CD0CE0101960E945C0200914C0B10914D0BA9
S1132CE0B801CE0101960E940738F80186819781C8
S1132CF098878F83BE016F5F7F4FCE010F960E942E
S1132D003A0BBE01615F7F4FCE0145960E940F389A
S1132D10CE010F960E943437CE0101960E943437BB
S1132D203E9A3F9A0F9A8FE39CE90197F1F700C00E
S1132D300000479AEFE3FCE93197F1F700C0000087
S1132D40179A0E94070220E044E064E182ED9AE0D1
S1132D500E94142D82ED9AE00E94F12AFFEF24E3F1
S1132D608CE0F15020408040E1F700C0000082ED8B
S1132D709AE00E94F92A9FEFE4E3FCE09150E040DE
S1132D80F040E1F700C0000082ED9AE00E94F12AD1
S1132D902FEF84E39CE0215080409040E1F700C095
S1132DA0000082ED9AE00E94F92AEFEFF4E32CE0B0
S1132DB0E150F0402040E1F700C0000049E451E058
S1132DC061E082ED9AE00E94D72B8FEF99EFE0E06B
S1132DD081509040E040E1F700C0000082ED9AE0AD
S1132DE00E94F12A05E51AE09DE6E92E9AE0F92E03
S1132DF06AE372E0C8010E941A380A5F1F4FE016A6
S1132E00F106B1F70E9407028BEB9AE0E2D1FFEFE3
S1132E1020E782E0F15020408040E1F700C000004C
S1132E208BEB9AE076D36B017C01672B682B692BC3
S1132E3069F569E578E085EA9CE00E94D53482ED85
S1132E409AE00E94F12A9FEFE4E3FCE09150E04015
S1132E50F040E1F700C0000082ED9AE00E94092BE7
S1132E6062E778E082ED9AE00E94D5342FEF87EA9A
S1132E7091E6215080409040E1F700C000006CE8EA
S1132E8078E085EB9AE00E941A3806C06FE978E092
S1132E9085EA9CE00E94003564EB78E085EA9CE0DA
S1132EA00E94D5344F2D55276627772720E130E03F
S1132EB085EA9CE00E946E3563EC78E085EA9CE04C
S1132EC00E94D5344E2D50E060E070E02AE030E0FE
S1132ED085EA9CE00E9457356EE285EA9CE00E94F8
S1132EE0D6344D2D50E060E070E02AE030E085EA11
S1132EF09CE00E946E356FEF8BEB9AE080D38BEBF6
S1132F009AE04FD30E94070240EA56E861E070E07D
S1132F1087E19AE090D6811110C062EE71E085EAF3
S1132F209CE00E94E034EFEFF3ED20E3E150F04049
S1132F302040E1F700C00000E7CF8FEF90E7E2E028
S1132F4081509040E040E1F700C0000064EC71E083
S1132F5085EA9CE00E94E03487E19AE0CAD70E94A7
S1132F60070262ED78E085EA9CE00E9400358FE478
S1132F709CE00E94773068E270E08FE49CE00E945D
S1132F80943060E08FE49CE00E94393062E38FE487
S1132F909CE00E9439308FE49CE00E940B31FFEFEB
S1132FA020E782E0F15020408040E1F700C00000BB
S1132FB062E570E08FE49CE00E94943060E08FE46E
S1132FC09CE00E94393062E38FE49CE00E94393037
S1132FD08FE49CE00E940B318FE49CE00E948630D9
S1132FE066E079E085EA9CE00E9400350E940702D1
S1132FF060E286EF99E041D02CE340E063EC86EF99
S113300099E041D08EEF9FEF9093AC0A8093AB0A86
S113301067E179E085EB9AE00E941A3865E279E08D
S1133020CE0101960E949B3765EB7AE0CE010196B2
S11330300E947039BC0185EA9CE00E94F034CE0104
S113304001960E9434370E940702CE0145960E94E1
S113305034376A960FB6F894DEBF0FBECDBFDF914A
S1133060CF911F910F91FF90EF90DF90CF90089533
S1133070FC011082118212820895FC0160838FE4A6
S11330809CE00C947730FF920F931F93CF93DF93C0
S1133090EC01F62E042F122F68818FE49CE00E942D
S11330A08A3061E08FE49CE00E9439306F2D8FE418
S11330B09CE00E9439308FE49CE00E940B316881CF
S11330C08FE49CE00E948A3062E08FE49CE00E94DE
S11330D03930602F8FE49CE00E9439308FE49CE00B
S11330E00E940B318FE39CE90197F1F700C00000C7
S11330F068818FE49CE00E948A3063E08FE49CE066
S11331000E943930612F8FE49CE00E9439308FE4B3
S11331109CE00E940B318FE39CE90197F1F700C01A
S11331200000DF91CF911F910F91FF900895CF93ED
S1133130C62FFC0160818FE49CE00E948A3063E02A
S11331408FE49CE00E9439306C2F8FE49CE00E9455
S113315039308FE49CE0CF910C940B31CF93DF9303
S1133160EC0168818FE49CE00E948A3060E08FE487
S11331709CE00E9439308FE49CE00E940B3168810E
S113318070E041E050E08FE49CE00E940931C0E02F
S11331908FE49CE00E94AB2F892B31F08FE49CE0FC
S11331A00E94B32FC82FF4CF8C2FDF91CF910895B5
S11331B0CF93DF93EC01862F6C834D831D8A1E8A87
S11331C060E00E94A13661E08D81DF91CF910C9483
S11331D0A136CF93DF93EC018FE49CE00E9477301B
S11331E061E08D810E94DD3660E08D810E94DD36D4
S11331F02FEF87E893E1215080409040E1F700C031
S1133200000061E08D810E94DD368FE39CE9019727
S1133210F1F700C00000DF91CF9108954F925F92C3
S11332206F927F928F929F92AF92BF92EF92FF9292
S11332300F931F93CF93DF93CDB7DEB72C970FB6C1
S1133240F894DEBF0FBECDBF7C015A0128013901BD
S11332506AE372E00E949B378501812C912C540112
S113326084149504A604B70409F446C0F8016191D6
S11332708F0140E1CE016031F0F401960E9446389E
S1133280B701CE0107960E94073868EF75E0CE01BA
S113329007960E948139BE016F5F7F4F0E9470398B
S11332A0BC01C7010E94F237CE0107960E94343751
S11332B0CE01019619C007960E944638B701CE0187
S11332C001960E940738BE01695F7F4FCE010196C7
S11332D00E947039BC01C7010E94F237CE010196E9
S11332E00E943437CE0107960E943437FFEF8F1ABD
S11332F09F0AAF0ABF0AB4CF85EA9CE00E94DD347E
S1133300C7012C960FB6F894DEBF0FBECDBFDF9178
S1133310CF911F910F91FF90EF90BF90AF909F902E
S11333208F907F906F905F904F900895FC018481FF
S11333300E940B3791E0811190E0892F0895CF927C
S1133340DF92EF92FF921F93CF93DF936C017B0187
S1133350C0E0D0E0C601EADF182F811115C0E114E6
S1133360F10459F02A96EC16FD0638F464E479E089
S113337085EA9CE00E94003507C08FE39CE9019731
S1133380F1F700C00000E6CF812FDF91CF911F91AC
S1133390FF90EF90DF90CF900895FF920F931F93CB
S11333A0CF93DF93F62E072F142F8FE39FE101971E
S11333B0F1F700C0000042E0410F64E28FE49CE0BA
S11333C00E9407318FE49CE00E94B32FCF2DD02FB1
S11333D0CE01810F911D8C01C017D10761F08FE9D7
S11333E09FE00197F1F700C000008FE49CE00E9489
S11333F0B32F8993F1CFDF91CF911F910F91FF905C
S11334000895CF93DF9300D000D000D0CDB7DEB7BE
S113341046E0BE016F5F7F4FC0DF46E050E067E5E6
S113342071E0CE0101960E943F3D21E0892B09F015
S113343020E0822F26960FB6F894DEBF0FBECDBFD4
S1133440DF91CF910895682F8FE49CE00C9439307C
S1133450CF92DF92EF92FF920F931F93CF93DF935C
S11334607B01C1E0C40F8FE39FE10197F1F700C036
S1133470000064E270E08FE49CE00E94943080E0FD
S1133480E2DF80E0E0DF8FEFDEDF8C2FDCDF8C2FEC
S11334908195D9DF84EDD7DFC12C83EDD82ED0E020
S11334A021970C2D10E00C171D0754F40E0D1F1D51
S11334B0F8018081C8DFF8018081D80EC394F1CF70
S11334C08D2D8095C0DF80E0BEDF8FE49CE0DF912E
S11334D0CF911F910F91FF90EF90DF90CF900C94BC
S11334E00B310F931F93CF93DF93EC018901B0DF6E
S11334F0B801CE0124DF882331F0CE01DF91CF91D2
S11335001F910F917ECF80E0DF91CF911F910F919A
S11335100895CF93DF93EC0182E08093560B28EE5D
S113352033E041E066E57BE0CE01DBDF811104C0DE
S113353060E070E0CB0132C04CE066E57BE0CE0198
S11335402CDF46E050E061E571E086E59BE00E94F7
S11335503F3D892B69F78D89811103C0E7E0F0E0D5
S113356002C0E6E0F0E0EA5AF44F6081862F90E072
S1133570A0E0B0E0BA2FA92F982F88272181822BB1
S1133580BA2FA92F982F88272281822BBA2FA92FEF
S1133590982F88272381BC01CD01622BDF91CF9125
S11335A00895CF93DF93EC0194E19093560B81E05F
S11335B08093570B9093580B8093590B28EE33E06C
S11335C044E066E57BE0CE018CDF8823A9F048E087
S11335D066E57BE0CE01E1DE8D89811103C086E0E2
S11335E090E002C085E090E0FC01EA5AF44F81E0EB
S11335F09081953109F080E0DF91CF910895E6E55F
S1133600FBE022E3208325E021832FEF228321E0C6
S11336102383648328EE33E045E0BF0162CFAF9299
S1133620BF92CF92DF92EF92FF920F931F93CF93AB
S1133630DF93EC017A01590168018AE48093560B07
S113364081E08093570B6093580B980143E066E543
S11336507BE0CE0146DF182F882341F18D89882332
S113366079F044E166E57BE0CE0197DE80915D0B65
S11336708130E1F48091620BF501808380E006C023
S1133680B601CE015CDE8111ECCF10C09091620BCB
S1133690891768F4282F30E0F901EA5AF44F958528
S11336A0F701E20FF31F90838F5FF0CF10E0812FBB
S11336B0DF91CF911F910F91FF90EF90DF90CF900A
S11336C0BF90AF900895AF92BF92CF92DF92EF92E6
S11336D00F931F93CF93DF93EC01142F5C018EE0C3
S11336E0A80EB11C86E0F601D50101900D928A95D1
S11336F0E1F750E0CE0106960E94263D1D8780E446
S11337008093560B81E08093570BE11002C080E652
S113371001C081E68093580B0093590B86E0F501B4
S1133720AAE5BBE001900D928A95E1F780E04D8512
S1133730841760F4282F30E0FE01E20FF31F968116
S1133740F901EA5AF44F92878F5FF1CF465F28EE72
S113375033E066E57BE0CE01C4DE882349F04CE02B
S113376066E57BE0CE0119DE81E090915D0B91115D
S113377080E0DF91CF911F910F91EF90DF90CF9078
S1133780BF90AF9008950F931F93CF93DF93EC01F5
S11337908A0180E48093560B81E08093570B80E389
S11337A08093580B6093590B28EE33E044E066E5B0
S11337B07BE0CE0196DE811102C080E012C04AE1B6
S11337C066E57BE0CE01E9DD80915D0B8111F5CFEB
S11337D080E1EEE5FBE0D80101900D928A95E1F7D6
S11337E081E0DF91CF911F910F910895CF93DF93E3
S11337F0EC0180E48093560B81E08093570B80EAC0
S11338008093580B6093590B80E1FA01AAE5BBE061
S113381001900D928A95E1F728EE33E044E166E5E4
S11338207BE0CE015EDE882369F08FE39CE901979B
S1133830F1F700C000004AE166E57BE0CE01ADDDB2
S113384081E001C080E0DF91CF910895803D27E0C1
S1133850920710F0805D974050E0E6E2F2E021E04C
S1133860261730F43491430F511D2F5F3196F8CF52
S1133870633038F09C0123703327232B11F44F5FFE
S11338805F4FBC016D5F7F4F769567957695679521
S1133890EDE6F1E08E9F90018F9F300D9E9F300DDD
S11338A01124C9010197860F971F840F951F08954E
S11338B0FC01908190539A3008F090E0818180530C
S11338C02AE0929F800D112408958F929F92AF92C7
S11338D0BF92CF92DF92EF92FF92CF93DF93EC01EE
S11338E06A017B0180E8C81A83E4D80A8DE6E80AF5
S11338F088E3F80A8CE3882E912CA12CB12CC70103
S1133900B601A50194010E94AD3A6D83CA01B901C3
S1133910A50194010E94AD3A6C83C701B60120E170
S11339203EE040E050E00E94AD3ACA01B90128E10E
S113393030E040E050E00E94AD3A6B83C701B6012D
S113394020E831E541E050E00E94AD3A18828881D8
S1133950982F937041E050E011F040E050E0BA013C
S113396063597E4F2617370738F0241B350B2D5625
S113397031408F5F8883EBCF81E089838981E82F91
S1133980F0E0EB5DFD4FE491911103C0823009F446
S1133990EF5FF0E02E173F0720F02E1B3F0B8F5FE9
S11339A0ECCF2F5F2A83DF91CF91FF90EF90DF90D0
S11339B0CF90BF90AF909F908F900895EF92FF9219
S11339C00F931F93CF93DF93CDB7DEB72B970FB62B
S11339D0F894DEBF0FBECDBF8C017A014BE050E0FE
S11339E0CE0101960E941D3DCE010A9661DFF801C9
S11339F08083E9818E2F90E0FC01E154F109E331E9
S1133A00F10548F5EE5AFF4F0C94CF3A8A8181367E
S1133A1029F08B818E3621F087E01BC081E019C02C
S1133A2086E017C082E015C08B81823711F088E0F0
S1133A3010C084E00EC08B81823711F085E009C08C
S1133A4083E007C089E005C08AE003C08BE001C0C1
S1133A508CE0F8018183CE0105962ADFF801828388
S1133A6048E050E0B701CE0101960E941D3DCE0111
S1133A7001961EDFF8018383CE01049619DFF80155
S1133A808483CE01079614DFF80185832B960FB645
S1133A90F894DEBF0FBECDBFDF91CF911F910F9180
S1133AA0FF90EF900895FC0180814281618190E054
S1133AB0CDDE069667E070E00C94993A0895EF9293
S1133AC0FF920F931F93CF93DF93EC0188814A8178
S1133AD0698190E0BBDE9C01A8E1B0E00E94D83A85
S1133AE02B817B018C01E20EF11C011D111DA8012B
S1133AF09701ACE3B0E00E94E73A2C817B018C0192
S1133B00E20EF11C011D111DA80197010E94E73A64
S1133B102D81DC01CB01820F911DA11DB11DBC01C2
S1133B20CD0160587C4B8249974CDF91CF911F9116
S1133B300F91FF90EF900895EF92FF920F931F93D0
S1133B40CF93DF93EC0188814A81698190E07EDE26
S1133B509C01A8E1B0E00E94D83A2B817B018C0142
S1133B60E20EF11C011D111DA8019701ACE3B0E0A8
S1133B700E94E73A2C817B018C01E20EF11C011DAD
S1133B80111DA80197010E94E73A2D81620F711D52
S1133B90811D911DDF91CF911F910F91FF90EF90A7
S1133BA00895FC01108211821282138214820895F6
S1133BB008950F931F93CF93DF93EC01062F142FD7
S1133BC068E68FE49CE00E948A30602F8FE49CE0DA
S1133BD00E943930612F8FE49CE00E9439308FE4D9
S1133BE09CE00E940B318883DF91CF911F910F914C
S1133BF008951F93CF93DF93EC01162F68E68FE4AB
S1133C009CE00E948A30612F8FE49CE00E9439304E
S1133C108FE49CE00E940B31888341E068E68FE4E6
S1133C209CE00E9407318FE49CE00E94B32FDF9157
S1133C30CF911F910895CF92DF92EF92FF92CF938D
S1133C40DF93EC016A017B018FE49CE00E947730F2
S1133C50B701A6018FE49CE00E94873068E68FE4F8
S1133C609CE00E948A308FE49CE00E940B31811119
S1133C700AC062E0CE01BDDF482F4F7B62E0CE0177
S1133C8098DF81E001C080E0DF91CF91FF90EF9059
S1133C90DF90CF9008950F931F93CF93DF938C0100
S1133CA0EB0168E68FE49CE00E948A3060E08FE4D8
S1133CB09CE00E9439308FE49CE00E940B318883A1
S1133CC047E068E68FE49CE00E9407318FE49CE0C3
S1133CD00E94AB2F079709F064C08FE49CE00E9418
S1133CE0B32F982F9695969596959E70292F220F0F
S1133CF0220F920F8F70890F8D838FE49CE00E94B6
S1133D00B32F982F9695969596959E70292F220FEE
S1133D10220F920F8F70890F8E838FE49CE00E9494
S1133D20B32F982F9695969596959E70292F220FCE
S1133D30220F920F8F70890F8F838FE49CE00E9473
S1133D40B32F8FE49CE00E94B32F982F96959695FD
S1133D5096959670292F220F220F920F8F70890F3C
S1133D6088878FE49CE00E94B32F84FB992790F905
S1133D70990F292F220F220F920F8F70890F898795
S1133D808FE49CE00E94B32F982F92959F708F70C0
S1133D902AE0929F800D112490E08053984F9B87D6
S1133DA08A872D813E814F81588569858A859B85C7
S1133DB0803D77E0970710F0805D9740F80180839D
S1133DC061835283438334832583C801DF91CF9178
S1133DD01F910F910895DF92EF92FF920F931F931B
S1133DE0CF93DF9300D000D000D0CDB7DEB78C01E5
S1133DF07B01FB0185819AE0D92E6D2D0E948D3ABD
S1133E00492FF0E18F9F400D112460E0C801D1DEFD
S1133E10F70184816D2D0E948D3A492FF0E18F9F27
S1133E20400D112461E0C801C4DEF70183816D2DCA
S1133E300E948D3A492FF0E18F9F400D112462E0DA
S1133E40C801B7DEC7012FDE482F63E0C801B1DE29
S1133E50F70182816D2D0E948D3A492FF0E18F9FE9
S1133E60400D112464E0C801A4DEF70181816D2DA9
S1133E700E948D3A492FF0E18F9F400D112465E097
S1133E80C80197DEF70180816D2D0E948D3A492F7C
S1133E90F0E18F9F400D112466E0C8018ADE6FE0D7
S1133EA0C801A7DE482F4F776FE0C80182DE6EE0BD
S1133EB0C8019FDE482F4F776EE0C8017ADEB80153
S1133EC0CE010196E8DECE010196F9DDF8016183A9
S1133ED072838383948326960FB6F894DEBF0FBE55
S1133EE0CDBFDF91CF911F910F91FF90EF90DF90A5
S1133EF008950F931F93CF93DF9300D000D000D089
S1133F00CDB7DEB78C014DE152E061E172E0CE0144
S1133F10019654DDBE016F5F7F4FC8015CDF2696BA
S1133F200FB6F894DEBF0FBECDBFDF91CF911F91C6
S1133F300F9108950F9300E020E040E060E086E9EF
S1133F409BE00E9442340F910895FB01428153810A
S1133F5064817581FC014283538364837583178272
S1133F6016820895CF93DF93DA01FB01EB01899167
S1133F708111FDCF80E090E020E030E04AE05191F3
S1133F805523E9F02430310544F55E3269F48F3F5E
S1133F90910509F014F5ED01C20FD31F8A832F5F39
S1133FA03F4F80E090E0EBCF489FB001499F700DF8
S1133FB01124852F90E0C097860F971FE0CF8F3F85
S1133FC0910509F054F4243031053CF4FD01E20F6D
S1133FD0F31F828381E090E002C080E090E0DF91F3
S1133FE0CF9108950F9300E020E040E060E08CE979
S1133FF09BE00E9442340F9108958F929F92AF925A
S1134000BF92CF92DF92EF92FF920F931F93CF93C1
S1134010DF9300D01F92CDB7DEB76C017B010E9405
S1134020C835F601778366838601085F1F4FB601A2
S11340306A5F7F4F42E050E0C80130D581E090E0F4
S11340409A83898342E050E0BE016F5F7F4FC801CD
S113405025D580E091E09A83898342E050E0BE0157
S11340606F5F7F4FC8011AD51A82198242E050E06F
S1134070BE016F5F7F4FC80111D542E050E0BE0121
S11340806F5F7F4FC8010AD542E050E0BE016F5F09
S11340907F4FC80103D55701F50180818823F9F0CA
S11340A0A7015A01F50181916F01882321F08E3215
S11340B011F0A601F6CF4A018E189F0818141904AE
S11340C064F48B8241E050E0BE016D5F7F4FC80114
S11340D0E5D4A401B701C801E1D47601DDCF1B8288
S11340E041E050E0BE016D5F7F4FC801D7D4E12CA1
S11340F0FF24F394FA82E98242E050E0BE016F5F4C
S11341007F4FC801CBD4FA82E98242E050E0BE017D
S11341106F5F7F4FC801C2D481E090E00F900F9091
S11341200F90DF91CF911F910F91FF90EF90DF904F
S1134130CF90BF90AF909F908F9008952F923F9211
S11341404F925F926F927F928F929F92AF92BF92A3
S1134150CF92DF92EF92FF920F931F93CF93DF934F
S1134160CDB7DEB763970FB6F894DEBF0FBECDBFF1
S11341707C016B011A010E94C8354B015C01870167
S1134180085F1F4F2601612C712CC80129D5181610
S11341901906A4F00E94C835DC01CB0188199909DD
S11341A0AA09BB09481659066A067B06D0F062E3E1
S11341B070E080E090E00E94F935E7CFF70142819A
S11341C0538164817581818D928DA38DB48D48173F
S11341D059076A077B0749F4858D968DC59729F49D
S11341E009C0EE24EA94FE2CF0C09EEFE92EFF24D1
S11341F0FA94EBC0C80108D40C970CF4E2C04CE06C
S113420050E0BE016F5F7F4FC80183D48B819C81D6
S11342109827892798279A8B898BF701468157819C
S113422029813A814217530711F497FD07C0C80149
S113423005D47CEFE72EFF24FA94C7C08F709270E8
S1134240892B39F0C801FAD36BEFE62EFF24FA94D8
S1134250BCC0CF80D884DC24CD24DC24C114D10498
S113426019F0E12CF12C1FC0C801E8D35AEFE52E58
S1134270FF24FA94AAC041E050E0BE01635F7F4F7F
S1134280C80147D48D85811117C08D858111F3CF65
S1134290C80117D4C80115D4C80113D4C80111D456
S11342A0FFEFEF1AFF0A8D819E81982789279827AF
S11342B0E816F90600F309C08D859FEF980F9D87D6
S11342C0882319F3C801FDD3F7CFA12CB12C41E009
S11342D050E0BE016D5E7F4FC8011BD48B89982FBF
S11342E0907C59F4882379F08B899FEF980F9B8BEE
S11342F0882331F0C801E5D3F7CFC801E2D31B8A84
S11343008B898111E4CF42E050E0BE01615F7F4FB1
S1134310C801FFD342E050E0BE01635F7F4FC80194
S1134320F8D3C801CED3C801CCD3C801CAD3C801BD
S1134330C8D342E050E0BE016F5E7F4FC801E9D3AD
S11343408F8598898115914049F4ED84FE84FE247B
S1134350EF24FE2481E0E816F10419F0E12CF12C9D
S113436014C089899A898115944039F0C80166D3AB
S113437047EFE42EFF24FA9428C0B1016E5F7F4F0B
S113438044E050E0C801C5D320C089899A899827A0
S113439089279827E816F90630F4C80192D3FFEF6D
S11343A0EF1AFF0AF2CF2FEFA21AB20ACA14DB04E3
S11343B009F08DCFC80142D336EFE32EFF24FA94DF
S11343C004C08DEFE82EFF24FA94C70163960FB65C
S11343D0F894DEBF0FBECDBFDF91CF911F910F9137
S11343E0FF90EF90DF90CF90BF90AF909F908F9011
S11343F07F906F905F904F903F902F9008958F9291
S11344009F92AF92BF92CF92DF92EF92FF920F935F
S11344101F93CF93DF9300D000D000D0CDB7DEB789
S11344207C014B015A019EDD8C01892B09F057C098
S1134430F701428153816481758180919E0B909133
S11344409F0BA091A00BB091A10B481759076A07C5
S11344507B0709F447C00E94C8356701F8E0CF0E16
S1134460D11C6F7077277C5FC60189D3813009F036
S11344703BC087EE99E09A838983F7018281938117
S1134480A481B5818B839C83AD83BE8345E350E0D7
S1134490BE016F5F7F4FC601F7D2892B19F400E08C
S11344A010E01AC0B401C701A8DD892BC1F3C6010D
S11344B0F2D2892BA1F383E0882E912CA50168E820
S11344C073E1C7013BDE8C0121E0821A910821F0DF
S11344D00F3FFFEF1F0791F3C601C2D205C001E0F1
S11344E010E002C00EEF1FEFC80126960FB6F89435
S11344F0DEBF0FBECDBFDF91CF911F910F91FF9013
S1134500EF90DF90CF90BF90AF909F908F900895E1
S113451024E030E0AC0164E081E090E035C624E0C2
S113452030E0AC0164E085E090E02EC626E030E0A7
S1134530AC0164E089E090E027C624E030E0AC01FF
S113454064E08FE090E020C68F929F92AF92BF927A
S1134550CF92DF92EF92FF920F931F93CF93DF934B
S11345604C015B016A01E901FC0164858CED9BE06F
S113457053D6C501DBDFC6010296DFDFC801029610
S1134580C7DFC7010296CBDF8A819B81AC81BD81E5
S1134590F40182839383A483B583DF91CF911F9128
S11345A00F91FF90EF90DF90CF90BF90AF909F90CE
S11345B08F90089527EE39E0FC0131832083FB01BD
S11345C04281538164817581FC01428353836483F6
S11345D0758308950F9300E020E040E060E08FEBE6
S11345E09BE00E94423482EA9BE00E943834E2EA73
S11345F0FBE0138612868AE084870F910895DC011C
S1134600ED91FC91028CF38DE02D099591E08927C1
S11346100895CF93DF931F92CDB7DEB76983DC0192
S1134620ED91FC910280F381E02D41E050E0BE0168
S11346306F5F7F4F09950F90DF91CF91089521E02F
S1134640FC018485883009F420E0822F0895FC0160
S11346509485FB018485981303C081E0983009F4A4
S113466080E00895CF92DF92EF92FF920F931F9311
S1134670CF93DF93CDB7DEB7AF970FB6F894DEBF15
S11346800FBECDBF8C016B017A01CE0101960E9451
S11346903834CE010996F3D2CE018A960E9438347A
S11346A062EA7BE0CE01849685DFBE016C5D7F4FBC
S11346B0CE0101964ADCAE01465D5F4FB601CE01E4
S11346C001969DDE81309105C1F4D801ED91FC91F4
S11346D00684F785E02D87EE99E09DA38CA38CA535
S11346E09DA5AEA5BFA58EA39FA3A8A7B9A7A70103
S11346F0BE016C5D7F4FC8010995AF960FB6F89463
S1134700DEBF0FBECDBFDF91CF911F910F91FF9000
S1134710EF90DF90CF9008950F931F93CF93DF9383
S11347208C01D42FC52FFC018485883041F481E0AD
S113473090E0F8019383828380E090E005C0CFD3BA
S1134740892BA9F38D2F9C2FDF91CF911F910F916E
S11347500895FC016485683019F08CED9BE0D0C5A8
S113476080E090E00895CF93DF931F92CDB7DEB73A
S113477041E050E0BE016F5F7F4FFC018485F7D3B9
S1134780181619061CF4898190E002C08FEF9FEF80
S11347900F90DF91CF910895FC018485E8C30F93B6
S11347A01F93CF93DF931F92CDB7DEB78C01DC014B
S11347B0ED91FC910084F185E02D0995892B49F058
S11347C0BE016F5F7F4FF801848512D4898190E028
S11347D002C08FEF9FEF0F90DF91CF911F910F9148
S11347E00895FC01848511C4FC011382128288EEB1
S11347F093E0A0E0B0E084839583A683B78381E54A
S113480099E09183808388E084870895FC0164851E
S1134810683039F06295660F607E685F83E090E0EF
S1134820DFC480E00895CF93DF93FC012485283012
S1134830C9F0EC01EBDF843181F0882371F0883119
S113484061F08C3161F4E881F9810084F185E02D17
S1134850CE01099521E0892B19F420E001C021E063
S1134860822F01C080E0DF91CF910895CF92DF9233
S1134870EF92FF92CF93DF93EC018C85883069F13E
S113488029D30E94C8356B017C01CE01BFDF882388
S1134890A1F00E94C835DC01CB018C199D09AE0939
S11348A0BF09883E9340A105B10538F461E070E08A
S11348B080E090E00E94F935E8CFCE01A7DF88239D
S11348C011F08C8596D2EC85F0E0EE0FFF1FE155D8
S11348D0F44F1182108288E08C87DF91CF91FF9092
S11348E0EF90DF90CF900895CF92DF92FF920F93D5
S11348F01F93CF93DF93FC0124852830C1F56A010F
S11349008B01EC01F12C6F2D6295660F607E685F60
S113491083E090E065D4811102C0FC8607C08B7FE0
S11349208831D9F3F394F8E0FF12EDCF8C85883009
S1134930F1F020915D0130915E012F5F3F4F11F442
S113494020E034E030935E0120935D0140915D01ED
S113495050915E0120E061E057D2B8016E5F7F4F55
S1134960A6018C8584D2811105C088E08C8780E003
S113497090E00FC0CE014ADF873149F061E070E07A
S113498080E090E00E94F935CE0140DFECCF81E079
S113499090E0DF91CF911F910F91FF90DF90CF9026
S11349A008950F9300E020E040E060E085EC9BE098
S11349B00E9442340F9108950F9300E020E040E0FC
S11349C060E08BEC9BE00E9442340F91089580E0FC
S11349D00895DC01ED91FC91048CF58DE02D099492
S11349E027EE39E0FC0131832083FB0141895289A0
S11349F063897489FC0142835383648375830895B6
S1134A00FC01858996890895FC01818D928D089514
S1134A10CF93DF931F92CDB7DEB76983DC01ED91AD
S1134A20FC910280F381E02D41E050E0BE016F5F14
S1134A307F4F09950F90DF91CF910895CF93DF9326
S1134A40EC01898D9A8D892B41F0E881F9810284EA
S1134A50F385E02DCE010995F4CFDF91CF91089530
S1134A60CF93DF93EC018C85883059F0C2D1EC856B
S1134A70F0E0EE0FFF1FE155F44F1182108288E041
S1134A808C87DF91CF910895FC01108E178A6E5F99
S1134A907F4F8485E6C2FC01848506C3CF93DF93F0
S1134AA0EC019A018F89988DAB01BC018C85AED243
S1134AB02F89388D280F391F388F2F8BDF91CF9195
S1134AC008950F931F93CF93DF931F92CDB7DEB753
S1134AD0FC01218D328D232B59F08C0141E050E0F3
S1134AE0BE016F5F7F4F848542D2181619061CF0F1
S1134AF08FEF9FEF08C0F801818D928D0197928FFF
S1134B00818F898190E00F90DF91CF911F910F9158
S1134B100895CF93DF93FC01218D328D211531054A
S1134B2019F48FEF9FEF10C0EC014217530708F000
S1134B30A9018C851CD2181619069CF7298D3A8D6B
S1134B40281B390B3A8F298FDF91CF910895CF938A
S1134B50DF931F92CDB7DEB7FC01218D328D232B5D
S1134B6041F0BE016F5F7F4F848542D2898190E01E
S1134B7002C08FEF9FEF0F90DF91CF910895EF92D6
S1134B80FF921F93CF93DF93FC012485283011F00B
S1134B9080E020C07B01EC0110E0612F6295660F7C
S1134BA0607E685F83E090E01BD3811102C01C87A4
S1134BB005C08831E1F31F5F183079F78C858830A0
S1134BC039F3FE86ED861A8E198E20E0A70162E085
S1134BD01BD181E0DF91CF911F91FF90EF90089559
S1134BE00F931F93CF93DF93CDB7DEB728970FB6FC
S1134BF0F894DEBF0FBECDBF8C01DC01ED91FC91BA
S1134C000680F781E02D0995F80164858CED9BE021
S1134C1077D3892B39F148E050E0BE016F5F7F4FB5
S1134C20D8011C968C91A3D118161906ECF4BE0178
S1134C306F5F7F4FC8010F960E944E348D8190E0C4
S1134C40982F88272E81820F911DF801968B858BD2
S1134C508F8190E0982F88272885820F911D928F4D
S1134C60818F02C080E090E028960FB6F894DEBFF2
S1134C700FBECDBFDF91CF911F910F910895FC011D
S1134C801382128288EE93E0A0E0B0E084839583DF
S1134C90A683B78383E799E09183808388E0848740
S1134CA0CF010F960C943834CF92DF92EF92FF929B
S1134CB00F931F93CF93DF93CDB7DEB7AF970FB6A4
S1134CC0F894DEBF0FBECDBF8C016B017A01CE011B
S1134CD001960E943834CE010996D1DFCE018A961E
S1134CE00E94383462EA7BE0CE01849663DCBE0124
S1134CF06C5D7F4FCE01019628D9AE01465D5F4FB2
S1134D00B601CE0101967BDB81309105C1F4D80157
S1134D10ED91FC910488F589E02D87EE99E09DA33F
S1134D208CA38CA59DA5AEA5BFA58EA39FA3A8A764
S1134D30B9A7A701BE016C5D7F4FC8010995AF9665
S1134D400FB6F894DEBF0FBECDBFDF91CF911F9198
S1134D500F91FF90EF90DF90CF9008950F9300E0B4
S1134D6020E040E060E081ED9BE00E9442340F913E
S1134D700895AB018295880F807E6CE0680F24E073
S1134D8030E08CE090E000C29B018295880F807E29
S1134D9068E0680FC90124C262E070E0F5CF9B01AE
S1134DA08295880F807E6CE0680FC901CFC1CF93D4
S1134DB0DF93C82FD62F472F64E070E0F0DF4D2F2C
S1134DC065E070E08C2FDF91CF91E9CF462F62E050
S1134DD070E0E5CFCF93DF93C82FD62F472F60E144
S1134DE070E0DDDF4D2F61E170E08C2FDF91CF911A
S1134DF0D6CFCF93C82F40E1682F8CED9BE070D3C2
S1134E006FEF8C2FCF91E2CFFF920F931F93CF932D
S1134E10DF939FEF960F953018F5D22F8A01F62E67
S1134E20C82FE7DF4F2D4D2B60E070E08C2FB7DFEC
S1134E300115110511F0B8010AC06091D70B7091EA
S1134E40D80B6F5F7F4F7093D80B6093D70B8C2F69
S1134E50AEDF41E06C2F8CED9BE042D381E001C0DA
S1134E6080E0DF91CF911F910F91FF9008950F93F0
S1134E701F93CF93FB0190819F3F51F491819F3FFA
S1134E8091F492819F3F79F493819F3F61F41CC018
S1134E90911109C09181911106C09281911103C0B1
S1134EA09381992391F04115510571F08A01BF0155
S1134EB0C82F5FDFB8018C2F8DDF44E06C2F8CEDA1
S1134EC09BE00ED391E001C090E0892FCF911F9118
S1134ED00F91089548E0682F8CED9BE001C3CF92B9
S1134EE0DF92EF92FF920F931F93CF93C82F7B0112
S1134EF08A014130584010F000E018E06C2F8CED2E
S1134F009BE0CDD16C0163E070E08C2F3DDF8731F5
S1134F1011F08C3121F4C016D10680F302C000E0F8
S1134F2010E09801A7016C2F8CED9BE03DD240E28C
S1134F306C2F8CED9BE0D4D28C2F2EDF84FD0BC024
S1134F4063E070E08C2F20DF8111F6CF8C2F51DFCE
S1134F5080E090E004C060E18C2F38DFC801CF917D
S1134F601F910F91FF90EF90DF90CF900895CF9213
S1134F70DF92EF92FF920F931F93CF93DF93182F3B
S1134F806B017A01682F8CED9BE0BAD1EC0100979C
S1134F9091F463E070E0812FF7DE8431F9F0882327
S1134FA0E9F0C1E0D0E08C3111F4C0E0D0E0D1955B
S1134FB0C195D10913C0E816F9060CF4E7011C16D3
S1134FC01D0664F400E09E01A601612F8CED9BE0B8
S1134FD03AD240E4612F8CED9BE082D2CE01DF9186
S1134FE0CF911F910F91FF90EF90DF90CF90089594
S1134FF00F93AB0101E021E030E0682F8CED9BE0E2
S113500022D281E090E00F9108950895AF92BF926B
S1135010CF92DF92FF920F931F93CF93DF93F82EDB
S11350206B015A01E901682F8CED9BE038D18C1794
S11350309D0728F46F2D8CED9BE031D1EC018E019E
S11350409501A6016F2D8CED9BE074D1CE01DF910B
S1135050CF911F910F91FF90DF90CF90BF90AF90B1
S113506008950F931F93CF93FB019081911109C071
S11350709181911106C09281911103C0938199236A
S113508069F04115510551F08A01BF01C82F71DE45
S1135090B8018C2F9FDE81E090E002C080E090E0B8
S11350A0CF911F910F910895CF93C82F40E2682F9D
S11350B08CED9BE015D28C2F6FDE84FD0AC08C2F03
S11350C06BDE83FFF8CF68E18C2F80DE80E090E018
S11350D005C060E18C2F7ADE81E090E0CF910895E5
S11350E02091DF0B222399F04FB7F8942091DF0B26
S11350F0213059F42DB32093DD0B3DB32091DE0B09
S1135100209523232DBB4FBF02C04093DD0B8CBDE4
S11351109DBD08958EBD00000DB407FEFDCF8EB574
S113512008958091DF0B882361F09FB7F894209154
S1135130DF0B8091DD0B213019F48DBB9FBF0895E7
S11351408FBF089544980895449A08950F931F9328
S1135150CF93DF93182F092FD62FC42F8091DA0B0A
S11351609091DB0BBDDFEEDF802FD4DF812FD2DF08
S11351708D2FD0DF8C2FCEDFE7DFD3DF81E0DF910F
S1135180CF911F910F910895DF92EF92FF920F93A9
S11351901F93CF93DF93D82FD92EC62F7A0189017D
S11351A08091DA0B9091DB0B9BDFCCDF8D2DB2DF8E
S11351B08D2FB0DF8C2FAEDFE701E00EF11ECE1590
S11351C0DF0519F08991A6DFFACFBEDFAADFC80197
S11351D0DF91CF911F910F91FF90EF90DF90089591
S11351E01F93CF93DF93D82F192FC62F8091DA0BFB
S11351F09091DB0B75DFA6DF812F8CDF8D2F8ADF8B
S11352008C2F88DF80E086DFC82F9EDF8ADF8C2F1B
S1135210DF91CF911F910895CF93DF936093D90BC2
S113522068EE73E080E090E00E94F9353C9A10D477
S113523060E080E090E0D4DF482F406864E080E0E4
S113524090E084DFC0E0DC2FD295DD0FD07ED45F08
S113525042E06D2F8EE190E079DF42E06D2F8FE127
S113526090E074DFCF5FC83071F7DF91CF9108957C
S11352701F93CF93DF93182F60E270E085DDC82F72
S1135280D0E0DC2FCC2761E270E0812F7DDD9E0130
S1135290280F311DC901DF91CF911F910895FF920D
S11352A00F931F93CF93DF93F62EC0E0D0E08F2DA2
S11352B0DFDF8C01892B19F08F2DDADFEC01C017A9
S11352C0D107A9F7CE01DF91CF911F910F91FF90E4
S11352D008951F93CF93DF93182F66E270E054DD97
S11352E0C82FD0E0DC2FCC2767E270E0812F4CDDA3
S11352F09E01280F311DC901DF91CF911F9108959F
S1135300FF920F931F93CF93DF93F62EC0E0D0E06C
S11353108F2DDFDF8C01892B19F08F2DDADFEC0163
S1135320C017D107A9F7CE01DF91CF911F910F913B
S1135330FF900895AF92BF92DF92EF92FF920F9386
S11353401F93CF93DF93D62E7A01590164E270E064
S11353508D2D1ADDC82F65E270E08D2D15DDD0E0AE
S1135360DC2FCC27E80EF11CCE0DDF1D6D2D6295D0
S1135370660F607E6C5E9801A501CE0105DFC00F4B
S1135380D11F4D2F64E270E08D2D09DD4C2F65E2B5
S113539070E08D2DDF91CF911F910F91FF90EF90D1
S11353A0DF90BF90AF90FBCC0F931F9389019A01BC
S11353B040E050E0BFDF1F910F910895DF92EF921C
S11353C0FF920F931F93CF93DF93D82FD92EC62F1D
S11353D07A0189018091DA0B9091DB0B81DEB2DED8
S11353E08D2D98DE8D2F96DE8C2F94DEE701E00E56
S11353F0F11ECE15DF0521F080E08CDE8993F9CF14
S1135400A3DE8FDEC801DF91CF911F910F91FF9032
S1135410EF90DF9008950F931F93CF93DF9300D005
S1135420CDB7DEB75A834983A901980189819A814E
S11354306295660F607E685E0F900F90DF91CF914A
S11354401F910F91BBCF8F929F92AF92BF92CF9239
S1135450DF92EF92FF920F931F93CF93DF936C0130
S1135460962E5A017901802E68E270E0892D8CDC39
S1135470082F69E270E0892D87DC10E0102F0027E7
S1135480E801C80FD11D87019501AE01692DC60140
S1135490C2DF811018C00C0F1D1F412F68E270E09D
S11354A0892D7DDC402F69E270E0892DDF91CF9159
S11354B01F910F91FF90EF90DF90CF90BF90AF902E
S11354C09F908F906CCCDF91CF911F910F91FF90A3
S11354D0EF90DF90CF90BF90AF909F908F90089502
S11354E0CF93C62F61E070E08C2F59DC61E070E04F
S11354F08C2F4ADC8111FACFCF910895EAEDFBE0BD
S113550080E5808381E081830895FC0112828FEF1E
S11355108183108213820895FC018381882331F0F2
S1135520611103C08FEF81830895118208958FE480
S11355309CE0F0D58FE49CE06ED691E0811190E080
S1135540892F0895CF93DF93EC016A838FE49CE065
S1135550CED56A81CE01EBDF8B83882321F08FE4E3
S11355609CE001D588838B8190E0DF91CF910895F1
S1135570CF93DF93FC012381222399F0EC018181F5
S113558080956823608362818FE49CE0C3D5688141
S11355908FE49CE06ED58FE49CE03DD6282F30E06C
S11355A002C020E030E081E090E0232B11F080E0A5
S11355B090E0DF91CF91089508950895DC01ED9175
S11355C0FC910684F785E02D41E0099581E090E0A7
S11355D00895FC01138212822BE939E03183208380
S11355E00895DC01ED91FC910484F585E02D6FEFC5
S11355F00994DC01ED91FC910484F585E02D60E0D3
S11356000994DC01ED91FC910684F785E02D40E0DE
S1135610099461E0F6DF80ED97E00C943236CF9385
S1135620DF93CDB7DEB728970FB6F894DEBF0FBE71
S1135630CDBFFC0180912F0290913002A0913102E4
S1135640B09132028D839E83AF83B88780913302F9
S113565090913402A0913502B091360289839A83E5
S1135660AB83BC838781481710F04FEF480F9085B8
S113567050E0DE01A40FB51F903129F4843019F4F1
S113568011969C9102C015969C91690F6068CF0198
S113569028960FB6F894DEBF0FBECDBFDF91CF9131
S11356A0B0CFFC0165816B7F65836860AACFFC0184
S11356B06581262F246025836C60A3CFCF93DF936D
S11356C0EC01423018F08C8188608C834F836887AA
S11356D0222329F0413019F48C8184608C8364E6A0
S11356E070E080E090E00E94F9356C8164FD31C087
S11356F0E881F9810684F785E02D42E063E0CE017C
S1135700099584E991E10E943236E881F9810684A1
S1135710F785E02D42E063E0CE01099586E990E04B
S11357200E943236E881F9810684F785E02D42E053
S113573063E0CE01099586E990E00E943236E88163
S1135740F9810684F785E02D42E062E0CE010995F7
S113575013C06062CE0155DF84E991E10E943236C4
S11357606C816062CE014DDF86E990E00E943236A2
S11357706C816062CE0145DF86E990E00E9432369A
S11357806C816062CE013DDF8CE390E00E94323692
S113579084E08D83CE018BDFCE013BDF82E08E83FC
S11357A066E0CE012EDFCE01DF91CF911ACFEF92CA
S11357B0FF920F931F93CF93DF938C017A0167704D
S11357C088E0689FB00111246064C8011ADF8EE18B
S11357D090E00E943236E701A8E0EA0EF11C6991DC
S11357E0D801ED91FC910190F081E02DC80109955B
S11357F088E290E00E943236CE15DF0581F7DF9112
S1135800CF911F910F91FF90EF90089521E001C077
S1135810220F6A95EAF7DC011B962C931B971996C5
S11358204C931997ED91FC910484F585E02D60E08B
S11358300994FC018385882389F09185911103C023
S1135840611105C006C0913021F4611102C0848742
S113585001C014866485CF010D968ACE08950F93F6
S11358601F93CF93DF938C01EC012D96FC0162858D
S1135870CE0168DE019759F461E0CE014DDEF801F6
S1135880148260E0CE0174DE81E090E002C080E02A
S113589090E0DF91CF911F910F9108958F92AF9275
S11358A0CF92EF920F93CF93DF93CDB7DEB7FC0186
S11358B0628713861486118681E0982F01C0990FA0
S11358C04A95EAF7918B982F01C0990F2A95EAF728
S11358D0928B982F01C0990F0A95EAF7938B982F12
S11358E001C0990FEA94EAF7948B982F01C0990F9D
S11358F0CA94EAF7958B982F01C0990FAA94EAF7F6
S1135900968B01C0880F8A94EAF7878BDF91CF9139
S11359100F91EF90CF90AF908F9008956F927F92F8
S11359208F929F92AF92BF92CF92DF92EF92FF92AB
S11359300F931F93CF93DF93CDB7DEB73C01D62EE1
S1135940B42E922E1989FA8844DE8FEA99E0F30185
S113595091838083C3010D96D8DD292D4B2D6D2DA8
S1135960C3019CDF4F2D612FC301DF91CF911F91A4
S11359700F91FF90EF90DF90CF90BF90AF909F90EA
S11359808F907F906F9042CFEF92FF920F931F936F
S1135990CF938C01C62F7C018DE0E80EF11CF80139
S11359A061896C2BC701E4DDF801618960956C2382
S11359B0C701CF911F910F91FF90EF90D9CDFC01BA
S11359C0962FDF0184E060E090FF04C054962C9190
S11359D05497622B9695815011968111F5CF4130E1
S11359E009F443899485692B642BCF01CDCF0F93A0
S11359F01F93CF93DF93062F0F70423019F440E0CA
S1135A00602F0DC0142FEC0170E084E0759567954C
S1135A108A95E1F7CE01D3DF412F602FCE01DF91CC
S1135A20CF911F910F91CBCFFF920F931F93CF93E1
S1135A30DF93EC01162F042FF22E11DF2F2D402FB0
S1135A40612FCE01DF91CF911F910F91FF9036CE40
S1135A50CF93CFB7F8948091E00B811127C0ECE786
S1135A60F2E08491ECE5F2E09491E82FF0E0EE0F9F
S1135A70FF1FEA55FD4FA591B491EC91E92321F460
S1135A8061E08AE00E94DD3661E08AE00E94A1368E
S1135A908CB580618CBD8CB580648CBD61E08DE07B
S1135AA00E94A13661E08BE00E94A1368091E00B58
S1135AB08F5F8093E00BCFBFCF91089510924E0C6F
S1135AC081E080934C0C10924B0C61E08DE10E94BC
S1135AD0DD3661E08CE10E94DD36E9EBF0E08081A7
S1135AE08E7F808380818D7F808388E48093B8005B
S1135AF085E48093BC000895ECEBF0E080818A7B20
S1135B00808360E08DE10E94DD3660E08CE10C94DE
S1135B10DD369B01AC0160E074E284EF90E00E940A
S1135B20AD3ADA01C9014097A109B109B695A79523
S1135B30979587958093B8000895413208F043C043
S1135B4090914E0C9111FCCF91E090934E0C2093C8
S1135B504C0C2FEF2093E10B1092260C240F209372
S1135B60250C90934D0C90914D0C880F892B8093AC
S1135B704D0C80914B0C813061F410924B0C809150
S1135B804D0C8093BB008091BC0083FDF8CF85EC65
S1135B9001C085EE8093BC0080914E0C8130E1F30E
S1135BA08091260C841710F44091260CA7E2BCE0E7
S1135BB0962FFB018E2F891B841718F48D918193E6
S1135BC0F9CF842F089580E008950F93413208F0AF
S1135BD04AC090914E0C9111FCCF32E030934E0CA0
S1135BE000934C0C3FEF3093E10B1092260C409342
S1135BF0250C562FA7E2BCE0FB013E2F351B3417C2
S1135C0018F431913D93F9CF10924D0C30914D0C15
S1135C10880F832B80934D0C80914B0C813061F461
S1135C2010924B0C80914D0C8093BB008091BC0072
S1135C3083FDF8CF85EC01C085EE8093BC00222360
S1135C4021F080914E0C8230D1F38091E10B8F3F93
S1135C5079F08091E10B803241F08091E10B803347
S1135C6031F094E005C091E003C092E001C093E0FC
S1135C70892F0F9108954091030C262F30E0240FB3
S1135C80311D21323105DCF420914E0C2430C9F44D
S1135C90FC0180E090E0861758F43091030C2191C8
S1135CA0DC01AB5FB34FA30FB11D2C930196F3CF6F
S1135CB08091030C680F6093030C80E0089581E0E9
S1135CC0089582E008959093480C8093470C0895BA
S1135CD090934A0C8093490C089585ED8093BC0001
S1135CE08091BC0084FDFCCF10924E0C089585EC8D
