:1000000063C100008BC1000089C1000087C10000EE
:100010000C94491983C1000081C100000C94A819F7
:100020007DC100007BC1000079C1000077C10000E4
:1000300075C1000073C1000071C100006FC10000F4
:100040000C940A3A6BC100000C94F8370C942A38CF
:1000500065C1000063C1000061C100005FC1000014
:100060005DC100005BC100000C94453457C1000025
:1000700055C1000053C1000051C100004FC1000034
:100080004DC100004BC1000049C10000420FC80F24
:10009000EF0F2D101C11A8119E12FE128E13F513D6
:1000A000D3144B157B16DC22F322F322F022F32229
:1000B000DA22F322F322F322CE22F322F322E322E6
:1000C000EE22EC22F322F322F322EA2200407A10FD
:1000D000F35A00A0724E18090010A5D4E80000E8F9
:1000E0007648170000E40B54020000CA9A3B000057
:1000F00000E1F505000080969800000040420F00E6
:100100000000A08601000000102700000000E803A6
:10011000000000006400000000000A000000000071
:100120000100000000002C76D888DC674F0823DF30
:10013000C1DFAE59E1B1B796E5E3E453C63AE65103
:10014000997696E8E6C28426EB898C9B62ED407C2A
:100150006FFCEFBC9C9F40F2BAA56FA5F490055AC6
:100160002AF75C936B6CF9676DC11BFCE0E40D47EB
:10017000FEF520E6B500D0ED902E0300943577050E
:100180000080841E080000204E0A000000C80C33C6
:100190003333330F986E12831141EF8D2114893B55
:1001A000E65516CFFEE6DB18D1844B381BF77C1DD5
:1001B000901DA4BBE424203284725E228100C9F128
:1001C00024ECA1E53D275254432063686970204424
:1001D00053333233314D20696E697469616C697AC9
:1001E00065642E006E6F6E2074726F766F206D6F77
:1001F00064756C6F20525443204453333233314D75
:100200004D2E20526970726F766F207472612033A8
:10021000732E004A756E2031322032303231003177
:10022000303A30333A3038001F1C1F1E1F1E1F1F6C
:100230001E1F1E1F0000000004030807000002002C
:10024000090A00000000000000000000000000009B
:10025000000000010102040810204080010210206B
:1002600040801020408010082004408001020408D3
:100270000102040804040404040404040202020247
:100280000202010101010303030303030101010150
:1002900003030202000000002300260029000000E2
:1002A0000000250028002B0000000000240027008B
:1002B0002A00271A6225BA25B228992AA42A762C60
:1002C0004630D5365838451B11241FBECFEFD0E439
:1002D000DEBFCDBF1AE0A0E0B1E0E6EDFBE800E054
:1002E0000BBF02C007900D92A239B107D9F72DE0DC
:1002F000A2E9BAE001C01D92A83DB207E1F711E002
:10030000C3E6D1E004C02197FE010E943E40C935FA
:10031000D107C9F70E94E4380C94DF4571CE80E024
:1003200090E00895089544980895449A0895EF92AE
:10033000FF920F931F93CF93DF93CDB7DEB76897EC
:100340000FB6F894DEBF0FBECDBF82E79AE09A8366
:1003500089834091DB0A5091DC0A6091DD0A70913B
:10036000DE0A4B835C836D837E8398878F83409105
:10037000E10A5091E20A6091E30A7091E40A498728
:100380005A876B877C879E878D874091E70A5091BB
:10039000E80A6091E90A7091EA0A4F87588B698BE5
:1003A0007A8B9C8B8B8B8091ED0A9091EE0AA091B9
:1003B000EF0AB091F00A8D8B9E8BAF8BB88FCE0178
:1003C00001967C018E01095F1F4F9E01235F3F4F05
:1003D000AE014D5E5F4F62E371E08BE29CE00E94F4
:1003E0006C2868960FB6F894DEBF0FBECDBFDF91C4
:1003F000CF911F910F91FF90EF9008951816190655
:1004000044F4EFE9FFE03197F1F700C000000197F5
:10041000F5CF0895CF938EE29DE00E946939CDE734
:100420006CEE71E08EE29DE00E946139C150C1F72F
:100430008EE29DE0CF910C946939CF93DF93D82F52
:10044000C0E0CD1741F06EEE71E08EE29DE00E94BB
:100450006139CF5FF6CFDF91CF910895CF93C82F49
:1004600081E0EBDF60EF71E08EE29DE00E94613998
:10047000CC2319F064EF71E002C069EF71E08EE205
:100480009DE00E94613981E0CF91D7CF0F931F93F8
:10049000CF93DF93EC018B0162EF71E08EE29DE080
:1004A0000E948C3962EF71E08EE29DE00E948C39EF
:1004B00063E272E08EE29DE00E948C39C017D107A2
:1004C00034F460E0CE010E94D1452196F7CF60E47C
:1004D00072E08EE29DE00E948C3962EF71E08EE264
:1004E0009DE00E948C3962EF71E08EE29DE0DF9129
:1004F000CF911F910F910C948C39CF92DF92EF9294
:10050000FF920F931F93CF93DF936A017B01C0E0AB
:10051000D0E0082F10E0C017D10724F4C6016EDF29
:100520002196F9CFDF91CF911F910F91FF90EF901E
:10053000DF90CF9008958232910509F49AC06CF54E
:100540008A30910509F483C0A4F48630910509F43A
:1005500075C08930910509F45DC0059709F0CFC0D9
:10056000609106018EE29DE00E94623920E030E059
:1005700059C08231910509F473C08132910509F4A3
:1005800054C0419709F0BBC0609108018EE29DE024
:100590000E94623922E030E045C08036910509F4BE
:1005A00099C0ACF48834910509F482C08035910576
:1005B00009F487C08434910509F0A1C0609112014B
:1005C0008EE29DE00E94623920E030E08BC08838E6
:1005D000910509F459C06CF48438910509F08FC075
:1005E00060910E018EE29DE00E94623920E030E0D1
:1005F0005CC08039910509F450C0803A910509F03A
:100600007EC0609111018EE29DE00E94623923E07C
:1006100030E04BC0609107018EE29DE00E9462399C
:1006200021E030E080E090E05FC0609109018EE25F
:100630009DE00E94623923E030E0F4CF60910A012E
:100640008EE29DE00E94623920E030E01AC06091A5
:100650000B018EE29DE00E94623921E030E011C082
:1006600060910C018EE29DE00E94623922E030E050
:1006700008C060910D018EE29DE00E94623923E086
:1006800030E081E090E030C060910F018EE29DE0AB
:100690000E94623921E030E008C0609110018EE2D2
:1006A0009DE00E94623922E030E082E090E01CC0D0
:1006B000609113018EE29DE00E94623921E030E0FA
:1006C00011C0609114018EE29DE00E94623922E027
:1006D00030E008C0609115018EE29DE00E94623911
:1006E00023E030E083E090E0880F991F880F991F86
:1006F0008A5F9E4FFC01E20FF31F808108958EE414
:100700000895CF93DF93EC0187E69BE00E94D13000
:1007100061E087E69BE00E94623941E060E087E6A5
:100720009BE00E94D730BE016A5F7F4F87E69BE067
:100730000E94533942E060E087E69BE00E94D73098
:10074000BE01645F7F4F87E69BE00E94533943E020
:1007500060E087E69BE00E94D730BE016E5E7F4F6F
:1007600087E69BE0DF91CF910C945339CF92DF92D3
:10077000EF92FF926B017C0187E69BE00E94D130F3
:100780006091420B7091430B4AE050E081EF9AE098
:10079000B8DFC092A70AD092A80AE092A90AF09204
:1007A000AA0A8FE19EE40197F1F700C0000081EAF8
:1007B0009AE00E9464236093AB0A7093AC0A809322
:1007C000AD0A9093AE0A8FE19EE40197F1F700C065
:1007D00000008091420B9091430B01969093430B44
:1007E0008093420BFF90EF90DF90CF9008958F920F
:1007F0009F92AF92BF92CF92DF92EF920F931F938F
:10080000CF93DF93CDB7DEB7A2970FB6F894DEBFD4
:100810000FBECDBF5C014B016FEE71E0CE014D9676
:100820000E94273C08EC10E027E83BE040E85BE052
:1008300060E080E59BE00E94D7208093880B8823AE
:1008400009F4A3C08091870B843009F098C086E03A
:10085000EDE6F1E0DE01579601900D928A95E1F701
:10086000CE0147966C01E12C04E010E020E030E07E
:1008700044E060E87BE080E59BE00E942B218093D0
:10088000880B882309F46BC080E1F401DE01119626
:1008900001900D928A95E1F7AE014F5F5F4F64E0E2
:1008A00080E59BE00E94BE218093880B9FEF21EEA4
:1008B00084E0915020408040E1F700C00000AE018C
:1008C0004F5F5F4F64E080E59BE00E948B21809347
:1008D000880B61E572E08EE29DE00E948C39BE01DA
:1008E0006F5F7F4FCE0141960E94273C8091880B1D
:1008F000882301F1BE016F5E7F4F8EE29DE00E9472
:100900007C398D899E89069759F4BE016F5E7F4FB1
:10091000C5010E94763CCE0141960E94C03B3BC07F
:100920009FEF21EE84E0915020408040E1F700C02D
:10093000000010C087E69BE00E94D13041E060E0FB
:1009400087E69BE00E94D7306FE572E087E69BE088
:100950000E946139CE0141960E94C03B10C087E6DB
:100960009BE00E94D13041E060E087E69BE00E947E
:10097000D73069E672E087E69BE00E9461396FEE4E
:1009800071E08EE29DE00E948C39BE01635E7F4F74
:10099000C5010E94763CCE014D960E94C03BC50128
:1009A000A2960FB6F894DEBF0FBECDBFDF91CF91F8
:1009B0001F910F91EF90DF90CF90BF90AF909F90DD
:1009C0008F900895AF92BF92CF92DF92EF920F93E4
:1009D0001F93CF93DF93CDB7DEB7A2970FB6F894EE
:1009E000DEBF0FBECDBF5C016FEE71E0CE014D9654
:1009F0000E94273C08EC10E027E83BE040E85BE081
:100A000060E080E59BE00E94D7208093880B8823DC
:100A100009F488C04EE150E060E070E082E06DDDF6
:100A20008091870B843009F077C086E0EDE6F1E035
:100A3000DE01579601900D928A95E1F7CE01479617
:100A40006C01E12C04E010E020E030E044E060E8DC
:100A50007BE080E59BE00E942B218093880B88231C
:100A600009F44AC0AE014F5F5F4F64E080E59BE050
:100A70000E948B218093880B882389F161E572E0C5
:100A80008EE29DE00E948C39BE016F5F7F4FCE01E8
:100A900041960E94273CBE016F5E7F4F8EE29DE033
:100AA0000E947C398D899E89069759F4BE016F5E3C
:100AB0007F4FC5010E94763CCE0141960E94C03B0B
:100AC00037C09FEF21EE84E0915020408040E1F755
:100AD00000C00000CE0141960E94C03B1DC087E6C9
:100AE0009BE00E94D13041E060E087E69BE00E94FD
:100AF000D73061E772E00CC087E69BE00E94D130FE
:100B000041E060E087E69BE00E94D7306EE772E04C
:100B100087E69BE00E9461396FEE71E08EE29DE016
:100B20000E948C39BE01635E7F4FC5010E94763CF6
:100B3000CE014D960E94C03BC501A2960FB6F89417
:100B4000DEBF0FBECDBFDF91CF911F910F91EF9010
:100B5000DF90CF90BF90AF900895CF92DF92EF9249
:100B6000FF920F931F93CF93DF93CDB7DEB76497B8
:100B70000FB6F894DEBF0FBECDBF7C01CE0101964B
:100B80006C0187E0F60111928A95E9F769E872E055
:100B9000C7010E94273C08EE13E09E012C5E3F4FE8
:100BA000A60160E080E59BE00E94D720882359F1F0
:100BB0000C8910E020E030E0A60160E57BE0CE018A
:100BC0000E960E94CD1ECE010E960E94BF3E28E0DA
:100BD00030E040E050E0BE01625F7F4FCE010896FA
:100BE0000E947C3EBE01685F7F4FC7010E949B3C14
:100BF000CE0108960E94C03B81E080937F0BCE011E
:100C00000E960E94C03BC70164960FB6F894DEBFF3
:100C10000FBECDBFDF91CF911F910F91FF90EF904D
:100C2000DF90CF900895EF92FF920F931F93CF9391
:100C3000DF93CDB7DEB762970FB6F894DEBF0FBE75
:100C4000CDBF8C017B0160E972E0CE010D960E9460
:100C5000273CE0DB68E972E08EE29DE00E948C397F
:100C60002091550130915601F70184819581281713
:100C7000390749F5A90143505109B701CE0107963B
:100C80000E947C3E60EB72E0CE0101960E94273C00
:100C9000BE01695F7F4FCE0101960E94FC3DBC0101
:100CA0008EE29DE00E947C39CE0101960E94C03BFD
:100CB000BE01695F7F4FC8010E94763CCE01079656
:100CC0000E94C03B09C080E0C9DBA4DBBE01635FBA
:100CD0007F4FC8010E94763CCE010D960E94C03B1A
:100CE000C80162960FB6F894DEBF0FBECDBFDF918C
:100CF000CF911F910F91FF90EF900895AF92BF9207
:100D0000CF92DF92EF92FF920F931F93CF93DF93D7
:100D1000CDB7DEB762970FB6F894DEBF0FBECDBF7A
:100D20005C017B018A01690175DB81E086DB6AE990
:100D300074E08EE29DE00E946139A501B701C8010F
:100D40000E94FA28892B09F4C3C02FEF81EE94E0AA
:100D5000215080409040E1F700C0000067ED74E052
:100D6000CE0101960E94273CB601CE0101960E9459
:100D7000FC3D61E173E00E940D3EBC0184E49BE018
:100D80000E947E3CCE0101960E94C03BB701CE017D
:100D900001960E94273C64E075E0CE0107960E9410
:100DA000273CBE016F5F7F4FCE0107960E94FC3D3E
:100DB000BC0184E49BE00E94D63DCE0107960E94D0
:100DC000C03BCE0101960E94C03B6AE173E084E41F
:100DD0009BE00E94DC3D61E973E084E49BE00E94BB
:100DE000DC3D6AE173E084E49BE00E94DC3D6BE360
:100DF00074E084E49BE00E94DC3D6AE173E084E4FB
:100E00009BE00E94DC3D6BE075E084E49BE00E9487
:100E1000DC3D6AE173E084E49BE00E94DC3D6AE132
:100E200073E084E49BE00E94DC3D64E47BE08EE2BE
:100E30009DE00E947C3964E47BE0C8010E94533944
:100E40002FEF81EE94E0215080409040E1F700C008
:100E500000006AE574E0C8010E948C39C8010E9454
:100E600069398FE39CE90197F1F700C0000067E161
:100E700075E0CE010D960E94273CC8010E947129A1
:100E8000892B09F44CC020913D0B30913E0B809191
:100E90005501909156012817390708F040C0C80144
:100EA0000E947B29F82E69E37BE0CE0101960E9427
:100EB000933C6F2DCE0101960E94243EBC0189E334
:100EC0009BE00E947E3CCE0101960E94C03BD5CFA4
:100ED00087E69BE00E94D13041E060E087E69BE03E
:100EE0000E94D73069E175E087E69BE00E94613996
:100EF00043E060E087E69BE00E94D73068E275E05F
:100F000087E69BE00E9461399FEF23ED80E39150DB
:100F100020408040E1F700C0000080E038C069E375
:100F20007BE0CE0107960E94933CBE01695F7F4F34
:100F3000CE01019678DEBE016F5F7F4FCE010D9628
:100F40000E949B3CCE0101960E94C03BCE010796B9
:100F50000E94C03B9FEF27EE83E0915020408040ED
:100F6000E1F700C0000066E974E0CE010D960E9432
:100F7000303E882351F081E071DA4CDA11E0CE0185
:100F80000D960E94C03B812F02C010E0F8CF629600
:100F90000FB6F894DEBF0FBECDBFDF91CF911F918A
:100FA0000F91FF90EF90DF90CF90BF90AF9008959A
:100FB000AF92BF92CF92DF92EF92FF920F931F9367
:100FC000CF93DF93CDB7DEB762970FB6F894DEBF4D
:100FD0000FBECDBF5C016B018A0179011BDA81E094
:100FE0002CDA6BE375E08EE29DE00E946139A50189
:100FF000B601C8010E94FA28892B09F4E6C02FEF38
:1010000081EE94E0215080409040E1F700C0000064
:101010006BE775E084E49BE00E94A63CB601CE013C
:1010200001960E94273C64E075E0CE0107960E947D
:10103000273CBE016F5F7F4FCE0107960E94FC3DAB
:10104000BC0184E49BE00E94D63DCE0107960E943D
:10105000C03BCE0101960E94C03B6AE173E084E48C
:101060009BE00E94DC3D61E973E084E49BE00E9428
:10107000DC3D6AE173E084E49BE00E94DC3D6BE3CD
:1010800074E084E49BE00E94DC3D6AE173E084E468
:101090009BE00E94DC3D6BE075E084E49BE00E94F5
:1010A000DC3D6AE173E084E49BE00E94DC3DF701F3
:1010B000648175816B5E7F4F4AE0CE0101960E948C
:1010C000273D6DE975E0CE0107960E94273CBE01E1
:1010D0006F5F7F4FCE0107960E94FC3DBC0184E408
:1010E0009BE00E94D63DCE0107960E94C03BCE01F8
:1010F00001960E94C03B6AE173E084E49BE00E9499
:10110000DC3D6AE173E084E49BE00E94DC3DB701D2
:1011100084E49BE00E94D63D6AE173E084E49BE0B6
:101120000E94DC3D64E47BE08EE29DE00E947C391D
:1011300064E47BE0C8010E945339FFEF21EE84E0B4
:10114000F15020408040E1F700C000006AE574E003
:10115000C8010E948C39C8010E946939EFE3FCE99B
:101160003197F1F700C0000067E175E0CE010D9600
:101170000E94273CC8010E947129892B09F44CC0A8
:1011800020913D0B30913E0B80915501909156017D
:101190002817390708F040C0C8010E947B29F82EA3
:1011A00069E37BE0CE0101960E94933C6F2DCE0156
:1011B00001960E94243EBC0189E39BE00E947E3C94
:1011C000CE0101960E94C03BD5CF87E69BE00E94EE
:1011D000D13041E060E087E69BE00E94D7306CE6CA
:1011E00074E087E69BE00E94613943E060E087E6B7
:1011F0009BE00E94D73061E874E087E69BE00E94A4
:101200006139FFEF23ED80E3F15020408040E1F7AA
:1012100000C0000080E038C069E37BE0CE010796A3
:101220000E94933CBE01695F7F4FCE010196FBDCBB
:10123000BE016F5F7F4FCE010D960E949B3CCE0199
:1012400001960E94C03BCE0107960E94C03B9FEFD3
:10125000E7EEF3E09150E040F040E1F700C000001D
:1012600066E974E0CE010D960E94303E882351F06D
:1012700081E0F4D8CFD811E0CE010D960E94C03B9A
:10128000812F02C010E0F8CF62960FB6F894DEBF4F
:101290000FBECDBFDF91CF911F910F91FF90EF90C7
:1012A000DF90CF90BF90AF9008955798569888E000
:1012B0008093680080EC8093730078940895099877
:1012C0000A9808952FEF3FE097E221503040904078
:1012D000E1F700C0000091E090936800843419F4B5
:1012E0000D9880E202C00E9880E480936B007894A1
:1012F00008952FEF31EE94E0215030409040E1F717
:1013000000C0000091E090936800843411F40D98BF
:1013100001C00E9810926B00F8940895CF92DF925E
:10132000EF92FF92BC01990F880B990B0E944637F0
:101330006B017C0120E030E0A9010E94D83687FFD4
:1013400003C0C12CD12C76016091530170915401DE
:10135000072E000C880B990B0E9446379B01AC01AD
:10136000C701B6010E94DC36FF90EF90DF90CF906E
:1013700008953F9A8130910571F082309105E1F036
:10138000892B89F547982FEF30E742E02150304014
:101390004040E1F70EC028B101C0880F6A95EAF716
:1013A000822B88B98FEF90E722E081509040204057
:1013B000E1F700C00000089528B181E090E001C08D
:1013C000880F6A95EAF7982F9095922398B93FEF86
:1013D00045EA2EE0315040402040E1F700C00000D7
:1013E00098B1892B88B908950F9A81309105B9F089
:1013F0008230910529F1892BD1F522B181E090E06D
:1014000001C0880F6A95EAF78095822382B92FEF91
:1014100030E742E0215030404040E1F70EC022B1B9
:1014200001C0880F6A95EAF7822B82B98FEF90E7A7
:1014300022E0815090402040E1F700C00000089574
:1014400022B181E090E001C0880F6A95EAF7982FF9
:101450009095922392B93FEF45EA2EE031504040FB
:101460002040E1F700C0000092B1892B82B90895B5
:101470006FEE71E089E39BE00E94A63C1092410B65
:101480001092400B10927F0B67E175E089E89BE0BA
:101490000E94A63C67E175E08FE89BE00E94A63CB5
:1014A00061EB78E085E99BE00E94A63C10923F0B3F
:1014B00067E070E081E090E05CDF67E070E081E091
:1014C00090E092DF8FE19EE40197F1F700C0000009
:1014D0008FEB9AE00E94B9298FEB9AE00E94FE29D7
:1014E0008FE19EE40197F1F700C000008CEC9AE0D8
:1014F0000E94B9298CEC9AE00E94FE298FE19EE4BB
:101500000197F1F700C000002C988FE19EE401974D
:10151000F1F700C000002C9A8FE19EE40197F1F7EB
:1015200000C000000E9495018FE19EE40197F1F751
:1015300000C000000E94930182B182B982B182B9D9
:101540006FEE71E087EF9AE00E94A63C6FEE71E0CB
:101550008DEF9AE00E94A63C6FEE71E08DEF9AE06D
:101560000E94A63C87E69BE00E94C13087E69BE094
:101570000E9419311092AF0A1092B00A1092B10A6B
:101580001092B20A1092AB0A1092AC0A1092AD0AF5
:101590001092AE0A0E940A026EEA75E08EE29DE0A9
:1015A0000E948C390E940A026FEE71E08BE99AE08A
:1015B0000E94A63C8FEF9FEF9093430B8093420BCA
:1015C0000895CF93DF93CDB7DEB762970FB6F89447
:1015D000DEBF0FBECDBF813421F1D8F4833209F4D0
:1015E000A4C08A3209F0D1C06FEE71E08BE99AE0B5
:1015F0000E94A63C63EC75E087EF9AE00E94A63C4F
:101600006FEE71E08DEF9AE00E94A63C6FEE71E004
:10161000ADC0833409F46BC0A0F08E3409F4F7C078
:10162000B4C080919F0A9091A00A059709F0EFC07D
:101630006BE97AE0CE0101960E94933C6FEB75E076
:101640000FC080919F0A9091A00A059709F0DFC012
:101650006BE97AE0CE0101960E94933C61EC75E063
:10166000CE0101960E940D3EBC01CE0107960E945C
:10167000933CCE0101960E94C03B20E030E047E061
:1016800050E0BE01635F7F4FCE0107960E944E3E41
:10169000BE01635F7F4FCE010196A9D88FE39CE91D
:1016A0000197F1F700C000004AE050E060E070E010
:1016B00081E00E947D028FE39CE90197F1F700C071
:1016C00000004AE050E060E070E081E00E947D02AE
:1016D0008FE39CE90197F1F700C00000CE0101966D
:1016E0000E94C03BCE0107960E94C03B90C0209153
:1016F0009F0A3091A00A2115310509F488C02150B4
:10170000310940E050E06BE97AE0CE0101960E9499
:101710007C3EBE016F5F7F4F8BE99AE00E949B3C4D
:10172000CE0101960E94C03B47C080919F0A9091D4
:10173000A00A059709F06BC06BE97AE08FE89BE09F
:101740000E947E3C6FE87BE08BE19BE00E947E3C48
:1017500064E076E087EF9AE00E94A63C68E176E0DC
:101760008DEF9AE00E94A63C67E276E083E09BE082
:101770000E94A63C60912201709123018091240176
:10178000909125010E94B60342C0682FCE010196B8
:101790000E94BB3CBE016F5F7F4F8BE99AE00E94C5
:1017A000D63DCE0101960E94C03B4AE050E060E089
:1017B00070E081E00E947D0266ED75E087EF9AE0BF
:1017C0000E94A63C68EE75E0CE0101960E94273C7F
:1017D0006BE97AE0CE0101960E94FC3DBC018DEFE1
:1017E0009AE00E947E3CCE0101960E94C03B6FEEC3
:1017F00075E083E09BE00E94A63C6091420B7091F3
:10180000430B4AE050E081EF9AE00E948103629628
:101810000FB6F894DEBF0FBECDBFDF91CF91089514
:10182000CF93DF9300D000D000D0CDB7DEB78334A4
:1018300060F4813408F0C6C08A3209F4C3C08E3225
:1018400009F4C0C0833229F17BC0833421F08E3487
:1018500009F076C0B7C02091990A30919A0A2115F3
:10186000310509F484C02150310940E050E065E9B8
:101870007AE0CE0101960E947C3EBE016F5F7F4FF1
:1018800085E99AE00E949B3CCE0101960E94C03BF4
:101890006EC08091990A90919A0A049709F092C0BB
:1018A0006FEB75E089E89BE00E94303E882341F0B1
:1018B00067E070E080E090E05CDD6FE176E00FC013
:1018C00061EC75E089E89BE00E94303E882359F086
:1018D00067E070E080E090E087DD6EE276E083E034
:1018E0009BE00E94A63C65E97AE085E99BE00E94C6
:1018F0007E3C65E97BE08DE29BE00E947E3C66E5F4
:1019000076E087EF9AE00E94A63C6FEE71E08DEFE3
:101910009AE00E94A63C0E9495018FE39FE1019707
:10192000F1F700C000000E94930160911E017091C8
:101930001F0180912001909121010E94B60342C0B5
:10194000682FCE0101960E94BB3CBE016F5F7F4FA6
:1019500085E99AE00E94D63DCE0101960E94C03BE7
:101960004AE050E060E070E081E00E947D0266E3C2
:1019700076E087EF9AE00E94A63C67E476E0CE012D
:1019800001960E94273C65E97AE0CE0101960E940B
:10199000FC3DBC018DEF9AE00E947E3CCE01019699
:1019A0000E94C03B6BE476E083E09BE00E94A63C93
:1019B0006091420B7091430B4AE050E081EF9AE056
:1019C0000E94810326960FB6F894DEBF0FBECDBFEE
:1019D000DF91CF9108954F925F926F927F928F9295
:1019E0009F92AF92BF92CF92DF92EF92FF920F93AE
:1019F0001F93CF93DF9300D000D000D0CDB7DEB7D8
:101A00007C015B014DB65EB66AE777E00E94273C39
:101A1000F501C284D3848DB79EB78C199D090FB68A
:101A2000F8949EBF0FBE8DBFEDB7FEB731964F0144
:101A30003F01F50104851585C00ED11E0C151D054D
:101A40004CF4C8010E94C945F30181933F010F5F27
:101A50001F4FF4CF62EF71E08EE29DE00E948C395F
:101A600062EF71E08EE29DE00E948C39B401CE01FC
:101A700001960E94273CBE016F5F7F4FC7010E9405
:101A80009B3CCE0101960E94C03BB501CE01019660
:101A90000E94933C66E478E0CE0101960E940D3EE0
:101AA000BC018EE29DE00E945339CE0101960E9456
:101AB000C03BB7018EE29DE00E947C39C7010FB6A2
:101AC000F8945EBE0FBE4DBE26960FB6F894DEBFEC
:101AD0000FBECDBFDF91CF911F910F91FF90EF907F
:101AE000DF90CF90BF90AF909F908F907F906F903E
:101AF0005F904F9008954F925F926F927F928F9276
:101B00009F92AF92BF92CF92DF92EF92FF920F938C
:101B10001F93CF93DF93CDB7DEB72C970FB6F89412
:101B2000DEBF0FBECDBF7C016B012A016DB67EB654
:101B30006AE777E00E94273C8DB79EB78C199D0914
:101B40000FB6F8949EBF0FBE8DBFEDB7FEB73196AE
:101B50005F0162EF71E08EE29DE00E948C3966E6E3
:101B600076E08EE29DE00E948C3962EF71E08EE2B9
:101B70009DE00E948C3945018201C40CD51C0C15D6
:101B80001D055CF5C8010E94C945F40181934F0110
:101B9000882301F14AE0682FCE0107960E94D23CCB
:101BA00062EF71E0CE0101960E94273CBE01695FA1
:101BB0007F4FCE0101960E94FC3DBC018EE29DE06C
:101BC0000E945339CE0101960E94C03BCE01079678
:101BD0000E94C03B0F5F1F4FD2CF62EF71E08EE2D9
:101BE0009DE00E948C3962EF71E08EE29DE00E94E0
:101BF0008C39B501CE0101960E94273CBE016F5F72
:101C00007F4FC7010E949B3CCE0101960E94C03BC2
:101C100069E776E08EE29DE00E946139B7018EE2CD
:101C20009DE00E947C39C7010FB6F8947EBE0FBEBE
:101C30006DBE2C960FB6F894DEBF0FBECDBFDF9100
:101C4000CF911F910F91FF90EF90DF90CF90BF90B9
:101C5000AF909F908F907F906F905F904F9008957E
:101C60008F929F92AF92BF92CF92DF92EF92FF92AC
:101C70000F931F93CF93DF93CDB7DEB72C970FB69B
:101C8000F894DEBF0FBECDBF6B014A01ADB6BEB644
:101C90002DB73EB7261B370B0FB6F8943EBF0FBECD
:101CA0002DBFEDB7FEB731967F01FC014481558110
:101CB0004F5F5F4F20E030E0B7010E944E3E4AE0A8
:101CC000B601CE0107960E94FD3C6EEF71E0CE0199
:101CD00001960E94273CBE01695F7F4FCE010196AD
:101CE0000E94FC3DBC018EE29DE00E947C39CE0149
:101CF00001960E94C03BCE0107960E94C03B65E062
:101D000072E08EE29DE00E948C3962EF71E08EE21B
:101D10009DE00E948C398401C80CD91C0C151D054E
:101D20006CF5F7016081662319F1C8010E94D14565
:101D3000F7016081CE0107960E94BB3C62EF71E023
:101D4000CE0101960E94273CBE01695F7F4FCE0104
:101D500001960E94FC3DBC018EE29DE00E94533939
:101D6000CE0101960E94C03BCE0107960E94C03B67
:101D70000F5F1F4FFFEFEF1AFF0AD0CF62EF71E046
:101D80008EE29DE00E948C3981E00FB6F894BEBED1
:101D90000FBEADBE2C960FB6F894DEBF0FBECDBF02
:101DA000DF91CF911F910F91FF90EF90DF90CF9037
:101DB000BF90AF909F908F9008950F931F93CF93F4
:101DC000DF93EC018B010E94933CB8016A5F7F4F67
:101DD000CE0106960E94933CF801848595859D87E7
:101DE0008C87DF91CF911F910F910895CF93DF934F
:101DF000EC0106960E94C03BCE01DF91CF910C947E
:101E0000C03BFC01DB0112968D919C91139793834B
:101E1000828314964D915D916D917C9117974483C7
:101E200055836683778318964D915D916D917C9172
:101E30001B9740875187628773878EEE99E0918365
:101E400080831C968C9184870895CF92DF92EF92C5
:101E5000FF920F931F93CF93DF93CDB7DEB7AA976F
:101E60000FB6F894DEBF0FBECDBFE091420BF091EC
:101E7000430B3296ED30F10508F0F2C7EA5BFF4FF5
:101E80000C943E400E940A0260E976E08EE29DE0FA
:101E90000E9461396091D70B7091D80BCE010196E9
:101EA0008CDFBE016F5F7F4FCE01859694DDCE0142
:101EB00001969CDF49A55AA54F5F5F4F20E030E0B7
:101EC00068E371E0CE0185960E944E3E0E940A02B0
:101ED0006091D70B7091D80B625F7F4FCE01019656
:101EE0006CDFBE016F5F7F4FCE014F9674DDCE0178
:101EF00001967CDF0E940A026091D70B7091D80B8B
:101F0000645E7F4FCE01019658DFBE016F5F7F4F49
:101F1000CE01479660DDCE01019668DF0E940A027D
:101F20006091D70B7091D80B665D7F4FCE01019603
:101F300044DFBE016F5F7F4FCE010F964CDDCE01B7
:101F4000019654DF4B895C894F5F5F4F20E030E0A2
:101F50006AE471E0CE010F960E944E3E0E940A0292
:101F60008091420B9091430B01969093430B809389
:101F7000420BCE010F960E94C03BCE0147960E94B5
:101F8000C03BCE014F960E94C03BCE01859666C7EE
:101F90002FEF39EF80E0215030408040E1F700C062
:101FA000000083D99FEF29EF30E09150204030406E
:101FB000E1F700C0000083D98FEF99EF20E0815056
:101FC00090402040E1F700C000008091420B9091CA
:101FD000430B01969093430B8093420B41C787E6D6
:101FE0009BE00E94C13010927F0B0E9493018FE30F
:101FF0009CE90197F1F700C0000069EA76E087EFFD
:102000009AE00E94A63C6FEE71E08DEF9AE00E948C
:10201000A63C6DEB76E083E09BE00E94A63C6091DD
:10202000420B7091430B42E350E081EF9AE00E9433
:10203000810378949FEF23ED30E3915020403040AE
:10204000E1F700C0000060912E0170912F01809196
:102050003001909131010C9446196FEE71E08BE9DB
:102060009AE00E94A63C6FEE71E085E99AE00E943A
:10207000A63C69E872E0CE0147960E94273C809119
:102080007F0B81110FC0CE0101960E94AD05BE01EC
:102090006F5F7F4FCE0147960E949B3CCE01019619
:1020A0000E94C03B69E872E0CE0147960E94303E34
:1020B0008111BFC04499BDC06FEE71E08EE29DE01A
:1020C0000E948C396AEF77E08EE29DE00E946139D0
:1020D0006AE378E0CE0101960E94273CBE01695E6A
:1020E0007F4FCE0101960E94FC3DBC018EE29DE037
:1020F0000E947C39CE0101960E94C03B6AEF77E0D6
:102100008EE29DE00E94613969E478E08EE29DE014
:102110000E948C39BE01695E7F4F85E19BE00E9481
:102120007E3C87E69BE00E94B93087E69BE00E94F8
:102130001F318FE39CE90197F1F700C000006EE6C4
:1021400078E087EF9AE00E94A63C60E878E08DEFA7
:102150009AE00E94A63C63E978E083E09BE00E945D
:10216000A63C6091420B7091430B44E650E081EF36
:102170009AE00E9481030E9497019FEF23ED30E3D4
:10218000915020403040E1F700C0000066ED75E05E
:1021900087EF9AE00E94A63C68EE75E08DEF9AE02A
:1021A0000E94A63C6FEE75E083E09BE00E94A63C97
:1021B000BE01695E7F4FCE010F960E94933C6FEB8C
:1021C0007AE0CE0101961DDE9E01215F3F4FAE01F8
:1021D0004F5F5F4F68E371E080E590E00E947E060C
:1021E000182FCE010F960E94C03B112309F496C60A
:1021F000449A66EF77E083E39BE00E94A63C48ECBC
:1022000050E060E070E081E00E947D028FEF93EC8F
:1022100029E0815090402040E1F700C0000060912B
:102220002A0170912B0180912C0190912D010E9427
:10223000B603CE01479612C640E060E087E69BE019
:102240000E94D73061E087E69BE00E9462394091AE
:10225000AB0A5091AC0A6091AD0A7091AE0A8091C0
:10226000A70A9091A80AA091A90AB091AA0A480FBA
:10227000591F6A1F7B1F41505109610971098091E3
:10228000AF0A9091B00AA091B10AB091B20A481B6E
:10229000590B6A0B7B0B2AE0CE010F960E94513D31
:1022A0006EE277E0CE0101960E94273CBE01615F9D
:1022B0007F4FCE0101960E94FC3D6CE077E00E94CA
:1022C0000D3EBC0187E69BE00E945339CE0101968A
:1022D0000E94C03BCE010F960E94C03B6CE382E996
:1022E0009AE00E945A1E82E99AE00E94711EE82E2E
:1022F00042E0BE01695E7F4F90E00E94FB4263ECCA
:1023000082E99AE00E945A1E82E99AE00E94711EB8
:10231000F82E42E0BE01615F7F4F90E00E94FB42D9
:10232000FE24EF2CF12C42E0BE016F5F7F4FC7010E
:102330000E94FB42C7010E949B022FEF39EF90E001
:10234000215030409040E1F700C000003AD988C5E4
:1023500040E060E087E69BE00E94D73061E087E6DE
:102360009BE00E9462394091AB0A5091AC0A6091A7
:10237000AD0A7091AE0A8091A70A9091A80AA09127
:10238000A90AB091AA0A480F591F6A1F7B1F415022
:102390005109610971098091AF0A9091B00AA09129
:1023A000B10AB091B20A481B590B6A0B7B0B2AE0A9
:1023B000CE010F960E94513D6EE277E0CE0101966C
:1023C0000E94273CBE01615F7F4FCE0101960E94B3
:1023D000FC3D6CE077E00E940D3EBC0187E69BE08F
:1023E0000E945339CE0101960E94C03BCE010F9648
:1023F0000E94C03B80919F0A9091A00A0597E9F442
:1024000067E175E089E89BE00E94A63C6BE97AE011
:102410008FE89BE00E947E3C61EB78E085E99BE0E1
:102420000E94A63C10923F0B609122017091230103
:10243000809124019091250129C760E0CE010F967B
:102440000E94E2048FE39CE90197F1F700C00000CD
:10245000BE01615F7F4F8EE29DE00E947C392B8937
:102460003C8945E050E0BE01615F7F4FCE0101969F
:102470000E947C3EBE016F5F7F4F89E89BE00E9417
:102480009B3CCE0101960E94C03B25E030E040E03D
:1024900050E0BE01615F7F4FCE0101960E947C3EFD
:1024A000BE016F5F7F4F8FE89BE00E949B3CCE0197
:1024B00001960E94C03B61EB78E085E99BE00E94B9
:1024C000A63C62E177E0CE0101960E94273C69E8D4
:1024D0007BE0CE0101960E94FC3DBC018EE29DE0B6
:1024E0000E947C39CE0101960E94C03B64E277E0F5
:1024F000CE0101960E94273C6FE87BE0CE01019659
:102500000E94FC3DBC018EE29DE00E947C39CE0120
:1025100001960E94C03B61EC75E089E89BE00E9457
:10252000303E81112EC56FEB75E089E89BE00E947B
:10253000303E811126C5CE010F9690C440E060E088
:1025400087E69BE00E94D73061E087E69BE00E942F
:1025500062394091AB0A5091AC0A6091AD0A70911A
:10256000AE0A8091A70A9091A80AA091A90AB091F9
:10257000AA0A480F591F6A1F7B1F41505109610960
:1025800071098091AF0A9091B00AA091B10AB091FF
:10259000B20A481B590B6A0B7B0B2AE0CE010F963F
:1025A0000E94513D6EE277E0CE0101960E94273CE9
:1025B000BE01615F7F4FCE0101960E94FC3D6CE041
:1025C00077E00E940D3EBC0187E69BE00E945339F4
:1025D000CE0101960E94C03BCE010F960E94C03BE7
:1025E00061EC75E089E89BE00E94303E811100C5F6
:1025F00080913F0B823009F027C5FAC440E060E0CB
:1026000087E69BE00E94D73061E087E69BE00E946E
:1026100062394091AB0A5091AC0A6091AD0A709159
:10262000AE0A8091A70A9091A80AA091A90AB09138
:10263000AA0A480F591F6A1F7B1F4150510961099F
:1026400071098091AF0A9091B00AA091B10AB0913E
:10265000B20A481B590B6A0B7B0B2AE0CE010F967E
:102660000E94513D6EE277E0CE0101960E94273C28
:10267000BE01615F7F4FCE0101960E94FC3D6CE080
:1026800077E00E940D3EBC0187E69BE00E94533933
:10269000CE0101960E94C03BCE010F960E94C03B26
:1026A0006CE382E99AE00E945A1E82E99AE00E9455
:1026B000711EE82E42E0BE01695E7F4F90E00E94ED
:1026C000FB4263EC82E99AE00E945A1E82E99AE09A
:1026D0000E94711EF82E42E0BE01615F7F4F90E0C4
:1026E0000E94FB42FE24EF2CF12C42E0BE016F5F02
:1026F0007F4FC7010E94FB42C7010E949B029FEFD0
:1027000029EF30E0915020403040E1F700C0000058
:1027100087D81092410B1092400BA2C340E060E0BA
:1027200087E69BE00E94D73061E087E69BE00E944D
:1027300062394091AB0A5091AC0A6091AD0A709138
:10274000AE0A8091A70A9091A80AA091A90AB09117
:10275000AA0A480F591F6A1F7B1F4150510961097E
:1027600071098091AF0A9091B00AA091B10AB0911D
:10277000B20A481B590B6A0B7B0B2AE0CE010F965D
:102780000E94513D6EE277E0CE0101960E94273C07
:10279000BE01615F7F4FCE0101960E94FC3D6CE05F
:1027A00077E00E940D3EBC0187E69BE00E94533912
:1027B000CE0101960E94C03BCE010F960E94C03B05
:1027C000019B08C06FEB75E089E89BE00E94303EFA
:1027D00081117DC4199B44C361EC75E089E89BE0DD
:1027E0000E94303E8111B6C43BC340E060E087E602
:1027F0009BE00E94D73061E087E69BE00E9462394F
:102800004091AB0A5091AC0A6091AD0A7091AE0A4A
:102810008091A70A9091A80AA091A90AB091AA0A4A
:10282000480F591F6A1F7B1F4150510961097109E7
:102830008091AF0A9091B00AA091B10AB091B20A0A
:10284000481B590B6A0B7B0B2AE0CE010F960E94A6
:10285000513D6CE277E0CE0101960E94273CBE011B
:10286000615F7F4FCE0101960E94FC3D6CE077E0F6
:102870000E940D3EBC0187E69BE00E945339CE01C9
:1028800001960E94C03BCE010F960E94C03B8091F2
:10289000400B9091410B0E948E096B017C0122E05C
:1028A000AB01BC01CE010F960E947C3D66E377E050
:1028B000CE0101960E94273CBE01615F7F4FCE0191
:1028C00001960E94FC3DBC0187EF9AE00E947E3C8D
:1028D000CE0101960E94C03BCE010F960E94C03BE4
:1028E00068EE75E0CE0101960E94273C6FE87BE020
:1028F000CE0101960E94FC3DBC018DEF9AE00E9442
:102900007E3CCE0101960E94C03B6EE377E0CE0193
:1029100001960E94273C6AE47BE0CE0101960E946A
:10292000FC3DBC0183E09BE00E947E3CCE01019611
:102930000E94C03B41E060E087E69BE00E94D73008
:1029400067EF7AE087E69BE00E94533942E060E05F
:1029500087E69BE00E94D7306DEF7AE087E69BE048
:102960000E94533943E060E087E69BE00E94D73045
:1029700063E07BE087E69BE00E945339019908C041
:102980006FEB75E089E89BE00E94303E811123C423
:10299000199966C261EC75E089E89BE00E94303EBF
:1029A000811148C45DC26AE47BE087EF9AE00E942F
:1029B0007E3C6BE477E08DEF9AE00E94A63C6FEEE0
:1029C00071E083E09BE00E94A63C6091420B709115
:1029D000430B44E650E081EF9AE00E9481036FEEE2
:1029E00071E089E09BE00E94A63C05E11BE029E341
:1029F000E22E2BE0F22EB801CE0101960E94933C0C
:102A000069E577E0CE0101960E940D3EBC0189E0A8
:102A10009BE00E94D63DCE0101960E94C03B0A5F1A
:102A20001F4FE016F10639F76AE471E089E09BE098
:102A30000E94DC3D6BE577E0CE0101960E94273CC9
:102A400069E07BE0CE0101960E94FC3DBC018EE274
:102A50009DE00E947C39CE0101960E94C03B0E94FD
:102A600095018FE39FE10197F1F700C000000E94FC
:102A700093019FEF29E638E1915020403040E1F783
:102A800000C0000087E69BE00E94C1306EE170E06C
:102A900080E090E0FBC34499E3C14AE050E069E084
:102AA00070E081EF9AE00E9481036FEE71E089E0AF
:102AB0009BE00E94A63C05E11BE099E3E92E9BE028
:102AC000F92EB801CE0101960E94933C69E577E0AA
:102AD000CE0101960E940D3EBC0189E09BE00E9460
:102AE000D63DCE0101960E94C03B0A5F1F4FE01603
:102AF000F10639F76AE471E089E09BE00E94DC3D71
:102B00006BE577E0CE0101960E94273C69E07BE00F
:102B1000CE0101960E94FC3DBC018EE29DE00E9428
:102B20007C39CE0101960E94C03B8FEF93EC29E0E7
:102B3000815090402040E1F700C0000069E07BE058
:102B4000CE010F960E94933C6CEC7AE0CE01019688
:102B500058D99E01215F3F4FAE014F5F5F4F68E341
:102B600071E080E590E00E94D807182FCE010F9603
:102B70000E94C03B112351F10E9495013FEF83EC6D
:102B800099E0315080409040E1F700C0000066E6D7
:102B900077E08EE29DE00E948C396DE777E08EE26F
:102BA0009DE00E948C398FE39FE10197F1F700C00F
:102BB00000000E9493018FE39FE10197F1F700C0AD
:102BC00000006CE370E080E090E060C30E9495013B
:102BD0004BE054E064E070E0CE014F960E947B0D24
:102BE000CE014F960E94183F6B017C0100910D0BA6
:102BF00010910E0B69E07BE0CE0101960E94933CA0
:102C0000A601B801CE0101962BD8182FCE0101964E
:102C10000E94C03B112309F41DC14AE0B601CE0158
:102C20000F960E94FD3C6AEB77E0CE0101960E9470
:102C3000273CBE01615F7F4FCE0101960E94FC3DA3
:102C4000BC018EE29DE00E947C39CE0101960E947B
:102C5000C03BCE010F960E94C03B92E3C90ED11C2F
:102C600029EBC2162BE0D20624F080EDC82E87E0B7
:102C7000D82E4AE0B601CE0147960E94FD3C0B8D4E
:102C80001C8DBE01695E7F4FCE0101960E94933C70
:102C90004BE054E0B801CE0101960E94300E182F8F
:102CA000CE0101960E94C03B112301F14AE0B6011A
:102CB000CE010F960E94FD3C60ED77E0CE010196BB
:102CC0000E94273CBE01615F7F4FCE0101960E94AA
:102CD000FC3DBC018EE29DE00E947C39CE01019654
:102CE0000E94C03BCE010F960E94C03BCE0147968A
:102CF0000E94C03BAFC044E650E060E070E081E07D
:102D00000E947D023FEF81EE94E031508040904080
:102D1000E1F700C0000044E650E060E070E081E0D0
:102D20000E947D022FEF31EE84E021503040804040
:102D3000E1F700C0000044E650E060E070E081E0B0
:102D40000E947D029FEF21EE34E091502040304000
:102D5000E1F700C0000084E40E94790982E40E9447
:102D600079094BE054E064E070E0CE014F960E9498
:102D70007B0DCE014F960E94183F7B0100ED17E0BE
:102D80000E151F050CF04BC0A80162E370E0CE01E8
:102D900047960E947B0D64EE77E0CE0101960E947B
:102DA000273CBE01695E7F4FCE0101960E94FC3D2B
:102DB000BC018EE29DE00E947C39CE0101960E940A
:102DC000C03BBE01695E7F4FCE010F960E94933CCF
:102DD0006CEC7AE0CE01019614D89E01215F3F4F42
:102DE000AE014F5F5F4F68E371E080E590E00E94C5
:102DF000D807CE010F960E94C03B0E5C1F4F8FEF8D
:102E000093EC29E0815090402040E1F700C00000A1
:102E10000E940A02CE0147960E94C03BB1CF013DFD
:102E200037E01307BCF065EF77E0CE0101960E9412
:102E3000273C4BE054E064E070E0CE0101960E9434
:102E4000300ECE0101960E94C03BB80180ED97E0A4
:102E50000E9446020E94380ACE014F960E94C03B53
:102E600063EB7AE0CE0101960E94132486E0FE0116
:102E70003196A1EABAE001900D928A95E1F781EAD4
:102E80009AE00E9464236093AF0A7093B00A809323
:102E9000B10A9093B20A0091AB0A1091AC0A20914A
:102EA000AD0A3091AE0AC090A70AD090A80AE0906F
:102EB000A90AF090AA0A0C0D1D1D2E1D3F1D6801C8
:102EC0007901C61AD70AE80AF90AD701C60102979A
:102ED000A105B10598F48091420B9091430B07979F
:102EE00019F00E94380A0AC060911601709117010A
:102EF00080911801909119010E94B603A895AA9695
:102F00000FB6F894DEBF0FBECDBFDF91CF911F91FA
:102F10000F91FF90EF90DF90CF900895449A60ED6D
:102F200076E083E39BE00E94A63C87E69BE00E945C
:102F3000D13064ED76E087EF9AE00E94A63C68EE1F
:102F400076E08DEF9AE00E94A63C6AEF76E083E09F
:102F50009BE00E94A63C6091420B7091430B4AE0BB
:102F600050E081EF9AE00E9481033FEF83ED90E310
:102F7000315080409040E1F700C000000E94380AC4
:102F800058C96FE87BE08BE19BE00E947E3C69E8DA
:102F90007BE081E29BE00E947E3C64E277E0CE0130
:102FA00001960E94273C6FE87BE0CE0101960E94CB
:102FB000FC3DBC0183E09BE00E947E3CCE0101967B
:102FC0000E94C03B8FEF99E628E18150904020405D
:102FD000E1F700C0000010923F0B60912201709158
:102FE000230180912401909125010E94B603A3CA78
:102FF00061EC75E089E89BE00E94A63C6EE276E019
:103000008AE49BE00E94A63C69E87BE081E29BE0C9
:103010000E947E3C66E376E087EF9AE00E94A63C41
:1030200067E476E08DEF9AE00E94A63C6BE476E0E0
:1030300083E09BE00E94A63C3FEF81EE94E031509C
:1030400080409040E1F738C06FEB75E089E89BE085
:103050000E94303E811105C080913F0B813009F004
:10306000FFCE6FEB75E089E89BE00E94A63C6FE124
:1030700076E08AE49BE00E94A63C69E87BE081E27E
:103080009BE00E947E3C66E376E087EF9AE00E9438
:10309000A63C67E476E08DEF9AE00E94A63C6BE4E4
:1030A00076E083E09BE00E94A63C2FEF31EE84E0C7
:1030B000215030408040E1F700C0000060912601BF
:1030C000709127018091280190912901DFC0F89427
:1030D00066EA78E087EF9AE00E94A63C68EE75E029
:1030E000CE0101960E94273C6FE87BE0CE0101965D
:1030F0000E94FC3DBC018DEF9AE00E947E3CCE0117
:1031000001960E94C03B6EE377E0CE0101960E94DB
:10311000273C6AE47BE0CE0101960E94FC3DBC01A5
:1031200083E09BE00E947E3CCE0101960E94C03B62
:1031300084E40E9462091092410B1092400B60914E
:103140001A0170911B0180911C0190911D010E9438
:10315000B60340CBF89466EA78E087EF9AE00E94E5
:10316000A63C68EE75E0CE0101960E94273C6FE810
:103170007BE0CE0101960E94FC3DBC018DEF9AE000
:103180000E947E3CCE0101960E94C03B6EE377E038
:10319000CE0101960E94273C6AE47BE0CE010196B5
:1031A0000E94FC3DBC0183E09BE00E947E3CCE017E
:1031B00001960E94C03B82E40E9462091092410B7A
:1031C0001092400B60911A0170911B0180911C01BB
:1031D00090911D015BC022E0B701A601CE010196CE
:1031E0000E947C3DBE016F5F7F4F87E29BE00E94A3
:1031F0009B3CCE0101960E94C03B63EB78E08AE4E1
:103200009BE00E94A63C67E070E081E090E00E94B5
:10321000F40967E070E081E090E00E94B9096091F4
:1032200016017091170180911801909119010E9467
:10323000B603AECB22E0B701A601CE0101960E94F3
:103240007C3DBE016F5F7F4F87E29BE00E949B3C0D
:10325000CE0101960E94C03B63EB78E08AE49BE0DC
:103260000E94A63C67E070E081E090E00E94F409D3
:1032700067E070E081E090E00E94B909609116017A
:103280007091170180911801909119010E94B60365
:10329000E7CD1F920F920FB60F9211240BB60F922B
:1032A0002F933F934F935F936F937F938F939F934E
:1032B000AF93BF93EF93FF938091420B9091430B99
:1032C000079799F52091400B3091410B8091510166
:1032D000909152012817390740F5059B08C06FEB04
:1032E00075E089E89BE00E94303E811114C0069B86
:1032F0001CC061EC75E089E89BE00E94303E8823A9
:10330000A1F08091400B9091410B01969093410B5D
:103310008093400B0AC08091400B9091410B019625
:103320009093410B8093400BE2CFFF91EF91BF91BF
:10333000AF919F918F917F916F915F914F913F914D
:103340002F910F900BBE0F900FBE0F901F901895EE
:103350001F920F920FB60F9211248F939F9380911B
:10336000420B9091430B049709F06AC04E9B1CC01E
:1033700080919D0B90919E0B019690939E0B809354
:103380009D0B80919D0B90919E0B181619061CF5B4
:1033900010929E0B10929D0B10929C0B10929B0B07
:1033A00082E080933F0B17C080919B0B90919C0B08
:1033B000019690939C0B80939B0B80919B0B90911B
:1033C0009C0B029744F010929E0B10929D0B109252
:1033D0009C0B10929B0B4F9B1CC080919D0B90915E
:1033E0009E0B019690939E0B80939D0B80919D0B5D
:1033F00090919E0B181619061CF510929E0B1092B8
:103400009D0B10929C0B10929B0B81E080933F0BC5
:1034100017C080919B0B90919C0B019690939C0BF5
:1034200080939B0B80919B0B90919C0B029744F097
:1034300010929E0B10929D0B10929C0B10929B0B66
:103440009F918F910F900FBE0F901F9018958F92A4
:10345000AF92CF92EF920F93CF93DF9300E020E0F3
:1034600040E060E089ED9BE00E94CE3863E771E0C8
:103470008FE99BE00E94273C64E871E085EA9BE0CD
:103480000E94273CCFE9DBE088EE93E09D878C87A4
:1034900067E971E08DEA9BE00E94273C60EA71E0F9
:1034A00083EB9BE00E94273C8CEF93E09B8F8A8FFD
:1034B0006EEA71E08BEB9BE00E94273C69EC71E0C7
:1034C00081EC9BE00E94273C8BE094E099A788A7C1
:1034D0006FEC71E089EC9BE00E94273C6CED71E0A1
:1034E0008FEC9BE00E94273C80E194E09FAB8EAB89
:1034F0006FEE71E089E89BE00E94273C6FEE71E07F
:103500008FE89BE00E94273C6FEE71E085E99BE02D
:103510000E94273C1F9283E08F9387E0882E96E0DD
:10352000A92E25E0C22E34E0E32E21E042E067E23E
:1035300087E69BE00E94563243E064E080E59BE032
:10354000FAD363EC78E08AE49BE00E94273C6FEEBC
:1035500071E084E49BE00E94273C6FEE71E089E318
:103560009BE00E94273C6FEE71E085E19BE00E94AA
:10357000273C6FEE71E08BE19BE00E94273C6FEEF1
:1035800071E081E29BE00E94273C6FEE71E087E2F0
:103590009BE00E94273C6FEE71E08DE29BE00E9471
:1035A000273C6FEE71E083E39BE00E94273C6FEEC7
:1035B00071E08FE09BE00E94273C6FEE71E089E0B4
:1035C0009BE00E94273C67E175E081EF9AE00E9452
:1035D000273C67E175E087EF9AE00E94273C67E1AE
:1035E00075E08DEF9AE00E94273C67E175E083E08B
:1035F0009BE00E94273C02E320E048EA60EC8BEE6F
:103600009AE00E94CE3805E121E048EA60EC85EEC0
:103610009AE00E94CE3801E020E048EA60EC8FEDAD
:103620009AE00E94CE3800E020E04FEF6FEF89ED86
:103630009AE00E94CE388CEC9AE00E94BC298FEB75
:103640009AE00E94BC2983EB9AE00E94992340E013
:1036500050E0BA0181EA9AE000D76FEE71E08BE9A1
:103660009AE00E94273C6FEE71E085E99AE00E94A3
:10367000273C0F900F9082E99AE0DF91CF910F9154
:10368000EF90CF90AF908F90B6C2CF93DF9385E944
:103690009AE00E94C03B8BE99AE00E94C03B83EB1A
:1036A0009AE00E94A02383E09BE00E94C03B8DEF44
:1036B0009AE00E94C03B87EF9AE00E94C03B81EFF6
:1036C0009AE00E94C03B89E09BE00E94C03B8FE0F3
:1036D0009BE00E94C03BC9E3DBE02697CE010E943D
:1036E000C03B8BE0C531D807C1F789E39BE00E945E
:1036F000C03B84E49BE00E94C03B8AE49BE00E94C4
:10370000C03B85E99BE00E94C03B8FE89BE00E94A4
:10371000C03B89E89BE00E94C03B89EC9BE00E9493
:10372000F60E8BEB9BE00E94F60E8DEA9BE00E946A
:10373000F60E8FE99BE0DF91CF910C94F60ECF92BD
:10374000DF92EF92FF920F931F93CF93DF9300D0FE
:1037500000D000D0CDB7DEB799E288E10FB6F8947B
:10376000A895809360000FBE909360000C9A8FE341
:103770009CE90197F1F700C00000559A8FE39CE99E
:103780000197F1F700C000008FE39CE90197F1F782
:1037900000C00000239A8FE39CE90197F1F700C075
:1037A00000003C9A8FE39CE90197F1F700C000000C
:1037B000559A8FE39CE90197F1F700C00000209A29
:1037C0009FEF21EE84E0915020408040E1F700C05F
:1037D00000000E9495019FEF21EE84E0915020406F
:1037E0008040E1F700C000002C9A9FEF21EE84E0BA
:1037F000915020408040E1F700C00000289A9FEFE0
:1038000021EE84E0915020408040E1F700C00000AC
:103810002C9A9FEF21EE84E0915020408040E1F708
:1038200000C00000149A9FEF21EE84E091502040E8
:103830008040E1F700C000002B989FEF21EE84E06C
:10384000915020408040E1F700C000009FEF21EE42
:1038500084E0915020408040E1F700C000006CEC13
:1038600078E08EE29DE00E948C390E940A028FE986
:103870009BE09093D80B8093D70B0E940A0261EED5
:1038800078E08EE29DE00E9461394AE050E060E01D
:1038900070E18EE29DE00E94F53962EF71E08EE208
:1038A0009DE00E948C396CEF78E08EE29DE00E94F2
:1038B00061396FEE71E0CE0101960E94273C0E94B3
:1038C0000A023E9A3F9A0F9A8FE39CE90197F1F71B
:1038D00000C00000479A8FE39CE90197F1F700C010
:1038E0000000179A0E940A0220E044E064E187E6A3
:1038F0009BE00E94DC3287E69BE00E94B9309FEF9C
:1039000024E38CE0915020408040E1F700C00000AB
:1039100087E69BE00E94C1309FEF24E38CE091504A
:1039200020408040E1F700C0000087E69BE00E9455
:10393000B9309FEF24E38CE0915020408040E1F7C4
:1039400000C0000087E69BE00E94C1309FEF24E3A7
:103950008CE0915020408040E1F700C0000047E536
:1039600051E061E087E69BE00E949F319FEF29EFE5
:1039700080E0915020408040E1F700C0000087E6E1
:103980009BE00E94B93001EF1AE06FEE71E0C801D0
:103990000E94A63C0A5F1F4F9BE009301907A9F758
:1039A0000E940A0280E59BE0D7D12FEF80E792E0EA
:1039B000215080409040E1F700C0000080E59BE08E
:1039C00070D36B017C01672B682B692B69F565E16E
:1039D00079E08EE29DE00E94613987E69BE00E94DB
:1039E000B9302FEF84E39CE0215080409040E1F714
:1039F00000C0000087E69BE00E94D1306EE279E0D3
:103A000087E69BE00E9461392FEF87EA91E621501B
:103A100080409040E1F700C0000068E479E08AE46B
:103A20009BE00E94A63C06C06BE579E08EE29DE03B
:103A30000E948C3960E779E08EE29DE00E94613956
:103A40004F2D55276627772720E130E08EE29DE055
:103A50000E94FA396FE779E08EE29DE00E946139B9
:103A60004E2D50E060E070E02AE030E08EE29DE014
:103A70000E94E3396EE28EE29DE00E9462394D2D94
:103A800050E060E070E02AE030E08EE29DE00E94CD
:103A9000FA396FEF80E59BE07AD380E59BE049D36C
:103AA0000E940A0240EA56E861E070E083EB9AE087
:103AB0008AD6811110C064EE71E08EE29DE00E9412
:103AC0006C392FEF83ED90E3215080409040E1F777
:103AD00000C00000E7CF2FEF80E792E02150804048
:103AE0009040E1F700C0000066EC71E08EE29DE0DE
:103AF0000E946C3983EB9AE0C4D70E940A026EE8F8
:103B000079E08EE29DE00E948C3988ED9CE00E9475
:103B10003F3668E270E088ED9CE00E945C3660E031
:103B200088ED9CE00E94013660E588ED9CE00E94F3
:103B3000013688ED9CE00E94D3362FEF80E792E0BB
:103B4000215080409040E1F700C0000062E570E045
:103B500088ED9CE00E945C3660E088ED9CE00E946D
:103B6000013660E588ED9CE00E94013688ED9CE01E
:103B70000E94D33688ED9CE00E944E3662EC79E0DC
:103B80008EE29DE00E948C390E940A0260E282E986
:103B90009AE036D02CE340E063EC82E99AE036D03C
:103BA0008EEF9FEF9093430B8093420B63ED79E090
:103BB0008AE49BE00E94A63C6AE47BE08EE29DE002
:103BC0000E947C390E940A020E940A020E940A0294
:103BD000CE0101960E94C03B26960FB6F894DEBF38
:103BE0000FBECDBFDF91CF911F910F91FF90EF904E
:103BF000DF90CF900895FC01108211821282089507
:103C0000FC01608388ED9CE00C943F36FF920F939B
:103C10001F93CF93DF93EC01F62E042F122F6881B0
:103C200088ED9CE00E94523661E088ED9CE00E94A5
:103C300001366F2D88ED9CE00E94013688ED9CE0F6
:103C40000E94D336688188ED9CE00E94523662E083
:103C500088ED9CE00E940136602F88ED9CE00E9478
:103C6000013688ED9CE00E94D3368FE39CE90197F2
:103C7000F1F700C00000688188ED9CE00E94523698
:103C800063E088ED9CE00E940136612F88ED9CE0A6
:103C90000E94013688ED9CE00E94D3368FE39CE9B8
:103CA0000197F1F700C00000DF91CF911F910F91B4
:103CB000FF900895CF93C62FFC01608188ED9CE0B2
:103CC0000E94523663E088ED9CE00E9401366C2F22
:103CD00088ED9CE00E94013688ED9CE0CF910C9429
:103CE000D336CF93DF93EC01688188ED9CE00E948E
:103CF000523660E088ED9CE00E94013688ED9CE041
:103D00000E94D336688170E041E050E088ED9CE08D
:103D10000E94D136C0E088ED9CE00E947335892B6B
:103D200031F088ED9CE00E947B35C82FF4CF8C2FBA
:103D3000DF91CF910895CF93DF93EC01862F6C83B1
:103D40004D831D8A1E8A60E00E942D3B61E08D81BB
:103D5000DF91CF910C942D3BCF93DF93EC0188ED55
:103D60009CE00E943F3661E08D810E94693B60E0EB
:103D70008D810E94693B60E971E080E090E00E94E3
:103D8000853A61E08D810E94693B6AE070E080E0E5
:103D900090E0DF91CF910C94853A4F925F926F92B1
:103DA0007F928F929F92AF92BF92EF92FF920F936A
:103DB0001F93CF93DF93CDB7DEB72C970FB6F89450
:103DC000DEBF0FBECDBF7C015A01280139016FEE65
:103DD00071E00E94273C8501812C912C54018414B0
:103DE0009504A604B70409F446C0F80161918F0157
:103DF00040E1CE016031F0F401960E94D23CB7015F
:103E0000CE0107960E94933C61EB78E0CE010796C5
:103E10000E940D3EBE016F5F7F4F0E94FC3DBC01C2
:103E2000C7010E947E3CCE0107960E94C03BCE0196
:103E3000019619C007960E94D23CB701CE010196A7
:103E40000E94933CBE01695F7F4FCE0101960E94A4
:103E5000FC3DBC01C7010E947E3CCE0101960E9440
:103E6000C03BCE0107960E94C03BFFEF8F1A9F0A0E
:103E7000AF0ABF0AB4CF8EE29DE00E946939C70144
:103E80002C960FB6F894DEBF0FBECDBFDF91CF9159
:103E90001F910F91FF90EF90BF90AF909F908F90E8
:103EA0007F906F905F904F900895FC0184810E94F5
:103EB000973B91E0811190E0892F0895CF92DF9296
:103EC000EF92FF921F93CF93DF936C017B01C0E0D1
:103ED000D0E0C601EADF182F811115C0E114F1040A
:103EE00059F02A96EC16FD0638F461EE79E08EE280
:103EF0009DE00E948C3907C06AE070E080E090E0AD
:103F00000E94853AE6CF812FDF91CF911F91FF90DC
:103F1000EF90DF90CF900895FF920F931F93CF9370
:103F2000DF93F62E072F142F62E070E080E090E020
:103F30000E94853A42E0410F64E288ED9CE00E94D5
:103F4000CF3688ED9CE00E947B35CF2DD02FCE015F
:103F5000810F911D8C01C017D10761F061E070E005
:103F600080E090E00E94853A88ED9CE00E947B35DD
:103F70008993F1CFDF91CF911F910F91FF90089519
:103F8000CF93DF9300D000D000D0CDB7DEB746E0AE
:103F9000BE016F5F7F4FC0DF46E050E065E671E035
:103FA000CE0101960E94D44221E0892B09F020E045
:103FB000822F26960FB6F894DEBF0FBECDBFDF91DD
:103FC000CF910895682F88ED9CE00C940136CF9234
:103FD000DF92EF92FF920F931F93CF93DF937B01BA
:103FE000C1E0C40F62E070E080E090E00E94853A9A
:103FF00064E270E088ED9CE00E945C3680E0E2DFE5
:1040000080E0E0DF8FEFDEDF8C2FDCDF8C2F81950F
:10401000D9DF84EDD7DFC12C83EDD82ED0E02197F6
:104020000C2D10E00C171D0754F40E0D1F1DF80188
:104030008081C8DFF8018081D80EC394F1CF8D2D27
:104040008095C0DF80E0BEDF88ED9CE0DF91CF91FE
:104050001F910F91FF90EF90DF90CF900C94D3368B
:104060000F931F93CF93DF93EC018901B0DFB80169
:10407000CE0124DF811102C080E00EC0CE0180DFBE
:104080008823D1F39D89992339F0B801CE01DF91BE
:10409000CF911F910F9112CFDF91CF911F910F916F
:1040A0000895CF93DF93EC0182E08093DF0B28EE3D
:1040B00033E041E06FED7BE0CE01D2DF811104C03F
:1040C00060E070E0CB0132C04CE06FED7BE0CE01F0
:1040D00023DF46E050E06FE571E08FED9BE00E944A
:1040E000D442892B69F78D89811103C0E7E0F0E0A4
:1040F00002C0E6E0F0E0E152F44F6081862F90E0EC
:10410000A0E0B0E0BA2FA92F982F88272181822B19
:10411000BA2FA92F982F88272281822BBA2FA92F57
:10412000982F88272381BC01CD01622BDF91CF918D
:104130000895CF93DF93EC0194E19093DF0B81E03E
:104140008093E00B9093E10B8093E20B28EE33E039
:1041500044E06FED7BE0CE0183DF8823A9F048E0E7
:104160006FED7BE0CE01D8DE8D89811103C086E042
:1041700090E002C085E090E0FC01E152F44F81E064
:104180009081953109F080E0DF91CF910895EFEDB6
:10419000FBE022E3208325E021832FEF228321E02F
:1041A0002383648328EE33E045E0BF0159CFAF920B
:1041B000BF92CF92DF92EF92FF920F931F93CF9314
:1041C000DF93EC017A01590168018AE48093DF0BE7
:1041D00081E08093E00B6093E10B980143E06FED89
:1041E0007BE0CE013DDF182F882341F18D898823A4
:1041F00079F044E16FED7BE0CE018EDE8091E60B3D
:104200008130E1F48091EB0BF501808380E006C002
:10421000B601CE0153DE8111ECCF10C09091EB0BB3
:10422000891768F4282F30E0F901E152F44F9585A1
:10423000F701E20FF31F90838F5FF0CF10E0812F23
:10424000DF91CF911F910F91FF90EF90DF90CF9072
:10425000BF90AF900895AF92BF92CF92DF92EF924E
:104260000F931F93CF93DF93EC01142F5C018EE02B
:10427000A80EB11C86E0F601D50101900D928A9539
:10428000E1F750E0CE0106960E94BB421D8780E414
:104290008093DF0B81E08093E00BE11002C080E6A9
:1042A00001C081E68093E10B0093E20B86E0F5010B
:1042B000A3EEBBE001900D928A95E1F780E04D8579
:1042C000841760F4282F30E0FE01E20FF31F96817F
:1042D000F901E152F44F92878F5FF1CF465F28EEEC
:1042E00033E06FED7BE0CE01BBDE882349F04CE08C
:1042F0006FED7BE0CE0110DE81E09091E60B911135
:1043000080E0DF91CF911F910F91EF90DF90CF90E0
:10431000BF90AF9008950F931F93CF93DF93EC015D
:104320008A0180E48093DF0B81E08093E00B80E3DF
:104330008093E10B6093E20B28EE33E044E06FEDF5
:104340007BE0CE018DDE811102C080E012C04AE127
:104350006FED7BE0CE01E0DD8091E60B8111F5CFC2
:1043600080E1E7EEFBE0D80101900D928A95E1F73C
:1043700081E0DF91CF911F910F910895CF93DF934B
:10438000EC0180E48093DF0B81E08093E00B80EA16
:104390008093E10B6093E20B80E1FA01A3EEBBE0B6
:1043A00001900D928A95E1F728EE33E044E16FED3C
:1043B0007BE0CE0155DE882369F06AE070E080E0A2
:1043C00090E00E94853A4AE16FED7BE0CE01A4DDEA
:1043D00081E001C080E0DF91CF910895803D27E02A
:1043E000920710F0805D974050E0E8E2F2E021E0B3
:1043F000261730F43491430F511D2F5F3196F8CFBB
:10440000633038F09C0123703327232B11F44F5F66
:104410005F4FBC016D5F7F4F769567957695679589
:10442000EDE6F1E08E9F90018F9F300D9E9F300D45
:104430001124C9010197860F971F840F951F0895B6
:10444000FC01908190539A3008F090E08181805374
:104450002AE0929F800D112408958F929F92AF922F
:10446000BF92CF92DF92EF92FF92CF93DF93EC0156
:104470006A017B0180E8C81A83E4D80A8DE6E80A5D
:1044800088E3F80A8CE3882E912CA12CB12CC7016B
:10449000B601A50194010E941C406D83CA01B901B7
:1044A000A50194010E941C406C83C701B60120E164
:1044B0003EE040E050E00E941C40CA01B90128E102
:1044C00030E040E050E00E941C406B83C701B60121
:1044D00020E831E541E050E00E941C4018828881CC
:1044E000982F937041E050E011F040E050E0BA01A5
:1044F00063597E4F2617370738F0241B350B2D568E
:1045000031408F5F8883EBCF81E089838981E82FF9
:10451000F0E0E95DFD4FE491911103C0823009F4B0
:10452000EF5FF0E02E173F0720F02E1B3F0B8F5F51
:10453000ECCF2F5F2A83DF91CF91FF90EF90DF9038
:10454000CF90BF90AF909F908F900895EF92FF9281
:104550000F931F93CF93DF93CDB7DEB72B970FB693
:10456000F894DEBF0FBECDBF8C017A014BE050E066
:10457000CE0101960E94B242CE010A9661DFF80197
:104580008083E9818E2F90E0FC01E154F109E33151
:10459000F10548F5ED5AFF4F0C943E408A81813673
:1045A00029F08B818E3621F087E01BC081E019C095
:1045B00086E017C082E015C08B81823711F088E059
:1045C00010C084E00EC08B81823711F085E009C0F5
:1045D00083E007C089E005C08AE003C08BE001C02A
:1045E0008CE0F8018183CE0105962ADFF8018283F1
:1045F00048E050E0B701CE0101960E94B242CE01E0
:1046000001961EDFF8018383CE01049619DFF801BD
:104610008483CE01079614DFF80185832B960FB6AD
:10462000F894DEBF0FBECDBFDF91CF911F910F91E8
:10463000FF90EF900895FC0180814281618190E0BC
:10464000CDDE069667E070E00C9408400895EF9286
:10465000FF920F931F93CF93DF93EC0188814A81E0
:10466000698190E0BBDE9C01A8E1B0E00E94474078
:104670002B817B018C01E20EF11C011D111DA80193
:104680009701ACE3B0E00E9456402C817B018C0185
:10469000E20EF11C011D111DA80197010E94564058
:1046A0002D81DC01CB01820F911DA11DB11DBC012B
:1046B000CD0160587C4B8249974CDF91CF911F917F
:1046C0000F91FF90EF900895EF92FF920F931F9339
:1046D000CF93DF93EC0188814A81698190E07EDE8F
:1046E0009C01A8E1B0E00E9447402B817B018C0136
:1046F000E20EF11C011D111DA8019701ACE3B0E011
:104700000E9456402C817B018C01E20EF11C011DA0
:10471000111DA80197010E9456402D81620F711D45
:10472000811D911DDF91CF911F910F91FF90EF900F
:104730000895FC011082118212821382148208955E
:1047400008950F931F93CF93DF93EC01062F142F3F
:1047500068E688ED9CE00E945236602F88ED9CE070
:104760000E940136612F88ED9CE00E94013688EDA1
:104770009CE00E94D3368883DF91CF911F910F91E7
:1047800008951F93CF93DF93EC01162F68E688ED11
:104790009CE00E945236612F88ED9CE00E94013619
:1047A00088ED9CE00E94D336888341E068E688ED7E
:1047B0009CE00E94CF3688ED9CE00E947B35DF9123
:1047C000CF911F910895CF92DF92EF92FF92CF93F6
:1047D000DF93EC016A017B0188ED9CE00E943F368B
:1047E000B701A60188ED9CE00E944F3668E688ED8F
:1047F0009CE00E94523688ED9CE00E94D3368111E5
:104800000AC062E0CE01BDDF482F4F7B62E0CE01DF
:1048100098DF81E001C080E0DF91CF91FF90EF90C1
:10482000DF90CF9008950F931F93CF93DF938C0168
:10483000EB0168E688ED9CE00E94523660E088ED6E
:104840009CE00E94013688ED9CE00E94D33688836C
:1048500047E068E688ED9CE00E94CF3688ED9CE05A
:104860000E947335079709F064C088ED9CE00E94B0
:104870007B35982F9695969596959E70292F220FA9
:10488000220F920F8F70890F8D8388ED9CE00E941C
:104890007B35982F9695969596959E70292F220F89
:1048A000220F920F8F70890F8E8388ED9CE00E94FB
:1048B0007B35982F9695969596959E70292F220F69
:1048C000220F920F8F70890F8F8388ED9CE00E94DA
:1048D0007B3588ED9CE00E947B35982F96959695C8
:1048E00096959670292F220F220F920F8F70890FA5
:1048F000888788ED9CE00E947B3584FB992790F99E
:10490000990F292F220F220F920F8F70890F8987FD
:1049100088ED9CE00E947B35982F92959F708F7058
:104920002AE0929F800D112490E08053984F9B873E
:104930008A872D813E814F81588569858A859B852F
:10494000803D77E0970710F0805D9740F801808305
:1049500061835283438334832583C801DF91CF91E0
:104960001F910F910895DF92EF92FF920F931F9383
:10497000CF93DF9300D000D000D0CDB7DEB78C014D
:104980007B01FB0185819AE0D92E6D2D0E94FC3FB1
:10499000492FF0E18F9F400D112460E0C801D1DE66
:1049A000F70184816D2D0E94FC3F492FF0E18F9F1C
:1049B000400D112461E0C801C4DEF70183816D2D33
:1049C0000E94FC3F492FF0E18F9F400D112462E0CF
:1049D000C801B7DEC7012FDE482F63E0C801B1DE92
:1049E000F70182816D2D0E94FC3F492FF0E18F9FDE
:1049F000400D112464E0C801A4DEF70181816D2D12
:104A00000E94FC3F492FF0E18F9F400D112465E08B
:104A1000C80197DEF70180816D2D0E94FC3F492F70
:104A2000F0E18F9F400D112466E0C8018ADE6FE03F
:104A3000C801A7DE482F4F776FE0C80182DE6EE025
:104A4000C8019FDE482F4F776EE0C8017ADEB801BB
:104A5000CE010196E8DECE010196F9DDF801618311
:104A600072838383948326960FB6F894DEBF0FBEBD
:104A7000CDBFDF91CF911F910F91FF90EF90DF900D
:104A800008950F931F93CF93DF9300D000D000D0F1
:104A9000CDB7DEB78C014FE152E063E172E0CE01A9
:104AA000019654DDBE016F5F7F4FC8015CDF269623
:104AB0000FB6F894DEBF0FBECDBFDF91CF911F912F
:104AC0000F9108950F9300E020E040E060E08FE157
:104AD0009CE00E94CE380F910895FB0142815381E2
:104AE00064817581FC0142835383648375831782DB
:104AF00016820895CF93DF93DA01FB01EB018991D0
:104B00008111FDCF80E090E020E030E04AE051915B
:104B10005523E9F02430310544F55E3269F48F3FC6
:104B2000910509F014F5ED01C20FD31F8A832F5FA1
:104B30003F4F80E090E0EBCF489FB001499F700D60
:104B40001124852F90E0C097860F971FE0CF8F3FED
:104B5000910509F054F4243031053CF4FD01E20FD5
:104B6000F31F828381E090E002C080E090E0DF915B
:104B7000CF9108950F9300E020E040E060E085E2EF
:104B80009CE00E94CE380F9108958F929F92AF9231
:104B9000BF92CF92DF92EF92FF920F931F93CF932A
:104BA000DF9300D01F92CDB7DEB76C017B010E946E
:104BB000543AF601778366838601085F1F4FB6017A
:104BC0006A5F7F4F42E050E0C80130D581E090E05D
:104BD0009A83898342E050E0BE016F5F7F4FC80136
:104BE00025D580E091E09A83898342E050E0BE01C0
:104BF0006F5F7F4FC8011AD51A82198242E050E0D8
:104C0000BE016F5F7F4FC80111D542E050E0BE0189
:104C10006F5F7F4FC8010AD542E050E0BE016F5F71
:104C20007F4FC80103D55701F50180818823F9F032
:104C3000A7015A01F50181916F01882321F08E327D
:104C400011F0A601F6CF4A018E189F081814190416
:104C500064F48B8241E050E0BE016D5F7F4FC8017C
:104C6000E5D4A401B701C801E1D47601DDCF1B82F0
:104C700041E050E0BE016D5F7F4FC801D7D4E12C09
:104C8000FF24F394FA82E98242E050E0BE016F5FB4
:104C90007F4FC801CBD4FA82E98242E050E0BE01E6
:104CA0006F5F7F4FC801C2D481E090E00F900F90FA
:104CB0000F90DF91CF911F910F91FF90EF90DF90B8
:104CC000CF90BF90AF909F908F9008952F923F927A
:104CD0004F925F926F927F928F929F92AF92BF920C
:104CE000CF92DF92EF92FF920F931F93CF93DF93B8
:104CF000CDB7DEB763970FB6F894DEBF0FBECDBF5A
:104D00007C016B011A010E94543A4B015C0187013E
:104D1000085F1F4F2601612C712CC80129D5181678
:104D20001906A4F00E94543ADC01CB0188199909B4
:104D3000AA09BB09481659066A067B06D0F062E349
:104D400070E080E090E00E94853AE7CFF701428171
:104D5000538164817581818D928DA38DB48D4817A7
:104D600059076A077B0749F4858D968DC59729F405
:104D700009C0EE24EA94FE2CF0C09EEFE92EFF2439
:104D8000FA94EBC0C80108D40C970CF4E2C04CE0D4
:104D900050E0BE016F5F7F4FC80183D48B819C813F
:104DA0009827892798279A8B898BF7014681578105
:104DB00029813A814217530711F497FD07C0C801B2
:104DC00005D47CEFE72EFF24FA94C7C08F70927051
:104DD000892B39F0C801FAD36BEFE62EFF24FA9441
:104DE000BCC0CF80D884DC24CD24DC24C114D10401
:104DF00019F0E12CF12C1FC0C801E8D35AEFE52EC1
:104E0000FF24FA94AAC041E050E0BE01635F7F4FE7
:104E1000C80147D48D85811117C08D858111F3CFCD
:104E2000C80117D4C80115D4C80113D4C80111D4BE
:104E3000FFEFEF1AFF0A8D819E8198278927982717
:104E4000E816F90600F309C08D859FEF980F9D873E
:104E5000882319F3C801FDD3F7CFA12CB12C41E071
:104E600050E0BE016D5E7F4FC8011BD48B89982F27
:104E7000907C59F4882379F08B899FEF980F9B8B56
:104E8000882331F0C801E5D3F7CFC801E2D31B8AEC
:104E90008B898111E4CF42E050E0BE01615F7F4F1A
:104EA000C801FFD342E050E0BE01635F7F4FC801FD
:104EB000F8D3C801CED3C801CCD3C801CAD3C80126
:104EC000C8D342E050E0BE016F5E7F4FC801E9D316
:104ED0008F8598898115914049F4ED84FE84FE24E4
:104EE000EF24FE2481E0E816F10419F0E12CF12C06
:104EF00014C089899A898115944039F0C80166D314
:104F000047EFE42EFF24FA9428C0B1016E5F7F4F73
:104F100044E050E0C801C5D320C089899A89982708
:104F200089279827E816F90630F4C80192D3FFEFD5
:104F3000EF1AFF0AF2CF2FEFA21AB20ACA14DB044B
:104F400009F08DCFC80142D336EFE32EFF24FA9447
:104F500004C08DEFE82EFF24FA94C70163960FB6C4
:104F6000F894DEBF0FBECDBFDF91CF911F910F919F
:104F7000FF90EF90DF90CF90BF90AF909F908F9079
:104F80007F906F905F904F903F902F9008958F92F9
:104F90009F92AF92BF92CF92DF92EF92FF920F93C8
:104FA0001F93CF93DF9300D000D000D0CDB7DEB7F2
:104FB0007C014B015A019EDD8C01892B09F057C001
:104FC000F70142815381648175818091270C909112
:104FD000280CA091290CB0912A0C481759076A0790
:104FE0007B0709F447C00E94543A6701F8E0CF0EEE
:104FF000D11C6F7077277C5FC60189D3813009F09F
:105000003BC082E79AE09A838983F701828193818A
:10501000A481B5818B839C83AD83BE8345E350E03F
:10502000BE016F5F7F4FC601F7D2892B19F400E0F4
:1050300010E01AC0B401C701A8DD892BC1F3C60175
:10504000F2D2892BA1F383E0882E912CA50168E888
:1050500073E1C7013BDE8C0121E0821A910821F047
:105060000F3FFFEF1F0791F3C601C2D205C001E059
:1050700010E002C00EEF1FEFC80126960FB6F8949D
:10508000DEBF0FBECDBFDF91CF911F910F91FF907B
:10509000EF90DF90CF90BF90AF909F908F9008954A
:1050A00024E030E0AC0164E081E090E035C624E02B
:1050B00030E0AC0164E085E090E02EC626E030E010
:1050C000AC0164E089E090E027C624E030E0AC0168
:1050D00064E08FE090E020C68F929F92AF92BF92E3
:1050E000CF92DF92EF92FF920F931F93CF93DF93B4
:1050F0004C015B016A01E901FC01648585E69CE0E5
:1051000053D6C501DBDFC6010296DFDFC801029678
:10511000C7DFC7010296CBDF8A819B81AC81BD814D
:10512000F40182839383A483B583DF91CF911F9190
:105130000F91FF90EF90DF90CF90BF90AF909F9036
:105140008F90089522E73AE0FC0131832083FB0130
:105150004281538164817581FC014283538364835E
:10516000758308950F9300E020E040E060E088E45C
:105170009CE00E94CE388BE29CE00E94C438EBE2B7
:10518000FCE0138612868AE084870F910895DC0183
:10519000ED91FC91028CF38DE02D099591E089272A
:1051A0000895CF93DF931F92CDB7DEB76983DC01FB
:1051B000ED91FC910280F381E02D41E050E0BE01D1
:1051C0006F5F7F4F09950F90DF91CF91089521E098
:1051D000FC018485883009F420E0822F0895FC01C9
:1051E0009485FB018485981303C081E0983009F40D
:1051F00080E00895CF92DF92EF92FF920F931F937A
:10520000CF93DF93CDB7DEB7AF970FB6F894DEBF7D
:105210000FBECDBF8C016B017A01CE0101960E94B9
:10522000C438CE010996F3D2CE018A960E94C438C2
:105230006BE27CE0CE01849685DFBE016C5D7F4F22
:10524000CE0101964ADCAE01465D5F4FB601CE014C
:1052500001969DDE81309105C1F4D801ED91FC915C
:105260000684F785E02D82E79AE09DA38CA38CA5A8
:105270009DA5AEA5BFA58EA39FA3A8A7B9A7A7016B
:10528000BE016C5D7F4FC8010995AF960FB6F894CB
:10529000DEBF0FBECDBFDF91CF911F910F91FF9069
:1052A000EF90DF90CF9008950F931F93CF93DF93EC
:1052B0008C01D42FC52FFC018485883041F481E016
:1052C00090E0F8019383828380E090E005C0CFD323
:1052D000892BA9F38D2F9C2FDF91CF911F910F91D7
:1052E0000895FC016485683019F085E69CE0D0C51E
:1052F00080E090E00895CF93DF931F92CDB7DEB7A3
:1053000041E050E0BE016F5F7F4FFC018485F7D321
:10531000181619061CF4898190E002C08FEF9FEFE8
:105320000F90DF91CF910895FC018485E8C30F931E
:105330001F93CF93DF931F92CDB7DEB78C01DC01B3
:10534000ED91FC910084F185E02D0995892B49F0C0
:10535000BE016F5F7F4FF801848512D4898190E090
:1053600002C08FEF9FEF0F90DF91CF911F910F91B0
:105370000895FC01848511C4FC011382128288EE19
:1053800093E0A0E0B0E084839583A683B7838EEE9C
:1053900099E09183808388E084870895FC01648587
:1053A000683039F06295660F607E685F83E090E058
:1053B000DFC480E00895CF93DF93FC01248528307B
:1053C000C9F0EC01EBDF843181F0882371F0883182
:1053D00061F08C3161F4E881F9810084F185E02D80
:1053E000CE01099521E0892B19F420E001C021E0CC
:1053F000822F01C080E0DF91CF910895CF92DF929C
:10540000EF92FF92CF93DF93EC018C85883069F1A6
:1054100029D30E94543A6B017C01CE01BFDF88235F
:10542000A1F00E94543ADC01CB018C199D09AE0910
:10543000BF09883E9340A105B10538F461E070E0F2
:1054400080E090E00E94853AE8CFCE01A7DF882374
:1054500011F08C8596D2EC85F0E0EE0FFF1FE85C32
:10546000F34F1182108288E08C87DF91CF91FF90FB
:10547000EF90DF90CF900895CF92DF92FF920F933D
:105480001F93CF93DF93FC0124852830C1F56A0177
:105490008B01EC01F12C6F2D6295660F607E685FC9
:1054A00083E090E065D4811102C0FC8607C08B7F49
:1054B0008831D9F3F394F8E0FF12EDCF8C85883072
:1054C000F1F020916B0130916C012F5F3F4F11F48F
:1054D00020E034E030936C0120936B0140916B012C
:1054E00050916C0120E061E057D2B8016E5F7F4FB0
:1054F000A6018C8584D2811105C088E08C8780E06C
:1055000090E00FC0CE014ADF873149F061E070E0E2
:1055100080E090E00E94853ACE0140DFECCF81E050
:1055200090E0DF91CF911F910F91FF90DF90CF908E
:1055300008950F9300E020E040E060E08EE49CE0FE
:105540000E94CE380F9108950F9300E020E040E0D4
:1055500060E084E59CE00E94CE380F91089580E0E1
:105560000895DC01ED91FC91048CF58DE02D0994FA
:1055700022E73AE0FC0131832083FB014189528913
:1055800063897489FC01428353836483758308951E
:10559000FC01858996890895FC01818D928D08957D
:1055A000CF93DF931F92CDB7DEB76983DC01ED9116
:1055B000FC910280F381E02D41E050E0BE016F5F7D
:1055C0007F4F09950F90DF91CF910895CF93DF938F
:1055D000EC01898D9A8D892B41F0E881F981028453
:1055E000F385E02DCE010995F4CFDF91CF91089599
:1055F000CF93DF93EC018C85883059F0C2D1EC85D4
:10560000F0E0EE0FFF1FE85CF34F1182108288E09C
:105610008C87DF91CF910895FC01108E178A6E5F01
:105620007F4F8485E6C2FC01848506C3CF93DF9358
:10563000EC019A018F89988DAB01BC018C85AED2AB
:105640002F89388D280F391F388F2F8BDF91CF91FD
:1056500008950F931F93CF93DF931F92CDB7DEB7BB
:10566000FC01218D328D232B59F08C0141E050E05B
:10567000BE016F5F7F4F848542D2181619061CF059
:105680008FEF9FEF08C0F801818D928D0197928F67
:10569000818F898190E00F90DF91CF911F910F91C1
:1056A0000895CF93DF93FC01218D328D21153105B3
:1056B00019F48FEF9FEF10C0EC014217530708F069
:1056C000A9018C851CD2181619069CF7298D3A8DD4
:1056D000281B390B3A8F298FDF91CF910895CF93F3
:1056E000DF931F92CDB7DEB7FC01218D328D232BC6
:1056F00041F0BE016F5F7F4F848542D2898190E087
:1057000002C08FEF9FEF0F90DF91CF910895EF923E
:10571000FF921F93CF93DF93FC012485283011F073
:1057200080E020C07B01EC0110E0612F6295660FE4
:10573000607E685F83E090E01BD3811102C01C870C
:1057400005C08831E1F31F5F183079F78C85883008
:1057500039F3FE86ED861A8E198E20E0A70162E0ED
:105760001BD181E0DF91CF911F91FF90EF900895C1
:105770000F931F93CF93DF93CDB7DEB728970FB664
:10578000F894DEBF0FBECDBF8C01DC01ED91FC9122
:105790000680F781E02D0995F801648585E69CE097
:1057A00077D3892B39F148E050E0BE016F5F7F4F1E
:1057B000D8011C968C91A3D118161906ECF4BE01E1
:1057C0006F5F7F4FC8010F960E94DA388D8190E09D
:1057D000982F88272E81820F911DF801968B858B3B
:1057E0008F8190E0982F88272885820F911D928FB6
:1057F000818F02C080E090E028960FB6F894DEBF5B
:105800000FBECDBFDF91CF911F910F910895FC0185
:105810001382128288EE93E0A0E0B0E08483958347
:10582000A683B78380E19AE09183808388E08487B0
:10583000CF010F960C94C438CF92DF92EF92FF9273
:105840000F931F93CF93DF93CDB7DEB7AF970FB60C
:10585000F894DEBF0FBECDBF8C016B017A01CE0183
:1058600001960E94C438CE010996D1DFCE018A96F6
:105870000E94C4386BE27CE0CE01849663DCBE01FA
:105880006C5D7F4FCE01019628D9AE01465D5F4F1A
:10589000B601CE0101967BDB81309105C1F4D801C0
:1058A000ED91FC910488F589E02D82E79AE09DA3B3
:1058B0008CA38CA59DA5AEA5BFA58EA39FA3A8A7CD
:1058C000B9A7A701BE016C5D7F4FC8010995AF96CE
:1058D0000FB6F894DEBF0FBECDBFDF91CF911F9101
:1058E0000F91FF90EF90DF90CF9008950F9300E01D
:1058F00020E040E060E08AE59CE00E94CE380F9115
:105900000895AB018295880F807E6CE0680F24E0DB
:1059100030E08CE090E000C29B018295880F807E91
:1059200068E0680FC90124C262E070E0F5CF9B0116
:105930008295880F807E6CE0680FC901CFC1CF933C
:10594000DF93C82FD62F472F64E070E0F0DF4D2F94
:1059500065E070E08C2FDF91CF91E9CF462F62E0B8
:1059600070E0E5CFCF93DF93C82FD62F472F60E1AC
:1059700070E0DDDF4D2F61E170E08C2FDF91CF9182
:10598000D6CFCF93C82F40E1682F85E69CE070D337
:105990006FEF8C2FCF91E2CFFF920F931F93CF9396
:1059A000DF939FEF960F953018F5D22F8A01F62ED0
:1059B000C82FE7DF4F2D4D2B60E070E08C2FB7DF55
:1059C0000115110511F0B8010AC06091600C7091C9
:1059D000610C6F5F7F4F7093610C6093600C8C2F34
:1059E000AEDF41E06C2F85E69CE042D381E001C050
:1059F00080E0DF91CF911F910F91FF9008950F9359
:105A00001F93CF93FB0190819F3F51F491819F3F62
:105A100091F492819F3F79F493819F3F61F41CC080
:105A2000911109C09181911106C09281911103C019
:105A30009381992391F04115510571F08A01BF01BD
:105A4000C82F5FDFB8018C2F8DDF44E06C2F85E617
:105A50009CE00ED391E001C090E0892FCF911F917F
:105A60000F91089548E0682F85E69CE001C3CF922E
:105A7000DF92EF92FF920F931F93CF93C82F7B017A
:105A80008A014130584010F000E018E06C2F85E6A4
:105A90009CE0CDD16C0163E070E08C2F3DDF87315D
:105AA00011F08C3121F4C016D10680F302C000E061
:105AB00010E09801A7016C2F85E69CE03DD240E202
:105AC0006C2F85E69CE0D4D28C2F2EDF84FD0BC09A
:105AD00063E070E08C2F20DF8111F6CF8C2F51DF37
