S015000074656D706C61746556756F746F2E7372656396
S113000063C100008BC1000089C1000087C10000EA
S11300100C94881883C1000081C100000C94E71877
S11300200C9466197BC1000079C1000077C10000FF
S113003075C1000073C1000071C100006FC10000F0
S11300400C944D3A6BC100000C943B380C946D3801
S113005065C1000063C1000061C100005FC1000010
S11300605DC100005BC100000C94883457C10000DE
S113007055C1000053C1000051C100004FC1000030
S11300804DC100004BC1000049C100002710D5102C
S1130090FC103911381273121813271366137C13CA
S11300A009148114A915F4220B230B2308230B2311
S11300B0F2220B230B230B23E6220B230B23FB221D
S11300C0062304230B230B230B23022300407A1063
S11300D0F35A00A0724E18090010A5D4E80000E8F5
S11300E07648170000E40B54020000CA9A3B000053
S11300F000E1F505000080969800000040420F00E2
S11301000000A08601000000102700000000E803A2
S1130110000000006400000000000A00000000006D
S11301200100000000002C76D888DC674F0823DF2C
S1130130C1DFAE59E1B1B796E5E3E453C63AE651FF
S1130140997696E8E6C28426EB898C9B62ED407C26
S11301506FFCEFBC9C9F40F2BAA56FA5F490055AC2
S11301602AF75C936B6CF9676DC11BFCE0E40D47E7
S1130170FEF520E6B500D0ED902E0300943577050A
S11301800080841E080000204E0A000000C80C33C2
S11301903333330F986E12831141EF8D2114893B51
S11301A0E65516CFFEE6DB18D1844B381BF77C1DD1
S11301B0901DA4BBE424203284725E228100C9F124
S11301C024ECA1E53D275254432063686970204420
S11301D053333233314D20696E697469616C697AC5
S11301E065642E006E6F6E2074726F766F206D6F73
S11301F064756C6F20525443204453333233314D71
S11302004D2E20526970726F766F207472612033A4
S1130210732E004A756C2020352032303231003084
S1130220383A30363A3235001F1C1F1E1F1E1F1F5E
S11302301E1F1E1F00000000040308070000020028
S1130240090A000000000000000000000000000097
S11302500000000101020408102040800102102067
S113026040801020408010082004408001020408CF
S11302700102040804040404040404040202020243
S1130280020201010101030303030303010101014C
S113029003030202000000002300260029000000DE
S11302A00000250028002B00000000002400270087
S11302B02A00EE19A525FD25F528DC2AE72AB92C04
S11302C0893018379B381E1B11241FBECFEFD0E492
S11302D0DEBFCDBF1AE0A0E0B1E0ECE5FCE800E051
S11302E00BBF02C007900D92A039B107D9F72DE0DA
S11302F0A0E9BAE001C01D92A23EB207E1F711E005
S1130300C3E6D1E004C02197FE010E948140C935B3
S1130310D107C9F70E9427390C94224671CE80E098
S113032090E00895089544980895449A0895EF92AA
S1130330FF920F931F93CF93DF93CDB7DEB76897E8
S11303400FB6F894DEBF0FBECDBF80E79AE09A8364
S113035089834091DD0A5091DE0A6091DF0A709131
S1130360E00A4B835C836D837E8398878F834091FF
S1130370E30A5091E40A6091E50A7091E60A49871C
S11303805A876B877C879E878D874091E90A5091B5
S1130390EA0A6091EB0A7091EC0A4F87588B698BDB
S11303A07A8B9C8B8B8B8091EF0A9091F00AA091B1
S11303B0F10AB091F20A8D8B9E8BAF8BB88FCE0170
S11303C001967C018E01095F1F4F9E01235F3F4F01
S11303D0AE014D5E5F4F62E371E085E39CE00E94F5
S11303E0AF2868960FB6F894DEBF0FBECDBFDF917D
S11303F0CF911F910F91FF90EF9008951816190651
S113040044F4EFE9FFE03197F1F700C000000197F1
S1130410F5CF0895CF9388E39DE00E94AC39CDE7F2
S11304206CEF71E088E39DE00E94A439C150C1F7EC
S113043088E39DE0CF910C94AC39CF93DF93D82F10
S1130440C0E0CD1741F06EEF71E088E39DE00E94BB
S1130450A439CF5FF6CFDF91CF910895CF93C82F02
S113046081E0EBDF60E072E088E39DE00E94A43964
S1130470CC2319F064E072E002C069E072E088E322
S11304809DE00E94A43981E0CF91D7CF8F929F92B3
S1130490AF92BF92CF92DF92EF92FF920F931F938E
S11304A0CF93DF93CDB7DEB72C970FB6F894DEBFAA
S11304B00FBECDBF5C018DB69EB6FC01C284D38451
S11304C08DB79EB78C199D090FB6F8949EBF0FBEC9
S11304D08DBF0DB71EB70F5F1F4FA6014F5F5F4F54
S11304E020E030E0B801C50106960E94913E4AE042
S11304F0B601CE0107960E94403D6EE072E0CE0147
S113050001960E946A3CBE01695F7F4FCE0101964D
S11305100E943F3EBC0188E39DE00E94BF39CE01AA
S113052001960E94033CCE0107960E94033C65E1BC
S113053072E088E39DE00E94CF3962E072E088E3D4
S11305409DE00E94CF39F501E484F584F5018485AA
S113055095858C0D9D1DE816F90664F4F8016191EA
S11305608F01662319F0C7010E941446FFEFEF1AAA
S1130570FF0AECCF62E072E088E39DE00E94CF398D
S113058081E00FB6F8949EBE0FBE8DBE2C960FB6BA
S1130590F894DEBF0FBECDBFDF91CF911F910F91B5
S11305A0FF90EF90DF90CF90BF90AF909F908F908F
S11305B008950F931F93CF93DF93EC018B0162E0B7
S11305C072E088E39DE00E94CF3962E072E088E344
S11305D09DE00E94CF3963E372E088E39DE00E94CE
S11305E0CF39C017D10734F460E0CE010E9414461D
S11305F02196F7CF60E572E088E39DE00E94CF3951
S113060062E072E088E39DE00E94CF3962E072E02C
S113061088E39DE0DF91CF911F910F910C94CF3926
S1130620F89484B7877F84BFE0E6F0E08081886136
S11306308083108278940895F894E0E6F0E0808155
S11306408865808389E68083789408950F931F9347
S1130650CF93DF93EC018B010E94D63CB8016A5F13
S11306607F4FCE0106960E94D63CF801848595857D
S11306709D878C87DF91CF911F910F910895CF9320
S1130680DF93EC0106960E94033CCE01DF91CF91EB
S11306900C94033CCF92DF92EF92FF920F931F933F
S11306A0CF93DF936A017B01C0E0D0E0082F10E014
S11306B0C017D10724F4C601A1DE2196F9CFDF913A
S11306C0CF911F910F91FF90EF90DF90CF900895FD
S11306D08232910509F49AC06CF58A30910509F4C7
S11306E083C0A4F48630910509F475C0893091055E
S11306F009F45DC0059709F0CFC06091060188E355
S11307009DE00E94A53920E030E059C08231910576
S113071009F473C08132910509F454C0419709F07A
S1130720BBC06091080188E39DE00E94A53922E0E6
S113073030E045C08036910509F499C0ACF48834A2
S1130740910509F482C08035910509F487C0843489
S1130750910509F0A1C06091120188E39DE00E9417
S1130760A53920E030E08BC08838910509F459C0E0
S11307706CF48438910509F08FC060910E0188E310
S11307809DE00E94A53920E030E05CC080399105ED
S113079009F450C0803A910509F07EC060911101BE
S11307A088E39DE00E94A53923E030E04BC06091CE
S11307B0070188E39DE00E94A53921E030E080E054
S11307C090E05FC06091090188E39DE00E94A53933
S11307D023E030E0F4CF60910A0188E39DE00E94B9
S11307E0A53920E030E01AC060910B0188E39DE058
S11307F00E94A53921E030E011C060910C0188E32A
S11308009DE00E94A53922E030E008C060910D010E
S113081088E39DE00E94A53923E030E081E090E088
S113082030C060910F0188E39DE00E94A53921E06A
S113083030E008C06091100188E39DE00E94A53972
S113084022E030E082E090E01CC06091130188E374
S11308509DE00E94A53921E030E011C060911401AF
S113086088E39DE00E94A53922E030E008C0609151
S1130870150188E39DE00E94A53923E030E083E080
S113088090E0880F991F880F991F8A5F9E4FFC0183
S1130890E20FF31F808108958EE40895CF93DF93D0
S11308A0EC0183E69BE00E94143161E083E69BE067
S11308B00E94A53941E060E083E69BE00E941A3182
S11308C0BE016A5F7F4F83E69BE00E94963942E057
S11308D060E083E69BE00E941A31BE01645F7F4FB3
S11308E083E69BE00E94963943E060E083E69BE068
S11308F00E941A31BE016E5E7F4F83E69BE0DF915A
S1130900CF910C949639CF92DF92EF92FF926B01C4
S11309107C0183E69BE00E9414316091440B70914A
S1130920450B4AE050E083EF9AE0B8DFC092A90A91
S1130930D092AA0AE092AB0AF092AC0A8FE19EE44C
S11309400197F1F700C0000083EA9AE00E947C233B
S11309506093AD0A7093AE0A8093AF0A9093B00A85
S11309608FE19EE40197F1F700C000008091440BF1
S11309709091450B01969093450B8093440BFF9007
S1130980EF90DF90CF9008958F929F92AF92BF9295
S1130990CF92DF92EF920F931F93CF93DF93CDB754
S11309A0DEB7A2970FB6F894DEBF0FBECDBF5C01D1
S11309B04B016FEF71E0CE014D960E946A3C08EC4A
S11309C010E023E83BE04CE75BE060E082E59BE07D
S11309D00E94F7208093840B882309F486C08091B9
S11309E0830B843009F07BC086E0EDE6F1E0DE01A4
S11309F0579601900D928A95E1F7CE0147966C01C6
S1130A00E12C04E010E020E030E044E06CE77BE01F
S1130A1082E59BE00E9443218093840B882309F4A0
S1130A2054C080E1F401DE01119601900D928A9583
S1130A30E1F7AE014F5F5F4F64E082E59BE00E9407
S1130A40D6218093840B9FEF21EE84E091502040C7
S1130A508040E1F700C0000061E672E088E39DE0B9
S1130A600E94CF39BE016F5F7F4FCE0141960E9435
S1130A706A3C8091840B8823C9F08D899E890697EE
S1130A8059F4BE016F5E7F4FC5010E94B93CCE018F
S1130A9041960E94033C2FC09FEF21EE84E09150C9
S1130AA020408040E1F700C000000AC083E69BE0DC
S1130AB00E9414316FE672E083E69BE00E94A43941
S1130AC0CE0141960E94033C0AC083E69BE00E944B
S1130AD014316AE772E083E69BE00E94A4396FEF69
S1130AE071E088E39DE00E94CF39BE01635E7F4FD1
S1130AF0C5010E94B93CCE014D960E94033CC5013C
S1130B00A2960FB6F894DEBF0FBECDBFDF91CF9192
S1130B101F910F91EF90DF90CF90BF90AF909F9077
S1130B208F900895AF92BF92CF92DF92EF920F937E
S1130B301F93CF93DF93CDB7DEB7A2970FB6F89488
S1130B40DEBF0FBECDBF5C016FEF71E0CE014D96ED
S1130B500E946A3C08EC10E023E83BE04CE75BE0D1
S1130B6060E082E59BE00E94F7208093840B882359
S1130B7009F488C04EE150E060E070E082E08ADD74
S1130B808091830B843009F077C086E0EDE6F1E0D4
S1130B90DE01579601900D928A95E1F7CE014796B2
S1130BA06C01E12C04E010E020E030E044E06CE76C
S1130BB07BE082E59BE00E9443218093840B8823A1
S1130BC009F44AC0AE014F5F5F4F64E082E59BE0E9
S1130BD00E94A3218093840B882389F161E672E04B
S1130BE088E39DE00E94CF39BE016F5F7F4FCE0145
S1130BF041960E946A3CBE016F5E7F4F88E39DE090
S1130C000E94BF398D899E89069759F4BE016F5E93
S1130C107F4FC5010E94B93CCE0141960E94033C1E
S1130C2037C09FEF21EE84E0915020408040E1F7EF
S1130C3000C00000CE0141960E94033C1DC083E623
S1130C409BE00E94143141E060E083E69BE00E9457
S1130C501A3166E872E00CC083E69BE00E9414310E
S1130C6041E060E083E69BE00E941A316FE672E0A7
S1130C7083E69BE00E94A4396FEF71E088E39DE076
S1130C800E94CF39BE01635E7F4FC5010E94B93C0B
S1130C90CE014D960E94033CC501A2960FB6F8946E
S1130CA0DEBF0FBECDBFDF91CF911F910F91EF90AB
S1130CB0DF90CF90BF90AF900895CF92DF92EF92E4
S1130CC0FF920F931F93CF93DF93CDB7DEB7649753
S1130CD00FB6F894DEBF0FBECDBF7C01CE010196E6
S1130CE06C0187E0F60111928A95E9F763E972E0F5
S1130CF0C7010E946A3C08EE13E09E012C5E3F4F40
S1130D00A60160E082E59BE00E94F720882359F168
S1130D100C8910E020E030E0A60162E57BE0CE0122
S1130D200E960E94141FCE010E960E94023F28E0E8
S1130D3030E040E050E0BE01625F7F4FCE01089694
S1130D400E94BF3EBE01685F7F4FC7010E94DE3C28
S1130D50CE0108960E94033C81E080937B0BCE0178
S1130D600E960E94033CC70164960FB6F894DEBF4A
S1130D700FBECDBFDF91CF911F910F91FF90EF90E8
S1130D80DF90CF900895EF92FF920F931F93CF932C
S1130D90DF93CDB7DEB762970FB6F894DEBF0FBE10
S1130DA0CDBF8C017B016AE972E0CE010D960E94F1
S1130DB06A3C30DB62EA72E088E39DE00E94CF394E
S1130DC02091550130915601F701848195812817AE
S1130DD0390749F5A90143505109B701CE010796D6
S1130DE00E94BF3E6AEB72E0CE0101960E946A3C0B
S1130DF0BE01695F7F4FCE0101960E943F3EBC0158
S1130E0088E39DE00E94BF39CE0101960E94033C15
S1130E10BE01695F7F4FC8010E94B93CCE010796AD
S1130E200E94033C09C080E019DBF4DABE01635F71
S1130E307F4FC8010E94B93CCE010D960E94033C2D
S1130E40C80162960FB6F894DEBF0FBECDBFDF9126
S1130E50CF911F910F91FF90EF900895AF92BF92A1
S1130E60CF92DF92EF92FF920F931F93CF93DF9372
S1130E70CDB7DEB762970FB6F894DEBF0FBECDBF15
S1130E805C017B018A016901C5DA81E0D6DA64EA92
S1130E9074E088E39DE00E94A439A501B701C8016C
S1130EA00E943D29892B09F4C3C02FEF81EE94E001
S1130EB0215080409040E1F700C0000061EE74E0F2
S1130EC0CE0101960E946A3CB601CE0101960E94B1
S1130ED03F3E6BE173E00E94503EBC0186E49BE020
S1130EE00E94C13CCE0101960E94033CB701CE0191
S1130EF001960E946A3C6EE075E0CE0107960E945E
S1130F006A3CBE016F5F7F4FCE0107960E943F3E51
S1130F10BC0186E49BE00E94193ECE0107960E9424
S1130F20033CCE0101960E94033C64E273E086E434
S1130F309BE00E941F3E6BE973E086E49BE00E9405
S1130F401F3E64E273E086E49BE00E941F3E65E47A
S1130F5074E086E49BE00E941F3E64E273E086E452
S1130F609BE00E941F3E65E175E086E49BE00E94E1
S1130F701F3E64E273E086E49BE00E941F3E64E24D
S1130F8073E086E49BE00E941F3E66E47BE088E316
S1130F909DE00E94BF3966E47BE0C8010E94963957
S1130FA02FEF81EE94E0215080409040E1F700C0A3
S1130FB0000064E674E0C8010E94CF39C8010E94B1
S1130FC0AC398FE39CE90197F1F700C0000061E2BE
S1130FD075E0CE010D960E946A3CC8010E94B429B6
S1130FE0892B09F44CC020913F0B3091400B809128
S1130FF05501909156012817390708F040C0C801DF
S11310000E94BE29F82E6BE37BE0CE0101960E947C
S1131010D63C6F2DCE0101960E94673EBC018BE346
S11310209BE00E94C13CCE0101960E94033CD5CFB7
S113103083E69BE00E94143141E060E083E69BE09C
S11310400E941A3163E275E083E69BE00E94A439B2
S113105043E060E083E69BE00E941A3162E375E0BE
S113106083E69BE00E94A4399FEF23ED80E3915037
S113107020408040E1F700C0000080E038C06BE30E
S11310807BE0CE0107960E94D63CBE01695F7F4F8C
S1131090CE01019678DEBE016F5F7F4FCE010D96C3
S11310A00E94DE3CCE0101960E94033CCE010796CD
S11310B00E94033C9FEF27EE83E091502040804044
S11310C0E1F700C0000060EA74E0CE010D960E94D2
S11310D0733E882351F081E0C1D99CD911E0CE013F
S11310E00D960E94033C812F02C010E0F8CF629657
S11310F00FB6F894DEBF0FBECDBFDF91CF911F9125
S11311000F91FF90EF90DF90CF90BF90AF90089534
S1131110AF92BF92CF92DF92EF92FF920F931F9301
S1131120CF93DF93CDB7DEB762970FB6F894DEBFE7
S11311300FBECDBF5C016B018A0179016BD981E0DF
S11311407CD965E475E088E39DE00E94A439A5019B
S1131150B601C8010E943D29892B09F4E6C02FEF8E
S113116081EE94E0215080409040E1F700C00000FF
S113117065E875E086E49BE00E94E93CB601CE0197
S113118001960E946A3C6EE075E0CE0107960E94CB
S11311906A3CBE016F5F7F4FCE0107960E943F3EBF
S11311A0BC0186E49BE00E94193ECE0107960E9492
S11311B0033CCE0101960E94033C64E273E086E4A2
S11311C09BE00E941F3E6BE973E086E49BE00E9473
S11311D01F3E64E273E086E49BE00E941F3E65E4E8
S11311E074E086E49BE00E941F3E64E273E086E4C0
S11311F09BE00E941F3E65E175E086E49BE00E944F
S11312001F3E64E273E086E49BE00E941F3EF70108
S1131210648175816B5E7F4F4AE0CE0101960E9426
S11312206A3D67EA75E0CE0107960E946A3CBE01FA
S11312306F5F7F4FCE0107960E943F3EBC0186E45C
S11312409BE00E94193ECE0107960E94033CCE010A
S113125001960E94033C64E273E086E49BE00E94F2
S11312601F3E64E273E086E49BE00E941F3EB701E8
S113127086E49BE00E94193E64E273E086E49BE00E
S11312800E941F3E66E47BE088E39DE00E94BF3934
S113129066E47BE0C8010E949639FFEF21EE84E00A
S11312A0F15020408040E1F700C0000064E674E0A3
S11312B0C8010E94CF39C8010E94AC39EFE3FCE9B0
S11312C03197F1F700C0000061E275E0CE010D96A0
S11312D00E946A3CC8010E94B429892B09F44CC0BD
S11312E020913F0B3091400B809155019091560114
S11312F02817390708F040C0C8010E94BE29F82EFB
S11313006BE37BE0CE0101960E94D63C6F2DCE01AB
S113131001960E94673EBC018BE39BE00E94C13CA6
S1131320CE0101960E94033CD5CF83E69BE00E9448
S1131330143141E060E083E69BE00E941A3166E7E5
S113134074E083E69BE00E94A43943E060E083E616
S11313509BE00E941A316BE874E083E69BE00E94F4
S1131360A439FFEF23ED80E3F15020408040E1F702
S113137000C0000080E038C06BE37BE0CE0107963C
S11313800E94D63CBE01695F7F4FCE010196FBDC13
S1131390BE016F5F7F4FCE010D960E94DE3CCE01F1
S11313A001960E94033CCE0107960E94033C9FEFE6
S11313B0E7EEF3E09150E040F040E1F700C00000B8
S11313C060EA74E0CE010D960E94733E882351F0CA
S11313D081E044D81FD811E0CE010D960E94033C51
S11313E0812F02C010E0F8CF62960FB6F894DEBFEA
S11313F00FBECDBFDF91CF911F910F91FF90EF9062
S1131400DF90CF90BF90AF9008955798569888E09A
S11314108093680080EC8093730078940895099811
S11314200A9808952FEF3FE097E221503040904012
S1131430E1F700C0000091E090936800843419F44F
S11314400D9880E202C00E9880E480936B0078943B
S113145008952FEF31EE94E0215030409040E1F7B1
S113146000C0000091E090936800843411F40D985A
S113147001C00E9810926B00F8940895CF92DF92F9
S1131480EF92FF92BC01990F880B990B0E94893748
S11314906B017C0120E030E0A9010E941B3787FF2B
S11314A003C0C12CD12C7601609153017091540179
S11314B0072E000C880B990B0E9489379B01AC0105
S11314C0C701B6010E941F37FF90EF90DF90CF90C5
S11314D008953F9A8130910539F08230910559F091
S11314E0892B01F54798089528B101C0880F6A95A2
S11314F0EAF7822B16C028B181E090E001C0880F82
S11315006A95EAF7982F9095922398B92FEF35EAC8
S11315104EE0215030404040E1F700C0000098B157
S1131520892B88B908950F9A8130910579F082301A
S1131530910599F0892B41F522B181E090E001C039
S1131540880F6A95EAF7809582231DC022B101C0F5
S1131550880F6A95EAF7822B16C022B181E090E0E9
S113156001C0880F6A95EAF7982F9095922392B953
S11315702FEF35EA4EE0215030404040E1F700C003
S1131580000092B1892B82B908956FEF71E08BE36B
S11315909BE00E94E93C1092430B1092420B109284
S11315A07B0B61E275E085E89BE00E94E93C61E227
S11315B075E08BE89BE00E94E93C6FEA78E081E902
S11315C09BE00E94E93C1092410B67E070E081E0EF
S11315D090E07FDF67E070E081E090E0A4DF8FE1DE
S11315E09EE40197F1F700C0000081EC9AE00E94AC
S11315F0FC2981EC9AE00E94412A8FE19EE4019744
S1131600F1F700C000008EEC9AE00E94FC298EECF9
S11316109AE00E94412A8FE19EE40197F1F700C00D
S113162000002C988FE19EE40197F1F700C00000C0
S11316302C9A8FE19EE40197F1F700C000000E940C
S113164095018FE19EE40197F1F700C000000E942C
S1131650930182B182B982B182B96FEF71E089EFEF
S11316609AE00E94E93C6FEF71E08FEF9AE00E94EC
S1131670E93C6FEF71E08FEF9AE00E94E93C83E66A
S11316809BE00E94043183E69BE00E945C3110924F
S1131690B10A1092B20A1092B30A1092B40A1092CC
S11316A0AD0A1092AE0A1092AF0A1092B00A0E94CC
S11316B00A0268EB75E088E39DE00E94CF390E943E
S11316C00A026FEF71E089E99AE00E94E93C0E9406
S11316D01C038FEF9FEF9093450B8093440B089569
S11316E0CF93DF93CDB7DEB762970FB6F894DEBF22
S11316F00FBECDBF813419F1D8F4833209F45DC033
S11317008A3209F089C06FEF71E089E99AE00E949A
S1131710E93C6BEC75E089EF9AE00E94E93C6FEFDD
S113172071E08FEF9AE00E94E93C6FEF71E066C0D0
S1131730833429F1A0F08E3409F405C16DC0809181
S11317409D0A90919E0A059709F0FDC069E97AE027
S1131750CE0101960E94D63C69EC75E0AEC0809142
S11317609D0A90919E0A059709F0EDC069E97AE017
S1131770CE0101960E94D63C6EE376E09EC0209195
S11317809D0A30919E0A2115310509F4DCC02150CF
S1131790310940E050E069E97AE0CE0101960E9407
S11317A0BF3EBE016F5F7F4F89E99AE00E94DE3C35
S11317B0CE0101960E94033C54C080919D0A9091F1
S11317C09E0A059709F0BFC069E97AE08BE89BE0BF
S11317D00E94C13C6BE87BE08DE19BE00E94C13C30
S11317E06CE076E089EF9AE00E94E93C60E276E002
S11317F08FEF9AE00E94E93C6FE276E085E09BE09F
S11318000E94E93C6091220170912301809124019E
S11318109091250178D897C020919D0A30919E0A15
S11318202530310508F08FC0682FCE0101960E9443
S1131830FE3CBE016F5F7F4F89E99AE00E94193E2A
S1131840CE0101960E94033C4AE050E060E070E063
S113185081E00E944A038FE39CE90197F1F700C0FD
S113186000006EED75E089EF9AE00E94E93C60EFBC
S113187075E0CE0101960E946A3C69E97AE0CE01E6
S113188001960E943F3EBC018FEF9AE00E94C13C4A
S1131890CE0101960E94033C67EF75E085E09BE072
S11318A00E94E93C6091440B7091450B4AE050E082
S11318B083EF9AE00E944E0446C0CE0101960E9436
S11318C0503EBC01CE0107960E94D63CCE01019643
S11318D00E94033C20E030E047E050E0BE01635F3B
S11318E07F4FCE0107960E94913EBE01635F7F4FFA
S11318F0CE01019649D88FE39CE90197F1F700C026
S113190000004AE050E060E070E081E00E944A0399
S11319108FE39CE90197F1F700C000004AE050E032
S113192060E070E081E00E944A038FE39CE9019744
S1131930F1F700C00000CE0101960E94033CCE01E5
S113194007960E94033C62960FB6F894DEBF0FBE62
S1131950CDBFDF91CF910895CF93DF9300D000D016
S113196000D0CDB7DEB7833460F4813408F0CEC044
S11319708A3209F4CBC08E3209F4C8C0833229F10B
S11319807BC0833421F08E3409F076C0BFC020912F
S1131990970A3091980A2115310509F48CC0215019
S11319A0310940E050E063E97AE0CE0101960E94FB
S11319B0BF3EBE016F5F7F4F83E99AE00E94DE3C29
S11319C0CE0101960E94033C76C08091970A9091C3
S11319D0980A049709F09AC069EC75E085E89BE0E1
S11319E00E94733E882341F067E070E080E090E05D
S11319F070DD67E276E00FC06EE376E085E89BE099
S1131A000E94733E882359F067E070E080E090E024
S1131A108ADD66E376E085E09BE00E94E93C63E9C9
S1131A207AE081E99BE00E94C13C61E97BE08FE2BE
S1131A309BE00E94C13C60E676E089EF9AE00E9458
S1131A40E93C6FEF71E08FEF9AE00E94E93C0E945D
S1131A5095018FE39FE10197F1F700C000000E9418
S1131A60930160911E0170911F018091200190915A
S1131A7021010E9483044AC02091970A3091980A58
S1131A802430310508F042C0682FCE0101960E942F
S1131A90FE3CBE016F5F7F4F83E99AE00E94193ECE
S1131AA0CE0101960E94033C4AE050E060E070E001
S1131AB081E00E944A0360E476E089EF9AE00E94A4
S1131AC0E93C61E576E0CE0101960E946A3C63E957
S1131AD07AE0CE0101960E943F3EBC018FEF9AE06E
S1131AE00E94C13CCE0101960E94033C65E576E06C
S1131AF085E09BE00E94E93C6091440B7091450BAA
S1131B004AE050E083EF9AE00E944E0426960FB616
S1131B10F894DEBF0FBECDBFDF91CF9108954F92F1
S1131B205F926F927F928F929F92AF92BF92CF9269
S1131B30DF92EF92FF920F931F93CF93DF9300D026
S1131B4000D000D0CDB7DEB77C015B014DB65EB6E8
S1131B5061E877E00E946A3CF501C284D3848DB7C2
S1131B609EB78C199D090FB6F8949EBF0FBE8DBF0A
S1131B70EDB7FEB731964F013F01F5010485158598
S1131B80C00ED11E0C151D054CF4C8010E940C4654
S1131B90F30181933F010F5F1F4FF4CF62E072E0C6
S1131BA088E39DE00E94CF3962E072E088E39DE023
S1131BB00E94CF39B401CE0101960E946A3CBE0155
S1131BC06F5F7F4FC7010E94DE3CCE0101960E94E9
S1131BD0033CB501CE0101960E94D63C6DE478E049
S1131BE0CE0101960E94503EBC0188E39DE00E9414
S1131BF09639CE0101960E94033CB70188E39DE02B
S1131C000E94BF39C7010FB6F8945EBE0FBE4DBE29
S1131C1026960FB6F894DEBF0FBECDBFDF91CF91ED
S1131C201F910F91FF90EF90DF90CF90BF90AF90F6
S1131C309F908F907F906F905F904F9008954F92F8
S1131C405F926F927F928F929F92AF92BF92CF9248
S1131C50DF92EF92FF920F931F93CF93DF93CDB751
S1131C60DEB72C970FB6F894DEBF0FBECDBF7C0154
S1131C706B012A016DB67EB661E877E00E946A3C8A
S1131C808DB79EB78C199D090FB6F8949EBF0FBEF1
S1131C908DBFEDB7FEB731965F0162E072E088E375
S1131CA09DE00E94CF3960E776E088E39DE00E94E2
S1131CB0CF3962E072E088E39DE00E94CF394501AC
S1131CC08201C40CD51C0C151D055CF5C8010E94CD
S1131CD00C46F40181934F01882301F14AE0682FF7
S1131CE0CE0107960E94153D62E072E0CE01019696
S1131CF00E946A3CBE01695F7F4FCE0101960E943B
S1131D003F3EBC0188E39DE00E949639CE010196D6
S1131D100E94033CCE0107960E94033C0F5F1F4FB5
S1131D20D2CF62E072E088E39DE00E94CF3962E0A6
S1131D3072E088E39DE00E94CF39B501CE0101969F
S1131D400E946A3CBE016F5F7F4FC7010E94DE3C68
S1131D50CE0101960E94033C63E876E088E39DE0AF
S1131D600E94A439B70188E39DE00E94BF39C701EE
S1131D700FB6F8947EBE0FBE6DBE2C960FB6F894C7
S1131D80DEBF0FBECDBFDF91CF911F910F91FF90AA
S1131D90EF90DF90CF90BF90AF909F908F907F9007
S1131DA06F905F904F9008958F929F92AF92BF92E1
S1131DB0CF92DF92EF92FF920F931F93CF93DF9313
S1131DC0CDB7DEB72C970FB6F894DEBF0FBECDBFEC
S1131DD06B014A01ADB6BEB62DB73EB7261B370B15
S1131DE00FB6F8943EBF0FBE2DBFEDB7FEB73196C8
S1131DF07F01FC01448155814F5F5F4F20E030E05B
S1131E00B7010E94913E4AE0B601CE0107960E94B6
S1131E10403D6EE072E0CE0101960E946A3CBE0134
S1131E20695F7F4FCE0101960E943F3EBC0188E36B
S1131E309DE00E94BF39CE0101960E94033CCE0171
S1131E4007960E94033C65E172E088E39DE00E94EE
S1131E50CF3962E072E088E39DE00E94CF398401CB
S1131E60C80CD91C0C151D056CF5F701608166239F
S1131E7019F1C8010E941446F7016081CE0107964A
S1131E800E94FE3C62E072E0CE0101960E946A3C30
S1131E90BE01695F7F4FCE0101960E943F3EBC01A7
S1131EA088E39DE00E949639CE0101960E94033C8E
S1131EB0CE0107960E94033C0F5F1F4FFFEFEF1AFE
S1131EC0FF0AD0CF62E072E088E39DE00E94CF3940
S1131ED081E00FB6F894BEBE0FBEADBE2C960FB611
S1131EE0F894DEBF0FBECDBFDF91CF911F910F914C
S1131EF0FF90EF90DF90CF90BF90AF909F908F9026
S1131F000895CF93DF93CDB7DEB72C970FB6F8942F
S1131F10DEBF0FBECDBF40E060E083E69BE00E94E1
S1131F201A3161E083E69BE00E94A5394091AD0A35
S1131F305091AE0A6091AF0A7091B00A8091A90ADB
S1131F409091AA0AA091AB0AB091AC0A480F591F0C
S1131F506A1F7B1F41505109610971098091B10ABF
S1131F609091B20AA091B30AB091B40A481B590BDC
S1131F706A0B7B0B2AE0CE0107960E94943D6AE926
S1131F8076E0CE0101960E946A3CBE01695F7F4FF4
S1131F90CE0101960E943F3E61EA76E00E94503EE7
S1131FA0BC0183E69BE00E949639CE0101960E9413
S1131FB0033CCE0107960E94033C2C960FB6F8947E
S1131FC0DEBF0FBECDBFDF91CF910895FC01DB01D1
S1131FD012968D919C9113979383828314964D91BD
S1131FE05D916D917C9117974483558366837783C4
S1131FF018964D915D916D917C911B974087518707
S1132000628773878CEE99E0918380831C968C9110
S113201084870895CF92DF92EF92FF920F931F93DC
S1132020CF93DF93CDB7DEB7E0970FB6F894DEBF5A
S11320300FBECDBFE091440BF091450B3296ED30CD
S1132040F10508F040C6EA5BFF4F0C9481400E9402
S11320500A0267EA76E088E39DE00E94A439609171
S1132060E10B7091E20BCE0101960E942603BE01A2
S11320706F5F7F4FCE018B9652DDCE0101960E9499
S11320803F034FA558A94F5F5F4F20E030E068E35E
S113209071E0CE018B960E94913E0E940A026091EB
S11320A0E10B7091E20B625F7F4FCE0101960E94BB
S11320B02603BE016F5F7F4FCE01859630DDCE01D2
S11320C001960E943F030E940A026091E10B709105
S11320D0E20B645E7F4FCE0101960E942603BE018F
S11320E06F5F7F4FCE014F961ADDCE0101960E949D
S11320F03F030E940A026091E10B7091E20B665D5E
S11321007F4FCE0101960E942603BE016F5F7F4F71
S1132110CE01479604DDCE0101960E943F034B8D0C
S11321205C8D4F5F5F4F20E030E06AE471E0CE01E8
S113213047960E94913E0E940A026091E10B7091C1
S1132140E20B685C7F4FCE0101960E942603BE011C
S11321506F5F7F4FCE010F96E2DCCE010F960E9497
S11321605B3F7093540160935301CE010F960E941C
S1132170033CCE0101960E943F038091440B909151
S1132180450B01969093450B8093440BCE014796E3
S11321900E94033CCE014F960E94033CCE018596DB
S11321A00E94033CCE018B968CC52FEF39EF80E063
S11321B0215030408040E1F700C0000026D99FEF55
S11321C029EF30E0915020403040E1F700C000009A
S11321D026D98FEF99EF20E0815090402040E1F71D
S11321E000C000008091440B9091450B01969093A0
S11321F0450B8093440B67C583E69BE00E94043142
S113220010927B0B0E9493018FE39CE90197F1F7F5
S113221000C0000060EC76E089EF9AE00E94E93C9F
S11322206FEF71E08FEF9AE00E94E93C64ED76E095
S113223085E09BE00E94E93C6091440B7091450B62
S113224042E350E083EF9AE00E944E0478949FEFBB
S113225023ED30E3915020403040E1F700C000000E
S113226060912E0170912F01809130019091310184
S11322704CC76FEF71E089E99AE00E94E93C6FEF87
S113228071E083E99AE00E94E93C63E972E0CE01DF
S113229047960E946A3C80917B0B81110FC0CE014E
S11322A001960E945D06BE016F5F7F4FCE01479687
S11322B00E94DE3CCE0101960E94033C63E972E079
S11322C0CE0147960E94733E8111CFC04499CDC080
S11322D06FEF71E088E39DE00E94CF3961E078E020
S11322E088E39DE00E94A43961E478E0CE01019680
S11322F00E946A3CBE01695E7F4FCE0101960E9436
S11323003F3EBC0188E39DE00E94BF39CE010196A7
S11323100E94033C61E078E088E39DE00E94A439D8
S113232060E578E088E39DE00E94CF39BE01695EF4
S11323307F4F87E19BE00E94C13C83E69BE00E94C3
S1132340FC3083E69BE00E9462318FE39CE90197B5
S1132350F1F700C0000065E778E089EF9AE00E9499
S1132360E93C67E878E08FEF9AE00E94E93C6AE98B
S113237078E0CE0101960E946A3CBE01695E7F4FFF
S1132380CE0101960E943F3EBC0185E09BE00E9485
S1132390C13CCE0101960E94033C6091440B7091B4
S11323A0450B44E650E083EF9AE00E944E040E94FD
S11323B097019FEF23ED30E3915020403040E1F747
S11323C000C000006EED75E089EF9AE00E94E93CE0
S11323D060EF75E08FEF9AE00E94E93C67EF75E0EB
S11323E085E09BE00E94E93CBE01695E7F4FCE011F
S11323F00F960E94D63C61EC7AE0CE010196E6DDB0
S11324009E01215F3F4FAE014F5F5F4F68E371E074
S113241080E590E00E942E07182FCE010F960E94AF
S1132420033C112309F4B9C4449A6DEF77E085E3C2
S11324309BE00E94E93C48EC50E060E070E081E001
S11324400E944A038FEF93EC29E081509040204092
S1132450E1F700C0000060912A0170912B01809186
S11324602C0190912D010E948304CE01479629C42A
S113247048DD6CE380E99AE00E94B91E80E99AE0A5
S11324800E94D01EE82E42E0BE01695E7F4F90E0BC
S11324900E943E4363EC80E99AE00E94B91E80E901
S11324A09AE00E94D01EF82E42E0BE01615F7F4F89
S11324B090E00E943E43FE24EF2CF12C42E0BE014A
S11324C06F5F7F4FC7010E943E43C7010E946803AC
S11324D02FEF39EF90E0215030409040E1F700C0F9
S11324E00000FED8F0C30DDD80919D0A90919E0AF4
S11324F00597E9F461E275E085E89BE00E94E93C18
S113250069E97AE08BE89BE00E94C13C6FEA78E0DD
S113251081E99BE00E94E93C1092410B6091220109
S1132520709123018091240190912501EEC560E012
S1132530CE010F960E9492058FE39CE90197F1F773
S113254000C00000BE01615F7F4F88E39DE00E94F0
S1132550BF392B893C8945E050E0BE01615F7F4F64
S1132560CE0101960E94BF3EBE016F5F7F4F85E89A
S11325709BE00E94DE3CCE0101960E94033C25E0D4
S113258030E040E050E0BE01615F7F4FCE01019634
S11325900E94BF3EBE016F5F7F4F8BE89BE00E94AD
S11325A0DE3CCE0101960E94033C6FEA78E081E9AB
S11325B09BE00E94E93C63E277E0CE0101960E9431
S11325C06A3C65E87BE0CE0101960E943F3EBC0177
S11325D088E39DE00E94BF39CE0101960E94033C2E
S11325E065E377E0CE0101960E946A3C6BE87BE0EC
S11325F0CE0101960E943F3EBC0188E39DE00E940B
S1132600BF39CE0101960E94033C6EE376E085E873
S11326109BE00E94733E8111F3C369EC75E085E889
S11326209BE00E94733E8111EBC3CE010F9649C318
S113263068DC6EE376E085E89BE00E94733E8111DE
S113264016C48091410B823009F03DC410C459DC9A
S11326506CE380E99AE00E94B91E80E99AE00E9446
S1132660D01EE82E42E0BE01695E7F4F90E00E94DA
S11326703E4363EC80E99AE00E94B91E80E99AE047
S11326800E94D01EF82E42E0BE01615F7F4F90E0B1
S11326900E943E43FE24EF2CF12C42E0BE016F5F0A
S11326A07F4FC7010E943E43C7010E9468039FEF0A
S11326B029EF30E0915020403040E1F700C00000A5
S11326C04BD91092430B1092420BFDC21ADC019BB2
S11326D008C069EC75E085E89BE00E94733E8111B7
S11326E035C4199BF0C26EE376E085E89BE00E9456
S11326F0733E81116EC4E7C204DC8091420B909159
S1132700430B0E943E0A6B017C0122E0AB01BC0139
S1132710CE010F960E94BF3D6DE377E0CE01019696
S11327200E946A3CBE01615F7F4FCE0101960E9408
S11327303F3EBC0189EF9AE00E94C13CCE01019664
S11327400E94033CCE010F960E94033C60EF75E0AB
S1132750CE0101960E946A3C6BE87BE0CE010196B3
S11327600E943F3EBC018FEF9AE00E94C13CCE0123
S113277001960E94033C65E477E0CE0101960E9435
S11327806A3C6CE47BE0CE0101960E943F3EBC01B2
S113279085E09BE00E94C13CCE0101960E94033C6F
S11327A041E060E083E69BE00E941A3169EF7AE041
S11327B083E69BE00E94963942E060E083E69BE07A
S11327C00E941A316FEF7AE083E69BE00E9496390B
S11327D043E060E083E69BE00E941A3165E07BE021
S11327E083E69BE00E949639019908C069EC75E084
S11327F085E89BE00E94733E81112CC4199963C241
S11328006EE376E085E89BE00E94733E811151C43B
S11328105AC26CE47BE089EF9AE00E94C13C62E515
S113282077E08FEF9AE00E94E93C6FEF71E085E07A
S11328309BE00E94E93C6091440B7091450B44E697
S113284050E083EF9AE00E944E046FEF71E08BE05A
S11328509BE00E94E93C07E11BE02BE3E22E2BE026
S1132860F22EB801CE0101960E94D63C60E677E0D4
S1132870CE0101960E94503EBC018BE09BE00E9479
S1132880193ECE0101960E94033C0A5F1F4FE016D9
S1132890F10639F76AE471E08BE09BE00E941F3E89
S11328A062E677E0CE0101960E946A3C6BE07BE031
S11328B0CE0101960E943F3EBC0188E39DE00E9448
S11328C0BF39CE0101960E94033C0E9495018FE31B
S11328D09FE10197F1F700C000000E9493019FEF70
S11328E029E638E1915020403040E1F700C0000073
S11328F083E69BE00E9404316EE170E080E090E0AA
S113290004C44499E0C14AE050E069E070E083EF18
S11329109AE00E944E046FEF71E08BE09BE00E940E
S1132920E93C07E11BE09BE3E92E9BE0F92EB801AB
S1132930CE0101960E94D63C60E677E0CE01019676
S11329400E94503EBC018BE09BE00E94193ECE01E8
S113295001960E94033C0A5F1F4FE016F10639F707
S11329606AE471E08BE09BE00E941F3E62E677E040
S1132970CE0101960E946A3C6BE07BE0CE01019699
S11329800E943F3EBC0188E39DE00E94BF39CE0116
S113299001960E94033C8FEF93EC29E08150904014
S11329A02040E1F700C000006BE07BE0CE010F9611
S11329B00E94D63C6EEC7AE0CE01019607DB9E01C4
S11329C0215F3F4FAE014F5F5F4F68E371E080E5E9
S11329D090E00E948808182FCE010F960E94033CB5
S11329E0112321F10E9495013FEF83EC99E03150CE
S11329F080409040E1F700C000006DE677E088E396
S1132A009DE00E94CF398FE39FE10197F1F700C069
S1132A1000000E9493018FE39FE10197F1F700C04A
S1132A20000064E170E080E090E06FC30E949501D3
S1132A304BE054E064E070E0CE014F9600D9CE0143
S1132A404F960E945B3F6B017C0100910F0B10912C
S1132A50100B6BE07BE0CE0101960E94D63CA601F0
S1132A60B801CE010196A0D9182FCE0101960E947B
S1132A70033C112309F421C14AE0B601CE010F96AB
S1132A800E94403D64E877E0CE0101960E946A3CD2
S1132A90BE01615F7F4FCE0101960E943F3EBC01A3
S1132AA088E39DE00E94BF39CE0101960E94033C59
S1132AB0CE010F960E94033C92E3C90ED11C29EB70
S1132AC0C2162BE0D20624F080EDC82E87E0D82E63
S1132AD04AE0B601CE0147960E94403D0B8D1C8D05
S1132AE0BE01695E7F4FCE0101960E94D63C4BE049
S1132AF054E0B801CE01019657D9182FCE010196A2
S1132B000E94033C112301F14AE0B601CE010F9665
S1132B100E94403D6AE977E0CE0101960E946A3C3A
S1132B20BE01615F7F4FCE0101960E943F3EBC0112
S1132B3088E39DE00E94BF39CE0101960E94033CC8
S1132B40CE010F960E94033CCE0147960E94033C9F
S1132B50B4C06EEA77E088E39DE00E94CF3944E692
S1132B6050E060E070E081E00E944A033FEF81EEB4
S1132B7094E0315080409040E1F700C0000044E60A
S1132B8050E060E070E081E00E944A032FEF31EEF4
S1132B9084E0215030408040E1F700C0000044E66A
S1132BA050E060E070E081E00E944A039FEF21EE74
S1132BB034E0915020403040E1F700C0000084E44C
S1132BC00E94290A82E40E94290A0E9410034BE011
S1132BD054E064E070E0CE014F9631D8CE014F96B8
S1132BE00E945B3F7B0100ED17E00E151F050CF002
S1132BF04AC0A80162E370E0CE01479620D86BEE8C
S1132C0077E0CE0101960E946A3CBE01695E7F4F67
S1132C10CE0101960E943F3EBC0188E39DE00E94E4
S1132C20BF39CE0101960E94033CBE01695E7F4F0D
S1132C30CE010F960E94D63C6EEC7AE0CE0101964E
S1132C40C5D99E01215F3F4FAE014F5F5F4F68E3DF
S1132C5071E080E590E00E948808CE010F960E9402
S1132C60033C0E5C1F4F8FEF93EC29E081509040A2
S1132C702040E1F700C000000E940A02CE014796FE
S1132C800E94033CB2CF013D37E01307B4F06CEF70
S1132C9077E0CE0101960E946A3C4BE054E064E088
S1132CA070E0CE01019680D8CE0101960E94033CCB
S1132CB0B80180ED97E00E94D9020E94C50ACE01B6
S1132CC04F960E94033C85EB9AE00E942B2460936C
S1132CD09F0A7093A00A8093A10A9093A20A65EBBD
S1132CE07AE0CE0101960E94562486E0FE013196D8
S1132CF0A3EABAE001900D928A95E1F783EA9AE09B
S1132D000E947C236093B10A7093B20A8093B30A41
S1132D109093B40A0091AD0A1091AE0A2091AF0AC3
S1132D203091B00AC090A90AD090AA0AE090AB0AE8
S1132D30F090AC0A0C0D1D1D2E1D3F1D680179017C
S1132D40C61AD70AE80AF90AD701C6010297A105EB
S1132D50B10598F48091440B9091450B079719F0B5
S1132D600E94C50A0AC060911601709117018091F2
S1132D701801909119010E948304A895E0960FB65A
S1132D80F894DEBF0FBECDBFDF91CF911F910F919D
S1132D90FF90EF90DF90CF900895449A67EE76E02D
S1132DA085E39BE00E94E93C83E69BE00E941431AA
S1132DB06BEE76E089EF9AE00E94E93C6FEF76E0F3
S1132DC08FEF9AE00E94E93C61E177E085E09BE0C7
S1132DD00E94E93C6091440B7091450B4AE050E03D
S1132DE083EF9AE00E944E043FEF83ED90E331506D
S1132DF080409040E1F700C000000E94C50A35CB36
S1132E006BE87BE08DE19BE00E94C13C65E87BE0E0
S1132E1083E29BE00E94C13C65E377E0CE0101962A
S1132E200E946A3C6BE87BE0CE0101960E943F3E23
S1132E30BC0185E09BE00E94C13CCE0101960E944A
S1132E40033C8FEF99E628E1815090402040E1F760
S1132E5000C000001092410B609122017091230187
S1132E6080912401909125010E948304DECB6EE3BE
S1132E7076E085E89BE00E94E93C66E376E08CE43A
S1132E809BE00E94E93C65E87BE083E29BE00E94D2
S1132E90C13C60E476E089EF9AE00E94E93C61E598
S1132EA076E08FEF9AE00E94E93C65E576E085E004
S1132EB09BE00E94E93C3FEF81EE94E0315080407A
S1132EC09040E1F738C069EC75E085E89BE00E942A
S1132ED0733E811105C08091410B813009F0F3CE1E
S1132EE069EC75E085E89BE00E94E93C67E276E0E6
S1132EF08CE49BE00E94E93C65E87BE083E29BE094
S1132F000E94C13C60E476E089EF9AE00E94E93CCB
S1132F1061E576E08FEF9AE00E94E93C65E576E0B2
S1132F2085E09BE00E94E93C2FEF31EE84E02150E4
S1132F3030408040E1F700C00000609126017091AC
S1132F4027018091280190912901DFC0F89464EA57
S1132F5078E089EF9AE00E94E93C60EF75E0CE01E9
S1132F6001960E946A3C6BE87BE0CE0101960E94C8
S1132F703F3EBC018FEF9AE00E94C13CCE01019616
S1132F800E94033C65E477E0CE0101960E946A3C0E
S1132F906CE47BE0CE0101960E943F3EBC0185E0DB
S1132FA09BE00E94C13CCE0101960E94033C84E454
S1132FB00E94120A1092430B1092420B60911A0164
S1132FC070911B0180911C0190911D010E9483044A
S1132FD088CBF89464EA78E089EF9AE00E94E93CAF
S1132FE060EF75E0CE0101960E946A3C6BE87BE0DD
S1132FF0CE0101960E943F3EBC018FEF9AE00E94F1
S1133000C13CCE0101960E94033C65E477E0CE0109
S113301001960E946A3C6CE47BE0CE0101960E941A
S11330203F3EBC0185E09BE00E94C13CCE0101967D
S11330300E94033C82E40E94120A1092430B1092F5
S1133040420B60911A0170911B0180911C019091B7
S11330501D015BC022E0B701A601CE0101960E94CA
S1133060BF3DBE016F5F7F4F89E29BE00E94DE3C63
S1133070CE0101960E94033C61EB78E08CE49BE076
S11330800E94E93C67E070E081E090E00E94930ACE
S113309067E070E081E090E00E94690A60911601A7
S11330A07091170180911801909119010E94830475
S11330B0A5CB22E0B701A601CE0101960E94BF3D37
S11330C0BE016F5F7F4F89E29BE00E94DE3CCE0130
S11330D001960E94033C61EB78E08CE49BE00E9443
S11330E0E93C67E070E081E090E00E94930A67E0C9
S11330F070E081E090E00E94690A6091160170918D
S1133100170180911801909119010E948304DBCD6D
S11331101F920F920FB60F9211240BB60F922F939A
S11331203F934F935F936F937F938F939F93AF934B
S1133130BF93EF93FF938091440B9091450B0797B6
S113314099F52091420B3091430B8091510190915C
S113315052012817390740F5059B08C069EC75E052
S113316085E89BE00E94733E811114C0069B1CC03D
S11331706EE376E085E89BE00E94733E8823A1F02D
S11331808091420B9091430B01969093430B809353
S1133190420B0AC08091420B9091430B019690938D
S11331A0430B8093420BE2CFFF91EF91BF91AF911C
S11331B09F918F917F916F915F914F913F912F914B
S11331C00F900BBE0F900FBE0F901F9018951F927B
S11331D00F920FB60F9211248F939F938091440BFB
S11331E09091450B049709F06AC04E9B1CC08091D6
S11331F0990B90919A0B019690939A0B8093990B4B
S11332008091990B90919A0B181619061CF510923F
S11332109A0B1092990B1092980B1092970B82E0D4
S11332208093410B17C08091970B9091980B019656
S11332309093980B8093970B8091970B9091980B98
S1133240029744F010929A0B1092990B1092980BDB
S11332501092970B4F9B1CC08091990B90919A0BE5
S1133260019690939A0B8093990B8091990B90916E
S11332709A0B181619061CF510929A0B1092990BBA
S11332801092980B1092970B81E08093410B17C01A
S11332908091970B9091980B01969093980B809343
S11332A0970B8091970B9091980B029744F0109292
S11332B09A0B1092990B1092980B1092970B9F9166
S11332C08F910F900FBE0F901F9018951F920F9221
S11332D00FB60F9211240BB60F922F933F934F9377
S11332E05F936F937F938F939F93AF93BF93EF936A
S11332F0FF936FEF71E08BE39BE00E94E93C109237
S1133300430B1092420B10927B0B61E275E085E84F
S11333109BE00E94E93C61E275E08BE89BE00E943F
S1133320E93C6FEA78E081E99BE00E94E93C109275
S1133330410B67E070E081E090E00E94690A67E079
S113334070E081E090E00E94930A0E9495010E943F
S1133350930182B182B982B182B96FEF71E089EFD2
S11333609AE00E94E93C6FEF71E08FEF9AE00E94CF
S1133370E93C6FEF71E08FEF9AE00E94E93C109214
S1133380B10A1092B20A1092B30A1092B40A1092BF
S1133390AD0A1092AE0A1092AF0A1092B00A6FEF03
S11333A071E089E99AE00E94E93C8FEF9FEF9093E6
S11333B0450B8093440BFF91EF91BF91AF919F9187
S11333C08F917F916F915F914F913F912F910F90CA
S11333D00BBE0F900FBE0F901F9018958F92AF9257
S11333E0CF92EF920F93CF93DF9300E020E040E081
S11333F060E083EE9BE00E94113963E771E08BE9A2
S11334009BE00E946A3C64E871E081EA9BE00E94D0
S11334106A3CCBE9DBE088EE93E09D878C8767E923
S113342071E089EA9BE00E946A3C60EA71E08FEAFD
S11334309BE00E946A3C8CEF93E09B8F8A8F6FEA3B
S113344071E087EB9BE00E946A3C6AEC71E08DEBD3
S11334509BE00E946A3C8BE094E099A788A760ED0A
S113346071E085EC9BE00E946A3C6DED71E08BECB1
S11334709BE00E946A3C80E194E09FAB8EAB65EEDA
S113348071E083ED9BE00E946A3C6FEE71E089ED90
S11334909BE00E946A3C8AE194E09093E00B809365
S11334A0DF0B6FEF71E085E89BE00E946A3C6FEFF1
S11334B071E08BE89BE00E946A3C6FEF71E081E968
S11334C09BE00E946A3C1F9283E08F9387E0882EE2
S11334D096E0A92E25E0C22E34E0E32E21E042E05E
S11334E067E283E69BE00E94993243E064E082E570
S11334F09BE080D461EC78E08CE49BE00E946A3C21
S11335006FEF71E086E49BE00E946A3C6FEF71E02C
S11335108BE39BE00E946A3C6FEF71E087E19BE0E4
S11335200E946A3C6FEF71E08DE19BE00E946A3C6F
S11335306FEF71E083E29BE00E946A3C6FEF71E001
S113354089E29BE00E946A3C6FEF71E08FE29BE0AE
S11335500E946A3C6FEF71E085E39BE00E946A3C45
S11335606FEF71E081E19BE00E946A3C6FEF71E0D4
S11335708BE09BE00E946A3C61E275E083EF9AE095
S11335800E946A3C61E275E089EF9AE00E946A3C1D
S113359061E275E08FEF9AE00E946A3C61E275E0B7
S11335A085E09BE00E946A3C04E623E048EA60EC84
S11335B08DEE9AE00E94113905E121E048EA60ECC1
S11335C087EE9AE00E94113901E020E048EA60ECBD
S11335D081EE9AE00E94113900E020E04FEF6FEF96
S11335E08BED9AE00E9411398EEC9AE00E94FF293B
S11335F081EC9AE00E94FF2985EB9AE00E94B123B6
S113360040E050E0BA0183EA9AE03FD76FEF71E0FF
S113361089E99AE00E946A3C6FEF71E083E99AE0DD
S11336200E946A3C0F900F9080E99AE0DF91CF915D
S11336300F91EF90CF90AF908F903CC3CF93DF93D7
S113364083E99AE00E94033C89E99AE00E94033CE2
S113365085EB9AE00E94B82385E09BE00E94033C3E
S11336608FEF9AE00E94033C89EF9AE00E94033CAA
S113367083EF9AE00E94033C8BE09BE00E94033CB2
S113368081E19BE00E94033CCBE3DBE02697CE0183
S11336900E94033C8BE0C731D807C1F78BE39BE062
S11336A00E94033C86E49BE00E94033C8CE49BE084
S11336B00E94033C81E99BE00E94033C8BE89BE071
S11336C00E94033C85E89BE00E94033CC1EEDBE0E2
S11336D02E97CE010E943F038BE0CB39D807C1F768
S11336E0DF91CF910895CF92DF92EF92FF920F93E3
S11336F01F93CF93DF93CDB7DEB764970FB6F894DB
S1133700DEBF0FBECDBF0E9410030C9A8FE39CE96D
S11337100197F1F700C00000559A8FE39CE90197E7
S1133720F1F700C000008FE39CE90197F1F700C0B6
S11337300000239A8FE39CE90197F1F700C0000091
S11337403C9A8FE39CE90197F1F700C00000559A79
S11337508FE39CE90197F1F700C00000209A9FEFE6
S113376021EE84E0915020408040E1F700C0000049
S11337700E9495019FEF21EE84E09150204080400B
S1133780E1F700C000002C9A9FEF21EE84E09150F5
S113379020408040E1F700C00000289A9FEF21EE0E
S11337A084E0915020408040E1F700C000002C9A52
S11337B09FEF21EE84E0915020408040E1F700C06B
S11337C00000149A9FEF21EE84E091502040804045
S11337D0E1F700C000002B989FEF21EE84E09150A8
S11337E020408040E1F700C000009FEF21EE84E01C
S11337F0915020408040E1F700C000006AEC78E07E
S113380088E39DE00E94CF390E940A028BE99BE085
S11338109093E20B8093E10B0E940A026FED78E033
S113382088E39DE00E94A4394AE050E060E070E142
S113383088E39DE00E94383A62E072E088E39DE00C
S11338400E94CF396AEF78E088E39DE00E94A439B2
S11338506FEF71E0CE010F960E946A3C60E070E168
S113386080E090E00E94D9026091E10B7091E20B3C
S1133870CE0101960E942603CE0101960E944602C3
S1133880182FCE0101960E943F03112331F063E10A
S113389079E088E39DE00E94CF396091E10B70915B
S11338A0E20B625F7F4FCE0101960E942603CE0198
S11338B001960E944602182FCE0101960E943F03F2
S11338C0112331F063E179E088E39DE00E94CF3970
S11338D06091E10B7091E20B645E7F4FCE01019623
S11338E00E942603CE0101960E944602182FCE01A3
S11338F001960E943F03112331F063E179E088E3EC
S11339009DE00E94CF396091E10B7091E20B665DFE
S11339107F4FCE0101960E942603CE0101960E949C
S11339204602182FCE0101960E943F03112331F065
S113393063E179E088E39DE00E94CF396091E10B77
S11339407091E20B685C7F4FCE0101960E942603C2
S1133950CE0101960E944602182FCE0101960E94C4
S11339603F03112331F063E179E088E39DE00E9495
S1133970CF390E940A023E9A3F9A0F9A8FE39CE93C
S11339800197F1F700C00000479A8FE39CE9019783
S1133990F1F700C00000179A0E940A0220E044E0F8
S11339A064E183E69BE00E941F3383E69BE00E9470
S11339B0FC309FEF24E38CE0915020408040E1F7FD
S11339C000C0000083E69BE00E9404319FEF24E3E3
S11339D08CE0915020408040E1F700C0000083E675
S11339E09BE00E94FC309FEF24E38CE09150204048
S11339F08040E1F700C0000083E69BE00E940431B0
S1133A009FEF24E38CE0915020408040E1F700C018
S1133A10000047E551E061E083E69BE00E94E2316B
S1133A209FEF29EF80E0915020408040E1F700C0F3
S1133A30000083E69BE00E94FC3003EF1AE09BE069
S1133A40E92E9BE0F92E6FEF71E0C8010E94E93C7A
S1133A500A5F1F4FE016F106B1F70E940A0282E5E1
S1133A609BE0D7D19FEF20E782E091502040804037
S1133A70E1F700C0000082E59BE046D36B017C01C6
S1133A80672B682B692B69F56CE179E088E39DE08D
S1133A900E94A43983E69BE00E94FC309FEF24E35C
S1133AA08CE0915020408040E1F700C0000083E6A4
S1133AB09BE00E94143165E379E083E69BE00E9479
S1133AC0A4399FEF27EA81E6915020408040E1F736
S1133AD000C000006FE479E08CE49BE00E94E93CC4
S1133AE006C062E679E088E39DE00E94CF3967E78B
S1133AF079E088E39DE00E94A4394F2D552766277D
S1133B00772720E130E088E39DE00E943D3A66E8B3
S1133B1079E088E39DE00E94A4394E2D50E060E0F6
S1133B2070E02AE030E088E39DE00E94263A6EE2ED
S1133B3088E39DE00E94A5394D2D50E060E070E0DF
S1133B402AE030E088E39DE00E943D3A6FEF82E591
S1133B509BE03DD382E59BE016D30E940A0240EA33
S1133B6056E861E070E085EB9AE045D6811110C01B
S1133B7064EE71E088E39DE00E94AF399FEF23ED8E
S1133B8080E3915020408040E1F700C00000E7CF7F
S1133B909FEF20E782E0915020408040E1F700C091
S1133BA0000066EC71E088E39DE00E94AF3985EB8C
S1133BB09AE0AAD70E940A0265E979E088E39DE0C9
S1133BC00E94CF3982EE9CE00E94823668E270E067
S1133BD082EE9CE00E949F3660E082EE9CE00E94B0
S1133BE0443660E582EE9CE00E94443682EE9CE01E
S1133BF00E9416379FEF20E782E0915020408040DA
S1133C00E1F700C0000062E570E082EE9CE00E94F3
S1133C109F3660E082EE9CE00E94443660E582EECE
S1133C209CE00E94443682EE9CE00E94163782EEAD
S1133C309CE00E94913669EC79E088E39DE00E9463
S1133C40CF390E940A0260E280E99AE038D02CE37E
S1133C5040E063EC80E99AE038D08EEF9FEF9093D8
S1133C60450B8093440B6AED79E08CE49BE00E9461
S1133C70E93C6CE47BE088E39DE00E94BF390E944C
S1133C800A020E940A020E940A020E941C03CE0138
S1133C900F960E94033C64960FB6F894DEBF0FBEE5
S1133CA0CDBFDF91CF911F910F91FF90EF90DF90E7
S1133CB0CF900895FC011082118212820895FC01B4
S1133CC0608382EE9CE00C948236FF920F931F93E4
S1133CD0CF93DF93EC01F62E042F122F688182EE2E
S1133CE09CE00E94953661E082EE9CE00E9444369E
S1133CF06F2D82EE9CE00E94443682EE9CE00E948E
S1133D001637688182EE9CE00E94953662E082EE6E
S1133D109CE00E944436602F82EE9CE00E94443670
S1133D2082EE9CE00E9416378FE39CE90197F1F73D
S1133D3000C00000688182EE9CE00E94953663E03A
S1133D4082EE9CE00E944436612F82EE9CE00E9449
S1133D50443682EE9CE00E9416378FE39CE901977B
S1133D60F1F700C00000DF91CF911F910F91FF90F8
S1133D700895CF93C62FFC01608182EE9CE00E94DF
S1133D80953663E082EE9CE00E9444366C2F82EE0E
S1133D909CE00E94443682EE9CE0CF910C9416374E
S1133DA0CF93DF93EC01688182EE9CE00E9495360C
S1133DB060E082EE9CE00E94443682EE9CE00E9429
S1133DC01637688170E041E050E082EE9CE00E948A
S1133DD01437C0E082EE9CE00E94B635892B31F0A6
S1133DE082EE9CE00E94BE35C82FF4CF8C2FDF9169
S1133DF0CF910895CF93DF93EC01862F6883498395
S1133E0060E00E94703B61E08981DF91CF910C9466
S1133E10703B82EE9CE00E9482368FE39CE901971E
S1133E20F1F700C0000008954F925F926F927F9265
S1133E308F929F92AF92BF92EF92FF920F931F9334
S1133E40CF93DF93CDB7DEB72C970FB6F894DEBFD0
S1133E500FBECDBF7C015A01280139016FEF71E01B
S1133E600E946A3C8501812C912C54018414950490
S1133E70A604B70409F446C0F80161918F0140E13A
S1133E80CE016031F0F401960E94153DB701CE01D8
S1133E9007960E94D63C6FEA78E0CE0107960E940E
S1133EA0503EBE016F5F7F4F0E943F3EBC01C70181
S1133EB00E94C13CCE0107960E94033CCE010196AC
S1133EC019C007960E94153DB701CE0101960E94C4
S1133ED0D63CBE01695F7F4FCE0101960E943F3EF2
S1133EE0BC01C7010E94C13CCE0101960E94033C63
S1133EF0CE0107960E94033CFFEF8F1A9F0AAF0A78
S1133F00BF0AB4CF88E39DE00E94AC39C7012C9668
S1133F100FB6F894DEBF0FBECDBFDF91CF911F91D6
S1133F200F91FF90EF90BF90AF909F908F907F90F4
S1133F306F905F904F900895FC0180810E94DA3B5E
S1133F4091E0811190E0892F0895EF92FF920F93F1
S1133F501F93CF93DF937C018B01C0E0D0E0C701B6
S1133F60EBDF81110EC00115110521F02A960C1703
S1133F701D0738F08FE39CE90197F1F700C00000BA
S1133F80EECFDF91CF911F910F91FF90EF900895A5
S1133F90FF920F931F93CF93DF93F62E072F142FC7
S1133FA08FE39FE10197F1F700C0000042E0410F69
S1133FB064E282EE9CE00E94123782EE9CE00E9452
S1133FC0BE35CF2DD02FCE01810F911D8C01C0178E
S1133FD0D10761F08FE99FE00197F1F700C000007D
S1133FE082EE9CE00E94BE358993F1CFDF91CF91A0
S1133FF01F910F91FF900895CF93DF9300D000D0CD
S113400000D0CDB7DEB746E0BE016F5F7F4FC0DFA3
S113401046E050E065E671E0CE0101960E94174348
S113402021E0892B09F020E0822F26960FB6F89420
S1134030DEBF0FBECDBFDF91CF910895682F82EE12
S11340409CE00C944436CF92DF92EF92FF920F9350
S11340501F93CF93DF937B01C1E0C40F8FE39FE1F4
S11340600197F1F700C0000064E270E082EE9CE08A
S11340700E949F3680E0E2DF80E0E0DF8FEFDEDF4A
S11340808C2FDCDF8C2F8195D9DF84EDD7DFC12C19
S113409083EDD82ED0E021970C2D10E00C171D07CE
S11340A054F40E0D1F1DF8018081C8DFF8018081D2
S11340B0D80EC394F1CF8D2D8095C0DF80E0BEDF94
S11340C082EE9CE0DF91CF911F910F91FF90EF90D2
S11340D0DF90CF900C9416370F931F93CF93DF93F9
S11340E0EC018901B0DFB801CE012FDF882331F064
S11340F0CE01DF91CF911F910F917ECF80E0DF91B0
S1134100CF911F910F910895CF93DF93EC0182E03B
S11341108093E90B28EE33E041E069EE7BE0CE01C9
S1134120DBDF811104C060E070E0CB0129C04CE00A
S113413069EE7BE0CE012CDF46E050E06FE571E0F4
S113414089EE9BE00E941743892B69F76091EF0B7E
S11341507091F00B762767277627CB01A0E0B0E0BB
S1134160BA2FA92F982F88272091F10B822BBA2FD1
S1134170A92F982F88272091F20BBC01CD01622B27
S1134180DF91CF910895CF93DF93EC0194E1909365
S1134190E90B81E08093EA0B9093EB0B8093EC0B9B
S11341A028EE33E044E069EE7BE0CE0195DF88231E
S11341B059F048E069EE7BE0CE01EADE81E09091BF
S11341C0EE0B953109F080E0DF91CF910895E9EE8F
S11341D0FBE022E3208325E021832FEF228321E0EB
S11341E02383648328EE33E045E0BF0175CFAF92AB
S11341F0BF92CF92DF92EF92FF920F931F93CF93D0
S11342007C016A0159018AE48093E90B81E080937F
S1134210EA0B6093EB0B980143E069EE7BE0C70186
S11342205BDF882321F1B801C7018FDEC82F882303
S1134230F1F044E169EE7BE0C701AADE8091F00B66
S11342408130A9F48091F50BF501808380E0909191
S1134250F50B891768F4282F30E0F901E751F44F82
S11342609585F601E20FF31F90838F5FF0CFC0E0D6
S11342708C2FCF911F910F91FF90EF90DF90CF90F3
S1134280BF90AF900895AF92BF92CF92DF92EF921A
S11342900F931F93CF93DF93EC01142F5C018AE0FB
S11342A0A80EB11C86E0F601D50101900D928A9505
S11342B0E1F750E0CE0102960E94FE42198780E4A5
S11342C08093E90B81E08093EA0BE11002C080E661
S11342D001C081E68093EB0B0093EC0B86E0F501C3
S11342E0ADEEBBE001900D928A95E1F780E049853F
S11342F0841760F4282F30E0FE01E20FF31F92814F
S1134300F901E751F44F92878F5FF1CF465F28EEB2
S113431033E069EE7BE0CE01DFDE882349F04CE038
S113432069EE7BE0CE0134DE81E09091F00B9111D7
S113433080E0DF91CF911F910F91EF90DF90CF90AC
S1134340BF90AF9008950F931F93CF93DF93EC0129
S11343508A0180E48093E90B81E08093EA0B80E397
S11343608093EB0B6093EC0B28EE33E044E069EEB2
S11343707BE0CE01B1DE811102C080E012C04AE1CF
S113438069EE7BE0CE0104DE8091F00B8111F5CF64
S113439080E1E1EFFBE0D80101900D928A95E1F70D
S11343A081E0DF91CF911F910F910895CF93DF9317
S11343B0EC0180E48093E90B81E08093EA0B80EACE
S11343C08093EB0B6093EC0B80E1FA01ADEEBBE064
S11343D001900D928A95E1F728EE33E044E169EE0D
S11343E07BE0CE0179DE882369F08FE39CE90197B5
S11343F0F1F700C000004AE169EE7BE0CE01C8DDC0
S113440081E001C080E0DF91CF910895803D27E0F5
S1134410920710F0805D974050E0E8E2F2E021E07E
S1134420261730F43491430F511D2F5F3196F8CF86
S1134430633038F09C0123703327232B11F44F5F32
S11344405F4FBC016D5F7F4F769567957695679555
S1134450EDE6F1E08E9F90018F9F300D9E9F300D11
S11344601124C9010197860F971F840F951F089582
S1134470FC01908190539A3008F090E08181805340
S11344802AE0929F800D112408958F929F92AF92FB
S1134490BF92CF92DF92EF92FF92CF93DF93EC0122
S11344A06A017B0180E8C81A83E4D80A8DE6E80A29
S11344B088E3F80A8CE3882E912CA12CB12CC70137
S11344C0B601A50194010E945F406D83CA01B90140
S11344D0A50194010E945F406C83C701B60120E1ED
S11344E03EE040E050E00E945F40CA01B90128E18B
S11344F030E040E050E00E945F406B83C701B601AA
S113450020E831E541E050E00E945F401882888154
S1134510982F937041E050E011F040E050E0BA0170
S113452063597E4F2617370738F0241B350B2D5659
S113453031408F5F8883EBCF81E089838981E82FC5
S1134540F0E0E95DFD4FE491911103C0823009F47C
S1134550EF5FF0E02E173F0720F02E1B3F0B8F5F1D
S1134560ECCF2F5F2A83DF91CF91FF90EF90DF9004
S1134570CF90BF90AF909F908F900895EF92FF924D
S11345800F931F93CF93DF93CDB7DEB72B970FB65F
S1134590F894DEBF0FBECDBF8C017A014BE050E032
S11345A0CE0101960E94F542CE010A9661DFF80120
S11345B08083E9818E2F90E0FC01E154F109E3311D
S11345C0F10548F5ED5AFF4F0C9481408A818136FC
S11345D029F08B818E3621F087E01BC081E019C061
S11345E086E017C082E015C08B81823711F088E025
S11345F010C084E00EC08B81823711F085E009C0C1
S113460083E007C089E005C08AE003C08BE001C0F5
S11346108CE0F8018183CE0105962ADFF8018283BC
S113462048E050E0B701CE0101960E94F542CE0168
S113463001961EDFF8018383CE01049619DFF80189
S11346408483CE01079614DFF80185832B960FB679
S1134650F894DEBF0FBECDBFDF91CF911F910F91B4
S1134660FF90EF900895FC0180814281618190E088
S1134670CDDE069667E070E00C944B400895EF920F
S1134680FF920F931F93CF93DF93EC0188814A81AC
S1134690698190E0BBDE9C01A8E1B0E00E948A4001
S11346A02B817B018C01E20EF11C011D111DA8015F
S11346B09701ACE3B0E00E9499402C817B018C010E
S11346C0E20EF11C011D111DA80197010E949940E1
S11346D02D81DC01CB01820F911DA11DB11DBC01F7
S11346E0CD0160587C4B8249974CDF91CF911F914B
S11346F00F91FF90EF900895EF92FF920F931F9305
S1134700CF93DF93EC0188814A81698190E07EDE5A
S11347109C01A8E1B0E00E948A402B817B018C01BE
S1134720E20EF11C011D111DA8019701ACE3B0E0DC
S11347300E9499402C817B018C01E20EF11C011D29
S1134740111DA80197010E9499402D81620F711DCE
S1134750811D911DDF91CF911F910F91FF90EF90DB
S11347600895FC011082118212821382148208952A
S113477008950F931F93CF93DF93EC01062F142F0B
S113478068E682EE9CE00E949536602F82EE9CE003
S11347900E944436612F82EE9CE00E94443682EEF1
S11347A09CE00E9416378883DF91CF911F910F916F
S11347B008951F93CF93DF93EC01162F68E682EEE2
S11347C09CE00E949536612F82EE9CE00E94443664
S11347D082EE9CE00E941637888341E068E682EE10
S11347E09CE00E94123782EE9CE00E94BE35DF916D
S11347F0CF911F910895CF92DF92EF92FF92CF93C2
S1134800DF93EC016A017B0182EE9CE00E94823618
S1134810B701A60182EE9CE00E94923668E682EE21
S11348209CE00E94953682EE9CE00E94163781112E
S11348300AC062E0CE01BDDF482F4F7B62E0CE01AB
S113484098DF81E001C080E0DF91CF91FF90EF908D
S1134850DF90CF900895CF92DF92EF92FF92CF93A3
S1134860DF93EC0161E1A5DFC82ED12CDC2CCC2434
S11348700D2C000CEE08FF0862E1CE019ADFA701BF
S11348809601282B96E055954795379527959A9547
S1134890D1F731FD3C6FA9E1B0E00E949940DF916E
S11348A0CF91FF90EF90DF90CF9008950F931F93D7
S11348B0CF93DF938C01EB0168E682EE9CE00E94CB
S11348C0953660E082EE9CE00E94443682EE9CE0E5
S11348D00E941637888347E068E682EE9CE00E94D7
S11348E0123782EE9CE00E94B635079709F064C047
S11348F082EE9CE00E94BE35982F969596959695EB
S11349009E70292F220F220F920F8F70890F8D8393
S113491082EE9CE00E94BE35982F969596959695CA
S11349209E70292F220F220F920F8F70890F8E8372
S113493082EE9CE00E94BE35982F969596959695AA
S11349409E70292F220F220F920F8F70890F8F8351
S113495082EE9CE00E94BE3582EE9CE00E94BE3551
S1134960982F9695969596959670292F220F220F3B
S1134970920F8F70890F888782EE9CE00E94BE356B
S113498084FB992790F9990F292F220F220F920F58
S11349908F70890F898782EE9CE00E94BE35982F24
S11349A092959F708F702AE0929F800D112490E061
S11349B08053984F9B878A872D813E814F815885EC
S11349C069858A859B85803D77E0970710F0805D37
S11349D09740F80180836183528343833483258322
S11349E0C801DF91CF911F910F910895DF92EF924B
S11349F0FF920F931F93CF93DF9300D000D000D08A
S1134A00CDB7DEB78C017B01FB0185819AE0D92EFD
S1134A106D2D0E943F40492FF0E18F9F400D1124DE
S1134A2060E0C801A6DEF70184816D2D0E943F403D
S1134A30492FF0E18F9F400D112461E0C80199DEF8
S1134A40F70183816D2D0E943F40492FF0E18F9F34
S1134A50400D112462E0C8018CDEC70104DE482F3A
S1134A6063E0C80186DEF70182816D2D0E943F401C
S1134A70492FF0E18F9F400D112464E0C80179DED5
S1134A80F70181816D2D0E943F40492FF0E18F9FF6
S1134A90400D112465E0C8016CDEF70180816D2DA5
S1134AA00E943F40492FF0E18F9F400D112466E0A2
S1134AB0C8015FDE6FE0C8017CDE482F4F776FE0EE
S1134AC0C80157DE6EE0C80174DE482F4F776EE0F0
S1134AD0C8014FDEB801CE010196E8DECE01019691
S1134AE0CEDDF801618372838383948326960FB6A7
S1134AF0F894DEBF0FBECDBFDF91CF911F910F9110
S1134B00FF90EF90DF9008950F931F93CF93DF935F
S1134B1000D000D000D0CDB7DEB78C014FE152E019
S1134B2063E172E0CE01019629DDBE016F5F7F4F24
S1134B30C8015CDF26960FB6F894DEBF0FBECDBF6A
S1134B40DF91CF911F910F9108950F9300E020E022
S1134B5040E060E089E29CE00E9411390F910895E1
S1134B60FB014281538164817581FC01428353833B
S1134B7064837583178216820895CF93DF93DA01D5
S1134B80FB01EB0189918111FDCF80E090E020E0F1
S1134B9030E04AE051915523E9F02430310544F5E1
S1134BA05E3269F48F3F910509F014F5ED01C20FEF
S1134BB0D31F8A832F5F3F4F80E090E0EBCF489F65
S1134BC0B001499F700D1124852F90E0C097860F86
S1134BD0971FE0CF8F3F910509F054F4243031053D
S1134BE03CF4FD01E20FF31F828381E090E002C0F8
S1134BF080E090E0DF91CF9108950F9300E020E0F2
S1134C0040E060E08FE29CE00E9411390F9108952A
S1134C108F929F92AF92BF92CF92DF92EF92FF92C8
S1134C200F931F93CF93DF9300D01F92CDB7DEB7BE
S1134C306C017B010E94973AF601778366838601B3
S1134C40085F1F4FB6016A5F7F4F42E050E0C80122
S1134C5030D581E090E09A83898342E050E0BE0140
S1134C606F5F7F4FC80125D580E091E09A838983E7
S1134C7042E050E0BE016F5F7F4FC8011AD51A822F
S1134C80198242E050E0BE016F5F7F4FC80111D529
S1134C9042E050E0BE016F5F7F4FC8010AD542E099
S1134CA050E0BE016F5F7F4FC80103D55701F50186
S1134CB080818823F9F0A7015A01F50181916F01E0
S1134CC0882321F08E3211F0A601F6CF4A018E1806
S1134CD09F081814190464F48B8241E050E0BE016B
S1134CE06D5F7F4FC801E5D4A401B701C801E1D4C9
S1134CF07601DDCF1B8241E050E0BE016D5F7F4F46
S1134D00C801D7D4E12CFF24F394FA82E98242E06B
S1134D1050E0BE016F5F7F4FC801CBD4FA82E982B5
S1134D2042E050E0BE016F5F7F4FC801C2D481E012
S1134D3090E00F900F900F90DF91CF911F910F9102
S1134D40FF90EF90DF90CF90BF90AF909F908F90A7
S1134D5008952F923F924F925F926F927F928F921B
S1134D609F92AF92BF92CF92DF92EF92FF920F93F6
S1134D701F93CF93DF93CDB7DEB763970FB6F89445
S1134D80DEBF0FBECDBF7C016B011A010E94973AB2
S1134D904B015C018701085F1F4F2601612C712CB8
S1134DA0C80129D518161906A4F00E94973ADC0107
S1134DB0CB0188199909AA09BB09481659066A063C
S1134DC07B06D0F062E370E080E090E00E94C83A95
S1134DD0E7CFF7014281538164817581818D928D82
S1134DE0A38DB48D481759076A077B0749F4858D4D
S1134DF0968DC59729F409C0EE24EA94FE2CF0C0E0
S1134E009EEFE92EFF24FA94EBC0C80108D40C9756
S1134E100CF4E2C04CE050E0BE016F5F7F4FC8016C
S1134E2083D48B819C819827892798279A8B898B97
S1134E30F7014681578129813A814217530711F4BA
S1134E4097FD07C0C80105D47CEFE72EFF24FA9430
S1134E50C7C08F709270892B39F0C801FAD36BEFF9
S1134E60E62EFF24FA94BCC0CF80D884DC24CD2461
S1134E70DC24C114D10419F0E12CF12C1FC0C801A9
S1134E80E8D35AEFE52EFF24FA94AAC041E050E09B
S1134E90BE01635F7F4FC80147D48D85811117C060
S1134EA08D858111F3CFC80117D4C80115D4C80169
S1134EB013D4C80111D4FFEFEF1AFF0A8D819E812C
S1134EC0982789279827E816F90600F309C08D85E5
S1134ED09FEF980F9D87882319F3C801FDD3F7CF5F
S1134EE0A12CB12C41E050E0BE016D5E7F4FC801A2
S1134EF01BD48B89982F907C59F4882379F08B8963
S1134F009FEF980F9B8B882331F0C801E5D3F7CF2F
S1134F10C801E2D31B8A8B898111E4CF42E050E0BF
S1134F20BE01615F7F4FC801FFD342E050E0BE0184
S1134F30635F7F4FC801F8D3C801CED3C801CCD377
S1134F40C801CAD3C801C8D342E050E0BE016F5EB5
S1134F507F4FC801E9D38F8598898115914049F421
S1134F60ED84FE84FE24EF24FE2481E0E816F1049F
S1134F7019F0E12CF12C14C089899A898115944087
S1134F8039F0C80166D347EFE42EFF24FA9428C011
S1134F90B1016E5F7F4F44E050E0C801C5D320C02B
S1134FA089899A89982789279827E816F90630F479
S1134FB0C80192D3FFEFEF1AFF0AF2CF2FEFA21A24
S1134FC0B20ACA14DB0409F08DCFC80142D336EF0C
S1134FD0E32EFF24FA9404C08DEFE82EFF24FA9404
S1134FE0C70163960FB6F894DEBF0FBECDBFDF9145
S1134FF0CF911F910F91FF90EF90DF90CF90BF90D2
S1135000AF909F908F907F906F905F904F903F9064
S11350102F9008958F929F92AF92BF92CF92DF927A
S1135020EF92FF920F931F93CF93DF9300D000D0A2
S113503000D0CDB7DEB77C014B015A019EDD8C0157
S1135040892B09F057C0F70142815381648175812E
S11350508091310C9091320CA091330CB091340CAE
S1135060481759076A077B0709F447C00E94973A13
S11350706701F8E0CF0ED11C6F7077277C5FC60103
S113508089D3813009F03BC080E79AE09A83898311
S1135090F70182819381A481B5818B839C83AD8345
S11350A0BE8345E350E0BE016F5F7F4FC601F7D278
S11350B0892B19F400E010E01AC0B401C701A8DD7F
S11350C0892BC1F3C601F2D2892BA1F383E0882E88
S11350D0912CA50168E873E1C7013BDE8C0121E056
S11350E0821A910821F00F3FFFEF1F0791F3C601C9
S11350F0C2D205C001E010E002C00EEF1FEFC801EC
S113510026960FB6F894DEBF0FBECDBFDF91CF91C8
S11351101F910F91FF90EF90DF90CF90BF90AF90D1
S11351209F908F90089524E030E0AC0164E081E02A
S113513090E035C624E030E0AC0164E085E090E026
S11351402EC626E030E0AC0164E089E090E027C69A
S113515024E030E0AC0164E08FE090E020C68F9260
S11351609F92AF92BF92CF92DF92EF92FF920F93F2
S11351701F93CF93DF934C015B016A01E901FC01AA
S113518064858FE69CE053D6C501DBDFC601029639
S1135190DFDFC8010296C7DFC7010296CBDF8A8131
S11351A09B81AC81BD81F40182839383A483B58305
S11351B0DF91CF911F910F91FF90EF90DF90CF90EF
S11351C0BF90AF909F908F90089520E73AE0FC0144
S11351D031832083FB014281538164817581FC0109
S11351E0428353836483758308950F9300E020E022
S11351F040E060E082E59CE00E94113985E39CE098
S11352000E940739E5E3FCE0138612868AE084876E
S11352100F910895DC01ED91FC91028CF38DE02D4A
S1135220099591E089270895CF93DF931F92CDB715
S1135230DEB76983DC01ED91FC910280F381E02DFE
S113524041E050E0BE016F5F7F4F09950F90DF9101
S1135250CF91089521E0FC018485883009F420E091
S1135260822F0895FC019485FB018485981303C063
S113527081E0983009F480E00895CF92DF92EF92B4
S1135280FF920F931F93CF93DF93CDB7DEB7AF9702
S11352900FB6F894DEBF0FBECDBF8C016B017A014F
S11352A0CE0101960E940739CE010996F3D2CE01B0
S11352B08A960E94073965E37CE0CE01849685DFF7
S11352C0BE016C5D7F4FCE0101964ADCAE01465DA6
S11352D05F4FB601CE0101969DDE81309105C1F488
S11352E0D801ED91FC910684F785E02D80E79AE0E2
S11352F09DA38CA38CA59DA5AEA5BFA58EA39FA39E
S1135300A8A7B9A7A701BE016C5D7F4FC801099585
S1135310AF960FB6F894DEBF0FBECDBFDF91CF912D
S11353201F910F91FF90EF90DF90CF9008950F930E
S11353301F93CF93DF938C01D42FC52FFC01848559
S1135340883041F481E090E0F8019383828380E027
S113535090E005C0CFD3892BA9F38D2F9C2FDF912B
S1135360CF911F910F910895FC016485683019F065
S11353708FE69CE0D0C580E090E00895CF93DF9362
S11353801F92CDB7DEB741E050E0BE016F5F7F4FA3
S1135390FC018485F7D3181619061CF4898190E062
S11353A002C08FEF9FEF0F90DF91CF910895FC0122
S11353B08485E8C30F931F93CF93DF931F92CDB7D8
S11353C0DEB78C01DC01ED91FC910084F185E02DC8
S11353D00995892B49F0BE016F5F7F4FF8018485E1
S11353E012D4898190E002C08FEF9FEF0F90DF917C
S11353F0CF911F910F910895FC01848511C4FC0184
S11354001382128288EE93E0A0E0B0E08483958357
S1135410A683B7838CEE99E09183808388E08487A8
S11354200895FC016485683039F06295660F607EEA
S1135430685F83E090E0DFC480E00895CF93DF935A
S1135440FC0124852830C9F0EC01EBDF843181F0C4
S1135450882371F0883161F08C3161F4E881F9813D
S11354600084F185E02DCE01099521E0892B19F402
S113547020E001C021E0822F01C080E0DF91CF91C4
S11354800895CF92DF92EF92FF92CF93DF93EC01D6
S11354908C85883069F129D30E94973A6B017C018D
S11354A0CE01BFDF8823A1F00E94973ADC01CB0133
S11354B08C199D09AE09BF09883E9340A105B10529
S11354C038F461E070E080E090E00E94C83AE8CFF0
S11354D0CE01A7DF882311F08C8596D2EC85F0E00D
S11354E0EE0FFF1FEE5BF34F1182108288E08C8772
S11354F0DF91CF91FF90EF90DF90CF900895CF92FE
S1135500DF92FF920F931F93CF93DF93FC012485C7
S11355102830C1F56A018B01EC01F12C6F2D6295E5
S1135520660F607E685F83E090E065D4811102C0FD
S1135530FC8607C08B7F8831D9F3F394F8E0FF121F
S1135540EDCF8C858830F1F020916B0130916C01A6
S11355502F5F3F4F11F420E034E030936C0120932F
S11355606B0140916B0150916C0120E061E057D2D6
S1135570B8016E5F7F4FA6018C8584D2811105C06E
S113558088E08C8780E090E00FC0CE014ADF87314D
S113559049F061E070E080E090E00E94C83ACE01FA
S11355A040DFECCF81E090E0DF91CF911F910F912C
S11355B0FF90DF90CF9008950F9300E020E040E04B
S11355C060E088E59CE00E9411390F9108950F93E3
S11355D000E020E040E060E08EE59CE00E941139AC
S11355E00F91089580E00895DC01ED91FC91048C05
S11355F0F58DE02D099420E73AE0FC013183208306
S1135600FB014189528963897489FC014283538374
S1135610648375830895FC01858996890895FC0146
S1135620818D928D0895CF93DF931F92CDB7DEB70E
S11356306983DC01ED91FC910280F381E02D41E06E
S113564050E0BE016F5F7F4F09950F90DF91CF91BE
S11356500895CF93DF93EC01898D9A8D892B41F0C6
S1135660E881F9810284F385E02DCE010995F4CF18
S1135670DF91CF910895CF93DF93EC018C8588302F
S113568059F0C2D1EC85F0E0EE0FFF1FEE5BF34F53
S11356901182108288E08C87DF91CF910895FC01FC
S11356A0108E178A6E5F7F4F8485E6C2FC01848565
S11356B006C3CF93DF93EC019A018F89988DAB01D8
S11356C0BC018C85AED22F89388D280F391F388FB5
S11356D02F8BDF91CF9108950F931F93CF93DF9377
S11356E01F92CDB7DEB7FC01218D328D232B59F0EB
S11356F08C0141E050E0BE016F5F7F4F848542D250
S1135700181619061CF08FEF9FEF08C0F801818D61
S1135710928D0197928F818F898190E00F90DF9114
S1135720CF911F910F910895CF93DF93FC01218DA9
S1135730328D2115310519F48FEF9FEF10C0EC0164
S11357404217530708F0A9018C851CD218161906B4
S11357509CF7298D3A8D281B390B3A8F298FDF91BD
S1135760CF910895CF93DF931F92CDB7DEB7FC019D
S1135770218D328D232B41F0BE016F5F7F4F8485D5
S113578042D2898190E002C08FEF9FEF0F90DF91AA
S1135790CF910895EF92FF921F93CF93DF93FC0173
S11357A02485283011F080E020C07B01EC0110E05A
S11357B0612F6295660F607E685F83E090E01BD383
S11357C0811102C01C8705C08831E1F31F5F1830C6
S11357D079F78C85883039F3FE86ED861A8E198E1A
S11357E020E0A70162E01BD181E0DF91CF911F91FE
S11357F0FF90EF9008950F931F93CF93DF93CDB74E
S1135800DEB728970FB6F894DEBF0FBECDBF8C016C
S1135810DC01ED91FC910680F781E02D0995F801FA
S113582064858FE69CE077D3892B39F148E050E01A
S1135830BE016F5F7F4FD8011C968C91A3D11816BF
S11358401906ECF4BE016F5F7F4FC8010F960E94EA
S11358501D398D8190E0982F88272E81820F911D0C
S1135860F801968B858B8F8190E0982F8827288567
S1135870820F911D928F818F02C080E090E0289664
S11358800FB6F894DEBF0FBECDBFDF91CF911F914D
S11358900F910895FC011382128288EE93E0A0E038
S11358A0B0E084839583A683B7838EE09AE09183E6
S11358B0808388E08487CF010F960C940739CF92B8
S11358C0DF92EF92FF920F931F93CF93DF93CDB7A5
S11358D0DEB7AF970FB6F894DEBF0FBECDBF8C0115
S11358E06B017A01CE0101960E940739CE01099617
S11358F0D1DFCE018A960E94073965E37CE0CE01B0
S1135900849663DCBE016C5D7F4FCE01019628D97D
S1135910AE01465D5F4FB601CE0101967BDB81305F
S11359209105C1F4D801ED91FC910488F589E02D2D
S113593080E79AE09DA38CA38CA59DA5AEA5BFA5E9
S11359408EA39FA3A8A7B9A7A701BE016C5D7F4F33
S1135950C8010995AF960FB6F894DEBF0FBECDBF50
S1135960DF91CF911F910F91FF90EF90DF90CF9037
S113597008950F9300E020E040E060E084E69CE0BE
S11359800E9411390F910895AB018295880F807E92
S11359906CE0680F24E030E08CE090E000C29B01F2
S11359A08295880F807E68E0680FC90124C262E096
S11359B070E0F5CF9B018295880F807E6CE0680FC4
S11359C0C901CFC1CF93DF93C82FD62F472F64E0EF
S11359D070E0F0DF4D2F65E070E08C2FDF91CF9108
S11359E0E9CF462F62E070E0E5CFCF93DF93C82F75
S11359F0D62F472F60E170E0DDDF4D2F61E170E0CD
S1135A008C2FDF91CF91D6CFCF93C82F40E1682F51
S1135A108FE69CE070D36FEF8C2FCF91E2CFFF9293
S1135A200F931F93CF93DF939FEF960F953018F545
S1135A30D22F8A01F62EC82FE7DF4F2D4D2B60E0C1
S1135A4070E08C2FB7DF0115110511F0B8010AC001
S1135A5060916A0C70916B0C6F5F7F4F70936B0C4D
S1135A6060936A0C8C2FAEDF41E06C2F8FE69CE0D4
S1135A7042D381E001C080E0DF91CF911F910F916B
S1135A80FF9008950F931F93CF93FB0190819F3F45
S1135A9051F491819F3F91F492819F3F79F49381D6
S1135AA09F3F61F41CC0911109C09181911106C0FE
S1135AB09281911103C09381992391F0411551056D
S1135AC071F08A01BF01C82F5FDFB8018C2F8DDF11
S1135AD044E06C2F8FE69CE00ED391E001C090E08F
S1135AE0892FCF911F910F91089548E0682F8FE679
S1135AF09CE001C3CF92DF92EF92FF920F931F932A
S1135B00CF93C82F7B018A014130584010F000E048
S1135B1018E06C2F8FE69CE0CDD16C0163E070E05F
S1135B208C2F3DDF873111F08C3121F4C016D10662
S1135B3080F302C000E010E09801A7016C2F8FE60B
S1135B409CE03DD240E26C2F8FE69CE0D4D28C2FB7
S1135B502EDF84FD0BC063E070E08C2F20DF811109
S1135B60F6CF8C2F51DF80E090E004C060E18C2FF1
S1135B7038DFC801CF911F910F91FF90EF90DF9014
S1135B80CF900895CF92DF92EF92FF920F931F93DD
S1135B90CF93DF93182F6B017A01682F8FE69CE077
S1135BA0BAD1EC01009791F463E070E0812FF7DE45
S1135BB08431F9F08823E9F0C1E0D0E08C3111F4AC
S1135BC0C0E0D0E0D195C195D10913C0E816F9061B
S1135BD00CF4E7011C161D0664F400E09E01A60106
S1135BE0612F8FE69CE03AD240E4612F8FE69CE07F
S1135BF082D2CE01DF91CF911F910F91FF90EF9050
S1135C00DF90CF9008950F93AB0101E021E030E0E5
S1135C10682F8FE69CE022D281E090E00F910895F6
S1135C200895AF92BF92CF92DF92FF920F931F938A
S1135C30CF93DF93F82E6B015A01E901682F8FE6A9
S1135C409CE038D18C179D0728F46F2D8FE69CE0DB
S1135C5031D1EC018E019501A6016F2D8FE69CE0F8
S1135C6074D1CE01DF91CF911F910F91FF90DF90FE
S1135C70CF90BF90AF9008950F931F93CF93FB01E4
S1135C809081911109C09181911106C09281911165
S1135C9003C09381992369F04115510551F08A019C
S1135CA0BF01C82F71DEB8018C2F9FDE81E090E028
S1135CB002C080E090E0CF911F910F910895CF939F
S1135CC0C82F40E2682F8FE69CE015D28C2F6FDE40
S1135CD084FD0AC08C2F6BDE83FFF8CF68E18C2F24
S1135CE080DE80E090E005C060E18C2F7ADE81E008
