:1000000063C100008BC1000089C1000087C10000EE
:100010000C944D1983C1000081C100000C94AC19EF
:100020007DC100007BC1000079C1000077C10000E4
:1000300075C1000073C1000071C100006FC10000F4
:100040000C94DA396BC100000C94C8370C94FA3761
:1000500065C1000063C1000061C100005FC1000014
:100060005DC100005BC100000C94153457C1000055
:1000700055C1000053C1000051C100004FC1000034
:100080004DC100004BC1000049C100004F0FD50F0A
:10009000FC0F3810F2107E117412D4126413CB13BB
:1000A000A9141D154C16AC22C322C322C022C322A0
:1000B000AA22C322C322C3229E22C322C322B32266
:1000C000BE22BC22C322C322C322BA2200407A101D
:1000D000F35A00A0724E18090010A5D4E80000E8F9
:1000E0007648170000E40B54020000CA9A3B000057
:1000F00000E1F505000080969800000040420F00E6
:100100000000A08601000000102700000000E803A6
:10011000000000006400000000000A000000000071
:100120000100000000002C76D888DC674F0823DF30
:10013000C1DFAE59E1B1B796E5E3E453C63AE65103
:10014000997696E8E6C28426EB898C9B62ED407C2A
:100150006FFCEFBC9C9F40F2BAA56FA5F490055AC6
:100160002AF75C936B6CF9676DC11BFCE0E40D47EB
:10017000FEF520E6B500D0ED902E0300943577050E
:100180000080841E080000204E0A000000C80C33C6
:100190003333330F986E12831141EF8D2114893B55
:1001A000E65516CFFEE6DB18D1844B381BF77C1DD5
:1001B000901DA4BBE424203284725E228100C9F128
:1001C00024ECA1E53D275254432063686970204424
:1001D00053333233314D20696E697469616C697AC9
:1001E00065642E006E6F6E2074726F766F206D6F77
:1001F00064756C6F20525443204453333233314D75
:100200004D2E20526970726F766F207472612033A8
:10021000732E004A756E2020392032303231003181
:10022000373A34363A3539001F1C1F1E1F1E1F1F58
:100230001E1F1E1F0000000004030807000002002C
:10024000090A00000000000000000000000000009B
:10025000000000010102040810204080010210206B
:1002600040801020408010082004408001020408D3
:100270000102040804040404040404040202020247
:100280000202010101010303030303030101010150
:1002900003030202000000002300260029000000E2
:1002A0000000250028002B0000000000240027008B
:1002B0002A002B1A32258A258228692A742A462C7C
:1002C0001630A5362838491B11241FBECFEFD0E4C5
:1002D000DEBFCDBF1AE0A0E0B1E0E6E7FBE800E05A
:1002E0000BBF02C007900D92A038B107D9F72DE0DF
:1002F000A0E8BAE001C01D92A83CB207E1F711E006
:10030000C3E6D1E004C02197FE010E940E40C9352A
:10031000D107C9F70E94B4380C94AF4571CE80E084
:1003200090E00895089544980895449A0895EF92AE
:10033000FF920F931F93CF93DF93CDB7DEB76897EC
:100340000FB6F894DEBF0FBECDBF80E69AE09A8369
:1003500089834091C90A5091CA0A6091CB0A709171
:10036000CC0A4B835C836D837E8398878F83409117
:10037000CF0A5091D00A6091D10A7091D20A498770
:100380005A876B877C879E878D874091D50A5091CD
:10039000D60A6091D70A7091D80A4F87588B698B1B
:1003A0007A8B9C8B8B8B8091DB0A9091DC0AA091DD
:1003B000DD0AB091DE0A8D8B9E8BAF8BB88FCE019C
:1003C00001967C018E01095F1F4F9E01235F3F4F05
:1003D000AE014D5E5F4F6EE271E08BE19CE00E94EA
:1003E0003C2868960FB6F894DEBF0FBECDBFDF91F4
:1003F000CF911F910F91FF90EF9008951816190655
:1004000044F4EFE9FFE03197F1F700C000000197F5
:10041000F5CF0895CF938EE19DE00E943939CDE765
:1004200069EE71E08EE19DE00E943139C150C1F763
:100430008EE19DE0CF910C943939CF93DF93D82F83
:10044000C0E0CD1741F06BEE71E08EE19DE00E94BF
:100450003139CF5FF6CFDF91CF910895CF93C82F79
:1004600081E0EBDF6DEE71E08EE19DE00E943139BD
:10047000CC2319F061EF71E002C066EF71E08EE10C
:100480009DE00E94313981E0CF91D7CF0F931F9328
:10049000CF93DF93EC018B016FEE71E08EE19DE075
:1004A0000E945C396FEE71E08EE19DE00E945C3944
:1004B00060E272E08EE19DE00E945C39C017D107D6
:1004C00034F460E0CE010E94A1452196F7CF6DE3A0
:1004D00072E08EE19DE00E945C396FEE71E08EE18A
:1004E0009DE00E945C396FEE71E08EE19DE0DF914E
:1004F000CF911F910F910C945C398F929F92AF9284
:10050000BF92FF920F931F93CF93DF934A015B013A
:10051000C0E0D0E0082F10E080E4F82EC017D1072B
:1005200054F498B19F2598B9C40168DF98B19F250C
:1005300098B92196F3CFDF91CF911F910F91FF9042
:10054000BF90AF909F908F9008958232910509F4EB
:100550009AC06CF58A30910509F483C0A4F4863002
:10056000910509F475C08930910509F45DC00597BE
:1005700009F0CFC0609106018EE19DE00E94323902
:1005800020E030E059C08231910509F473C0813216
:10059000910509F454C0419709F0BBC0609108016E
:1005A0008EE19DE00E94323922E030E045C0803685
:1005B000910509F499C0ACF48834910509F482C01E
:1005C0008035910509F487C08434910509F0A1C0F4
:1005D000609112018EE19DE00E94323920E030E00E
:1005E0008BC08838910509F459C06CF484389105A2
:1005F00009F08FC060910E018EE19DE00E943239BA
:1006000020E030E05CC08039910509F450C0803AA8
:10061000910509F07EC0609111018EE19DE00E947C
:10062000323923E030E04BC0609107018EE19DE05C
:100630000E94323921E030E080E090E05FC06091BC
:1006400009018EE19DE00E94323923E030E0F4CFD1
:1006500060910A018EE19DE00E94323920E030E095
:100660001AC060910B018EE19DE00E94323921E0B9
:1006700030E011C060910C018EE19DE00E943239A2
:1006800022E030E008C060910D018EE19DE00E9403
:10069000323923E030E081E090E030C060910F011A
:1006A0008EE19DE00E94323921E030E008C0609187
:1006B00010018EE19DE00E94323922E030E082E0BC
:1006C00090E01CC0609113018EE19DE00E943239E0
:1006D00021E030E011C0609114018EE19DE00E94A4
:1006E000323922E030E008C0609115018EE19DE0D2
:1006F0000E94323923E030E083E090E0880F991FB8
:10070000880F991F8A5F9E4FFC01E20FF31F8081C3
:1007100008958EE40895CF93DF93EC0187E59BE085
:100720000E94A13061E087E59BE00E94323941E000
:1007300060E087E59BE00E94A730BE016A5F7F4FC3
:1007400087E59BE00E94233942E060E087E59BE07B
:100750000E94A730BE01645F7F4F87E59BE00E9447
:10076000233943E060E087E59BE00E94A730BE01AB
:100770006E5E7F4F87E59BE0DF91CF910C9423392C
:10078000CF92DF92EF92FF926B017C0187E59BE0B5
:100790000E94A1306091300B7091310B4AE050E023
:1007A0008FED9AE0B8DFC092950AD092960AE09257
:1007B000970AF092980A8FE19EE40197F1F700C042
:1007C00000008FE89AE00E9434236093990A7093A6
:1007D0009A0A80939B0A90939C0A8FE19EE401976A
:1007E000F1F700C000008091300B9091310B019621
:1007F0009093310B8093300BFF90EF90DF90CF9070
:1008000008958F929F92AF92BF92CF92DF92EF9214
:100810000F931F93CF93DF93CDB7DEB7A2970FB699
:10082000F894DEBF0FBECDBF5C014B016CEE71E0F2
:10083000CE014D960E94F73B08EC10E027E73BE025
:1008400040E75BE060E080E49BE00E94A7208093AB
:10085000780B882309F4A3C08091770B843009F0CA
:1008600098C086E0E9E6F1E0DE01579601900D922E
:100870008A95E1F7CE0147966C01E12C04E010E087
:1008800020E030E044E060E77BE080E49BE00E9411
:10089000FB208093780B882309F46BC080E1F4017E
:1008A000DE01119601900D928A95E1F7AE014F5F3E
:1008B0005F4F64E080E49BE00E948E218093780B80
:1008C0009FEF21EE84E0915020408040E1F700C08E
:1008D0000000AE014F5F5F4F64E080E49BE00E9448
:1008E0005B218093780B6EE472E08EE19DE00E94C4
:1008F0005C39BE016F5F7F4FCE0141960E94F73B8E
:100900008091780B882301F1BE016F5E7F4F8EE1ED
:100910009DE00E944C398D899E89069759F4BE014D
:100920006F5E7F4FC5010E94463CCE0141960E94FA
:10093000903B3BC09FEF21EE84E0915020408040EF
:10094000E1F700C0000010C087E59BE00E94A130E5
:1009500041E060E087E59BE00E94A7306CE572E033
:1009600087E59BE00E943139CE0141960E94903B81
:1009700010C087E59BE00E94A13041E060E087E580
:100980009BE00E94A73066E672E087E59BE00E944C
:1009900031396CEE71E08EE19DE00E945C39BE0160
:1009A000635E7F4FC5010E94463CCE014D960E947A
:1009B000903BC501A2960FB6F894DEBF0FBECDBF27
:1009C000DF91CF911F910F91EF90DF90CF90BF906B
:1009D000AF909F908F900895AF92BF92CF92DF9289
:1009E000EF92FF920F931F93CF93DF93CDB7DEB7B4
:1009F000A2970FB6F894DEBF0FBECDBF5C01F62EF6
:100A00006CEE71E0CE014D960E94F73B08EC10E0D1
:100A100027E73BE040E75BE060E080E49BE00E948A
:100A2000A7208093780B882309F49DC04EE150E005
:100A300060E070E082E061DD8091770B843009F046
:100A40008CC086E0E9E6F1E0DE01579601900D9258
:100A50008A95E1F7CE0147966C01E12C04E010E0A5
:100A600020E030E044E060E77BE080E49BE00E942F
:100A7000FB208093780B882309F45FC0FF2099F056
:100A800080E1EFEBF9E0DE01119601900D928A957D
:100A9000E1F7AE014F5F5F4F64E080E49BE00E94AE
:100AA0008E218093780BAE014F5F5F4F64E080E44E
:100AB0009BE00E945B218093780B882389F16EE490
:100AC00072E08EE19DE00E945C39BE016F5F7F4F56
:100AD000CE0141960E94F73BBE016F5E7F4F8EE1D3
:100AE0009DE00E944C398D899E89069759F4BE017C
:100AF0006F5E7F4FC5010E94463CCE0141960E9429
:100B0000903B37C09FEF21EE84E091502040804021
:100B1000E1F700C00000CE0141960E94903B1DC04D
:100B200087E59BE00E94A13041E060E087E59BE023
:100B30000E94A7306EE672E00CC087E59BE00E9441
:100B4000A13041E060E087E59BE00E94A7306BE7C1
:100B500072E087E59BE00E9431396CEE71E08EE136
:100B60009DE00E945C39BE01635E7F4FC5010E941B
:100B7000463CCE014D960E94903BC501A2960FB611
:100B8000F894DEBF0FBECDBFDF91CF911F910F91C3
:100B9000FF90EF90DF90CF90BF90AF900895CF92ED
:100BA000DF92EF92FF920F931F93CF93DF93CDB716
:100BB000DEB764970FB6F894DEBF0FBECDBF7C01E1
:100BC000CE0101966C0187E0F60111928A95E9F752
:100BD00069E872E0C7010E94F73B00E010E09E0167
:100BE0002C5E3F4FA60160E080E49BE00E94A720BE
:100BF000882359F10C8910E020E030E0A60160E480
:100C00007BE0CE010E960E949D1ECE010E960E94A4
:100C10008F3E28E030E040E050E0BE01625F7F4F51
:100C2000CE0108960E944C3EBE01685F7F4FC7010F
:100C30000E946B3CCE0108960E94903B81E080931D
:100C40006F0BCE010E960E94903BC70164960FB6C3
:100C5000F894DEBF0FBECDBFDF91CF911F910F91F2
:100C6000FF90EF90DF90CF900895EF92FF920F9357
:100C70001F93CF93DF93CDB7DEB762970FB6F8948B
:100C8000DEBF0FBECDBF8C017B0160E972E0CE01FB
:100C90000D960E94F73BBEDB68E972E08EE19DE0B5
:100CA0000E945C392091510130915201F7018481F9
:100CB00095812817390749F5A90143505109B70112
:100CC000CE0107960E944C3E60EB72E0CE01019689
:100CD0000E94F73BBE01695F7F4FCE0101960E94E3
:100CE000CC3DBC018EE19DE00E944C39CE010196C5
:100CF0000E94903BBE01695F7F4FC8010E94463C45
:100D0000CE0107960E94903B09C080E0A7DB82DB02
:100D1000BE01635F7F4FC8010E94463CCE010D9625
:100D20000E94903BC80162960FB6F894DEBF0FBEDA
:100D3000CDBFDF91CF911F910F91FF90EF9008955C
:100D4000AF92BF92CF92DF92EF92FF920F931F93D9
:100D5000CF93DF93CDB7DEB762970FB6F894DEBFBF
:100D60000FBECDBF5C017B018A01690153DB81E0CD
:100D700064DB6AE974E08EE19DE00E943139A501EF
:100D8000B701C8010E94CA28892B09F4C3C02FEFFC
:100D900081EE94E0215080409040E1F700C00000D7
:100DA00067ED74E0CE0101960E94F73BB601CE01DB
:100DB00001960E94CC3D61E173E00E94DD3DBC01E3
:100DC00084E39BE00E944E3CCE0101960E94903B42
:100DD000B701CE0101960E94F73B64E075E0CE01B9
:100DE00007960E94F73BBE016F5F7F4FCE010796CB
:100DF0000E94CC3DBC0184E39BE00E94A63DCE0155
:100E000007960E94903BCE0101960E94903B6AE1BA
:100E100073E084E39BE00E94AC3D61E973E084E30E
:100E20009BE00E94AC3D6AE173E084E39BE00E949A
:100E3000AC3D6BE374E084E39BE00E94AC3D6AE16F
:100E400073E084E39BE00E94AC3D6BE075E084E3DB
:100E50009BE00E94AC3D6AE173E084E39BE00E946A
:100E6000AC3D6AE173E084E39BE00E94AC3D64E347
:100E70007BE08EE19DE00E944C3964E37BE0C80199
:100E80000E9423392FEF83EC99E02150804090405D
:100E9000E1F700C000006AE574E0C8010E945C3917
:100EA000C8010E9439398FE39CE90197F1F700C02E
:100EB000000067E175E0CE010D960E94F73BC80186
:100EC0000E944129892B09F44CC020912B0B3091B1
:100ED0002C0B80915101909152012817390708F08D
:100EE00040C0C8010E944B29F82E67E27BE0CE018A
:100EF00001960E94633C6F2DCE0101960E94F43D45
:100F0000BC0187E29BE00E944E3CCE0101960E940C
:100F1000903BD5CF87E59BE00E94A13041E060E0A7
:100F200087E59BE00E94A7306CE674E087E59BE0D4
:100F30000E94313943E060E087E59BE00E94A730E2
:100F400061E874E087E59BE00E9431399FEF23ED73
:100F500080E3915020408040E1F700C0000080E035
:100F600038C067E27BE0CE0107960E94633CBE0179
:100F7000695F7F4FCE01019678DEBE016F5F7F4FC4
:100F8000CE010D960E946B3CCE0101960E94903BD3
:100F9000CE0107960E94903B9FEF27EE83E0915091
:100FA00020408040E1F700C0000066E974E0CE0117
:100FB0000D960E94003E882351F081E04FDA2ADA34
:100FC00011E0CE010D960E94903B812F02C010E0EF
:100FD000F8CF62960FB6F894DEBF0FBECDBFDF919B
:100FE000CF911F910F91FF90EF90DF90CF90BF9026
:100FF000AF900895AF92BF92CF92DF92EF92FF929F
:101000000F931F93CF93DF93CDB7DEB762970FB6E1
:10101000F894DEBF0FBECDBF5C016B018A01790180
:10102000F9D981E00ADA69E175E08EE19DE00E947C
:101030003139A501B601C8010E94CA28892B09F4DB
:10104000E6C02FEF81EE94E0215080409040E1F720
:1010500000C0000069E575E084E39BE00E94763CF7
:10106000B601CE0101960E94F73B64E075E0CE0127
:1010700007960E94F73BBE016F5F7F4FCE01079638
:101080000E94CC3DBC0184E39BE00E94A63DCE01C2
:1010900007960E94903BCE0101960E94903B6AE128
:1010A00073E084E39BE00E94AC3D61E973E084E37C
:1010B0009BE00E94AC3D6AE173E084E39BE00E9408
:1010C000AC3D6BE374E084E39BE00E94AC3D6AE1DD
:1010D00073E084E39BE00E94AC3D6BE075E084E349
:1010E0009BE00E94AC3D6AE173E084E39BE00E94D8
:1010F000AC3DF701648175816B5E7F4F4AE0CE01A4
:1011000001960E94F73C6BE775E0CE0107960E94BE
:10111000F73BBE016F5F7F4FCE0107960E94CC3D2B
:10112000BC0184E39BE00E94A63DCE0107960E948D
:10113000903BCE0101960E94903B6AE173E084E30C
:101140009BE00E94AC3D6AE173E084E39BE00E9477
:10115000AC3DB70184E39BE00E94A63D6AE173E0E9
:1011600084E39BE00E94AC3D64E37BE08EE19DE084
:101170000E944C3964E37BE0C8010E942339FFEFF1
:1011800023EC89E0F15020408040E1F700C00000EE
:101190006AE574E0C8010E945C39C8010E943939CF
:1011A000EFE3FCE93197F1F700C0000067E175E07B
:1011B000CE010D960E94F73BC8010E944129892B60
:1011C00009F44CC020912B0B30912C0B80915101D4
:1011D000909152012817390708F040C0C8010E94B9
:1011E0004B29F82E67E27BE0CE0101960E94633C1A
:1011F0006F2DCE0101960E94F43DBC0187E29BE079
:101200000E944E3CCE0101960E94903BD5CF87E5CF
:101210009BE00E94A13041E060E087E59BE00E94F6
:10122000A7306CE674E087E59BE00E94313943E02B
:1012300060E087E59BE00E94A73061E874E087E505
:101240009BE00E943139FFEF23ED80E3F150204015
:101250008040E1F700C0000080E038C067E27BE03A
:10126000CE0107960E94633CBE01695F7F4FCE01AD
:101270000196FBDCBE016F5F7F4FCE010D960E9491
:101280006B3CCE0101960E94903BCE0107960E94D6
:10129000903B9FEFE7EEF3E09150E040F040E1F744
:1012A00000C0000066E974E0CE010D960E94003E89
:1012B000882351F081E0D2D8ADD811E0CE010D964F
:1012C0000E94903B812F02C010E0F8CF62960FB6CB
:1012D000F894DEBF0FBECDBFDF91CF911F910F916C
:1012E000FF90EF90DF90CF90BF90AF900895579808
:1012F000569888E08093680080EC8093730078941F
:10130000089509980A9808952FEF33ED90E321503E
:1013100030409040E1F700C0000091E090936800F9
:10132000843419F40D9880E202C00E9880E4809312
:101330006B0078940895CF92DF92EF92FF92BC01F8
:10134000990F880B990B0E9416376B017C0120E0E6
:1013500030E0A9010E94A83687FF03C0C12CD12C20
:10136000760160914F0170915001072E000C880B9F
:10137000990B0E9416379B01AC01C701B6010E9470
:10138000AC36FF90EF90DF90CF9008953F9A813078
:10139000910571F082309105E1F0892B89F547982C
:1013A0002FEF30E742E0215030404040E1F70EC0DF
:1013B00028B101C0880F6A95EAF7822B88B98FEFB0
:1013C00090E722E0815090402040E1F700C000000B
:1013D000089528B181E090E001C0880F6A95EAF78E
:1013E000982F9095922398B93FEF45EA2EE031501F
:1013F00040402040E1F700C0000098B1892B88B937
:1014000008950F9A81309105B9F08230910529F144
:10141000892BD1F522B181E090E001C0880F6A9557
:10142000EAF78095822382B92FEF30E742E021501E
:1014300030404040E1F70EC022B101C0880F6A95EC
:10144000EAF7822B82B98FEF90E722E0815090403B
:101450002040E1F700C00000089522B181E090E053
:1014600001C0880F6A95EAF7982F9095922392B958
:101470003FEF45EA2EE0315040402040E1F700C008
:10148000000092B1892B82B90895239A2FEF36E795
:1014900041E0215030404040E1F700C00000813081
:1014A000910511F42B9A0895892B09F42B9808952E
:1014B0006CEE71E087E29BE00E94763C10922F0B6D
:1014C00010922E0B10926F0B67E175E089E79BE09D
:1014D0000E94763C67E175E08FE79BE00E94763CD6
:1014E0006FE878E085E89BE00E94763C10922D0B37
:1014F00067E070E081E090E049DF67E070E081E064
:1015000090E07FDF80E090E0C0DF8FE19EE4019714
:10151000F1F700C000008DEA9AE00E9489298DEA67
:101520009AE00E94CE298FE19EE40197F1F700C076
:1015300000008AEB9AE00E9489298AEB9AE00E94D7
:10154000CE291092330B1092320B8FE19EE401975B
:10155000F1F700C000002C988FE19EE40197F1F7AD
:1015600000C000002C9A8FE19EE40197F1F700C0C3
:1015700000000E9495018FE19EE40197F1F700C001
:1015800000000E94930182B182B982B182B96CEEEF
:1015900071E085EE9AE00E94763C6CEE71E08BEE95
:1015A0009AE00E94763C6CEE71E08BEE9AE00E942D
:1015B000763C87E59BE00E94913087E59BE00E94A6
:1015C000E93010929D0A10929E0A10929F0A109282
:1015D000A00A1092990A10929A0A10929B0A1092ED
:1015E0009C0A0E940A026CE875E08EE19DE00E9470
:1015F0005C390E940A026CEE71E089E89AE00E9470
:10160000763C8FEF9FEF9093310B8093300B0895D2
:10161000CF93DF93CDB7DEB762970FB6F894DEBFF6
:101620000FBECDBF813421F1D8F4833209F48AC0D2
:101630008A3209F0B7C06CEE71E089E89AE00E9446
:10164000763C61EA75E085EE9AE00E94763C6CEEAD
:1016500071E08BEE9AE00E94763C6CEE71E093C0F4
:10166000833409F451C0A0F08E3409F4DDC09AC06F
:1016700080918D0A90918E0A059709F0D5C069E88E
:101680007AE0CE0101960E94633C6DE975E00FC0DF
:1016900080918D0A90918E0A059709F0C5C069E87E
:1016A0007AE0CE0101960E94633C6FE975E0CE01BD
:1016B00001960E94DD3DBC01CE0107960E94633C6D
:1016C000CE0101960E94903B20E030E047E050E0E0
:1016D000BE01635F7F4FCE0107960E941E3EBE0192
:1016E000635F7F4FCE0101968CD88FE39CE9019711
:1016F000F1F700C00000CE0101960E94903BCE01A0
:1017000007960E94903B90C020918D0A30918E0ADE
:101710002115310509F488C02150310940E050E01D
:1017200069E87AE0CE0101960E944C3EBE016F5FEF
:101730007F4F89E89AE00E946B3CCE0101960E949F
:10174000903B47C080918D0A90918E0A059709F0D1
:101750006BC069E87AE08FE79BE00E944E3C6FE740
:101760007BE089E09BE00E944E3C62EE75E085EEF6
:101770009AE00E94763C66EF75E08BEE9AE00E945C
:10178000763C65E076E081EF9AE00E94763C6091DD
:1017900022017091230180912401909125010E94E2
:1017A000C00342C0682FCE0101960E948B3CBE014F
:1017B0006F5F7F4F89E89AE00E94A63DCE010196B7
:1017C0000E94903B4AE050E060E070E081E00E94BF
:1017D0007D0264EB75E085EE9AE00E94763C66EC53
:1017E00075E0CE0101960E94F73B69E87AE0CE01F0
:1017F00001960E94CC3DBC018BEE9AE00E944E3CCB
:10180000CE0101960E94903B6DEC75E081EF9AE06D
:101810000E94763C6091300B7091310B4AE050E0B1
:101820008FED9AE00E948B0362960FB6F894DEBFAC
:101830000FBECDBFDF91CF910895CF93DF9300D03E
:1018400000D000D0CDB7DEB7833460F4813408F027
:10185000C6C08A3209F4C3C08E3209F4C0C08332D4
:1018600029F17BC0833421F08E3409F076C0B7C0F3
:101870002091870A3091880A2115310509F484C026
:101880002150310940E050E063E87AE0CE01019652
:101890000E944C3EBE016F5F7F4F83E89AE00E943A
:1018A0006B3CCE0101960E94903B6EC08091870AEE
:1018B0009091880A049709F092C06DE975E089E774
:1018C0009BE00E94003E882341F067E070E080E0EA
:1018D00090E05CDD6DEF75E00FC06FE975E089E7C2
:1018E0009BE00E94003E882359F067E070E080E0B2
:1018F00090E087DD6CE076E081EF9AE00E94763C34
:1019000063E87AE085E89BE00E944E3C65E87BE076
:101910008BE19BE00E944E3C64E376E085EE9AE02A
:101920000E94763C6CEE71E08BEE9AE00E94763C71
:101930000E9495018FE39FE10197F1F700C000003D
:101940000E94930160911E0170911F0180912001FE
:10195000909121010E94C00342C0682FCE010196E0
:101960000E948B3CBE016F5F7F4F83E89AE00E942C
:10197000A63DCE0101960E94903B4AE050E060E017
:1019800070E081E00E947D0264E176E085EE9AE0FD
:101990000E94763C65E276E0CE0101960E94F73B1C
:1019A00063E87AE0CE0101960E94CC3DBC018BEE4B
:1019B0009AE00E944E3CCE0101960E94903B69E263
:1019C00076E081EF9AE00E94763C6091300B709156
:1019D000310B4AE050E08FED9AE00E948B0326968F
:1019E0000FB6F894DEBF0FBECDBFDF91CF91089543
:1019F0004F925F926F927F928F929F92AF92BF921F
:101A0000CF92DF92EF92FF920F931F93CF93DF93CA
:101A100000D000D000D0CDB7DEB77C015B014DB661
:101A20005EB668E577E00E94F73BF501C284D38497
:101A30008DB79EB78C199D090FB6F8949EBF0FBE47
:101A40008DBFEDB7FEB731964F013F01F50104851B
:101A50001585C00ED11E0C151D054CF4C8010E9441
:101A60009945F30181933F010F5F1F4FF4CF6FEE54
:101A700071E08EE19DE00E945C396FEE71E08EE1D5
:101A80009DE00E945C39B401CE0101960E94F73BB3
:101A9000BE016F5F7F4FC7010E946B3CCE01019674
:101AA0000E94903BB501CE0101960E94633C64E226
:101AB00078E0CE0101960E94DD3DBC018EE19DE003
:101AC0000E942339CE0101960E94903BB7018EE11E
:101AD0009DE00E944C39C7010FB6F8945EBE0FBE60
:101AE0004DBE26960FB6F894DEBF0FBECDBFDF9178
:101AF000CF911F910F91FF90EF90DF90CF90BF900B
:101B0000AF909F908F907F906F905F904F900895CF
:101B10004F925F926F927F928F929F92AF92BF92FD
:101B2000CF92DF92EF92FF920F931F93CF93DF93A9
:101B3000CDB7DEB72C970FB6F894DEBF0FBECDBF82
:101B40007C016B012A016DB67EB668E577E00E94E4
:101B5000F73B8DB79EB78C199D090FB6F8949EBFC1
:101B60000FBE8DBFEDB7FEB731965F016FEE71E02E
:101B70008EE19DE00E945C3964E476E08EE19DE0B8
:101B80000E945C396FEE71E08EE19DE00E945C394D
:101B900045018201C40CD51C0C151D055CF5C8015E
:101BA0000E949945F40181934F01882301F14AE095
:101BB000682FCE0107960E94A23C6FEE71E0CE0125
:101BC00001960E94F73BBE01695F7F4FCE010196EF
:101BD0000E94CC3DBC018EE19DE00E942339CE01E4
:101BE00001960E94903BCE0107960E94903B0F5FAA
:101BF0001F4FD2CF6FEE71E08EE19DE00E945C3905
:101C00006FEE71E08EE19DE00E945C39B501CE017E
:101C100001960E94F73BBE016F5F7F4FC7010E9494
:101C20006B3CCE0101960E94903B67E576E08EE129
:101C30009DE00E943139B7018EE19DE00E944C3950
:101C4000C7010FB6F8947EBE0FBE6DBE2C960FB6C0
:101C5000F894DEBF0FBECDBFDF91CF911F910F91E2
:101C6000FF90EF90DF90CF90BF90AF909F908F90BC
:101C70007F906F905F904F9008958F929F92AF9258
:101C8000BF92CF92DF92EF92FF920F931F93CF9369
:101C9000DF93CDB7DEB72C970FB6F894DEBF0FBE3B
:101CA000CDBF6B014A01ADB6BEB62DB73EB7261B00
:101CB000370B0FB6F8943EBF0FBE2DBFEDB7FEB782
:101CC00031967F01FC01448155814F5F5F4F20E0D9
:101CD00030E0B7010E941E3E4AE0B601CE010796F1
:101CE0000E94CD3C6BEF71E0CE0101960E94F73B64
:101CF000BE01695F7F4FCE0101960E94CC3DBC01C1
:101D00008EE19DE00E944C39CE0101960E94903BED
:101D1000CE0107960E94903B62E072E08EE19DE06A
:101D20000E945C396FEE71E08EE19DE00E945C39AB
:101D30008401C80CD91C0C151D056CF5F7016081D8
:101D4000662319F1C8010E94A145F7016081CE0107
:101D500007960E948B3C6FEE71E0CE0101960E94C7
:101D6000F73BBE01695F7F4FCE0101960E94CC3DDB
:101D7000BC018EE19DE00E942339CE0101960E94B4
:101D8000903BCE0107960E94903B0F5F1F4FFFEFE5
:101D9000EF1AFF0AD0CF6FEE71E08EE19DE00E9456
:101DA0005C3981E00FB6F894BEBE0FBEADBE2C9676
:101DB0000FB6F894DEBF0FBECDBFDF91CF911F915C
:101DC0000F91FF90EF90DF90CF90BF90AF909F90DA
:101DD0008F9008950F931F93CF93DF93EC018B01A6
:101DE0000E94633CB8016A5F7F4FCE0106960E9455
:101DF000633CF801848595859D878C87DF91CF9121
:101E00001F910F910895CF93DF93EC0106960E94E6
:101E1000903BCE01DF91CF910C94903BFC01DB0114
:101E200012968D919C9113979383828314964D9172
:101E30005D916D917C911797448355836683778379
:101E400018964D915D916D917C911B9740875187BC
:101E5000628773878CED99E0918380831C968C91C7
:101E600084870895CF92DF92EF92FF920F931F9392
:101E7000CF93DF93CDB7DEB7AA970FB6F894DEBF46
:101E80000FBECDBFE091300BF091310B3296ED30AB
:101E9000F10508F0B0C7EA5BFF4F0C940E400E94BA
:101EA0000A026EE676E08EE19DE00E943139609193
:101EB000C70B7091C80BCE0101968CDFBE016F5F1E
:101EC0007F4FCE01859694DDCE0101969CDF49A51A
:101ED0005AA54F5F5F4F20E030E064E371E0CE0130
:101EE00085960E941E3E0E940A026091C70B709167
:101EF000C80B625F7F4FCE0101966CDFBE016F5F42
:101F00007F4FCE014F9674DDCE0101967CDF0E949B
:101F10000A026091C70B7091C80B645E7F4FCE01BF
:101F2000019658DFBE016F5F7F4FCE01479660DD9F
:101F3000CE01019668DF0E940A026091C70B709182
:101F4000C80B665D7F4FCE01019644DFBE016F5F17
:101F50007F4FCE010F964CDDCE01019654DF4B89A9
:101F60005C894F5F5F4F20E030E066E471E0CE01B6
:101F70000F960E941E3E0E940A028091300B9091A3
:101F8000310B01969093310B8093300BCE010F965D
:101F90000E94903BCE0147960E94903BCE014F9607
:101FA0000E94903BCE01859624C72FEF39EF80E049
:101FB000215030408040E1F700C0000098D99FEFE9
:101FC00029EF30E0915020403040E1F700C00000A0
:101FD00098D98FEF99EF20E0815090402040E1F7B1
:101FE00000C000008091300B9091310B01969093CE
:101FF000310B8093300BFFC63FEF83ED90E3315000
:1020000080409040E1F700C0000010926F0B0E94EA
:10201000930167E876E085EE9AE00E94763C6CEEEC
:1020200071E08BEE9AE00E94763C6BE976E081EFFE
:102030009AE00E94763C6091300B7091310B42E344
:1020400050E08FED9AE00E948B038091300B9091CD
:10205000310B01969093310B8093300B2FEF39E6C3
:1020600088E1215030408040E1F700C00000C3C645
:102070006CEE71E089E89AE00E94763C6CEE71E0CB
:1020800083E89AE00E94763C69E872E0CE014796C8
:102090000E94F73B80916F0B811116C0CE01019613
:1020A0000E94CF05BE016F5F7F4FCE0147960E9411
:1020B0006B3CCE0101960E94903B44E650E060E00C
:1020C00070E082E00E947D0269E872E0CE014796EE
:1020D0000E94003E811102C0449BDDC664EB75E0A6
:1020E00085EE9AE00E94763C66EC75E08BEE9AE015
:1020F0000E94763C6DEC75E081EF9AE00E94763CA0
:10210000BE01695E7F4FCE010F960E94633C6DEA6F
:102110007AE0CE01019682DE9E01215F3F4FAE0143
:102120004F5F5F4F64E371E080E590E00E94A0069E
:10213000182FCE010F960E94903B449A1123C1F0B4
:1021400064ED77E081E29BE00E94763C48EC50E051
:1021500060E070E081E00E947D0260912A01709150
:102160002B0180912C0190912D010E94C00337C05A
:102170006EEA76E081E29BE00E94763C48EC50E01B
:1021800060E070E083E00E947D0287E59BE00E94B2
:10219000A13062EB76E085EE9AE00E94763C66EC38
:1021A00076E08BEE9AE00E94763C68ED76E081EF77
:1021B0009AE00E94763C6091300B7091310B4AE0BE
:1021C00050E08FED9AE00E948B039FEF23ED30E308
:1021D000915020403040E1F700C0000069D9CE01A5
:1021E000479607C640E060E087E59BE00E94A73085
:1021F00061E087E59BE00E9432394091990A509155
:102200009A0A60919B0A70919C0A8091950A90911C
:10221000960AA091970AB091980A480F591F6A1F11
:102220007B1F415051096109710980919D0A90916C
:102230009E0AA0919F0AB091A00A481B590B6A0BF5
:102240007B0B2AE0CE010F960E94213D6CE077E0E7
:10225000CE0101960E94F73BBE01615F7F4FCE0128
:1022600001960E94CC3D6AEE76E00E94DD3DBC0105
:1022700087E59BE00E942339CE0101960E94903BA6
:10228000CE010F960E94903B6CE380E89AE00E949A
:102290002A1E80E89AE00E94411EE82E42E0BE011C
:1022A000695E7F4F90E00E94CB4263EC80E89AE049
:1022B0000E942A1E80E89AE00E94411EF82E42E009
:1022C000BE01615F7F4F90E00E94CB42FE24EF2C65
:1022D000F12C42E0BE016F5F7F4FC7010E94CB42ED
:1022E000C7010E94A5029FEF29EF30E091502040E6
:1022F0003040E1F700C000008BD97DC540E060E0D0
:1023000087E59BE00E94A73061E087E59BE00E94A3
:1023100032394091990A50919A0A60919B0A7091C2
:102320009C0A8091950A9091960AA091970AB09183
:10233000980A480F591F6A1F7B1F415051096109B4
:10234000710980919D0A90919E0AA0919F0AB09177
:10235000A00A481B590B6A0B7B0B2AE0CE010F9693
:102360000E94213D6CE077E0CE0101960E94F73B90
:10237000BE01615F7F4FCE0101960E94CC3D6AEEA7
:1023800076E00E94DD3DBC0187E59BE00E94233999
:10239000CE0101960E94903BCE010F960E94903B89
:1023A00080918D0A90918E0A0597E9F467E175E0B6
:1023B00089E79BE00E94763C69E87AE08FE79BE042
:1023C0000E944E3C6FE878E085E89BE00E94763CF6
:1023D00010922D0B609122017091230180912401B4
:1023E0009091250148C760E0CE010F960E94EC0451
:1023F0008FE39CE90197F1F700C00000BE01615F27
:102400007F4F8EE19DE00E944C392B893C8945E04D
:1024100050E0BE01615F7F4FCE0101960E944C3EAD
:10242000BE016F5F7F4F89E79BE00E946B3CCE014E
:1024300001960E94903B25E030E040E050E0BE0174
:10244000615F7F4FCE0101960E944C3EBE016F5FDF
:102450007F4F8FE79BE00E946B3CCE0101960E946C
:10246000903B6FE878E085E89BE00E94763C60EF67
:1024700076E0CE0101960E94F73B69E77BE0CE0152
:1024800001960E94CC3DBC018EE19DE00E944C393A
:10249000CE0101960E94903B62E077E0CE0101966A
:1024A0000E94F73B6FE77BE0CE0101960E94CC3D96
:1024B000BC018EE19DE00E944C39CE0101960E9444
:1024C000903B6FE975E089E79BE00E94003E811137
:1024D0004DC56DE975E089E79BE00E94003E8111E2
:1024E00045C5CE010F9685C440E060E087E59BE0DE
:1024F0000E94A73061E087E59BE00E94323940915D
:10250000990A50919A0A60919B0A70919C0A809155
:10251000950A9091960AA091970AB091980A480F4F
:10252000591F6A1F7B1F4150510961097109809130
:102530009D0A90919E0AA0919F0AB091A00A481B03
:10254000590B6A0B7B0B2AE0CE010F960E94213DAE
:102550006CE077E0CE0101960E94F73BBE01615F1F
:102560007F4FCE0101960E94CC3D6AEE76E00E943C
:10257000DD3DBC0187E59BE00E942339CE01019639
:102580000E94903BCE010F960E94903B6FE975E050
:1025900089E79BE00E94003E81111FC580912D0BB1
:1025A000823009F046C519C540E060E087E59BE050
:1025B0000E94A73061E087E59BE00E94323940919C
:1025C000990A50919A0A60919B0A70919C0A809195
:1025D000950A9091960AA091970AB091980A480F8F
:1025E000591F6A1F7B1F4150510961097109809170
:1025F0009D0A90919E0AA0919F0AB091A00A481B43
:10260000590B6A0B7B0B2AE0CE010F960E94213DED
:102610006CE077E0CE0101960E94F73BBE01615F5E
:102620007F4FCE0101960E94CC3D6AEE76E00E947B
:10263000DD3DBC0187E59BE00E942339CE01019678
:102640000E94903BCE010F960E94903B6CE380E885
:102650009AE00E942A1E80E89AE00E94411EE82E1D
:1026600042E0BE01695E7F4F90E00E94CB4263EC86
:1026700080E89AE00E942A1E80E89AE00E94411EAB
:10268000F82E42E0BE01615F7F4F90E00E94CB4296
:10269000FE24EF2CF12C42E0BE016F5F7F4FC7019B
:1026A0000E94CB42C7010E94A5029FEF29EF30E0B4
:1026B000915020403040E1F700C00000BED8109299
:1026C0002F0B10922E0B97C340E060E087E59BE054
:1026D0000E94A73061E087E59BE00E94323940917B
:1026E000990A50919A0A60919B0A70919C0A809174
:1026F000950A9091960AA091970AB091980A480F6E
:10270000591F6A1F7B1F415051096109710980914E
:102710009D0A90919E0AA0919F0AB091A00A481B21
:10272000590B6A0B7B0B2AE0CE010F960E94213DCC
:102730006CE077E0CE0101960E94F73BBE01615F3D
:102740007F4FCE0101960E94CC3D6AEE76E00E945A
:10275000DD3DBC0187E59BE00E942339CE01019657
:102760000E94903BCE010F960E94903B019B08C0B7
:102770006DE975E089E79BE00E94003E81119CC4F1
:10278000199B39C36FE975E089E79BE00E94003E21
:102790008111D5C430C340E060E087E59BE00E9432
:1027A000A73061E087E59BE00E9432394091990AA9
:1027B00050919A0A60919B0A70919C0A8091950AA7
:1027C0009091960AA091970AB091980A480F591FC4
:1027D0006A1F7B1F415051096109710980919D0A4F
:1027E00090919E0AA0919F0AB091A00A481B590B94
:1027F0006A0B7B0B2AE0CE010F960E94213D6AE016
:1028000077E0CE0101960E94F73BBE01615F7F4FEA
:10281000CE0101960E94CC3D6AEE76E00E94DD3D3D
:10282000BC0187E59BE00E942339CE0101960E94FE
:10283000903BCE010F960E94903B80912E0B909181
:102840002F0B0E949B096B017C0122E0AB01BC01B4
:10285000CE010F960E944C3D64E177E0CE010196D7
:102860000E94F73BBE01615F7F4FCE0101960E943F
:10287000CC3DBC0185EE9AE00E944E3CCE01019613
:102880000E94903BCE010F960E94903B66EC75E053
:10289000CE0101960E94F73B6FE77BE0CE010196E7
:1028A0000E94CC3DBC018BEE9AE00E944E3CCE01D2
:1028B00001960E94903B6CE177E0CE0101960E9468
:1028C000F73B6AE37BE0CE0101960E94CC3DBC0160
:1028D00081EF9AE00E944E3CCE0101960E94903B0F
:1028E00041E060E087E59BE00E94A73065EE7AE07A
:1028F00087E59BE00E94233942E060E087E59BE0AA
:102900000E94A7306BEE7AE087E59BE00E942339B6
:1029100043E060E087E59BE00E94A73061EF7AE04A
:1029200087E59BE00E942339019908C06DE975E0B5
:1029300089E79BE00E94003E811142C419995BC265
:102940006FE975E089E79BE00E94003E811167C452
:1029500052C26AE37BE085EE9AE00E944E3C69E257
:1029600077E08BEE9AE00E94763C6CEE71E081EFAE
:102970009AE00E94763C6091300B7091310B44E6F6
:1029800050E08FED9AE00E948B036CEE71E087EFD0
:102990009AE00E94763C03E01BE027E2E22E2BE067
:1029A000F22EB801CE0101960E94633C67E377E006
:1029B000CE0101960E94DD3DBC0187EF9AE00E94A6
:1029C000A63DCE0101960E94903B0A5F1F4FE01684
:1029D000F10639F766E471E087EF9AE00E94AC3DBA
:1029E00069E377E0CE0101960E94F73B67EF7AE05A
:1029F000CE0101960E94CC3DBC018EE19DE00E947B
:102A00004C39CE0101960E94903B0E9495018FE3C4
:102A10009FE10197F1F700C000000E9493019FEF32
:102A200023ED30E3915020403040E1F700C000003A
:102A30006EE170E080E090E01EC44499DCC14AE0A1
:102A400050E069E070E08FED9AE00E948B036CEE3D
:102A500071E087EF9AE00E94763C03E01BE097E28A
:102A6000E92E9BE0F92EB801CE0101960E94633C4D
:102A700067E377E0CE0101960E94DD3DBC0187EF60
:102A80009AE00E94A63DCE0101960E94903B0A5F0B
:102A90001F4FE016F10639F766E471E087EF9AE020
:102AA0000E94AC3D69E377E0CE0101960E94F73BBE
:102AB00067EF7AE0CE0101960E94CC3DBC018EE129
:102AC0009DE00E944C39CE0101960E94903B8FEF11
:102AD00093ED20E3815090402040E1F700C00000DA
:102AE00067EF7AE0CE010F960E94633C6AEB7AE0D2
:102AF000CE01019693D99E01215F3F4FAE014F5FFA
:102B00005F4F64E371E080E590E00E94FA07182FC0
:102B1000CE010F960E94903B112351F10E94950126
:102B20003FEF83EC99E0315080409040E1F700C0E6
:102B3000000064E477E08EE19DE00E945C396BE583
:102B400077E08EE19DE00E945C398FE39FE1019781
:102B5000F1F700C000000E9493018FE39FE101970D
:102B6000F1F700C000006CE370E080E090E083C308
:102B70000E9495014BE054E064E070E0CE014F9676
:102B80000E94880DCE014F960E94E83E6B017C01A9
:102B90000091FB0A1091FC0A67EF7AE0CE010196E2
:102BA0000E94633CA601B801CE01019666D8182F99
:102BB000CE0101960E94903B112309F416C14AE010
:102BC000B601CE010F960E94CD3C68E977E0CE01B8
:102BD00001960E94F73BBE01615F7F4FCE010196D7
:102BE0000E94CC3DBC018EE19DE00E944C39CE019B
:102BF00001960E94903BCE010F960E94903B92E37B
:102C0000C90ED11C29EBC2162BE0D20624F080EDB0
:102C1000C82E87E0D82E4AE0B601CE0147960E9422
:102C2000CD3C0B8D1C8DBE01695E7F4FCE010196A0
:102C30000E94633C4BE054E0B801CE0101961DD8E0
:102C4000182FCE0101960E94903B112301F14AE01A
:102C5000B601CE010F960E94CD3C6EEA77E0CE0120
:102C600001960E94F73BBE01615F7F4FCE01019646
:102C70000E94CC3DBC018EE19DE00E944C39CE010A
:102C800001960E94903BCE010F960E94903BCE0190
:102C900047960E94903BA9C044E650E060E070E097
:102CA00081E00E947D023FEF81EE94E03150804050
:102CB0009040E1F700C0000044E650E060E070E0C2
:102CC00081E00E947D022FEF31EE84E02150304000
:102CD0008040E1F700C0000044E650E060E070E0B2
:102CE00081E00E947D029FEF21EE34E09150204070
:102CF0003040E1F700C000004BE054E064E070E0D9
:102D0000CE014F960E94880DCE014F960E94E83E5C
:102D10007B0100ED17E00E151F050CF04BC0A8015C
:102D200062E370E0CE0147960E94880D62EC77E086
:102D3000CE0101960E94F73BBE01695E7F4FCE0136
:102D400001960E94CC3DBC018EE19DE00E944C3971
:102D5000CE0101960E94903BBE01695E7F4FCE017D
:102D60000F960E94633C6AEB7AE0CE01019656D83A
:102D70009E01215F3F4FAE014F5F5F4F64E371E003
:102D800080E590E00E94FA07CE010F960E94903BEA
:102D90000E5C1F4F8FEF93EC29E081509040204054
:102DA000E1F700C000000E940A02CE0147960E948F
:102DB000903BB1CF013D37E01307BCF063ED77E006
:102DC000CE0101960E94F73B4BE054E064E070E0D6
:102DD000CE0101960E943D0ECE0101960E94903BCD
:102DE000B80180ED97E00E9446020E94580ACE0189
:102DF0004F960E94903B61EA7AE0CE0101960E94D4
:102E0000E32386E0FE013196AFE8BAE001900D922F
:102E10008A95E1F78FE89AE00E94342360939D0A37
:102E200070939E0A80939F0A9093A00A0091990A3A
:102E300010919A0A20919B0A30919C0AC090950AA1
:102E4000D090960AE090970AF090980A0C0D1D1DFC
:102E50002E1D3F1D68017901C61AD70AE80AF90A32
:102E6000D701C6010297A105B10508F007C28091FC
:102E7000300B9091310B079719F00E94580AFEC150
:102E800060911601709117018091180190911901BC
:102E90000E94C003F3C16CEE71E08EE19DE00E94E0
:102EA0005C3968ED77E08EE19DE00E94313968E1A0
:102EB00078E0CE0101960E94F73BBE01695E7F4F2C
:102EC000CE0101960E94CC3DBC018EE19DE00E94A6
:102ED0004C39CE0101960E94903B68ED77E08EE17F
:102EE0009DE00E94313967E278E08EE19DE00E942A
:102EF0005C39BE01695E7F4F83E09BE00E944E3CDF
:102F000087E59BE00E94893087E59BE00E94EF30D7
:102F10008FE39CE90197F1F700C000006CE478E0D2
:102F200085EE9AE00E94763C6EE578E08BEE9AE0C2
:102F30000E94763C61E778E081EF9AE00E94763C5F
:102F40006091300B7091310B44E650E08FED9AE0C8
:102F50000E948B030E9497019FEF23ED30E3915075
:102F600020403040E1F700C00000B8C86FE77BE0C8
:102F700089E09BE00E944E3C69E77BE08FE09BE0AC
:102F80000E944E3C62E077E0CE0101960E94F73B42
:102F90006FE77BE0CE0101960E94CC3DBC0181EF42
:102FA0009AE00E944E3CCE0101960E94903B8FEF2A
:102FB00099E628E1815090402040E1F700C00000F0
:102FC00010922D0B609122017091230180912401B8
:102FD000909125010E94C00384CA6FE975E089E7DA
:102FE0009BE00E94763C6CE076E08AE39BE00E94E6
:102FF000763C69E77BE08FE09BE00E944E3C64E119
:1030000076E085EE9AE00E94763C65E276E08BEE13
:103010009AE00E94763C69E276E081EF9AE00E94B5
:10302000763C3FEF81EE94E0315080409040E1F7F4
:1030300038C06DE975E089E79BE00E94003E811190
:1030400005C080912D0B813009F0D5CE6DE975E07A
:1030500089E79BE00E94763C6DEF75E08AE39BE098
:103060000E94763C69E77BE08FE09BE00E944E3C4B
:1030700064E176E085EE9AE00E94763C65E276E0D7
:103080008BEE9AE00E94763C69E276E081EF9AE06E
:103090000E94763C2FEF31EE84E02150304080409A
:1030A000E1F700C000006091260170912701809136
:1030B000280190912901DFC0F89464E878E085EE5A
:1030C0009AE00E94763C66EC75E0CE0101960E9483
:1030D000F73B6FE77BE0CE0101960E94CC3DBC013F
:1030E0008BEE9AE00E944E3CCE0101960E94903BEE
:1030F0006CE177E0CE0101960E94F73B6AE37BE04A
:10310000CE0101960E94CC3DBC0181EF9AE00E9465
:103110004E3CCE0101960E94903B84E40E948409BB
:1031200010922F0B10922E0B60911A0170911B01BF
:1031300080911C0190911D010E94C00321CBF89445
:1031400064E878E085EE9AE00E94763C66EC75E0F3
:10315000CE0101960E94F73B6FE77BE0CE0101961E
:103160000E94CC3DBC018BEE9AE00E944E3CCE0109
:1031700001960E94903B6CE177E0CE0101960E949F
:10318000F73B6AE37BE0CE0101960E94CC3DBC0197
:1031900081EF9AE00E944E3CCE0101960E94903B46
:1031A00082E40E94840910922F0B10922E0B6091E2
:1031B0001A0170911B0180911C0190911D015BC04F
:1031C00022E0B701A601CE0101960E944C3DBE014E
:1031D0006F5F7F4F85E19BE00E946B3CCE010196C3
:1031E0000E94903B61E978E08AE39BE00E94763C94
:1031F00067E070E081E090E00E94010A67E070E023
:1032000081E090E00E94C60960911601709117015B
:1032100080911801909119010E94C0038FCB22E088
:10322000B701A601CE0101960E944C3DBE016F5F21
:103230007F4F85E19BE00E946B3CCE0101960E948E
:10324000903B61E978E08AE39BE00E94763C67E08E
:1032500070E081E090E00E94010A67E070E081E0A8
:1032600090E00E94C609609116017091170180914B
:103270001801909119010E94C003BDCDAA960FB606
:10328000F894DEBF0FBECDBFDF91CF911F910F919C
:10329000FF90EF90DF90CF9008951F920F920FB69E
:1032A0000F9211240BB60F922F933F934F935F937E
:1032B0006F937F938F939F93AF93BF93EF93FF93FE
:1032C0008091300B9091310B079799F520912E0B3F
:1032D00030912F0B80914D0190914E0128173907A5
:1032E00040F5059B08C06DE975E089E79BE00E9409
:1032F000003E811114C0069B1CC06FE975E089E790
:103300009BE00E94003E8823A1F080912E0B9091BB
:103310002F0B019690932F0B80932E0B0AC0809158
:103320002E0B90912F0B019690932F0B80932E0BC9
:10333000E2CFFF91EF91BF91AF919F918F917F91DC
:103340006F915F914F913F912F910F900BBE0F9016
:103350000FBE0F901F9018951F920F920FB60F92ED
:1033600011248F939F938091300B9091310B049790
:1033700009F06AC04E9B1CC080918D0B90918E0B02
:10338000019690938E0B80938D0B80918D0B909175
:103390008E0B181619061CF510928E0B10928D0BC1
:1033A00010928C0B10928B0B82E080932D0B17C028
:1033B00080918B0B90918C0B019690938C0B80934A
:1033C0008B0B80918B0B90918C0B029744F0109299
:1033D0008E0B10928D0B10928C0B10928B0B4F9BBF
:1033E0001CC080918D0B90918E0B019690938E0B4B
:1033F00080938D0B80918D0B90918E0B1816190672
:103400001CF510928E0B10928D0B10928C0B10925B
:103410008B0B81E080932D0B17C080918B0B9091CB
:103420008C0B019690938C0B80938B0B80918B0B64
:1034300090918C0B029744F010928E0B10928D0B92
:1034400010928C0B10928B0B9F918F910F900FBE4F
:103450000F901F9018958F92AF92CF92EF920F938B
:10346000CF93DF9300E020E040E060E089EC9BE058
:103470000E949E386FE671E08FE89BE00E94F73B68
:1034800060E871E085E99BE00E94F73BCFE8DBE074
:1034900088EE93E09D878C8763E971E08DE99BE07E
:1034A0000E94F73B6CE971E083EA9BE00E94F73BE6
:1034B0008CEF93E09B8F8A8F6BEA71E08BEA9BE045
:1034C0000E94F73B66EC71E081EB9BE00E94F73BCA
:1034D0008BE094E099A788A76CEC71E089EB9BE006
:1034E0000E94F73B69ED71E08FEB9BE00E94F73B98
:1034F00080E194E09FAB8EAB6CEE71E089E79BE0DE
:103500000E94F73B6CEE71E08FE79BE00E94F73B77
:103510006CEE71E085E89BE00E94F73B1F9283E030
:103520008F9387E0882E96E0A92E25E0C22E34E006
:10353000E32E21E042E067E287E59BE00E9426322D
:1035400043E064E080E49BE0C6D361EA78E08AE38C
:103550009BE00E94F73B6CEE71E084E39BE00E94ED
:10356000F73B6CEE71E087E29BE00E94F73B6CEE6C
:1035700071E083E09BE00E94F73B6CEE71E089E034
:103580009BE00E94F73B6CEE71E08FE09BE00E94B5
:10359000F73B6CEE71E085E19BE00E94F73B6CEE3F
:1035A00071E08BE19BE00E94F73B6CEE71E081E201
:1035B0009BE00E94F73B6CEE71E08DEF9AE00E9479
:1035C000F73B6CEE71E087EF9AE00E94F73B67E112
:1035D00075E08FED9AE00E94F73B67E175E085EEBC
:1035E0009AE00E94F73B67E175E08BEE9AE00E945B
:1035F000F73B67E175E081EF9AE00E94F73B04E654
:1036000023E048EA60EC89ED9AE00E949E3805E1EB
:1036100021E048EA60EC83ED9AE00E949E3801E0E8
:1036200020E048EA60EC8DEC9AE00E949E3800E0D1
:1036300020E04FEF6FEF87EC9AE00E949E388AEB14
:103640009AE00E948C298DEA9AE00E948C2981EAF6
:103650009AE00E94692340E050E0BA018FE89AE0C6
:10366000CCD66CEE71E089E89AE00E94F73B6CEEF4
:1036700071E083E89AE00E94F73B0F900F9080E89A
:103680009AE0DF91CF910F91EF90CF90AF908F9014
:1036900082C2CF93DF9383E89AE00E94903B89E84F
:1036A0009AE00E94903B81EA9AE00E94702381EFA9
:1036B0009AE00E94903B8BEE9AE00E94903B85EE50
:1036C0009AE00E94903B8FED9AE00E94903B87EF3A
:1036D0009AE00E94903B8DEF9AE00E94903BC7E2F7
:1036E000DBE02697CE010E94903B8BE0C330D807E9
:1036F000C1F787E29BE00E94903B84E39BE00E943D
:10370000903B8AE39BE00E94903B85E89BE00E940F
:10371000903B8FE79BE00E94903B89E79BE00E94F3
:10372000903B89EB9BE00E94030F8BEA9BE00E9499
:10373000030F8DE99BE00E94030F8FE89BE0DF9170
:10374000CF910C94030FCF92DF92EF92FF920F93E1
:103750001F93CF93DF9300D000D000D0CDB7DEB75A
:103760002FEF81EE94E0215080409040E1F700C0BF
:1037700000000E9495012FEF81EE94E021508040DF
:103780009040E1F700C000002C9A2FEF81EE94E00A
:10379000215080409040E1F700C00000289A2FEFB0
:1037A00081EE94E0215080409040E1F700C000009D
:1037B0002C9A2FEF81EE94E0215080409040E1F769
:1037C00000C00000149A2FEF81EE94E02150804059
:1037D0009040E1F700C000002B982FEF81EE94E0BD
:1037E000215080409040E1F700C000002FEF81EEB3
:1037F00094E0215080409040E1F700C000006AEA68
:1038000078E08EE19DE00E945C390E940A028FE818
:103810009BE09093C80B8093C70B0E940A026FEB4A
:1038200078E08EE19DE00E9431394AE050E060E0AE
:1038300070E18EE19DE00E94C5396FEE71E08EE18E
:103840009DE00E945C396AED78E08EE19DE00E9487
:1038500031396CEE71E0CE0101960E94F73B0E9477
:103860000A023E9A3F9A0F9A8FE39CE90197F1F77B
:1038700000C00000479A8FE39CE90197F1F700C070
:103880000000179A0E940A0220E044E064E187E504
:103890009BE00E94AC3287E59BE00E9489309FEF5D
:1038A00024E38CE0915020408040E1F700C000000C
:1038B00087E59BE00E9491309FEF24E38CE09150DC
:1038C00020408040E1F700C0000087E59BE00E94B7
:1038D00089309FEF24E38CE0915020408040E1F755
:1038E00000C0000087E59BE00E9491309FEF24E339
:1038F0008CE0915020408040E1F700C0000043E59B
:1039000051E061E087E59BE00E946F319FEF29EF76
:1039100080E0915020408040E1F700C0000087E542
:103920009BE00E9489300FED1AE06CEE71E0C80157
:103930000E94763C0A5F1F4F9AE0073F1907A9F7DC
:103940000E940A0280E49BE0D7D12FEF80E792E04B
:10395000215080409040E1F700C0000080E49BE0EF
:1039600070D36B017C01672B682B692B69F563EFC2
:1039700078E08EE19DE00E94313987E59BE00E946E
:1039800089302FEF84E39CE0215080409040E1F7A4
:1039900000C0000087E59BE00E94A1306CE079E068
:1039A00087E59BE00E9431392FEF87EA91E62150AD
:1039B00080409040E1F700C0000066E279E08AE3D1
:1039C0009BE00E94763C06C069E379E08EE19DE0D1
:1039D0000E945C396EE479E08EE19DE00E9431390D
:1039E0004F2D55276627772720E130E08EE19DE0B7
:1039F0000E94CA396DE579E08EE19DE00E9431397F
:103A00004E2D50E060E070E02AE030E08EE19DE075
:103A10000E94B3396EE28EE19DE00E9432394D2D55
:103A200050E060E070E02AE030E08EE19DE00E942E
:103A3000CA396FEF80E49BE07AD380E49BE049D3FE
:103A40000E940A0240EA56E861E070E081EA9AE0EA
:103A50008AD6811110C064EE71E08EE19DE00E9473
:103A60003C392FEF83ED90E3215080409040E1F707
:103A700000C00000E7CF2FEF80E792E021508040A8
:103A80009040E1F700C0000066EC71E08EE19DE03F
:103A90000E943C3981EA9AE0C4D70E940A026CE68F
:103AA00079E08EE19DE00E945C3988EC9CE00E9408
:103AB0000F3668E270E088EC9CE00E942C3660E0F3
:103AC00088EC9CE00E94D13560E588EC9CE00E9487
:103AD000D13588EC9CE00E94A3362FEF80E792E07E
:103AE000215080409040E1F700C0000062E570E0A6
:103AF00088EC9CE00E942C3660E088EC9CE00E9400
:103B0000D13560E588EC9CE00E94D13588EC9CE0E2
:103B10000E94A33688EC9CE00E941E3660EA79E0A1
:103B20008EE19DE00E945C390E940A0260E280E81A
:103B30009AE036D02CE340E063EC80E89AE036D09F
:103B40008EEF9FEF9093310B8093300B61EB79E018
:103B50008AE39BE00E94763C6AE37BE08EE19DE095
:103B60000E944C390E940A020E940A020E940A0224
:103B7000CE0101960E94903B26960FB6F894DEBFC8
:103B80000FBECDBFDF91CF911F910F91FF90EF90AE
:103B9000DF90CF900895FC01108211821282089567
:103BA000FC01608388EC9CE00C940F36FF920F932D
:103BB0001F93CF93DF93EC01F62E042F122F688111
:103BC00088EC9CE00E94223661E088EC9CE00E9438
:103BD000D1356F2D88EC9CE00E94D13588EC9CE0BB
:103BE0000E94A336688188EC9CE00E94223662E045
:103BF00088EC9CE00E94D135602F88EC9CE00E940C
:103C0000D13588EC9CE00E94A3368FE39CE90197B4
:103C1000F1F700C00000688188EC9CE00E94223629
:103C200063E088EC9CE00E94D135612F88EC9CE039
:103C30000E94D13588EC9CE00E94A3368FE39CE97A
:103C40000197F1F700C00000DF91CF911F910F9114
:103C5000FF900895CF93C62FFC01608188EC9CE013
:103C60000E94223663E088EC9CE00E94D1356C2FE4
:103C700088EC9CE00E94D13588EC9CE0CF910C94BC
:103C8000A336CF93DF93EC01688188EC9CE00E941F
:103C9000223660E088EC9CE00E94D13588EC9CE004
:103CA0000E94A336688170E041E050E088EC9CE01F
:103CB0000E94A136C0E088EC9CE00E944335892B2D
:103CC00031F088EC9CE00E944B35C82FF4CF8C2F4C
:103CD000DF91CF910895CF93DF93EC01862F6C8312
:103CE0004D831D8A1E8A60E00E94FD3A61E08D814D
:103CF000DF91CF910C94FD3ACF93DF93EC0188ECE8
:103D00009CE00E940F3661E08D810E94393B60E0AB
:103D10008D810E94393B60E971E080E090E00E9473
:103D2000553A61E08D810E94393B6AE070E080E0A5
:103D300090E0DF91CF910C94553A4F925F926F9241
:103D40007F928F929F92AF92BF92EF92FF920F93CA
:103D50001F93CF93DF93CDB7DEB72C970FB6F894B0
:103D6000DEBF0FBECDBF7C015A01280139016CEEC8
:103D700071E00E94F73B8501812C912C5401841441
:103D80009504A604B70409F446C0F80161918F01B7
:103D900040E1CE016031F0F401960E94A23CB701EF
:103DA000CE0107960E94633C6FE878E0CE0107964B
:103DB0000E94DD3DBE016F5F7F4F0E94CC3DBC0184
:103DC000C7010E944E3CCE0107960E94903BCE0157
:103DD000019619C007960E94A23CB701CE01019638
:103DE0000E94633CBE01695F7F4FCE0101960E9435
:103DF000CC3DBC01C7010E944E3CCE0101960E9401
:103E0000903BCE0107960E94903BFFEF8F1A9F0ACE
:103E1000AF0ABF0AB4CF8EE19DE00E943939C701D5
:103E20002C960FB6F894DEBF0FBECDBFDF91CF91B9
:103E30001F910F91FF90EF90BF90AF909F908F9048
:103E40007F906F905F904F900895FC0184810E9455
:103E5000673B91E0811190E0892F0895CF92DF9226
:103E6000EF92FF921F93CF93DF936C017B01C0E031
:103E7000D0E0C601EADF182F811115C0E114F1046A
:103E800059F02A96EC16FD0638F46FEC79E08EE1D5
:103E90009DE00E945C3907C06AE070E080E090E03D
:103EA0000E94553AE6CF812FDF91CF911F91FF906D
:103EB000EF90DF90CF900895FF920F931F93CF93D1
:103EC000DF93F62E072F142F62E070E080E090E081
:103ED0000E94553A42E0410F64E288EC9CE00E9467
:103EE0009F3688EC9CE00E944B35CF2DD02FCE0121
:103EF000810F911D8C01C017D10761F061E070E066
:103F000080E090E00E94553A88EC9CE00E944B359E
:103F10008993F1CFDF91CF911F910F91FF90089579
:103F2000CF93DF9300D000D000D0CDB7DEB746E00E
:103F3000BE016F5F7F4FC0DF46E050E061E671E099
:103F4000CE0101960E94A44221E0892B09F020E0D5
:103F5000822F26960FB6F894DEBF0FBECDBFDF913D
:103F6000CF910895682F88EC9CE00C94D135CF92C6
:103F7000DF92EF92FF920F931F93CF93DF937B011A
:103F8000C1E0C40F62E070E080E090E00E94553A2A
:103F900064E270E088EC9CE00E942C3680E0E2DF76
:103FA00080E0E0DF8FEFDEDF8C2FDCDF8C2F819570
:103FB000D9DF84EDD7DFC12C83EDD82ED0E0219757
:103FC0000C2D10E00C171D0754F40E0D1F1DF801E9
:103FD0008081C8DFF8018081D80EC394F1CF8D2D88
:103FE0008095C0DF80E0BEDF88EC9CE0DF91CF9160
:103FF0001F910F91FF90EF90DF90CF900C94A3361C
:104000000F931F93CF93DF93EC018901B0DFB801C9
:10401000CE0124DF811102C080E00EC0CE0180DF1E
:104020008823D1F39D89992339F0B801CE01DF911E
:10403000CF911F910F9112CFDF91CF911F910F91CF
:104040000895CF93DF93EC0182E08093CF0B28EEAD
:1040500033E041E06FEC7BE0CE01D2DF811104C0A0
:1040600060E070E0CB0132C04CE06FEC7BE0CE0151
:1040700023DF46E050E06BE571E08FEC9BE00E94AF
:10408000A442892B69F78D89811103C0E7E0F0E034
:1040900002C0E6E0F0E0E153F44F6081862F90E04B
:1040A000A0E0B0E0BA2FA92F982F88272181822B7A
:1040B000BA2FA92F982F88272281822BBA2FA92FB8
:1040C000982F88272381BC01CD01622BDF91CF91EE
:1040D0000895CF93DF93EC0194E19093CF0B81E0AF
:1040E0008093D00B9093D10B8093D20B28EE33E0CA
:1040F00044E06FEC7BE0CE0183DF8823A9F048E049
:104100006FEC7BE0CE01D8DE8D89811103C086E0A3
:1041100090E002C085E090E0FC01E153F44F81E0C3
:104120009081953109F080E0DF91CF910895EFEC17
:10413000FBE022E3208325E021832FEF228321E08F
:104140002383648328EE33E045E0BF0159CFAF926B
:10415000BF92CF92DF92EF92FF920F931F93CF9374
:10416000DF93EC017A01590168018AE48093CF0B57
:1041700081E08093D00B6093D10B980143E06FEC0A
:104180007BE0CE013DDF182F882341F18D89882304
:1041900079F044E16FEC7BE0CE018EDE8091D60BAE
:1041A0008130E1F48091DB0BF501808380E006C073
:1041B000B601CE0153DE8111ECCF10C09091DB0B24
:1041C000891768F4282F30E0F901E153F44F958501
:1041D000F701E20FF31F90838F5FF0CF10E0812F84
:1041E000DF91CF911F910F91FF90EF90DF90CF90D3
:1041F000BF90AF900895AF92BF92CF92DF92EF92AF
:104200000F931F93CF93DF93EC01142F5C018EE08B
:10421000A80EB11C86E0F601D50101900D928A9599
:10422000E1F750E0CE0106960E948B421D8780E4A4
:104230008093CF0B81E08093D00BE11002C080E629
:1042400001C081E68093D10B0093D20B86E0F5018B
:10425000A3EDBBE001900D928A95E1F780E04D85DA
:10426000841760F4282F30E0FE01E20FF31F9681DF
:10427000F901E153F44F92878F5FF1CF465F28EE4B
:1042800033E06FEC7BE0CE01BBDE882349F04CE0ED
:104290006FEC7BE0CE0110DE81E09091D60B9111A6
:1042A00080E0DF91CF911F910F91EF90DF90CF9041
:1042B000BF90AF9008950F931F93CF93DF93EC01BE
:1042C0008A0180E48093CF0B81E08093D00B80E360
:1042D0008093D10B6093D20B28EE33E044E06FEC77
:1042E0007BE0CE018DDE811102C080E012C04AE188
:1042F0006FEC7BE0CE01E0DD8091D60B8111F5CF34
:1043000080E1E7EDFBE0D80101900D928A95E1F79D
:1043100081E0DF91CF911F910F910895CF93DF93AB
:10432000EC0180E48093CF0B81E08093D00B80EA96
:104330008093D10B6093D20B80E1FA01A3EDBBE037
:1043400001900D928A95E1F728EE33E044E16FEC9D
:104350007BE0CE0155DE882369F06AE070E080E002
:1043600090E00E94553A4AE16FEC7BE0CE01A4DD7B
:1043700081E001C080E0DF91CF910895803D27E08A
:10438000920710F0805D974050E0E8E2F2E021E013
:10439000261730F43491430F511D2F5F3196F8CF1B
:1043A000633038F09C0123703327232B11F44F5FC7
:1043B0005F4FBC016D5F7F4F7695679576956795EA
:1043C000EDE6F1E08E9F90018F9F300D9E9F300DA6
:1043D0001124C9010197860F971F840F951F089517
:1043E000FC01908190539A3008F090E081818053D5
:1043F0002AE0929F800D112408958F929F92AF9290
:10440000BF92CF92DF92EF92FF92CF93DF93EC01B6
:104410006A017B0180E8C81A83E4D80A8DE6E80ABD
:1044200088E3F80A8CE3882E912CA12CB12CC701CB
:10443000B601A50194010E94EC3F6D83CA01B90148
:10444000A50194010E94EC3F6C83C701B60120E1F5
:104450003EE040E050E00E94EC3FCA01B90128E193
:1044600030E040E050E00E94EC3F6B83C701B601B2
:1044700020E831E541E050E00E94EC3F188288815D
:10448000982F937041E050E011F040E050E0BA0105
:1044900063597E4F2617370738F0241B350B2D56EE
:1044A00031408F5F8883EBCF81E089838981E82F5A
:1044B000F0E0E95DFD4FE491911103C0823009F411
:1044C000EF5FF0E02E173F0720F02E1B3F0B8F5FB2
:1044D000ECCF2F5F2A83DF91CF91FF90EF90DF9099
:1044E000CF90BF90AF909F908F900895EF92FF92E2
:1044F0000F931F93CF93DF93CDB7DEB72B970FB6F4
:10450000F894DEBF0FBECDBF8C017A014BE050E0C6
:10451000CE0101960E948242CE010A9661DFF80127
:104520008083E9818E2F90E0FC01E154F109E331B1
:10453000F10548F5ED5AFF4F0C940E408A81813603
:1045400029F08B818E3621F087E01BC081E019C0F5
:1045500086E017C082E015C08B81823711F088E0B9
:1045600010C084E00EC08B81823711F085E009C055
:1045700083E007C089E005C08AE003C08BE001C08A
:104580008CE0F8018183CE0105962ADFF801828351
:1045900048E050E0B701CE0101960E948242CE0170
:1045A00001961EDFF8018383CE01049619DFF8011E
:1045B0008483CE01079614DFF80185832B960FB60E
:1045C000F894DEBF0FBECDBFDF91CF911F910F9149
:1045D000FF90EF900895FC0180814281618190E01D
:1045E000CDDE069667E070E00C94D83F0895EF9218
:1045F000FF920F931F93CF93DF93EC0188814A8141
:10460000698190E0BBDE9C01A8E1B0E00E94174008
:104610002B817B018C01E20EF11C011D111DA801F3
:104620009701ACE3B0E00E9426402C817B018C0115
:10463000E20EF11C011D111DA80197010E942640E8
:104640002D81DC01CB01820F911DA11DB11DBC018B
:10465000CD0160587C4B8249974CDF91CF911F91DF
:104660000F91FF90EF900895EF92FF920F931F9399
:10467000CF93DF93EC0188814A81698190E07EDEEF
:104680009C01A8E1B0E00E9417402B817B018C01C6
:10469000E20EF11C011D111DA8019701ACE3B0E071
:1046A0000E9426402C817B018C01E20EF11C011D31
:1046B000111DA80197010E9426402D81620F711DD6
:1046C000811D911DDF91CF911F910F91FF90EF9070
:1046D0000895FC01108211821282138214820895BF
:1046E00008950F931F93CF93DF93EC01062F142FA0
:1046F00068E688EC9CE00E942236602F88EC9CE003
:104700000E94D135612F88EC9CE00E94D13588EC65
:104710009CE00E94A3368883DF91CF911F910F9177
:1047200008951F93CF93DF93EC01162F68E688EC72
:104730009CE00E942236612F88EC9CE00E94D135DB
:1047400088EC9CE00E94A336888341E068E688EC10
:104750009CE00E949F3688EC9CE00E944B35DF91E4
:10476000CF911F910895CF92DF92EF92FF92CF9356
:10477000DF93EC016A017B0188EC9CE00E940F361C
:10478000B701A60188EC9CE00E941F3668E688EC21
:104790009CE00E94223688EC9CE00E94A3368111A6
:1047A0000AC062E0CE01BDDF482F4F7B62E0CE0140
:1047B00098DF81E001C080E0DF91CF91FF90EF9022
:1047C000DF90CF9008950F931F93CF93DF938C01C9
:1047D000EB0168E688EC9CE00E94223660E088EC01
:1047E0009CE00E94D13588EC9CE00E94A33688832F
:1047F00047E068E688EC9CE00E949F3688EC9CE0ED
:104800000E944335079709F064C088EC9CE00E9441
:104810004B35982F9695969596959E70292F220F39
:10482000220F920F8F70890F8D8388EC9CE00E947D
:104830004B35982F9695969596959E70292F220F19
:10484000220F920F8F70890F8E8388EC9CE00E945C
:104850004B35982F9695969596959E70292F220FF9
:10486000220F920F8F70890F8F8388EC9CE00E943B
:104870004B3588EC9CE00E944B35982F9695969589
:1048800096959670292F220F220F920F8F70890F05
:10489000888788EC9CE00E944B3584FB992790F92F
:1048A000990F292F220F220F920F8F70890F89875E
:1048B00088EC9CE00E944B35982F92959F708F70EA
:1048C0002AE0929F800D112490E08053984F9B879F
:1048D0008A872D813E814F81588569858A859B8590
:1048E000803D77E0970710F0805D9740F801808366
:1048F00061835283438334832583C801DF91CF9141
:104900001F910F910895DF92EF92FF920F931F93E3
:10491000CF93DF9300D000D000D0CDB7DEB78C01AD
:104920007B01FB0185819AE0D92E6D2D0E94CC3F41
:10493000492FF0E18F9F400D112460E0C801D1DEC6
:10494000F70184816D2D0E94CC3F492FF0E18F9FAC
:10495000400D112461E0C801C4DEF70183816D2D93
:104960000E94CC3F492FF0E18F9F400D112462E05F
:10497000C801B7DEC7012FDE482F63E0C801B1DEF2
:10498000F70182816D2D0E94CC3F492FF0E18F9F6E
:10499000400D112464E0C801A4DEF70181816D2D72
:1049A0000E94CC3F492FF0E18F9F400D112465E01C
:1049B000C80197DEF70180816D2D0E94CC3F492F01
:1049C000F0E18F9F400D112466E0C8018ADE6FE0A0
:1049D000C801A7DE482F4F776FE0C80182DE6EE086
:1049E000C8019FDE482F4F776EE0C8017ADEB8011C
:1049F000CE010196E8DECE010196F9DDF801618372
:104A000072838383948326960FB6F894DEBF0FBE1D
:104A1000CDBFDF91CF911F910F91FF90EF90DF906D
:104A200008950F931F93CF93DF9300D000D000D051
:104A3000CDB7DEB78C014FE152E063E172E0CE0109
:104A4000019654DDBE016F5F7F4FC8015CDF269683
:104A50000FB6F894DEBF0FBECDBFDF91CF911F918F
:104A60000F9108950F9300E020E040E060E08FE0B8
:104A70009CE00E949E380F910895FB014281538172
:104A800064817581FC01428353836483758317823B
:104A900016820895CF93DF93DA01FB01EB01899130
:104AA0008111FDCF80E090E020E030E04AE05191BC
:104AB0005523E9F02430310544F55E3269F48F3F27
:104AC000910509F014F5ED01C20FD31F8A832F5F02
:104AD0003F4F80E090E0EBCF489FB001499F700DC1
:104AE0001124852F90E0C097860F971FE0CF8F3F4E
:104AF000910509F054F4243031053CF4FD01E20F36
:104B0000F31F828381E090E002C080E090E0DF91BB
:104B1000CF9108950F9300E020E040E060E085E150
:104B20009CE00E949E380F9108958F929F92AF92C1
:104B3000BF92CF92DF92EF92FF920F931F93CF938A
:104B4000DF9300D01F92CDB7DEB76C017B010E94CE
:104B5000243AF601778366838601085F1F4FB6010A
:104B60006A5F7F4F42E050E0C80130D581E090E0BD
:104B70009A83898342E050E0BE016F5F7F4FC80196
:104B800025D580E091E09A83898342E050E0BE0120
:104B90006F5F7F4FC8011AD51A82198242E050E038
:104BA000BE016F5F7F4FC80111D542E050E0BE01EA
:104BB0006F5F7F4FC8010AD542E050E0BE016F5FD2
:104BC0007F4FC80103D55701F50180818823F9F093
:104BD000A7015A01F50181916F01882321F08E32DE
:104BE00011F0A601F6CF4A018E189F081814190477
:104BF00064F48B8241E050E0BE016D5F7F4FC801DD
:104C0000E5D4A401B701C801E1D47601DDCF1B8250
:104C100041E050E0BE016D5F7F4FC801D7D4E12C69
:104C2000FF24F394FA82E98242E050E0BE016F5F14
:104C30007F4FC801CBD4FA82E98242E050E0BE0146
:104C40006F5F7F4FC801C2D481E090E00F900F905A
:104C50000F90DF91CF911F910F91FF90EF90DF9018
:104C6000CF90BF90AF909F908F9008952F923F92DA
:104C70004F925F926F927F928F929F92AF92BF926C
:104C8000CF92DF92EF92FF920F931F93CF93DF9318
:104C9000CDB7DEB763970FB6F894DEBF0FBECDBFBA
:104CA0007C016B011A010E94243A4B015C018701CF
:104CB000085F1F4F2601612C712CC80129D51816D9
:104CC0001906A4F00E94243ADC01CB018819990945
:104CD000AA09BB09481659066A067B06D0F062E3AA
:104CE00070E080E090E00E94553AE7CFF701428102
:104CF000538164817581818D928DA38DB48D481708
:104D000059076A077B0749F4858D968DC59729F465
:104D100009C0EE24EA94FE2CF0C09EEFE92EFF2499
:104D2000FA94EBC0C80108D40C970CF4E2C04CE034
:104D300050E0BE016F5F7F4FC80183D48B819C819F
:104D40009827892798279A8B898BF7014681578165
:104D500029813A814217530711F497FD07C0C80112
:104D600005D47CEFE72EFF24FA94C7C08F709270B1
:104D7000892B39F0C801FAD36BEFE62EFF24FA94A1
:104D8000BCC0CF80D884DC24CD24DC24C114D10461
:104D900019F0E12CF12C1FC0C801E8D35AEFE52E21
:104DA000FF24FA94AAC041E050E0BE01635F7F4F48
:104DB000C80147D48D85811117C08D858111F3CF2E
:104DC000C80117D4C80115D4C80113D4C80111D41F
:104DD000FFEFEF1AFF0A8D819E8198278927982778
:104DE000E816F90600F309C08D859FEF980F9D879F
:104DF000882319F3C801FDD3F7CFA12CB12C41E0D2
:104E000050E0BE016D5E7F4FC8011BD48B89982F87
:104E1000907C59F4882379F08B899FEF980F9B8BB6
:104E2000882331F0C801E5D3F7CFC801E2D31B8A4C
:104E30008B898111E4CF42E050E0BE01615F7F4F7A
:104E4000C801FFD342E050E0BE01635F7F4FC8015D
:104E5000F8D3C801CED3C801CCD3C801CAD3C80186
:104E6000C8D342E050E0BE016F5E7F4FC801E9D376
:104E70008F8598898115914049F4ED84FE84FE2444
:104E8000EF24FE2481E0E816F10419F0E12CF12C66
:104E900014C089899A898115944039F0C80166D374
:104EA00047EFE42EFF24FA9428C0B1016E5F7F4FD4
:104EB00044E050E0C801C5D320C089899A89982769
:104EC00089279827E816F90630F4C80192D3FFEF36
:104ED000EF1AFF0AF2CF2FEFA21AB20ACA14DB04AC
:104EE00009F08DCFC80142D336EFE32EFF24FA94A8
:104EF00004C08DEFE82EFF24FA94C70163960FB625
:104F0000F894DEBF0FBECDBFDF91CF911F910F91FF
:104F1000FF90EF90DF90CF90BF90AF909F908F90D9
:104F20007F906F905F904F903F902F9008958F9259
:104F30009F92AF92BF92CF92DF92EF92FF920F9328
:104F40001F93CF93DF9300D000D000D0CDB7DEB752
:104F50007C014B015A019EDD8C01892B09F057C061
:104F6000F70142815381648175818091170C909182
:104F7000180CA091190CB0911A0C481759076A0720
:104F80007B0709F447C00E94243A6701F8E0CF0E7E
:104F9000D11C6F7077277C5FC60189D3813009F0FF
:104FA0003BC080E69AE09A838983F70182819381EE
:104FB000A481B5818B839C83AD83BE8345E350E0A0
:104FC000BE016F5F7F4FC601F7D2892B19F400E055
:104FD00010E01AC0B401C701A8DD892BC1F3C601D6
:104FE000F2D2892BA1F383E0882E912CA50168E8E9
:104FF00073E1C7013BDE8C0121E0821A910821F0A8
:105000000F3FFFEF1F0791F3C601C2D205C001E0B9
:1050100010E002C00EEF1FEFC80126960FB6F894FD
:10502000DEBF0FBECDBFDF91CF911F910F91FF90DB
:10503000EF90DF90CF90BF90AF909F908F900895AA
:1050400024E030E0AC0164E081E090E035C624E08B
:1050500030E0AC0164E085E090E02EC626E030E070
:10506000AC0164E089E090E027C624E030E0AC01C8
:1050700064E08FE090E020C68F929F92AF92BF9243
:10508000CF92DF92EF92FF920F931F93CF93DF9314
:105090004C015B016A01E901FC01648585E59CE046
:1050A00053D6C501DBDFC6010296DFDFC8010296D9
:1050B000C7DFC7010296CBDF8A819B81AC81BD81AE
:1050C000F40182839383A483B583DF91CF911F91F1
:1050D0000F91FF90EF90DF90CF90BF90AF909F9097
:1050E0008F90089520E63AE0FC0131832083FB0194
:1050F0004281538164817581FC01428353836483BF
:10510000758308950F9300E020E040E060E088E3BD
:105110009CE00E949E388BE19CE00E949438EBE179
:10512000FCE0138612868AE084870F910895DC01E3
:10513000ED91FC91028CF38DE02D099591E089278A
:105140000895CF93DF931F92CDB7DEB76983DC015B
:10515000ED91FC910280F381E02D41E050E0BE0131
:105160006F5F7F4F09950F90DF91CF91089521E0F8
:10517000FC018485883009F420E0822F0895FC0129
:105180009485FB018485981303C081E0983009F46D
:1051900080E00895CF92DF92EF92FF920F931F93DA
:1051A000CF93DF93CDB7DEB7AF970FB6F894DEBFDE
:1051B0000FBECDBF8C016B017A01CE0101960E941A
:1051C0009438CE010996F3D2CE018A960E94943883
:1051D0006BE17CE0CE01849685DFBE016C5D7F4F84
:1051E000CE0101964ADCAE01465D5F4FB601CE01AD
:1051F00001969DDE81309105C1F4D801ED91FC91BD
:105200000684F785E02D80E69AE09DA38CA38CA50B
:105210009DA5AEA5BFA58EA39FA3A8A7B9A7A701CB
:10522000BE016C5D7F4FC8010995AF960FB6F8942B
:10523000DEBF0FBECDBFDF91CF911F910F91FF90C9
:10524000EF90DF90CF9008950F931F93CF93DF934C
:105250008C01D42FC52FFC018485883041F481E076
:1052600090E0F8019383828380E090E005C0CFD383
:10527000892BA9F38D2F9C2FDF91CF911F910F9137
:105280000895FC016485683019F085E59CE0D0C57F
:1052900080E090E00895CF93DF931F92CDB7DEB703
:1052A00041E050E0BE016F5F7F4FFC018485F7D382
:1052B000181619061CF4898190E002C08FEF9FEF49
:1052C0000F90DF91CF910895FC018485E8C30F937F
:1052D0001F93CF93DF931F92CDB7DEB78C01DC0114
:1052E000ED91FC910084F185E02D0995892B49F021
:1052F000BE016F5F7F4FF801848512D4898190E0F1
:1053000002C08FEF9FEF0F90DF91CF911F910F9110
:105310000895FC01848511C4FC011382128288EE79
:1053200093E0A0E0B0E084839583A683B7838CEDFF
:1053300099E09183808388E084870895FC016485E7
:10534000683039F06295660F607E685F83E090E0B8
:10535000DFC480E00895CF93DF93FC0124852830DB
:10536000C9F0EC01EBDF843181F0882371F08831E2
:1053700061F08C3161F4E881F9810084F185E02DE0
:10538000CE01099521E0892B19F420E001C021E02C
:10539000822F01C080E0DF91CF910895CF92DF92FC
:1053A000EF92FF92CF93DF93EC018C85883069F107
:1053B00029D30E94243A6B017C01CE01BFDF8823F0
:1053C000A1F00E94243ADC01CB018C199D09AE09A1
:1053D000BF09883E9340A105B10538F461E070E053
:1053E00080E090E00E94553AE8CFCE01A7DF882305
:1053F00011F08C8596D2EC85F0E0EE0FFF1FE85D92
:10540000F34F1182108288E08C87DF91CF91FF905B
:10541000EF90DF90CF900895CF92DF92FF920F939D
:105420001F93CF93DF93FC0124852830C1F56A01D7
:105430008B01EC01F12C6F2D6295660F607E685F29
:1054400083E090E065D4811102C0FC8607C08B7FA9
:105450008831D9F3F394F8E0FF12EDCF8C858830D2
:10546000F1F020916701309168012F5F3F4F11F4F7
:1054700020E034E030936801209367014091670198
:105480005091680120E061E057D2B8016E5F7F4F14
:10549000A6018C8584D2811105C088E08C8780E0CC
:1054A00090E00FC0CE014ADF873149F061E070E043
:1054B00080E090E00E94553ACE0140DFECCF81E0E1
:1054C00090E0DF91CF911F910F91FF90DF90CF90EF
:1054D00008950F9300E020E040E060E08EE39CE060
:1054E0000E949E380F9108950F9300E020E040E065
:1054F00060E084E49CE00E949E380F91089580E073
:105500000895DC01ED91FC91048CF58DE02D09945A
:1055100020E63AE0FC0131832083FB014189528976
:1055200063897489FC01428353836483758308957E
:10553000FC01858996890895FC01818D928D0895DD
:10554000CF93DF931F92CDB7DEB76983DC01ED9176
:10555000FC910280F381E02D41E050E0BE016F5FDD
:105560007F4F09950F90DF91CF910895CF93DF93EF
:10557000EC01898D9A8D892B41F0E881F9810284B3
:10558000F385E02DCE010995F4CFDF91CF910895F9
:10559000CF93DF93EC018C85883059F0C2D1EC8534
:1055A000F0E0EE0FFF1FE85DF34F1182108288E0FC
:1055B0008C87DF91CF910895FC01108E178A6E5F62
:1055C0007F4F8485E6C2FC01848506C3CF93DF93B9
:1055D000EC019A018F89988DAB01BC018C85AED20C
:1055E0002F89388D280F391F388F2F8BDF91CF915E
:1055F00008950F931F93CF93DF931F92CDB7DEB71C
:10560000FC01218D328D232B59F08C0141E050E0BB
:10561000BE016F5F7F4F848542D2181619061CF0B9
:105620008FEF9FEF08C0F801818D928D0197928FC7
:10563000818F898190E00F90DF91CF911F910F9121
:105640000895CF93DF93FC01218D328D2115310513
:1056500019F48FEF9FEF10C0EC014217530708F0C9
:10566000A9018C851CD2181619069CF7298D3A8D34
:10567000281B390B3A8F298FDF91CF910895CF9353
:10568000DF931F92CDB7DEB7FC01218D328D232B26
:1056900041F0BE016F5F7F4F848542D2898190E0E7
:1056A00002C08FEF9FEF0F90DF91CF910895EF929F
:1056B000FF921F93CF93DF93FC012485283011F0D4
:1056C00080E020C07B01EC0110E0612F6295660F45
:1056D000607E685F83E090E01BD3811102C01C876D
:1056E00005C08831E1F31F5F183079F78C85883069
:1056F00039F3FE86ED861A8E198E20E0A70162E04E
:105700001BD181E0DF91CF911F91FF90EF90089521
:105710000F931F93CF93DF93CDB7DEB728970FB6C4
:10572000F894DEBF0FBECDBF8C01DC01ED91FC9182
:105730000680F781E02D0995F801648585E59CE0F8
:1057400077D3892B39F148E050E0BE016F5F7F4F7E
:10575000D8011C968C91A3D118161906ECF4BE0141
:105760006F5F7F4FC8010F960E94AA388D8190E02D
:10577000982F88272E81820F911DF801968B858B9B
:105780008F8190E0982F88272885820F911D928F16
:10579000818F02C080E090E028960FB6F894DEBFBB
:1057A0000FBECDBFDF91CF911F910F910895FC01E6
:1057B0001382128288EE93E0A0E0B0E084839583A8
:1057C000A683B7838EEF99E09183808388E08487F6
:1057D000CF010F960C949438CF92DF92EF92FF9204
:1057E0000F931F93CF93DF93CDB7DEB7AF970FB66D
:1057F000F894DEBF0FBECDBF8C016B017A01CE01E4
:1058000001960E949438CE010996D1DFCE018A9686
:105810000E9494386BE17CE0CE01849663DCBE018B
:105820006C5D7F4FCE01019628D9AE01465D5F4F7A
:10583000B601CE0101967BDB81309105C1F4D80120
:10584000ED91FC910488F589E02D80E69AE09DA316
:105850008CA38CA59DA5AEA5BFA58EA39FA3A8A72D
:10586000B9A7A701BE016C5D7F4FC8010995AF962E
:105870000FB6F894DEBF0FBECDBFDF91CF911F9161
:105880000F91FF90EF90DF90CF9008950F9300E07D
:1058900020E040E060E08AE49CE00E949E380F91A6
:1058A0000895AB018295880F807E6CE0680F24E03C
:1058B00030E08CE090E000C29B018295880F807EF2
:1058C00068E0680FC90124C262E070E0F5CF9B0177
:1058D0008295880F807E6CE0680FC901CFC1CF939D
:1058E000DF93C82FD62F472F64E070E0F0DF4D2FF5
:1058F00065E070E08C2FDF91CF91E9CF462F62E019
:1059000070E0E5CFCF93DF93C82FD62F472F60E10C
:1059100070E0DDDF4D2F61E170E08C2FDF91CF91E2
:10592000D6CFCF93C82F40E1682F85E59CE070D398
:105930006FEF8C2FCF91E2CFFF920F931F93CF93F6
:10594000DF939FEF960F953018F5D22F8A01F62E30
:10595000C82FE7DF4F2D4D2B60E070E08C2FB7DFB5
:105960000115110511F0B8010AC06091500C709139
:10597000510C6F5F7F4F7093510C6093500C8C2FC4
:10598000AEDF41E06C2F85E59CE042D381E001C0B1
:1059900080E0DF91CF911F910F91FF9008950F93B9
:1059A0001F93CF93FB0190819F3F51F491819F3FC3
:1059B00091F492819F3F79F493819F3F61F41CC0E1
:1059C000911109C09181911106C09281911103C07A
:1059D0009381992391F04115510571F08A01BF011E
:1059E000C82F5FDFB8018C2F8DDF44E06C2F85E579
:1059F0009CE00ED391E001C090E0892FCF911F91E0
:105A00000F91089548E0682F85E59CE001C3CF928F
:105A1000DF92EF92FF920F931F93CF93C82F7B01DA
:105A20008A014130584010F000E018E06C2F85E505
:105A30009CE0CDD16C0163E070E08C2F3DDF8731BD
:105A400011F08C3121F4C016D10680F302C000E0C1
:105A500010E09801A7016C2F85E59CE03DD240E263
:105A60006C2F85E59CE0D4D28C2F2EDF84FD0BC0FB
:105A700063E070E08C2F20DF8111F6CF8C2F51DF97
:105A800080E090E004C060E18C2F38DFC801CF9146
:105A90001F910F91FF90EF90DF90CF900895CF92DC
:105AA000DF92EF92FF920F931F93CF93DF93182F04
:105AB0006B017A01682F85E59CE0BAD1EC01009773
:105AC00091F463E070E0812FF7DE8431F9F08823F0
:105AD000E9F0C1E0D0E08C3111F4C0E0D0E0D19524
