S015000074656D706C61746556756F746F2E7372656396
S113000066C100008EC100008CC100008AC10000DE
S11300100C940B0886C1000084C100000C942F08C6
S113002080C100007EC100007CC100007AC10000D4
S113003078C1000076C1000074C1000072C10000E4
S11300400C94943A6EC100000C946B380C949D3857
S113005068C1000066C1000064C1000062C1000004
S113006060C100005EC100000C94B8345AC10000A5
S113007058C1000056C1000054C1000052C1000024
S113008050C100004EC100004CC100002F12551297
S11300907E12A612F8122C13B213FB133314961407
S11300A03015011D181D181D151D181DFF1C181DC8
S11300B0181D181DF31C181D181D081D131D111DD6
S11300C0181D181D181D0F1D00407A10F35A00A0AA
S11300D0724E18090010A5D4E80000E8764817000D
S11300E000E40B54020000CA9A3B000000E1F5054D
S11300F0000080969800000040420F000000A08697
S113010001000000102700000000E80300000000C8
S11301106400000000000A0000000000010000006C
S113012000002C76D888DC674F0823DFC1DFAE5986
S1130130E1B1B796E5E3E453C63AE651997696E819
S1130140E6C28426EB898C9B62ED407C6FFCEFBC9D
S11301509C9F40F2BAA56FA5F490055A2AF75C93C8
S11301606B6CF9676DC11BFCE0E40D47FEF520E6FE
S1130170B500D0ED902E0300943577050080841EE1
S1130180080000204E0A000000C80C333333330F3C
S1130190986E12831141EF8D2114893BE65516CFD9
S11301A0FEE6DB18D1844B381BF77C1D901DA4BBE5
S11301B0E424203284725E228100C9F124ECA1E59A
S11301C03D274453333233314D20696E697469617C
S11301D06C697A65642E00556E61626C6520746F7B
S11301E02066696E64204453333233314D4D2E20E2
S11301F0436865636B696E6720616761696E206936
S11302006E2033732E00417072203235203230322A
S1130210300031363A30363A3235001F1C1F1E1F6B
S11302201E1F1F1E1F1E1F30004572726F72206337
S11302306F64653A2030780000000000040308076A
S113024000000200090A0000000000000000000095
S1130250000000000000000101020408102040809A
S113026001021020408010204080100820044080AB
S1130270010204080102040804040404040404043C
S11302800202020202020101010103030303030348
S11302900101010103030202000000002300260003
S11302A0290000000000250028002B0000000000A9
S11302B0240027002A00CC0A871FDF1FD722D3245B
S11302C0EE25C027CB278A2B4837CB38C20B112405
S11302D01FBECFEFD0E4DEBFCDBF1AE0A0E0B1E097
S11302E0E2E3FDE800E00BBF02C007900D92A637E1
S11302F0B107D9F72FE0A6E7BAE001C01D92AB3AE7
S1130300B207E1F711E0C6E6D1E004C02197FE018F
S11303100E943540CB35D107C9F70E9463390C944C
S11303208D466ECE449A0895DC01ED91FC910190C6
S1130330F081E02D09940F931F93CF93DF938C01E9
S11303400E5F1F4FEC01CA54DF4F6BEB71E0C80125
S11303500E94B13C0A5F1F4F0C171D07B1F7DF91D4
S1130360CF911F910F9108958BEA9EE00E94B236BF
S113037060E28BEA9EE00E94C53661E070E08BEAA1
S11303809EE0D2DF63EC70E08BEA9EE0CDDF8BEA87
S11303909EE00E94463760E28BEA9EE00E94C536EA
S11303A062E070E08BEA9EE0BFDF60E070E08BEA21
S11303B09EE0BADF8BEA9EE00E9446378FE39CE919
S11303C00197F1F700C0000060E28BEA9EE00E9412
S11303D0C53663E070E08BEA9EE0A6DF6CE370E074
S11303E08BEA9EE0A1DF8BEA9EE00E9446378FE312
S11303F09CE90197F1F700C0000060E28BEA9EE0FF
S11304000E94C53660E070E08BEA9EE08DDF8BEAE7
S11304109EE00E9446378BEA9EE00C94B236CF935E
S113042081E09FE00E94E839CDE768EB71E081E06C
S11304309FE00E94E039C150C1F781E09FE0CF9175
S11304400C94E839CF93DF93D82FC0E0CD1741F057
S11304506AEB71E081E09FE00E94E039CF5FF6CF64
S1130460DF91CF910895CF93C82F81E0EBDF6CEB40
S113047071E081E09FE00E94E039CC2319F060EC48
S113048071E002C065EC71E081E09FE00E94E03918
S113049081E0CF91D7CF4F925F926F927F928F92EC
S11304A09F92AF92BF92CF92DF92EF92FF920F93FF
S11304B01F93CF93DF9386E79AE00E94132F49019D
S11304C0D42FC52F2B013C01A0E00E94674109F401
S11304D060C06AEC71E081E09FE00E94E03980E452
S11304E0A82E92E4B92E2FE0C22ED12CE12CF12CAF
S11304F000E010E094014D2F5C2FB201C3010E9473
S11305005940F22FE32F2AE030E0CF01BA01492FFE
S1130510582F81E09FE00E94623A94014D2F5C2F96
S1130520B201C3010E945740F22FE32F2AE030E0CA
S1130530CF01BA01492F582F81E09FE00E94623A0F
S113054066ED71E081E09FE00E94E03961E073E0D4
S113055081E09FE00E94E03994014D2F5C2FB201AD
S1130560C30100E20E944041F22FE32F20E130E07A
S1130570CF01BA01492F582F81E09FE00E94623ACF
S113058020E130E0A4016D2F7C2F81E09FE00E94E8
S1130590623ADF91CF911F910F91FF90EF90DF901E
S11305A0CF90BF90AF909F908F907F906F905F900F
S11305B04F9035CFCF92DF92EF92FF926B017C0187
S11305C083E040DF69ED71E081E09FE00E94E03963
S11305D081E038DFB701A60186E79AE00E94882F00
S11305E08823F9F081E03FDF63EE71E081E09FE072
S11305F00E94E03965EF71E081E09FE00E940B3AD0
S113060081E020DF0CDF2FEF83ED90E32150804069
S11306109040E1F700C00000FF90EF90DF90CF9092
S1130620089580E0FF90EF90DF90CF901CCF83E09F
S113063009DF62E272E081E09FE00E94E03981E03C
S113064001DF86E79AE00E94E62F8823D1F081E05B
S11306500ADF63EE71E081E09FE00E94E0396DE221
S113066072E081E09FE00E94E0392FEF83ED90E398
S1130670215080409040E1F700C0000081E0E2DEBC
S1130680CECE80E0F0DE82E0DDDE6BE372E081E07E
S11306909FE00C94E03983E0D5DE63E772E081E00B
S11306A09FE00E94E03981E0CDDE86E79AE00E9477
S11306B010308823A1F081E0D6DE6CE772E081E09F
S11306C09FE00E94E0392FEF83ED90E321508040BA
S11306D09040E1F700C0000081E0B4DEA0CE80E0ED
S11306E0C2DE82E0AFCE83E0ADDE68E872E081E096
S11306F09FE00E94E03981E0A5DE86E79AE00E944F
S1130700BC2F8823D1F081E0AEDE63EE71E081E09E
S11307109FE00E94E03963E972E081E09FE00E947B
S1130720E0392FEF83ED90E3215080409040E1F7D2
S113073000C0000081E086DE72CE80E094CE8F920D
S11307409F92AF92BF92CF92DF92EF92FF9281E09D
S11307509FE00E94E83986E79AE00E94012F6B012E
S11307607C01672B682B692B41F461EA72E081E01C
S11307709FE00E940B3A80E0B2C067EF72E081E034
S11307809FE00E94E03920E130E0B701A60181E05A
S11307909FE00E94843A64E073E081E09FE00E945D
S11307A0E039B7018827992740E150E081E09FE0D4
S11307B00E94743A6FE073E081E09FE00E94E039A8
S11307C08D2C9E2CAF2CBB2440E150E0682D81E0A1
S11307D09FE00E94743A6DE173E081E09FE00E9423
S11307E0E03986E79AE00E94EA2EAB01BC012AE0D8
S11307F030E081E09FE00E94843A68E273E081E0A7
S11308009FE00E94E03986E79AE00E94F02EAB0157
S1130810BC012AE030E081E09FE00E94843A3BDEA4
S11308208CEB9CE00E941C2C67EF72E08CEB9CE04C
S11308300E94E03920E130E0B701A6018CEB9CE096
S11308400E94623A41E060E08CEB9CE00E94222C22
S113085064E373E08CEB9CE00E94E03986E79AE065
S11308600E94EA2EAB01BC012AE030E08CEB9CE054
S11308700E94623A42E060E08CEB9CE00E94222CF1
S11308806FE073E08CEB9CE00E94E03940E150E0C3
S1130890682D8CEB9CE00E946E3A43E060E08CEBA8
S11308A09CE00E94222C68E273E08CEB9CE00E94A6
S11308B0E03986E79AE00E94F02EAB01BC012AE001
S11308C030E08CEB9CE00E94623A2FEF8BE792E9D8
S11308D0215080409040E1F700C0000081E0FF908B
S11308E0EF90DF90CF90BF90AF909F908F9008953E
S11308F01816190644F4EFE9FFE03197F1F700C048
S113090000000197F5CF08958F929F92AF92BF9206
S1130910FF920F931F93CF93DF934A015B01C0E0D3
S1130920D0E0082F10E080E4F82EC017D1075CF463
S11309303E9A98B19F2598B9C401DADF98B19F25F2
S113094098B92196F2CFDF91CF911F910F91FF902B
S1130950BF90AF909F908F90089560E28BEA9EE0E5
S11309600E94C53663E070E08BEA9EE0DDDC63EC58
S113097070E08BEA9EE0D8DC8BEA9EE00E9446376A
S11309808FE19EE40197F1F700C00000089560E252
S11309908BEA9EE00E94C53663E070E08BEA9EE03D
S11309A0C3DC6CE370E08BEA9EE0BEDC8BEA9EE085
S11309B00E9446378FE19EE40197F1F700C00000E2
S11309C0089560E28BEA9EE00E94C53660E070E024
S11309D08BEA9EE0A9DC8BEA9EE00E9446378FE119
S11309E09EE40197F1F700C00000089560E28BEAED
S11309F09EE00E94C53661E070E08BEA9EE094DCE4
S1130A008BEA9EE00E9446378FE19EE40197F1F75E
S1130A1000C000000895CF92DF92EF92FF920F93EF
S1130A201F93CF93DF93CDB7DEB72C970FB6F8940F
S1130A30DEBF0FBECDBF8C016B017A018CEB9CE055
S1130A400E941C2C83E0C816D1040CF447C04091CA
S1130A50740B5091750B6091760B7091770B8091AC
S1130A60700B9091710BA091720BB091730B480FA6
S1130A70591F6A1F7B1F41505109610971098091F7
S1130A80780B9091790BA0917A0BB0917B0B481B5A
S1130A90590B6A0B7B0B2AE0CE0107960E94703D2E
S1130AA06AE373E0CE0101960E94B13CBE01695F26
S1130AB07F4FCE0101960E94093E62E473E00E94DA
S1130AC01A3EBC018CEB9CE00E94D239CE01019607
S1130AD00E944A3CCE0107960E944A3C61E08CEB9E
S1130AE09CE00E94E13941E060E08CEB9CE00E94D4
S1130AF0222CB8016A5F7F4F8CEB9CE00E94D239B4
S1130B0042E060E08CEB9CE00E94222CB801645F20
S1130B107F4F8CEB9CE00E94D23943E060E08CEB89
S1130B209CE00E94222CB8016E5E7F4F8CEB9CE00F
S1130B300E94D239C701DCDE2C960FB6F894DEBFD2
S1130B400FBECDBFDF91CF911F910F91FF90EF901A
S1130B50DF90CF9008956093700B7093710B809326
S1130B60720B9093730B8AE69BE00E94891D60933D
S1130B70740B7093750B8093760B9093770B809125
S1130B80930C9091940C01969093940C8093930CF5
S1130B900895AF92BF92CF92DF92EF92FF920F939C
S1130BA01F93CF93DF93CDB7DEB7A2970FB6F89418
S1130BB0DEBF0FBECDBF5C01F62E6BEB71E0CE0144
S1130BC04D960E94B13C08EC10E02CED3CE045ED64
S1130BD05CE060E085EA9CE00E94FC1A8093DD0CF6
S1130BE0882309F49DC04EE150E060E070E082E0AB
S1130BF08BDE8091DC0C843009F08CC086E0E4E468
S1130C00F1E0DE01579601900D928A95E1F7CE014D
S1130C1047966C01E12C04E010E020E030E044E071
S1130C2065ED7CE085EA9CE00E94501B8093DD0C1E
S1130C30882309F45FC0FF2099F080E1E7EAF9E036
S1130C40DE01119601900D928A95E1F7AE014F5F96
S1130C505F4F64E085EA9CE00E94E31B8093DD0C17
S1130C60AE014F5F5F4F64E085EA9CE00E94B01BD9
S1130C708093DD0C882389F168E473E081E09FE0D0
S1130C800E940B3ABE016F5F7F4FCE0141960E94D6
S1130C90B13CBE016F5E7F4F81E09FE00E94FB3953
S1130CA08D899E89069759F4BE016F5E7F4FC501F9
S1130CB00E94003DCE0141960E944A3C37C09FEFFE
S1130CC021EE84E0915020408040E1F700C0000014
S1130CD0CE0141960E944A3C1DC08CEB9CE00E94D0
S1130CE01C2C41E060E08CEB9CE00E94222C66E529
S1130CF073E00CC08CEB9CE00E941C2C41E060E093
S1130D008CEB9CE00E94222C60E673E08CEB9CE070
S1130D100E94E0396BEB71E081E09FE00E940B3AA6
S1130D20BE01635E7F4FC5010E94003DCE014D961A
S1130D300E944A3CC501A2960FB6F894DEBF0FBECE
S1130D40CDBFDF91CF911F910F91FF90EF90DF9076
S1130D50CF90BF90AF900895CF92DF92EF92FF9221
S1130D600F931F93CF93DF93CDB7DEB764970FB67E
S1130D70F894DEBF0FBECDBF7C01CE0101966C019D
S1130D8087E0F60111928A95E9F768E673E0C701F6
S1130D900E94B13C00E010E09E012C5E3F4FA60192
S1130DA060E085EA9CE00E94FC1A882359F10C89D2
S1130DB010E020E030E0A60165EA7CE0CE010E966A
S1130DC00E945117CE010E960E94C03E28E030E0EA
S1130DD040E050E0BE01625F7F4FCE0108960E9462
S1130DE07D3EBE01685F7F4FC7010E94253DCE0155
S1130DF008960E944A3C81E08093D40CCE010E9662
S1130E000E944A3CC70164960FB6F894DEBF0FBE39
S1130E10CDBFDF91CF911F910F91FF90EF90DF90A5
S1130E20CF9008955798569888E08093680080EC96
S1130E30809373007894089509980A98089591E02E
S1130E4090936800843419F40D9880E202C00E98DF
S1130E5080E480936B0078940895CF92DF92EF92B0
S1130E60FF92BC01990F880B990B0E94B9376B0153
S1130E707C0120E030E0A9010E944B3787FF03C0CA
S1130E80C12CD12C760160912C0170912D01072E7B
S1130E90000C880B990B0E94B9379B01AC01C70168
S1130EA0B6010E944F37FF90EF90DF90CF900895E6
S1130EB03F9A8130910571F082309105E1F0892BE0
S1130EC089F547982FEF30E742E021503040404009
S1130ED0E1F70EC028B101C0880F6A95EAF7822BAA
S1130EE088B98FEF90E722E0815090402040E1F7ED
S1130EF000C00000089528B181E090E001C0880F8F
S1130F006A95EAF7982F9095922398B93FEF45EAAE
S1130F102EE0315040402040E1F700C0000098B17D
S1130F20892B88B908950F9A81309105B9F08230E0
S1130F30910529F1892BD1F522B181E090E001C01E
S1130F40880F6A95EAF78095822382B92FEF30E7FC
S1130F5042E0215030404040E1F70EC022B101C0D0
S1130F60880F6A95EAF7822B82B98FEF90E722E027
S1130F70815090402040E1F700C00000089522B164
S1130F8081E090E001C0880F6A95EAF7982F909568
S1130F90922392B93FEF45EA2EE031504040204081
S1130FA0E1F700C0000092B1892B82B90895239A19
S1130FB02FEF36E741E0215030404040E1F700C0D8
S1130FC000008130910511F42B9A0895892B09F4BE
S1130FD02B9808951092920C1092910C1092980CE8
S1130FE01092970C68E877E089E49CE00E94FB3D4E
S1130FF02FEF81EE94E0215080409040E1F700C053
S1131000000020E030E044E650E06DEC7BE089E451
S11310109CE00C944F3E1F920F920FB60F92112436
S11310208F939F93059B09C08091910C9091920C92
S113103001969093920C8093910C069B09C0809129
S1131040910C9091920C01969093920C8093910C38
S11310509F918F910F900FBE0F901F9018951F9224
S11310600F920FB60F9211240BB60F922F933F934A
S11310704F935F936F937F938F939F93AF93BF939C
S1131080EF93FF938091930C9091940C049709F043
S113109084C04E9B29C08091A30D9091A40D01960C
S11310A09093A40D8093A30D8091A30D9091A40D12
S11310B01816190684F582E4C2DE67E070E080E069
S11310C090E031DF61EE71E081E69CE00E94303D0A
S11310D067E773E08FE99CE00E94303D6AE070E0CE
S11310E080E090E038DD0FC08091A10D9091A20DB9
S11310F001969093A20D8093A10D8091A10D9091E2
S1131100A20D029744F01092A40D1092A30D109218
S1131110A20D1092A10D4F9B29C08091A30D909117
S1131120A40D01969093A40D8093A30D8091A30D1B
S11311309091A40D1816190684F584E480DE67E006
S113114070E080E090E0B4DE6FE773E081E69CE05D
S11311500E94303D61E873E08FE99CE00E94303DDD
S11311606AE070E080E090E0F6DC0FC08091A10DB1
S11311709091A20D01969093A20D8093A10D809160
S1131180A10D9091A20D029744F01092A40D10921B
S1131190A30D1092A20D1092A10DFF91EF91BF919A
S11311A0AF919F918F917F916F915F914F913F91FB
S11311B02F910F900BBE0F900FBE0F901F9018959C
S11311C02F923F924F925F926F927F928F929F9253
S11311D0AF92BF92CF92DF92EF92FF920F931F9341
S11311E0CF93DF93CDB7DEB762970FB6F894DEBF27
S11311F00FBECDBF9A8B898B4A875B876C877D87AF
S1131200190147015801C88A9A01AB0162E00E94A2
S1131210BC318983882309F42FC1E989FA89E65A04
S1131220FF4F808120E031E08901081B1109E98921
S1131230FA898685811103C0CF010E949B302C98C6
S113124042E0E989FA89658DCF010E9426318989B6
S11312509A890E947E30C801A0E0B0E08816990601
S1131260AA06BB06B8F48101C80182199309A0E05B
S1131270B0E088159905AA05BB0550F4F801419121
S11312808F01E989FA89658DCF010E942631ECCF5F
S11312902C9AA1C0240135013D822C821F821E821A
S11312A029893A89265A3F4F3B832A8389899A8917
S11312B0825A9F4F9F878E876801E12CF12C4C1432
S11312C05D046E047F0410F473016201EA81FB8102
S11312D0808181110CC02C9842E0E989FA89658DDE
S11312E0CF010E94263189899A890E947E302C81FF
S11312F03D813987288789011D830C83C801E885CE
S1131300F9858E1B9F0BA0E0B0E08C159D05AE0502
S1131310BF0560F40F5F1F4FEC81FD814081E989B7
S1131320FA89658DCF010E942631E6CF2C9AEE858D
S1131330FF8580819181A281B3810097A105B105C8
S113134079F4EA81FB8180819181A281B3818C0D42
S11313509D1DAE1DBF1D80839183A283B38316C0E0
S11313602E813F81A90160E070E0481759076A07A0
S11313707B0760F0EA81FB81108211821282138262
S1131380EE85FF8510821182128213822E813F81A5
S11313902C0D3D1D3F832E834C185D086E087F087D
S11313A040E05AEC6AE97BE389899A890E945A31C0
S11313B0882309F461C061E089899A890E94A13176
S11313C0882309F459C000E011E041145104610478
S11313D0710409F071CF3889311105C089899A895E
S11313E00E9428314AC089899A890E944D3181110D
S11313F043C0950184014A855B856C857D85898917
S11314009A890E9429308823B9F140E05AEC6AE9AC
S11314107BE389899A890E945A31882369F12C983F
S113142043E0E989FA89658DCF010E9426318989D3
S11314309A890E947E308101C80182199309A0E033
S1131440B0E088159905AA05BB0540F6F801F190AE
S11314508F0140E0E989FA89648DCF010E94263129
S1131460F81651F340E06AE089899A890E94603352
S113147089899A890E9428311982898162960FB6D6
S1131480F894DEBF0FBECDBFDF91CF911F910F91B6
S1131490FF90EF90DF90CF90BF90AF909F908F9090
S11314A07F906F905F904F903F902F9008954F9250
S11314B05F926F927F92AF92CF92EF92FF920F93CF
S11314C01F93CF93DF93CDB7DEB7C65BD1090FB6B9
S11314D0F894DEBF0FBECDBF2B013C017A01122F61
S11314E0CE0101960E949B011E3121F0212F30E094
S11314F03A832983B701CE0109960E94083D8FE102
S11315009EE40197F1F700C00000C301B20152D874
S11315108FE19EE40197F1F700C000008BE0A82E54
S1131520CC24C39416EBE12EF12C00E010E09E01D4
S11315302F5F3F4FB301A20186E79AE041DE882383
S113154041F069E873E081E09FE00E940B3A0E9459
S11315500F028E0109541F4F3E0193E0690E711C66
S113156006501109C8010E944A3C06151705C1F727
S1131570CA54DF4F0FB6F894DEBF0FBECDBFDF9164
S1131580CF911F910F91FF90EF90CF90AF907F90EC
S11315906F905F904F9008958F92AF92CF92EF9299
S11315A00F9300E020E040E060E085EA9DE00E94C7
S11315B041398BEE9CE00E949B016BEB71E08EED58
S11315C09CE00E94B13C6BEB71E084EE9CE00E94D5
S11315D0B13C1F9283E08F9387E0882E96E0A92E7A
S11315E025E0C22E34E0E32E21E042E067E28CEBFA
S11315F09CE00E94A12D43E064E085EA9CE00E9407
S11316003C1767EA73E08FE99CE00E94B13C6BEB06
S113161071E089E99CE00E94B13C6BEB71E08BE8DE
S11316209CE00E94B13C6BEB71E087E69CE00E9479
S1131630B13C6BEB71E08DE69CE00E94B13C6BEB3E
S113164071E083E79CE00E94B13C6BEB71E089E7B9
S11316509CE00E94B13C6BEB71E08FE79CE00E9440
S1131660B13C6BEB71E085E89CE00E94B13C60EB1F
S113167073E081E69CE00E94B13C60EB73E085E599
S11316809CE00E94B13C60EB73E08BE59CE00E941F
S1131690B13C6BEB71E08FE49CE00E94B13C6BEBDE
S11316A071E089E49CE00E94B13C60EB73E081E36B
S11316B09CE00E94B13C60EB73E087E39CE00E94F5
S11316C0B13C60EB73E08DE39CE00E94B13C60EBC5
S11316D073E083E49CE00E94B13C09E025E048EA21
S11316E060EC87EC9BE00E94413905E121E048EA87
S11316F060EC81EC9BE00E94413901E020E048EA83
S113170060EC8BEB9BE00E94413900E020E04FEF5E
S11317106FEF85EB9BE00E94413988EA9BE00E94D1
S1131720E5238BE99BE00E94E52369E179E785E9FC
S11317309BE00E94342588E89BE00E94E5238CE727
S11317409BE00E94BE1D40E050E0BA018AE69BE0A7
S11317500E94521C6BEB71E080E69BE00E94B13C5E
S11317606BEB71E08AE59BE00E94B13C0F900F9017
S113177064E086E79AE00F91EF90CF90AF908F905E
S11317800C945B2ECF93DF938AE59BE00E944A3C46
S113179080E69BE00E944A3C8CE79BE00E94C51DCA
S11317A083E49CE00E944A3C8DE39CE00E944A3C16
S11317B087E39CE00E944A3C81E39CE00E944A3C0F
S11317C089E49CE00E944A3C8FE49CE00E944A3CED
S11317D08BE59CE00E944A3C85E59CE00E944A3CE3
S11317E081E69CE00E944A3CCBE8DCE02697CE01EF
S11317F00E944A3C8CE0C736D807C1F78BE89CE0CE
S11318000E944A3C89E99CE00E944A3C8FE99CE0A2
S11318100E944A3C84EE9CE00E944A3C8EED9CE08F
S11318200E944A3CC0E0D0E0CE018556924F0E940F
S11318304A3C2697CC348FEFD807B1F7DF91CF918C
S11318400895CF92DF92EF92FF920F931F93CF935D
S1131850DF93CDB7DEB768970FB6F894DEBF0FBE3F
S1131860CDBF86E5C82E8AE0D82EDA82C98280915F
S1131870B70B9091B80BA091B90BB091BA0B8B83B5
S11318809C83AD83BE83D886CF828091BD0B90911B
S1131890BE0BA091BF0BB091C00B89879A87AB8711
S11318A0BC87DE86CD868091C30B9091C40BA0913A
S11318B0C50BB091C60B8F87988BA98BBA8B68E246
S11318C071E0CE0143960E944D39CE0101967C0110
S11318D08E01095F1F4F9E01235F3F4FAE014D5E96
S11318E05F4F62E271E087EF9DE00E94912285E9FB
S11318F09BE00E94F424DA82C9828091C90B909102
S1131900CA0BA091CB0BB091CC0B8B839C83AD8382
S1131910BE8349EF5AE2B7018BE99BE00E9476242B
S1131920892B81F062EB73E081E09FE00E940B3A27
S11319308BE99BE00E94152490E09093960C809391
S1131940950C06C065EC73E081E09FE00E940B3AC1
S113195068960FB6F894DEBF0FBECDBFDF91CF916E
S11319601F910F91FF90EF90DF90CF900895CF9249
S1131970DF92EF92FF920F931F93CF93DF9300D0E8
S113198000D000D0CDB7DEB769ED73E081E09FE011
S11319900E940B3A3C9A0E949201249A2C9A8FE955
S11319A09FE00197F1F700C000003F9A0F9A8FE380
S11319B09CE90197F1F700C00000479A8FE39CE986
S11319C00197F1F700C00000179A20E044E064E1B9
S11319D08CEB9CE00E94272E8CEB9CE00E94042C54
S11319E09FEF24E38CE0915020408040E1F700C059
S11319F000008CEB9CE00E940C2C9FEF24E38CE015
S1131A00915020408040E1F700C000008CEB9CE046
S1131A100E94042C9FEF24E38CE0915020408040EE
S1131A20E1F700C000008CEB9CE00E940C2C9FEFBF
S1131A3024E38CE0915020408040E1F700C0000096
S1131A404EE251E061E08CEB9CE00E94EA2C9FEFB7
S1131A5029EF80E0915020408040E1F700C0000071
S1131A608CEB9CE00E94042C01E31CE06BEB71E026
S1131A70C8010E94303D0A5F1F4F9CE009341907DA
S1131A80A9F785EA9CE00E94291A2FEF80E792E0EB
S1131A90215080409040E1F700C0000085EA9CE0BE
S1131AA00E94761A6B017C01672B682B692B69F500
S1131AB06EEE73E081E09FE00E94E0398CEB9CE0E5
S1131AC00E94042C2FEF84E39CE02150804090403E
S1131AD0E1F700C000008CEB9CE00E941C2C67E046
S1131AE074E08CEB9CE00E94E0392FEF87EA91E6EA
S1131AF0215080409040E1F700C0000061E274E0B2
S1131B008FE99CE00E94303D06C064E374E081E00C
S1131B109FE00E940B3A69E474E081E09FE00E9438
S1131B20E0394F2D55276627772720E130E081E003
S1131B309FE00E94843A68E574E081E09FE00E949F
S1131B40E0394E2D50E060E070E02AE030E081E0C2
S1131B509FE00E94623A6EE281E09FE00E94E139D8
S1131B604D2D50E060E070E02AE030E081E09FE03D
S1131B700E94843A6FEF85EA9CE00E94EC1A85EAA1
S1131B809CE00E94BE1A2C9860E086E79AE00E94CE
S1131B90E12E882361F061E086E79AE00E94E12E5D
S1131BA04AE050E0682F81E09FE00E94743A40E0F0
S1131BB050E0BA0186E79AE00E94B92E0E949F0382
S1131BC0882309F448C00E940F0287E00E94220281
S1131BD067E674E081E09FE00E94E0390E940F0212
S1131BE083E00E9422026CE774E081E09FE00E949F
S1131BF0E0390E940F0282E00E9422020E944B03FD
S1131C0081E09FE00E94E83981E09FE00E94E8398A
S1131C100E94730381E09FE00E94E83965E874E064
S1131C20CE0101960E94B13C6091060170910701BA
S1131C30809108019091090120E0AE014F5F5F4F50
S1131C4036DCCE0101960E944A3C0E94170381E0D3
S1131C509FE00E94E83940EA56E861E070E08CE7D2
S1131C609BE00E94081E811110C067ED71E081E0C5
S1131C709FE00E94EB392FEF83ED90E321508040E9
S1131C809040E1F700C00000E6CF2FEF80E792E03C
S1131C90215080409040E1F700C0000062EC71E008
S1131CA081E09FE00E94EB398CE79BE00E94661F75
S1131CB06BE874E081E09FE00E940B3A61ED74E010
S1131CC081E09FE00E940B3A8BEA9EE00E94B236CC
S1131CD068E270E08BEA9EE00E94CF3660E08BEA17
S1131CE09EE00E94743662E370E08BEA9EE00E94FC
S1131CF094018BEA9EE00E9446372FEF80E792E042
S1131D00215080409040E1F700C0000062E570E09F
S1131D108BEA9EE00E94CF3660E08BEA9EE00E9450
S1131D20743662E370E08BEA9EE00E9494018BEAD1
S1131D309EE00E9446378BEA9EE00E94C13665E031
S1131D4075E081E09FE00E940B3A66E175E081E076
S1131D509FE00E940B3A6DE475E081E09FE00E94F1
S1131D600B3A2FEF80E792E0215080409040E1F75A
S1131D7000C000000E94B4012FEF80E792E02150E0
S1131D8080409040E1F700C000008EEF9FEF9093F9
S1131D90940C8093930C68E675E08FE99CE00E94B4
S1131DA0303D6FE97CE081E09FE00E94FB3926969C
S1131DB00FB6F894DEBF0FBECDBFDF91CF911F9158
S1131DC00F91FF90EF90DF90CF900895EF92FF92E4
S1131DD00F931F93CF93DF93CDB7DEB762970FB600
S1131DE0F894DEBF0FBECDBF8BEA9EE00E94113691
S1131DF041E050E060E270E08BEA9EE00E944437EC
S1131E006BEB71E0CE010D960E94B13C11E002E053
S1131E1083E0F82E94E0E92E8BEA9EE00E94E635FA
S1131E20892B09F455C18BEA9EE00E94EE3599276F
S1131E30823C910549F194F48334910541F124F4F1
S1131E40CC9709F449C046C08338910581F1813C9F
S1131E50910509F03FC00093680B1BC08B3C9105B2
S1131E6049F14CF4833C9105B9F1873C910591F516
S1131E701093690B24C0833D9105F9F0833E9105CD
S1131E8049F5E092690B1BC01093680B02C0F092F5
S1131E90680B8FE19EE40197F1F700C000000E94F7
S1131EA0C7048091670B8F5F8093670B15C0E09226
S1131EB0680BEFCF0093690B02C0F092690B8FE1BE
S1131EC09EE40197F1F700C000000E94AD040E9457
S1131ED0F60402C00E94C7040E94E1048091670BCB
S1131EE0882309F4EEC06091680B94E0699FB00107
S1131EF011246A5F7E4F80E69BE00E94303D809112
S1131F00680B843009F069C08091690B833081F4D7
S1131F108091660B8F5F8093660B833008F4CFC08B
S1131F2080915E0B90915F0B059709F0C8C04EC17C
S1131F30813009F05AC08091660B8F5F8093660BE5
S1131F40833008F4BCC046E950E060E070E081E012
S1131F500E9484046BEB71E08AE59BE00E94303DB3
S1131F6066E775E087E39CE00E94303D6BEB71E02F
S1131F708DE39CE00E94303D6AE875E0CE01019655
S1131F800E94B13C6AE57BE0CE0101960E94093EC5
S1131F90BC0183E49CE00E94083DCE0101960E94AE
S1131FA04A3C8CEB9CE00E941C2C43E060E08CEBF0
S1131FB09CE00E94222C6AE875E0CE0101960E9402
S1131FC0B13C6AE57BE0CE0101960E94093EBC016A
S1131FD08CEB9CE00E94D23927C0813021F0823002
S1131FE011F0833031F58091690B843011F566E787
S1131FF075E087E39CE00E94303D6BEB71E08DE37C
S11320009CE00E94303D6AE875E0CE0101960E9492
S1132010B13C6AE57BE0CE0101960E94093EBC0119
S113202083E49CE00E94083DCE0101960E944A3C54
S113203046C08091670B823008F041C02091690B43
S113204030E0A9014150510960E67BE0CE010196E0
S11320500E947D3EBE016F5F7F4F8AE59BE00E9438
S1132060F53DCE0101960E944A3C66E775E087E3A0
S11320709CE00E94303D6BEB71E08DE39CE00E949C
S1132080303D6AE875E0CE0101960E94B13C6AE5F4
S11320907BE0CE0101960E94093EBC0183E49CE0F2
S11320A00E94083DCE0101960E944A3C1092660BA4
S11320B04AE050E060E070E081E00E948404109205
S11320C0670B8FE39FE10197F1F700C00000A4CEF6
S11320D040E060E08CEB9CE00E94222C4091740B69
S11320E05091750B6091760B7091770B8091700B0A
S11320F09091710BA091720BB091730B480F591F03
S11321006A1F7B1F41505109610971098091780B45
S11321109091790BA0917A0BB0917B0B481B590BD2
S11321206A0B7B0B2AE0CE0107960E94703D6AE39E
S113213073E0CE0101960E94B13CBE01695F7F4FFE
S1132140CE0101960E94093E62E473E00E941A3EA9
S1132150BC018CEB9CE00E94D239CE0101960E9416
S11321604A3CCE0107960E944A3C61E08CEB9CE01D
S11321700E94E13943E060E08CEB9CE00E94222C59
S11321806AE875E0CE0101960E94B13C6AE57BE005
S1132190CE0101960E94093EBC018CEB9CE00E949A
S11321A0D239CE0101960E944A3CCE010D960E947E
S11321B04A3C62960FB6F894DEBF0FBECDBFDF91E6
S11321C0CF911F910F91FF90EF90089544E650E056
S11321D060E070E081E00E94840460911A017091D3
S11321E01B0180911C0190911D010E94AB0567CFDA
S11321F06BEB71E08BE89CE00E94303D1092920CF6
S11322001092910C1092D40C60EB73E081E69CE088
S11322100E94303D6BEB71E085E59CE00E94303D0F
S11322206BEB71E08BE59CE00E94303D67E070E071
S113223081E090E00E94580767E070E081E090E060
S11322400E94930780E090E00E94D7078BE99BE00F
S11322500E94E2238BE99BE00E94382488EA9BE0F9
S11322600E94E22388EA9BE00E9438241092960C94
S11322701092950C2C988FE19EE40197F1F700C021
S113228000002C9A8FE19EE40197F1F700C0000052
S11322900E9492018FE19EE40197F1F700C00000D3
S11322A0449882B182B982B182B96BEB71E087E361
S11322B09CE00E94303D6BEB71E08DE39CE00E945A
S11322C0303D6BEB71E08DE39CE00E94303D8CEB84
S11322D09CE00E940C2C8CEB9CE00E94642C1092DD
S11322E0780B1092790B10927A0B10927B0B109250
S11322F0740B1092750B1092760B1092770B0E9450
S11323000F026DEB77E081E09FE00E940B3A0E94A0
S11323100F028EEF9FEF9093940C8093930C08958B
S1132320AF92BF92CF92DF92EF92FF920F931F93DF
S1132330CF93DF9300D000D000D0CDB7DEB75B01E0
S11323408A016901EDB6FEB66EEC77E081E09FE0AC
S11323500E940B3AAB2809F44EC069EE77E081E0A5
S11323609FE00E940B3A8091930C9091940C0196FB
S11323709093940C8093930CB801CE0101960E9423
S1132380B13C8DB79EB78C199D090FB6F8949EBFCA
S11323900FBE8DBF0DB71EB70F5F1F4F20E030E09B
S11323A0A601B801CE0101960E944F3EF8010190AA
S11323B00020E9F73197AF01401B510BB8018BE9BD
S11323C09BE00E947D239FEF29EF80E09150204005
S11323D08040E1F700C000008BE99BE00E94E2230B
S11323E0CE0101960E944A3C0FB6F894FEBE0FBE81
S11323F0EDBE81E001C080E00FB6F894FEBE0FBED2
S1132400EDBE26960FB6F894DEBF0FBECDBFDF91AA
S1132410CF911F910F91FF90EF90DF90CF90BF90DD
S1132420AF900895CF92DF92EF92FF920F931F9394
S1132430CF93DF93CDB7DEB76E970FB6F894DEBFB8
S11324400FBECDBFE091930CF091940C3296EB301B
S1132450F10508F06CC3EA5BFF4F0C9435406BEB5D
S113246071E087E39CE00E94303D64E178E08DE315
S11324709CE00E94303D6BEB71E083E49CE00E94A1
S1132480303D6091930C7091940C44E650E081E3EC
S11324909CE00E940B052FEF83EC99E021508040D3
S11324A09040E1F700C000001FC06BEB71E087E3D0
S11324B09CE00E94303D6BEB71E08DE39CE00E9458
S11324C0303D6BEB71E083E49CE00E94303D0E9460
S11324D012072FEF89EF90E0215080409040E1F700
S11324E000C000000E941C078091930C9091940CF2
S11324F001969093940C8093930C19C36BEB71E049
S113250087E39CE00E94303D6BEB71E08DE39CE03F
S11325100E94303D6BEB71E083E49CE00E94303D0F
S11325206091930C7091940C44E650E081E39CE03C
S11325300E940B052FEF87EA91E6215080409040DE
S1132540E1F700C000001092D40CCECF60E278E036
S113255087E39CE00E94303D6BEB71E08DE39CE0EF
S11325600E94303D64E378E083E49CE00E94303DC7
S11325706091930C7091940C44E650E081E39CE0EC
S11325800E940B0568E673E0CE0149960E94B13CB7
S11325908091D40C811116C0CE0101960E94AC0624
S11325A0BE016F5F7F4FCE0149960E94253DCE014B
S11325B001960E944A3C44E650E060E070E082E00C
S11325C00E94840468E673E0CE0149960E94313E7D
S11325D0811102C0449BE8C28091930C9091940CA9
S11325E001969093940C8093930CCE014996B7C0B6
S11325F00E9492018FE39FE10197F1F700C0000070
S113260044986BEB71E08AE59BE00E94303D66E7FD
S113261075E087E39CE00E94303D6BEB71E08DE355
S11326209CE00E94303D6AE875E083E49CE00E94EF
S1132630303D6091930C7091940C4AE050E081E33A
S11326409CE00E940B0560911E0170911F01809116
S1132650200190912101D3C3B9DB60E0CE0107963C
S11326600E94C9058FE39CE90197F1F700C00000BF
S1132670BE01695F7F4F81E09FE00E94FB392B859B
S11326803C8545E050E0BE01695F7F4FCE01019675
S11326900E947D3EBE016F5F7F4F8EED9CE00E94E5
S11326A0253DCE0101960E944A3C25E030E040E001
S11326B050E0BE01695F7F4FCE0101960E947D3ECE
S11326C0BE016F5F7F4F84EE9CE00E94253DCE01EA
S11326D001960E944A3C1092EA0C67E478E0CE012D
S11326E001960E94B13C6EED7CE0CE0101960E9401
S11326F0093EBC0181E09FE00E94FB39CE010196B6
S11327000E944A3C69E578E0CE0101960E94B13C02
S113271064EE7CE0CE0101960E94093EBC0181E09A
S11327209FE00E94FB39CE0101960E944A3C6EED67
S11327307CE081E69CE00E94083D61EE71E08EED54
S11327409CE00E94313E8111ECC26FE773E08EED94
S11327509CE00E94313E8111E4C2CE0107960E94A2
S11327604A3CE5C161E678E087E39CE00E94303DA5
S11327706BEB71E08DE39CE00E94303D6CE778E008
S113278083E49CE00E94303D6091930C7091940C22
S113279044E650E081E39CE00E940B0561EE71E0A9
S11327A08EED9CE00E94313E882361F082E40E9419
S11327B01F0767E070E080E090E00E94930767E7FE
S11327C073E014C06FE773E08EED9CE00E94313E2D
S11327D0882309F4ACC184E40E941F0767E070E019
S11327E080E090E00E94580761E873E08FE99CE084
S11327F00E94303D00C31092920C1092910C6DE82F
S113280078E087E39CE00E94303D6BEB71E08DE360
S11328109CE00E94303D64EA78E0CE0101960E947B
S1132820B13C6FE97CE0CE0101960E94093E6BEA5F
S113283078E00E941A3EBC0183E49CE00E94083DBB
S1132840CE0101960E944A3C6091930C7091940CC5
S113285044E650E081E39CE00E940B0564E170E0F3
S113286080E090E0CCC28091910C9091920C0E94F7
S11328702D076B017C0122E0AB01BC01CE01079660
S11328800E949B3D62EB78E0CE0101960E94B13C30
S1132890BE01695F7F4FCE0101960E94093EBC01D3
S11328A087E39CE00E94083DCE0101960E944A3CC9
S11328B0CE0107960E944A3C6BEB71E08DE39CE0ED
S11328C00E94303D6AEB78E0CE0101960E94B13C53
S11328D06FE97CE0CE0101960E94093EBC0183E4CD
S11328E09CE00E94083DCE0101960E944A3C609102
S11328F0930C7091940C44E650E081E39CE00E94B8
S11329000B05019B08C06FE773E081E69CE00E9421
S1132910313E81111DC2199B0AC161EE71E081E64D
S11329209CE00E94313E811142C201C16BEB71E017
S113293087E39CE00E94303D67EC78E08DE39CE007
S11329400E94303D6BEB71E083E49CE00E94303DDB
S11329504499EDC06091930C7091940C4AE050E05E
S113296081E39CE00E940B050E94210C9FEF23ED64
S113297080E3915020408040E1F700C000006BEB01
S113298071E089E49CE00E94303D07E61CE08FE79B
S1132990E82E8CE0F82EB801CE0101960E941D3D70
S11329A065ED78E0CE0101960E941A3EBC0189E4EF
S11329B09CE00E94F53DCE0101960E944A3C0A5FCC
S11329C01F4FE016F10639F78091930C9091940C07
S11329D00E94EA076BEB71E0CE0101960E94B13CC4
S11329E06091950C7091960C8E010F5F1F4F24E639
S11329F030E04DEC5BE08091930C9091940C90DC72
S1132A00182FCE0101960E944A3C112309F46CCD83
S1132A100E9492016BEB71E087E39CE00E94303DE1
S1132A2067ED78E08DE39CE00E94303D6BEB71E054
S1132A3083E49CE00E94303D6091930C7091940C6F
S1132A4044E650E081E39CE00E940B059FEF29EFF0
S1132A5080E0915020408040E1F700C0000066C053
S1132A606BEB71E087E39CE00E94303D66EE78E01A
S1132A708DE39CE00E94303D6BEB71E083E49CE0CD
S1132A800E94303D6091930C7091940C4AE050E0A8
S1132A9081E39CE00E940B058FE19EE40197F1F72E
S1132AA000C000000E94920169EF78E081E09FE09D
S1132AB00E940B3A9FEF20E782E091502040804033
S1132AC0E1F700C000002C986AE079E081E09FE023
S1132AD00E940B3A0E940F020E944B038FE19EE476
S1132AE00197F1F700C0000069E47CE0CE01019693
S1132AF00E941D3D609106017091070180910801BB
S1132B009091090121E0AE014F5F5F4F0E94570A87
S1132B10CE0101960E944A3C8FE19EE40197F1F7B1
S1132B2000C000000E9417030E940F0261DB6CE7E3
S1132B307BE0CE0101960E94381E86E0FE013196AC
S1132B40AAE6BBE001900D928A95E1F78AE69BE044
S1132B50E0D76093780B7093790B80937A0B909302
S1132B607B0B0091740B1091750B2091760B3091B7
S1132B70770BC090700BD090710BE090720BF090BB
S1132B80730B0C0D1D1D2E1D3F1D68017901C61A06
S1132B90D70AE80AF90AD701C6010297A105B105C7
S1132BA008F030C125DB2EC16BEB71E081E09FE0C2
S1132BB00E940B3A69E179E081E09FE00E94E039EC
S1132BC069E579E0CE0101960E94B13CBE01675EE1
S1132BD07F4FCE0101960E94093EBC0181E09FE037
S1132BE00E94FB39CE0101960E944A3C69E179E0DA
S1132BF081E09FE00E94E03968E679E081E09FE0AF
S1132C000E940B3ABE01675E7F4F87E69CE00E94FC
S1132C10083D8CEB9CE00E94042C8CEB9CE00E9411
S1132C206A2C8FE39CE90197F1F700C0000060E291
S1132C3078E087E39CE00E94303D6BEB71E08DE32C
S1132C409CE00E94303D6DE879E0CE0101960E943F
S1132C50B13CBE01675E7F4FCE0101960E94093EE2
S1132C60BC0183E49CE00E94083DCE0101960E94D1
S1132C704A3C6091930C7091940C44E650E081E3DB
S1132C809CE00E940B0586E59AE09A838983409133
S1132C90B70B5091B80B6091B90B7091BA0B4B8381
S1132CA05C836D837E8398878F834091BD0B5091A5
S1132CB0BE0B6091BF0B7091C00B49875A876B871D
S1132CC07C879E878D878091C30B9091C40BA091C4
S1132CD0C50BB091C60B8F87988BA98BBA8B68E212
S1132CE071E0CE0143960E944D39CE0101967C01DC
S1132CF08E01095F1F4F9E01235F3F4FAE014D5E62
S1132D005F4F62E271E087EF9DE00E9491229FEFA6
S1132D1023ED80E3915020408040E1F700C00000A3
S1132D205BCC64EE7CE08DE69CE00E94083D6EED99
S1132D307CE083E79CE00E94083D60911A01709159
S1132D401B0180911C0190911D010E94AB0505CDD2
S1132D5022E0B701A601CE0101960E949B3DBE016F
S1132D606F5F7F4F89E79CE00E94253DCE0101966D
S1132D700E944A3C67E979E08FE99CE00E94303D7B
S1132D8067E070E081E090E00E94930767E070E004
S1132D9081E090E00E94580792B182E0892782B9CD
S1132DA06AE070E080E090E00E94AB05B4CD22E0E0
S1132DB0B701A601CE0101960E949B3DBE016F5F43
S1132DC07F4F89E79CE00E94253DCE0101960E9439
S1132DD04A3C67E979E08FE99CE00E94303D67E076
S1132DE070E081E090E00E94930767E070E081E08A
S1132DF090E00E9458076AE070E080E090E00E9452
S1132E00AB0595CE6E960FB6F894DEBF0FBECDBF60
S1132E10DF91CF911F910F91FF90EF90DF90CF90B2
S1132E20089520913B0E222399F04FB7F8942091F6
S1132E303B0E213059F42DB32093390E3DB320912C
S1132E403A0E209523232DBB4FBF02C04093390E69
S1132E508CBD9DBD089580913B0E882361F09FB782
S1132E60F89420913B0E8091390E213019F48DBBDA
S1132E709FBF08958FBF0895CF93DF93EC01862FF2
S1132E80188219821A821B826C834D831D8A1E8AC2
S1132E9060E00E94B73B61E08D81DF91CF910C949B
S1132EA0B73B4F925F926F927F928F929F92AF92B5
S1132EB0BF92EF92FF920F931F93CF93DF93CDB7FF
S1132EC0DEB72C970FB6F894DEBF0FBECDBF7C01E2
S1132ED05A01280139016BEB71E00E94B13C850174
S1132EE0812C912C540184149504A604B70409F48C
S1132EF046C0F80161918F0140E1CE016031F0F4E8
S1132F0001960E94453DB701CE0107960E941D3DE2
S1132F1064E477E0CE0107960E941A3EBE016F5F1B
S1132F207F4F0E94093EBC01C7010E94083DCE01AB
S1132F3007960E944A3CCE01019619C007960E944A
S1132F40453DB701CE0101960E941D3DBE01695F5A
S1132F507F4FCE0101960E94093EBC01C7010E9429
S1132F60083DCE0101960E944A3CCE0107960E947C
S1132F704A3CFFEF8F1A9F0AAF0ABF0AB4CF81E021
S1132F809FE00E94E839C7012C960FB6F894DEBF83
S1132F900FBECDBFDF91CF911F910F91FF90EF90A6
S1132FA0BF90AF909F908F907F906F905F904F9065
S1132FB00895EF92FF920F931F93CF93DF93FC0139
S1132FC02689222339F06EBD00000DB407FEFDCF23
S1132FD08EB527C0062FEC0161E081810E94F33B8E
S1132FE0E12CF12C10E060E089810E94F33BC801E0
S1132FF00E2C02C0959587950A94E2F780FF02C0D3
S113300061E001C060E08A810E94F33B61E0898154
S11330100E94F33BFFEFEF1AFF0A88E0E816F10481
S113302011F7DF91CF911F910F91FF90EF900895C9
S1133030CF92DF92EF92FF921F93CF93DF93FC0125
S11330402689222339F01EBC00000DB407FEFDCFF3
S11330501EB526C0EC0161E081810E94F33BE12CA6
S1133060F12C10E0CC24C394D12C8B810E94213C00
S1133070892B39F0C6010E2C01C0880F0A94EAF797
S1133080182B60E089810E94F33B61E089810E94F2
S1133090F33BFFEFEF1AFF0A88E0E816F10429F783
S11330A0812FDF91CF911F91FF90EF90DF90CF9010
S11330B008951F93CF93DF93EC018D89882309F141
S11330C08E89882319F081E790E0ABDE60E0888187
S11330D00E94F33B62E070E080E090E00E940F3BCE
S11330E062E0CE0166DFCE01A3DF182F61E08881A4
S11330F00E94F33B8E898111AEDE91E0113031F4F0
S113310006C08C810E94213C91E0811190E0892FBE
S1133110DF91CF911F910895CF92DF92EF92FF92AA
S11331201F93CF93DF936C017B01C0E0D0E0C60115
S1133130C0DF182F811115C0E114F10459F02A964B
S1133140EC16FD0638F467EB79E081E09FE00E941D
S11331500B3A07C06AE070E080E090E00E940F3B09
S1133160E6CF812FDF91CF911F91FF90EF90DF90F9
S1133170CF900895CF92DF92EF92FF920F931F9317
S1133180CF93DF93EC016B01F42E8D89042F10E0B3
S11331908823A9F18E89882319F081E790E041DE24
S11331A060E088810E94F33B62E070E080E090E0A0
S11331B00E940F3B63E0CE01FCDE76010C0D1D1D69
S11331C00E151F0561F061E070E080E090E00E9460
S11331D00F3BCE012DDFF70181937F01F1CF61E039
S11331E088810E94F33B8E89882361F1DF91CF911E
S11331F01F910F91FF90EF90DF90CF902CCE62E063
S113320070E080E090E00E940F3B42E04F0D64E2EA
S11332108BEA9EE00E9442378BEA9EE00E94EE35E4
S1133220E6010C0D1D1DC017D10761F061E070E0CF
S113323080E090E00E940F3B8BEA9EE00E94EE3516
S11332408993F1CFDF91CF911F910F91FF90EF9070
S1133250DF90CF900895CF93DF9300D000D000D0BB
S1133260CDB7DEB746E0BE016F5F7F4F83DF46E038
S113327050E06CE371E0CE0101960E94C14321E06D
S1133280892B09F020E0822F26960FB6F894DEBF32
S11332900FBECDBFDF91CF910895682F8BEA9EE0DA
S11332A00C947436AF92BF92CF92DF92EF92FF925A
S11332B00F931F93CF93DF937C018B01FC018589CE
S11332C0C1E0C40F882309F458C08689882319F003
S11332D081E790E0A6DD60E0F70180810E94F33B86
S11332E062E070E080E090E00E940F3B61E0C70183
S11332F060DE60E0C7015DDE60E0C7015ADE6FEFAB
S1133300C70157DE6C2FC70154DE6C2F6195C701CE
S113331050DE64EDC7014DDEC12C93EDD92ED0E013
S11333202197AC2CB12CAC16BD065CF4A00EB11EDA
S1133330F5016081C7013DDEF5018081D80EC3949B
S1133340F0CF6D2D6095C70134DE60E0C70131DE3A
S113335061E0F70180810E94F33BF70186898823AD
S113336009F44BC0DF91CF911F910F91FF90EF9023
S1133370DF90CF90BF90AF906ECD62E070E080E0C0
S113338090E00E940F3B64E270E08BEA9EE00E94B2
S1133390CF3680E082DF80E080DF8FEF7EDF8C2F0E
S11333A07CDF8C2F819579DF84ED77DFB12C83ED81
S11333B0D82ED0E02197EB2CF12CEC16FD0654F41A
S11333C0E00EF11EF701808168DFF7018081D80EDD
S11333D0B394F1CF8D2D809560DF80E05EDF8BEAC2
S11333E09EE0DF91CF911F910F91FF90EF90DF90BE
S11333F0CF90BF90AF900C944637DF91CF911F913F
S11334000F91FF90EF90DF90CF90BF90AF90089511
S11334100F931F93CF93DF93EC01890143DFB8012E
S1133420CE017ADE811102C080E00EC0CE0113DF2E
S11334308823D1F39D89992339F0B801CE01DF9116
S1133440CF911F910F9168CEDF91CF911F910F9172
S11334500895CF93DF93EC018D89882331F18E8910
S1133460882329F00E94633381E790E0DADC60E08E
S113347088810E94F33B68EE73E080E090E00E9454
S11334800F3B82E08093AB0D28EE33E041E06BEA22
S11334907DE0CE01BDDF61E088810E94F33B8E892F
S11334A0882309F1DF91CF91D6CC8BEA9EE00E946C
S11334B0B23661E08D810E94F33B60E08D810E9411
S11334C0F33B60E971E080E090E00E940F3B61E033
S11334D08D810E94F33B6AE070E080E090E0DF9130
S11334E0CF910C940F3BDF91CF910895CF93DF934D
S11334F0EC0182E08093AB0D28EE33E041E06BEA0F
S11335007DE0CE0185DF811104C060E070E0CB0175
S113351032C04CE06BEA7DE0CE012CDE46E050E0A8
S113352066E371E08BEA9DE00E94C143892B69F751
S11335308D89811103C0E7E0F0E002C0E6E0F0E02D
S1133540E555F24F6081862F90E0A0E0B0E0BA2FFD
S1133550A92F982F88272181822BBA2FA92F982F42
S113356088272281822BBA2FA92F982F882723817D
S1133570BC01CD01622BDF91CF910895CF93DF93EE
S1133580EC0194E19093AB0D81E08093AC0D9093AA
S1133590AD0D8093AE0D28EE33E044E06BEA7DE0A0
S11335A0CE0136DF8823A9F048E06BEA7DE0CE0146
S11335B0E1DD8D89811103C086E090E002C085E0E1
S11335C090E0FC01E555F24F81E09081953109F0DE
S11335D080E0DF91CF910895EBEAFDE022E32083C0
S11335E025E021832FEF228321E02383648328EEC7
S11335F033E045E0BF010CCFAF92BF92CF92DF9290
S1133600EF92FF920F931F93CF93DF93EC017A0114
S1133610590168018AE48093AB0D81E08093AC0D7D
S11336206093AD0D980143E06BEA7DE0CE01F0DEDE
S1133630182F882341F18D89882379F044E16BEABE
S11336407DE0CE0197DD8091B20D8130E1F480916F
S1133650B70DF501808380E006C0B601CE015CDDC4
S11336608111ECCF10C09091B70D891768F4282F01
S113367030E0F901E555F24F9585F701E20FF31FAC
S113368090838F5FF0CF10E0812FDF91CF911F9156
S11336900F91FF90EF90DF90CF90BF90AF9008957F
S11336A0AF92BF92CF92DF92EF920F931F93CF937B
S11336B0DF93EC01142F5C018EE0A80EB11C86E0B0
S11336C0F601D50101900D928A95E1F750E0CE0103
S11336D006960E94A8431D8780E48093AB0D81E089
S11336E08093AC0DE11002C080E601C081E68093B6
S11336F0AD0D0093AE0D86E0F501AFEABDE001909B
S11337000D928A95E1F780E04D85841760F4282FA7
S113371030E0FE01E20FF31F9681F901E555F24F07
S113372092878F5FF1CF465F28EE33E06BEA7DE04E
S1133730CE016EDE882349F04CE06BEA7DE0CE01D9
S113374019DD81E09091B20D911180E0DF91CF916C
S11337501F910F91EF90DF90CF90BF90AF9008959D
S11337600F931F93CF93DF93EC018A0180E480933E
S1133770AB0D81E08093AC0D80E38093AD0D60933D
S1133780AE0D28EE33E044E06BEA7DE0CE0140DE8E
S1133790811102C080E012C04AE16BEA7DE0CE01F3
S11337A0E9DC8091B20D8111F5CF80E1E3EBFDE01E
S11337B0D80101900D928A95E1F781E0DF91CF91D4
S11337C01F910F910895CF93DF93EC0180E48093D0
S11337D0AB0D81E08093AC0D80EA8093AD0D6093D6
S11337E0AE0D80E1FA01AFEABDE001900D928A9539
S11337F0E1F728EE33E044E16BEA7DE0CE0108DE38
S1133800882369F06AE070E080E090E00E940F3B5A
S11338104AE16BEA7DE0CE01ADDC81E001C080E0ED
S1133820DF91CF910895803D27E0920710F0805DED
S1133830974050E0EBE1F2E021E0261730F43491B8
S1133840430F511D2F5F3196F8CF633038F09C0140
S113385023703327232B11F44F5F5F4FBC016D5F3F
S11338607F4F7695679576956795EDE6F1E08E9FA7
S113387090018F9F300D9E9F300D1124C901019737
S1133880860F971F840F951F0895FC019081905314
S11338909A3008F090E0818180532AE0929F800D55
S11338A0112408958F929F92AF92BF92CF92DF928C
S11338B0EF92FF92CF93DF93EC016A017B0180E8E2
S11338C0C81A83E4D80A8DE6E80A88E3F80A8CE388
S11338D0882E912CA12CB12CC701B601A50194010D
S11338E00E9413406D83CA01B901A50194010E948D
S11338F013406C83C701B60120E13EE040E050E094
S11339000E941340CA01B90128E130E040E050E0D0
S11339100E9413406B83C701B60120E831E541E002
S113392050E00E94134018828881982F937041E0E0
S113393050E011F040E050E0BA0163597E4F261781
S1133940370738F0241B350B2D5631408F5F8883A1
S1133950EBCF81E089838981E82FF0E0E65EFD4FBB
S1133960E491911103C0823009F4EF5FF0E02E1767
S11339703F0720F02E1B3F0B8F5FECCF2F5F2A8376
S1133980DF91CF91FF90EF90DF90CF90BF90AF90F9
S11339909F908F900895EF92FF920F931F93CF9370
S11339A0DF93CDB7DEB72B970FB6F894DEBF0FBE0B
S11339B0CDBF8C017A014BE050E0CE0101960E940C
S11339C09F43CE010A9661DFF8018083E9818E2F3F
S11339D090E0FC01E154F109E331F10548F5EF5AB7
S11339E0FF4F0C9435408A81813629F08B818E36C5
S11339F021F087E01BC081E019C086E017C082E097
S1133A0015C08B81823711F088E010C084E00EC0AD
S1133A108B81823711F085E009C083E007C089E01B
S1133A2005C08AE003C08BE001C08CE0F80181830B
S1133A30CE0105962ADFF801828348E050E0B70101
S1133A40CE0101960E949F43CE0101961EDFF8012C
S1133A508383CE01049619DFF8018483CE0107968F
S1133A6014DFF80185832B960FB6F894DEBF0FBEE2
S1133A70CDBFDF91CF911F910F91FF90EF900895EB
S1133A80FC0180814281618190E0CDDE069667E091
S1133A9070E00C94FF3F0895EF92FF920F931F93F1
S1133AA0CF93DF93EC0188814A81698190E0BBDE8A
S1133AB09C01A8E1B0E00E943E402B817B018C0177
S1133AC0E20EF11C011D111DA8019701ACE3B0E049
S1133AD00E944D402C817B018C01E20EF11C011DE2
S1133AE0111DA80197010E944D402D81DC01CB01DD
S1133AF0820F911DA11DB11DBC01CD0160587C4BED
S1133B008249974CDF91CF911F910F91FF90EF90D5
S1133B100895EF92FF920F931F93CF93DF93EC01DD
S1133B2088814A81698190E07EDE9C01A8E1B0E051
S1133B300E943E402B817B018C01E20EF11C011D91
S1133B40111DA8019701ACE3B0E00E944D402C8107
S1133B507B018C01E20EF11C011D111DA8019701CE
S1133B600E944D402D81620F711D811D911DDF91B9
S1133B70CF911F910F91FF90EF900895FC01108257
S1133B801182128213821482089508950F931F9351
S1133B90CF93DF93EC01062F142F68E68BEA9EE0A7
S1133BA00E94C536602F8BEA9EE00E947436612F16
S1133BB08BEA9EE00E9474368BEA9EE00E944637B0
S1133BC08883DF91CF911F910F9108951F93CF9315
S1133BD0DF93EC01162F68E68BEA9EE00E94C5365F
S1133BE0612F8BEA9EE00E9474368BEA9EE00E946D
S1133BF04637888341E068E68BEA9EE00E944237BC
S1133C008BEA9EE00E94EE35DF91CF911F910895DB
S1133C10CF92DF92EF92FF92CF93DF93EC016A0190
S1133C207B018BEA9EE00E94B236B701A6018BEAC3
S1133C309EE00E94C23668E68BEA9EE00E94C5368A
S1133C408BEA9EE00E94463781110AC062E0CE01F1
S1133C50BDDF482F4F7B62E0CE0198DF81E001C0D9
S1133C6080E0DF91CF91FF90EF90DF90CF900895A7
S1133C700F931F93CF93DF938C01EB0168E68BEADC
S1133C809EE00E94C53660E08BEA9EE00E94743696
S1133C908BEA9EE00E944637888347E068E68BEA19
S1133CA09EE00E9442378BEA9EE00E94E635079729
S1133CB009F064C08BEA9EE00E94EE35982F969539
S1133CC0969596959E70292F220F220F920F8F7032
S1133CD0890F8D838BEA9EE00E94EE35982F96958E
S1133CE0969596959E70292F220F220F920F8F7012
S1133CF0890F8E838BEA9EE00E94EE35982F96956D
S1133D00969596959E70292F220F220F920F8F70F1
S1133D10890F8F838BEA9EE00E94EE358BEA9EE04A
S1133D200E94EE35982F9695969596959670292F24
S1133D30220F220F920F8F70890F88878BEA9EE0E3
S1133D400E94EE3584FB992790F9990F292F220FB1
S1133D50220F920F8F70890F89878BEA9EE00E9451
S1133D60EE35982F92959F708F702AE0929F800D68
S1133D70112490E08053984F9B878A872D813E8140
S1133D804F81588569858A859B85803D77E09707B3
S1133D9010F0805D9740F8018083618352834383F0
S1133DA034832583C801DF91CF911F910F9108952A
S1133DB0DF92EF92FF920F931F93CF93DF9300D084
S1133DC000D000D0CDB7DEB78C017B01FB0185812B
S1133DD09AE0D92E6D2D0E94F33F492FF0E18F9F79
S1133DE0400D112460E0C801D1DEF70184816D2DFE
S1133DF00E94F33F492FF0E18F9F400D112461E0B1
S1133E00C801C4DEF70183816D2D0E94F33F492F61
S1133E10F0E18F9F400D112462E0C801B7DEC701B5
S1133E202FDE482F63E0C801B1DEF70182816D2DDA
S1133E300E94F33F492FF0E18F9F400D112464E06D
S1133E40C801A4DEF70181816D2D0E94F33F492F43
S1133E50F0E18F9F400D112465E0C80197DEF70162
S1133E6080816D2D0E94F33F492FF0E18F9F400D1B
S1133E70112466E0C8018ADE6FE0C801A7DE482F7E
S1133E804F776FE0C80182DE6EE0C8019FDE482FE5
S1133E904F776EE0C8017ADEB801CE010196E8DE04
S1133EA0CE010196F9DDF8016183728383839483E3
S1133EB026960FB6F894DEBF0FBECDBFDF91CF912B
S1133EC01F910F91FF90EF90DF9008950F931F9330
S1133ED0CF93DF9300D000D000D0CDB7DEB78C01F4
S1133EE042E152E066E072E0CE01019654DDBE018B
S1133EF06F5F7F4FC8015CDF26960FB6F894DEBF74
S1133F000FBECDBFDF91CF911F910F9108950F93F5
S1133F1000E020E040E060E08BEE9DE00E9441394B
S1133F200F910895FB014281538164817581FC01E5
S1133F304283538364837583178216820895CF93D3
S1133F40DF93DA01FB01EB0189918111FDCF80E060
S1133F5090E020E030E04AE051915523E9F024302C
S1133F60310544F55E3269F48F3F910509F014F58B
S1133F70ED01C20FD31F8A832F5F3F4F80E090E093
S1133F80EBCF489FB001499F700D1124852F90E01D
S1133F90C097860F971FE0CF8F3F910509F054F427
S1133FA0243031053CF4FD01E20FF31F828381E0EC
S1133FB090E002C080E090E0DF91CF9108950F93EC
S1133FC000E020E040E060E081EF9DE00E944139A4
S1133FD00F9108958F929F92AF92BF92CF92DF92EA
S1133FE0EF92FF920F931F93CF93DF9300D01F9212
S1133FF0CDB7DEB76C017B010E94DE3AF601778310
S113400066838601085F1F4FB6016A5F7F4F42E0F7
S113401050E0C80155D681E090E09A83898342E05C
S113402050E0BE016F5F7F4FC8014AD680E091E047
S11340309A83898342E050E0BE016F5F7F4FC801DD
S11340403FD61A82198242E050E0BE016F5F7F4F73
S1134050C80136D642E050E0BE016F5F7F4FC80111
S11340602FD642E050E0BE016F5F7F4FC80128D6D3
S11340705701F50180818823F9F0A7015A01F50160
S113408081916F01882321F08E3211F0A601F6CFC1
S11340904A018E189F081814190464F48B8241E0B5
S11340A050E0BE016D5F7F4FC8010AD6A401B7017D
S11340B0C80106D67601DDCF1B8241E050E0BE0187
S11340C06D5F7F4FC801FCD5E12CFF24F394FA8285
S11340D0E98242E050E0BE016F5F7F4FC801F0D536
S11340E0FA82E98242E050E0BE016F5F7F4FC8016F
S11340F0E7D581E090E00F900F900F90DF91CF9182
S11341001F910F91FF90EF90DF90CF90BF90AF90F1
S11341109F908F9008952F923F924F925F926F924B
S11341207F928F929F92AF92BF92CF92DF92EF9243
S1134130FF920F931F93CF93DF93CDB7DEB76397AF
S11341400FB6F894DEBF0FBECDBF7C016B011A0120
S11341500E94DE3A4B015C018701085F1F4F260174
S1134160612C712CC8014ED618161906A4F00E94B1
S1134170DE3ADC01CB0188199909AA09BB09481662
S113418059066A067B06D0F062E370E080E090E0B6
S11341900E940F3BE7CFF70142815381648175810F
S11341A0818D928DA38DB48D481759076A077B07BB
S11341B049F4858D968DC59729F409C0EE24EA94B7
S11341C0FE2CF0C09EEFE92EFF24FA94EBC0C80148
S11341D02DD50C970CF4E2C04CE050E0BE016F5FAB
S11341E07F4FC801A8D58B819C8198278927982760
S11341F09A8B898BF7014681578129813A8142172D
S1134200530711F497FD07C0C8012AD57CEFE72EA8
S1134210FF24FA94C7C08F709270892B39F0C801BB
S11342201FD56BEFE62EFF24FA94BCC0CF80D88450
S1134230DC24CD24DC24C114D10419F0E12CF12CAC
S11342401FC0C8010DD55AEFE52EFF24FA94AAC069
S113425041E050E0BE01635F7F4FC8016CD58D859E
S1134260811117C08D858111F3CFC8013CD5C801D8
S11342703AD5C80138D5C80136D5FFEFEF1AFF0A81
S11342808D819E81982789279827E816F90600F3DF
S113429009C08D859FEF980F9D87882319F3C80166
S11342A022D5F7CFA12CB12C41E050E0BE016D5EC8
S11342B07F4FC80140D58B89982F907C59F488236F
S11342C079F08B899FEF980F9B8B882331F0C8017D
S11342D00AD5F7CFC80107D51B8A8B898111E4CF92
S11342E042E050E0BE01615F7F4FC80124D542E047
S11342F050E0BE01635F7F4FC8011DD5C801F3D4F0
S1134300C801F1D4C801EFD4C801EDD442E050E0B3
S1134310BE016F5E7F4FC8010ED58F8598898115C8
S1134320914049F4ED84FE84FE24EF24FE2481E0D0
S1134330E816F10419F0E12CF12C14C089899A894A
S11343408115944039F0C8018BD447EFE42EFF2443
S1134350FA9428C0B1016E5F7F4F44E050E0C80179
S1134360EAD420C089899A89982789279827E8164A
S1134370F90630F4C801B7D4FFEFEF1AFF0AF2CF01
S11343802FEFA21AB20ACA14DB0409F08DCFC801B8
S113439067D436EFE32EFF24FA9404C08DEFE82EA1
S11343A0FF24FA94C70163960FB6F894DEBF0FBEDC
S11343B0CDBFDF91CF911F910F91FF90EF90DF90D0
S11343C0CF90BF90AF909F908F907F906F905F90B1
S11343D04F903F902F9008958F929F92AF92BF92EB
S11343E0CF92DF92EF92FF920F931F93CF93DF93BD
S11343F000D000D000D0CDB7DEB77C014B015A010C
S11344009EDD8C01892B09F057C0F701428153814D
S1134410648175818091F30D9091F40DA091F50D57
S1134420B091F60D481759076A077B0709F447C08E
S11344300E94DE3A6701F8E0CF0ED11C6F70772737
S11344407C5FC601AED4813009F03BC086E59AE0BA
S11344509A838983F70182819381A481B5818B83B7
S11344609C83AD83BE8345E350E0BE016F5F7F4F05
S1134470C6011CD4892B19F400E010E01AC0B40161
S1134480C701A8DD892BC1F3C60117D4892BA1F379
S113449083E0882E912CA50168E873E1C7013BDE17
S11344A08C0121E0821A910821F00F3FFFEF1F07D2
S11344B091F3C601E7D305C001E010E002C00EEF9E
S11344C01FEFC80126960FB6F894DEBF0FBECDBF0E
S11344D0DF91CF911F910F91FF90EF90DF90CF90DC
S11344E0BF90AF909F908F90089524E030E0AC018E
S11344F064E081E090E04DC724E030E0AC0164E08A
S113450085E090E046C726E030E0AC0164E089E055
S113451090E03FC724E030E0AC0164E08FE090E03D
S113452038C78F929F92AF92BF92CF92DF92EF9251
S1134530FF920F931F93CF93DF934C015B016A01AA
S1134540E901FC01648587E39EE06FD7C501DBDFE9
S1134550C6010296DFDFC8010296C7DFC7010296D3
S1134560CBDF8A819B81AC81BD81F40182839383FB
S1134570A483B583DF91CF911F910F91FF90EF90AA
S1134580DF90CF90BF90AF909F908F90089526E5D5
S11345903AE0FC0131832083FB0142815381648131
S11345A07581FC01428353836483758308950F935B
S11345B000E020E040E060E084E19EE00E944139B8
S11345C087EF9DE00E943739E7EFFDE013861286FE
S11345D08AE084870F91089580E090E0089508951B
S11345E0DC01ED91FC91028CF38DE02D099591E0B5
S11345F089270895CF93DF931F92CDB7DEB76983E0
S1134600DC01ED91FC910280F381E02D41E050E06A
S1134610BE016F5F7F4F09950F90DF91CF91089591
S113462021E0FC018485883009F420E0822F08957C
S1134630FC019485FB018485981303C081E09830C4
S113464009F480E00895CF92DF92EF92FF920F93E6
S11346501F93CF93DF93CDB7DEB7AF970FB6F89420
S1134660DEBF0FBECDBF8C016B017A01CE01019676
S11346700E943739CE01099614D4CE018A960E943D
S1134680373967EF7DE0CE01849681DFBE016C5D32
S11346907F4FCE01019646DCAE01465D5F4FB60109
S11346A0CE01019699DE81309105C1F4D801ED91D6
S11346B0FC910684F785E02D86E59AE09DA38CA302
S11346C08CA59DA5AEA5BFA58EA39FA3A8A7B9A79A
S11346D0A701BE016C5D7F4FC8010995AF960FB667
S11346E0F894DEBF0FBECDBFDF91CF911F910F9124
S11346F0FF90EF90DF90CF9008950F931F93CF9387
S1134700DF938C01D42FC52FFC018485883041F4BC
S113471081E090E0F8019383828380E090E005C01B
S11347200CD5892BA9F38D2F9C2FDF91CF911F914D
S11347300F910895FC016485683019F087E39EE0C9
S1134740E9C680E090E00895CF93DF931F92CDB740
S1134750DEB741E050E0BE016F5F7F4FFC0184850E
S113476034D5181619061CF4898190E002C08FEF25
S11347709FEF0F90DF91CF910895FC01848525C5AB
S11347800F931F93CF93DF931F92CDB7DEB78C01A6
S1134790DC01ED91FC910084F185E02D0995892BD4
S11347A049F0BE016F5F7F4FF80184854FD5898141
S11347B090E002C08FEF9FEF0F90DF91CF911F9198
S11347C00F910895FC0184854EC5FC011382128269
S11347D088EE93E0A0E0B0E084839583A683B7835A
S11347E084EC99E09183808388E084870895FC01B8
S11347F01382128288EE93E0A0E0B0E08483958374
S1134800A683B78384EC99E09183808364870895B9
S1134810FC016485683039F06295660F607E685FDC
S113482083E090E0E4C580E00895CF93DF93FC013A
S113483024852830C9F0EC01EBDF843181F0882332
S113484071F0883161F08C3161F4E881F981008480
S1134850F185E02DCE01099521E0892B19F420E0A2
S113486001C021E0822F01C080E0DF91CF91089543
S1134870CF92DF92EF92FF92CF93DF93EC018C857E
S1134880883069F155D40E94DE3A6B017C01CE0177
S1134890BFDF8823A1F00E94DE3ADC01CB018C1932
S11348A09D09AE09BF09883E9340A105B10538F4BE
S11348B061E070E080E090E00E940F3BE8CFCE0121
S11348C0A7DF882311F08C85B1D3EC85F0E0EE0FDF
S11348D0FF1FEC5FF14F1182108288E08C87DF911B
S11348E0CF91FF90EF90DF90CF900895CF92DF9219
S11348F0FF920F931F93CF93DF93FC0124852830FD
S1134900C1F56A018B01EC01F12C6F2D6295660FE4
S1134910607E685F83E090E06AD5811102C0FC8606
S113492007C08B7F8831D9F3F394F8E0FF12EDCF01
S11349308C858830F1F020914201309143012F5F42
S11349403F4F11F420E034E03093430120934201BF
S1134950409142015091430120E061E072D3B801DB
S11349606E5F7F4FA6018C85B0D3811105C088E0AE
S11349708C8780E090E00FC0CE014ADF873149F098
S113498061E070E080E090E00E940F3BCE0140DFE8
S1134990ECCF81E090E0DF91CF911F910F91FF90D8
S11349A0DF90CF9008950F9300E020E040E060E0B6
S11349B08AE19EE00E9441390F910895CF93DF93DD
S11349C01F92CDB7DEB76983DC01ED91FC910280C3
S11349D0F381E02D41E050E0BE016F5F7F4F099508
S11349E00F90DF91CF910895EF92FF920F931F9351
S11349F0CF93DF93CDB7DEB72D970FB6F894DEBF14
S1134A000FBECDBF7C0100E010E0602FCE01019607
S1134A10EEDECE010196FCDE811114C0F701448163
S1134A20558120E061E0802F0CD3802F3DD3F70126
S1134A3084819581000F111FF801EC5FF14F918380
S1134A40808305C00F5F1F4F08301105F1F62D96C6
S1134A500FB6F894DEBF0FBECDBFDF91CF911F918B
S1134A600F91FF90EF900895FC011382128286EE5D
S1134A7099E091838083758364830895AF92BF9294
S1134A80CF92DF92EF92FF921F93CF93DF93CDB734
S1134A90DEB72D970FB6F894DEBF0FBECDBF7C01F5
S1134AA094E0A92E9EE0B92E10E0C12CD12C612FE8
S1134AB0CE0101969CDED5012D913D915D01F7015A
S1134AC0848195812817390799F4CE010196A0DED7
S1134AD0843159F0CE0101969BDE8C3149F4CE012C
S1134AE0019628DE892B91F003C0CC24C394D12CE9
S1134AF01F5F1830E1F6CD2869F4D701ED91FC91E0
S1134B000084F185E02DC701099504C0CE0101960A
S1134B10AFDEEECF2D960FB6F894DEBF0FBECDBF3D
S1134B20DF91CF911F91FF90EF90DF90CF90BF90D6
S1134B30AF9008957F928F929F92AF92BF92CF923F
S1134B40DF92EF92FF920F931F93CF93DF93CDB732
S1134B50DEB72D970FB6F894DEBF0FBECDBF6C0144
S1134B605B014A018BDF84E0E82E8EE0F82E712C85
S1134B7000E010E0672DCE01019639DEF7012191A6
S1134B8031917F01F601848195812817390729F431
S1134B90CE0101963DDE8731C9F07394F8E07F12AF
S1134BA0E9CFC8012D960FB6F894DEBF0FBECDBF76
S1134BB0DF91CF911F910F91FF90EF90DF90CF90F5
S1134BC0BF90AF909F908F907F900895A401B501FE
S1134BD0CE01019692DD080F191FDFCF0F9300E07D
S1134BE020E040E060E080E29EE00E9441390F91C5
S1134BF0089580E00895DC01ED91FC91048CF58D1D
S1134C00E02D099426E53AE0FC0131832083FB0181
S1134C104189528963897489FC0142835383648383
S1134C2075830895FC01858996890895FC01818D19
S1134C30928D0895CF93DF931F92CDB7DEB769832A
S1134C40DC01ED91FC910280F381E02D41E050E024
S1134C50BE016F5F7F4F09950F90DF91CF9108954B
S1134C60CF93DF93EC01898D9A8D892B41F0E881F4
S1134C70F9810284F385E02DCE010995F4CFDF910B
S1134C80CF910895CF93DF93EC018C85883059F050
S1134C90CDD1EC85F0E0EE0FFF1FEC5FF14F1182F8
S1134CA0108288E08C87DF91CF910895FC01108EEB
S1134CB0178A6E5F7F4F848502C3FC01848522C3FB
S1134CC0CF93DF93EC019A018F89988DAB01BC01DE
S1134CD08C85CAD22F89388D280F391F388F2F8B96
S1134CE0DF91CF9108950F931F93CF93DF931F927A
S1134CF0CDB7DEB7FC01218D328D232B59F08C0109
S1134D0041E050E0BE016F5F7F4F84855ED218168C
S1134D1019061CF08FEF9FEF08C0F801818D928D6A
S1134D200197928F818F898190E00F90DF91CF91CD
S1134D301F910F910895CF93DF93FC01218D328D44
S1134D402115310519F48FEF9FEF10C0EC014217C4
S1134D50530708F0A9018C8538D2181619069CF758
S1134D60298D3A8D281B390B3A8F298FDF91CF91EA
S1134D700895CF93DF931F92CDB7DEB7FC01218D49
S1134D80328D232B41F0BE016F5F7F4F84855ED24D
S1134D90898190E002C08FEF9FEF0F90DF91CF9158
S1134DA00895EF92FF921F93CF93DF93FC01248524
S1134DB0283011F080E020C07B01EC0110E0612F6D
S1134DC06295660F607E685F83E090E010D3811186
S1134DD002C01C8705C08831E1F31F5F183079F7E2
S1134DE08C85883039F3FE86ED861A8E198E20E084
S1134DF0A70162E026D181E0DF91CF911F91FF905E
S1134E00EF9008950F931F93CF93DF93CDB7DEB741
S1134E1028970FB6F894DEBF0FBECDBF8C01DC011E
S1134E20ED91FC910680F781E02D0995F8016485E8
S1134E3087E39EE06FD3892B39F148E050E0BE014F
S1134E406F5F7F4FD8011C968C91BFD1181619063D
S1134E50ECF4BE016F5F7F4FC8010F960E94593971
S1134E608D8190E0982F88272E81820F911DF80163
S1134E70968B858B8F8190E0982F88272885820FC9
S1134E80911D928F818F02C080E090E028960FB62A
S1134E90F894DEBF0FBECDBFDF91CF911F910F916C
S1134EA00895FC011382128288EE93E0A0E0B0E042
S1134EB084839583A683B78384EF99E09183808369
S1134EC088E08487CF010F960C943739CF92DF9214
S1134ED0EF92FF920F931F93CF93DF93CDB7DEB77B
S1134EE0AF970FB6F894DEBF0FBECDBF8C016B0138
S1134EF07A01CE0101960E943739CE010996D1DF9D
S1134F00CE018A960E94373967EF7DE0CE01849600
S1134F103EDBBE016C5D7F4FCE01019603D8AE012E
S1134F20465D5F4FB601CE01019656DA8130910598
S1134F30C1F4D801ED91FC910488F589E02D86E552
S1134F409AE09DA38CA38CA59DA5AEA5BFA58EA319
S1134F509FA3A8A7B9A7A701BE016C5D7F4FC80195
S1134F600995AF960FB6F894DEBF0FBECDBFDF91A3
S1134F70CF911F910F91FF90EF90DF90CF90089504
S1134F800F9300E020E040E060E086E29EE00E94B3
S1134F9041390F9108950F9300E020E040E060E074
S1134FA08CE29EE00E9441390F910895AB018295F5
S1134FB0880F807E6CE0680F24E030E08CE090E0A5
S1134FC0E8C19B018295880F807E68E0680FC90163
S1134FD00EC262E070E0F5CF9B018295880F807E5F
S1134FE06CE0680FC901B5C1CF93DF93C82FD62FEA
S1134FF0472F64E070E0F0DF4D2F65E070E08C2F08
S1135000DF91CF91E9CF462F62E070E0E5CFCF93F7
S1135010DF93C82FD62F472F60E170E0DDDF4D2FDF
S113502061E170E08C2FDF91CF91D6CFCF93C82F61
S113503040E1682F87E39EE05FD36FEF8C2FCF9121
S1135040E2CFFF920F931F93CF93DF939FEF960FBF
S1135050953018F5D22F8A01F62EC82FE7DF4F2D91
S11350604D2B60E070E08C2FB7DF0115110511F0B6
S1135070B8010AC06091320E7091330E6F5F7F4F9A
S11350807093330E6093320E8C2FAEDF41E06C2FA1
S113509087E39EE031D381E001C080E0DF91CF91CE
S11350A01F910F91FF900895CF93C82F63E070E094
S11350B088DF833139F442E06C2F87E39EE01CD310
S11350C081E001C080E0CF9108950F931F93CF93A7
S11350D0FB0190819F3F51F491819F3F91F4928114
S11350E09F3F79F493819F3F61F41CC0911109C0E3
S11350F09181911106C09281911103C093819923EA
S113510091F04115510571F08A01BF01C82F4EDF9E
S1135110B8018C2F7CDF44E06C2F87E39EE0ECD257
S113512091E001C090E0892FCF911F910F910895D4
S113513048E0682F87E39EE0DFC2CF92DF92EF92D0
S1135140FF920F931F93CF93C82F7B018A014130A5
S1135150584010F000E018E06C2F87E39EE0A9D1DE
S11351606C0163E070E08C2F2CDF873111F08C31FF
S113517021F4C016D10680F302C000E010E09801CB
S1135180A7016C2F87E39EE019D240E26C2F87E3DE
S11351909EE0B2D28C2F1DDF84FD0BC063E070E073
S11351A08C2F0FDF8111F6CF8C2F40DF80E090E051
S11351B004C060E18C2F27DFC801CF911F910F91AC
S11351C0FF90EF90DF90CF900895CF92DF92EF920F
S11351D0FF920F931F93CF93DF93182F6B017A01E4
S11351E0682F87E39EE096D1EC01009791F463E089
S11351F070E0812FE6DE8431F9F08823E9F0C1E024
S1135200D0E08C3111F4C0E0D0E0D195C195D10942
S113521013C0E816F9060CF4E7011C161D0664F425
S113522000E09E01A601612F87E39EE018D240E4CE
S1135230612F87E39EE060D2CE01DF91CF911F9171
S11352400F91FF90EF90DF90CF9008950F93AB01F3
S113525001E021E030E0682F87E39EE000D281E0A6
S113526090E00F9108950895AF92BF92CF92DF928C
S1135270FF920F931F93CF93DF93F82E6B015A0184
S1135280E901682F87E39EE014D18C179D0728F469
S11352906F2D87E39EE00DD1EC018E019501A601EF
S11352A06F2D87E39EE050D1CE01DF91CF911F9106
S11352B00F91FF90DF90CF90BF90AF9008950F9320
S11352C01F93CF93FB019081911109C0918191119A
S11352D006C09281911103C09381992369F041150D
S11352E0510551F08A01BF01C82F60DEB8018C2F2F
S11352F08EDE81E090E002C080E090E0CF911F91CB
S11353000F910895CF93C82F40E2682F87E39EE062
S1135310F3D18C2F5EDE84FD0AC08C2F5ADE83FF0E
S1135320F8CF68E18C2F6FDE80E090E005C060E18B
S11353308C2F69DE81E090E0CF9108958EBD00004E
S11353400DB407FEFDCF8EB5089544980895449A90
S113535008950F931F93CF93DF93182F092FD62F00
S1135360C42F8091350E9091360E0E941117EDDFF7
S1135370802FE4DF812FE2DF8D2FE0DF8C2FDEDF53
S1135380E6DF0E942B1781E0DF91CF911F910F91EF
S11353900895DF92EF92FF920F931F93CF93DF93C1
S11353A0D82FD92EC62F7A0189018091350E90917C
S11353B0360E0E941117C9DF8D2DC0DF8D2FBEDF81
S11353C08C2FBCDFE701E00EF11ECE15DF0519F0CE
S11353D08991B4DFFACFBBDF0E942B17C801DF919C
S11353E0CF911F910F91FF90EF90DF9008951F933D
S11353F0CF93DF93D82F192FC62F8091350E90911C
S1135400360E0E941117A1DF812F98DF8D2F96DFB2
S11354108C2F94DF80E092DFC82F99DF0E942B1736
S11354208C2FDF91CF911F910895CF93DF936093D9
S1135430340E68EE73E080E090E00E940F3B3C9AEB
S11354400E94633360E080E090E0D1DF482F406841
S113545064E080E090E07DDFC0E0DC2FD295DD0FDA
S1135460D07ED45F42E06D2F8EE190E072DF42E0A7
S11354706D2F8FE190E06DDFCF5FC83071F7DF9162
S1135480CF9108951F93CF93DF93182F60E270E0BC
S113549098DDC82FD0E0DC2FCC2761E270E0812FAB
S11354A090DD9E01280F311DC901DF91CF911F911D
S11354B00895FF920F931F93CF93DF93F62EC0E0CE
S11354C0D0E08F2DDFDF8C01892B19F08F2DDADFEF
S11354D0EC01C017D107A9F7CE01DF91CF911F913D
S11354E00F91FF9008951F93CF93DF93182F66E2D7
S11354F070E067DDC82FD0E0DC2FCC2767E270E0D6
S1135500812F5FDD9E01280F311DC901DF91CF91ED
S11355101F910895FF920F931F93CF93DF93F62E5D
S1135520C0E0D0E08F2DDFDF8C01892B19F08F2DA7
S1135530DADFEC01C017D107A9F7CE01DF91CF91D3
S11355401F910F91FF900895AF92BF92DF92EF9257
S1135550FF920F931F93CF93DF93D62E7A015901B5
S113556064E270E08D2D2DDDC82F65E270E08D2D95
S113557028DDD0E0DC2FCC27E80EF11CCE0DDF1D9A
S11355806D2D6295660F607E6C5E9801A501CE015B
S113559000DFC00FD11F4D2F64E270E08D2D1CDDA4
S11355A04C2F65E270E08D2DDF91CF911F910F910B
S11355B0FF90EF90DF90BF90AF900ECD0F931F93AD
S11355C089019A0140E050E0BFDF1F910F910895D7
S11355D0DF92EF92FF920F931F93CF93DF93D82F15
S11355E0D92EC62F7A0189018091350E9091360EFD
S11355F00E941117AADE8D2DA1DE8D2F9FDE8C2F28
S11356009DDEE701E00EF11ECE15DF0521F080E0FE
S113561095DE8993F9CF9BDE0E942B17C801DF9199
S1135620CF911F910F91FF90EF90DF9008950F930A
S11356301F93CF93DF9300D0CDB7DEB75A8349834E
S1135640A901980189819A816295660F607E685EDE
S11356500F900F90DF91CF911F910F91B9CF8F923F
S11356609F92AF92BF92CF92DF92EF92FF920F93ED
S11356701F93CF93DF936C01962E5A017901802EEC
S113568068E270E0892D9DDC082F69E270E0892DC5
S113569098DC10E0102F0027E801C80FD11D870106
S11356A09501AE01692DC601C2DF811018C00C0F2F
S11356B01D1F412F68E270E0892D8EDC402F69E2C6
S11356C070E0892DDF91CF911F910F91FF90EF90A2
S11356D0DF90CF90BF90AF909F908F907DCCDF9163
S11356E0CF911F910F91FF90EF90DF90CF90BF90DB
S11356F0AF909F908F900895CF93C62F61E070E094
S11357008C2F6ADC61E070E08C2F5BDC8111FACFB6
S1135710CF910895E5E3FEE080E5808381E0818315
S11357200895FC0112828FEF818310821382089501
S1135730FC018381882331F0611103C08FEF8183E1
S11357400895118208958BEA9EE00E94C5368BEA83
S11357509EE00E94463791E0811190E0892F0895E0
S1135760CF93DF93EC016A838BEA9EE00E94B2360A
S11357706A81CE01E8DF8B83882329F08BEA9EE0DF
S11357800E94EE3588838B8190E0DF91CF9108955C
S1135790CF93DF93FC0123812223B1F0EC018181BB
S11357A080956823608362818BEA9EE00E94C536FF
S11357B068818BEA9EE00E9474368BEA9EE00E9428
S11357C04637282F30E002C020E030E081E090E04E
S11357D0232B11F080E090E0DF91CF91089508959C
S11357E00895DC01ED91FC910684F785E02D41E0FC
S11357F0099581E090E00895FC01138212822CE166
S11358003AE0318320830895DC01ED91FC91048416
S1135810F585E02D6FEF0994DC01ED91FC91048492
S1135820F585E02D60E00994DC01ED91FC9106849E
S1135830F785E02D40E0099461E0F6DF80ED97E024
S11358400C94483BCF93DF93CDB7DEB728970FB6C0
S1135850F894DEBF0FBECDBFFC0180914A01909148
S11358604B01A0914C01B0914D018D839E83AF8378
S1135870B88780914E0190914F01A0915001B09151
S1135880510189839A83AB83BC838781481710F0C5
S11358904FEF480F908550E0DE01A40FB51F903103
S11358A029F4843019F411969C9102C015969C91A8
S11358B0690F6068CF0128960FB6F894DEBF0FBE5B
S11358C0CDBFDF91CF91B0CFFC0165816B7F658344
S11358D06860AACFFC016581262F246025836C6053
S11358E0A3CFCF93DF93EC01423018F08C81886012
S11358F08C834F836887222329F0413019F48C81EB
S113590084608C8364E670E080E090E00E940F3B4A
S11359106C8164FD31C0E881F9810684F785E02D4E
S113592042E063E0CE01099584E991E10E94483B9D
S1135930E881F9810684F785E02D42E063E0CE0139
S1135940099586E990E00E94483BE881F981068444
S1135950F785E02D42E063E0CE01099586E990E009
S11359600E94483BE881F9810684F785E02D42E0F6
S113597062E0CE01099513C06062CE0155DF84E96F
S113598091E10E94483B6C816062CE014DDF86E963
S113599090E00E94483B6C816062CE0145DF86E95D
S11359A090E00E94483B6C816062CE013DDF8CE355
S11359B090E00E94483B84E08D83CE018BDFCE01D2
S11359C03BDF82E08E8366E0CE012EDFCE01DF91E5
S11359D0CF911ACFEF92FF920F931F93CF93DF9340
S11359E08C017A01677088E0689FB00111246064BB
S11359F0C8011ADF8EE190E00E94483BE701A8E06D
S1135A00EA0EF11C6991D801ED91FC910190F081AD
S1135A10E02DC801099588E290E00E94483BCE152C
S1135A20DF0581F7DF91CF911F910F91FF90EF90E8
S1135A30089521E001C0220F6A95EAF7DC011B9664
S1135A402C931B9719964C931997ED91FC91048410
S1135A50F585E02D60E00994FC018385882389F0B5
S1135A609185911103C0611105C006C0913021F4E4
S1135A70611102C0848701C014866485CF010D962C
S1135A8087CE08950F931F93CF93DF938C01EC017E
S1135A902D96FC016285CE0163DE019759F461E025
S1135AA0CE0146DEF801148260E0CE0171DE81E0B1
S1135AB090E002C080E090E0DF91CF911F910F91C0
S1135AC008958F92AF92CF92EF920F93CF93DF937B
S1135AD0CDB7DEB7FC01628713861486118681E098
S1135AE0982F01C0990F4A95EAF7918B982F01C01E
S1135AF0990F2A95EAF7928B982F01C0990F0A956E
S1135B00EAF7938B982F01C0990FEA94EAF7948BE4
S1135B10982F01C0990FCA94EAF7958B982F01C06A
S1135B20990FAA94EAF7968B01C0880F8A94EAF732
S1135B30878BDF91CF910F91EF90CF90AF908F90A3
S1135B4008956F927F928F929F92AF92BF92CF925D
S1135B50DF92EF92FF920F931F93CF93DF93CDB712
S1135B60DEB73C01D62EB42E922E1989FA8844DE73
S1135B7080E39AE0F30191838083C3010D96D1DD24
S1135B80292D4B2D6D2DC3019CDF4F2D612FC3019A
S1135B90DF91CF911F910F91FF90EF90DF90CF9005
S1135BA0BF90AF909F908F907F906F9042CFEF9275
S1135BB0FF920F931F93CF938C01C62F7C018DE02E
S1135BC0E80EF11CF80161896C2BC701E1DDF801D5
S1135BD0618960956C23C701CF911F910F91FF904C
S1135BE0EF90D6CDFC01962FDF0184E060E090FFBA
S1135BF004C054962C915497622B9695815011961B
S1135C008111F5CF413009F443899485692B642BC4
S1135C10CF01CDCF0F931F93CF93DF93062F0F7038
S1135C20423019F440E0602F0DC0142FEC0170E0F5
S1135C3084E0759567958A95E1F7CE01D3DF412F0E
S1135C40602FCE01DF91CF911F910F91CBCFFF92A7
S1135C500F931F93CF93DF93EC01162F042FF22E93
S1135C6011DF2F2D402F612FCE01DF91CF911F9196
S1135C700F91FF9036CECF93DF93EC0169E272E08F
S1135C8081E09FE00E94AE398881803130F467E280
S1135C9072E081E09FE00E94AE3940E150E068810B
S1135CA081E09FE0DF91CF910C94743AFC01608312
S1135CB04111E1CF0895CF93DF93EC0180E5888310
S1135CC019821A828FEF8E838F83888789871E8635
S1135CD01F86188A198A82E58C8F87E58D8F1E8E20
S1135CE01F8E18A219A2FE01E65AFF4F10821182DC
