S015000074656D706C61746556756F746F2E7372656396
S113000062C100008AC1000088C1000086C10000EE
S11300100C94D60F82C1000080C100000C94FA0F2A
S11300207CC100007AC1000078C1000076C10000E4
S113003074C1000072C1000070C100006EC10000F4
S11300400C949B2F6AC100000C948E2D0C94C02D2F
S113005064C1000062C1000060C100005EC1000014
S11300605CC100005AC100000C94DB2956C1000099
S113007054C1000052C1000050C100004EC1000034
S11300804CC100004AC1000048C10000D409F7096E
S11300900C0A3D0A270B320CFF0C500D880DF30D92
S11300A0AE0EAE0E72188918891886188918701841
S11300B0891889188918641889188918791884186E
S11300C08218891889188918801800407A10F35A00
S11300D000A0724E18090010A5D4E80000E8764884
S11300E0170000E40B54020000CA9A3B000000E130
S11300F0F505000080969800000040420F000000C3
S1130100A08601000000102700000000E8030000A2
S113011000006400000000000A000000000001006C
S1130120000000002C76D888DC674F0823DFC1DF8D
S1130130AE59E1B1B796E5E3E453C63AE651997690
S113014096E8E6C28426EB898C9B62ED407C6FFCCA
S1130150EFBC9C9F40F2BAA56FA5F490055A2AF70C
S11301605C936B6CF9676DC11BFCE0E40D47FEF515
S113017020E6B500D0ED902E03009435770500807D
S1130180841E080000204E0A000000C80C333333DC
S1130190330F986E12831141EF8D2114893BE6557C
S11301A016CFFEE6DB18D1844B381BF77C1D901D5F
S11301B0A4BBE424203284725E228100C9F124ECC1
S11301C0A1E53D27525443206368697020445333AA
S11301D03233314D20696E697469616C697A656482
S11301E02E00556E61626C6520746F2066696E64C2
S11301F0204453333233314D4D2E20436865636BB5
S1130200696E6720616761696E20696E2033732EA1
S11302100053657020313420323032300031333AAB
S113022032373A3032001F1C1F1E1F1E1F1F1E1F95
S11302301E1F000000000403080700000200090A52
S113024000000000000000000000000000000000AA
S113025000010102040810204080010210204080A7
S1130260102040801008200440800102040801028C
S11302700408040404040404040402020202020242
S1130280010101010303030303030101010103034A
S113029002020000000023002600290000000000E4
S11302A0250028002B0000000000240027002A005D
S11302B0BA10F81A501B481E2F203A200C22DC25B5
S11302C06B2CEE2D8B1111241FBECFEFD0E4DEBFBB
S11302D0CDBF18E0A0E0B1E0ECE0F5E700E00BBF33
S11302E002C007900D92AE39B107D9F72BE0AEE901
S11302F0B8E001C01D92A63AB207E1F711E0C2E6E8
S1130300D1E004C02197FE010E944335C835D107CE
S1130310C9F70E947A2E0C947A3A72CE80E090E06B
S113032008950895449A0895EF92FF920F931F93AE
S1130330CF93DF93CDB7DEB768970FB6F894DEBFDF
S11303400FBECDBF8EE798E09A8389834091E10880
S11303505091E2086091E3087091E4084B835C8358
S11303606D837E8398878F834091E7085091E808D6
S11303706091E9087091EA0849875A876B877C87FE
S11303809E878D874091ED085091EE086091EF08AB
S11303907091F0084F87588B698B7A8B9C8B8B8B71
S11303A08091F3089091F408A091F508B091F608B3
S11303B08D8B9E8BAF8BB88FCE0101967C018E0105
S11303C0095F1F4F9E01235F3F4FAE014D5E5F4F9C
S11303D066E271E089EF99E00E94021E68960FB60A
S11303E0F894DEBF0FBECDBFDF91CF911F910F9167
S11303F0FF90EF9008951816190644F4EFE9FFE012
S11304003197F1F700C000000197F5CF0895CF931D
S11304108CEF9AE00E94FF2ECDE761E871E08CEF4B
S11304209AE00E94F72EC150C1F78CEF9AE0CF9169
S11304300C94FF2ECF93DF93D82FC0E0CD1741F05B
S113044063E871E08CEF9AE00E94F72ECF5FF6CF5D
S1130450DF91CF910895CF93C82F81E0EBDF65E85A
S113046071E08CEF9AE00E94F72ECC2319F069E832
S113047071E002C06EE871E08CEF9AE00E94F72E02
S113048081E0CF91D7CFCF92DF92EF92FF920F937B
S11304901F93CF93DF936A017B01C0E0D0E0082F64
S11304A010E0C017D10724F4C601A5DF2196F9CFC7
S11304B0DF91CF911F910F91FF90EF90DF90CF903C
S11304C008958232910509F49AC06CF58A30910539
S11304D009F483C0A4F48630910509F475C0893009
S11304E0910509F45DC0059709F0CFC0609106013C
S11304F08CEF9AE00E94F82E20E030E059C082315F
S1130500910509F473C08132910509F454C04197EF
S113051009F0BBC0609108018CEF9AE00E94F82EAC
S113052022E030E045C08036910509F499C0ACF46E
S11305308834910509F482C08035910509F487C097
S11305408434910509F0A1C0609112018CEF9AE006
S11305500E94F82E20E030E08BC08838910509F421
S113056059C06CF48438910509F08FC060910E0174
S11305708CEF9AE00E94F82E20E030E05CC08039D5
S1130580910509F450C0803A910509F07EC060914C
S113059011018CEF9AE00E94F82E23E030E04BC06A
S11305A0609107018CEF9AE00E94F82E21E030E080
S11305B080E090E05FC0609109018CEF9AE00E94B6
S11305C0F82E23E030E0F4CF60910A018CEF9AE03A
S11305D00E94F82E20E030E01AC060910B018CEFED
S11305E09AE00E94F82E21E030E011C060910C01E5
S11305F08CEF9AE00E94F82E22E030E008C060916F
S11306000D018CEF9AE00E94F82E23E030E081E0A7
S113061090E030C060910F018CEF9AE00E94F82EB8
S113062021E030E008C0609110018CEF9AE00E9454
S1130630F82E22E030E082E090E01CC060911301CB
S11306408CEF9AE00E94F82E21E030E011C0609116
S113065014018CEF9AE00E94F82E22E030E008C0EA
S1130660609115018CEF9AE00E94F82E23E030E0AF
S113067083E090E0880F991F880F991F8A5F9E4F2F
S1130680FC01E20FF31F808108958EE40895CF9258
S1130690DF92EF92FF920F931F93CF93DF93CDB727
S11306A0DEB72C970FB6F894DEBF0FBECDBF8C011A
S11306B06B017A0184E799E00E94672682E0C816FC
S11306C0D1040CF447C04091B1085091B208609134
S11306D0B3087091B4088091AD089091AE08A091D0
S11306E0AF08B091B008480F591F6A1F7B1F4150D3
S11306F05109610971098091B5089091B608A091DA
S1130700B708B091B808481B590B6A0B7B0B2AE059
S1130710CE0107960E948E3263E971E0CE01019604
S11307200E94B831BE01695F7F4FCE0101960E94DD
S113073039336BE971E00E944A33BC0184E799E0E4
S11307400E94E92ECE0101960E945131CE010796F6
S11307500E94513161E084E799E00E94F82E41E063
S113076060E084E799E00E946D26B8016A5F7F4FDC
S113077084E799E00E94E92E42E060E084E799E092
S11307800E946D26B801645F7F4F84E799E00E9460
S1130790E92E43E060E084E799E00E946D26B80109
S11307A06E5E7F4F84E799E00E94E92EC70123DE45
S11307B02C960FB6F894DEBF0FBECDBFDF91CF915C
S11307C01F910F91FF90EF90DF90CF900895609369
S11307D0AD087093AE088093AF089093B00887EA91
S11307E098E00E94FA186093B1087093B20880935D
S11307F0B3089093B40880914D0990914E090196E5
S113080090934E0980934D090895AF92BF92CF9271
S1130810DF92EF92FF920F931F93CF93DF93CDB7A5
S1130820DEB7A2970FB6F894DEBF0FBECDBF5C0152
S1130830F62E64E871E0CE014D960E94B83108ECC2
S113084010E024E939E04DE859E060E08DE599E0F5
S11308500E946D1680939509882309F49DC04EE18A
S113086050E060E070E082E00EDE80919409843014
S113087009F08CC086E0E3E7F1E0DE0157960190D1
S11308800D928A95E1F7CE0147966C01E12C04E0C4
S113089010E020E030E044E06DE879E08DE599E097
S11308A00E94C11680939509882309F45FC0FF2034
S11308B099F080E1EDEDF7E0DE01119601900D92E3
S11308C08A95E1F7AE014F5F5F4F64E08DE599E0F3
S11308D00E94541780939509AE014F5F5F4F64E007
S11308E08DE599E00E94211780939509882389F169
S11308F061EA71E08CEF9AE00E94222FBE016F5FE3
S11309007F4FCE0141960E94B831BE016F5E7F4F8A
S11309108CEF9AE00E94122F8D899E89069759F4D4
S1130920BE016F5E7F4FC5010E940732CE01419622
S11309300E94513137C09FEF21EE84E09150204056
S11309408040E1F700C00000CE0141960E94513181
S11309501DC084E799E00E94672641E060E084E7D7
S113096099E00E946D266FEA71E00CC084E799E07B
S11309700E94672641E060E084E799E00E946D26CA
S113098069EB71E084E799E00E94F72E64E871E076
S11309908CEF9AE00E94222FBE01635E7F4FC50157
S11309A00E940732CE014D960E945131C501A29694
S11309B00FB6F894DEBF0FBECDBFDF91CF911F916C
S11309C00F91FF90EF90DF90CF90BF90AF9008957C
S11309D0CF92DF92EF92FF920F931F93CF93DF9307
S11309E0CDB7DEB764970FB6F894DEBF0FBECDBFA8
S11309F07C01CE0101966C0187E0F60111928A9583
S1130A00E9F761EC71E0C7010E94B83100E010E041
S1130A109E012C5E3F4FA60160E08DE599E00E94A7
S1130A206D16882359F10C8910E020E030E0A6010E
S1130A306DE579E0CE010E960E946C14CE010E96FF
S1130A400E94CE3328E030E040E050E0BE01625F17
S1130A507F4FCE0108960E948B33BE01685F7F4FA3
S1130A60C7010E942C32CE0108960E94513181E0C8
S1130A7080938C09CE010E960E945131C701649671
S1130A800FB6F894DEBF0FBECDBFDF91CF911F919B
S1130A900F91FF90EF90DF90CF900895EF92FF9227
S1130AA00F931F93CF93DF93CDB7DEB72C970FB679
S1130AB0F894DEBF0FBECDBF8C017B0168EC71E002
S1130AC0CE0107960E94B831A2DC60ED71E08CEF94
S1130AD09AE00E94222F20915B0130915C01F70182
S1130AE08481958128173907A9F4A9014350510934
S1130AF0B701CE0101960E948B3381E0ACDCBE01CC
S1130B006F5F7F4FC8010E940732CE0101960E9499
S1130B10513109C080E09FDC7ADCBE01695F7F4F00
S1130B20C8010E940732CE0107960E945131C801C4
S1130B302C960FB6F894DEBF0FBECDBFDF91CF91D8
S1130B401F910F91FF90EF900895AF92BF92CF92B3
S1130B50DF92EF92FF920F931F93CF93DF93CDB762
S1130B60DEB72C970FB6F894DEBF0FBECDBF5C0185
S1130B706B018A0179014BDC81E05CDC68EE71E099
S1130B808CEF9AE00E94F72EA501B601C8010E94DD
S1130B90901E892B09F477C06EE072E0CE010196B5
S1130BA00E94B831B701CE0101960E9439336FE338
S1130BB072E00E944A33BC0181E599E00E940F3241
S1130BC0CE0101960E9451316CE472E081E599E016
S1130BD00E94193368E674E081E599E00E941933B4
S1130BE068E672E081E599E00E94193368E674E0F2
S1130BF081E599E00E94193361E872E081E599E0AA
S1130C000E94193368E674E081E599E00E94193383
S1130C1060EA72E081E599E00E94193368E674E0C5
S1130C2081E599E00E94193360EC72E081E599E076
S1130C300E94193368E674E081E599E00E94193353
S1130C406AE673E081E599E00E94193368E674E08E
S1130C5081E599E00E94193361E579E0C8010E94B9
S1130C60E92E2FEF87EE93E0215080409040E1F78A
S1130C7000C0000069E873E0C8010E94222FC80187
S1130C800E94FF2E25C084E799E00E94672641E078
S1130C9060E084E799E00E946D266BE973E084E7E5
S1130CA099E00E94F72E43E060E084E799E00E9417
S1130CB06D2660EB73E084E799E00E94F72E2FEF36
S1130CC083ED90E3215080409040E1F700C00000A4
S1130CD02FEF81EE94E0215080409040E1F700C076
S1130CE00000F12CC8010E94071F892B09F456C08B
S1130CF0C8010E94111FE82E65E479E0CE01019637
S1130D000E9424326E2DCE0101960E946133BC01F3
S1130D1085E499E00E940F32CE0101960E94513180
S1130D2020915B0130915C018091490990914A09BD
S1130D3028173907B9F665E479E0CE0101960E94D7
S1130D402432BE016F5F7F4FCE010796A7DECE012E
S1130D5001960E9451312FEF87EE93E0215080409D
S1130D609040E1F700C000006FEB73E0CE010796FE
S1130D700E946D33882321F081E06DDBFF24F3941E
S1130D802FEF87EE93E0215080409040E1F700C0C0
S1130D900000CE0107960E945131A4CF38DB8F2D7D
S1130DA02C960FB6F894DEBF0FBECDBFDF91CF9166
S1130DB01F910F91FF90EF90DF90CF90BF90AF9075
S1130DC00895AF92BF92CF92DF92EF92FF920F936A
S1130DD01F93CF93DF93CDB7DEB72C970FB6F8945C
S1130DE0DEBF0FBECDBF5C016B018A0179010FDB51
S1130DF081E020DB63EC73E08CEF9AE00E94F72E35
S1130E00A501B601C8010E94901E892B09F492C065
S1130E102FEF81EE94E0215080409040E1F700C034
S1130E20000062EF73E081E599E00E94373263E1EC
S1130E3074E081E599E00E94193368E674E081E585
S1130E4099E00E94193360EC72E081E599E00E9418
S1130E50193368E674E081E599E00E9419336AE683
S1130E6073E081E599E00E94193368E674E081E556
S1130E7099E00E94193365E374E081E599E00E94EA
S1130E80193368E674E081E599E00E94193361E45E
S1130E9074E081E599E00E94193368E674E081E525
S1130EA099E00E94193368E674E081E599E00E94B4
S1130EB0193364E574E081E599E00E94193368E52B
S1130EC074E0CE0101960E94B831B701CE010196BB
S1130ED00E94393367E674E00E944A33BC0181E51D
S1130EE099E00E941333CE0101960E9451316BE6C2
S1130EF074E081E599E00E94193361E579E08CEFB3
S1130F009AE00E94122F61E579E0C8010E94E92E5F
S1130F102FEF87EE93E0215080409040E1F700C02E
S1130F20000069E873E0C8010E94222FC8010E94F2
S1130F30FF2E25C084E799E00E94672641E060E027
S1130F4084E799E00E946D266BE973E084E799E0F9
S1130F500E94F72E43E060E084E799E00E946D264A
S1130F6060EB73E084E799E00E94F72E2FEF83EDA6
S1130F7090E3215080409040E1F700C000002FEF43
S1130F8081EE94E0215080409040E1F700C00000E1
S1130F90F12CC8010E94071F892B09F456C0C8010F
S1130FA00E94111FE82E65E479E0CE0101960E94AB
S1130FB024326E2DCE0101960E946133BC0185E47A
S1130FC099E00E940F32CE0101960E945131209186
S1130FD05B0130915C018091490990914A0928177D
S1130FE03907B9F665E479E0CE0101960E9424320E
S1130FF0BE016F5F7F4FCE01079650DDCE01019693
S11310000E9451312FEF87EE93E0215080409040B1
S1131010E1F700C000006FEB73E0CE0107960E9479
S11310206D33882321F081E016DAFF24F3942FEF47
S113103087EE93E0215080409040E1F700C000002B
S1131040CE0107960E945131A4CFE1D92FEF80E75A
S113105092E0215080409040E1F700C000008F2DC5
S11310602C960FB6F894DEBF0FBECDBFDF91CF91A3
S11310701F910F91FF90EF90DF90CF90BF90AF90B2
S113108008955798569888E08093680080EC809380
S113109073007894089509980A98089591E09093BC
S11310A06800843419F40D9880E202C00E9880E43C
S11310B080936B0078940895CF92DF92EF92FF9221
S11310C0BC01990F880B990B0E94DC2C6B017C01ED
S11310D020E030E0A9010E946E2C87FF03C0C12CE0
S11310E0D12C76016091590170915A01072E000CA0
S11310F0880B990B0E94DC2C9B01AC01C701B60143
S11311000E94722CFF90EF90DF90CF9008953F9A49
S11311108130910571F082309105E1F0892B89F5D8
S113112047982FEF30E742E0215030404040E1F74C
S11311300EC028B101C0880F6A95EAF7822B88B9DE
S11311408FEF90E722E0815090402040E1F700C00B
S11311500000089528B181E090E001C0880F6A95ED
S1131160EAF7982F9095922398B93FEF45EA2EE03D
S1131170315040402040E1F700C0000098B1892B75
S113118088B908950F9A81309105B9F0823091059C
S113119029F1892BD1F522B181E090E001C0880FBB
S11311A06A95EAF78095822382B92FEF30E742E00F
S11311B0215030404040E1F70EC022B101C0880FF9
S11311C06A95EAF7822B82B98FEF90E722E081508B
S11311D090402040E1F700C00000089522B181E072
S11311E090E001C0880F6A95EAF7982F90959223B2
S11311F092B93FEF45EA2EE0315040402040E1F7FC
S113120000C0000092B1892B82B90895239A2FEF70
S113121036E741E0215030404040E1F700C0000093
S11312208130910511F42B9A0895892B09F42B9898
S1131230089564E871E085E499E00E9437321092E1
S11312404C0910924B0910928C0966EE74E08BE104
S113125099E00E94373267E070E081E090E057DF68
S113126067E070E081E090E08DDF80E090E0CEDF29
S11312708FE19EE40197F1F700C0000085EC98E04F
S11312800E944F1F85EC98E00E94941F8FE19EE41A
S11312900197F1F700C0000082ED98E00E944F1F13
S11312A082ED98E00E94941F1092500910924F0909
S11312B08FE19EE40197F1F700C000002C988FE1C4
S11312C09EE40197F1F700C000002C9A8FE19EE4A0
S11312D00197F1F700C0000025D88FE19EE4019743
S11312E0F1F700C00000449882B182B982B182B99A
S11312F064E871E08DEF98E00E94373264E871E0B1
S113130083E099E00E94373264E871E083E099E079
S11313100E94373284E799E00E94572684E799E0D7
S11313200E94AF261092B5081092B6081092B70822
S11313301092B8081092B1081092B2081092B30833
S11313401092B40864D868EE74E08CEF9AE00E94BE
S1131350222F5DD864E871E081EA98E00E94373278
S11313608EEF9FEF90934E0980934D090895CF928D
S1131370DF92EF92FF920F931F93CF93DF93CDB73A
S1131380DEB7A3970FB6F894DEBF0FBECDBFE091D2
S11313904D09F0914E093296EC30F10508F0DFC4A6
S11313A0EA5BFF4F0C94433564E871E08DEF98E0FD
S11313B00E94373269EF74E083E099E00E9437328B
S11313C064E871E089E099E00E94373260914D0948
S11313D070914E0944E650E087EF98E058D92FEF1A
S11313E033EC89E0215030408040E1F743C049DECE
S11313F09FEF29EF30E0915020403040E1F700C0EA
S1131400000049DE80914D0990914E090196909318
S11314104E0980934D09A3C464E871E08DEF98E010
S11314200E94373264E871E083E099E00E94373229
S113143064E871E089E099E00E94373260914D09D7
S113144070914E0944E650E087EF98E020D98FEF81
S113145097EA21E6815090402040E1F700C0000067
S113146010928C0944983FEF83ED90E33150804013
S11314709040E1F700C00000C5CF64E871E081EA64
S113148098E00E94373265E075E08DEF98E00E94A5
S1131490373264E871E083E099E00E94373269E111
S11314A075E089E099E00E94373260914D097091AE
S11314B04E0944E650E087EF98E0E9D861EC71E02A
S11314C0CE0146960E94B83180918C09811115C0D5
S11314D0CE0101967DDABE016F5F7F4FCE01469645
S11314E00E942C32CE0101960E94513144E650E014
S11314F060E070E082E00E94430261EC71E0CE01A2
S113150046960E946D33811102C0449B66C4BE019D
S11315106A5E7F4FCE010E960E9424328091C708E6
S11315209091C8089C838B838091C9089091CA08C4
S1131530A091CB08B091CC088D839E83AF83B887EC
S11315408091CD089091CE08A091CF08B091D00899
S113155089879A87AB87BC878AEF97E09A838983C8
S11315608091D1088D879E01225F3F4FAE014F5F6E
S11315705F4F63E471E080E590E0E7DA182FCE0175
S11315800E960E945131112359F1449A40E951E0D9
S113159060E070E081E00E9443026CE275E08DEF50
S11315A098E00E94373264E871E083E099E00E9499
S11315B0373260E475E089E099E00E943732609147
S11315C04D0970914E094AE050E087EF98E05FD8EA
S11315D02FEF30E782E0215030408040E1F729C00E
S11315E048EC50E060E070E083E00E9443026CE26B
S11315F075E08DEF98E00E94373260E475E083E097
S113160099E00E94373267E475E089E099E00E942E
S1131610373260914D0970914E094AE050E087EFEE
S113162098E035D89FEF20E732E0915020403040D9
S1131630E1F700C0000060912201709123018091C4
S1131640240190912501C3D8CE014696D5C16CE3FF
S11316508EE998E00E94F5138EE998E00E940C143C
S1131660082F42E0BE016A5E7F4F90E00E94C137BE
S113167063EC8EE998E00E94F5138EE998E00E94ED
S11316800C14182F42E0BE01625F7F4F90E00E946D
S1131690C1371027012F10E042E0BE016F5F7F4F7A
S11316A0C8010E94C137C8010E9461029FEF20E770
S11316B032E0915020403040E1F700C00000823415
S11316C019F1B0F4833209F46AC0813409F085C099
S11316D064E871E081EA98E00E9437326091220167
S11316E070912301809124019091250170D80CC040
S11316F08334C1F08E3409F070C06BE575E08CEF73
S11317009AE00E94F72EA3C061E0CE014E967DD8E8
S11317108FE39CE90197F1F700C00000CE014E96DB
S11317200E9451312091A5083091A6082115310558
S1131730A9F02150310940E050E061EA78E0CE019F
S11317404E960E948B33BE01625E7F4F81EA98E021
S11317500E942C32CE014E960E9451316CE275E00B
S11317608DEF98E00E94373260E475E0CE014E962A
S11317700E94B83161EA78E0CE014E960E94393376
S1131780BC0183E099E00E940F32CE014E960E9484
S1131790513167E475E089E099E00E943732809125
S11317A0A5089091A608059709F051C061EA78E070
S11317B08CE999E00E940F326CE979E087E299E0C4
S11317C00E940F32609122017091230180912401C3
S11317D0909125010E94E7033AC0682FCE014E96EE
S11317E00E944C32BE01625E7F4F81EA98E00E9403
S11317F01333CE014E960E9451319FEF29EF30E012
S1131800915020403040E1F700C000006CE275E0E8
S11318108DEF98E00E94373260E475E0CE014E9679
S11318200E94B83161EA78E0CE014E960E943933C5
S1131830BC0183E099E00E940F32CE014E960E94D3
S1131840513167E475E089E099E00E943732609194
S11318504D0970914E094AE050E087EF98E00E94EC
S113186047037DC28091A5089091A6080597B9F415
S113187066EE74E086E999E00E94373261EA78E026
S11318808CE999E00E940F321092A20960911E0126
S113189070911F018091200190912101EBC062E6BB
S11318A075E08DEF98E00E94373264E871E083E0E0
S11318B099E00E94373265E775E0CE0101960E94F7
S11318C0B8316CE979E0CE0101960E943933BC014C
S11318D089E099E00E940F32CE0101960E945131B5
S11318E060914D0970914E094AE050E087EF98E00D
S11318F00E94470360E0CE010E960E9405048FE328
S11319009CE90197F1F700C00000BE01625F7F4FC0
S11319108CEF9AE00E94122F2A893B8945E050E01F
S1131920BE01625F7F4FCE0101960E948B33BE01E0
S11319306F5F7F4F86E999E00E942C32CE010196B9
S11319400E94513125E030E040E050E0BE01625F8A
S11319507F4FCE0101960E948B33BE016F5F7F4F94
S11319608CE999E00E942C32CE0101960E945131FB
S11319701092A2096DE775E0CE0101960E94B8317C
S113198066E979E0CE0101960E943933BC018CEFFF
S11319909AE00E94122FCE0101960E94513165E710
S11319A075E0CE0101960E94B8316CE979E0CE0170
S11319B001960E943933BC018CEF9AE00E94122FE9
S11319C0CE0101960E94513166E979E08BE199E0FC
S11319D00E940F326FE875E086E999E00E946D334A
S11319E0811166C261E975E086E999E00E946D3370
S11319F081115EC2CE010E960E945131B0C163E9DD
S1131A0075E08DEF98E00E94373264E871E083E07E
S1131A1099E00E9437326EEA75E089E099E00E940D
S1131A20373260914D0970914E0944E650E087EFDA
S1131A3098E00E9447036FE875E086E999E00E9408
S1131A406D338823D1F082E429DB67E070E080E025
S1131A5090E098DB6FEB75E087E599E00E94373200
S1131A6066E979E08DE299E00E940F326AE070E065
S1131A7080E090E00E94E70372C161E975E086E9C5
S1131A8099E00E946D33882309F469C184E406DB7C
S1131A9067E070E080E090E03ADB67EC75E0DCCF73
S1131AA010924C0910924B096FEC75E08DEF98E0A1
S1131AB00E94373264E871E083E099E00E94373293
S1131AC066EE75E0CE0101960E94B83167E579E0D3
S1131AD0CE0101960E9439336DEE75E00E944A33BF
S1131AE0BC0189E099E00E940F32CE0101960E9468
S1131AF0513160914D0970914E0944E650E087EFF1
S1131B0098E00E94470364E170E080E090E0B2CF87
S1131B100E9492018FE39FE10197F1F700C000005A
S1131B20449880914B0990914C09C6DA6B017C0171
S1131B3022E0AB01BC01CE010E960E94B93264EFE3
S1131B4075E0CE0101960E94B831BE01625F7F4FFD
S1131B50CE0101960E943933BC018DEF98E00E94BA
S1131B600F32CE0101960E945131CE010E960E9491
S1131B70513164E871E083E099E00E9437326CEF00
S1131B8075E0CE0101960E94B83167E579E0CE0197
S1131B9001960E943933BC0189E099E00E940F321A
S1131BA0CE0101960E94513160914D0970914E0908
S1131BB044E650E087EF98E00E944703019B08C089
S1131BC061E975E08BE199E00E946D33811187C171
S1131BD0199BC5C06FE875E08BE199E00E946D33F5
S1131BE08111AAC1BCC064E871E08DEF98E00E9445
S1131BF0373269E076E083E099E00E94373264E8A6
S1131C0071E089E099E00E9437324499A8C060915C
S1131C104D0970914E094AE050E087EF98E00E9428
S1131C20470364E871E08FE099E00E94373201E2F3
S1131C3019E089E3E82E89E0F82EB801CE01019677
S1131C400E94243267E176E0CE0101960E944A3375
S1131C50BC018FE099E00E941333CE0101960E94EB
S1131C6051310A5F1F4FE016F10639F79FEF23ED5C
S1131C7030E3915020403040E1F700C000006FE0B5
S1131C8079E0CE010E960E9424328091D40890917E
S1131C90D5089C838B838091D6089091D708A09116
S1131CA0D808B091D9088D839E83AF83B88780917B
S1131CB0DA089091DB08A091DC08B091DD088987EF
S1131CC09A87AB87BC878AEF97E09A838983809150
S1131CD0DE088D879E01225F3F4FAE014F5F5F4F4D
S1131CE06CE271E089E893E16CD8182FCE010E966E
S1131CF00E945131112339F10E94920164E871E08C
S1131D008DEF98E00E94373269E176E083E099E054
S1131D100E94373264E871E089E099E00E9437322A
S1131D2060914D0970914E0944E650E087EF98E0C8
S1131D300E9447038FEF99EF20E0815090402040AC
S1131D40E1F700C000000E949201609116017091B9
S1131D50170180911801909119018CCE6ADA69EB10
S1131D6078E0CE0101960E94A91986E0FE01319621
S1131D70A7EAB8E001900D928A95E1F787EA98E026
S1131D800E94FA186093B5087093B6088093B70858
S1131D909093B8080091B1081091B2082091B3084B
S1131DA03091B408C090AD08D090AE08E090AF0870
S1131DB0F090B0080C0D1D1D2E1D3F1D680179010A
S1131DC0C61AD70AE80AF90AD701C6010297A1057B
S1131DD0B10508F0DCC02DDADAC064E871E08CEFFC
S1131DE09AE00E94222F68E276E08CEF9AE00E944B
S1131DF0F72E68E676E0CE0101960E94B831BE0166
S1131E006A5E7F4FCE0101960E943933BC018CEF8C
S1131E109AE00E94122FCE0101960E94513168E28D
S1131E2076E08CEF9AE00E94F72E67E776E08CEF7D
S1131E309AE00E94222FBE016A5E7F4F81E299E000
S1131E400E940F3284E799E00E944F2684E799E0CC
S1131E500E94B5268FE39CE90197F1F700C00000CA
S1131E606CE976E08DEF98E00E9437326EEA76E016
S1131E7083E099E00E94373261EC76E089E099E0F2
S1131E800E94373260914D0970914E0944E650E04A
S1131E9087EF98E00E9447030E9494019FEF23ED8F
S1131EA030E3915020403040E1F700C000002FCBD8
S1131EB06CE979E087E299E00E940F3266E979E003
S1131EC08DE299E00E940F3260911E0170911F0112
S1131ED080912001909121010E94E7038BCD22E0A3
S1131EE0B701A601CE0101960E94B932BE016F5F0F
S1131EF07F4F83E399E00E942C32CE0101960E9429
S1131F00513164ED76E087E599E00E94373267E06D
S1131F1070E081E090E036D967E070E081E090E025
S1131F20F6D892B182E0892782B96AE070E080E055
S1131F3090E00E94E7034CCE22E0B701A601CE0157
S1131F4001960E94B932BE016F5F7F4F83E399E02F
S1131F500E942C32CE0101960E94513164ED76E04C
S1131F6087E599E00E94373267E070E081E090E015
S1131F7009D967E070E081E090E0C9D860911A0166
S1131F8070911B0180911C0190911D0173CDA3964A
S1131F900FB6F894DEBF0FBECDBFDF91CF911F9176
S1131FA00F91FF90EF90DF90CF9008951F920F92C2
S1131FB00FB60F9211248F939F93059B09C08091B4
S1131FC04B0990914C09019690934C0980934B09CD
S1131FD0069B09C080914B0990914C0901969093FE
S1131FE04C0980934B099F918F910F900FBE0F90D6
S1131FF01F9018951F920F920FB60F9211240BB6D3
S11320000F922F933F934F935F936F937F938F938D
S11320109F93AF93BF93EF93FF9380914D0990915A
S11320204E09049709F093C04E9B30C08091A509D6
S11320309091A60901969093A6098093A509809191
S1132040A5099091A60918161906BCF582E426D8AC
S113205067E070E080E090E095D86FE875E08BE190
S113206099E00E9437326BE179E08DE299E00E94B9
S11320700F326FEB75E087E599E00E9437326AE032
S113208070E080E090E00E94E7030FC08091A30914
S11320909091A40901969093A4098093A309809137
S11320A0A3099091A409029744F01092A6091092F2
S11320B0A5091092A4091092A3094F9B31C08091E5
S11320C0A5099091A60901969093A6098093A50964
S11320D08091A5099091A60918161906C4F584E4FF
S11320E00E944E0867E070E080E090E010D861E95B
S11320F075E08BE199E00E9437326BE179E08DE283
S113210099E00E940F3267EC75E087E599E00E9440
S113211037326AE070E080E090E00E94E7030FC08D
S11321208091A3099091A40901969093A4098093A6
S1132130A3098091A3099091A409029744F01092F5
S1132140A6091092A5091092A4091092A309FF915F
S1132150EF91BF91AF919F918F917F916F915F911B
S11321604F913F912F910F900BBE0F900FBE0F9088
S11321701F9018958F92AF92CF92EF920F9300E039
S113218020E040E060E087EA99E00E94642E64E881
S113219071E086E999E00E94B83164E871E08CE965
S11321A099E00E94B8311F9283E08F9387E0882ED4
S11321B096E0A92E25E0C22E34E0E32E21E042E091
S11321C067E284E799E00E94EC2743E064E08DE550
S11321D099E04CD364EE76E087E599E00E94B8314B
S11321E064E871E081E599E00E94B83164E871E047
S11321F085E499E00E94B83164E871E081E299E0F5
S11322000E94B83164E871E087E299E00E94B83135
S113221064E871E08DE299E00E94B83164E871E00D
S113222083E399E00E94B83164E871E089E399E0BE
S11322300E94B83164E871E08FE399E00E94B831FC
S113224066EE74E08BE199E00E94B83164E871E0D5
S113225085E199E00E94B83164E871E08FE099E08B
S11322600E94B83166EE74E087EF98E00E94B831BE
S113227066EE74E08DEF98E00E94B83166EE74E08B
S113228083E099E00E94B83166EE74E089E099E059
S11322900E94B83102E320E048EA60EC81EF98E064
S11322A00E94642E05E121E048EA60EC8BEE98E0A0
S11322B00E94642E01E020E048EA60EC85EE98E09C
S11322C00E94642E00E020E04FEF6FEF8FED98E066
S11322D00E94642E82ED98E00E94521F85EC98E0E3
S11322E00E94521F89EB98E0BAD740E050E0BA014F
S11322F087EA98E048D664E871E081EA98E00E94B1
S1132300B8310F900F908EE998E00F91EF90CF9035
S1132310AF908F900BC2CF93DF9381EA98E00E9435
S1132320513189EB98E0A2D789E099E00E945131BC
S113233083E099E00E9451318DEF98E00E94513181
S113234087EF98E00E9451318FE099E00E9451316B
S113235085E199E00E9451318BE199E00E9451316D
S1132360C5E4D9E02697CE010E94513189E0C132FB
S1132370D807C1F785E499E00E94513181E599E0DD
S11323800E94513187E599E00E9451318CE999E02E
S11323900E94513186E999E0DF91CF910C9451313B
S11323A0CF92DF92EF92FF920F931F93CF93DF931D
S11323B000D000D000D0CDB7DEB72FEF81EE94E08F
S11323C0215080409040E1F700C000003C9A8FE12A
S11323D09EE40197F1F700C000000E9492016DEEA7
S11323E076E08CEF9AE00E94222F3E9A3F9A0F9A51
S11323F08FE39CE90197F1F700C00000479A8FE34F
S11324009CE90197F1F700C00000179A0E940702A7
S113241020E044E064E184E799E00E94722884E7C4
S113242099E00E944F269FEF24E38CE091502040D6
S11324308040E1F700C0000084E799E00E9457263D
S11324409FEF24E38CE0915020408040E1F700C0EE
S1132450000084E799E00E944F269FEF24E38CE07C
S1132460915020408040E1F700C0000084E799E0EB
S11324700E9457269FEF24E38CE091502040804037
S1132480E1F700C000004DE551E061E084E799E028
S11324900E9435279FEF29EF80E091502040804033
S11324A0E1F700C0000084E799E00E944F2607EF9F
S11324B018E064E871E0C8010E9437320A5F1F4FD8
S11324C099E00F301907A9F70E9407028DE599E0FA
S11324D0DED12FEF80E792E0215080409040E1F779
S11324E000C000008DE599E072D36B017C01672B7D
S11324F0682B692B69F562E077E08CEF9AE00E9423
S1132500F72E84E799E00E944F262FEF84E39CE0A6
S1132510215080409040E1F700C0000084E799E03A
S11325200E9467266BE177E084E799E00E94F72E2A
S11325302FEF87EA91E6215080409040E1F700C0F8
S1132540000065E377E087E599E00E94373206C032
S113255068E477E08CEF9AE00E94222F6DE577E043
S11325608CEF9AE00E94F72E4F2D55276627772788
S113257020E130E08CEF9AE00E948B2F6CE677E04C
S11325808CEF9AE00E94F72E4E2D50E060E070E050
S11325902AE030E08CEF9AE00E94792F6EE28CEF13
S11325A09AE00E94F82E4D2D50E060E070E02AE0A1
S11325B030E08CEF9AE00E948B2F6FEF8DE599E06D
S11325C07CD38DE599E04BD30E94070240EA56E89C
S11325D061E070E089EB98E08CD6811110C062EE66
S11325E071E08CEF9AE00E94022F2FEF83ED90E3CD
S11325F0215080409040E1F700C00000E7CF2FEF6A
S113260080E792E0215080409040E1F700C0000054
S113261064EC71E08CEF9AE00E94022F89EB98E061
S1132620C6D70E9407026BE777E08CEF9AE00E941E
S1132630222F86EA9AE00E94D52B68E270E086EAAF
S11326409AE00E94F22B60E086EA9AE00E94972BBF
S113265062E386EA9AE00E94972B86EA9AE00E9457
S1132660692C2FEF80E792E0215080409040E1F701
S113267000C0000062E570E086EA9AE00E94F22B56
S113268060E086EA9AE00E94972B62E386EA9AE089
S11326900E94972B86EA9AE00E94692C86EA9AE0C7
S11326A00E94E42B6FEA77E08CEF9AE00E94222FDD
S11326B00E94070260E28EE998E03DD02CE340E0FE
S11326C063EC8EE998E03DD08EEF9FEF90934E0936
S11326D080934D0960EC77E087E599E00E943732FA
S11326E06EEC77E0CE0101960E94B83167E579E09F
S11326F0CE0101960E943933BC018CEF9AE00E940E
S1132700122FCE0101960E9451310E940702269693
S11327100FB6F894DEBF0FBECDBFDF91CF911F91EE
S11327200F91FF90EF90DF90CF900895FC011082FD
S1132730118212820895FC01608386EA9AE00C9467
S1132740D52BFF920F931F93CF93DF93EC01F62EBB
S1132750042F122F688186EA9AE00E94E82B61E038
S113276086EA9AE00E94972B6F2D86EA9AE00E94EF
S1132770972B86EA9AE00E94692C688186EA9AE09F
S11327800E94E82B62E086EA9AE00E94972B602F71
S113279086EA9AE00E94972B86EA9AE00E94692CC6
S11327A08FE39CE90197F1F700C00000688186EA95
S11327B09AE00E94E82B63E086EA9AE00E94972B55
S11327C0612F86EA9AE00E94972B86EA9AE00E949B
S11327D0692C8FE39CE90197F1F700C00000DF91B9
S11327E0CF911F910F91FF900895CF93C62FFC01B5
S11327F0608186EA9AE00E94E82B63E086EA9AE028
S11328000E94972B6C2F86EA9AE00E94972B86EA07
S11328109AE0CF910C94692CCF93DF93EC016881FB
S113282086EA9AE00E94E82B60E086EA9AE00E9439
S1132830972B86EA9AE00E94692C688170E041E057
S113284050E086EA9AE00E94672CC0E086EA9AE0AB
S11328500E94092B892B31F086EA9AE00E94112B01
S1132860C82FF4CF8C2FDF91CF910895CF93DF93AE
S1132870EC01862F6C834D831D8A1E8A60E00E94C2
S1132880BE3061E08D81DF91CF910C94BE30CF9347
S1132890DF93EC0186EA9AE00E94D52B61E08D81FA
S11328A00E94FA3060E08D810E94FA302FEF87E8B1
S11328B093E1215080409040E1F700C0000061E0C6
S11328C08D810E94FA308FE39CE90197F1F700C0F3
S11328D00000DF91CF9108954F925F926F927F92A3
S11328E08F929F92AF92BF92EF92FF920F931F939A
S11328F0CF93DF93CDB7DEB72C970FB6F894DEBF36
S11329000FBECDBF7C015A012801390164E871E092
S11329100E94B8318501812C912C540184149504B2
S1132920A604B70409F446C0F80161918F0140E19F
S1132930CE016031F0F401960E946332B701CE01FA
S113294007960E94243263E374E0CE0107960E9446
S11329504A33BE016F5F7F4F0E943933BC01C70108
S11329600E940F32CE0107960E945131CE0101968A
S113297019C007960E946332B701CE0101960E94E6
S11329802432BE01695F7F4FCE0101960E94393324
S1132990BC01C7010E940F32CE0101960E94513141
S11329A0CE0107960E945131FFEF8F1A9F0AAF0A9A
S11329B0BF0AB4CF8CEF9AE00E94FF2EC7012C9679
S11329C00FB6F894DEBF0FBECDBFDF91CF911F913C
S11329D00F91FF90EF90BF90AF909F908F907F905A
S11329E06F905F904F900895FC0184810E9428317C
S11329F091E0811190E0892F0895CF92DF92EF92B8
S1132A00FF921F93CF93DF936C017B01C0E0D0E072
S1132A10C601EADF182F811115C0E114F10459F041
S1132A202A96EC16FD0638F46DEE77E08CEF9AE00A
S1132A300E94222F07C08FE39CE90197F1F700C0A1
S1132A400000E6CF812FDF91CF911F91FF90EF908F
S1132A50DF90CF900895FF920F931F93CF93DF934E
S1132A60F62E072F142F8FE39FE10197F1F700C093
S1132A70000042E0410F64E286EA9AE00E94652C7D
S1132A8086EA9AE00E94112BCF2DD02FCE01810F20
S1132A90911D8C01C017D10761F08FE99FE0019768
S1132AA0F1F700C0000086EA9AE00E94112B899396
S1132AB0F1CFDF91CF911F910F91FF900895CF93A4
S1132AC0DF9300D000D000D0CDB7DEB746E0BE0122
S1132AD06F5F7F4FC0DF46E050E06BE671E0CE01F0
S1132AE001960E94B33721E0892B09F020E0822F60
S1132AF026960FB6F894DEBF0FBECDBFDF91CF91FF
S1132B000895682F86EA9AE00C94972BCF92DF926F
S1132B10EF92FF920F931F93CF93DF937B01C1E05A
S1132B20C40F8FE39FE10197F1F700C0000064E256
S1132B3070E086EA9AE00E94F22B80E0E2DF80E017
S1132B40E0DF8FEFDEDF8C2FDCDF8C2F8195D9DF88
S1132B5084EDD7DFC12C83EDD82ED0E021970C2D46
S1132B6010E00C171D0754F40E0D1F1DF801808191
S1132B70C8DFF8018081D80EC394F1CF8D2D8095E4
S1132B80C0DF80E0BEDF86EA9AE0DF91CF911F913B
S1132B900F91FF90EF90DF90CF900C94692C0F93DE
S1132BA01F93CF93DF93EC018901B0DFB801CE010D
S1132BB024DF882331F0CE01DF91CF911F910F9153
S1132BC07ECF80E0DF91CF911F910F910895CF9335
S1132BD0DF93EC0182E08093AD0928EE33E041E01D
S1132BE06DEA79E0CE01DBDF811104C060E070E0C2
S1132BF0CB0132C04CE06DEA79E0CE012CDF46E037
S1132C0050E065E671E08DEA99E00E94B337892BC4
S1132C1069F78D89811103C0E7E0F0E002C0E6E0C6
S1132C20F0E0E355F64F6081862F90E0A0E0B0E03D
S1132C30BA2FA92F982F88272181822BBA2FA92F49
S1132C40982F88272281822BBA2FA92F982F882783
S1132C502381BC01CD01622BDF91CF910895CF93E5
S1132C60DF93EC0194E19093AD0981E08093AE0988
S1132C709093AF098093B00928EE33E044E06DEA05
S1132C8079E0CE018CDF8823A9F048E06DEA79E091
S1132C90CE01E1DE8D89811103C086E090E002C09F
S1132CA085E090E0FC01E355F64F81E09081953199
S1132CB009F080E0DF91CF910895EDEAF9E022E395
S1132CC0208325E021832FEF228321E02383648363
S1132CD028EE33E045E0BF0162CFAF92BF92CF92BE
S1132CE0DF92EF92FF920F931F93CF93DF93EC0148
S1132CF07A01590168018AE48093AD0981E08093E7
S1132D00AE096093AF09980143E06DEA79E0CE0122
S1132D1046DF182F882341F18D89882379F044E117
S1132D206DEA79E0CE0197DE8091B4098130E1F457
S1132D308091B909F501808380E006C0B601CE0117
S1132D405CDE8111ECCF10C09091B909891768F449
S1132D50282F30E0F901E355F64F9585F701E20F8E
S1132D60F31F90838F5FF0CF10E0812FDF91CF911D
S1132D701F910F91FF90EF90DF90CF90BF90AF9095
S1132D800895AF92BF92CF92DF92EF920F931F9369
S1132D90CF93DF93EC01142F5C018EE0A80EB11CDD
S1132DA086E0F601D50101900D928A95E1F750E095
S1132DB0CE0106960E949A371D8780E48093AD0960
S1132DC081E08093AE09E11002C080E601C081E693
S1132DD08093AF090093B00986E0F501A1EBB9E057
S1132DE001900D928A95E1F780E04D85841760F497
S1132DF0282F30E0FE01E20FF31F9681F901E3551D
S1132E00F64F92878F5FF1CF465F28EE33E06DEA8D
S1132E1079E0CE01C4DE882349F04CE06DEA79E024
S1132E20CE0119DE81E09091B409911180E0DF9127
S1132E30CF911F910F91EF90DF90CF90BF90AF9003
S1132E4008950F931F93CF93DF93EC018A0180E4DD
S1132E508093AD0981E08093AE0980E38093AF094C
S1132E606093B00928EE33E044E06DEA79E0CE01E6
S1132E7096DE811102C080E012C04AE16DEA79E079
S1132E80CE01E9DD8091B4098111F5CF80E1E5EB54
S1132E90F9E0D80101900D928A95E1F781E0DF9184
S1132EA0CF911F910F910895CF93DF93EC0180E4AC
S1132EB08093AD0981E08093AE0980EA8093AF09E5
S1132EC06093B00980E1FA01A1EBB9E001900D92A1
S1132ED08A95E1F728EE33E044E16DEA79E0CE012A
S1132EE05EDE882369F08FE39CE90197F1F700C067
S1132EF000004AE16DEA79E0CE01ADDD81E001C078
S1132F0080E0DF91CF910895803D27E0920710F093
S1132F10805D974050E0E6E2F2E021E0261730F4CD
S1132F203491430F511D2F5F3196F8CF633038F041
S1132F309C0123703327232B11F44F5F5F4FBC0197
S1132F406D5F7F4F7695679576956795EDE6F1E031
S1132F508E9F90018F9F300D9E9F300D1124C901CB
S1132F600197860F971F840F951F0895FC01908188
S1132F7090539A3008F090E0818180532AE0929F28
S1132F80800D112408958F929F92AF92BF92CF9299
S1132F90DF92EF92FF92CF93DF93EC016A017B0102
S1132FA080E8C81A83E4D80A8DE6E80A88E3F80AB8
S1132FB08CE3882E912CA12CB12CC701B601A5015C
S1132FC094010E9421356D83CA01B901A5019401C0
S1132FD00E9421356C83C701B60120E13EE040E048
S1132FE050E00E942135CA01B90128E130E040E0F7
S1132FF050E00E9421356B83C701B60120E831E51A
S113300041E050E00E94213518828881982F937006
S113301041E050E011F040E050E0BA0163597E4FC6
S11330202617370738F0241B350B2D5631408F5F98
S11330308883EBCF81E089838981E82FF0E0EB5D21
S1133040FD4FE491911103C0823009F4EF5FF0E089
S11330502E173F0720F02E1B3F0B8F5FECCF2F5F07
S11330602A83DF91CF91FF90EF90DF90CF90BF90B4
S1133070AF909F908F900895EF92FF920F931F93BC
S1133080CF93DF93CDB7DEB72B970FB6F894DEBF9F
S11330900FBECDBF8C017A014BE050E0CE0101960A
S11330A00E949137CE010A9661DFF8018083E9819D
S11330B08E2F90E0FC01E154F109E331F10548F56C
S11330C0EE5AFF4F0C9443358A81813629F08B8167
S11330D08E3621F087E01BC081E019C086E017C05E
S11330E082E015C08B81823711F088E010C084E043
S11330F00EC08B81823711F085E009C083E007C0E0
S113310089E005C08AE003C08BE001C08CE0F801CF
S11331108183CE0105962ADFF801828348E050E0DE
S1133120B701CE0101960E949137CE0101961EDFB0
S1133130F8018383CE01049619DFF8018483CE015C
S1133140079614DFF80185832B960FB6F894DEBF3B
S11331500FBECDBFDF91CF911F910F91FF90EF90E4
S11331600895FC0180814281618190E0CDDE069664
S113317067E070E00C940D350895EF92FF920F9381
S11331801F93CF93DF93EC0188814A81698190E09A
S1133190BBDE9C01A8E1B0E00E944C352B817B0191
S11331A08C01E20EF11C011D111DA8019701ACE375
S11331B0B0E00E945B352C817B018C01E20EF11C96
S11331C0011D111DA80197010E945B352D81DC01B1
S11331D0CB01820F911DA11DB11DBC01CD01605811
S11331E07C4B8249974CDF91CF911F910F91FF90B7
S11331F0EF900895EF92FF920F931F93CF93DF9375
S1133200EC0188814A81698190E07EDE9C01A8E11D
S1133210B0E00E944C352B817B018C01E20EF11C45
S1133220011D111DA8019701ACE3B0E00E945B35BC
S11332302C817B018C01E20EF11C011D111DA801E2
S113324097010E945B352D81620F711D811D911DB7
S1133250DF91CF911F910F91FF90EF900895FC01A2
S113326010821182128213821482089508950F939A
S11332701F93CF93DF93EC01062F142F68E686EAA1
S11332809AE00E94E82B602F86EA9AE00E94972B2E
S1133290612F86EA9AE00E94972B86EA9AE00E94C0
S11332A0692C8883DF91CF911F910F9108951F930B
S11332B0CF93DF93EC01162F68E686EA9AE00E942A
S11332C0E82B612F86EA9AE00E94972B86EA9AE01F
S11332D00E94692C888341E068E686EA9AE00E94AD
S11332E0652C86EA9AE00E94112BDF91CF911F9101
S11332F00895CF92DF92EF92FF92CF93DF93EC0188
S11333006A017B0186EA9AE00E94D52BB701A601E7
S113331086EA9AE00E94E52B68E686EA9AE00E9433
S1133320E82B86EA9AE00E94692C81110AC062E0C7
S1133330CE01BDDF482F4F7B62E0CE0198DF81E0F4
S113334001C080E0DF91CF91FF90EF90DF90CF90AC
S113335008950F931F93CF93DF938C01EB0168E6DD
S113336086EA9AE00E94E82B60E086EA9AE00E94EE
S1133370972B86EA9AE00E94692C888347E068E6E6
S113338086EA9AE00E94652C86EA9AE00E94092B5C
S1133390079709F064C086EA9AE00E94112B982FDF
S11333A09695969596959E70292F220F220F920F2F
S11333B08F70890F8D8386EA9AE00E94112B982FD3
S11333C09695969596959E70292F220F220F920F0F
S11333D08F70890F8E8386EA9AE00E94112B982FB2
S11333E09695969596959E70292F220F220F920FEF
S11333F08F70890F8F8386EA9AE00E94112B86EAE8
S11334009AE00E94112B982F969596959695967012
S1133410292F220F220F920F8F70890F888786EA37
S11334209AE00E94112B84FB992790F9990F292F78
S1133430220F220F920F8F70890F898786EA9AE0F4
S11334400E94112B982F92959F708F702AE0929F63
S1133450800D112490E08053984F9B878A872D819B
S11334603E814F81588569858A859B85803D77E0BB
S1133470970710F0805D9740F80180836183528341
S1133480438334832583C801DF91CF911F910F912A
S11334900895DF92EF92FF920F931F93CF93DF93E0
S11334A000D000D000D0CDB7DEB78C017B01FB018A
S11334B085819AE0D92E6D2D0E940135492FF0E1C6
S11334C08F9F400D112460E0C801D1DEF701848193
S11334D06D2D0E940135492FF0E18F9F400D11247D
S11334E061E0C801C4DEF70183816D2D0E940135BE
S11334F0492FF0E18F9F400D112462E0C801B7DE2F
S1133500C7012FDE482F63E0C801B1DEF7018281D5
S11335106D2D0E940135492FF0E18F9F400D11243C
S113352064E0C801A4DEF70181816D2D0E9401359C
S1133530492FF0E18F9F400D112465E0C80197DE0B
S1133540F70180816D2D0E940135492FF0E18F9F95
S1133550400D112466E0C8018ADE6FE0C801A7DED1
S1133560482F4F776FE0C80182DE6EE0C8019FDE0E
S1133570482F4F776EE0C8017ADEB801CE0101967C
S1133580E8DECE010196F9DDF8016183728383835D
S1133590948326960FB6F894DEBF0FBECDBFDF919D
S11335A0CF911F910F91FF90EF90DF9008950F93AB
S11335B01F93CF93DF9300D000D000D0CDB7DEB7F8
S11335C08C014DE152E061E172E0CE01019654DDDF
S11335D0BE016F5F7F4FC8015CDF26960FB6F8947B
S11335E0DEBF0FBECDBFDF91CF911F910F91089524
S11335F00F9300E020E040E060E08DEE99E00E944F
S1133600642E0F910895FB01428153816481758179
S1133610FC01428353836483758317821682089561
S1133620CF93DF93DA01FB01EB0189918111FDCF87
S113363080E090E020E030E04AE051915523E9F049
S11336402430310544F55E3269F48F3F910509F069
S113365014F5ED01C20FD31F8A832F5F3F4F80E023
S113366090E0EBCF489FB001499F700D1124852F46
S113367090E0C097860F971FE0CF8F3F910509F028
S113368054F4243031053CF4FD01E20FF31F82832E
S113369081E090E002C080E090E0DF91CF91089556
S11336A00F9300E020E040E060E083EF99E00E94A7
S11336B0642E0F9108958F929F92AF92BF92CF92F2
S11336C0DF92EF92FF920F931F93CF93DF9300D07B
S11336D01F92CDB7DEB76C017B010E94E52FF60186
S11336E0778366838601085F1F4FB6016A5F7F4F49
S11336F042E050E0C80130D581E090E09A838983AC
S113370042E050E0BE016F5F7F4FC80125D580E0E5
S113371091E09A83898342E050E0BE016F5F7F4F5E
S1133720C8011AD51A82198242E050E0BE016F5FC7
S11337307F4FC80111D542E050E0BE016F5F7F4F5B
S1133740C8010AD542E050E0BE016F5F7F4FC80157
S113375003D55701F50180818823F9F0A7015A01A7
S1133760F50181916F01882321F08E3211F0A601B9
S1133770F6CF4A018E189F081814190464F48B823A
S113378041E050E0BE016D5F7F4FC801E5D4A40164
S1133790B701C801E1D47601DDCF1B8241E050E0DE
S11337A0BE016D5F7F4FC801D7D4E12CFF24F39491
S11337B0FA82E98242E050E0BE016F5F7F4FC801A8
S11337C0CBD4FA82E98242E050E0BE016F5F7F4FC2
S11337D0C801C2D481E090E00F900F900F90DF9168
S11337E0CF911F910F91FF90EF90DF90CF90BF90FA
S11337F0AF909F908F9008952F923F924F925F9237
S11338006F927F928F929F92AF92BF92CF92DF92EC
S1133810EF92FF920F931F93CF93DF93CDB7DEB751
S113382063970FB6F894DEBF0FBECDBF7C016B016A
S11338301A010E94E52F4B015C018701085F1F4FAD
S11338402601612C712CC80129D518161906A4F07B
S11338500E94E52FDC01CB0188199909AA09BB094B
S1133860481659066A067B06D0F062E370E080E0F1
S113387090E00E941630E7CFF701428153816481C2
S11338807581818D928DA38DB48D481759076A0770
S11338907B0749F4858D968DC59729F409C0EE24DC
S11338A0EA94FE2CF0C09EEFE92EFF24FA94EBC0BC
S11338B0C80108D40C970CF4E2C04CE050E0BE01FF
S11338C06F5F7F4FC80183D48B819C8198278927A0
S11338D098279A8B898BF7014681578129813A81F0
S11338E04217530711F497FD07C0C80105D47CEFB4
S11338F0E72EFF24FA94C7C08F709270892B39F099
S1133900C801FAD36BEFE62EFF24FA94BCC0CF8033
S1133910D884DC24CD24DC24C114D10419F0E12C96
S1133920F12C1FC0C801E8D35AEFE52EFF24FA9406
S1133930AAC041E050E0BE01635F7F4FC80147D495
S11339408D85811117C08D858111F3CFC80117D4DE
S1133950C80115D4C80113D4C80111D4FFEFEF1A5C
S1133960FF0A8D819E81982789279827E816F906F2
S113397000F309C08D859FEF980F9D87882319F365
S1133980C801FDD3F7CFA12CB12C41E050E0BE011A
S11339906D5E7F4FC8011BD48B89982F907C59F49E
S11339A0882379F08B899FEF980F9B8B882331F0C4
S11339B0C801E5D3F7CFC801E2D31B8A8B898111F3
S11339C0E4CF42E050E0BE01615F7F4FC801FFD306
S11339D042E050E0BE01635F7F4FC801F8D3C801E5
S11339E0CED3C801CCD3C801CAD3C801C8D342E0DE
S11339F050E0BE016F5E7F4FC801E9D38F8598897F
S1133A008115914049F4ED84FE84FE24EF24FE24C4
S1133A1081E0E816F10419F0E12CF12C14C0898935
S1133A209A898115944039F0C80166D347EFE42E92
S1133A30FF24FA9428C0B1016E5F7F4F44E050E048
S1133A40C801C5D320C089899A89982789279827CE
S1133A50E816F90630F4C80192D3FFEFEF1AFF0A13
S1133A60F2CF2FEFA21AB20ACA14DB0409F08DCFE9
S1133A70C80142D336EFE32EFF24FA9404C08DEF3D
S1133A80E82EFF24FA94C70163960FB6F894DEBFBC
S1133A900FBECDBFDF91CF911F910F91FF90EF909B
S1133AA0DF90CF90BF90AF909F908F907F906F905A
S1133AB05F904F903F902F9008958F929F92AF9276
S1133AC0BF92CF92DF92EF92FF920F931F93CF9307
S1133AD0DF9300D000D000D0CDB7DEB77C014B011E
S1133AE05A019EDD8C01892B09F057C0F7014281F0
S1133AF05381648175818091F5099091F609A091B3
S1133B00F709B091F809481759076A077B0709F4C0
S1133B1047C00E94E52F6701F8E0CF0ED11C6F70FB
S1133B2077277C5FC60189D3813009F03BC08EE7DB
S1133B3098E09A838983F70182819381A481B58176
S1133B408B839C83AD83BE8345E350E0BE016F5FEE
S1133B507F4FC601F7D2892B19F400E010E01AC098
S1133B60B401C701A8DD892BC1F3C601F2D2892BA8
S1133B70A1F383E0882E912CA50168E873E1C701C5
S1133B803BDE8C0121E0821A910821F00F3FFFEF08
S1133B901F0791F3C601C2D205C001E010E002C0C4
S1133BA00EEF1FEFC80126960FB6F894DEBF0FBEC6
S1133BB0CDBFDF91CF911F910F91FF90EF90DF90D8
S1133BC0CF90BF90AF909F908F90089524E030E005
S1133BD0AC0164E081E090E035C624E030E0AC0163
S1133BE064E085E090E02EC626E030E0AC0164E0BD
S1133BF089E090E027C624E030E0AC0164E08FE087
S1133C0090E020C68F929F92AF92BF92CF92DF92A4
S1133C10EF92FF920F931F93CF93DF934C015B01BD
S1133C206A01E901FC01648583E39AE053D6C50186
S1133C30DBDFC6010296DFDFC8010296C7DFC701DA
S1133C400296CBDF8A819B81AC81BD81F4018283A2
S1133C509383A483B583DF91CF911F910F91FF903C
S1133C60EF90DF90CF90BF90AF909F908F9008958A
S1133C702EE738E0FC0131832083FB01428153812C
S1133C8064817581FC014283538364837583089541
S1133C900F9300E020E040E060E086E19AE00E94BB
S1133CA0642E89EF99E00E945A2EE9EFF9E0138619
S1133CB012868AE084870F910895DC01ED91FC91CE
S1133CC0028CF38DE02D099591E089270895CF9317
S1133CD0DF931F92CDB7DEB76983DC01ED91FC91D0
S1133CE00280F381E02D41E050E0BE016F5F7F4F21
S1133CF009950F90DF91CF91089521E0FC0184850F
S1133D00883009F420E0822F0895FC019485FB019A
S1133D108485981303C081E0983009F480E0089505
S1133D20CF92DF92EF92FF920F931F93CF93DF9383
S1133D30CDB7DEB7AF970FB6F894DEBF0FBECDBFD9
S1133D408C016B017A01CE0101960E945A2ECE019C
S1133D500996F3D2CE018A960E945A2E69EF79E031
S1133D60CE01849685DFBE016C5D7F4FCE01019646
S1133D704ADCAE01465D5F4FB601CE0101969DDE81
S1133D8081309105C1F4D801ED91FC910684F78549
S1133D90E02D8EE798E09DA38CA38CA59DA5AEA5F0
S1133DA0BFA58EA39FA3A8A7B9A7A701BE016C5D59
S1133DB07F4FC8010995AF960FB6F894DEBF0FBECA
S1133DC0CDBFDF91CF911F910F91FF90EF90DF90C6
S1133DD0CF9008950F931F93CF93DF938C01D42F2B
S1133DE0C52FFC018485883041F481E090E0F8011E
S1133DF09383828380E090E005C0CFD3892BA9F31D
S1133E008D2F9C2FDF91CF911F910F910895FC016D
S1133E106485683019F083E39AE0D0C580E090E0CF
S1133E200895CF93DF931F92CDB7DEB741E050E002
S1133E30BE016F5F7F4FFC018485F7D31816190606
S1133E401CF4898190E002C08FEF9FEF0F90DF9107
S1133E50CF910895FC018485E8C30F931F93CF93FA
S1133E60DF931F92CDB7DEB78C01DC01ED91FC919D
S1133E700084F185E02D0995892B49F0BE016F5F1F
S1133E807F4FF801848512D4898190E002C08FEFBE
S1133E909FEF0F90DF91CF911F910F910895FC0137
S1133EA0848511C4FC011382128288EE93E0A0E0A1
S1133EB0B0E084839583A683B7838AEF97E09183E8
S1133EC0808388E084870895FC016485683039F034
S1133ED06295660F607E685F83E090E0DFC480E0F7
S1133EE00895CF93DF93FC0124852830C9F0EC01B9
S1133EF0EBDF843181F0882371F0883161F08C31FB
S1133F0061F4E881F9810084F185E02DCE01099501
S1133F1021E0892B19F420E001C021E0822F01C0A7
S1133F2080E0DF91CF910895CF92DF92EF92FF92DC
S1133F30CF93DF93EC018C85883069F129D30E94FB
S1133F40E52F6B017C01CE01BFDF8823A1F00E9425
S1133F50E52FDC01CB018C199D09AE09BF09883E10
S1133F609340A105B10538F461E070E080E090E091
S1133F700E941630E8CFCE01A7DF882311F08C858C
S1133F8096D2EC85F0E0EE0FFF1FEA5FF54F118249
S1133F90108288E08C87DF91CF91FF90EF90DF90C3
S1133FA0CF900895CF92DF92FF920F931F93CF93F8
S1133FB0DF93FC0124852830C1F56A018B01EC01F3
S1133FC0F12C6F2D6295660F607E685F83E090E050
S1133FD065D4811102C0FC8607C08B7F8831D9F378
S1133FE0F394F8E0FF12EDCF8C858830F1F0209146
S1133FF07101309172012F5F3F4F11F420E034E0E2
S113400030937201209371014091710150917201BA
S113401020E061E057D2B8016E5F7F4FA6018C8526
S113402084D2811105C088E08C8780E090E00FC0C5
S1134030CE014ADF873149F061E070E080E090E032
S11340400E941630CE0140DFECCF81E090E0DF919A
S1134050CF911F910F91FF90DF90CF9008950F9310
S113406000E020E040E060E08CE19AE00E94642EF1
S11340700F9108950F9300E020E040E060E082E2B9
S11340809AE00E94642E0F91089580E00895DC0167
S1134090ED91FC91048CF58DE02D09942EE738E028
S11340A0FC0131832083FB0141895289638974892E
S11340B0FC0142835383648375830895FC018589DD
S11340C096890895FC01818D928D0895CF93DF9395
S11340D01F92CDB7DEB76983DC01ED91FC910280BC
S11340E0F381E02D41E050E0BE016F5F7F4F099501
S11340F00F90DF91CF910895CF93DF93EC01898DD9
S11341009A8D892B41F0E881F9810284F385E02DB1
S1134110CE010995F4CFDF91CF910895CF93DF932A
S1134120EC018C85883059F0C2D1EC85F0E0EE0FBB
S1134130FF1FEA5FF54F1182108288E08C87DF91C0
S1134140CF910895FC01108E178A6E5F7F4F84858E
S1134150E6C2FC01848506C3CF93DF93EC019A0188
S11341608F89988DAB01BC018C85AED22F89388D97
S1134170280F391F388F2F8BDF91CF9108950F931C
S11341801F93CF93DF931F92CDB7DEB7FC01218D30
S1134190328D232B59F08C0141E050E0BE016F5F5A
S11341A07F4F848542D2181619061CF08FEF9FEFBB
S11341B008C0F801818D928D0197928F818F89813A
S11341C090E00F90DF91CF911F910F910895CF93BD
S11341D0DF93FC01218D328D2115310519F48FEF08
S11341E09FEF10C0EC014217530708F0A9018C851A
S11341F01CD2181619069CF7298D3A8D281B390BE9
S11342003A8F298FDF91CF910895CF93DF931F9237
S1134210CDB7DEB7FC01218D328D232B41F0BE01D9
S11342206F5F7F4F848542D2898190E002C08FEF17
S11342309FEF0F90DF91CF910895EF92FF921F931C
S1134240CF93DF93FC012485283011F080E020C057
S11342507B01EC0110E0612F6295660F607E685F60
S113426083E090E01BD3811102C01C8705C0883114
S1134270E1F31F5F183079F78C85883039F3FE86B7
S1134280ED861A8E198E20E0A70162E01BD181E031
S1134290DF91CF911F91FF90EF9008950F931F939B
S11342A0CF93DF93CDB7DEB728970FB6F894DEBF70
S11342B00FBECDBF8C01DC01ED91FC910680F7812E
S11342C0E02D0995F801648583E39AE077D3892B7F
S11342D039F148E050E0BE016F5F7F4FD8011C9672
S11342E08C91A3D118161906ECF4BE016F5F7F4FB1
S11342F0C8010F960E94702E8D8190E0982F882718
S11343002E81820F911DF801968B858B8F8190E011
S1134310982F88272885820F911D928F818F02C044
S113432080E090E028960FB6F894DEBF0FBECDBFB4
S1134330DF91CF911F910F910895FC011382128296
S113434088EE93E0A0E0B0E084839583A683B783EE
S11343508CE198E09183808388E08487CF010F9675
S11343600C945A2ECF92DF92EF92FF920F931F93E9
S1134370CF93DF93CDB7DEB7AF970FB6F894DEBF18
S11343800FBECDBF8C016B017A01CE0101960E9454
S11343905A2ECE010996D1DFCE018A960E945A2E5A
S11343A069EF79E0CE01849663DCBE016C5D7F4FDA
S11343B0CE01019628D9AE01465D5F4FB601CE010C
S11343C001967BDB81309105C1F4D801ED91FC911C
S11343D00488F589E02D8EE798E09DA38CA38CA535
S11343E09DA5AEA5BFA58EA39FA3A8A7B9A7A70106
S11343F0BE016C5D7F4FC8010995AF960FB6F89466
S1134400DEBF0FBECDBFDF91CF911F910F91FF9003
S1134410EF90DF90CF9008950F9300E020E040E00C
S113442060E088E29AE00E94642E0F910895AB0147
S11344308295880F807E6CE0680F24E030E08CE089
S113444090E000C29B018295880F807E68E0680F2F
S1134450C90124C262E070E0F5CF9B018295880F08
S1134460807E6CE0680FC901CFC1CF93DF93C82F62
S1134470D62F472F64E070E0F0DF4D2F65E070E049
S11344808C2FDF91CF91E9CF462F62E070E0E5CF2A
S1134490CF93DF93C82FD62F472F60E170E0DDDF85
S11344A04D2F61E170E08C2FDF91CF91D6CFCF9368
S11344B0C82F40E1682F83E39AE070D36FEF8C2F0D
S11344C0CF91E2CFFF920F931F93CF93DF939FEF90
S11344D0960F953018F5D22F8A01F62EC82FE7DFF4
S11344E04F2D4D2B60E070E08C2FB7DF01151105C7
S11344F011F0B8010AC060912E0A70912F0A6F5F03
S11345007F4F70932F0A60932E0A8C2FAEDF41E009
S11345106C2F83E39AE042D381E001C080E0DF9115
S1134520CF911F910F91FF9008950F931F93CF93F5
S1134530FB0190819F3F51F491819F3F91F49281BF
S11345409F3F79F493819F3F61F41CC0911109C08E
S11345509181911106C09281911103C09381992395
S113456091F04115510571F08A01BF01C82F5FDF39
S1134570B8018C2F8DDF44E06C2F83E39AE00ED3D7
S113458091E001C090E0892FCF911F910F91089580
S113459048E0682F83E39AE001C3CF92DF92EF9261
S11345A0FF920F931F93CF93C82F7B018A01413051
S11345B0584010F000E018E06C2F83E39AE0CDD16E
S11345C06C0163E070E08C2F3DDF873111F08C319A
S11345D021F4C016D10680F302C000E010E0980177
S11345E0A7016C2F83E39AE03DD240E26C2F83E372
S11345F09AE0D4D28C2F2EDF84FD0BC063E070E0F0
S11346008C2F20DF8111F6CF8C2F51DF80E090E0DA
S113461004C060E18C2F38DFC801CF911F910F9146
S1134620FF90EF90DF90CF900895CF92DF92EF92BA
S1134630FF920F931F93CF93DF93182F6B017A018F
S1134640682F83E39AE0BAD1EC01009791F463E018
S113465070E0812FF7DE8431F9F08823E9F0C1E0BE
S1134660D0E08C3111F4C0E0D0E0D195C195D109EE
S113467013C0E816F9060CF4E7011C161D0664F4D1
S113468000E09E01A601612F83E39AE03AD240E460
S1134690612F83E39AE082D2CE01DF91CF911F9103
S11346A00F91FF90EF90DF90CF9008950F93AB019F
S11346B001E021E030E0682F83E39AE022D281E038
S11346C090E00F9108950895AF92BF92CF92DF9238
S11346D0FF920F931F93CF93DF93F82E6B015A0130
S11346E0E901682F83E39AE038D18C179D0728F4F9
S11346F06F2D83E39AE031D1EC018E019501A6017F
S11347006F2D83E39AE074D1CE01DF91CF911F9195
S11347100F91FF90DF90CF90BF90AF9008950F93CB
S11347201F93CF93FB019081911109C09181911145
S113473006C09281911103C09381992369F04115B8
S1134740510551F08A01BF01C82F71DEB8018C2FC9
S11347509FDE81E090E002C080E090E0CF911F9165
S11347600F910895CF93C82F40E2682F83E39AE016
S113477015D28C2F6FDE84FD0AC08C2F6BDE83FF75
S1134780F8CF68E18C2F80DE80E090E005C060E126
S11347908C2F7ADE81E090E0CF9108952091360A43
S11347A0222399F04FB7F8942091360A213059F416
S11347B02DB32093340A3DB32091350A2095232349
S11347C02DBB4FBF02C04093340A8CBD9DBD0895DC
S11347D08EBD00000DB407FEFDCF8EB50895809107
S11347E0360A882361F09FB7F8942091360A8091A5
S11347F0340A213019F48DBB9FBF08958FBF0895EB
S113480044980895449A08950F931F93CF93DF9388
S1134810182F092FD62FC42F8091310A9091320A74
S1134820BDDFEEDF802FD4DF812FD2DF8D2FD0DFED
S11348308C2FCEDFE7DFD3DF81E0DF91CF911F91B3
S11348400F910895DF92EF92FF920F931F93CF93EE
S1134850DF93D82FD92EC62F7A0189018091310A8E
S11348609091320A9BDFCCDF8D2DB2DF8D2FB0DF2C
S11348708C2FAEDFE701E00EF11ECE15DF0519F037
S11348808991A6DFFACFBEDFAADFC801DF91CF91FD
S11348901F910F91FF90EF90DF9008951F93CF9396
S11348A0DF93D82F192FC62F8091310A9091320AA5
S11348B075DFA6DF812F8CDF8D2F8ADF8C2F88DFB9
S11348C080E086DFC82F9EDF8ADF8C2FDF91CF91B7
S11348D01F910895CF93DF936093300A68EE73E0DD
S11348E080E090E00E9416303C9A10D460E080E0B2
S11348F090E0D4DF482F406864E080E090E084DFFB
S1134900C0E0DC2FD295DD0FD07ED45F42E06D2F66
S11349108EE190E079DF42E06D2F8FE190E074DF6B
S1134920CF5FC83071F7DF91CF9108951F93CF9374
S1134930DF93182F60E270E085DDC82FD0E0DC2F14
S1134940CC2761E270E0812F7DDD9E01280F311DAF
S1134950C901DF91CF911F910895FF920F931F9387
S1134960CF93DF93F62EC0E0D0E08F2DDFDF8C01F4
S1134970892B19F08F2DDADFEC01C017D107A9F7C5
S1134980CE01DF91CF911F910F91FF9008951F9356
S1134990CF93DF93182F66E270E054DDC82FD0E088
S11349A0DC2FCC2767E270E0812F4CDD9E01280FBD
S11349B0311DC901DF91CF911F910895FF920F938B
S11349C01F93CF93DF93F62EC0E0D0E08F2DDFDF6F
S11349D08C01892B19F08F2DDADFEC01C017D10778
S11349E0A9F7CE01DF91CF911F910F91FF90089508
S11349F0AF92BF92DF92EF92FF920F931F93CF93E8
S1134A00DF93D62E7A01590164E270E08D2D1ADD10
S1134A10C82F65E270E08D2D15DDD0E0DC2FCC27AA
S1134A20E80EF11CCE0DDF1D6D2D6295660F607EC4
S1134A306C5E9801A501CE0105DFC00FD11F4D2F7B
S1134A4064E270E08D2D09DD4C2F65E270E08D2D60
S1134A50DF91CF911F910F91FF90EF90DF90BF9066
S1134A60AF90FBCC0F931F9389019A0140E050E073
S1134A70BFDF1F910F910895DF92EF92FF920F9382
S1134A801F93CF93DF93D82FD92EC62F7A01890194
S1134A908091310A9091320A81DEB2DE8D2D98DE4A
S1134AA08D2F96DE8C2F94DEE701E00EF11ECE15DD
S1134AB0DF0521F080E08CDE8993F9CFA3DE8FDE61
S1134AC0C801DF91CF911F910F91FF90EF90DF907C
S1134AD008950F931F93CF93DF9300D0CDB7DEB724
S1134AE05A834983A901980189819A816295660F45
S1134AF0607E685E0F900F90DF91CF911F910F91B0
S1134B00BBCF8F929F92AF92BF92CF92DF92EF92E0
S1134B10FF920F931F93CF93DF936C01962E5A014C
S1134B207901802E68E270E0892D8CDC082F69E21F
S1134B3070E0892D87DC10E0102F0027E801C80FF2
S1134B40D11D87019501AE01692DC601C2DF811017
S1134B5018C00C0F1D1F412F68E270E0892D7DDC09
S1134B60402F69E270E0892DDF91CF911F910F9161
S1134B70FF90EF90DF90CF90BF90AF909F908F9079
S1134B806CCCDF91CF911F910F91FF90EF90DF904C
S1134B90CF90BF90AF909F908F900895CF93C62FE2
S1134BA061E070E08C2F59DC61E070E08C2F4ADC0E
S1134BB08111FACFCF910895E1E3FAE080E5808393
S1134BC081E081830895FC0112828FEF818310823A
S1134BD013820895FC018381882331F0611103C09D
S1134BE08FEF818308951182089586EA9AE0F0D5C3
S1134BF086EA9AE06ED691E0811190E0892F0895BB
S1134C00CF93DF93EC016A8386EA9AE0CED56A817A
S1134C10CE01EBDF8B83882321F086EA9AE001D56D
S1134C2088838B8190E0DF91CF910895CF93DF93B8
S1134C30FC012381222399F0EC0181818095682372
S1134C406083628186EA9AE0C3D5688186EA9AE045
S1134C506ED586EA9AE03DD6282F30E002C020E0E7
S1134C6030E081E090E0232B11F080E090E0DF91D0
S1134C70CF91089508950895DC01ED91FC91068487
S1134C80F785E02D41E0099581E090E00895FC016D
S1134C901382128224E438E0318320830895DC01F6
S1134CA0ED91FC910484F585E02D6FEF0994DC010E
S1134CB0ED91FC910484F585E02D60E00994DC011C
S1134CC0ED91FC910684F785E02D40E0099461E0C4
S1134CD0F6DF80ED97E00C944F30CF93DF93CDB7A0
S1134CE0DEB728970FB6F894DEBF0FBECDBFFC0128
S1134CF08091790190917A01A0917B01B0917C011E
S1134D008D839E83AF83B88780917D0190917E01CE
S1134D10A0917F01B091800189839A83AB83BC8386
S1134D208781481710F04FEF480F908550E0DE015F
S1134D30A40FB51F903129F4843019F411969C9175
S1134D4002C015969C91690F6068CF0128960FB632
S1134D50F894DEBF0FBECDBFDF91CF91B0CFFC0181
S1134D6065816B7F65836860AACFFC016581262F0E
S1134D70246025836C60A3CFCF93DF93EC01423092
S1134D8018F08C8188608C834F836887222329F0F4
S1134D90413019F48C8184608C8364E670E080E097
S1134DA090E00E9416306C8164FD31C0E881F98185
S1134DB00684F785E02D42E063E0CE01099584E99D
S1134DC091E10E944F30E881F9810684F785E02D56
S1134DD042E063E0CE01099586E990E00E944F30FD
S1134DE0E881F9810684F785E02D42E063E0CE0195
S1134DF0099586E990E00E944F30E881F9810684A4
S1134E00F785E02D42E062E0CE01099513C06062AF
S1134E10CE0155DF84E991E10E944F306C816062DC
S1134E20CE014DDF86E990E00E944F306C816062D4
S1134E30CE0145DF86E990E00E944F306C816062CC
S1134E40CE013DDF8CE390E00E944F3084E08D83FF
S1134E50CE018BDFCE013BDF82E08E8366E0CE01A4
S1134E602EDFCE01DF91CF911ACFEF92FF920F93F5
S1134E701F93CF93DF938C017A01677088E0689F5A
S1134E80B00111246064C8011ADF8EE190E00E9431
S1134E904F30E701A8E0EA0EF11C6991D801ED91C9
S1134EA0FC910190F081E02DC801099588E290E021
S1134EB00E944F30CE15DF0581F7DF91CF911F910E
S1134EC00F91FF90EF90089521E001C0220F6A95A1
S1134ED0EAF7DC011B962C931B9719964C931997B0
S1134EE0ED91FC910484F585E02D60E00994FC01CA
S1134EF08385882389F09185911103C0611105C0D0
S1134F0006C0913021F4611102C0848701C0148667
S1134F106485CF010D968ACE08950F931F93CF9386
S1134F20DF938C01EC012D96FC016285CE0168DED5
S1134F30019759F461E0CE014DDEF801148260E07E
S1134F40CE0174DE81E090E002C080E090E0DF9169
S1134F50CF911F910F9108958F92AF92CF92EF92BC
S1134F600F93CF93DF93CDB7DEB7FC01628713862F
S1134F701486118681E0982F01C0990F4A95EAF7AB
S1134F80918B982F01C0990F2A95EAF7928B982F4D
S1134F9001C0990F0A95EAF7938B982F01C0990FD6
S1134FA0EA94EAF7948B982F01C0990FCA94EAF710
S1134FB0958B982F01C0990FAA94EAF7968B01C09C
S1134FC0880F8A94EAF7878BDF91CF910F91EF9046
S1134FD0CF90AF908F9008956F927F928F929F920F
S1134FE0AF92BF92CF92DF92EF92FF920F931F93F3
S1134FF0CF93DF93CDB7DEB73C01D62EB42E922EDD
S11350001989FA8844DE88E598E0F3019183808366
S1135010C3010D96D8DD292D4B2D6D2DC3019CDFC9
S11350204F2D612FC301DF91CF911F910F91FF90FD
S1135030EF90DF90CF90BF90AF909F908F907F9034
S11350406F9042CFEF92FF920F931F93CF938C01F7
S1135050C62F7C018DE0E80EF11CF80161896C2BF0
S1135060C701E4DDF801618960956C23C701CF9124
S11350701F910F91FF90EF90D9CDFC01962FDF0186
S113508084E060E090FF04C054962C915497622B06
S11350909695815011968111F5CF413009F44389D9
S11350A09485692B642BCF01CDCF0F931F93CF939E
S11350B0DF93062F0F70423019F440E0602F0DC0CB
S11350C0142FEC0170E084E0759567958A95E1F7FB
S11350D0CE01D3DF412F602FCE01DF91CF911F91FD
S11350E00F91CBCFFF920F931F93CF93DF93EC01DC
S11350F0162F042FF22E11DF2F2D402F612FCE01FA
S1135100DF91CF911F910F91FF9036CECF93CFB700
S1135110F8948091370A811127C0ECE7F2E084917A
S1135120ECE5F2E09491E82FF0E0EE0FFF1FEA5572
S1135130FD4FA591B491EC91E92321F461E08AE05B
S11351400E94FA3061E08AE00E94BE308CB5806132
S11351508CBD8CB580648CBD61E08DE00E94BE3056
S113516061E08BE00E94BE308091370A8F5F8093AC
S1135170370ACFBFCF9108951092A50A81E080939A
S1135180A30A1092A20A61E08DE10E94FA3061E064
S11351908CE10E94FA30E9EBF0E080818E7F80831D
S11351A080818D7F808388E48093B80085E4809338
S11351B0BC000895ECEBF0E080818A7B808360E0A2
S11351C08DE10E94FA3060E08CE10C94FA309B018E
S11351D0AC0160E074E284EF90E00E942135DA01D2
S11351E0C9014097A109B109B695A79597958795E7
S11351F08093B8000895413208F043C09091A50A05
S11352009111FCCF91E09093A50A2093A30A2FEF6C
S11352102093380A10927D0A240F20937C0A9093DD
S1135220A40A9091A40A880F892B8093A40A8091E0
S1135230A20A813061F41092A20A8091A40A809398
S1135240BB008091BC0083FDF8CF85EC01C085EEE6
S11352508093BC008091A50A8130E1F380917D0A9E
S1135260841710F440917D0AAEE7BAE0962FFB0153
S11352708E2F891B841718F48D918193F9CF842F75
S1135280089580E008950F93413208F04AC0909148
S1135290A50A9111FCCF32E03093A50A0093A30A2A
S11352A03FEF3093380A10927D0A40937C0A562FC0
S11352B0AEE7BAE0FB013E2F351B341718F43191E9
S11352C03D93F9CF1092A40A3091A40A880F832B3E
S11352D08093A40A8091A20A813061F41092A20AF8
S11352E08091A40A8093BB008091BC0083FDF8CF19
S11352F085EC01C085EE8093BC00222321F08091CF
S1135300A50A8230D1F38091380A8F3F79F08091D9
S1135310380A803241F08091380A803331F094E0C9
S113532005C091E003C092E001C093E0892F0F9182
S1135330089540915A0A262F30E0240F311D21325E
S11353403105DCF42091A50A2430C9F4FC0180E085
S113535090E0861758F430915A0A2191DC01A45A3E
S1135360B54FA30FB11D2C930196F3CF80915A0A28
S1135370680F60935A0A80E0089581E0089582E0FE
S1135380089590939F0A80939E0A08959093A10A8A
S11353908093A00A089585ED8093BC008091BC00A1
S11353A084FDFCCF1092A50A089585EC8093BC007F
S11353B01092A50A08951F920F920FB60F9211240E
S11353C00BB60F922F933F934F935F936F937F93FB
S11353D08F939F93AF93BF93EF93FF938091B90003
S11353E0887F803609F49DC070F5883209F45CC06A
S11353F090F4803109F455C038F4882309F4F3C0DB
S1135400883009F44EC0F2C0883109F44DC08032AE
S113541009F45EC0EBC0803409F469C050F48033F1
S113542009F456C0883309F0E1C08093380ABDDF1F
S1135430DDC0803509F44FC0883509F45DC0883477
S113544009F0D4C0D2C0883909F4C3C0A8F488379D
S113545009F467C038F4883609F463C0803709F466
S113546060C0C4C0883809F4B4C0803909F45FC08E
S1135470803809F0BBC05BC0803B09F482C038F4BB
S1135480803A09F466C0883A09F47BC0AFC0803C16
S113549009F4A3C0883C09F4A0C0883B09F486C081
S11354A0A5C08091A40A10C090917D0A80917C0AC5
S11354B0981770F5E0917D0A81E08E0F80937D0A44
S11354C0F0E0E258F54F80818093BB0085EC82C008
S11354D08093380A8AC0E0917D0A81E08E0F809320
S11354E07D0A8091BB00F0E0E258F54F80839091F3
S11354F07D0A80917C0A6AC0E0917D0A81E08E0F6A
S113550080937D0A8091BB00F0E0E258F54F8083E0
S11355108091A30A811169C081E08093A20A84EA80
S11355205DC083E08093A50A1092390ACFCF8091A1
S1135530390A803208F04DC0E091390A81E08E0FBB
S11355408093390A8091BB00F0E0E65CF54F8083DC
S1135550BDCF2BDF8091390A803230F4E091390AD3
S1135560F0E0E65CF54F10826091390A70E0E0915A
S11355709E0AF0919F0A8AE39AE009951092390AEB
S113558035C084E08093A50A10925B0A10925A0AEF
S1135590E091A00AF091A10A099580915A0A81111B
S11355A005C081E080935A0A10925C0AE0915B0A7C
S11355B081E08E0F80935B0AF0E0E45AF54F80811E
S11355C08093BB0090915B0A80915A0A981708F463
S11355D07DCF85E88093BC0009C085EC8093BC0036
S11355E01092A50A03C01092380AD5DEFF91EF91FC
S11355F0BF91AF919F918F917F916F915F914F91E7
S11356003F912F910F900BBE0F900FBE0F901F90E4
S113561018958091DA0A90E02091DB0A821B9109A7
S113562008959091DB0A8091DA0A981750F4E92FD3
S1135630F0E0E452F54F208130E09F5F9093DB0A65
S113564002C02FEF3FEFC9010895E091DB0A80917A
S1135650DA0AE81730F4F0E0E452F54F808190E084
S113566008958FEF9FEF08950895CF93DF93EC0192
S1135670E091B20AF091B30A3097F1F09091DB0A0D
S11356808091DA0A9817C0F090E0292F30E02617AD
S1135690370754F4DE01A20FB31F4C91D901A45271
S11356A0B54F4C939F5FF1CF1092DB0A6093DA0AF7
S11356B0CB01DF91CF910994DF91CF910895E091CF
S11356C0B40AF091B50A309729F01092B80A1092F2
S11356D0B70A09940895CF92DF92EF92FF920F9345
S11356E01F93CF93DF937C01CB018A012091B60AEB
S11356F0222389F0EB016B01C40ED51ECC15DD0508
S113570061F06991D701ED91FC910190F081E02D58
S1135710C7010995F3CF642F0CDEC801DF91CF9147
S11357201F910F91FF90EF90DF90CF900895CF934A
S1135730DF931F92CDB7DEB769832091B60A222387
S1135740D1F02091B70A203240F021E030E0FC0192
S11357503383228380E090E014C08091B80AE82F5C
S1135760F0E0E754F54F998190838F5F8093B80AF6
S11357708093B70A04C061E0CE010196DADD81E0CE
S113578090E00F90DF91CF910895FC011382128273
S113579088EE93E0A0E0B0E084839583A683B7838A
S11357A08CE698E09183808308951092DB0A10922E
S11357B0DA0A1092B80A1092B70ADEDC8FE59BE28F
S11357C0E5DD85E39BE2DDCDF5CCCB01BA01FFCC71
S11357D081E08093B60A6093D90A1092B80A1092B5
S11357E0B70A0895F5CF0F93062F21E04091B70A29
S11357F069EB7AE08091D90A46DD1092B80A1092DA
S1135800B70A1092B60A0F9108954F925F926F9261
S11358107F92AF92BF92CF92EF92FF920F931F931A
S1135820CF93DF935C01F62ED42F28013901EE20AB
S113583011F1CEDFCE2DC43008F0C3E0C150C0F06A
S113584028E0C29FC0011124A301920104C056950F
S11358504795379527958A95D2F7CA01B901D5019D
S1135860ED91FC910190F081E02DC5010995E6CF01
S113587060E0C501B8DF4D2FD13208F040E22C2D95
S11358806CED7AE08F2DB7DC1092DB0A8093DA0A94
S1135890DF91CF911F910F91FF90EF90CF90BF9028
S11358A0AF907F906F905F904F900895CF92EF925A
S11358B00F931F93C22EE12C00E010E09801A5DFA6
S11358C01F910F91EF90CF90089521E0EFCF21E049
S11358D0EDCF61E088CF86EA9AE057CFA8D008F4EC
S11358E081E008950CD0DEC0D6D040F0CDD030F0A9
S11358F021F45F3F19F0BFC0511108C1C2C0E3D009
S113590098F39923C9F35523B1F3951B550BBB2782
S1135910AA2762177307840738F09F5F5F4F220F2F
S1135920331F441FAA1FA9F333D00E2E3AF0E0E828
S113593030D091505040E695001CCAF729D0FE2F74
S113594027D0660F771F881FBB1F26173707480706
S1135950AB07B0E809F0BB0B802DBF01FF279358BC
S11359605F4F2AF09E3F510568F085C0CFC05F3F6E
S1135970ECF3983EDCF3869577956795B795F795A4
S11359809F5FC9F7880F911D9695879597F908959C
S1135990E1E0660F771F881FBB1F62177307840738
S11359A0BA0720F0621B730B840BBA0BEE1F88F747
S11359B0E0950895E89409C097FB3EF4909580958E
S11359C0709561957F4F8F4F9F4F9923A9F0F92FC1
S11359D096E9BB279395F695879577956795B7953F
S11359E0F111F8CFFAF4BB0F11F460FF1BC06F5F25
S11359F07F4F8F4F9F4F16C0882311F096E911C037
S1135A00772321F09EE8872F762F05C0662371F057
S1135A1096E8862F70E060E02AF09A95660F771F6B
S1135A20881FDAF7880F9695879597F90895990F47
S1135A300008550FAA0BE0E8FEEF16161706E80754
S1135A40F907C0F012161306E407F50798F0621B75
S1135A50730B840B950B39F40A2661F0232B242B4A
S1135A60252B21F408950A2609F4A140A6958FEF69
S1135A70811D811D089597F99F6780E870E060E0BB
S1135A8008959FEF80EC089500240A9416161706D3
S1135A9018060906089500240A941216130614061B
S1135AA005060895092E0394000C11F4882352F07E
S1135AB0BB0F40F4BF2B11F460FF04C06F5F7F4F36
S1135AC08F4F9F4F089557FD9058440F551F59F01D
S1135AD05F3F71F04795880F97FB991F61F09F3FD7
S1135AE079F087950895121613061406551FF2CF00
S1135AF04695F1DF08C0161617061806991FF1CF50
S1135B0086957105610508940895E894BB27662776
S1135B107727CB0197F908950E9485371F920F923A
S1135B200FB60F9211242F938F939F93EF93FF93AC
S1135B30E0910C0BF0910D0B8081E091120BF09130
S1135B40130B82FD12C090818091150B8F5F8F73B0
S1135B502091160B821751F0E091150BF0E0E45000
S1135B60F54F958F8093150B01C08081FF91EF91C4
S1135B709F918F912F910F900FBE0F901F901895AA
S1135B801F920F920FB60F9211242F933F934F93AE
S1135B905F936F937F938F939F93AF93BF93EF9391
S1135BA0FF938CEF9AE09DD6FF91EF91BF91AF9157
S1135BB09F918F917F916F915F914F913F912F9121
S1135BC00F900FBE0F901F9018958CEF9AE03FD660
S1135BD021E0892B09F420E0822F0895ECEFFAE00C
S1135BE01382128288EE93E0A0E0B0E08483958370
S1135BF0A683B78380E998E09183808385EC90E065
S1135C009587848784EC90E09787868780EC90E082
S1135C10918B808B81EC90E0938B828B82EC90E073
S1135C20958B848B86EC90E0978B868B118E128EED
S1135C30138E148E08958F929F92AF92BF92CF923B
S1135C40DF92EF92FF920F931F93CF93DF937C0128
S1135C508B014C0182E0880E911C5701E5E0AE0EE9
S1135C60B11CC0E0D0E0F40161914F014AE050E082
S1135C70C8014BD16C016EE2C801BAD08C0D9D1DD8
S1135C80C80FD91F8A149B0471F74AE050E0F7014A
S1135C906581C8013AD18C0F9D1FDF91CF911F916F
S1135CA00F91FF90EF90DF90CF90BF90AF909F90B7
S1135CB08F9008952EE738E0FC013183208312820F
S1135CC013821482158208950F93FC018EE798E0E5
S1135CD09183808362834383248305830F91089592
S1135CE0DC01129624E0FB0101900D922A95E1F764
