S015000074656D706C61746556756F746F2E7372656396
S113000061C1000089C1000087C1000085C10000F2
S11300100C94331681C100007FC100000C94631658
S11300207BC1000079C1000077C1000075C10000E8
S113003073C1000071C100006FC100006DC10000F8
S11300400C94A53769C100000C9493350C94C53504
S113005063C1000061C100005FC100005DC1000018
S11300605BC1000059C100000C94E03155C100008F
S113007053C1000051C100004FC100004DC1000038
S11300804BC1000049C1000047C10000300E560EAC
S11300906B0EC50EAD0F39104511AF113F122B1366
S11300A09F1377208E208E208B208E2075208E200B
S11300B08E208E2069208E208E207E20892087200D
S11300C08E208E208E20852000407A10F35A00A0C6
S11300D0724E18090010A5D4E80000E8764817000D
S11300E000E40B54020000CA9A3B000000E1F5054D
S11300F0000080969800000040420F000000A08697
S113010001000000102700000000E80300000000C8
S11301106400000000000A0000000000010000006C
S113012000002C76D888DC674F0823DFC1DFAE5986
S1130130E1B1B796E5E3E453C63AE651997696E819
S1130140E6C28426EB898C9B62ED407C6FFCEFBC9D
S11301509C9F40F2BAA56FA5F490055A2AF75C93C8
S11301606B6CF9676DC11BFCE0E40D47FEF520E6FE
S1130170B500D0ED902E0300943577050080841EE1
S1130180080000204E0A000000C80C333333330F3C
S1130190986E12831141EF8D2114893BE65516CFD9
S11301A0FEE6DB18D1844B381BF77C1D901DA4BBE5
S11301B0E424203284725E228100C9F124ECA1E59A
S11301C03D275254432063686970204453333233CB
S11301D0314D20696E697469616C697A65642E00B9
S11301E0556E61626C6520746F2066696E6420448C
S11301F053333233314D4D2E20436865636B696E42
S11302006720616761696E20696E2033732E004D2B
S1130210617920323320323032310031363A34348D
S11302203A3238001F1C1F1E1F1E1F1F1E1F1E1FB9
S1130230000000000403080700000200090A00008F
S113024000000000000000000000000000000001A9
S11302500102040810204080010210204080102078
S113026040801008200440800102040801020408B0
S1130270040404040404040402020202020201014C
S11302800101030303030303010101010303020248
S113029000000000230026002900000000002500C3
S11302A028002B0000000000240027002A004C171F
S11302B0FD2255234D2634283F28112AE12D703480
S11302C0F335801811241FBECFEFD0E4DEBFCDBFBD
S11302D01AE0A0E0B1E0ECE0F7E800E00BBF02C0F8
S11302E007900D92AC38B107D9F72DE0ACE8BAE02D
S11302F001C01D92A33EB207E1F711E0C1E6D1E0CF
S113030004C02197FE010E94D93DC735D107C9F722
S11303100E947F360C947A4373CE80E090E0089577
S1130320089544980895449A0895EF92FF920F9384
S11303301F93CF93DF93CDB7DEB768970FB6F894CA
S1130340DEBF0FBECDBF8CE69AE09A8389834091CD
S1130350D50A5091D60A6091D70A7091D80A4B8376
S11303605C836D837E8398878F834091DB0A5091F1
S1130370DC0A6091DD0A7091DE0A49875A876B872F
S11303807C879E878D874091E10A5091E20A6091B3
S1130390E30A7091E40A4F87588B698B7A8B9C8BA4
S11303A08B8B8091E70A9091E80AA091E90AB091B9
S11303B0EA0A8D8B9E8BAF8BB88FCE0101967C01A0
S11303C08E01095F1F4F9E01235F3F4FAE014D5EBB
S11303D05F4F62E271E086E39CE00E940726689624
S11303E00FB6F894DEBF0FBECDBFDF91CF911F9142
S11303F00F91FF90EF9008951816190644F4EFE951
S1130400FFE03197F1F700C000000197F5CF0895A0
S1130410CF9389E39DE00E940437CDE763E372E064
S113042089E39DE00E94FC36C150C1F789E39DE059
S1130430CF910C940437CF93DF93D82FC0E0CD171E
S113044041F065E372E089E39DE00E94FC36CF5FF2
S1130450F6CFDF91CF910895CF93C82F81E0EBDFE2
S113046067E372E089E39DE00E94FC36CC2319F037
S11304706BE372E002C060E472E089E39DE00E94F5
S1130480FC3681E0CF91D7CF0F931F93CF93DF93A7
S1130490EC018B010E942E3AB8016A5F7F4FCE01B6
S11304A006960E942E3AF801848595859D878C874F
S11304B0DF91CF911F910F910895CF93DF93EC01BA
S11304C006960E945B39CE01DF91CF910C945B3983
S11304D0CF92DF92EF92FF920F931F93CF93DF930C
S11304E06A017B01C0E0D0E0082F10E0C017D107FB
S11304F024F4C60181DF2196F9CFDF91CF911F91BA
S11305000F91FF90EF90DF90CF9008958232910584
S113051009F49AC06CF58A30910509F483C0A4F4F7
S11305208630910509F475C08930910509F45DC0E0
S1130530059709F0CFC06091060189E39DE00E9410
S1130540FD3620E030E059C08231910509F473C0D2
S11305508132910509F454C0419709F0BBC0609100
S1130560080189E39DE00E94FD3622E030E045C0A9
S11305708036910509F499C0ACF48834910509F4E6
S113058082C08035910509F487C08434910509F04F
S1130590A1C06091120189E39DE00E94FD3620E034
S11305A030E08BC08838910509F459C06CF4843864
S11305B0910509F08FC060910E0189E39DE00E94CE
S11305C0FD3620E030E05CC08039910509F450C06C
S11305D0803A910509F07EC06091110189E39DE0A4
S11305E00E94FD3623E030E04BC06091070189E3AF
S11305F09DE00E94FD3621E030E080E090E05FC0A5
S11306006091090189E39DE00E94FD3623E030E01A
S1130610F4CF60910A0189E39DE00E94FD3620E059
S113062030E01AC060910B0189E39DE00E94FD3621
S113063021E030E011C060910C0189E39DE00E944B
S1130640FD3622E030E008C060910D0189E39DE0B1
S11306500E94FD3623E030E081E090E030C06091FC
S11306600F0189E39DE00E94FD3621E030E008C0DF
S11306706091100189E39DE00E94FD3622E030E0A4
S113068082E090E01CC06091130189E39DE00E9428
S1130690FD3621E030E011C06091140189E39DE052
S11306A00E94FD3622E030E008C06091150189E324
S11306B09DE00E94FD3623E030E083E090E0880F67
S11306C0991F880F991F8A5F9E4FFC01E20FF31F49
S11306D0808108958EE408950F931F93CF93DF9341
S11306E0EC018A0188E69BE00E946C2E61E088E6BA
S11306F09BE00E94FD3641E060E088E69BE00E94BA
S1130700722EBE016A5F7F4F88E69BE00E94EE3640
S113071042E060E088E69BE00E94722EBE01645FC6
S11307207F4F88E69BE00E94EE3643E060E088E677
S11307309BE00E94722EBE016E5E7F4F88E69BE0B6
S11307400E94EE36C801DF91CF911F910F9154CED4
S1130750CF92DF92EF92FF926B017C016091410B8B
S11307607091420B4AE050E08BEE9AE0B5DFC09204
S1130770A10AD092A20AE092A30AF092A40A8BE9F9
S11307809AE00E94FF206093A50A7093A60A8093C2
S1130790A70A9093A80A8091410B9091420B01966D
S11307A09093420B8093410BFF90EF90DF90CF909A
S11307B00895AF92BF92CF92DF92EF92FF920F9380
S11307C01F93CF93DF93CDB7DEB7A2970FB6F894FC
S11307D0DEBF0FBECDBF5C01F62E66E372E0CE0134
S11307E04D960E94C23908EC10E028E83BE041E84D
S11307F05BE060E081E59BE00E94721E8093890BC0
S1130800882309F49DC04EE150E060E070E082E08E
S11308105FDE8091880B843009F08CC086E0EBE5C4
S1130820F1E0DE01579601900D928A95E1F7CE0131
S113083047966C01E12C04E010E020E030E044E055
S113084061E87BE081E59BE00E94C61E8093890BF2
S1130850882309F45FC0FF2099F080E1EBECF9E014
S1130860DE01119601900D928A95E1F7AE014F5F7A
S11308705F4F64E081E59BE00E94591F8093890BE0
S1130880AE014F5F5F4F64E081E59BE00E94261F4D
S11308908093890B882389F165E472E089E39DE004
S11308A00E942737BE016F5F7F4FCE0141960E94A1
S11308B0C239BE016F5E7F4F89E39DE00E94173706
S11308C08D899E89069759F4BE016F5E7F4FC501DD
S11308D00E94113ACE0141960E945B3937C09FEFC6
S11308E021EE84E0915020408040E1F700C00000F8
S11308F0CE0141960E945B391DC088E69BE00E94B0
S11309006C2E41E060E088E69BE00E94722E63E575
S113091072E00CC088E69BE00E946C2E41E060E02F
S113092088E69BE00E94722E6DE572E088E69BE00B
S11309300E94FC3666E372E089E39DE00E9427375B
S1130940BE01635E7F4FC5010E94113ACE014D96F0
S11309500E945B39C501A2960FB6F894DEBF0FBEA4
S1130960CDBFDF91CF911F910F91FF90EF90DF905A
S1130970CF90BF90AF900895CF92DF92EF92FF9205
S11309800F931F93CF93DF93CDB7DEB764970FB662
S1130990F894DEBF0FBECDBF7C01CE0101966C0181
S11309A087E0F60111928A95E9F765E672E0C701DE
S11309B00E94C23900E010E09E012C5E3F4FA60168
S11309C060E081E59BE00E94721E882359F10C8946
S11309D010E020E030E0A60161E57BE0CE010E9658
S11309E00E94711CCE010E960E945A3C28E030E011
S11309F040E050E0BE01625F7F4FCE0108960E9446
S1130A00173CBE01685F7F4FC7010E94363ACE0192
S1130A1008960E945B3981E08093800BCE010E968C
S1130A200E945B39C70164960FB6F894DEBF0FBE0F
S1130A30CDBFDF91CF911F910F91FF90EF90DF9089
S1130A40CF900895EF92FF920F931F93CF93DF936C
S1130A50CDB7DEB762970FB6F894DEBF0FBECDBF39
S1130A608C017B016CE672E0CE010D960E94C239C6
S1130A70CFDC64E772E089E39DE00E942737209190
S1130A80430130914401F701848195812817390786
S1130A9049F5A90143505109B701CE0107960E94B7
S1130AA0173C6CE872E0CE0101960E94C239BE0187
S1130AB0695F7F4FCE0101960E94973BBC0189E399
S1130AC09DE00E941737CE0101960E945B39BE015A
S1130AD0695F7F4FC8010E94113ACE0107960E94B8
S1130AE05B3909C080E0B8DC93DCBE01635F7F4FF3
S1130AF0C8010E94113ACE010D960E945B39C801CB
S1130B0062960FB6F894DEBF0FBECDBFDF91CF91D2
S1130B101F910F91FF90EF900895AF92BF92CF92E3
S1130B20DF92EF92FF920F931F93CF93DF93CDB792
S1130B30DEB762970FB6F894DEBF0FBECDBF5C017F
S1130B407B018A01690164DC81E075DC66E774E09D
S1130B5089E39DE00E94FC36A501B701C8010E940B
S1130B609526892B09F48DC02FEF81EE94E0215056
S1130B7080409040E1F700C0000063EB74E0CE01D8
S1130B8001960E94C239B601CE0101960E94973B9C
S1130B906DEE72E00E94A83BBC0185E49BE00E94DC
S1130BA0193ACE0101960E945B39B701CE0107962E
S1130BB00E94C23960EE74E0CE0101960E94C239EF
S1130BC0BE01695F7F4FCE0101960E94973BBC0135
S1130BD085E49BE00E94713BCE0101960E945B3943
S1130BE0CE0107960E945B3966EF72E085E49BE0D4
S1130BF00E94773B6DE673E085E49BE00E94773BBF
S1130C0066EF72E085E49BE00E94773B67E174E065
S1130C1085E49BE00E94773B66EF72E085E49BE00D
S1130C200E94773B67EE74E085E49BE00E94773B8B
S1130C3066EF72E085E49BE00E94773B66EF72E02A
S1130C4085E49BE00E94773B65E47BE089E39DE0DB
S1130C500E94173765E47BE0C8010E94EE362FEF4F
S1130C6083EC99E0215080409040E1F700C00000FF
S1130C7066E374E0C8010E942737C8010E94043764
S1130C8025C088E69BE00E946C2E41E060E088E687
S1130C909BE00E94722E68E474E088E69BE00E9468
S1130CA0FC3643E060E088E69BE00E94722E6DE52E
S1130CB074E088E69BE00E94FC362FEF83ED90E31E
S1130CC0215080409040E1F700C000008FE39CE990
S1130CD00197F1F700C0000063EF74E0CE010D96B8
S1130CE00E94C239C8010E940C27892B21F120914E
S1130CF043013091440180913D0B90913E0B82174A
S1130D009307C8F4C8010E941627F82E69E37BE014
S1130D10CE0101960E942E3A6F2DCE0101960E94BB
S1130D20BF3BBC0189E39BE00E94193ACE010196C6
S1130D300E945B39D7CF69E37BE0CE0107960E941E
S1130D402E3ABE01695F7F4FCE0101967BDEBE0164
S1130D506F5F7F4FCE010D960E94363ACE01019609
S1130D600E945B39CE0107960E945B399FEF27EE04
S1130D7083E0915020408040E1F700C0000062E72A
S1130D8074E0CE010D960E94CB3B882329F081E0CC
S1130D9063DB3EDB11E001C010E0CE010D960E9442
S1130DA05B39812F62960FB6F894DEBF0FBECDBFBC
S1130DB0DF91CF911F910F91FF90EF90DF90CF9033
S1130DC0BF90AF900895AF92BF92CF92DF92EF920F
S1130DD0FF920F931F93CF93DF93CDB7DEB7629744
S1130DE00FB6F894DEBF0FBECDBF5C016B018A0164
S1130DF079010EDB81E01FDB65EF74E089E39DE0A0
S1130E000E94FC36A501B601C8010E949526892BD3
S1130E1009F4B0C02FEF81EE94E02150804090405F
S1130E20E1F700C0000065E375E085E49BE00E9403
S1130E30413AB601CE0107960E94C23960EE74E0D1
S1130E40CE0101960E94C239BE01695F7F4FCE0177
S1130E5001960E94973BBC0185E49BE00E94713B94
S1130E60CE0101960E945B39CE0107960E945B3940
S1130E7066EF72E085E49BE00E94773B6DE673E0E9
S1130E8085E49BE00E94773B66EF72E085E49BE09B
S1130E900E94773B67E174E085E49BE00E94773B26
S1130EA066EF72E085E49BE00E94773B67EE74E0B6
S1130EB085E49BE00E94773B66EF72E085E49BE06B
S1130EC00E94773BF701648175816B5E7F4F4AE036
S1130ED0CE0107960E94C23A67E575E0CE010196FD
S1130EE00E94C239BE01695F7F4FCE0101960E9404
S1130EF0973BBC0185E49BE00E94713BCE010196C7
S1130F000E945B39CE0107960E945B3966EF72E05E
S1130F1085E49BE00E94773B66EF72E085E49BE00A
S1130F200E94773BB70185E49BE00E94713B66EF2A
S1130F3072E085E49BE00E94773B65E47BE089E313
S1130F409DE00E94173765E47BE0C8010E94EE36FD
S1130F50FFEF27E883E1F15020408040E1F700C033
S1130F60000066E374E0C8010E942737C8010E94AC
S1130F70043725C088E69BE00E946C2E41E060E0C7
S1130F8088E69BE00E94722E68E474E088E69BE0A9
S1130F900E94FC3643E060E088E69BE00E94722EEB
S1130FA06DE574E088E69BE00E94FC369FEFE3ED7C
S1130FB0F0E39150E040F040E1F700C000008FE31F
S1130FC09CE90197F1F700C0000063EF74E0CE01E3
S1130FD00D960E94C239C8010E940C27892B21F169
S1130FE0209143013091440180913D0B90913E0B3F
S1130FF082179307C8F4C8010E941627F82E69E3E4
S11310007BE0CE0101960E942E3A6F2DCE0101960F
S11310100E94BF3BBC0189E39BE00E94193ACE01C8
S113102001960E945B39D7CF69E37BE0CE01079636
S11310300E942E3ABE01695F7F4FCE01019602DD08
S1131040BE016F5F7F4FCE010D960E94363ACE01EE
S113105001960E945B39CE0107960E945B399FEF8F
S1131060E7EEF3E09150E040F040E1F700C000000B
S113107062E774E0CE010D960E94CB3B882329F0F1
S113108081E0EAD9C5D911E001C010E0CE010D9686
S11310900E945B39812F62960FB6F894DEBF0FBEB3
S11310A0CDBFDF91CF911F910F91FF90EF90DF9013
S11310B0CF90BF90AF9008955798569888E080934A
S11310C0680080EC809373007894089509980A98D6
S11310D0089591E090936800843419F40D9880E2A7
S11310E002C00E9880E480936B0078940895CF92A8
S11310F0DF92EF92FF92BC01990F880B990B0E942B
S1131100E1346B017C0120E030E0A9010E947334DA
S113111087FF03C0C12CD12C7601609141017091ED
S11311204201072E000C880B990B0E94E1349B01AD
S1131130AC01C701B6010E947734FF90EF90DF90B5
S1131140CF9008953F9A8130910571F082309105D6
S1131150E1F0892B89F547982FEF30E742E02150E1
S113116030404040E1F70EC028B101C0880F6A95B5
S1131170EAF7822B88B98FEF90E722E08150904004
S11311802040E1F700C00000089528B181E090E01C
S113119001C0880F6A95EAF7982F9095922398B921
S11311A03FEF45EA2EE0315040402040E1F700C0D7
S11311B0000098B1892B88B908950F9A8130910560
S11311C0B9F08230910529F1892BD1F522B181E062
S11311D090E001C0880F6A95EAF78095822382B96E
S11311E02FEF30E742E0215030404040E1F70EC09D
S11311F022B101C0880F6A95EAF7822B82B98FEF7A
S113120090E722E0815090402040E1F700C00000C8
S1131210089522B181E090E001C0880F6A95EAF751
S1131220982F9095922392B93FEF45EA2EE03150E2
S113123040402040E1F700C0000092B1892B82B900
S11312400895239A2FEF36E741E021503040404083
S1131250E1F700C000008130910511F42B9A089544
S1131260892B09F42B98089566E372E089E39BE0E7
S11312700E94413A1092400B10923F0B1092800B47
S113128063EF74E08FE09BE00E94413A67E070E016
S113129081E090E057DF67E070E081E090E08DDF6F
S11312A080E090E0CEDF8FE19EE40197F1F700C08B
S11312B0000089EB9AE00E94542789EB9AE00E948F
S11312C099278FE19EE40197F1F700C0000086ECB6
S11312D09AE00E94542786EC9AE00E949927109283
S11312E0440B1092430B8FE19EE40197F1F700C089
S11312F000002C988FE19EE40197F1F700C00000F4
S11313002C9A8FE19EE40197F1F700C000000BD8FE
S11313108FE19EE40197F1F700C0000002D882B18A
S113132082B982B182B966E372E081EF9AE00E94E9
S1131330413A66E372E087EF9AE00E94413A66E33D
S113134072E087EF9AE00E94413A88E69BE00E94AF
S11313505C2E88E69BE00E94B42E1092A90A10929B
S1131360AA0A1092AB0A1092AC0A1092A50A109223
S1131370A60A1092A70A1092A80A4AD868E675E04D
S113138089E39DE00E94273743D866E372E085E94C
S11313909AE00E94413A8EEF9FEF9093420B809324
S11313A0410B0895CF93DF9300D000D000D0CDB788
S11313B0DEB7823431F1F8F4833209F44BC081345E
S11313C009F061C066E372E085E99AE00E94413A5F
S11313D069E775E081EF9AE00E94413A66E372E0C2
S11313E087EF9AE00E94413A66E372E08DEF9AE05B
S11313F00E94413A42C0833499F08E3409F47DC08E
S113140042C060E0CE010196D4D98FE39CE90197F4
S1131410F1F700C00000CE0101960E945B396DC057
S11314202091990A30919A0A2115310509F465C071
S11314302150310940E050E065E97AE0CE0101969F
S11314400E94173CBE016F5F7F4F85E99AE00E94BE
S1131450363A25C08091990A90919A0A059709F025
S11314604CC065E97AE080E99BE00E94193A60E9A2
S11314707BE08BE19BE00E94193A61E470E080E03C
S113148090E066D93AC0682FCE0101960E94563A80
S1131490BE016F5F7F4F85E99AE00E94713BCE01E8
S11314A001960E945B396CE875E081EF9AE00E9436
S11314B0413A60EA75E0CE0101960E94C23965E9BD
S11314C07AE0CE0101960E94973BBC0187EF9AE037
S11314D00E94193ACE0101960E945B3967EA75E0D1
S11314E08DEF9AE00E94413A6091410B7091420B5A
S11314F04AE050E08BEE9AE0EFD826960FB6F894C7
S1131500DEBF0FBECDBFDF91CF910895CF93DF93A0
S1131510CDB7DEB72C970FB6F894DEBF0FBECDBFA4
S1131520833439F08E3409F4B9C0833209F07CC0B5
S11315301AC02091930A3091940A2115310509F4B7
S113154083C02150310940E050E06FE87AE0CE01D9
S113155001960E94173CBE016F5F7F4F8FE89AE0AF
S11315600E94363A6DC08091930A9091940A049730
S113157009F094C06FE87AE086E99BE00E94193A8A
S113158066E97BE08DE29BE00E94193A6CED75E020
S113159081EF9AE00E94413A60913F0B7091400BB9
S11315A04AE0CE0107960E94983A69EE75E0CE01B2
S11315B001960E94C239BE01695F7F4FCE01019638
S11315C00E94973BBC0187EF9AE00E94193ACE0132
S11315D001960E945B39CE0107960E945B396FEE3B
S11315E075E0CE0101960E94C2396BE47BE0CE0126
S11315F001960E94973BBC018DEF9AE00E94193A34
S1131600CE0101960E945B390E9493018FE39FE112
S11316100197F1F700C000000E94910168E770E0B3
S113162080E090E095D83AC0682FCE0101960E94E0
S1131630563ABE016F5F7F4F8FE89AE00E94713B7C
S1131640CE0101960E945B396CEB75E081EF9AE064
S11316500E94413A6DEC75E0CE0101960E94C239B8
S11316606FE87AE0CE0101960E94973BBC0187EFB8
S11316709AE00E94193ACE0101960E945B3961ED0D
S113168075E08DEF9AE00E94413A6091410B7091B0
S1131690420B4AE050E08BEE9AE01ED82C960FB62F
S11316A0F894DEBF0FBECDBFDF91CF9108954F9266
S11316B05F926F927F928F929F92AF92BF92CF92DE
S11316C0DF92EF92FF920F931F93CF93DF9300D09B
S11316D000D000D0CDB7DEB77C015B014DB65EB65D
S11316E06EE877E00E94C239F501C284D3848DB7D5
S11316F09EB78C199D090FB6F8949EBF0FBE8DBF7F
S1131700EDB7FEB731964F013F01F501048515850C
S1131710C00ED11E0C151D054CF4C8010E94644373
S1131720F30181933F010F5F1F4FF4CF69E372E030
S113173089E39DE00E94273769E372E089E39DE035
S11317400E942737B401CE0101960E94C239BE011E
S11317506F5F7F4FC7010E94363ACE0101960E9407
S11317605B39B501CE0101960E942E3A6AE078E019
S1131770CE0101960E94A83BBC0189E39DE00E9432
S1131780EE36CE0101960E945B39B70189E39DE0F4
S11317900E941737C7010FB6F8945EBE0FBE4DBE48
S11317A026960FB6F894DEBF0FBECDBFDF91CF9162
S11317B01F910F91FF90EF90DF90CF90BF90AF906B
S11317C09F908F907F906F905F904F9008958F922D
S11317D09F92AF92BF92CF92DF92EF92FF920F93BC
S11317E01F93CF93DF93CDB7DEB72C970FB6F89442
S11317F0DEBF0FBECDBF5C018DB69EB6FC01C284B8
S1131800D3848DB79EB78C199D090FB6F8949EBFEB
S11318100FBE8DBF0DB71EB70F5F1F4FA6014F5FE1
S11318205F4F20E030E0B801C50106960E94E93B15
S11318304AE0B601CE0107960E94983A6CEF75E033
S1131840CE0101960E94C239BE01695F7F4FCE016D
S113185001960E94973BBC0189E39DE00E941737E3
S1131860CE0101960E945B39CE0107960E945B3936
S113187063E076E089E39DE00E94273769E372E044
S113188089E39DE00E942737F501E484F584F5019E
S1131890848595858C0D9D1DE816F90664F4F80180
S11318A061918F01662319F0C7010E946C43FFEF19
S11318B0EF1AFF0AECCF69E372E089E39DE00E942E
S11318C0273781E00FB6F8949EBE0FBE8DBE2C96CE
S11318D00FB6F894DEBF0FBECDBFDF91CF911F913D
S11318E00F91FF90EF90DF90CF90BF90AF909F90BB
S11318F08F9008950F931F93CF93DF93EC018B0187
S113190069E372E089E39DE00E94273769E372E0AE
S113191089E39DE00E94273761E276E089E39DE058
S11319200E942737C017D10734F460E0CE010E942B
S11319306C432196F7CF6EE376E089E39DE00E9445
S1131940273769E372E089E39DE00E94273769E362
S113195072E089E39DE0DF91CF911F910F910C9488
S113196027374F925F926F927F928F929F92AF929E
S1131970BF92CF92DF92EF92FF920F931F93CF9378
S1131980DF93CDB7DEB72C970FB6F894DEBF0FBE4A
S1131990CDBF7C016B012A016DB67EB66EE877E09F
S11319A00E94C2398DB79EB78C199D090FB6F89461
S11319B09EBF0FBE8DBFEDB7FEB731965F0169E3E1
S11319C072E089E39DE00E9427376FE476E089E3C3
S11319D09DE00E94273769E372E089E39DE00E945D
S11319E0273745018201C40CD51C0C151D055CF577
S11319F0C8010E946443F40181934F01882301F1DB
S1131A004AE0682FCE0107960E946D3A69E372E0BE
S1131A10CE0101960E94C239BE01695F7F4FCE019B
S1131A2001960E94973BBC0189E39DE00E94EE363B
S1131A30CE0101960E945B39CE0107960E945B3964
S1131A400F5F1F4FD2CF69E372E089E39DE00E94EC
S1131A50273769E372E089E39DE00E942737B501E7
S1131A60CE0101960E94C239BE016F5F7F4FC7014C
S1131A700E94363ACE0101960E945B3962E676E016
S1131A8089E39DE00E94FC36B70189E39DE00E9452
S1131A901737C7010FB6F8947EBE0FBE6DBE2C96E5
S1131AA00FB6F894DEBF0FBECDBFDF91CF911F916B
S1131AB00F91FF90EF90DF90CF90BF90AF909F90E9
S1131AC08F907F906F905F904F9008958F929F9228
S1131AD0AF92BF92CF92DF92EF92FF920F931F9338
S1131AE0CF93DF93CDB7DEB72C970FB6F894DEBF54
S1131AF00FBECDBF6B014A01ADB6BEB62DB73EB722
S1131B00261B370B0FB6F8943EBF0FBE2DBFEDB7A3
S1131B10FEB731967F01FC01448155814F5F5F4FD1
S1131B2020E030E0B7010E94E93B4AE0B601CE0173
S1131B3007960E94983A6CEF75E0CE0101960E94D8
S1131B40C239BE01695F7F4FCE0101960E94973B67
S1131B50BC0189E39DE00E941737CE0101960E94E3
S1131B605B39CE0107960E945B3963E076E089E336
S1131B709DE00E94273769E372E089E39DE00E94BB
S1131B8027378401C80CD91C0C151D056CF5F70109
S1131B906081662319F1C8010E946C43F7016081DA
S1131BA0CE0107960E94563A69E372E0CE0101968F
S1131BB00E94C239BE01695F7F4FCE0101960E9427
S1131BC0973BBC0189E39DE00E94EE36CE0101966D
S1131BD00E945B39CE0107960E945B390F5F1F4F4D
S1131BE0FFEFEF1AFF0AD0CF69E372E089E39DE0CB
S1131BF00E94273781E00FB6F894BEBE0FBEADBE7B
S1131C002C960FB6F894DEBF0FBECDBFDF91CF91F7
S1131C101F910F91FF90EF90DF90CF90BF90AF9006
S1131C209F908F900895CF92DF92EF92FF920F933F
S1131C301F93CF93DF93CDB7DEB7A3970FB6F89476
S1131C40DEBF0FBECDBFE091410BF091420B329647
S1131C50EB30F10508F0B2C6EA5BFF4F0C94D93DB6
S1131C6066E372E081EF9AE00E94413A69E776E028
S1131C7087EF9AE00E94413A66E372E08DEF9AE0C2
S1131C800E94413A6091410B7091420B44E650E04E
S1131C908BEE9AE00E946C032FEF33EC89E0215025
S1131CA030408040E1F700C000000BC005DA9FEF30
S1131CB029EF30E0915020403040E1F700C00000AF
S1131CC005DA8091410B9091420B01969093420B5F
S1131CD08093410B73C666E372E081EF9AE00E9441
S1131CE0413A66E372E087EF9AE00E94413A66E384
S1131CF072E08DEF9AE00E94413A8FEF97EA21E675
S1131D00815090402040E1F700C000001092800B09
S1131D100E94910165E876E081EF9AE00E94413AE1
S1131D2066E372E087EF9AE00E94413A69E976E05F
S1131D308DEF9AE00E94413A6091410B7091420B01
S1131D4044E650E08BEE9AE00E946C0381E490E05C
S1131D50A0E0B0E080931E0190931F01A0932001A6
S1131D60B09321018091410B9091420B0196909385
S1131D70420B8093410B3FEF83ED90E33150804061
S1131D809040E1F700C0000019C666E372E085E9FF
S1131D909AE00E94413A66E372E08FE89AE00E947A
S1131DA0413A65E672E0CE0146960E94C2398091BE
S1131DB0800B811116C0CE0101960E94BC04BE01A5
S1131DC06F5F7F4FCE0146960E94363ACE01019650
S1131DD00E945B3944E650E060E070E082E00E94DB
S1131DE0680265E672E0CE0146960E94CB3B811103
S1131DF002C0449B22C688E69BE00E946C2E6CE8DD
S1131E0075E081EF9AE00E94413A60EA75E087EF5D
S1131E109AE00E94413A6CEA76E08DEF9AE00E94E3
S1131E20413ABE016A5E7F4FCE010E960E942E3A61
S1131E308091BB0A9091BC0A9C838B838091BD0ADC
S1131E409091BE0AA091BF0AB091C00A8D839E836F
S1131E50AF83B8878091C10A9091C20AA091C30A46
S1131E60B091C40A89879A87AB87BC8788EE99E0CA
S1131E709A8389838091C50A8D879E01225F3F4F93
S1131E80AE014F5F5F4F68E271E080E590E00E9431
S1131E908D05182FCE010E960E945B39112319F17E
S1131EA0449A60EC76E083E39BE00E94413A40E987
S1131EB051E060E070E081E00E9468026091410BB3
S1131EC07091420B4AE050E08BEE9AE00E946C0362
S1131ED060911E0170911F01809120019091210158
S1131EE00E94A80337C064EC76E083E39BE00E9481
S1131EF0413A48EC50E060E070E083E00E94680200
S1131F0088E69BE00E946C2E68EC76E081EF9AE014
S1131F100E94413A6DED76E087EF9AE00E94413AE3
S1131F2066E372E08DEF9AE00E94413A6091410BC2
S1131F307091420B4AE050E08BEE9AE00E946C03F1
S1131F402FEF33ED80E3215030408040E1F700C0B3
S1131F5000008AD9CE0146962FC540E060E088E6AD
S1131F609BE00E94722E61E088E69BE00E94FD36B1
S1131F704091A50A5091A60A6091A70A7091A80AF7
S1131F808091A10A9091A20AA091A30AB091A40AF7
S1131F90480F591F6A1F7B1F41505109610971097C
S1131FA08091A90A9091AA0AA091AB0AB091AC0AB7
S1131FB0481B590B6A0B7B0B2AE0CE010E960E943C
S1131FC0EC3A6FE477E0CE0101960E94C239BE017B
S1131FD0625F7F4FCE0101960E94973B6DEE76E0E3
S1131FE00E94A83BBC0188E69BE00E94EE36CE012D
S1131FF001960E945B39CE010E960E945B396CE318
S11320008CE89AE00E94FA1B8CE89AE00E94111C6A
S1132010E82E42E0BE016A5E7F4F90E00E94964047
S113202063EC8CE89AE00E94FA1B8CE89AE00E9428
S1132030111CF82E42E0BE01625F7F4F90E00E94C7
S11320409640FE24EF2CF12C42E0BE016F5F7F4FDF
S1132050C7010E949640C7010E9486029FEF29EFA4
S113206030E0915020403040E1F700C000009AD9A0
S1132070A5C440E060E088E69BE00E94722E61E027
S113208088E69BE00E94FD364091A50A5091A60A7D
S11320906091A70A7091A80A8091A10A9091A20A5E
S11320A0A091A30AB091A40A480F591F6A1F7B1F6D
S11320B041505109610971098091A90A9091AA0AB4
S11320C0A091AB0AB091AC0A481B590B6A0B7B0B6D
S11320D02AE0CE010E960E94EC3A6FE477E0CE013E
S11320E001960E94C239BE01625F7F4FCE01019604
S11320F00E94973B6DEE76E00E94A83BBC0188E607
S11321009BE00E94EE36CE0101960E945B39CE011F
S11321100E960E945B398091990A90919A0A0597CC
S113212069F563EF74E08AE89BE00E94413A65E94F
S11321307AE080E99BE00E94193A67EE75E086E94F
S11321409BE00E94413A63EF76E081EF9AE00E94BF
S1132150413A66E372E087EF9AE00E94413A6EE00A
S113216077E08DEF9AE00E94413A60911A017091F4
S11321701B0180911C0190911D0163C561E0CE019A
S11321800E960E94D9038FE39CE90197F1F700C0F2
S11321900000BE01625F7F4F89E39DE00E94173714
S11321A02A893B8945E050E0BE01625F7F4FCE0142
S11321B001960E94173CBE016F5F7F4F8AE89BE047
S11321C00E94363ACE0101960E945B3925E030E048
S11321D040E050E0BE01625F7F4FCE0101960E9455
S11321E0173CBE016F5F7F4F80E99BE00E94363A47
S11321F0CE0101960E945B3967EE75E086E99BE0AB
S11322000E94413A6FE177E0CE0101960E94C23903
S11322106AE87BE0CE0101960E94973BBC0189E30A
S11322209DE00E941737CE0101960E945B3961E35D
S113223077E0CE0101960E94C23960E97BE0CE01CD
S113224001960E94973BBC0189E39DE00E941737E9
S1132250CE0101960E945B396AE87BE08FE09BE047
S11322600E94193A69E377E08AE89BE00E94CB3B3D
S113227081114DC46BE377E08AE89BE00E94CB3B7D
S1132280811145C4CE010E9697C363EF76E081EFCA
S11322909AE00E94413A66E372E087EF9AE00E9476
S11322A0413A6EE077E08DEF9AE00E94413A69E3AB
S11322B077E08AE89BE00E94CB3B882361F082E4CC
S11322C00E94690867E070E080E090E00E94DD0809
S11322D06DE377E014C06BE377E08AE89BE00E944B
S11322E0CB3B882309F46AC384E40E94690867E04D
S11322F070E080E090E00E94A20865E477E08BE45F
S11323009BE00E94413A6AE87BE081E29BE00E9404
S1132310193A6CEB75E081EF9AE00E94413A6DEC5A
S113232075E0CE0101960E94C2396FE87AE0CE01D1
S113233001960E94973BBC0187EF9AE00E94193AEC
S1132340CE0101960E945B3961ED75E08DEF9AE054
S11323500E94413A6CE370E080E090E072C440E097
S113236060E088E69BE00E94722E61E088E69BE0D4
S11323700E94FD364091A50A5091A60A6091A70AD1
S11323807091A80A8091A10A9091A20AA091A30A2F
S1132390B091A40A480F591F6A1F7B1F415051096D
S11323A0610971098091A90A9091AA0AA091AB0AC6
S11323B0B091AC0A481B590B6A0B7B0B2AE0CE0187
S11323C00E960E94EC3A6FE477E0CE0101960E94EB
S11323D0C239BE01625F7F4FCE0101960E94973BD6
S11323E06DEE76E00E94A83BBC0188E69BE00E946B
S11323F0EE36CE0101960E945B39CE010E960E9404
S11324005B396CE38CE89AE00E94FA1B8CE89AE052
S11324100E94111CE82E42E0BE016A5E7F4F90E0EC
S11324200E94964063EC8CE89AE00E94FA1B8CE8C8
S11324309AE00E94111CF82E42E0BE01625F7F4FB9
S113244090E00E949640FE24EF2CF12C42E0BE0165
S11324506F5F7F4FC7010E949640C7010E948602AA
S11324609FEF29EF30E0915020403040E1F700C069
S113247000004CD81092400B10923F0B9FC240E0DA
S113248060E088E69BE00E94722E61E088E69BE0B3
S11324900E94FD364091A50A5091A60A6091A70AB0
S11324A07091A80A8091A10A9091A20AA091A30A0E
S11324B0B091A40A480F591F6A1F7B1F415051094C
S11324C0610971098091A90A9091AA0AA091AB0AA5
S11324D0B091AC0A481B590B6A0B7B0B2AE0CE0166
S11324E00E960E94EC3A6DE477E0CE0101960E94CC
S11324F0C239BE01625F7F4FCE0101960E94973BB5
S11325006DEE76E00E94A83BBC0188E69BE00E9449
S1132510EE36CE0101960E945B39CE010E960E94E2
S11325205B3980913F0B9091400B0E9477086B01BF
S11325307C0122E0AB01BC01CE010E960E94173B48
S113254067E577E0CE0101960E94C239BE01625F61
S11325507F4FCE0101960E94973BBC0181EF9AE028
S11325600E94193ACE0101960E945B39CE010E9663
S11325700E945B3960913F0B7091400B4AE0CE01A1
S11325800E960E94983A69EE75E0CE0101960E947B
S1132590C239BE01625F7F4FCE0101960E94973B14
S11325A0BC0187EF9AE00E94193ACE0101960E947D
S11325B05B39CE010E960E945B396FEE75E0CE0159
S11325C001960E94C2396BE47BE0CE0101960E9421
S11325D0973BBC018DEF9AE00E94193ACE01019617
S11325E00E945B3941E060E088E69BE00E94722E25
S11325F061EF7AE088E69BE00E94EE3642E060E01C
S113260088E69BE00E94722E67EF7AE088E69BE002
S11326100E94EE3643E060E088E69BE00E94722E62
S11326206DEF7AE088E69BE00E94EE36019B08C0DD
S11326306BE377E08FE09BE00E94CB3B8111A6C265
S1132640199BBCC169E377E08FE09BE00E94CB3B20
S11326508111CBC2B3C166E372E081EF9AE00E94BC
S1132660413A6FE577E087EF9AE00E94413A66E3EA
S113267072E08DEF9AE00E94413A6091410B7091B3
S1132680420B4AE050E08BEE9AE00E946C0366E352
S113269072E083E09BE00E94413A05E11BE029E3FC
S11326A0E22E2BE0F22EB801CE0101960E942E3AC2
S11326B06DE677E0CE0101960E94A83BBC0183E061
S11326C09BE00E94713BCE0101960E945B390A5F38
S11326D01F4FE016F10639F76AE371E083E09BE0EF
S11326E00E94773B6FE677E0CE0101960E94C239E3
S11326F063E07BE0CE0101960E94973BBC0189E335
S11327009DE00E941737CE0101960E945B390E941A
S113271093018FE39FE10197F1F700C000000E944D
S113272091019FEF23ED30E3915020403040E1F7D9
S113273000C000006EE170E080E090E082C2449945
S11327403DC14AE050E068E070E08BEE9AE00E9400
S11327506C0366E372E083E09BE00E94413A05E18A
S11327601BE099E3E92E9BE0F92EB801CE01019616
S11327700E942E3A6DE677E0CE0101960E94A83BB6
S1132780BC0183E09BE00E94713BCE0101960E9454
S11327905B390A5F1F4FE016F10639F76AE371E00F
S11327A083E09BE00E94773B6FE677E0CE010196E1
S11327B00E94C23963E07BE0CE0101960E94973B00
S11327C0BC0189E39DE00E941737CE0101960E9467
S11327D05B398FEF93ED20E3815090402040E1F787
S11327E000C0000063E07BE0CE010E960E942E3A0A
S11327F08091C80A9091C90A9C838B838091CA0AEC
S11328009091CB0AA091CC0AB091CD0A8D839E837E
S1132810AF83B8878091CE0A9091CF0AA091D00A55
S1132820B091D10A89879A87AB87BC8788EE99E0F3
S11328309A8389838091D20A8D879E01225F3F4FBC
S1132840AE014F5F5F4F68E271E080E590E00E9467
S1132850E306182FCE010E960E945B391123A1F0D6
S11328600E9493013FEF83EC99E031508040904007
S1132870E1F700C000006AE777E089E39DE00E9489
S113288027370E9434099AC00E9493016091070B74
S11328907091080B4BE054E0CE014E9662D8CE0105
S11328A04E960E94B33C6B017C010091070B109182
S11328B0080B63E07BE0CE0101960E942E3AA6014C
S11328C0B801CE01019602D9182FCE0101960E94BB
S11328D05B39112309F46CC04AE0B601CE010E96AF
S11328E00E94983A61E977E0CE0101960E94C239CC
S11328F0BE01625F7F4FCE0101960E94973BBC01EF
S113290089E39DE00E941737CE0101960E945B394E
S1132910CE010E960E945B3922E3C20ED11C39EB24
S1132920C3163BE0D30624F080EDC82E87E0D82EF2
S11329304AE0B601CE0146960E94983A0A8D1B8D54
S1132940BE016A5E7F4FCE0101960E942E3A4BE093
S113295054E0B801CE010196B9D8182FCE010196E2
S11329600E945B39112301F14AE0B601CE010E96B3
S11329700E94983A67EA77E0CE0101960E94C23934
S1132980BE01625F7F4FCE0101960E94973BBC015E
S113299089E39DE00E941737CE0101960E945B39BE
S11329A0CE010E960E945B39CE0146960E945B3999
S11329B00E943409CE014E960E945B396DEA7AE09A
S11329C0CE0101960E94AE2186E0FE013196ABE96C
S11329D0BAE001900D928A95E1F78BE99AE00E94A2
S11329E0FF206093A90A7093AA0A8093AB0A90937C
S11329F0AC0A0091A50A1091A60A2091A70A309169
S1132A00A80AC090A10AD090A20AE090A30AF0906C
S1132A10A40A0C0D1D1D2E1D3F1D68017901C61A47
S1132A20D70AE80AF90AD701C6010297A105B10538
S1132A3008F00AC10E94340907C166E372E089E321
S1132A409DE00E9427376EEB77E089E39DE00E94CA
S1132A50FC366EEF77E0CE0101960E94C239BE01CA
S1132A606A5E7F4FCE0101960E94973BBC0189E3C9
S1132A709DE00E941737CE0101960E945B396EEBF0
S1132A8077E089E39DE00E94FC366DE078E089E31D
S1132A909DE00E94273762E378E085E19BE00E9495
S1132AA0413A88E69BE00E94542E88E69BE00E940F
S1132AB0BA2E8FE39CE90197F1F700C000006BE3A5
S1132AC078E081EF9AE00E94413A6DE478E087EF84
S1132AD09AE00E94413A60E678E08DEF9AE00E9425
S1132AE0413A6091410B7091420B44E650E08BEE09
S1132AF09AE00E946C030E9495019FEF23ED30E35E
S1132B00915020403040E1F700C0000074C960E9F2
S1132B107BE08BE19BE00E94193A6AE87BE081E26A
S1132B209BE00E94193A61E377E0CE0101960E948E
S1132B30C23960E97BE0CE0101960E94973BBC015B
S1132B408DEF9AE00E94193ACE0101960E945B39FA
S1132B506091410B7091420B4AE050E08BEE9AE099
S1132B600E946C038FEF99E628E181509040204049
S1132B70E1F700C0000060911A0170911B0180917F
S1132B801C0190911D010E94A8037CCB22E0B70197
S1132B90A601CE0101960E94173BBE016F5F7F4FD5
S1132BA087E29BE00E94363ACE0101960E945B398F
S1132BB063E778E08BE49BE00E94413A67E070E0D1
S1132BC081E090E00E94DD0867E070E081E090E041
S1132BD00E94A20892B182E0892782B96AE070E07B
S1132BE080E090E00E94A8032BCD22E0B701A6016B
S1132BF0CE0101960E94173BBE016F5F7F4F87E2B3
S1132C009BE00E94363ACE0101960E945B3963E74D
S1132C1078E08BE49BE00E94413A67E070E081E059
S1132C2090E00E94DD0867E070E081E090E00E949F
S1132C30A20860911601709117018091180190917A
S1132C4019010E94A803BACEA3960FB6F894DEBF6A
S1132C500FBECDBFDF91CF911F910F91FF90EF90E9
S1132C60DF90CF9008951F920F920FB60F92112408
S1132C708F939F93059B0FC080913F0B9091400BC6
S1132C8001969093400B80933F0B8FE190E801975E
S1132C90F1F700C00000069B0FC080913F0B90919C
S1132CA0400B01969093400B80933F0B8FE190E88B
S1132CB00197F1F700C000009F918F910F900FBE14
S1132CC00F901F9018951F920F920FB60F92112418
S1132CD00BB60F922F933F934F935F936F937F9312
S1132CE08F939F93AF93BF93EF93FF938091410B87
S1132CF09091420B049709F0BCC04E9B45C0809153
S1132D009E0B90919F0B019690939F0B80939E0B2B
S1132D1080919E0B90919F0B181619060CF04BC0D6
S1132D2082E40E94690867E070E080E090E00E941D
S1132D30DD0869E377E08FE09BE00E94413A6FE0B1
S1132D407BE081E29BE00E94193A6DE377E08BE43B
S1132D509BE00E94413A6CEB75E081EF9AE00E949F
S1132D60413A6DEC75E087EF9AE00E94413A61EDDB
S1132D7075E08DEF9AE00E94413A6AE070E080E0ED
S1132D8090E00E94A8030FC080919C0B90919D0B32
S1132D90019690939D0B80939C0B80919C0B90913A
S1132DA09D0B029744F010929F0B10929E0B109271
S1132DB09D0B10929C0B4F9B45C080919E0B909154
S1132DC09F0B019690939F0B80939E0B80919E0B7B
S1132DD090919F0B181619060CF04BC084E40E94C6
S1132DE0690867E070E080E090E00E94A2086BE36D
S1132DF077E08FE09BE00E94413A6FE07BE081E264
S1132E009BE00E94193A65E477E08BE49BE00E9422
S1132E10413A6CEB75E081EF9AE00E94413A6DEC27
S1132E2075E087EF9AE00E94413A61ED75E08DEF1D
S1132E309AE00E94413A6AE070E080E090E00E94EB
S1132E40A8030FC080919C0B90919D0B01969093C9
S1132E509D0B80939C0B80919C0B90919D0B0297F2
S1132E6044F010929F0B10929E0B10929D0B1092A7
S1132E709C0BFF91EF91BF91AF919F918F917F91A7
S1132E806F915F914F913F912F910F900BBE0F90D7
S1132E900FBE0F901F9018958F92AF92CF92EF9222
S1132EA00F93CF93DF9300E020E040E060E084EEF6
S1132EB09BE00E94693661E671E088EB9BE00E942A
S1132EC0C23962E771E08EEB9BE00E94C239C8EB25
S1132ED0DBE088EE93E09D878C8765E871E086EC03
S1132EE09BE00E94C2396EE871E08CEC9BE00E948A
S1132EF0C2398CEF93E09B8F8A8F6CE971E084ED8B
S1132F009BE00E94C2396EEA71E08AED9BE00E9468
S1132F10C2398BE094E099A788A763EB71E080EA5B
S1132F209BE00E94C239C0EADBE080ED97E09F831A
S1132F308E836BED71E088EA9BE00E94C23988EFD2
S1132F4097E09F878E8762E072E080EB9BE00E94AF
S1132F50C23980E298E09F8B8E8B66E372E08AE848
S1132F609BE00E94C23966E372E080E99BE00E9424
S1132F70C23966E372E086E99BE00E94C2391F927F
S1132F8083E08F9387E0882E96E0A92E25E0C22E59
S1132F9034E0E32E21E042E067E288E69BE00E9411
S1132FA0F12F43E064E081E59BE065D463E878E0D9
S1132FB08BE49BE00E94C23966E372E085E49BE007
S1132FC00E94C23966E372E089E39BE00E94C23941
S1132FD066E372E085E19BE00E94C23966E372E039
S1132FE08BE19BE00E94C23966E372E081E29BE0E0
S1132FF00E94C23966E372E087E29BE00E94C23914
S113300066E372E08DE29BE00E94C23966E372E0FF
S113301083E39BE00E94C23963EF74E08FE09BE09E
S11330200E94C23966E372E089E09BE00E94C239E3
S113303066E372E083E09BE00E94C23963EF74E0D0
S11330408BEE9AE00E94C23963EF74E081EF9AE05C
S11330500E94C23963EF74E087EF9AE00E94C2399C
S113306063EF74E08DEF9AE00E94C23902E320E03E
S113307048EA60EC85EE9AE00E94693605E121E0B9
S113308048EA60EC8FED9AE00E94693601E020E0A6
S113309048EA60EC89ED9AE00E94693600E020E09D
S11330A04FEF6FEF83ED9AE00E94693686EC9AE069
S11330B00E94572789EB9AE00E9457278DEA9AE0ED
S11330C00E94342140E050E0BA018BE99AE060D7D5
S11330D066E372E085E99AE00E94C23966E372E031
S11330E08FE89AE00E94C2390F900F908CE89AE022
S11330F0DF91CF910F91EF90CF90AF908F901BC342
S1133100CF93DF938FE89AE00E945B3985E99AE0D8
S11331100E945B398DEA9AE00E943B218DEF9AE090
S11331200E945B3987EF9AE00E945B3981EF9AE055
S11331300E945B398BEE9AE00E945B3983E09BE04E
S11331400E945B3989E09BE00E945B398FE09BE041
S11331500E945B39C9E3DBE02697CE010E945B390C
S11331608BE0C531D807C1F789E39BE00E945B3946
S113317085E49BE00E945B398BE49BE00E945B3911
S113318086E99BE00E945B3980E99BE00E945B3901
S11331908AE89BE00E945B3980EB9BE00E945B39EC
S11331A088EA9BE00E945B3980EA9BE00E945B39DD
S11331B084ED9BE00E945D0286EC9BE00E945D0230
S11331C088EB9BE0DF91CF910C945D02CF92DF926C
S11331D0EF92FF920F931F93CF93DF93CDB7DEB798
S11331E06A970FB6F894DEBF0FBECDBF3C9A8FE14D
S11331F09EE40197F1F700C000000E9493019FEF45
S113320021EE84E0915020408040E1F700C00000AE
S11332106CE878E089E39DE00E9427370E94080269
S113322088EB9BE09093E30B8093E20B0E940802EF
S113323061EA78E089E39DE00E94FC364AE050E0D0
S113324060E070E189E39DE00E94903769E372E0F9
S113325089E39DE00E9427376CEB78E089E39DE0E9
S11332600E94FC3666E372E0CE0145960E94C239A4
S113327060E070E180E090E00E947A0C6091E20BE3
S11332807091E30BCE0101960E944402CE01019697
S11332900E94E70B182FCE0101960E945D021123B4
S11332A031F065ED78E089E39DE00E942737609175
S11332B0E20B7091E30B625F7F4FCE0101960E9497
S11332C04402CE0101960E94E70B182FCE0101960D
S11332D00E945D02112331F065ED78E089E39DE001
S11332E00E9427376091E20B7091E30B645E7F4F7D
S11332F0CE0101960E944402CE0101960E94E70B82
S1133300182FCE0101960E945D02112331F065ED64
S113331078E089E39DE00E9427370E9408026EED61
S113332078E089E39DE00E94FC366091E20B7091A5
S1133330E30BCE0101960E944402BE016F5F7F4FF2
S1133340CE010F960E94570BBE01615F7F4FCE01E5
S113335045960E94363ACE010F960E945B39CE0103
S113336001960E945D02498D5A8D4F5F5F4F20E0A8
S113337030E068E271E0CE0145960E94E93B60913D
S1133380E20B7091E30B625F7F4FCE0101960E94C6
S11333904402BE016F5F7F4FCE010F960E94570B10
S11333A0BE01615F7F4FCE0145960E94363ACE0141
S11333B00F960E945B39CE0101960E945D026091D6
S11333C0E20B7091E30B645E7F4FCE0101960E9485
S11333D04402BE016F5F7F4FCE010F960E94570BD0
S11333E0BE01615F7F4FCE0145960E94363ACE0101
S11333F00F960E945B39CE0101960E945D020E94E5
S113340008023E9A3F9A0F9A8FE39CE90197F1F7DD
S113341000C00000479A8FE39CE90197F1F700C0D0
S11334200000179A0E94080220E044E064E188E664
S11334309BE00E94773088E69BE00E94542E9FEF29
S113344024E38CE0915020408040E1F700C000006C
S113345088E69BE00E945C2E9FEF24E38CE0915071
S113346020408040E1F700C0000088E69BE00E9415
S1133470542E9FEF24E38CE0915020408040E1F7EC
S113348000C0000088E69BE00E945C2E9FEF24E3CE
S11334908CE0915020408040E1F700C0000045E4FA
S11334A051E061E088E69BE00E943A2F9FEF29EF0C
S11334B080E0915020408040E1F700C0000088E6A1
S11334C09BE00E94542E0BEE1AE066E372E0C80102
S11334D00E94413A0A5F1F4F9BE003301907A9F786
S11334E00E94080281E59BE0D7D12FEF80E792E0AC
S11334F0215080409040E1F700C0000081E59BE04E
S11335006BD36B017C01672B682B692B69F56FEF1B
S113351078E089E39DE00E94FC3688E69BE00E9407
S1133520542E2FEF84E39CE0215080409040E1F73B
S113353000C0000088E69BE00E946C2E68E179E000
S113354088E69BE00E94FC362FEF87EA91E6215043
S113355080409040E1F700C0000062E379E08BE432
S11335609BE00E94413A06C065E479E089E39DE06E
S11335700E9427376AE579E089E39DE00E94FC36E2
S11335804F2D55276627772720E130E089E39DE01A
S11335900E94953769E679E089E39DE00E94FC3654
S11335A04E2D50E060E070E02AE030E089E39DE0D9
S11335B00E947E376EE289E39DE00E94FD364D2D28
S11335C050E060E070E02AE030E089E39DE00E9492
S11335D095376FEF81E59BE075D381E59BE044D39C
S11335E00E94080240EA56E861E070E08DEA9AE041
S11335F085D6811110C060EE71E089E39DE00E94E0
S113360007372FEF83ED90E3215080409040E1F79E
S113361000C00000E7CF2FEF80E792E02150804008
S11336209040E1F700C0000062EC71E089E39DE0A6
S11336300E9407378DEA9AE0BFD70E94080268E724
S113364079E089E39DE00E94273783EE9CE00E94A5
S1133650DA3368E270E083EE9CE00E94F73360E0C6
S113366083EE9CE00E949C3362E383EE9CE00E9424
S11336709C3383EE9CE00E946E342FEF80E792E04F
S1133680215080409040E1F700C0000062E570E006
S113369083EE9CE00E94F73360E083EE9CE00E949E
S11336A09C3362E383EE9CE00E949C3383EE9CE0B7
S11336B00E946E3483EE9CE00E94E9336CEA79E068
S11336C089E39DE00E9427370E94080260E28CE8AB
S11336D09AE036D02CE340E063EC8CE89AE036D0F4
S11336E08EEF9FEF9093420B8093410B6DEB79E04B
S11336F08BE49BE00E94413A6BE47BE089E39DE02C
S11337000E9417370E9408020E9408020E940802C1
S1133710CE0145960E945B396A960FB6F894DEBFD7
S11337200FBECDBFDF91CF911F910F91FF90EF900E
S1133730DF90CF900895FC011082118212820895C7
S1133740FC01608383EE9CE00C94DA33FF920F93C8
S11337501F93CF93DF93EC01F62E042F122F688171
S113376083EE9CE00E94ED3361E083EE9CE00E94D6
S11337709C336F2D83EE9CE00E949C3383EE9CE08F
S11337800E946E34688183EE9CE00E94ED3362E017
S113379083EE9CE00E949C33602F83EE9CE00E94A9
S11337A09C3383EE9CE00E946E348FE39CE9019786
S11337B0F1F700C00000688183EE9CE00E94ED33C5
S11337C063E083EE9CE00E949C33612F83EE9CE0D7
S11337D00E949C3383EE9CE00E946E348FE39CE94C
S11337E00197F1F700C00000DF91CF911F910F9175
S11337F0FF900895CF93C62FFC01608183EE9CE077
S11338000E94ED3363E083EE9CE00E949C336C2FB6
S113381083EE9CE00E949C3383EE9CE0CF910C9459
S11338206E34CF93DF93EC01688183EE9CE00E94B9
S1133830ED3360E083EE9CE00E949C3383EE9CE0D9
S11338400E946E34688170E041E050E083EE9CE0B9
S11338500E946C34C0E083EE9CE00E940E33892BFE
S113386031F083EE9CE00E941633C82FF4CF8C2FE6
S1133870DF91CF910895CF93DF93EC01862F6C8372
S11338804D831D8A1E8A60E00E94C83861E08D81E4
S1133890DF91CF910C94C838CF93DF93EC0183EE82
S11338A09CE00E94DA3361E08D810E94043960E07B
S11338B08D810E9404392FEF87E893E121508040E5
S11338C09040E1F700C0000061E08D810E9404395E
S11338D08FE39CE90197F1F700C00000DF91CF91DD
S11338E008954F925F926F927F928F929F92AF92C0
S11338F0BF92EF92FF920F931F93CF93DF93CDB7B5
S1133900DEB72C970FB6F894DEBF0FBECDBF7C0197
S11339105A012801390166E372E00E94C239850127
S1133920812C912C540184149504A604B70409F441
S113393046C0F80161918F0140E1CE016031F0F49D
S113394001960E946D3AB701CE0107960E942E3A65
S113395067EE75E0CE0107960E94A83BBE016F5F3B
S11339607F4F0E94973BBC01C7010E94193ACE01C8
S113397007960E945B39CE01019619C007960E94F2
S11339806D3AB701CE0101960E942E3ABE01695FDD
S11339907F4FCE0101960E94973BBC01C7010E9454
S11339A0193ACE0101960E945B39CE0107960E9416
S11339B05B39FFEF8F1A9F0AAF0ABF0AB4CF89E3BE
S11339C09DE00E940437C7012C960FB6F894DEBF21
S11339D00FBECDBFDF91CF911F910F91FF90EF905C
S11339E0BF90AF909F908F907F906F905F904F901B
S11339F00895FC0184810E94323991E0811190E0A4
S1133A00892F0895CF92DF92EF92FF921F93CF9365
S1133A10DF936C017B01C0E0D0E0C601EADF182F20
S1133A20811115C0E114F10459F02A96EC16FD0633
S1133A3038F46BED79E089E39DE00E94273707C0F5
S1133A408FE39CE90197F1F700C00000E6CF812FD6
S1133A50DF91CF911F91FF90EF90DF90CF90089569
S1133A60FF920F931F93CF93DF93F62E072F142FFC
S1133A708FE39FE10197F1F700C0000042E0410F9E
S1133A8064E283EE9CE00E946A3483EE9CE00E9430
S1133A901633CF2DD02FCE01810F911D8C01C0176D
S1133AA0D10761F08FE99FE00197F1F700C00000B2
S1133AB083EE9CE00E9416338993F1CFDF91CF917E
S1133AC01F910F91FF900895CF93DF9300D000D002
S1133AD000D0CDB7DEB746E0BE016F5F7F4FC0DFD9
S1133AE046E050E063E571E0CE0101960E946F402C
S1133AF021E0892B09F020E0822F26960FB6F89456
S1133B00DEBF0FBECDBFDF91CF910895682F83EE46
S1133B109CE00C949C33CF92DF92EF92FF920F9330
S1133B201F93CF93DF937B01C1E0C40F8FE39FE129
S1133B300197F1F700C0000064E270E083EE9CE0BE
S1133B400E94F73380E0E2DF80E0E0DF8FEFDEDF2A
S1133B508C2FDCDF8C2F8195D9DF84EDD7DFC12C4E
S1133B6083EDD82ED0E021970C2D10E00C171D0703
S1133B7054F40E0D1F1DF8018081C8DFF801808107
S1133B80D80EC394F1CF8D2D8095C0DF80E0BEDFC9
S1133B9083EE9CE0DF91CF911F910F91FF90EF9006
S1133BA0DF90CF900C946E340F931F93CF93DF93D9
S1133BB0EC018901B0DFB801CE0124DF882331F0A4
S1133BC0CE01DF91CF911F910F917ECF80E0DF91E5
S1133BD0CF911F910F910895CF93DF93EC0182E071
S1133BE08093EA0B28EE33E041E06AEE7BE0CE01FD
S1133BF0DBDF811104C060E070E0CB0132C04CE037
S1133C006AEE7BE0CE012CDF46E050E06DE471E02B
S1133C108AEE9BE00E946F40892B69F78D898111A0
S1133C2003C0E7E0F0E002C0E6E0F0E0E651F44F64
S1133C306081862F90E0A0E0B0E0BA2FA92F982FE2
S1133C4088272181822BBA2FA92F982F8827228198
S1133C50822BBA2FA92F982F88272381BC01CD014D
S1133C60622BDF91CF910895CF93DF93EC0194E120
S1133C709093EA0B81E08093EB0B9093EC0B809391
S1133C80ED0B28EE33E044E06AEE7BE0CE018CDFFE
S1133C908823A9F048E06AEE7BE0CE01E1DE8D895D
S1133CA0811103C086E090E002C085E090E0FC0151
S1133CB0E651F44F81E09081953109F080E0DF9185
S1133CC0CF910895EAEEFBE022E3208325E02183EF
S1133CD02FEF228321E02383648328EE33E045E041
S1133CE0BF0162CFAF92BF92CF92DF92EF92FF9269
S1133CF00F931F93CF93DF93EC017A01590168016D
S1133D008AE48093EA0B81E08093EB0B6093EC0BE5
S1133D10980143E06AEE7BE0CE0146DF182F88234A
S1133D2041F18D89882379F044E16AEE7BE0CE018C
S1133D3097DE8091F10B8130E1F48091F60BF5016F
S1133D40808380E006C0B601CE015CDE8111ECCF39
S1133D5010C09091F60B891768F4282F30E0F90110
S1133D60E651F44F9585F701E20FF31F90838F5FBF
S1133D70F0CF10E0812FDF91CF911F910F91FF9031
S1133D80EF90DF90CF90BF90AF900895AF92BF9225
S1133D90CF92DF92EF920F931F93CF93DF93EC01B7
S1133DA0142F5C018EE0A80EB11C86E0F601D5014B
S1133DB001900D928A95E1F750E0CE0106960E949B
S1133DC056401D8780E48093EA0B81E08093EB0BDF
S1133DD0E11002C080E601C081E68093EC0B009301
S1133DE0ED0B86E0F501AEEEBBE001900D928A95F5
S1133DF0E1F780E04D85841760F4282F30E0FE0160
S1133E00E20FF31F9681F901E651F44F92878F5F19
S1133E10F1CF465F28EE33E06AEE7BE0CE01C4DEEC
S1133E20882349F04CE06AEE7BE0CE0119DE81E0A4
S1133E309091F10B911180E0DF91CF911F910F913F
S1133E40EF90DF90CF90BF90AF9008950F931F93A2
S1133E50CF93DF93EC018A0180E48093EA0B81E045
S1133E608093EB0B80E38093EC0B6093ED0B28EED7
S1133E7033E044E06AEE7BE0CE0196DE811102C0BD
S1133E8080E012C04AE16AEE7BE0CE01E9DD809178
S1133E90F10B8111F5CF80E1E2EFFBE0D801019055
S1133EA00D928A95E1F781E0DF91CF911F910F91F7
S1133EB00895CF93DF93EC0180E48093EA0B81E0D3
S1133EC08093EB0B80EA8093EC0B6093ED0B80E125
S1133ED0FA01AEEEBBE001900D928A95E1F728EE6F
S1133EE033E044E16AEE7BE0CE015EDE882369F0D4
S1133EF08FE39CE90197F1F700C000004AE16AEE04
S1133F007BE0CE01ADDD81E001C080E0DF91CF91A7
S1133F100895803D27E0920710F0805D974050E0BF
S1133F20E4E2F2E021E0261730F43491430F511D0E
S1133F302F5F3196F8CF633038F09C01237033271C
S1133F40232B11F44F5F5F4FBC016D5F7F4F76955C
S1133F50679576956795EDE6F1E08E9F90018F9FCA
S1133F60300D9E9F300D1124C9010197860F971FB4
S1133F70840F951F0895FC01908190539A3008F0A6
S1133F8090E0818180532AE0929F800D112408954E
S1133F908F929F92AF92BF92CF92DF92EF92FF9255
S1133FA0CF93DF93EC016A017B0180E8C81A83E4B4
S1133FB0D80A8DE6E80A88E3F80A8CE3882E912C67
S1133FC0A12CB12CC701B601A50194010E94B73DF3
S1133FD06D83CA01B901A50194010E94B73D6C83A8
S1133FE0C701B60120E13EE040E050E00E94B73D49
S1133FF0CA01B90128E130E040E050E00E94B73D39
S11340006B83C701B60120E831E541E050E00E942E
S1134010B73D18828881982F937041E050E011F0E9
S113402040E050E0BA0163597E4F2617370738F055
S1134030241B350B2D5631408F5F8883EBCF81E0F5
S113404089838981E82FF0E0ED5DFD4FE4919111C2
S113405003C0823009F4EF5FF0E02E173F0720F031
S11340602E1B3F0B8F5FECCF2F5F2A83DF91CF9105
S1134070FF90EF90DF90CF90BF90AF909F908F9084
S11340800895EF92FF920F931F93CF93DF93CDB7D1
S1134090DEB72B970FB6F894DEBF0FBECDBF8C01F1
S11340A07A014BE050E0CE0101960E944D40CE01D2
S11340B00A9661DFF8018083E9818E2F90E0FC018C
S11340C0E154F109E331F10548F5EF5AFF4F0C943F
S11340D0D93D8A81813629F08B818E3621F087E0A3
S11340E01BC081E019C086E017C082E015C08B8137
S11340F0823711F088E010C084E00EC08B818237D3
S113410011F085E009C083E007C089E005C08AE0BA
S113411003C08BE001C08CE0F8018183CE010596D9
S11341202ADFF801828348E050E0B701CE0101960E
S11341300E944D40CE0101961EDFF8018383CE011B
S1134140049619DFF8018483CE01079614DFF80181
S113415085832B960FB6F894DEBF0FBECDBFDF91DB
S1134160CF911F910F91FF90EF900895FC018081F2
S11341704281618190E0CDDE069667E070E00C94A8
S1134180A33D0895EF92FF920F931F93CF93DF9374
S1134190EC0188814A81698190E0BBDE9C01A8E141
S11341A0B0E00E94E23D2B817B018C01E20EF11C08
S11341B0011D111DA8019701ACE3B0E00E94F13D7F
S11341C02C817B018C01E20EF11C011D111DA80143
S11341D097010E94F13D2D81DC01CB01820F911DDD
S11341E0A11DB11DBC01CD0160587C4B8249974C87
S11341F0DF91CF911F910F91FF90EF900895EF926F
S1134200FF920F931F93CF93DF93EC0188814A8130
S1134210698190E07EDE9C01A8E1B0E00E94E23D6D
S11342202B817B018C01E20EF11C011D111DA801E3
S11342309701ACE3B0E00E94F13D2C817B018C013D
S1134240E20EF11C011D111DA80197010E94F13D10
S11342502D81620F711D811D911DDF91CF911F91E1
S11342600F91FF90EF900895FC0110821182128249
S113427013821482089508950F931F93CF93DF93AD
S1134280EC01062F142F68E683EE9CE00E94ED33C8
S1134290602F83EE9CE00E949C33612F83EE9CE0B0
S11342A00E949C3383EE9CE00E946E348883DF91ED
S11342B0CF911F910F9108951F93CF93DF93EC013A
S11342C0162F68E683EE9CE00E94ED33612F83EEA7
S11342D09CE00E949C3383EE9CE00E946E348883B1
S11342E041E068E683EE9CE00E946A3483EE9CE041
S11342F00E941633DF91CF911F910895CF92DF92E0
S1134300EF92FF92CF93DF93EC016A017B0183EE7E
S11343109CE00E94DA33B701A60183EE9CE00E9480
S1134320EA3368E683EE9CE00E94ED3383EE9CE082
S11343300E946E3481110AC062E0CE01BDDF482FB5
S11343404F7B62E0CE0198DF81E001C080E0DF9125
S1134350CF91FF90EF90DF90CF9008950F931F932C
S1134360CF93DF938C01EB0168E683EE9CE00E941F
S1134370ED3360E083EE9CE00E949C3383EE9CE08E
S11343800E946E34888347E068E683EE9CE00E94D6
S11343906A3483EE9CE00E940E33079709F064C0F0
S11343A083EE9CE00E941633982F969596959695E9
S11343B09E70292F220F220F920F8F70890F8D83E9
S11343C083EE9CE00E941633982F969596959695C9
S11343D09E70292F220F220F920F8F70890F8E83C8
S11343E083EE9CE00E941633982F969596959695A9
S11343F09E70292F220F220F920F8F70890F8F83A7
S113440083EE9CE00E94163383EE9CE00E941633F8
S1134410982F9695969596959670292F220F220F90
S1134420920F8F70890F888783EE9CE00E94163369
S113443084FB992790F9990F292F220F220F920FAD
S11344408F70890F898783EE9CE00E941633982F22
S113445092959F708F702AE0929F800D112490E0B6
S11344608053984F9B878A872D813E814F81588541
S113447069858A859B85803D77E0970710F0805D8C
S11344809740F80180836183528343833483258377
S1134490C801DF91CF911F910F910895DF92EF92A0
S11344A0FF920F931F93CF93DF9300D000D000D0DF
S11344B0CDB7DEB78C017B01FB0185819AE0D92E53
S11344C06D2D0E94973D492FF0E18F9F400D1124DF
S11344D060E0C801D1DEF70184816D2D0E94973D13
S11344E0492FF0E18F9F400D112461E0C801C4DE23
S11344F0F70183816D2D0E94973D492FF0E18F9F35
S1134500400D112462E0C801B7DEC7012FDE482F39
S113451063E0C801B1DEF70182816D2D0E94973DF1
S1134520492FF0E18F9F400D112464E0C801A4DEFF
S1134530F70181816D2D0E94973D492FF0E18F9FF6
S1134540400D112465E0C80197DEF70180816D2DCF
S11345500E94973D492FF0E18F9F400D112466E0A2
S1134560C8018ADE6FE0C801A7DE482F4F776FE0ED
S1134570C80182DE6EE0C8019FDE482F4F776EE0EF
S1134580C8017ADEB801CE010196E8DECE010196BB
S1134590F9DDF801618372838383948326960FB6D1
S11345A0F894DEBF0FBECDBFDF91CF911F910F9165
S11345B0FF90EF90DF9008950F931F93CF93DF93B5
S11345C000D000D000D0CDB7DEB78C014BE152E073
S11345D06FE072E0CE01019654DDBE016F5F7F4F44
S11345E0C8015CDF26960FB6F894DEBF0FBECDBFC0
S11345F0DF91CF911F910F9108950F9300E020E078
S113460040E060E08AE29CE00E9469360F910895E0
S1134610FB014281538164817581FC014283538390
S113462064837583178216820895CF93DF93DA012A
S1134630FB01EB0189918111FDCF80E090E020E046
S113464030E04AE051915523E9F02430310544F536
S11346505E3269F48F3F910509F014F5ED01C20F44
S1134660D31F8A832F5F3F4F80E090E0EBCF489FBA
S1134670B001499F700D1124852F90E0C097860FDB
S1134680971FE0CF8F3F910509F054F42430310592
S11346903CF4FD01E20FF31F828381E090E002C04D
S11346A080E090E0DF91CF9108950F9300E020E047
S11346B040E060E080E39CE00E9469360F91089539
S11346C08F929F92AF92BF92CF92DF92EF92FF921E
S11346D00F931F93CF93DF9300D01F92CDB7DEB714
S11346E06C017B010E94EF37F601778366838601B4
S11346F0085F1F4FB6016A5F7F4F42E050E0C80178
S113470030D581E090E09A83898342E050E0BE0195
S11347106F5F7F4FC80125D580E091E09A8389833C
S113472042E050E0BE016F5F7F4FC8011AD51A8284
S1134730198242E050E0BE016F5F7F4FC80111D57E
S113474042E050E0BE016F5F7F4FC8010AD542E0EE
S113475050E0BE016F5F7F4FC80103D55701F501DB
S113476080818823F9F0A7015A01F50181916F0135
S1134770882321F08E3211F0A601F6CF4A018E185B
S11347809F081814190464F48B8241E050E0BE01C0
S11347906D5F7F4FC801E5D4A401B701C801E1D41E
S11347A07601DDCF1B8241E050E0BE016D5F7F4F9B
S11347B0C801D7D4E12CFF24F394FA82E98242E0C1
S11347C050E0BE016F5F7F4FC801CBD4FA82E9820B
S11347D042E050E0BE016F5F7F4FC801C2D481E068
S11347E090E00F900F900F90DF91CF911F910F9158
S11347F0FF90EF90DF90CF90BF90AF909F908F90FD
S113480008952F923F924F925F926F927F928F9270
S11348109F92AF92BF92CF92DF92EF92FF920F934B
S11348201F93CF93DF93CDB7DEB763970FB6F8949A
S1134830DEBF0FBECDBF7C016B011A010E94EF37B2
S11348404B015C018701085F1F4F2601612C712C0D
S1134850C80129D518161906A4F00E94EF37DC0107
S1134860CB0188199909AA09BB09481659066A0691
S11348707B06D0F062E370E080E090E00E94203894
S1134880E7CFF7014281538164817581818D928DD7
S1134890A38DB48D481759076A077B0749F4858DA2
S11348A0968DC59729F409C0EE24EA94FE2CF0C035
S11348B09EEFE92EFF24FA94EBC0C80108D40C97AC
S11348C00CF4E2C04CE050E0BE016F5F7F4FC801C2
S11348D083D48B819C819827892798279A8B898BED
S11348E0F7014681578129813A814217530711F410
S11348F097FD07C0C80105D47CEFE72EFF24FA9486
S1134900C7C08F709270892B39F0C801FAD36BEF4E
S1134910E62EFF24FA94BCC0CF80D884DC24CD24B6
S1134920DC24C114D10419F0E12CF12C1FC0C801FE
S1134930E8D35AEFE52EFF24FA94AAC041E050E0F0
S1134940BE01635F7F4FC80147D48D85811117C0B5
S11349508D858111F3CFC80117D4C80115D4C801BE
S113496013D4C80111D4FFEFEF1AFF0A8D819E8181
S1134970982789279827E816F90600F309C08D853A
S11349809FEF980F9D87882319F3C801FDD3F7CFB4
S1134990A12CB12C41E050E0BE016D5E7F4FC801F7
S11349A01BD48B89982F907C59F4882379F08B89B8
S11349B09FEF980F9B8B882331F0C801E5D3F7CF85
S11349C0C801E2D31B8A8B898111E4CF42E050E015
S11349D0BE01615F7F4FC801FFD342E050E0BE01DA
S11349E0635F7F4FC801F8D3C801CED3C801CCD3CD
S11349F0C801CAD3C801C8D342E050E0BE016F5E0B
S1134A007F4FC801E9D38F8598898115914049F476
S1134A10ED84FE84FE24EF24FE2481E0E816F104F4
S1134A2019F0E12CF12C14C089899A8981159440DC
S1134A3039F0C80166D347EFE42EFF24FA9428C066
S1134A40B1016E5F7F4F44E050E0C801C5D320C080
S1134A5089899A89982789279827E816F90630F4CE
S1134A60C80192D3FFEFEF1AFF0AF2CF2FEFA21A79
S1134A70B20ACA14DB0409F08DCFC80142D336EF61
S1134A80E32EFF24FA9404C08DEFE82EFF24FA9459
S1134A90C70163960FB6F894DEBF0FBECDBFDF919A
S1134AA0CF911F910F91FF90EF90DF90CF90BF9027
S1134AB0AF909F908F907F906F905F904F903F90BA
S1134AC02F9008958F929F92AF92BF92CF92DF92D0
S1134AD0EF92FF920F931F93CF93DF9300D000D0F8
S1134AE000D0CDB7DEB77C014B015A019EDD8C01AD
S1134AF0892B09F057C0F701428153816481758184
S1134B008091320C9091330CA091340CB091350CFF
S1134B10481759076A077B0709F447C00E94EF3713
S1134B206701F8E0CF0ED11C6F7077277C5FC60158
S1134B3089D3813009F03BC08CE69AE09A8389835B
S1134B40F70182819381A481B5818B839C83AD839A
S1134B50BE8345E350E0BE016F5F7F4FC601F7D2CD
S1134B60892B19F400E010E01AC0B401C701A8DDD4
S1134B70892BC1F3C601F2D2892BA1F383E0882EDD
S1134B80912CA50168E873E1C7013BDE8C0121E0AB
S1134B90821A910821F00F3FFFEF1F0791F3C6011E
S1134BA0C2D205C001E010E002C00EEF1FEFC80141
S1134BB026960FB6F894DEBF0FBECDBFDF91CF911E
S1134BC01F910F91FF90EF90DF90CF90BF90AF9027
S1134BD09F908F90089524E030E0AC0164E081E080
S1134BE090E035C624E030E0AC0164E085E090E07C
S1134BF02EC626E030E0AC0164E089E090E027C6F0
S1134C0024E030E0AC0164E08FE090E020C68F92B5
S1134C109F92AF92BF92CF92DF92EF92FF920F9347
S1134C201F93CF93DF934C015B016A01E901FC01FF
S1134C30648580E79CE053D6C501DBDFC60102969C
S1134C40DFDFC8010296C7DFC7010296CBDF8A8186
S1134C509B81AC81BD81F40182839383A483B5835A
S1134C60DF91CF911F910F91FF90EF90DF90CF9044
S1134C70BF90AF909F908F9008952CE63AE0FC018E
S1134C8031832083FB014281538164817581FC015E
S1134C90428353836483758308950F9300E020E077
S1134CA040E060E083E59CE00E94693686E39CE096
S1134CB00E945F36E6E3FCE0138612868AE084876E
S1134CC00F910895DC01ED91FC91028CF38DE02DA0
S1134CD0099591E089270895CF93DF931F92CDB76B
S1134CE0DEB76983DC01ED91FC910280F381E02D54
S1134CF041E050E0BE016F5F7F4F09950F90DF9157
S1134D00CF91089521E0FC018485883009F420E0E6
S1134D10822F0895FC019485FB018485981303C0B8
S1134D2081E0983009F480E00895CF92DF92EF9209
S1134D30FF920F931F93CF93DF93CDB7DEB7AF9757
S1134D400FB6F894DEBF0FBECDBF8C016B017A01A4
S1134D50CE0101960E945F36CE010996F3D2CE01B0
S1134D608A960E945F3666E37CE0CE01849685DFF6
S1134D70BE016C5D7F4FCE0101964ADCAE01465DFB
S1134D805F4FB601CE0101969DDE81309105C1F4DD
S1134D90D801ED91FC910684F785E02D8CE69AE02C
S1134DA09DA38CA38CA59DA5AEA5BFA58EA39FA3F3
S1134DB0A8A7B9A7A701BE016C5D7F4FC8010995DB
S1134DC0AF960FB6F894DEBF0FBECDBFDF91CF9183
S1134DD01F910F91FF90EF90DF90CF9008950F9364
S1134DE01F93CF93DF938C01D42FC52FFC018485AF
S1134DF0883041F481E090E0F8019383828380E07D
S1134E0090E005C0CFD3892BA9F38D2F9C2FDF9180
S1134E10CF911F910F910895FC016485683019F0BA
S1134E2080E79CE0D0C580E090E00895CF93DF93C5
S1134E301F92CDB7DEB741E050E0BE016F5F7F4FF8
S1134E40FC018485F7D3181619061CF4898190E0B7
S1134E5002C08FEF9FEF0F90DF91CF910895FC0177
S1134E608485E8C30F931F93CF93DF931F92CDB72D
S1134E70DEB78C01DC01ED91FC910084F185E02D1D
S1134E800995892B49F0BE016F5F7F4FF801848536
S1134E9012D4898190E002C08FEF9FEF0F90DF91D1
S1134EA0CF911F910F910895FC01848511C4FC01D9
S1134EB01382128288EE93E0A0E0B0E084839583AD
S1134EC0A683B78388EE99E09183808388E0848702
S1134ED00895FC016485683039F06295660F607E40
S1134EE0685F83E090E0DFC480E00895CF93DF93B0
S1134EF0FC0124852830C9F0EC01EBDF843181F01A
S1134F00882371F0883161F08C3161F4E881F98192
S1134F100084F185E02DCE01099521E0892B19F457
S1134F2020E001C021E0822F01C080E0DF91CF9119
S1134F300895CF92DF92EF92FF92CF93DF93EC012B
S1134F408C85883069F129D30E94EF376B017C018D
S1134F50CE01BFDF8823A1F00E94EF37DC01CB0133
S1134F608C199D09AE09BF09883E9340A105B1057E
S1134F7038F461E070E080E090E00E942038E8CFEF
S1134F80CE01A7DF882311F08C8596D2EC85F0E062
S1134F90EE0FFF1FED5BF34F1182108288E08C87C8
S1134FA0DF91CF91FF90EF90DF90CF900895CF9253
S1134FB0DF92FF920F931F93CF93DF93FC0124851D
S1134FC02830C1F56A018B01EC01F12C6F2D62953B
S1134FD0660F607E685F83E090E065D4811102C053
S1134FE0FC8607C08B7F8831D9F3F394F8E0FF1275
S1134FF0EDCF8C858830F1F02091590130915A0120
S11350002F5F3F4F11F420E034E030935A01209396
S113501059014091590150915A0120E061E057D261
S1135020B8016E5F7F4FA6018C8584D2811105C0C3
S113503088E08C8780E090E00FC0CE014ADF8731A2
S113504049F061E070E080E090E00E942038CE01F9
S113505040DFECCF81E090E0DF91CF911F910F9181
S1135060FF90DF90CF9008950F9300E020E040E0A0
S113507060E089E59CE00E9469360F9108950F93E2
S113508000E020E040E060E08FE59CE00E946936AB
S11350900F91089580E00895DC01ED91FC91048C5A
S11350A0F58DE02D09942CE63AE0FC013183208350
S11350B0FB014189528963897489FC0142835383CA
S11350C0648375830895FC01858996890895FC019C
S11350D0818D928D0895CF93DF931F92CDB7DEB764
S11350E06983DC01ED91FC910280F381E02D41E0C4
S11350F050E0BE016F5F7F4F09950F90DF91CF9114
S11351000895CF93DF93EC01898D9A8D892B41F01B
S1135110E881F9810284F385E02DCE010995F4CF6D
S1135120DF91CF910895CF93DF93EC018C85883084
S113513059F0C2D1EC85F0E0EE0FFF1FED5BF34FA9
S11351401182108288E08C87DF91CF910895FC0151
S1135150108E178A6E5F7F4F8485E6C2FC018485BA
S113516006C3CF93DF93EC019A018F89988DAB012D
S1135170BC018C85AED22F89388D280F391F388F0A
S11351802F8BDF91CF9108950F931F93CF93DF93CC
S11351901F92CDB7DEB7FC01218D328D232B59F040
S11351A08C0141E050E0BE016F5F7F4F848542D2A5
S11351B0181619061CF08FEF9FEF08C0F801818DB7
S11351C0928D0197928F818F898190E00F90DF916A
S11351D0CF911F910F910895CF93DF93FC01218DFF
S11351E0328D2115310519F48FEF9FEF10C0EC01BA
S11351F04217530708F0A9018C851CD2181619060A
S11352009CF7298D3A8D281B390B3A8F298FDF9112
S1135210CF910895CF93DF931F92CDB7DEB7FC01F2
S1135220218D328D232B41F0BE016F5F7F4F84852A
S113523042D2898190E002C08FEF9FEF0F90DF91FF
S1135240CF910895EF92FF921F93CF93DF93FC01C8
S11352502485283011F080E020C07B01EC0110E0AF
S1135260612F6295660F607E685F83E090E01BD3D8
S1135270811102C01C8705C08831E1F31F5F18301B
S113528079F78C85883039F3FE86ED861A8E198E6F
S113529020E0A70162E01BD181E0DF91CF911F9153
S11352A0FF90EF9008950F931F93CF93DF93CDB7A3
S11352B0DEB728970FB6F894DEBF0FBECDBF8C01C2
S11352C0DC01ED91FC910680F781E02D0995F80150
S11352D0648580E79CE077D3892B39F148E050E07E
S11352E0BE016F5F7F4FD8011C968C91A3D1181615
S11352F01906ECF4BE016F5F7F4FC8010F960E9440
S113530075368D8190E0982F88272E81820F911D0C
S1135310F801968B858B8F8190E0982F88272885BC
S1135320820F911D928F818F02C080E090E02896B9
S11353300FB6F894DEBF0FBECDBFDF91CF911F91A2
S11353400F910895FC011382128288EE93E0A0E08D
S1135350B0E084839583A683B7838AE09AE091833F
S1135360808388E08487CF010F960C945F36CF92B8
S1135370DF92EF92FF920F931F93CF93DF93CDB7FA
S1135380DEB7AF970FB6F894DEBF0FBECDBF8C016A
S11353906B017A01CE0101960E945F36CE01099617
S11353A0D1DFCE018A960E945F3666E37CE0CE01AF
S11353B0849663DCBE016C5D7F4FCE01019628D9D3
S11353C0AE01465D5F4FB601CE0101967BDB8130B5
S11353D09105C1F4D801ED91FC910488F589E02D83
S11353E08CE69AE09DA38CA38CA59DA5AEA5BFA534
S11353F08EA39FA3A8A7B9A7A701BE016C5D7F4F89
S1135400C8010995AF960FB6F894DEBF0FBECDBFA5
S1135410DF91CF911F910F91FF90EF90DF90CF908C
S113542008950F9300E020E040E060E085E69CE012
S11354300E9469360F910895AB018295880F807E92
S11354406CE0680F24E030E08CE090E000C29B0147
S11354508295880F807E68E0680FC90124C262E0EB
S113546070E0F5CF9B018295880F807E6CE0680F19
S1135470C901CFC1CF93DF93C82FD62F472F64E044
S113548070E0F0DF4D2F65E070E08C2FDF91CF915D
S1135490E9CF462F62E070E0E5CFCF93DF93C82FCA
S11354A0D62F472F60E170E0DDDF4D2F61E170E022
S11354B08C2FDF91CF91D6CFCF93C82F40E1682FA7
S11354C080E79CE070D36FEF8C2FCF91E2CFFF92F7
S11354D00F931F93CF93DF939FEF960F953018F59B
S11354E0D22F8A01F62EC82FE7DF4F2D4D2B60E017
S11354F070E08C2FB7DF0115110511F0B8010AC057
S113550060916B0C70916C0C6F5F7F4F70936C0C9F
S113551060936B0C8C2FAEDF41E06C2F80E79CE036
S113552042D381E001C080E0DF91CF911F910F91C0
S1135530FF9008950F931F93CF93FB0190819F3F9A
S113554051F491819F3F91F492819F3F79F493812B
S11355509F3F61F41CC0911109C09181911106C053
S11355609281911103C09381992391F041155105C2
S113557071F08A01BF01C82F5FDFB8018C2F8DDF66
S113558044E06C2F80E79CE00ED391E001C090E0F2
S1135590892FCF911F910F91089548E0682F80E7DC
S11355A09CE001C3CF92DF92EF92FF920F931F937F
S11355B0CF93C82F7B018A014130584010F000E09E
S11355C018E06C2F80E79CE0CDD16C0163E070E0C3
S11355D08C2F3DDF873111F08C3121F4C016D106B8
S11355E080F302C000E010E09801A7016C2F80E76F
S11355F09CE03DD240E26C2F80E79CE0D4D28C2F1B
S11356002EDF84FD0BC063E070E08C2F20DF81115E
S1135610F6CF8C2F51DF80E090E004C060E18C2F46
S113562038DFC801CF911F910F91FF90EF90DF9069
S1135630CF900895CF92DF92EF92FF920F931F9332
S1135640CF93DF93182F6B017A01682F80E79CE0DA
S1135650BAD1EC01009791F463E070E0812FF7DE9A
S11356608431F9F08823E9F0C1E0D0E08C3111F401
S1135670C0E0D0E0D195C195D10913C0E816F90670
S11356800CF4E7011C161D0664F400E09E01A6015B
S1135690612F80E79CE03AD240E4612F80E79CE0F0
S11356A082D2CE01DF91CF911F910F91FF90EF90A5
S11356B0DF90CF9008950F93AB0101E021E030E03B
S11356C0682F80E79CE022D281E090E00F9108955A
S11356D00895AF92BF92CF92DF92FF920F931F93E0
S11356E0CF93DF93F82E6B015A01E901682F80E70D
S11356F09CE038D18C179D0728F46F2D80E79CE03F
S113570031D1EC018E019501A6016F2D80E79CE05B
S113571074D1CE01DF91CF911F910F91FF90DF9053
S1135720CF90BF90AF9008950F931F93CF93FB0139
S11357309081911109C09181911106C092819111BA
S113574003C09381992369F04115510551F08A01F1
S1135750BF01C82F71DEB8018C2F9FDE81E090E07D
S113576002C080E090E0CF911F910F910895CF93F4
S1135770C82F40E2682F80E79CE015D28C2F6FDEA3
S113578084FD0AC08C2F6BDE83FFF8CF68E18C2F79
S113579080DE80E090E005C060E18C2F7ADE81E05D
S11357A090E0CF9108952091730C222399F04FB784
S11357B0F8942091730C213059F42DB32093710C7B
S11357C03DB32091720C209523232DBB4FBF02C003
S11357D04093710C8CBD9DBD08958EBD00000DB429
S11357E007FEFDCF8EB508958091730C882361F078
S11357F09FB7F8942091730C8091710C213019F4A7
S11358008DBB9FBF08958FBF089544980895449A0F
S113581008950F931F93CF93DF93182F092FD62F3B
S1135820C42F80916E0C90916F0CBDDFEEDF802F42
S1135830D4DF812FD2DF8D2FD0DF8C2FCEDFE7DFB7
S1135840D3DF81E0DF91CF911F910F910895DF9213
S1135850EF92FF920F931F93CF93DF93D82FD92EFC
S1135860C62F7A01890180916E0C90916F0C9BDF99
S1135870CCDF8D2DB2DF8D2FB0DF8C2FAEDFE701B3
S1135880E00EF11ECE15DF0519F08991A6DFFACFDF
S1135890BEDFAADFC801DF91CF911F910F91FF9066
S11358A0EF90DF9008951F93CF93DF93D82F192F94
S11358B0C62F80916E0C90916F0C75DFA6DF812F3F
S11358C08CDF8D2F8ADF8C2F88DF80E086DFC82F66
S11358D09EDF8ADF8C2FDF91CF911F910895CF93A4
S11358E0DF9360936D0C68EE73E080E090E00E94BB
S11358F020383C9A10D460E080E090E0D4DF482F58
S1135900406864E080E090E084DFC0E0DC2FD29562
S1135910DD0FD07ED45F42E06D2F8EE190E079DF21
S113592042E06D2F8FE190E074DFCF5FC83071F7F4
S1135930DF91CF9108951F93CF93DF93182F60E2E7
S113594070E085DDC82FD0E0DC2FCC2761E270E069
S1135950812F7DDD9E01280F311DC901DF91CF917B
S11359601F910895FF920F931F93CF93DF93F62E09
S1135970C0E0D0E08F2DDFDF8C01892B19F08F2D53
S1135980DADFEC01C017D107A9F7CE01DF91CF917F
S11359901F910F91FF9008951F93CF93DF93182FBA
S11359A066E270E054DDC82FD0E0DC2FCC2767E23C
S11359B070E0812F4CDD9E01280F311DC901DF915C
S11359C0CF911F910895FF920F931F93CF93DF936D
S11359D0F62EC0E0D0E08F2DDFDF8C01892B19F08B
S11359E08F2DDADFEC01C017D107A9F7CE01DF91C3
S11359F0CF911F910F91FF900895AF92BF92DF92C4
S1135A00EF92FF920F931F93CF93DF93D62E7A01D9
S1135A10590164E270E08D2D1ADDC82F65E270E053
S1135A208D2D15DDD0E0DC2FCC27E80EF11CCE0D3A
S1135A30DF1D6D2D6295660F607E6C5E9801A50179
S1135A40CE0105DFC00FD11F4D2F64E270E08D2D14
S1135A5009DD4C2F65E270E08D2DDF91CF911F9110
S1135A600F91FF90EF90DF90BF90AF90FBCC0F931E
S1135A701F9389019A0140E050E0BFDF1F910F910D
S1135A800895DF92EF92FF920F931F93CF93DF93CA
S1135A90D82FD92EC62F7A01890180916E0C90914E
S1135AA06F0C81DEB2DE8D2D98DE8D2F96DE8C2F6D
S1135AB094DEE701E00EF11ECE15DF0521F080E053
S1135AC08CDE8993F9CFA3DE8FDEC801DF91CF91FD
S1135AD01F910F91FF90EF90DF9008950F931F9304
S1135AE0CF93DF9300D0CDB7DEB75A834983A901A2
S1135AF0980189819A816295660F607E685E0F9035
S1135B000F90DF91CF911F910F91BBCF8F929F92F6
S1135B10AF92BF92CF92DF92EF92FF920F931F93B7
S1135B20CF93DF936C01962E5A017901802E68E29F
S1135B3070E0892D8CDC082F69E270E0892D87DC08
S1135B4010E0102F0027E801C80FD11D870195012F
S1135B50AE01692DC601C2DF811018C00C0F1D1FD4
S1135B60412F68E270E0892D7DDC402F69E270E00E
S1135B70892DDF91CF911F910F91FF90EF90DF90CE
S1135B80CF90BF90AF909F908F906CCCDF91CF91CE
S1135B901F910F91FF90EF90DF90CF90BF90AF9047
S1135BA09F908F900895CF93C62F61E070E08C2F63
S1135BB059DC61E070E08C2F4ADC8111FACFCF917F
S1135BC00895EEE6FCE080E5808381E0818308951A
S1135BD0FC0112828FEF8183108213820895FC01ED
S1135BE08381882331F0611103C08FEF818308958D
S1135BF01182089583EE9CE0F0D583EE9CE06ED68E
S1135C0091E0811190E0892F0895CF93DF93EC0107
S1135C106A8383EE9CE0CED56A81CE01EBDF8B8371
S1135C20882321F083EE9CE001D588838B8190E06A
S1135C30DF91CF910895CF93DF93FC012381222339
S1135C4099F0EC018181809568236083628183EE01
S1135C509CE0C3D5688183EE9CE06ED583EE9CE026
S1135C603DD6282F30E002C020E030E081E090E013
S1135C70232B11F080E090E0DF91CF9108950895F7
S1135C800895DC01ED91FC910684F785E02D41E057
S1135C90099581E090E00895FC011382128222E3C9
S1135CA03AE0318320830895DC01ED91FC91048472
S1135CB0F585E02D6FEF0994DC01ED91FC910484EE
S1135CC0F585E02D60E00994DC01ED91FC910684FA
S1135CD0F785E02D40E0099461E0F6DF80ED97E080
S1135CE00C945938CF93DF93CDB7DEB728970FB60E
