S015000074656D706C61746556756F746F2E7372656396
S113000063C100008BC1000089C1000087C10000EA
S11300100C94171983C1000081C100000C9473195A
S11300207DC100007BC1000079C1000077C10000E0
S113003075C1000073C1000071C100006FC10000F0
S11300400C94D2396BC100000C94C0370C94F23775
S113005065C1000063C1000061C100005FC1000010
S11300605DC100005BC100000C94DC3357C100008B
S113007055C1000053C1000051C100004FC1000030
S11300804DC100004BC1000049C100002A0FB00F50
S1130090D70F1310D61062115812B8124813AF13A9
S11300A09B140F153E1673228A228A2287228A22E3
S11300B071228A228A228A2265228A228A227A222A
S11300C0852283228A228A228A22812200407A106F
S11300D0F35A00A0724E18090010A5D4E80000E8F5
S11300E07648170000E40B54020000CA9A3B000053
S11300F000E1F505000080969800000040420F00E2
S11301000000A08601000000102700000000E803A2
S1130110000000006400000000000A00000000006D
S11301200100000000002C76D888DC674F0823DF2C
S1130130C1DFAE59E1B1B796E5E3E453C63AE651FF
S1130140997696E8E6C28426EB898C9B62ED407C26
S11301506FFCEFBC9C9F40F2BAA56FA5F490055AC2
S11301602AF75C936B6CF9676DC11BFCE0E40D47E7
S1130170FEF520E6B500D0ED902E0300943577050A
S11301800080841E080000204E0A000000C80C33C2
S11301903333330F986E12831141EF8D2114893B51
S11301A0E65516CFFEE6DB18D1844B381BF77C1DD1
S11301B0901DA4BBE424203284725E228100C9F124
S11301C024ECA1E53D275254432063686970204420
S11301D053333233314D20696E697469616C697AC5
S11301E065642E006E6F6E2074726F766F206D6F73
S11301F064756C6F20525443204453333233314D71
S11302004D2E20526970726F766F207472612033A4
S1130210732E004A756E202038203230323100317E
S1130220383A30303A3430001F1C1F1E1F1E1F1F67
S11302301E1F1E1F00000000040308070000020028
S1130240090A000000000000000000000000000097
S11302500000000101020408102040800102102067
S113026040801020408010082004408001020408CF
S11302700102040804040404040404040202020243
S1130280020201010101030303030303010101014C
S113029003030202000000002300260029000000DE
S11302A00000250028002B00000000002400270087
S11302B02A00F219F92451254928302A3B2A0D2C09
S11302C0DD2F6C362038101B11241FBECFEFD0E475
S11302D0DEBFCDBF1AE0A0E0B1E0E6E6FBE800E057
S11302E00BBF02C007900D92A637B107D9F72DE0D6
S11302F0A6E7BAE001C01D92AE3BB207E1F711E0F8
S1130300C3E6D1E004C02197FE010E940640C9352E
S1130310D107C9F70E94AC380C94A74571CE80E090
S113032090E00895089544980895449A0895EF92AA
S1130330FF920F931F93CF93DF93CDB7DEB76897E8
S11303400FB6F894DEBF0FBECDBF86E59AE09A8360
S113035089834091BF0A5091C00A6091C10A70918B
S1130360C20A4B835C836D837E8398878F8340911D
S1130370C50A5091C60A6091C70A7091C80A498794
S11303805A876B877C879E878D874091CB0A5091D3
S1130390CC0A6091CD0A7091CE0A4F87588B698B35
S11303A07A8B9C8B8B8B8091D10A9091D20AA091ED
S11303B0D30AB091D40A8D8B9E8BAF8BB88FCE01AC
S11303C001967C018E01095F1F4F9E01235F3F4F01
S11303D0AE014D5E5F4F6EE271E081E19CE00E94F0
S11303E0032868960FB6F894DEBF0FBECDBFDF9129
S11303F0CF911F910F91FF90EF9008951816190651
S113040044F4EFE9FFE03197F1F700C000000197F1
S1130410F5CF0895CF9384E19DE00E943139CDE773
S11304206BEE71E084E19DE00E942939C150C1F76F
S113043084E19DE0CF910C943139CF93DF93D82F91
S1130440C0E0CD1741F06DEE71E084E19DE00E94C3
S11304502939CF5FF6CFDF91CF910895CF93C82F7D
S113046081E0EBDF6FEE71E084E19DE00E942939C9
S1130470CC2319F063EF71E002C068EF71E084E10E
S11304809DE00E94293981E0CF91D7CF0F931F932C
S1130490CF93DF93EC018B0161EF71E084E19DE088
S11304A00E94543961EF71E084E19DE00E94543967
S11304B062E272E084E19DE00E945439C017D107E2
S11304C034F460E0CE010E9499452196F7CF6FE3A2
S11304D072E084E19DE00E94543961EF71E084E1AF
S11304E09DE00E94543961EF71E084E19DE0DF9169
S11304F0CF911F910F910C945439CF92DF92EF92C8
S1130500FF920F931F93CF93DF936A017B01C0E0A7
S1130510D0E0082F10E0C017D10724F4C6016EDF25
S11305202196F9CFDF91CF911F910F91FF90EF901A
S1130530DF90CF9008958232910509F49AC06CF54A
S11305408A30910509F483C0A4F48630910509F436
S113055075C08930910509F45DC0059709F0CFC0D5
S11305606091060184E19DE00E942A3920E030E098
S113057059C08231910509F473C08132910509F49F
S113058054C0419709F0BBC06091080184E19DE02B
S11305900E942A3922E030E045C08036910509F4F2
S11305A099C0ACF48834910509F482C08035910572
S11305B009F487C08434910509F0A1C06091120147
S11305C084E19DE00E942A3920E030E08BC0883825
S11305D0910509F459C06CF48438910509F08FC071
S11305E060910E0184E19DE00E942A3920E030E010
S11305F05CC08039910509F450C0803A910509F036
S11306007EC06091110184E19DE00E942A3923E0BB
S113061030E04BC06091070184E19DE00E942A39DB
S113062021E030E080E090E05FC06091090184E166
S11306309DE00E942A3923E030E0F4CF60910A0162
S113064084E19DE00E942A3920E030E01AC06091E4
S11306500B0184E19DE00E942A3921E030E011C0C1
S113066060910C0184E19DE00E942A3922E030E08F
S113067008C060910D0184E19DE00E942A3923E0C5
S113068030E081E090E030C060910F0184E19DE0B2
S11306900E942A3921E030E008C06091100184E111
S11306A09DE00E942A3922E030E082E090E01CC004
S11306B06091130184E19DE00E942A3921E030E039
S11306C011C06091140184E19DE00E942A3922E066
S11306D030E008C06091150184E19DE00E942A3950
S11306E023E030E083E090E0880F991F880F991F82
S11306F08A5F9E4FFC01E20FF31F808108958EE410
S11307000895CF93DF93EC018DE49BE00E94683061
S113071061E08DE49BE00E942A3941E060E08DE4D1
S11307209BE00E946E30BE016A5F7F4F8DE49BE0C8
S11307300E941B3942E060E08DE49BE00E946E3031
S1130740BE01645F7F4F8DE49BE00E941B3943E050
S113075060E08DE49BE00E946E30BE016E5E7F4FD0
S11307608DE49BE0DF91CF910C941B39CF92DF9203
S1130770EF92FF926B017C018DE49BE00E94683054
S11307806091260B7091270B4AE050E085ED9AE0CA
S1130790B8DFC0928B0AD0928C0AE0928D0AF09254
S11307A08E0A8FE19EE40197F1F700C0000085E80E
S11307B09AE00E94FB2260938F0A7093900A8093C0
S11307C0910A9093920A8FE19EE40197F1F700C099
S11307D000008091260B9091270B01969093270B94
S11307E08093260BFF90EF90DF90CF9008958F9227
S11307F09F92AF92BF92CF92DF92EF920F931F938B
S1130800CF93DF93CDB7DEB7A2970FB6F894DEBFD0
S11308100FBECDBF5C014B016EEE71E0CE014D9673
S11308200E94EF3B08EC10E02DE63BE046E65BE07F
S113083060E086E39BE00E946E2080936E0B882329
S113084009F4A3C080916D0B843009F098C086E050
S1130850EBE6F1E0DE01579601900D928A95E1F7FF
S1130860CE0147966C01E12C04E010E020E030E07A
S113087044E066E67BE086E39BE00E94C22080932E
S11308806E0B882309F46BC080E1F401DE0111963C
S113089001900D928A95E1F7AE014F5F5F4F64E0DE
S11308A086E39BE00E94552180936E0B9FEF21EE1F
S11308B084E0915020408040E1F700C00000AE0188
S11308C04F5F5F4F64E086E39BE00E9422218093A8
S11308D06E0B60E572E084E19DE00E945439BE0134
S11308E06F5F7F4FCE0141960E94EF3B80916E0B6C
S11308F0882301F1BE016F5E7F4F84E19DE00E9479
S113090044398D899E89069759F4BE016F5E7F4FE5
S1130910C5010E943E3CCE0141960E94883B3BC0EB
S11309209FEF21EE84E0915020408040E1F700C029
S1130930000010C08DE49BE00E94683041E060E05C
S11309408DE49BE00E946E306EE572E08DE49BE0E6
S11309500E942939CE0141960E94883B10C08DE443
S11309609BE00E94683041E060E08DE49BE00E94DF
S11309706E3068E672E08DE49BE00E9429396EEEE9
S113098071E084E19DE00E945439BE01635E7F4FB3
S1130990C5010E943E3CCE014D960E94883BC50194
S11309A0A2960FB6F894DEBF0FBECDBFDF91CF91F4
S11309B01F910F91EF90DF90CF90BF90AF909F90D9
S11309C08F900895AF92BF92CF92DF92EF92FF92F1
S11309D00F931F93CF93DF93CDB7DEB7A2970FB6D4
S11309E0F894DEBF0FBECDBF5C01F62E6EEE71E053
S11309F0CE014D960E94EF3B08EC10E02DE63BE063
S1130A0046E65BE060E086E39BE00E946E20809314
S1130A106E0B882309F49DC04EE150E060E070E065
S1130A2082E06BDD80916D0B843009F08CC086E030
S1130A30EBE6F1E0DE01579601900D928A95E1F71D
S1130A40CE0147966C01E12C04E010E020E030E098
S1130A5044E066E67BE086E39BE00E94C22080934C
S1130A606E0B882309F45FC0FF2099F080E1E5EB69
S1130A70F9E0DE01119601900D928A95E1F7AE013D
S1130A804F5F5F4F64E086E39BE00E9455218093B3
S1130A906E0BAE014F5F5F4F64E086E39BE00E9404
S1130AA0222180936E0B882389F160E572E084E152
S1130AB09DE00E945439BE016F5F7F4FCE01419685
S1130AC00E94EF3BBE016F5E7F4F84E19DE00E9478
S1130AD044398D899E89069759F4BE016F5E7F4F14
S1130AE0C5010E943E3CCE0141960E94883B37C01E
S1130AF09FEF21EE84E0915020408040E1F700C058
S1130B000000CE0141960E94883B1DC08DE49BE00D
S1130B100E94683041E060E08DE49BE00E946E300A
S1130B2060E772E00CC08DE49BE00E94683041E015
S1130B3060E08DE49BE00E946E306DE772E08DE42E
S1130B409BE00E9429396EEE71E084E19DE00E94F1
S1130B505439BE01635E7F4FC5010E943E3CCE0105
S1130B604D960E94883BC501A2960FB6F894DEBF4D
S1130B700FBECDBFDF91CF911F910F91FF90EF90EA
S1130B80DF90CF90BF90AF900895CF92DF92EF9215
S1130B90FF920F931F93CF93DF93CDB7DEB7649784
S1130BA00FB6F894DEBF0FBECDBF7C01CE01019617
S1130BB06C0187E0F60111928A95E9F76BE872E01F
S1130BC0C7010E94EF3B00E010E09E012C5E3F4F06
S1130BD0A60160E086E39BE00E946E20882359F121
S1130BE00C8910E020E030E0A60166E37BE0CE0152
S1130BF00E960E94641ECE010E960E94873E28E047
S1130C0030E040E050E0BE01625F7F4FCE010896C5
S1130C100E94443EBE01685F7F4FC7010E94633C4F
S1130C20CE0108960E94883B81E08093650BCE013B
S1130C300E960E94883BC70164960FB6F894DEBFF7
S1130C400FBECDBFDF91CF911F910F91FF90EF9019
S1130C50DF90CF900895EF92FF920F931F93CF935D
S1130C60DF93CDB7DEB762970FB6F894DEBF0FBE41
S1130C70CDBF8C017B0162E972E0CE010D960E942A
S1130C80EF3BC8DB6AE972E084E19DE00E945439DD
S1130C902091530130915401F701848195812817E3
S1130CA0390749F5A90143505109B701CE01079607
S1130CB00E94443E62EB72E0CE0101960E94EF3B3B
S1130CC0BE01695F7F4FCE0101960E94C43DBC0105
S1130CD084E19DE00E944439CE0101960E94883B44
S1130CE0BE01695F7F4FC8010E943E3CCE0107965A
S1130CF00E94883B09C080E0B1DB8CDBBE01635FEE
S1130D007F4FC8010E943E3CCE010D960E94883B55
S1130D10C80162960FB6F894DEBF0FBECDBFDF9157
S1130D20CF911F910F91FF90EF900895AF92BF92D2
S1130D30CF92DF92EF92FF920F931F93CF93DF93A3
S1130D40CDB7DEB762970FB6F894DEBF0FBECDBF46
S1130D505C017B018A0169015DDB81E06EDB6CE98A
S1130D6074E084E19DE00E942939A501B701C8011E
S1130D700E949128892B09F4C3C02FEF81EE94E0DF
S1130D80215080409040E1F700C0000069ED74E01C
S1130D90CE0101960E94EF3BB601CE0101960E945E
S1130DA0C43D63E173E00E94D53DBC018AE29BE04F
S1130DB00E94463CCE0101960E94883BB701CE01B9
S1130DC001960E94EF3B66E075E0CE0107960E9413
S1130DD0EF3BBE016F5F7F4FCE0107960E94C43D7B
S1130DE0BC018AE29BE00E949E3DCE0107960E94D0
S1130DF0883BCE0101960E94883B6CE173E08AE255
S1130E009BE00E94A43D63E973E08AE29BE00E94B8
S1130E10A43D6CE173E08AE29BE00E94A43D6DE393
S1130E2074E08AE29BE00E94A43D6CE173E08AE2F4
S1130E309BE00E94A43D6DE075E08AE29BE00E9485
S1130E40A43D6CE173E08AE29BE00E94A43D6CE166
S1130E5073E08AE29BE00E94A43D6AE27BE084E1C5
S1130E609DE00E9444396AE27BE0C8010E941B397C
S1130E702FEF83EC99E0215080409040E1F700C0CF
S1130E8000006CE574E0C8010E945439C8010E9456
S1130E9031398FE39CE90197F1F700C0000069E163
S1130EA075E0CE010D960E94EF3BC8010E9408290F
S1130EB0892B09F44CC02091210B3091220B809195
S1130EC05301909154012817390708F040C0C80114
S1130ED00E941229F82E6DE17BE0CE0101960E945A
S1130EE05B3C6F2DCE0101960E94EC3DBC018DE16F
S1130EF09BE00E94463CCE0101960E94883BD5CFE0
S1130F008DE49BE00E94683041E060E08DE49BE06A
S1130F100E946E306EE674E08DE49BE00E942939F5
S1130F2043E060E08DE49BE00E946E3063E874E08F
S1130F308DE49BE00E9429399FEF23ED80E39150DB
S1130F4020408040E1F700C0000080E038C06DE13F
S1130F507BE0CE0107960E945B3CBE01695F7F4F38
S1130F60CE01019678DEBE016F5F7F4FCE010D96F4
S1130F700E94633CCE0101960E94883BCE010796F5
S1130F800E94883B9FEF27EE83E0915020408040F1
S1130F90E1F700C0000068E974E0CE010D960E94FC
S1130FA0F83D882351F081E059DA34DA11E0CE01BA
S1130FB00D960E94883B812F02C010E0F8CF629604
S1130FC00FB6F894DEBF0FBECDBFDF91CF911F9156
S1130FD00F91FF90EF90DF90CF90BF90AF90089566
S1130FE0AF92BF92CF92DF92EF92FF920F931F9333
S1130FF0CF93DF93CDB7DEB762970FB6F894DEBF19
S11310000FBECDBF5C016B018A01790103DA81E077
S113101014DA6BE175E084E19DE00E942939A501B1
S1131020B601C8010E949128892B09F4E6C02FEF6C
S113103081EE94E0215080409040E1F700C0000030
S11310406BE575E08AE29BE00E946E3CB601CE013E
S113105001960E94EF3B66E075E0CE0107960E9480
S1131060EF3BBE016F5F7F4FCE0107960E94C43DE8
S1131070BC018AE29BE00E949E3DCE0107960E943D
S1131080883BCE0101960E94883B6CE173E08AE2C2
S11310909BE00E94A43D63E973E08AE29BE00E9426
S11310A0A43D6CE173E08AE29BE00E94A43D6DE301
S11310B074E08AE29BE00E94A43D6CE173E08AE262
S11310C09BE00E94A43D6DE075E08AE29BE00E94F3
S11310D0A43D6CE173E08AE29BE00E94A43DF70129
S11310E0648175816B5E7F4F4AE0CE0101960E9458
S11310F0EF3C6DE775E0CE0107960E94EF3BBE0121
S11311006F5F7F4FCE0107960E94C43DBC018AE207
S11311109BE00E949E3DCE0107960E94883BCE0133
S113112001960E94883B6CE173E08AE29BE00E9496
S1131130A43D6CE173E08AE29BE00E94A43DB70108
S11311408AE29BE00E949E3D6CE173E08AE29BE0B0
S11311500E94A43D6AE27BE084E19DE00E94443960
S11311606AE27BE0C8010E941B39FFEF23EC89E0AF
S1131170F15020408040E1F700C000006CE574E0CD
S1131180C8010E945439C8010E943139EFE3FCE9D7
S11311903197F1F700C0000069E175E0CE010D96CA
S11311A00E94EF3BC8010E940829892B09F44CC016
S11311B02091210B3091220B809153019091540185
S11311C02817390708F040C0C8010E941229F82ED8
S11311D06DE17BE0CE0101960E945B3C6F2DCE0158
S11311E001960E94EC3DBC018DE19BE00E94463CCF
S11311F0CE0101960E94883BD5CF8DE49BE00E94EE
S1131200683041E060E08DE49BE00E946E306EE661
S113121074E08DE49BE00E94293943E060E08DE4B2
S11312209BE00E946E3063E874E08DE49BE00E94D2
S11312302939FFEF23ED80E3F15020408040E1F7AE
S113124000C0000080E038C06DE17BE0CE0107966D
S11312500E945B3CBE01695F7F4FCE010196FBDCBF
S1131260BE016F5F7F4FCE010D960E94633CCE019D
S113127001960E94883BCE0107960E94883B9FEF0F
S1131280E7EEF3E09150E040F040E1F700C00000E9
S113129068E974E0CE010D960E94F83D882351F070
S11312A081E0DCD8B7D811E0CE010D960E94883BCE
S11312B0812F02C010E0F8CF62960FB6F894DEBF1B
S11312C00FBECDBFDF91CF911F910F91FF90EF9093
S11312D0DF90CF90BF90AF9008955798569888E0CC
S11312E08093680080EC8093730078940895099843
S11312F00A98089591E090936800843419F40D9845
S113130080E202C00E9880E480936B007894089584
S1131310CF92DF92EF92FF92BC01990F880B990B49
S11313200E940E376B017C0120E030E0A9010E948D
S11313306F3687FF03C0C12CD12C76016091510117
S113134070915201072E000C880B990B0E940E37E6
S11313509B01AC01C701B6010E947336FF90EF9068
S1131360DF90CF9008953F9A8130910571F08230DB
S11313709105E1F0892B89F547982FEF30E742E09A
S1131380215030404040E1F70EC028B101C0880F21
S11313906A95EAF7822B88B98FEF90E722E08150B3
S11313A090402040E1F700C00000089528B181E09A
S11313B090E001C0880F6A95EAF7982F90959223E0
S11313C098B93FEF45EA2EE0315040402040E1F724
S11313D000C0000098B1892B88B908950F9A813014
S11313E09105B9F08230910529F1892BD1F522B10B
S11313F081E090E001C0880F6A95EAF78095822326
S113140082B92FEF30E742E0215030404040E1F70D
S11314100EC022B101C0880F6A95EAF7822B82B907
S11314208FEF90E722E0815090402040E1F700C028
S11314300000089522B181E090E001C0880F6A9510
S1131440EAF7982F9095922392B93FEF45EA2EE060
S1131450315040402040E1F700C0000092B1892B98
S113146082B90895239A2FEF36E741E021503040A6
S11314704040E1F700C000008130910511F42B9A3F
S11314800895892B09F42B9808956EEE71E08DE18F
S11314909BE00E946E3C1092250B1092240B10923C
S11314A0650B69E175E08FE69BE00E946E3C69E1A3
S11314B075E085E79BE00E946E3C65E878E08BE789
S11314C09BE00E946E3C1092230B67E070E081E089
S11314D090E049DF67E070E081E090E07FDF80E04A
S11314E090E0C0DF8FE19EE40197F1F700C00000B7
S11314F083EA9AE00E94502983EA9AE00E9495299F
S11315008FE19EE40197F1F700C0000080EB9AE0C0
S11315100E94502980EB9AE00E9495291092290B91
S11315201092280B8FE19EE40197F1F700C00000B0
S11315302C988FE19EE40197F1F700C000002C9AEB
S11315408FE19EE40197F1F700C000000E9495012D
S11315508FE19EE40197F1F700C000000E9493011F
S113156082B182B982B182B96EEE71E08BED9AE0FC
S11315700E946E3C6EEE71E081EE9AE00E946E3C39
S11315806EEE71E081EE9AE00E946E3C8DE49BE089
S11315900E9458308DE49BE00E94B0301092930A70
S11315A01092940A1092950A1092960A10928F0A39
S11315B01092900A1092910A1092920A0E940A02C2
S11315C06EE875E084E19DE00E9454390E940A02AD
S11315D06EEE71E08FE79AE00E946E3C8FEF9FEF12
S11315E09093270B8093260B0895CF93DF93CDB769
S11315F0DEB762970FB6F894DEBF0FBECDBF81345D
S113160021F1D8F4833209F486C08A3209F0B3C0D8
S11316106EEE71E08FE79AE00E946E3C63EA75E03B
S11316208BED9AE00E946E3C6EEE71E081EE9AE0E2
S11316300E946E3C6EEE71E08FC0833409F451C099
S1131640A0F08E3409F4D2C096C08091830A9091A0
S1131650840A059709F0CAC06FE77AE0CE010196C3
S11316600E945B3C6FE975E00FC08091830A909102
S1131670840A059709F0BAC06FE77AE0CE010196B3
S11316800E945B3C61EA75E0CE0101960E94D53D63
S1131690BC01CE0107960E945B3CCE0101960E94DC
S11316A0883B20E030E047E050E0BE01635F7F4FBD
S11316B0CE0107960E94163EBE01635F7F4FCE01A6
S11316C0019695D88FE39CE90197F1F700C00000DB
S11316D0CE0101960E94883BCE0107960E94883B6A
S11316E085C02091830A3091840A2115310509F4BB
S11316F07DC02150310940E050E06FE77AE0CE012F
S113170001960E94443EBE016F5F7F4F8FE79AE0CF
S11317100E94633C3CC08091830A9091840A05979F
S113172009F064C06FE77AE085E79BE00E94463CDD
S113173065E77BE08FEF9AE00E94463C64EE75E03B
S11317408BED9AE00E946E3C68EF75E081EE9AE0C2
S11317500E946E3C67E076E087EE9AE00E946E3C61
S113176060912201709123018091240190912501BF
S11317700E94B6033BC0682FCE0101960E94833CB1
S1131780BE016F5F7F4F8FE79AE00E949E3DCE01BE
S113179001960E94883B66EB75E08BED9AE00E940F
S11317A06E3C68EC75E0CE0101960E94EF3B6FE75A
S11317B07AE0CE0101960E94C43DBC0181EE9AE01C
S11317C00E94463CCE0101960E94883B6FEC75E076
S11317D087EE9AE00E946E3C6091260B7091270B75
S11317E04AE050E085ED9AE00E94810362960FB6CC
S11317F0F894DEBF0FBECDBFDF91CF910895CF9394
S1131800DF9300D000D000D0CDB7DEB7833460F4CE
S1131810813408F0BFC08A3209F4BCC08E3209F4A6
S1131820B9C0833209F17BC0833421F08E3409F0CE
S113183076C0B0C020917D0A30917E0A2115310511
S113184009F47DC02150310940E050E069E77AE0B5
S1131850CE0101960E94443EBE016F5F7F4F89E72F
S11318609AE00E94633C67C080917D0A90917E0A51
S1131870049709F08FC06FE975E08FE69BE00E9442
S1131880F83D882351F067E070E080E090E06BDD84
S113189084E430DD6FEF75E011C061EA75E08FE636
S11318A09BE00E94F83D882369F067E070E080E0E7
S11318B090E094DD82E41EDD6EE076E087EE9AE04F
S11318C00E946E3C69E77AE08BE79BE00E94463C0D
S11318D06BE77BE081E19BE00E94463C66E376E0B7
S11318E08BED9AE00E946E3C6EEE71E081EE9AE020
S11318F00E946E3C0E9495018FE39FE10197F1F7EE
S113190000C000000E94930160911E0170911F01AC
S113191080912001909121010E94B6033BC0682F61
S1131920CE0101960E94833CBE016F5F7F4F89E721
S11319309AE00E949E3DCE0101960E94883B66E19A
S113194076E08BED9AE00E946E3C67E276E0CE0191
S113195001960E94EF3B69E77AE0CE0101960E946E
S1131960C43DBC0181EE9AE00E94463CCE01019642
S11319700E94883B6BE276E087EE9AE00E946E3C20
S11319806091260B7091270B4AE050E085ED9AE0B8
S11319900E94810326960FB6F894DEBF0FBECDBF1A
S11319A0DF91CF9108954F925F926F927F928F92C1
S11319B09F92AF92BF92CF92DF92EF92FF920F93DA
S11319C01F93CF93DF9300D000D000D0CDB7DEB704
S11319D07C015B014DB65EB66EE477E00E94EF3B9E
S11319E0F501C284D3848DB79EB78C199D090FB6B7
S11319F0F8949EBF0FBE8DBFEDB7FEB731964F0171
S1131A003F01F50104851585C00ED11E0C151D0579
S1131A104CF4C8010E949145F30181933F010F5F8B
S1131A201F4FF4CF61EF71E084E19DE00E945439CF
S1131A3061EF71E084E19DE00E945439B401CE016C
S1131A4001960E94EF3BBE016F5F7F4FC7010E946A
S1131A50633CCE0101960E94883BB501CE010196FC
S1131A600E945B3C6AE178E0CE0101960E94D53D7C
S1131A70BC0184E19DE00E941B39CE0101960E94C5
S1131A80883BB70184E19DE00E944439C7010FB649
S1131A90F8945EBE0FBE4DBE26960FB6F894DEBF18
S1131AA00FBECDBFDF91CF911F910F91FF90EF90AB
S1131AB0DF90CF90BF90AF909F908F907F906F906A
S1131AC05F904F9008954F925F926F927F928F92A2
S1131AD09F92AF92BF92CF92DF92EF92FF920F93B9
S1131AE01F93CF93DF93CDB7DEB72C970FB6F8943F
S1131AF0DEBF0FBECDBF7C016B012A016DB67EB681
S1131B006EE477E00E94EF3B8DB79EB78C199D0978
S1131B100FB6F8949EBF0FBE8DBFEDB7FEB73196DA
S1131B205F0161EF71E084E19DE00E94543966E455
S1131B3076E084E19DE00E94543961EF71E084E134
S1131B409DE00E94543945018201C40CD51C0C153A
S1131B501D055CF5C8010E949145F40181934F0174
S1131B60882301F14AE0682FCE0107960E949A3C2F
S1131B7061EF71E0CE0101960E94EF3BBE01695F07
S1131B807F4FCE0101960E94C43DBC0184E19DE0DB
S1131B900E941B39CE0101960E94883BCE01079614
S1131BA00E94883B0F5F1F4FD2CF61EF71E084E149
S1131BB09DE00E94543961EF71E084E19DE00E9450
S1131BC05439B501CE0101960E94EF3BBE016F5F0F
S1131BD07F4FC7010E94633CCE0101960E94883B5F
S1131BE069E576E084E19DE00E942939B70184E14A
S1131BF09DE00E944439C7010FB6F8947EBE0FBE23
S1131C006DBE2C960FB6F894DEBF0FBECDBFDF912C
S1131C10CF911F910F91FF90EF90DF90CF90BF90E5
S1131C20AF909F908F907F906F905F904F900895AA
S1131C308F929F92AF92BF92CF92DF92EF92FF92D8
S1131C400F931F93CF93DF93CDB7DEB72C970FB6C7
S1131C50F894DEBF0FBECDBF6B014A01ADB6BEB670
S1131C602DB73EB7261B370B0FB6F8943EBF0FBEF9
S1131C702DBFEDB7FEB731967F01FC01448155813C
S1131C804F5F5F4F20E030E0B7010E94163E4AE00C
S1131C90B601CE0107960E94C53C6DEF71E0CE01FE
S1131CA001960E94EF3BBE01695F7F4FCE01019612
S1131CB00E94C43DBC0184E19DE00E944439CE01F0
S1131CC001960E94883BCE0107960E94883B64E0FF
S1131CD072E084E19DE00E94543961EF71E084E197
S1131CE09DE00E9454398401C80CD91C0C151D05B3
S1131CF06CF5F7016081662319F1C8010E949945CA
S1131D00F7016081CE0107960E94833C61EF71E088
S1131D10CE0101960E94EF3BBE01695F7F4FCE0169
S1131D2001960E94C43DBC0184E19DE00E941B39E0
S1131D30CE0101960E94883BCE0107960E94883B03
S1131D400F5F1F4FFFEFEF1AFF0AD0CF61EF71E073
S1131D5084E19DE00E94543981E00FB6F894BEBE40
S1131D600FBEADBE2C960FB6F894DEBF0FBECDBF2E
S1131D70DF91CF911F910F91FF90EF90DF90CF9063
S1131D80BF90AF909F908F9008950F931F93CF9320
S1131D90DF93EC018B010E945B3CB8016A5F7F4FCB
S1131DA0CE0106960E945B3CF801848595859D874B
S1131DB08C87DF91CF911F910F910895CF93DF937B
S1131DC0EC0106960E94883BCE01DF91CF910C94E2
S1131DD0883BFC01DB0112968D919C9113979383B0
S1131DE0828314964D915D916D917C9117974483F4
S1131DF055836683778318964D915D916D917C919F
S1131E001B97408751876287738782ED99E091839E
S1131E1080831C968C9184870895CF92DF92EF92F1
S1131E20FF920F931F93CF93DF93CDB7DEB7AA979B
S1131E300FB6F894DEBF0FBECDBFE091260BF09134
S1131E40270B3296ED30F10508F097C7EA5BFF4F98
S1131E500C9406400E940A0260E776E084E19DE06B
S1131E600E9429396091BD0B7091BE0BCE01019681
S1131E708CDFBE016F5F7F4FCE01859694DDCE016E
S1131E8001969CDF49A55AA54F5F5F4F20E030E0E3
S1131E9064E371E0CE0185960E94163E0E940A0218
S1131EA06091BD0B7091BE0B625F7F4FCE010196B6
S1131EB06CDFBE016F5F7F4FCE014F9674DDCE01A4
S1131EC001967CDF0E940A026091BD0B7091BE0BEB
S1131ED0645E7F4FCE01019658DFBE016F5F7F4F76
S1131EE0CE01479660DDCE01019668DF0E940A02AA
S1131EF06091BD0B7091BE0B665D7F4FCE01019664
S1131F0044DFBE016F5F7F4FCE010F964CDDCE01E3
S1131F10019654DF4B895C894F5F5F4F20E030E0CE
S1131F2066E471E0CE010F960E94163E0E940A02FA
S1131F308091260B9091270B01969093270B809309
S1131F40260BCE010F960E94883BCE0147960E9435
S1131F50883BCE014F960E94883BCE0185960BC7E5
S1131F602FEF39EF80E0215030408040E1F700C08E
S1131F700000B3D99FEF29EF30E09150204030406A
S1131F80E1F700C00000B3D98FEF99EF20E0815052
S1131F9090402040E1F700C000008091260B909112
S1131FA0270B01969093270B8093260BE6C63FEFF1
S1131FB083ED90E3315080409040E1F700C0000091
S1131FC01092650B0E94930169E876E08BED9AE02C
S1131FD00E946E3C6EEE71E081EE9AE00E946E3CCF
S1131FE06DE976E087EE9AE00E946E3C6091260BE4
S1131FF07091270B42E350E085ED9AE00E94810343
S11320008091260B9091270B01969093270B809338
S1132010260B2FEF39E688E1215030408040E1F76C
S113202000C00000AAC66EEE71E08FE79AE00E943D
S11320306E3C6EEE71E089E79AE00E946E3C6BE8BC
S113204072E0CE0147960E94EF3B8091650B8111AF
S113205016C0CE0101960E94C505BE016F5F7F4F79
S1132060CE0147960E94633CCE0101960E94883BB4
S113207044E650E060E070E082E00E947D026BE89C
S113208072E0CE0147960E94F83D811102C0449B44
S1132090C0C666EB75E08BED9AE00E946E3C68EC7E
S11320A075E081EE9AE00E946E3C6FEC75E087EE7D
S11320B09AE00E946E3CBE01695E7F4FCE010F968E
S11320C00E945B3C63EA7AE0CE01019682DE9E01C7
S11320D0215F3F4FAE014F5F5F4F64E371E080E5E6
S11320E090E00E949606182FCE010F960E94883B1E
S11320F0449A112309F16AEC77E087E19BE00E949E
S11321006E3C48EC50E060E070E081E00E947D02AB
S11321109FEF20E732E0915020403040E1F700C0CB
S1132120000060912A0170912B0180912C01909103
S11321302D010E94B60337C060EB76E087E19BE097
S11321400E946E3C48EC50E060E070E083E00E9446
S11321507D028DE49BE00E94683064EB76E08BEDB9
S11321609AE00E946E3C68EC76E081EE9AE00E9470
S11321706E3C6EEE71E087EE9AE00E946E3C6091D8
S1132180260B7091270B4AE050E085ED9AE00E94FF
S113219081038FEF93ED20E3815090402040E1F7DD
S11321A000C0000072D9CE014796E5C540E060E06A
S11321B08DE49BE00E946E3061E08DE49BE00E9420
S11321C02A3940918F0A5091900A6091910A709136
S11321D0920A80918B0A90918C0AA0918D0AB091F9
S11321E08E0A480F591F6A1F7B1F4150510961090C
S11321F071098091930A9091940AA091950AB091E3
S1132200960A481B590B6A0B7B0B2AE0CE010F96EA
S11322100E94193D6CEF76E0CE0101960E94EF3BDF
S1132220BE01615F7F4FCE0101960E94C43D6AEDFD
S113223076E00E94D53DBC018DE49BE00E941B39F1
S1132240CE0101960E94883BCE010F960E94883BE6
S11322506CE386E79AE00E94F11D86E79AE00E940B
S1132260081EE82E42E0BE01695E7F4F90E00E94A6
S1132270C34263EC86E79AE00E94F11D86E79AE088
S11322800E94081EF82E42E0BE01615F7F4F90E07D
S11322900E94C342FE24EF2CF12C42E0BE016F5F8A
S11322A07F4FC7010E94C342C7010E949B023FEFB8
S11322B099EF20E0315090402040E1F700C0000049
S11322C094D95BC540E060E08DE49BE00E946E30F1
S11322D061E08DE49BE00E942A3940918F0A50917D
S11322E0900A6091910A7091920A80918B0A909160
S11322F08C0AA0918D0AB0918E0A480F591F6A1F4B
S11323007B1F41505109610971098091930A909191
S1132310940AA091950AB091960A481B590B6A0B2E
S11323207B0B2AE0CE010F960E94193D6CEF76E0FC
S1132330CE0101960E94EF3BBE01615F7F4FCE014B
S113234001960E94C43D6AED76E00E94D53DBC0131
S11323508DE49BE00E941B39CE0101960E94883BCC
S1132360CE010F960E94883B8091830A9091840A43
S11323700597E9F469E175E08FE69BE00E946E3C05
S11323806FE77AE085E79BE00E94463C65E878E0E9
S11323908BE79BE00E946E3C1092230B609122011C
S11323A07091230180912401909125012EC760E052
S11323B0CE010F960E94E2048FE39CE90197F1F7A6
S11323C000C00000BE01615F7F4F84E19DE00E9478
S11323D044392B893C8945E050E0BE01615F7F4F61
S11323E0CE0101960E94443EBE016F5F7F4F8FE68F
S11323F09BE00E94633CCE0101960E94883B25E04D
S113240030E040E050E0BE01615F7F4FCE010196B5
S11324100E94443EBE016F5F7F4F85E79BE00E94B0
S1132420633CCE0101960E94883B65E878E08BE727
S11324309BE00E946E3C60EE76E0CE0101960E9425
S1132440EF3B6FE67BE0CE0101960E94C43DBC01E8
S113245084E19DE00E944439CE0101960E94883BAC
S113246062EF76E0CE0101960E94EF3B65E77BE0E8
S1132470CE0101960E94C43DBC0184E19DE00E940E
S11324804439CE0101960E94883B61EA75E08FE6EB
S11324909BE00E94F83D811127C56FE975E08FE646
S11324A09BE00E94F83D81111FC5CE010F9663C4C5
S11324B040E060E08DE49BE00E946E3061E08DE4DA
S11324C09BE00E942A3940918F0A5091900A6091B2
S11324D0910A7091920A80918B0A90918C0AA09132
S11324E08D0AB0918E0A480F591F6A1F7B1F4150F5
S11324F05109610971098091930A9091940AA091FC
S1132500950AB091960A481B590B6A0B7B0B2AE07B
S1132510CE010F960E94193D6CEF76E0CE01019634
S11325200E94EF3BBE01615F7F4FCE0101960E9486
S1132530C43D6AED76E00E94D53DBC018DE49BE08C
S11325400E941B39CE0101960E94883BCE010F9652
S11325500E94883B61EA75E08FE69BE00E94F83DAB
S11325608111F9C48091230B823009F020C5F3C492
S113257040E060E08DE49BE00E946E3061E08DE419
S11325809BE00E942A3940918F0A5091900A6091F1
S1132590910A7091920A80918B0A90918C0AA09171
S11325A08D0AB0918E0A480F591F6A1F7B1F415034
S11325B05109610971098091930A9091940AA0913B
S11325C0950AB091960A481B590B6A0B7B0B2AE0BB
S11325D0CE010F960E94193D6CEF76E0CE01019674
S11325E00E94EF3BBE01615F7F4FCE0101960E94C6
S11325F0C43D6AED76E00E94D53DBC018DE49BE0CC
S11326000E941B39CE0101960E94883BCE010F9691
S11326100E94883B6CE386E79AE00E94F11D86E7FE
S11326209AE00E94081EE82E42E0BE01695E7F4FD8
S113263090E00E94C34263EC86E79AE00E94F11D99
S113264086E79AE00E94081EF82E42E0BE01615F10
S11326507F4F90E00E94C342FE24EF2CF12C42E015
S1132660BE016F5F7F4FC7010E94C342C7010E9432
S11326709B029FEF29EF30E0915020403040E1F77A
S113268000C00000BCD81092250B1092240B75C317
S113269040E060E08DE49BE00E946E3061E08DE4F8
S11326A09BE00E942A3940918F0A5091900A6091D0
S11326B0910A7091920A80918B0A90918C0AA09150
S11326C08D0AB0918E0A480F591F6A1F7B1F415013
S11326D05109610971098091930A9091940AA0911A
S11326E0950AB091960A481B590B6A0B7B0B2AE09A
S11326F0CE010F960E94193D6CEF76E0CE01019653
S11327000E94EF3BBE01615F7F4FCE0101960E94A4
S1132710C43D6AED76E00E94D53DBC018DE49BE0AA
S11327200E941B39CE0101960E94883BCE010F9670
S11327300E94883B019B08C06FE975E08FE69BE02F
S11327400E94F83D811176C4199B17C361EA75E0B4
S11327508FE69BE00E94F83D8111B5C40EC340E0B2
S113276060E08DE49BE00E946E3061E08DE49BE0CC
S11327700E942A3940918F0A5091900A6091910ADF
S11327807091920A80918B0A90918C0AA0918D0A83
S1132790B0918E0A480F591F6A1F7B1F415051097F
S11327A0610971098091930A9091940AA091950A04
S11327B0B091960A481B590B6A0B7B0B2AE0CE0199
S11327C00F960E94193D6AEF76E0CE0101960E94B1
S11327D0EF3BBE01615F7F4FCE0101960E94C43D75
S11327E06AED76E00E94D53DBC018DE49BE00E9439
S11327F01B39CE0101960E94883BCE010F960E94A0
S1132800883B8091240B9091250B0E9488096B01D1
S11328107C0122E0AB01BC01CE010F960E94443D35
S113282064E077E0CE0101960E94EF3BBE01615F58
S11328307F4FCE0101960E94C43DBC018BED9AE00E
S11328400E94463CCE0101960E94883BCE010F9621
S11328500E94883B6091240B7091250B4AE0CE01C5
S11328600F960E94C53C6CE077E0CE0101960E9471
S1132870EF3BBE01615F7F4FCE0101960E94C43DD4
S1132880BC0181EE9AE00E94463CCE0101960E9472
S1132890883BCE010F960E94883B62E177E0CE012F
S11328A001960E94EF3B60E37BE0CE0101960E941B
S11328B0C43DBC0187EE9AE00E94463CCE010196DD
S11328C00E94883B41E060E08DE49BE00E946E3012
S11328D06BED7AE08DE49BE00E941B3942E060E0FE
S11328E08DE49BE00E946E3061EE7AE08DE49BE023
S11328F00E941B3943E060E08DE49BE00E946E304F
S113290067EE7AE08DE49BE00E941B39019908C0D0
S11329106FE975E08FE69BE00E94F83D81111AC4CF
S113292019992BC261EA75E08FE69BE00E94F83D9D
S113293081113FC422C260E37BE08BED9AE00E94E8
S1132940463C6FE177E081EE9AE00E946E3C6EEEC9
S113295071E087EE9AE00E946E3C6091260B7091C4
S1132960270B44E650E085ED9AE00E9481036EEE69
S113297071E08DEE9AE00E946E3C09EF1AE02DE1C1
S1132980E22E2BE0F22EB801CE0101960E945B3CB0
S11329906DE277E0CE0101960E94D53DBC018DEE3B
S11329A09AE00E949E3DCE0101960E94883B0A5FF8
S11329B01F4FE016F10639F766E471E08DEE9AE0F8
S11329C00E94A43D6FE277E0CE0101960E94EF3BA6
S11329D06DEE7AE0CE0101960E94C43DBC0184E113
S11329E09DE00E944439CE0101960E94883B0E94DA
S11329F095018FE39FE10197F1F700C000000E9469
S1132A0093019FEF23ED30E3915020403040E1F7F4
S1132A1000C000006EE170E080E090E0F6C34499ED
S1132A20ACC14AE050E069E070E085ED9AE00E94B4
S1132A3081036EEE71E08DEE9AE00E946E3C09EF28
S1132A401AE09DE1E92E9BE0F92EB801CE01019632
S1132A500E945B3C6DE277E0CE0101960E94D53D79
S1132A60BC018DEE9AE00E949E3DCE0101960E942B
S1132A70883B0A5F1F4FE016F10639F766E471E000
S1132A808DEE9AE00E94A43D6FE277E0CE010196BC
S1132A900E94EF3B6DEE7AE0CE0101960E94C43DA8
S1132AA0BC0184E19DE00E944439CE0101960E945C
S1132AB0883B8FEF93ED20E3815090402040E1F775
S1132AC000C000006DEE7AE0CE010F960E945B3CE0
S1132AD060EB7AE0CE0101967CD99E01215F3F4FE5
S1132AE0AE014F5F5F4F64E371E080E590E00E94C8
S1132AF0F007182FCE010F960E94883B112351F145
S1132B000E9495013FEF83EC99E031508040904062
S1132B10E1F700C000006AE377E084E19DE00E94F1
S1132B20543961E577E084E19DE00E9454398FE3F4
S1132B309FE10197F1F700C000000E9493018FE329
S1132B409FE10197F1F700C000006CE370E080E0C2
S1132B5090E05BC30E9495014BE054E064E070E0B8
S1132B60CE014F960E94630DCE014F960E94E03E27
S1132B706B017C010091F10A1091F20A6DEE7AE08A
S1132B80CE0101960E945B3CA601B801CE010196DC
S1132B904FD8182FCE0101960E94883B112309F4C7
S1132BA0E6C04AE0B601CE010F960E94C53C6EE82D
S1132BB077E0CE0101960E94EF3BBE01615F7F4F3B
S1132BC0CE0101960E94C43DBC0184E19DE00E94B7
S1132BD04439CE0101960E94883BCE010F960E9493
S1132BE0883B92E3C90ED11C29EBC2162BE0D20616
S1132BF024F080EDC82E87E0D82E4AE0B601CE013D
S1132C0047960E94C53C0B8D1C8DBE01695E7F4FAB
S1132C10CE0101960E945B3C4BE054E0B801CE012A
S1132C20019606D8182FCE0101960E94883B1123E5
S1132C3001F14AE0B601CE010F960E94C53C64EA58
S1132C4077E0CE0101960E94EF3BBE01615F7F4FAA
S1132C50CE0101960E94C43DBC0184E19DE00E9426
S1132C604439CE0101960E94883BCE010F960E9402
S1132C70883BCE0147960E94883B79C04BE054E0E4
S1132C8064E070E0CE014F960E94630DCE014F9632
S1132C900E94E03E7B0100ED17E00E151F050CF0CD
S1132CA04BC0A80162E370E0CE0147960E94630D19
S1132CB068EB77E0CE0101960E94EF3BBE01695EAE
S1132CC07F4FCE0101960E94C43DBC0184E19DE08A
S1132CD00E944439CE0101960E94883BBE01695E80
S1132CE07F4FCE010F960E945B3C60EB7AE0CE01F1
S1132CF001966FD89E01215F3F4FAE014F5F5F4F3A
S1132D0064E371E080E590E00E94F007CE010F9645
S1132D100E94883B0E5C1F4F3FEF83EC99E03150DB
S1132D2080409040E1F700C000000E940A02CE01FA
S1132D3047960E94883BB1CF013D27E01207BCF0C3
S1132D4069EC77E0CE0101960E94EF3B4BE054E042
S1132D5064E070E0CE0101960E94180ECE01019647
S1132D600E94883BB80180ED97E00E9446020E94D1
S1132D70450ACE014F960E94883B67E97AE0CE016E
S1132D8001960E94AA2386E0FE013196A5E8BAE0E6
S1132D9001900D928A95E1F785E89AE00E94FB2262
S1132DA06093930A7093940A8093950A9093960A79
S1132DB000918F0A1091900A2091910A3091920A01
S1132DC0C0908B0AD0908C0AE0908D0AF0908E0A05
S1132DD00C0D1D1D2E1D3F1D68017901C61AD70A51
S1132DE0E80AF90AD701C6010297A105B10508F05E
S1132DF00FC28091260B9091270B069719F00E9421
S1132E00450A06C26EE170E080E090E00E94B603DD
S1132E10FFC16EEE71E084E19DE00E9454396EECD6
S1132E2077E084E19DE00E9429396EE078E0CE01EC
S1132E3001960E94EF3BBE01695E7F4FCE01019671
S1132E400E94C43DBC0184E19DE00E944439CE014E
S1132E5001960E94883B6EEC77E084E19DE00E943D
S1132E6029396DE178E084E19DE00E945439BE0186
S1132E70695E7F4F89EF9AE00E94463C8DE49BE0B7
S1132E800E9450308DE49BE00E94B6308FE39CE9B1
S1132E900197F1F700C0000062E478E08BED9AE05E
S1132EA00E946E3C64E578E081EE9AE00E946E3CFC
S1132EB067E678E087EE9AE00E946E3C6091260B0C
S1132EC07091270B44E650E085ED9AE00E9481035F
S1132ED00E9497019FEF23ED30E391502040304052
S1132EE0E1F700C00000D5C865E77BE08FEF9AE00A
S1132EF00E94463C6FE67BE085E09BE00E94463CF6
S1132F0062EF76E0CE0101960E94EF3B65E77BE03D
S1132F10CE0101960E94C43DBC0187EE9AE00E9456
S1132F20463CCE0101960E94883B8FEF99E628E14A
S1132F30815090402040E1F700C000001092230B24
S1132F4060912201709123018091240190912501C7
S1132F500E94B603AACA61EA75E08FE69BE00E946C
S1132F606E3C6EE076E080E39BE00E946E3C6FE690
S1132F707BE085E09BE00E94463C66E176E08BEDD9
S1132F809AE00E946E3C67E276E081EE9AE00E944D
S1132F906E3C6BE276E087EE9AE00E946E3C3FEF77
S1132FA081EE94E0315080409040E1F738C06FE901
S1132FB075E08FE69BE00E94F83D811105C0809189
S1132FC0230B813009F0D9CE6FE975E08FE69BE0E1
S1132FD00E946E3C6FEF75E080E39BE00E946E3CC4
S1132FE06FE67BE085E09BE00E94463C66E176E08C
S1132FF08BED9AE00E946E3C67E276E081EE9AE007
S11330000E946E3C6BE276E087EE9AE00E946E3C92
S11330102FEF31EE84E0215030408040E1F700C0D2
S11330200000609126017091270180912801909100
S11330302901EBC06AE778E08BED9AE00E946E3CD0
S11330406091240B7091250B4AE0CE010F960E94EB
S1133050C53C6CE077E0CE0101960E94EF3BBE01D7
S1133060615F7F4FCE0101960E94C43DBC0181EE99
S11330709AE00E94463CCE0101960E94883BCE0114
S11330800F960E94883B62E177E0CE0101960E9490
S1133090EF3B60E37BE0CE0101960E94C43DBC019E
S11330A087EE9AE00E94463CCE0101960E94883B3E
S11330B060911A0170911B0180911C0190911D0176
S11330C00E94B60341CB6AE778E08BED9AE00E9458
S11330D06E3C6091240B7091250B4AE0CE010F9653
S11330E00E94C53C6CE077E0CE0101960E94EF3B64
S11330F0BE01615F7F4FCE0101960E94C43DBC01B9
S113310081EE9AE00E94463CCE0101960E94883BE3
S1133110CE010F960E94883B62E177E0CE010196D2
S11331200E94EF3B60E37BE0CE0101960E94C43D28
S1133130BC0187EE9AE00E94463CCE0101960E94B3
S1133140883B60911A0170911B0180911C01909140
S11331501D015BC022E0B701A601CE0101960E94C9
S1133160443DBE016F5F7F4F8BE09BE00E94633C58
S1133170CE0101960E94883B67E878E080E39BE0FB
S11331800E946E3C67E070E081E090E00E94EE09EE
S113319067E070E081E090E00E94B309609116015D
S11331A07091170180911801909119010E94B60342
S11331B0B7CB22E0B701A601CE0101960E94443D9F
S11331C0BE016F5F7F4F8BE09BE00E94633CCE01AA
S11331D001960E94883B67E878E080E39BE00E94C8
S11331E06E3C67E070E081E090E00E94EE0967E0E9
S11331F070E081E090E00E94B30960911601709143
S1133200170180911801909119010E94B603B5CD60
S1133210AA960FB6F894DEBF0FBECDBFDF91CF9153
S11332201F910F91FF90EF90DF90CF9008951F9220
S11332300F920FB60F9211240BB60F922F933F9358
S11332404F935F936F937F938F939F93AF93BF93AA
S1133250EF93FF938091260B9091270B079781F5AD
S1133260059B16C08091240B9091250B0196909399
S1133270250B8093240B60914D0170914E01809138
S11332804F01909150010E94DB36CB010E94FE0158
S1133290069B16C08091240B9091250B0196909368
S11332A0250B8093240B60914D0170914E01809108
S11332B04F01909150010E94DB36CB010E94FE0128
S11332C0FF91EF91BF91AF919F918F917F916F91FA
S11332D05F914F913F912F910F900BBE0F900FBEB6
S11332E00F901F9018951F920F920FB60F921124F2
S11332F08F939F938091260B9091270B049709F04D
S11333006AC04E9B1CC08091830B9091840B0196E4
S11333109093840B8093830B8091830B9091840B07
S1133320181619061CF51092840B1092830B109238
S1133330820B1092810B82E08093230B17C0809143
S1133340810B9091820B01969093820B8093810B59
S11333508091810B9091820B029744F01092840B20
S11333601092830B1092820B1092810B4F9B1CC006
S11333708091830B9091840B01969093840B80939E
S1133380830B8091830B9091840B181619061CF5FE
S11333901092840B1092830B1092820B1092810B6B
S11333A081E08093230B17C08091810B9091820B55
S11333B001969093820B8093810B8091810B909165
S11333C0820B029744F01092840B1092830B10929C
S11333D0820B1092810B9F918F910F900FBE0F90D3
S11333E01F9018958F92AF92CF92EF920F93CF9335
S11333F0DF9300E020E040E060E08FEB9BE00E9480
S1133400963861E771E085E89BE00E94EF3B62E853
S113341071E08BE89BE00E94EF3BC5E8DBE088EEBF
S113342093E09D878C8765E971E083E99BE00E94C6
S1133430EF3B6EE971E089E99BE00E94EF3B8CEF82
S113344093E09B8F8A8F6DEA71E081EA9BE00E9492
S1133450EF3B68EC71E087EA9BE00E94EF3B8BE076
S113346094E099A788A76EEC71E08FEA9BE00E9434
S1133470EF3B6BED71E085EB9BE00E94EF3B80E15D
S113348094E09FAB8EAB6EEE71E08FE69BE00E9402
S1133490EF3B6EEE71E085E79BE00E94EF3B6EEE42
S11334A071E08BE79BE00E94EF3B1F9283E08F93D8
S11334B087E0882E96E0A92E25E0C22E34E0E32E84
S11334C021E042E067E28DE49BE00E94ED3143E0BD
S11334D064E086E39BE0C6D367E978E080E39BE0A1
S11334E00E94EF3B6EEE71E08AE29BE00E94EF3BAC
S11334F06EEE71E08DE19BE00E94EF3B6EEE71E0B9
S113350089EF9AE00E94EF3B6EEE71E08FEF9AE054
S11335100E94EF3B6EEE71E085E09BE00E94EF3B82
S11335206EEE71E08BE09BE00E94EF3B6EEE71E08B
S113353081E19BE00E94EF3B6EEE71E087E19BE04E
S11335400E94EF3B6EEE71E083EF9AE00E94EF3B46
S11335506EEE71E08DEE9AE00E94EF3B69E175E05A
S113356085ED9AE00E94EF3B69E175E08BED9AE00E
S11335700E94EF3B69E175E081EE9AE00E94EF3B27
S113358069E175E087EE9AE00E94EF3B04E623E0F0
S113359048EA60EC8FEC9AE00E94963805E121E05D
S11335A048EA60EC89EC9AE00E94963801E020E059
S11335B048EA60EC83EC9AE00E94963800E020E050
S11335C04FEF6FEF8DEB9AE00E94963880EB9AE014
S11335D00E94532983EA9AE00E94532987E99AE0DA
S11335E00E94302340E050E0BA0185E89AE0CCD64E
S11335F06EEE71E08FE79AE00E94EF3B6EEE71E0B1
S113360089E79AE00E94EF3B0F900F9086E79AE0DB
S1133610DF91CF910F91EF90CF90AF908F9082C2B6
S1133620CF93DF9389E79AE00E94883B8FE79AE083
S11336300E94883B87E99AE00E94372387EE9AE04C
S11336400E94883B81EE9AE00E94883B8BED9AE0D1
S11336500E94883B85ED9AE00E94883B8DEE9AE0BB
S11336600E94883B83EF9AE00E94883BCDE1DBE037
S11336702697CE010E94883B8AE0C93FD807C1F74C
S11336808DE19BE00E94883B8AE29BE00E94883B9C
S113369080E39BE00E94883B8BE79BE00E94883B91
S11336A085E79BE00E94883B8FE69BE00E94883B75
S11336B08FEA9BE00E94DE0E81EA9BE00E94DE0E10
S11336C083E99BE00E94DE0E85E89BE0DF91CF91C9
S11336D00C94DE0ECF92DF92EF92FF920F931F9322
S11336E0CF93DF9300D000D000D0CDB7DEB72FEF5B
S11336F081EE94E0215080409040E1F700C000004A
S11337000E9495012FEF81EE94E02150804090407B
S1133710E1F700C000002C9A2FEF81EE94E02150D5
S113372080409040E1F700C00000289A2FEF81EE1E
S113373094E0215080409040E1F700C000002C9AB2
S11337402FEF81EE94E0215080409040E1F700C0DB
S11337500000149A2FEF81EE94E0215080409040B5
S1133760E1F700C000002B982FEF81EE94E0215088
S113377080409040E1F700C000002FEF81EE94E01C
S1133780215080409040E1F700C0000060EA78E0FA
S113379084E19DE00E9454390E940A0285E89BE07E
S11337A09093BE0B8093BD0B0E940A0265EB78E0F8
S11337B084E19DE00E9429394AE050E060E070E134
S11337C084E19DE00E94BD3961EF71E084E19DE0F8
S11337D00E94543960ED78E084E19DE00E9429392B
S11337E06EEE71E0CE0101960E94EF3B0E940A0248
S11337F03E9A3F9A0F9A8FE39CE90197F1F700C034
S11338000000479A8FE39CE90197F1F700C000009C
S1133810179A0E940A0220E044E064E18DE49BE0F0
S11338200E9473328DE49BE00E9450309FEF24E3AA
S11338308CE0915020408040E1F700C000008DE40E
S11338409BE00E9458309FEF24E38CE0915020408D
S11338508040E1F700C000008DE49BE00E945030FE
S11338609FEF24E38CE0915020408040E1F700C0BA
S113387000008DE49BE00E9458309FEF24E38CE02D
S1133880915020408040E1F700C0000045E551E040
S113389061E08DE49BE00E9436319FEF29EF80E0E8
S11338A0915020408040E1F700C000008DE49BE08F
S11338B00E94503005ED1AE06EEE71E0C8010E94DE
S11338C06E3C0A5F1F4F9AE00D3E1907A9F70E944C
S11338D00A0286E39BE0D7D12FEF80E792E02150E4
S11338E080409040E1F700C0000086E39BE070D385
S11338F06B017C01672B682B692B69F569EE78E015
S113390084E19DE00E9429398DE49BE00E945030BF
S11339102FEF84E39CE0215080409040E1F700C009
S113392000008DE49BE00E94683062E079E08DE461
S11339309BE00E9429392FEF87EA91E621508040CD
S11339409040E1F700C000006CE179E080E39BE087
S11339500E946E3C06C06FE279E084E19DE00E9423
S1133960543964E479E084E19DE00E9429394F2DC3
S113397055276627772720E130E084E19DE00E9407
S1133980C23963E579E084E19DE00E9429394E2D36
S113399050E060E070E02AE030E084E19DE00E94C5
S11339A0AB396EE284E19DE00E942A394D2D50E04E
S11339B060E070E02AE030E084E19DE00E94C239DA
S11339C06FEF86E39BE07AD386E39BE049D30E94C2
S11339D00A0240EA56E861E070E087E99AE08AD694
S11339E0811110C064EE71E084E19DE00E943439DD
S11339F02FEF83ED90E3215080409040E1F700C029
S1133A000000E7CF2FEF80E792E021508040904004
S1133A10E1F700C0000066EC71E084E19DE00E94E3
S1133A20343987E99AE0C4D70E940A0262E679E051
S1133A3084E19DE00E9454398EEB9CE00E94D635CF
S1133A4068E270E08EEB9CE00E94F33560E08EEB60
S1133A509CE00E94983560E08EEB9CE00E949835D3
S1133A608EEB9CE00E946A362FEF80E792E02150B3
S1133A7080409040E1F700C0000062E570E08EEB0A
S1133A809CE00E94F33560E08EEB9CE00E94983548
S1133A9060E58EEB9CE00E9498358EEB9CE00E94E2
S1133AA06A368EEB9CE00E94E53566E979E084E1B4
S1133AB09DE00E9454390E940A0260E286E79AE07F
S1133AC036D02CE340E063EC86E79AE036D08EEF04
S1133AD09FEF9093270B8093260B67EA79E080E3AE
S1133AE09BE00E946E3C60E37BE084E19DE00E94E9
S1133AF044390E940A020E940A020E940A02CE016C
S1133B0001960E94883B26960FB6F894DEBF0FBE3E
S1133B10CDBFDF91CF911F910F91FF90EF90DF9078
S1133B20CF900895FC011082118212820895FC0145
S1133B3060838EEB9CE00C94D635FF920F931F9319
S1133B40CF93DF93EC01F62E042F122F68818EEBB6
S1133B509CE00E94E93561E08EEB9CE00E94983580
S1133B606F2D8EEB9CE00E9498358EEB9CE00E94BA
S1133B706A3668818EEB9CE00E94E93562E08EEB48
S1133B809CE00E949835602F8EEB9CE00E94983553
S1133B908EEB9CE00E946A368FE39CE90197F1F773
S1133BA000C0000068818EEB9CE00E94E93563E070
S1133BB08EEB9CE00E949835612F8EEB9CE00E9476
S1133BC098358EEB9CE00E946A368FE39CE901975E
S1133BD0F1F700C00000DF91CF911F910F91FF908A
S1133BE00895CF93C62FFC0160818EEB9CE00E9468
S1133BF0E93563E08EEB9CE00E9498356C2F8EEBE8
S1133C009CE00E9498358EEB9CE0CF910C946A3630
S1133C10CF93DF93EC0168818EEB9CE00E94E93541
S1133C2060E08EEB9CE00E9498358EEB9CE00E9455
S1133C306A36688170E041E050E08EEB9CE00E94BF
S1133C406836C0E08EEB9CE00E940A35892B31F087
S1133C508EEB9CE00E941235C82FF4CF8C2FDF919D
S1133C60CF910895CF93DF93EC01862F6C834D831E
S1133C701D8A1E8A60E00E94F53A61E08D81DF9121
S1133C80CF910C94F53ACF93DF93EC018EEB9CE04B
S1133C900E94D63561E08D810E94313B60E08D81C8
S1133CA00E94313B60E971E080E090E00E944D3A6F
S1133CB061E08D810E94313B6AE070E080E090E039
S1133CC0DF91CF910C944D3A4F925F926F927F9215
S1133CD08F929F92AF92BF92EF92FF920F931F9396
S1133CE0CF93DF93CDB7DEB72C970FB6F894DEBF32
S1133CF00FBECDBF7C015A01280139016EEE71E07F
S1133D000E94EF3B8501812C912C5401841495046D
S1133D10A604B70409F446C0F80161918F0140E19B
S1133D20CE016031F0F401960E949A3CB701CE01B5
S1133D3007960E945B3C65E878E0CE0107960E94F6
S1133D40D53DBE016F5F7F4F0E94C43DBC01C701DA
S1133D500E94463CCE0107960E94883BCE01019604
S1133D6019C007960E949A3CB701CE0101960E94A1
S1133D705B3CBE01695F7F4FCE0101960E94C43D4A
S1133D80BC01C7010E94463CCE0101960E94883BBB
S1133D90CE0107960E94883BFFEF8F1A9F0AAF0A55
S1133DA0BF0AB4CF84E19DE00E943139C7012C964B
S1133DB00FB6F894DEBF0FBECDBFDF91CF911F9138
S1133DC00F91FF90EF90BF90AF909F908F907F9056
S1133DD06F905F904F900895FC0184810E945F3B37
S1133DE091E0811190E0892F0895CF92DF92EF92B4
S1133DF0FF921F93CF93DF936C017B01C0E0D0E06F
S1133E00C601EADF182F811115C0E114F10459F03D
S1133E102A96EC16FD0638F465EC79E084E19DE021
S1133E200E94543907C06AE070E080E090E00E948C
S1133E304D3AE6CF812FDF91CF911F91FF90EF9004
S1133E40DF90CF900895FF920F931F93CF93DF934A
S1133E50F62E072F142F62E070E080E090E00E94BD
S1133E604D3A42E0410F64E28EEB9CE00E946636DC
S1133E708EEB9CE00E941235CF2DD02FCE01810F06
S1133E80911D8C01C017D10761F061E070E080E002
S1133E9090E00E944D3A8EEB9CE00E94123589938B
S1133EA0F1CFDF91CF911F910F91FF900895CF93A0
S1133EB0DF9300D000D000D0CDB7DEB746E0BE011E
S1133EC06F5F7F4FC0DF46E050E063E671E0CE01F4
S1133ED001960E949C4221E0892B09F020E0822F68
S1133EE026960FB6F894DEBF0FBECDBFDF91CF91FB
S1133EF00895682F8EEB9CE00C949835CF92DF9256
S1133F00EF92FF920F931F93CF93DF937B01C1E056
S1133F10C40F62E070E080E090E00E944D3A64E2F9
S1133F2070E08EEB9CE00E94F33580E0E2DF80E0FD
S1133F30E0DF8FEFDEDF8C2FDCDF8C2F8195D9DF84
S1133F4084EDD7DFC12C83EDD82ED0E021970C2D42
S1133F5010E00C171D0754F40E0D1F1DF80180818D
S1133F60C8DFF8018081D80EC394F1CF8D2D8095E0
S1133F70C0DF80E0BEDF8EEB9CE0DF91CF911F912C
S1133F800F91FF90EF90DF90CF900C946A360F93CF
S1133F901F93CF93DF93EC018901B0DFB801CE0109
S1133FA024DF811102C080E00EC0CE0180DF8823AF
S1133FB0D1F39D89992339F0B801CE01DF91CF91D6
S1133FC01F910F9112CFDF91CF911F910F910895FF
S1133FD0CF93DF93EC0182E08093C50B28EE33E0AE
S1133FE041E065EC7BE0CE01D2DF811104C060E0EA
S1133FF070E0CB0132C04CE065EC7BE0CE0123DF06
S113400046E050E06DE571E085EC9BE00E949C4247
S1134010892B69F78D89811103C0E7E0F0E002C0C4
S1134020E6E0F0E0EB53F44F6081862F90E0A0E0EF
S1134030B0E0BA2FA92F982F88272181822BBA2F7D
S1134040A92F982F88272281822BBA2FA92F982F46
S113405088272381BC01CD01622BDF91CF91089584
S1134060CF93DF93EC0194E19093C50B81E08093AF
S1134070C60B9093C70B8093C80B28EE33E044E043
S113408065EC7BE0CE0183DF8823A9F048E065EC92
S11340907BE0CE01D8DE8D89811103C086E090E0FB
S11340A002C085E090E0FC01EB53F44F81E0908185
S11340B0953109F080E0DF91CF910895E5ECFBE0C4
S11340C022E3208325E021832FEF228321E0238331
S11340D0648328EE33E045E0BF0159CFAF92BF922D
S11340E0CF92DF92EF92FF920F931F93CF93DF93C0
S11340F0EC017A01590168018AE48093C50B81E0DF
S11341008093C60B6093C70B980143E065EC7BE09A
S1134110CE013DDF182F882341F18D89882379F062
S113412044E165EC7BE0CE018EDE8091CC0B8130E6
S1134130E1F48091D10BF501808380E006C0B601E3
S1134140CE0153DE8111ECCF10C09091D10B8917B1
S113415068F4282F30E0F901EB53F44F9585F7010B
S1134160E20FF31F90838F5FF0CF10E0812FDF9178
S1134170CF911F910F91FF90EF90DF90CF90BF9060
S1134180AF900895AF92BF92CF92DF92EF920F93C8
S11341901F93CF93DF93EC01142F5C018EE0A80EE4
S11341A0B11C86E0F601D50101900D928A95E1F7E4
S11341B050E0CE0106960E9483421D8780E48093DE
S11341C0C50B81E08093C60BE11002C080E601C0FC
S11341D081E68093C70B0093C80B86E0F501A9EC38
S11341E0BBE001900D928A95E1F780E04D8584173C
S11341F060F4282F30E0FE01E20FF31F9681F901ED
S1134200EB53F44F92878F5FF1CF465F28EE33E094
S113421065EC7BE0CE01BBDE882349F04CE065EC25
S11342207BE0CE0110DE81E09091CC0B911180E017
S1134230DF91CF911F910F91EF90DF90CF90BF90BE
S1134240AF9008950F931F93CF93DF93EC018A01EE
S113425080E48093C50B81E08093C60B80E3809358
S1134260C70B6093C80B28EE33E044E065EC7BE0B9
S1134270CE018DDE811102C080E012C04AE165ECFE
S11342807BE0CE01E0DD8091CC0B8111F5CF80E1A4
S1134290EDECFBE0D80101900D928A95E1F781E005
S11342A0DF91CF911F910F910895CF93DF93EC018C
S11342B080E48093C50B81E08093C60B80EA8093F1
S11342C0C70B6093C80B80E1FA01A9ECBBE0019035
S11342D00D928A95E1F728EE33E044E165EC7BE04A
S11342E0CE0155DE882369F06AE070E080E090E05A
S11342F00E944D3A4AE165EC7BE0CE01A4DD81E009
S113430001C080E0DF91CF910895803D27E09207BE
S113431010F0805D974050E0E8E2F2E021E02617DB
S113432030F43491430F511D2F5F3196F8CF633031
S113433038F09C0123703327232B11F44F5F5F4F18
S1134340BC016D5F7F4F7695679576956795EDE631
S1134350F1E08E9F90018F9F300D9E9F300D1124B0
S1134360C9010197860F971F840F951F0895FC01BB
S1134370908190539A3008F090E0818180532AE034
S1134380929F800D112408958F929F92AF92BF92B5
S1134390CF92DF92EF92FF92CF93DF93EC016A0109
S11343A07B0180E8C81A83E4D80A8DE6E80A88E32A
S11343B0F80A8CE3882E912CA12CB12CC701B601EC
S11343C0A50194010E94E43F6D83CA01B901A501CE
S11343D094010E94E43F6C83C701B60120E13EE0F2
S11343E040E050E00E94E43FCA01B90128E130E016
S11343F040E050E00E94E43F6B83C701B60120E82F
S113440031E541E050E00E94E43F18828881982F12
S1134410937041E050E011F040E050E0BA0163597C
S11344207E4F2617370738F0241B350B2D563140A5
S11344308F5F8883EBCF81E089838981E82FF0E067
S1134440E95DFD4FE491911103C0823009F4EF5FFF
S1134450F0E02E173F0720F02E1B3F0B8F5FECCFB1
S11344602F5F2A83DF91CF91FF90EF90DF90CF9061
S1134470BF90AF909F908F900895EF92FF920F930B
S11344801F93CF93DF93CDB7DEB72B970FB6F89476
S1134490DEBF0FBECDBF8C017A014BE050E0CE01F0
S11344A001960E947A42CE010A9661DFF801808368
S11344B0E9818E2F90E0FC01E154F109E331F1052B
S11344C048F5ED5AFF4F0C9406408A81813629F055
S11344D08B818E3621F087E01BC081E019C086E015
S11344E017C082E015C08B81823711F088E010C0BC
S11344F084E00EC08B81823711F085E009C083E02F
S113450007C089E005C08AE003C08BE001C08CE0ED
S1134510F8018183CE0105962ADFF801828348E001
S113452050E0B701CE0101960E947A42CE01019675
S11345301EDFF8018383CE01049619DFF80184831A
S1134540CE01079614DFF80185832B960FB6F894F5
S1134550DEBF0FBECDBFDF91CF911F910F91FF90B2
S1134560EF900895FC0180814281618190E0CDDE6D
S1134570069667E070E00C94D03F0895EF92FF92A6
S11345800F931F93CF93DF93EC0188814A81698154
S113459090E0BBDE9C01A8E1B0E00E940F402B81BB
S11345A07B018C01E20EF11C011D111DA801970174
S11345B0ACE3B0E00E941E402C817B018C01E20E32
S11345C0F11C011D111DA80197010E941E402D819F
S11345D0DC01CB01820F911DA11DB11DBC01CD01D8
S11345E060587C4B8249974CDF91CF911F910F917A
S11345F0FF90EF900895EF92FF920F931F93CF9344
S1134600DF93EC0188814A81698190E07EDE9C0120
S1134610A8E1B0E00E940F402B817B018C01E20EE7
S1134620F11C011D111DA8019701ACE3B0E00E942B
S11346301E402C817B018C01E20EF11C011D111D19
S1134640A80197010E941E402D81620F711D811DDA
S1134650911DDF91CF911F910F91FF90EF900895DD
S1134660FC0110821182128213821482089508952B
S11346700F931F93CF93DF93EC01062F142F68E65B
S11346808EEB9CE00E94E935602F8EEB9CE00E944B
S11346909835612F8EEB9CE00E9498358EEB9CE060
S11346A00E946A368883DF91CF911F910F910895FC
S11346B01F93CF93DF93EC01162F68E68EEB9CE0FB
S11346C00E94E935612F8EEB9CE00E9498358EEBB9
S11346D09CE00E946A36888341E068E68EEB9CE0A9
S11346E00E9466368EEB9CE00E941235DF91CF91DA
S11346F01F910895CF92DF92EF92FF92CF93DF93B1
S1134700EC016A017B018EEB9CE00E94D635B70177
S1134710A6018EEB9CE00E94E63568E68EEB9CE0F9
S11347200E94E9358EEB9CE00E946A3681110AC032
S113473062E0CE01BDDF482F4F7B62E0CE0198DFFF
S113474081E001C080E0DF91CF91FF90EF90DF9096
S1134750CF9008950F931F93CF93DF938C01EB01B8
S113476068E68EEB9CE00E94E93560E08EEB9CE00D
S11347700E9498358EEB9CE00E946A36888347E05D
S113478068E68EEB9CE00E9466368EEB9CE00E940D
S11347900A35079709F064C08EEB9CE00E9412353D
S11347A0982F9695969596959E70292F220F220FF5
S11347B0920F8F70890F8D838EEB9CE00E941235CF
S11347C0982F9695969596959E70292F220F220FD5
S11347D0920F8F70890F8E838EEB9CE00E941235AE
S11347E0982F9695969596959E70292F220F220FB5
S11347F0920F8F70890F8F838EEB9CE00E9412358D
S11348008EEB9CE00E941235982F9695969596957E
S11348109670292F220F220F920F8F70890F88878D
S11348208EEB9CE00E94123584FB992790F9990F36
S1134830292F220F220F920F8F70890F89878EEBF9
S11348409CE00E941235982F92959F708F702AE0F9
S1134850929F800D112490E08053984F9B878A8704
S11348602D813E814F81588569858A859B85803D50
S113487077E0970710F0805D9740F80180836183AB
S11348805283438334832583C801DF91CF911F91E1
S11348900F910895DF92EF92FF920F931F93CF939E
S11348A0DF9300D000D000D0CDB7DEB78C017B0100
S11348B0FB0185819AE0D92E6D2D0E94C43F492FBA
S11348C0F0E18F9F400D112460E0C801D1DEF701B3
S11348D084816D2D0E94C43F492FF0E18F9F400DCC
S11348E0112461E0C801C4DEF70183816D2D0E94AB
S11348F0C43F492FF0E18F9F400D112462E0C801AD
S1134900B7DEC7012FDE482F63E0C801B1DEF7012F
S113491082816D2D0E94C43F492FF0E18F9F400D8D
S1134920112464E0C801A4DEF70181816D2D0E9489
S1134930C43F492FF0E18F9F400D112465E0C80169
S113494097DEF70180816D2D0E94C43F492FF0E16D
S11349508F9F400D112466E0C8018ADE6FE0C80114
S1134960A7DE482F4F776FE0C80182DE6EE0C801F2
S11349709FDE482F4F776EE0C8017ADEB801CE0182
S11349800196E8DECE010196F9DDF80161837283B8
S11349908383948326960FB6F894DEBF0FBECDBFF3
S11349A0DF91CF911F910F91FF90EF90DF900895C9
S11349B00F931F93CF93DF9300D000D000D0CDB7D7
S11349C0DEB78C014FE152E063E172E0CE01019663
S11349D054DDBE016F5F7F4FC8015CDF26960FB6C2
S11349E0F894DEBF0FBECDBFDF91CF911F910F9121
S11349F008950F9300E020E040E060E085E09CE053
S1134A000E9496380F910895FB014281538164817D
S1134A107581FC01428353836483758317821682F4
S1134A200895CF93DF93DA01FB01EB0189918111A2
S1134A30FDCF80E090E020E030E04AE05191552342
S1134A40E9F02430310544F55E3269F48F3F910575
S1134A5009F014F5ED01C20FD31F8A832F5F3F4F76
S1134A6080E090E0EBCF489FB001499F700D112486
S1134A70852F90E0C097860F971FE0CF8F3F910559
S1134A8009F054F4243031053CF4FD01E20FF31F26
S1134A90828381E090E002C080E090E0DF91CF91DA
S1134AA008950F9300E020E040E060E08BE09CE09C
S1134AB00E9496380F9108958F929F92AF92BF9261
S1134AC0CF92DF92EF92FF920F931F93CF93DF93D6
S1134AD000D01F92CDB7DEB76C017B010E941C3A57
S1134AE0F601778366838601085F1F4FB6016A5F0C
S1134AF07F4F42E050E0C80130D581E090E09A83D6
S1134B00898342E050E0BE016F5F7F4FC80125D525
S1134B1080E091E09A83898342E050E0BE016F5FB8
S1134B207F4FC8011AD51A82198242E050E0BE01B3
S1134B306F5F7F4FC80111D542E050E0BE016F5F47
S1134B407F4FC8010AD542E050E0BE016F5F7F4F3E
S1134B50C80103D55701F50180818823F9F0A70125
S1134B605A01F50181916F01882321F08E3211F0F1
S1134B70A601F6CF4A018E189F081814190464F48C
S1134B808B8241E050E0BE016D5F7F4FC801E5D4E8
S1134B90A401B701C801E1D47601DDCF1B8241E055
S1134BA050E0BE016D5F7F4FC801D7D4E12CFF24D4
S1134BB0F394FA82E98242E050E0BE016F5F7F4FD6
S1134BC0C801CBD4FA82E98242E050E0BE016F5FB3
S1134BD07F4FC801C2D481E090E00F900F900F90F6
S1134BE0DF91CF911F910F91FF90EF90DF90CF90C5
S1134BF0BF90AF909F908F9008952F923F924F92C5
S1134C005F926F927F928F929F92AF92BF92CF9258
S1134C10DF92EF92FF920F931F93CF93DF93CDB761
S1134C20DEB763970FB6F894DEBF0FBECDBF7C012D
S1134C306B011A010E941C3A4B015C018701085F59
S1134C401F4F2601612C712CC80129D5181619068D
S1134C50A4F00E941C3ADC01CB0188199909AA0925
S1134C60BB09481659066A067B06D0F062E370E079
S1134C7080E090E00E944D3AE7CFF70142815381F2
S1134C8064817581818D928DA38DB48D48175907E8
S1134C906A077B0749F4858D968DC59729F409C069
S1134CA0EE24EA94FE2CF0C09EEFE92EFF24FA9441
S1134CB0EBC0C80108D40C970CF4E2C04CE050E0FF
S1134CC0BE016F5F7F4FC80183D48B819C8198277D
S1134CD0892798279A8B898BF701468157812981E7
S1134CE03A814217530711F497FD07C0C80105D450
S1134CF07CEFE72EFF24FA94C7C08F709270892B43
S1134D0039F0C801FAD36BEFE62EFF24FA94BCC045
S1134D10CF80D884DC24CD24DC24C114D10419F040
S1134D20E12CF12C1FC0C801E8D35AEFE52EFF2473
S1134D30FA94AAC041E050E0BE01635F7F4FC8010E
S1134D4047D48D85811117C08D858111F3CFC8019A
S1134D5017D4C80115D4C80113D4C80111D4FFEF66
S1134D60EF1AFF0A8D819E81982789279827E816D4
S1134D70F90600F309C08D859FEF980F9D8788235E
S1134D8019F3C801FDD3F7CFA12CB12C41E050E0B9
S1134D90BE016D5E7F4FC8011BD48B89982F907C18
S1134DA059F4882379F08B899FEF980F9B8B882384
S1134DB031F0C801E5D3F7CFC801E2D31B8A8B8950
S1134DC08111E4CF42E050E0BE01615F7F4FC80132
S1134DD0FFD342E050E0BE01635F7F4FC801F8D3C8
S1134DE0C801CED3C801CCD3C801CAD3C801C8D323
S1134DF042E050E0BE016F5E7F4FC801E9D38F856A
S1134E0098898115914049F4ED84FE84FE24EF24B1
S1134E10FE2481E0E816F10419F0E12CF12C14C011
S1134E2089899A898115944039F0C80166D347EF7E
S1134E30E42EFF24FA9428C0B1016E5F7F4F44E052
S1134E4050E0C801C5D320C089899A899827892749
S1134E509827E816F90630F4C80192D3FFEFEF1A49
S1134E60FF0AF2CF2FEFA21AB20ACA14DB0409F028
S1134E708DCFC80142D336EFE32EFF24FA9404C049
S1134E808DEFE82EFF24FA94C70163960FB6F894C9
S1134E90DEBF0FBECDBFDF91CF911F910F91FF9069
S1134EA0EF90DF90CF90BF90AF909F908F907F90C6
S1134EB06F905F904F903F902F9008958F929F92A4
S1134EC0AF92BF92CF92DF92EF92FF920F931F9314
S1134ED0CF93DF9300D000D000D0CDB7DEB77C01F4
S1134EE04B015A019EDD8C01892B09F057C0F70153
S1134EF0428153816481758180910D0C90910E0CD7
S1134F00A0910F0CB091100C481759076A077B0742
S1134F1009F447C00E941C3A6701F8E0CF0ED11C87
S1134F206F7077277C5FC60189D3813009F03BC05D
S1134F3086E59AE09A838983F70182819381A4812B
S1134F40B5818B839C83AD83BE8345E350E0BE0172
S1134F506F5F7F4FC601F7D2892B19F400E010E090
S1134F601AC0B401C701A8DD892BC1F3C601F2D26E
S1134F70892BA1F383E0882E912CA50168E873E1C5
S1134F80C7013BDE8C0121E0821A910821F00F3F1A
S1134F90FFEF1F0791F3C601C2D205C001E010E084
S1134FA002C00EEF1FEFC80126960FB6F894DEBFBD
S1134FB00FBECDBFDF91CF911F910F91FF90EF9066
S1134FC0DF90CF90BF90AF909F908F90089524E092
S1134FD030E0AC0164E081E090E035C624E030E0EC
S1134FE0AC0164E085E090E02EC626E030E0AC0140
S1134FF064E089E090E027C624E030E0AC0164E09E
S11350008FE090E020C68F929F92AF92BF92CF9292
S1135010DF92EF92FF920F931F93CF93DF934C0194
S11350205B016A01E901FC0164858BE49CE053D6D1
S1135030C501DBDFC6010296DFDFC8010296C7DFC8
S1135040C7010296CBDF8A819B81AC81BD81F401CB
S113505082839383A483B583DF91CF911F910F91B2
S1135060FF90EF90DF90CF90BF90AF909F908F9084
S1135070089526E53AE0FC0131832083FB01428157
S1135080538164817581FC014283538364837583F6
S113509008950F9300E020E040E060E08EE29CE0A1
S11350A00E94963881E19CE00E948C38E1E1FCE0AA
S11350B0138612868AE084870F910895DC01ED91AE
S11350C0FC91028CF38DE02D099591E089270895D8
S11350D0CF93DF931F92CDB7DEB76983DC01ED91E7
S11350E0FC910280F381E02D41E050E0BE016F5F4E
S11350F07F4F09950F90DF91CF91089521E0FC0136
S11351008485883009F420E0822F0895FC01948579
S1135110FB018485981303C081E0983009F480E092
S11351200895CF92DF92EF92FF920F931F93CF9344
S1135130DF93CDB7DEB7AF970FB6F894DEBF0FBEDF
S1135140CDBF8C016B017A01CE0101960E948C388F
S1135150CE010996F3D2CE018A960E948C3861E181
S11351607CE0CE01849685DFBE016C5D7F4FCE016D
S113517001964ADCAE01465D5F4FB601CE01019651
S11351809DDE81309105C1F4D801ED91FC91068436
S1135190F785E02D86E59AE09DA38CA38CA59DA5BB
S11351A0AEA5BFA58EA39FA3A8A7B9A7A701BE01BB
S11351B06C5D7F4FC8010995AF960FB6F894DEBFBA
S11351C00FBECDBFDF91CF911F910F91FF90EF9054
S11351D0DF90CF9008950F931F93CF93DF938C01AB
S11351E0D42FC52FFC018485883041F481E090E000
S11351F0F8019383828380E090E005C0CFD3892BAC
S1135200A9F38D2F9C2FDF91CF911F910F910895BA
S1135210FC016485683019F08BE49CE0D0C580E023
S113522090E00895CF93DF931F92CDB7DEB741E0AE
S113523050E0BE016F5F7F4FFC018485F7D31816E1
S113524019061CF4898190E002C08FEF9FEF0F9044
S1135250DF91CF910895FC018485E8C30F931F93D8
S1135260CF93DF931F92CDB7DEB78C01DC01ED91B4
S1135270FC910084F185E02D0995892B49F0BE014C
S11352806F5F7F4FF801848512D4898190E002C05A
S11352908FEF9FEF0F90DF91CF911F910F910895A2
S11352A0FC01848511C4FC011382128288EE93E010
S11352B0A0E0B0E084839583A683B78382ED99E070
S11352C09183808388E084870895FC016485683035
S11352D039F06295660F607E685F83E090E0DFC41A
S11352E080E00895CF93DF93FC0124852830C9F032
S11352F0EC01EBDF843181F0882371F0883161F0B7
S11353008C3161F4E881F9810084F185E02DCE01CE
S1135310099521E0892B19F420E001C021E0822FB6
S113532001C080E0DF91CF910895CF92DF92EF9298
S1135330FF92CF93DF93EC018C85883069F129D3F8
S11353400E941C3A6B017C01CE01BFDF8823A1F0CF
S11353500E941C3ADC01CB018C199D09AE09BF09DE
S1135360883E9340A105B10538F461E070E080E027
S113537090E00E944D3AE8CFCE01A7DF882311F0D8
S11353808C8596D2EC85F0E0EE0FFF1FE25EF34FC2
S11353901182108288E08C87DF91CF91FF90EF908B
S11353A0DF90CF900895CF92DF92FF920F931F93D7
S11353B0CF93DF93FC0124852830C1F56A018B016A
S11353C0EC01F12C6F2D6295660F607E685F83E0BF
S11353D090E065D4811102C0FC8607C08B7F8831C0
S11353E0D9F3F394F8E0FF12EDCF8C858830F1F017
S11353F02091690130916A012F5F3F4F11F420E041
S113540034E030936A01209369014091690150911D
S11354106A0120E061E057D2B8016E5F7F4FA601B8
S11354208C8584D2811105C088E08C8780E090E06F
S11354300FC0CE014ADF873149F061E070E080E0BF
S113544090E00E944D3ACE0140DFECCF81E090E045
S1135450DF91CF911F910F91FF90DF90CF9008952E
S11354600F9300E020E040E060E084E39CE00E94D1
S113547096380F9108950F9300E020E040E060E03B
S11354808AE39CE00E9496380F91089580E0089585
S1135490DC01ED91FC91048CF58DE02D099426E559
S11354A03AE0FC0131832083FB01418952896389FD
S11354B07489FC0142835383648375830895FC01DA
S11354C0858996890895FC01818D928D0895CF93E5
S11354D0DF931F92CDB7DEB76983DC01ED91FC91B8
S11354E00280F381E02D41E050E0BE016F5F7F4F09
S11354F009950F90DF91CF910895CF93DF93EC013D
S1135500898D9A8D892B41F0E881F9810284F38594
S1135510E02DCE010995F4CFDF91CF910895CF937B
S1135520DF93EC018C85883059F0C2D1EC85F0E032
S1135530EE0FFF1FE25EF34F1182108288E08C872A
S1135540DF91CF910895FC01108E178A6E5F7F4F13
S11355508485E6C2FC01848506C3CF93DF93EC0106
S11355609A018F89988DAB01BC018C85AED22F89AD
S1135570388D280F391F388F2F8BDF91CF910895E5
S11355800F931F93CF93DF931F92CDB7DEB7FC0128
S1135590218D328D232B59F08C0141E050E0BE0166
S11355A06F5F7F4F848542D2181619061CF08FEF67
S11355B09FEF08C0F801818D928D0197928F818FA2
S11355C0898190E00F90DF91CF911F910F91089501
S11355D0CF93DF93FC01218D328D2115310519F410
S11355E08FEF9FEF10C0EC014217530708F0A90199
S11355F08C851CD2181619069CF7298D3A8D281B08
S1135600390B3A8F298FDF91CF910895CF93DF9390
S11356101F92CDB7DEB7FC01218D328D232B41F0D3
S1135620BE016F5F7F4F848542D2898190E002C0C2
S11356308FEF9FEF0F90DF91CF910895EF92FF923C
S11356401F93CF93DF93FC012485283011F080E071
S113565020C07B01EC0110E0612F6295660F607E33
S1135660685F83E090E01BD3811102C01C8705C0F2
S11356708831E1F31F5F183079F78C85883039F36E
S1135680FE86ED861A8E198E20E0A70162E01BD1FA
S113569081E0DF91CF911F91FF90EF9008950F93D8
S11356A01F93CF93DF93CDB7DEB728970FB6F89447
S11356B0DEBF0FBECDBF8C01DC01ED91FC910680F5
S11356C0F781E02D0995F80164858BE49CE077D39C
S11356D0892B39F148E050E0BE016F5F7F4FD8015C
S11356E01C968C91A3D118161906ECF4BE016F5FB9
S11356F07F4FC8010F960E94A2388D8190E0982FA9
S113570088272E81820F911DF801968B858B8F81BE
S113571090E0982F88272885820F911D928F818F82
S113572002C080E090E028960FB6F894DEBF0FBE6A
S1135730CDBFDF91CF911F910F910895FC0113828A
S1135740128288EE93E0A0E0B0E084839583A68380
S1135750B78384EF99E09183808388E08487CF01C5
S11357600F960C948C38CF92DF92EF92FF920F93A6
S11357701F93CF93DF93CDB7DEB7AF970FB6F894EF
S1135780DEBF0FBECDBF8C016B017A01CE01019645
S11357900E948C38CE010996D1DFCE018A960E94F0
S11357A08C3861E17CE0CE01849663DCBE016C5DE3
S11357B07F4FCE01019628D9AE01465D5F4FB601F9
S11357C0CE0101967BDB81309105C1F4D801ED91C6
S11357D0FC910488F589E02D86E59AE09DA38CA3CD
S11357E08CA59DA5AEA5BFA58EA39FA3A8A7B9A769
S11357F0A701BE016C5D7F4FC8010995AF960FB636
S1135800F894DEBF0FBECDBFDF91CF911F910F91F2
S1135810FF90EF90DF90CF9008950F9300E020E089
S113582040E060E080E49CE00E9496380F91089587
S1135830AB018295880F807E6CE0680F24E030E035
S11358408CE090E000C29B018295880F807E68E026
S1135850680FC90124C262E070E0F5CF9B01829514
S1135860880F807E6CE0680FC901CFC1CF93DF93AE
S1135870C82FD62F472F64E070E0F0DF4D2F65E08E
S113588070E08C2FDF91CF91E9CF462F62E070E07A
S1135890E5CFCF93DF93C82FD62F472F60E170E079
S11358A0DDDF4D2F61E170E08C2FDF91CF91D6CFFA
S11358B0CF93C82F40E1682F8BE49CE070D36FEF47
S11358C08C2FCF91E2CFFF920F931F93CF93DF934F
S11358D09FEF960F953018F5D22F8A01F62EC82F18
S11358E0E7DF4F2D4D2B60E070E08C2FB7DF011503
S11358F0110511F0B8010AC06091460C7091470C73
S11359006F5F7F4F7093470C6093460C8C2FAEDF14
S113591041E06C2F8BE49CE042D381E001C080E045
S1135920DF91CF911F910F91FF9008950F931F93D3
S1135930CF93FB0190819F3F51F491819F3F91F45C
S113594092819F3F79F493819F3F61F41CC0911130
S113595009C09181911106C09281911103C0938174
S1135960992391F04115510571F08A01BF01C82FA7
S11359705FDFB8018C2F8DDF44E06C2F8BE49CE05B
S11359800ED391E001C090E0892FCF911F910F9128
S1135990089548E0682F8BE49CE001C3CF92DF9226
S11359A0EF92FF920F931F93CF93C82F7B018A012D
S11359B04130584010F000E018E06C2F8BE49CE07C
S11359C0CDD16C0163E070E08C2F3DDF873111F0A5
S11359D08C3121F4C016D10680F302C000E010E03F
S11359E09801A7016C2F8BE49CE03DD240E26C2F20
S11359F08BE49CE0D4D28C2F2EDF84FD0BC063E0BB
S1135A0070E08C2F20DF8111F6CF8C2F51DF80E0E6
S1135A1090E004C060E18C2F38DFC801CF911F9162
S1135A200F91FF90EF90DF90CF900895CF92DF9287
S1135A30EF92FF920F931F93CF93DF93182F6B0175
S1135A407A01682F8BE49CE0BAD1EC01009791F4C1
S1135A5063E070E0812FF7DE8431F9F08823E9F008
S1135A60C1E0D0E08C3111F4C0E0D0E0D195C19513
S1135A70D10913C0E816F9060CF4E7011C161D063B
S1135A8064F400E09E01A601612F8BE49CE03AD20D
S1135A9040E4612F8BE49CE082D2CE01DF91CF9170
S1135AA01F910F91FF90EF90DF90CF9008950F9387
S1135AB0AB0101E021E030E0682F8BE49CE022D2CE
S1135AC081E090E00F9108950895AF92BF92CF9234
S1135AD0DF92FF920F931F93CF93DF93F82E6B0106
S1135AE05A01E901682F8BE49CE038D18C179D079B
S1135AF028F46F2D8BE49CE031D1EC018E019501EB
S1135B00A6016F2D8BE49CE074D1CE01DF91CF917F
S1135B101F910F91FF90DF90CF90BF90AF900895A9
S1135B200F931F93CF93FB019081911109C0918131
S1135B30911106C09281911103C09381992369F058
S1135B404115510551F08A01BF01C82F71DEB8011A
S1135B508C2F9FDE81E090E002C080E090E0CF9146
S1135B601F910F910895CF93C82F40E2682F8BE4C3
S1135B709CE015D28C2F6FDE84FD0AC08C2F6BDE67
S1135B8083FFF8CF68E18C2F80DE80E090E005C0D1
S1135B9060E18C2F7ADE81E090E0CF91089520912E
S1135BA04E0C222399F04FB7F89420914E0C2130DB
S1135BB059F42DB320934C0C3DB320914D0C2095FA
S1135BC023232DBB4FBF02C040934C0C8CBD9DBD05
S1135BD008958EBD00000DB407FEFDCF8EB5089567
S1135BE080914E0C882361F09FB7F89420914E0C5D
S1135BF080914C0C213019F48DBB9FBF08958FBF49
S1135C00089544980895449A08950F931F93CF9349
S1135C10DF93182F092FD62FC42F8091490C909110
S1135C204A0CBDDFEEDF802FD4DF812FD2DF8D2F32
S1135C30D0DF8C2FCEDFE7DFD3DF81E0DF91CF91A0
S1135C401F910F910895DF92EF92FF920F931F938C
S1135C50CF93DF93D82FD92EC62F7A018901809153
S1135C60490C90914A0C9BDFCCDF8D2DB2DF8D2F38
S1135C70B0DF8C2FAEDFE701E00EF11ECE15DF059D
S1135C8019F08991A6DFFACFBEDFAADFC801DF9140
S1135C90CF911F910F91FF90EF90DF9008951F9384
S1135CA0CF93DF93D82F192FC62F8091490C909151
S1135CB04A0C75DFA6DF812F8CDF8D2F8ADF8C2FB6
S1135CC088DF80E086DFC82F9EDF8ADF8C2FDF919C
S1135CD0CF911F910895CF93DF936093480C68EEA2
S1135CE073E080E090E00E944D3A3C9A10D460E06A
