S015000074656D706C61746556756F746F2E7372656396
S113000066C100008EC100008CC100008AC10000DE
S11300100C94CA0986C1000084C100000C94EE0946
S113002080C100007EC100007CC100007AC10000D4
S113003078C1000076C1000074C1000072C10000E4
S11300400C94BD3A6EC100000C9494380C94C638DC
S113005068C1000066C1000064C1000062C1000004
S113006060C100005EC100000C94E1345AC100007C
S113007058C1000056C1000054C1000052C1000024
S113008050C100004EC100004CC10000EE1114121A
S11300903D126512B712EB127713C013F8135B14F9
S11300A0F514C51CDC1CDC1CD91CDC1CC31CDC1CAE
S11300B0DC1CDC1CB71CDC1CDC1CCC1CD71CD51CBD
S11300C0DC1CDC1CDC1CD31C00407A10F35A00A09E
S11300D0724E18090010A5D4E80000E8764817000D
S11300E000E40B54020000CA9A3B000000E1F5054D
S11300F0000080969800000040420F000000A08697
S113010001000000102700000000E80300000000C8
S11301106400000000000A0000000000010000006C
S113012000002C76D888DC674F0823DFC1DFAE5986
S1130130E1B1B796E5E3E453C63AE651997696E819
S1130140E6C28426EB898C9B62ED407C6FFCEFBC9D
S11301509C9F40F2BAA56FA5F490055A2AF75C93C8
S11301606B6CF9676DC11BFCE0E40D47FEF520E6FE
S1130170B500D0ED902E0300943577050080841EE1
S1130180080000204E0A000000C80C333333330F3C
S1130190986E12831141EF8D2114893BE65516CFD9
S11301A0FEE6DB18D1844B381BF77C1D901DA4BBE5
S11301B0E424203284725E228100C9F124ECA1E59A
S11301C03D274453333233314D20696E697469617C
S11301D06C697A65642E00556E61626C6520746F7B
S11301E02066696E64204453333233314D4D2E20E2
S11301F0436865636B696E6720616761696E206936
S11302006E2033732E00417072203231203230322E
S1130210300031363A32303A3039001F1C1F1E1F6D
S11302201E1F1F1E1F1E1F30004572726F72206337
S11302306F64653A2030780000000000040308076A
S113024000000200090A0000000000000000000095
S1130250000000000000000101020408102040809A
S113026001021020408010204080100820044080AB
S1130270010204080102040804040404040404043C
S11302800202020202020101010103030303030348
S11302900101010103030202000000002300260003
S11302A0290000000000250028002B0000000000A9
S11302B0240027002A009F0A4B1FA31F9B22972478
S11302C0B22584278F274E2B7137F438910B1124D4
S11302D01FBECFEFD0E4DEBFCDBF1AE0A0E0B1E097
S11302E0E4E8FDE800E00BBF02C007900D92A838D7
S11302F0B107D9F72FE0A8E8BAE001C01D92A730F2
S1130300B207E1F711E0C6E6D1E004C02197FE018F
S11303100E945E40CB35D107C9F70E948C390C94FA
S1130320B6466ECE449A0895DC01ED91FC9101909D
S1130330F081E02D099487E09EE00E94DB3660E2C4
S113034087E09EE00E94EE3661E070E087E09EE088
S1130350EBDF63EC70E087E09EE0E6DF87E09EE0A1
S11303600E946F3760E287E09EE00E94EE3662E012
S113037070E087E09EE0D8DF60E070E087E09EE018
S1130380D3DF87E09EE00E946F378FE39CE90197FB
S1130390F1F700C0000060E287E09EE00E94EE36C4
S11303A063E070E087E09EE0BFDF6CE370E087E02D
S11303B09EE0BADF87E09EE00E946F378FE39CE9FE
S11303C00197F1F700C0000060E287E09EE00E9420
S11303D0EE3660E070E087E09EE0A6DF87E09EE016
S11303E00E946F3787E09EE00C94DB36CF938DE557
S11303F09EE00E94113ACDE768EB71E08DE59EE046
S11304000E94093AC150C1F78DE59EE0CF910C944A
S1130410113ACF93DF93D82FC0E0CD1741F06AEBA8
S113042071E08DE59EE00E94093ACF5FF6CFDF913F
S1130430CF910895CF93C82F81E0EBDF6CEB71E08F
S11304408DE59EE00E94093ACC2319F060EC71E03E
S113045002C065EC71E08DE59EE00E94093A81E0FE
S1130460CF91D7CF4F925F926F927F928F929F924C
S1130470AF92BF92CF92DF92EF92FF920F931F93AE
S1130480CF93DF9388E89AE00E94DB2E4901D42FB2
S1130490C52F2B013C01A0E00E94904109F460C0EB
S11304A06AEC71E08DE59EE00E94093A80E4A82E92
S11304B092E4B92E2FE0C22ED12CE12CF12C00E0D5
S11304C010E094014D2F5C2FB201C3010E948240C1
S11304D0F22FE32F2AE030E0CF01BA01492F582F41
S11304E08DE59EE00E948B3A94014D2F5C2FB20162
S11304F0C3010E948040F22FE32F2AE030E0CF01B5
S1130500BA01492F582F8DE59EE00E948B3A66ED83
S113051071E08DE59EE00E94093A6FE173E08DE59C
S11305209EE00E94093A94014D2F5C2FB201C30151
S113053000E20E946941F22FE32F20E130E0CF0175
S1130540BA01492F582F8DE59EE00E948B3A20E195
S113055030E0A4016D2F7C2F8DE59EE00E948B3A44
S1130560DF91CF911F910F91FF90EF90DF90CF908B
S1130570BF90AF909F908F907F906F905F904F90BF
S113058035CFCF92DF92EF92FF926B017C0183E033
S113059040DF69ED71E08DE59EE00E94093A81E05B
S11305A038DFB701A60188E89AE00E94502F88231B
S11305B019F188E89AE00E94C52E81E03BDF63EEE2
S11305C071E08DE59EE00E94093A65EF71E08DE5EA
S11305D09EE00E94343A81E01CDF08DF2FEF83EDB8
S11305E090E3215080409040E1F700C00000FF906C
S11305F0EF90DF90CF90089580E0FF90EF90DF9030
S1130600CF9018CF2F923F924F925F926F927F922A
S11306108F929F92AF92BF92CF92DF92EF92FF920E
S11306200F931F93CF93DF93CDB7DEB7CC5BD10984
S11306300FB6F894DEBF0FBECDBF4B015C018A013B
S11306407E0123E0E20EF11CCE0189549F4FC95470
S1130650DF4F99838883C75BD0406BEB71E0C701A0
S11306600E94DA3C96E0E90EF11CC954DF4FE881A0
S1130670F981C75BD040EE16FF0679F78EE190E072
S11306809A838983B801CE0109960E94313D8FE196
S11306909EE40197F1F700C00000C501B40171DFC9
S11306A0EFE1FEE43197F1F700C0000016EBE12E14
S11306B0F12C00E010E0A501940162E088E89AE0E2
S11306C00E94D031882309F42CC18091E20A00E011
S11306D011E0081B11098091960A811104C088E871
S11306E09AE00E9463302C9842E06091A50A88E861
S11306F09AE00E94EE3088E89AE00E944630073B78
S11307001105B8F08E010F5F1F4FF80141918F0161
S11307106091A50A88E89AE00E94EE30C954DF4F40
S113072028813981C75BD0402017310771F72C9A93
S1130730B7C0212C312C86EBC82ED12CE12CF12C06
S1130740CE010196C754DF4F99838883C95BD0409B
S11307502801612C712CC414D504E604F70410F4A8
S1130760260137018091E20A81110CC02C9842E0E5
S11307706091A50A88E89AE00E94EE3088E89AE041
S11307800E944630C754DF4FE881F981C95BD040ED
S1130790C554DF4FF983E883CB5BD0408F01C75446
S11307A0DF4F19830883C95BD040C801C554DF4FAC
S11307B028813981CB5BD040821B930BA0E0B0E051
S11307C084159505A605B70580F40F5F1F4FC75420
S11307D0DF4FE881F981C95BD04040816091A50A6F
S11307E088E89AE00E94EE30DACF2C9A8091E60AEB
S11307F09091E70AA091E80AB091E90A0097A1054F
S1130800B105A9F48091E20A9091E30AA091E40A67
S1130810B091E50A840D951DA61DB71D8093E20ACB
S11308209093E30AA093E40AB093E50A18C0A101E7
S113083060E070E0481759076A077B0780F0109260
S1130840E20A1092E30A1092E40A1092E50A109266
S1130850E60A1092E70A1092E80A1092E90A240CB8
S1130860351CC418D508E608F70840E05AEC6AE9D4
S11308707BE388E89AE00E946E31882309F451C032
S113088061E088E89AE00E94B531882309F449C000
S113089000E011E0C114D104E104F10409F058CFDF
S11308A088E89AE00E94613181113BC006EB10E0B8
S11308B020E030E0B501A40188E89AE00E94F12F1D
S11308C0882379F140E05AEC6AE97BE388E89AE00E
S11308D00E946E31882329F12C9843E06091A50A87
S11308E088E89AE00E94EE3088E89AE00E94463058
S11308F08E010F5F1F4FF801F1908F0140E060916E
S1130900A40A88E89AE00E94EE30F816D1F040E09C
S11309106AE088E89AE00E94893388E89AE00E94B5
S113092040318E010F541F4F7E0133E0E31AF1086A
S1130930C8010E94733C06501109E016F106C1F784
S113094015C0C954DF4F28813981C75BD0400217D5
S1130950130789F688E89AE00E94403162E072E069
S11309608DE59EE00E94343A41DDDBCFC454DF4F75
S11309700FB6F894DEBF0FBECDBFDF91CF911F91AC
S11309800F91FF90EF90DF90CF90BF90AF909F902A
S11309908F907F906F905F904F903F902F9008952D
S11309A083E037DD60E472E08DE59EE00E94093A61
S11309B081E02FDD88E89AE00E94AE2F8823D1F0F1
S11309C081E038DD63EE71E08DE59EE00E94093A36
S11309D06BE472E08DE59EE00E94093A2FEF83ED0F
S11309E090E3215080409040E1F700C0000081E096
S11309F010DDFCCC80E01EDD82E00BDD69E572E0F9
S1130A008DE59EE00C94093A83E003DD61E972E030
S1130A108DE59EE00E94093A81E0FBDC88E89AE0DB
S1130A200E94D82F8823D1F081E004DD63EE71E0C9
S1130A308DE59EE00E94093A6AE972E08DE59EE048
S1130A400E94093A2FEF83ED90E3215080409040BB
S1130A50E1F700C0000081E0DCDCC8CC80E0EADC27
S1130A6082E0D7CC83E0D5DC66EA72E08DE59EE0D7
S1130A700E94093A81E0CDDC88E89AE00E94842F44
S1130A808823D1F081E0D6DC63EE71E08DE59EE051
S1130A900E94093A61EB72E08DE59EE00E94093AFA
S1130AA02FEF83ED90E3215080409040E1F700C0A8
S1130AB0000081E0AEDC9ACC80E0BCCC8F929F92A7
S1130AC0AF92BF92CF92DF92EF92FF928DE59EE0BC
S1130AD00E94113A88E89AE00E94C92E6B017C01B9
S1130AE0672B682B692B41F46FEB72E08DE59EE078
S1130AF00E94343A80E0B2C065E173E08DE59EE087
S1130B000E94093A20E130E0B701A6018DE59EE09C
S1130B100E94AD3A62E273E08DE59EE00E94093ADC
S1130B20B7018827992740E150E08DE59EE00E94B7
S1130B309D3A6DE273E08DE59EE00E94093A8D2CAA
S1130B409E2CAF2CBB2440E150E0682D8DE59EE047
S1130B500E949D3A6BE373E08DE59EE00E94093AA2
S1130B6088E89AE00E94AE2EAB01BC012AE030E096
S1130B708DE59EE00E94AD3A66E473E08DE59EE06B
S1130B800E94093A88E89AE00E94B42EAB01BC01A5
S1130B902AE030E08DE59EE00E94AD3A63DC8EEC05
S1130BA09CE00E94E02B65E173E08EEC9CE00E94E7
S1130BB0093A20E130E0B701A6018EEC9CE00E94E6
S1130BC08B3A41E060E08EEC9CE00E94E62B62E50B
S1130BD073E08EEC9CE00E94093A88E89AE00E9457
S1130BE0AE2EAB01BC012AE030E08EEC9CE00E940A
S1130BF08B3A42E060E08EEC9CE00E94E62B6DE2D2
S1130C0073E08EEC9CE00E94093A40E150E0682DCC
S1130C108EEC9CE00E94973A43E060E08EEC9CE00E
S1130C200E94E62B66E473E08EEC9CE00E94093A95
S1130C3088E89AE00E94B42EAB01BC012AE030E0BF
S1130C408EEC9CE00E948B3A2FEF8BE792E92150C7
S1130C5080409040E1F700C0000081E0FF90EF90F9
S1130C60DF90CF90BF90AF909F908F90089518160B
S1130C70190644F4EFE9FFE03197F1F700C00000F2
S1130C800197F5CF08958F929F92AF92BF92FF92F2
S1130C900F931F93CF93DF934A015B01C0E0D0E031
S1130CA0082F10E080E4F82EC017D1075CF43E9AB8
S1130CB098B19F2598B9C401DADF98B19F2598B9F6
S1130CC02196F2CFDF91CF911F910F91FF90BF90AA
S1130CD0AF909F908F90089560E287E09EE00E941D
S1130CE0EE3663E070E087E09EE01EDB63EC70E0CC
S1130CF087E09EE019DB87E09EE00E946F378FE17A
S1130D009EE40197F1F700C00000089560E287E0D7
S1130D109EE00E94EE3663E070E087E09EE004DB34
S1130D206CE370E087E09EE0FFDA87E09EE00E94DB
S1130D306F378FE19EE40197F1F700C0000008953A
S1130D4060E287E09EE00E94EE3660E070E087E0BB
S1130D509EE0EADA87E09EE00E946F378FE19EE42E
S1130D600197F1F700C00000089560E287E09EE07B
S1130D700E94EE3661E070E087E09EE0D5DA87E01D
S1130D809EE00E946F378FE19EE40197F1F700C067
S1130D9000000895CF92DF92EF92FF920F931F937A
S1130DA0CF93DF93CDB7DEB72C970FB6F894DEBFA1
S1130DB00FBECDBF8C016B017A018EEC9CE00E94CA
S1130DC0E02B83E0C816D1040CF447C04091860B95
S1130DD05091870B6091880B7091890B8091820BE5
S1130DE09091830BA091840BB091850B480F591FF0
S1130DF06A1F7B1F415051096109710980918A0B57
S1130E0090918B0BA0918C0BB0918D0B481B590BBF
S1130E106A0B7B0B2AE0CE0107960E94993D68E598
S1130E2073E0CE0101960E94DA3CBE01695F7F4FF8
S1130E30CE0101960E94323E60E673E00E94433E7A
S1130E40BC018EEC9CE00E94FB39CE0101960E940D
S1130E50733CCE0107960E94733C61E08EEC9CE0EB
S1130E600E940A3A41E060E08EEC9CE00E94E62B8E
S1130E70B8016A5F7F4F8EEC9CE00E94FB3942E030
S1130E8060E08EEC9CE00E94E62BB801645F7F4F2B
S1130E908EEC9CE00E94FB3943E060E08EEC9CE029
S1130EA00E94E62BB8016E5E7F4F8EEC9CE00E94A0
S1130EB0FB39C701DCDE2C960FB6F894DEBF0FBEFB
S1130EC0CDBFDF91CF911F910F91FF90EF90DF90F5
S1130ED0CF9008956093820B7093830B8093840B5F
S1130EE09093850B8CE79BE00E944D1D6093860BCD
S1130EF07093870B8093880B9093890B8091A50C3A
S1130F009091A60C01969093A60C8093A50C08953D
S1130F10AF92BF92CF92DF92EF92FF920F931F9303
S1130F20CF93DF93CDB7DEB7A2970FB6F894DEBFA9
S1130F300FBECDBF5C01F62E6BEB71E0CE014D967A
S1130F400E94DA3C08EC10E02EEE3CE047EE5CE058
S1130F5060E087EB9CE00E94C01A8093EF0C88232A
S1130F6009F49DC04EE150E060E070E082E08BDE69
S1130F708091EE0C843009F08CC086E0E4E4F1E06A
S1130F80DE01579601900D928A95E1F7CE014796BE
S1130F906C01E12C04E010E020E030E044E067EE76
S1130FA07CE087EB9CE00E94141B8093EF0C882369
S1130FB009F45FC0FF2099F080E1E9EBF9E0DE017C
S1130FC0119601900D928A95E1F7AE014F5F5F4F44
S1130FD064E087EB9CE00E94A71B8093EF0CAE01BA
S1130FE04F5F5F4F64E087EB9CE00E94741B80932B
S1130FF0EF0C882389F166E673E08DE59EE00E949C
S1131000343ABE016F5F7F4FCE0141960E94DA3CB5
S1131010BE016F5E7F4F8DE59EE00E94243A8D896C
S11310209E89069759F4BE016F5E7F4FC5010E94E9
S1131030293DCE0141960E94733C37C09FEF21EEBB
S113104084E0915020408040E1F700C00000CE01D0
S113105041960E94733C1DC08EEC9CE00E94E02BE4
S113106041E060E08EEC9CE00E94E62B64E773E0D4
S11310700CC08EEC9CE00E94E02B41E060E08EEC22
S11310809CE00E94E62B6EE773E08EEC9CE00E94ED
S1131090093A6BEB71E08DE59EE00E94343ABE01A3
S11310A0635E7F4FC5010E94293DCE014D960E948B
S11310B0733CC501A2960FB6F894DEBF0FBECDBF38
S11310C0DF91CF911F910F91FF90EF90DF90CF9020
S11310D0BF90AF900895CF92DF92EF92FF920F935B
S11310E01F93CF93DF93CDB7DEB764970FB6F89411
S11310F0DEBF0FBECDBF7C01CE0101966C0187E03F
S1131100F60111928A95E9F766E873E0C7010E9437
S1131110DA3C00E010E09E012C5E3F4FA60160E047
S113112087EB9CE00E94C01A882359F10C8910E0D7
S113113020E030E0A60167EB7CE0CE010E960E9431
S11311401517CE010E960E94E93E28E030E040E0FB
S113115050E0BE01625F7F4FCE0108960E94A63E1A
S1131160BE01685F7F4FC7010E944E3DCE010896C5
S11311700E94733C81E08093E60CCE010E960E949F
S1131180733CC70164960FB6F894DEBF0FBECDBFA3
S1131190DF91CF911F910F91FF90EF90DF90CF904F
S11311A008955798569888E08093680080EC80935F
S11311B073007894089509980A98089591E090939B
S11311C06800843419F40D9880E202C00E9880E41B
S11311D080936B0078940895CF92DF92EF92FF9200
S11311E0BC01990F880B990B0E94E2376B017C01BB
S11311F020E030E0A9010E94743787FF03C0C12CAE
S1131200D12C760160912C0170912D01072E000CD8
S1131210880B990B0E94E2379B01AC01C701B60110
S11312200E947837FF90EF90DF90CF9008953F9A17
S11312308130910571F082309105E1F0892B89F5B7
S113124047982FEF30E742E0215030404040E1F72B
S11312500EC028B101C0880F6A95EAF7822B88B9BD
S11312608FEF90E722E0815090402040E1F700C0EA
S11312700000089528B181E090E001C0880F6A95CC
S1131280EAF7982F9095922398B93FEF45EA2EE01C
S1131290315040402040E1F700C0000098B1892B54
S11312A088B908950F9A81309105B9F0823091057B
S11312B029F1892BD1F522B181E090E001C0880F9A
S11312C06A95EAF78095822382B92FEF30E742E0EE
S11312D0215030404040E1F70EC022B101C0880FD8
S11312E06A95EAF7822B82B98FEF90E722E081506A
S11312F090402040E1F700C00000089522B181E051
S113130090E001C0880F6A95EAF7982F9095922390
S113131092B93FEF45EA2EE0315040402040E1F7DA
S113132000C0000092B1892B82B90895239A2FEF4F
S113133036E741E0215030404040E1F700C0000072
S11313408130910511F42B9A0895892B09F42B9877
S113135008951092A40C1092A30C1092AA0C10924F
S1131360A90C68E877E08BE59CE00E94243E2FEF0F
S113137081EE94E0215080409040E1F700C00000ED
S113138020E030E044E650E06FED7BE08BE59CE04C
S11313900C94783E1F920F920FB60F9211248F93E4
S11313A09F93059B09C08091A30C9091A40C019676
S11313B09093A40C8093A30C069B09C08091A30C6A
S11313C09091A40C01969093A40C8093A30C9F91EC
S11313D08F910F900FBE0F901F9018951F920F9230
S11313E00FB60F9211240BB60F922F933F934F9386
S11313F05F936F937F938F939F93AF93BF93EF9379
S1131400FF938091A50C9091A60C049709F084C0D9
S11314104E9B29C08091FF0C9091000D01969093F2
S1131420000D8093FF0C8091FF0C9091000D181615
S1131430190684F582E4C2DE67E070E080E090E0A3
S113144031DF61EE71E083E79CE00E94593D65E97C
S113145073E081EB9CE00E94593D6AE070E080E01B
S113146090E038DD0FC08091FD0C9091FE0C019648
S11314709093FE0C8093FD0C8091FD0C9091FE0CDA
S1131480029744F01092000D1092FF0C1092FE0C83
S11314901092FD0C4F9B29C08091FF0C9091000D80
S11314A001969093000D8093FF0C8091FF0C909116
S11314B0000D1816190684F584E480DE67E070E0F8
S11314C080E090E0B4DE6DE973E083E79CE00E9485
S11314D0593D6FE973E081EB9CE00E94593D6AE05D
S11314E070E080E090E0F6DC0FC08091FD0C9091FC
S11314F0FE0C01969093FE0C8093FD0C8091FD0CE4
S11315009091FE0C029744F01092000D1092FF0C83
S11315101092FE0C1092FD0CFF91EF91BF91AF91D0
S11315209F918F917F916F915F914F913F912F91F7
S11315300F900BBE0F900FBE0F901F9018958F92B7
S1131540AF92CF92EF920F9300E020E040E060E092
S113155081E09DE00E946A396BEB71E080EF9CE0D2
S11315600E94DA3C6BEB71E086EF9CE00E94DA3C6F
S11315701F9283E08F9387E0882E96E0A92E25E0C2
S1131580C22E34E0E32E21E042E067E28EEC9CE0E0
S11315900E94652D43E064E087EB9CE00E94001705
S11315A067EA73E081EB9CE00E94DA3C6BEB71E04C
S11315B08BEA9CE00E94DA3C6BEB71E08DE99CE0E5
S11315C00E94DA3C6BEB71E089E79CE00E94DA3C14
S11315D06BEB71E08FE79CE00E94DA3C6BEB71E00F
S11315E085E89CE00E94DA3C6BEB71E08BE89CE0C0
S11315F00E94DA3C6BEB71E081E99CE00E94DA3CEA
S11316006BEB71E087E99CE00E94DA3C60EB73E0ED
S113161083E79CE00E94DA3C60EB73E087E69CE0A1
S11316200E94DA3C60EB73E08DE69CE00E94DA3CB9
S11316306BEB71E081E69CE00E94DA3C6BEB71E0BD
S11316408BE59CE00E94DA3C60EB73E083E49CE071
S11316500E94DA3C60EB73E089E49CE00E94DA3C8F
S113166060EB73E08FE49CE00E94DA3C60EB73E093
S113167085E59CE00E94DA3C09E025E048EA60EC5C
S113168089ED9BE00E946A3905E121E048EA60ECBB
S113169083ED9BE00E946A3901E020E048EA60ECB7
S11316A08DEC9BE00E946A3900E020E04FEF6FEF81
S11316B087EC9BE00E946A398AEB9BE00E94A92395
S11316C08DEA9BE00E94A92369E179E787EA9BE020
S11316D00E94F8248AE99BE00E94A9238EE89BE0FB
S11316E00E94821D40E050E0BA018CE79BE00E941A
S11316F0161C6BEB71E082E79BE00E94DA3C6BEB1B
S113170071E08CE69BE00E94DA3C0F900F9064E05D
S113171088E89AE00F91EF90CF90AF908F900C945F
S11317201F2ECF93DF938CE69BE00E94733C82E7ED
S11317309BE00E94733C8EE89BE00E94891D85E536
S11317409CE00E94733C8FE49CE00E94733C89E41B
S11317509CE00E94733C83E49CE00E94733C8BE514
S11317609CE00E94733C81E69CE00E94733C8DE601
S11317709CE00E94733C87E69CE00E94733C83E7F4
S11317809CE00E94733CCDE9DCE02697CE010E94E8
S1131790733C8CE0C937D807C1F78DE99CE00E94FF
S11317A0733C8BEA9CE00E94733C81EB9CE00E94BA
S11317B0733C86EF9CE00E94733C80EF9CE0DF91D9
S11317C0CF910C94733CCF92DF92EF92FF920F93E0
S11317D01F93CF93DF93CDB7DEB768970FB6F89416
S11317E0DEBF0FBECDBF88E6C82E8AE0D82EDA82CF
S11317F0C9828091C90B9091CA0BA091CB0BB09177
S1131800CC0B8B839C83AD83BE83D886CF8280919F
S1131810CF0B9091D00BA091D10BB091D20B8987B3
S11318209A87AB87BC87DE86CD868091D50B909155
S1131830D60BA091D70BB091D80B8F87988BA98B1F
S1131840BA8B68E271E0CE0143960E947639CE01EC
S113185001967C018E01095F1F4F9E01235F3F4F5C
S1131860AE014D5E5F4F62E271E083E59DE00E9450
S1131870552287EA9BE00E94B824DA82C9828091CB
S1131880DB0B9091DC0BA091DD0BB091DE0B8B8315
S11318909C83AD83BE8349EF5AE2B7018DEA9BE096
S11318A00E943A24892B81F062EB73E08DE59EE07F
S11318B00E94343A8DEA9BE00E94D92390E09093F1
S11318C0A80C8093A70C06C065EC73E08DE59EE040
S11318D00E94343A68960FB6F894DEBF0FBECDBFAF
S11318E0DF91CF911F910F91FF90EF90DF90CF90F8
S11318F00895CF92DF92EF92FF920F931F93CF93AD
S1131900DF9300D000D000D0CDB7DEB769ED73E02F
S11319108DE59EE00E94343A3C9A0E949201249AFA
S11319202C9A8FE99FE00197F1F700C000003F9ADD
S11319300F9A8FE39CE90197F1F700C00000479AE2
S11319408FE39CE90197F1F700C00000179A20E0AB
S113195044E064E18EEC9CE00E94EB2D8EEC9CE074
S11319600E94C82B9FEF24E38CE0915020408040DC
S1131970E1F700C000008EEC9CE00E94D02B9FEFAA
S113198024E38CE0915020408040E1F700C0000047
S11319908EEC9CE00E94C82B9FEF24E38CE09150D6
S11319A020408040E1F700C000008EEC9CE00E94E3
S11319B0D02B9FEF24E38CE0915020408040E1F74E
S11319C000C000004EE251E061E08EEC9CE00E9419
S11319D0AE2C9FEF29EF80E0915020408040E1F74A
S11319E000C000008EEC9CE00E94C82B03E41CE0C5
S11319F06BEB71E0C8010E94593D0A5F1F4F9CE0E8
S1131A000B351907A9F787EB9CE00E94ED192FEF1E
S1131A1080E792E0215080409040E1F700C0000050
S1131A2087EB9CE00E943A1A6B017C01672B682BC0
S1131A30692B69F56EEE73E08DE59EE00E94093A2C
S1131A408EEC9CE00E94C82B2FEF84E39CE0215095
S1131A5080409040E1F700C000008EEC9CE00E94C2
S1131A60E02B67E074E08EEC9CE00E94093A2FEFD3
S1131A7087EA91E6215080409040E1F700C00000E1
S1131A8061E274E081EB9CE00E94593D06C064E38E
S1131A9074E08DE59EE00E94343A69E474E08DE5DB
S1131AA09EE00E94093A4F2D55276627772720E1AB
S1131AB030E08DE59EE00E94AD3A68E574E08DE586
S1131AC09EE00E94093A4E2D50E060E070E02AE06A
S1131AD030E08DE59EE00E948B3A6EE28DE59EE05B
S1131AE00E940A3A4D2D50E060E070E02AE030E0B8
S1131AF08DE59EE00E94AD3A6FEF87EB9CE00E947B
S1131B00B01A87EB9CE00E94821A2C9860E088E867
S1131B109AE00E94A52E882361F061E088E89AE0AB
S1131B200E94A52E4AE050E0682F8DE59EE00E94B9
S1131B309D3A40E050E0BA0188E89AE00E947D2E88
S1131B400E945E05882309F448C00E94F60187E0DC
S1131B500E94090267E674E08DE59EE00E94093A5E
S1131B600E94F60183E00E9409026CE774E08DE5AF
S1131B709EE00E94093A0E94F60182E00E94090256
S1131B800E9404058DE59EE00E94113A8DE59EE0D9
S1131B900E94113A0E9432058DE59EE00E94113A9E
S1131BA065E874E0CE0101960E94DA3C609106017A
S1131BB0709107018091080190910901AE014F5F76
S1131BC05F4F0E940203CE0101960E94733C0E9463
S1131BD0D0048DE59EE00E94113A40EA56E861E0A7
S1131BE070E08EE89BE00E94CC1D811110C067ED6F
S1131BF071E08DE59EE00E94143A2FEF83ED90E3AF
S1131C00215080409040E1F700C00000E6CF2FEF64
S1131C1080E792E0215080409040E1F700C000004E
S1131C2062EC71E08DE59EE00E94143A8EE89BE040
S1131C300E942A1F6BE874E08DE59EE00E94343A0E
S1131C4061ED74E08DE59EE00E94343A87E09EE009
S1131C500E94DB3668E270E087E09EE00E94F8367E
S1131C6060E087E09EE00E949D3662E370E087E0DA
S1131C709EE00E94940187E09EE00E946F372FEF60
S1131C8080E792E0215080409040E1F700C00000DE
S1131C9062E570E087E09EE00E94F83660E087E04D
S1131CA09EE00E949D3662E370E087E09EE00E9421
S1131CB0940187E09EE00E946F3787E09EE00E94D7
S1131CC0EA3665E075E08DE59EE00E94343A66E10F
S1131CD075E08DE59EE00E94343A6DE475E08DE593
S1131CE09EE00E94343A2FEF80E792E0215080403A
S1131CF09040E1F700C000000E949B012FEF80E7B5
S1131D0092E0215080409040E1F700C000008EEF47
S1131D109FEF9093A60C8093A50C68E675E081EB89
S1131D209CE00E94593D61EB7CE08DE59EE00E94C1
S1131D30243A26960FB6F894DEBF0FBECDBFDF91CE
S1131D40CF911F910F91FF90EF90DF90CF90089566
S1131D50EF92FF920F931F93CF93DF93CDB7DEB72C
S1131D6062970FB6F894DEBF0FBECDBF87E09EE04A
S1131D700E943A3641E050E060E270E087E09EE085
S1131D800E946D376BEB71E0CE010D960E94DA3C38
S1131D9011E002E083E0F82E94E0E92E87E09EE073
S1131DA00E940F36892B09F455C187E09EE00E94FA
S1131DB017369927823C910549F194F483349105AF
S1131DC041F124F4CC9709F449C046C08338910505
S1131DD081F1813C910509F03FC000937A0B1BC04F
S1131DE08B3C910549F14CF4833C9105B9F1873C56
S1131DF0910591F510937B0B24C0833D9105F9F077
S1131E00833E910549F5E0927B0B1BC010937A0B3E
S1131E1002C0F0927A0B8FE19EE40197F1F700C0C3
S1131E2000000E9486068091790B8F5F8093790B66
S1131E3015C0E0927A0BEFCF00937B0B02C0F092B7
S1131E407B0B8FE19EE40197F1F700C000000E9434
S1131E506C060E94B50602C00E9486060E94A00677
S1131E608091790B882309F4EEC060917A0B94E099
S1131E70699FB00111246A5F7E4F82E79BE00E9454
S1131E80593D80917A0B843009F069C080917B0BB5
S1131E90833081F48091780B8F5F8093780B83304B
S1131EA008F4CFC08091700B9091710B059709F0E5
S1131EB0C8C04EC1813009F05AC08091780B8F5F41
S1131EC08093780B833008F4BCC046E950E060E0AE
S1131ED070E081E00E9443066BEB71E08CE69BE0CE
S1131EE00E94593D66E775E089E49CE00E94593DF3
S1131EF06BEB71E08FE49CE00E94593D6AE875E069
S1131F00CE0101960E94DA3C6CE67BE0CE0101969C
S1131F100E94323EBC0185E59CE00E94313DCE0129
S1131F2001960E94733C8EEC9CE00E94E02B43E0FF
S1131F3060E08EEC9CE00E94E62B6AE875E0CE013E
S1131F4001960E94DA3C6CE67BE0CE0101960E9489
S1131F50323EBC018EEC9CE00E94FB3927C08130EC
S1131F6021F0823011F0833031F580917B0B843085
S1131F7011F566E775E089E49CE00E94593D6BEB3E
S1131F8071E08FE49CE00E94593D6AE875E0CE015F
S1131F9001960E94DA3C6CE67BE0CE0101960E9439
S1131FA0323EBC0185E59CE00E94313DCE010196A4
S1131FB00E94733C46C08091790B823008F041C086
S1131FC020917B0B30E0A9014150510962E77BE08D
S1131FD0CE0101960E94A63EBE016F5F7F4F8CE644
S1131FE09BE00E941E3ECE0101960E94733C66E770
S1131FF075E089E49CE00E94593D6BEB71E08FE44D
S11320009CE00E94593D6AE875E0CE0101960E9469
S1132010DA3C6CE67BE0CE0101960E94323EBC01C4
S113202085E59CE00E94313DCE0101960E94733CFF
S11320301092780B4AE050E060E070E081E00E948A
S113204043061092790B8FE39FE10197F1F700C0EB
S11320500000A4CE40E060E08EEC9CE00E94E62B01
S11320604091860B5091870B6091880B7091890B7E
S11320708091820B9091830BA091840BB091850B7E
S1132080480F591F6A1F7B1F41505109610971098B
S113209080918A0B90918B0BA0918C0BB0918D0B3E
S11320A0481B590B6A0B7B0B2AE0CE0107960E9452
S11320B0993D68E573E0CE0101960E94DA3CBE01C9
S11320C0695F7F4FCE0101960E94323E60E673E065
S11320D00E94433EBC018EEC9CE00E94FB39CE0181
S11320E001960E94733CCE0107960E94733C61E006
S11320F08EEC9CE00E940A3A43E060E08EEC9CE0A7
S11321000E94E62B6AE875E0CE0101960E94DA3C53
S11321106CE67BE0CE0101960E94323EBC018EEC5F
S11321209CE00E94FB39CE0101960E94733CCE01D3
S11321300D960E94733C62960FB6F894DEBF0FBEF4
S1132140CDBFDF91CF911F910F91FF90EF90089534
S113215044E650E060E070E081E00E944306609154
S11321601A0170911B0180911C0190911D010E9424
S11321706A0767CF6BEB71E08DE99CE00E94593DE3
S11321801092A40C1092A30C1092E60C60EB73E076
S113219083E79CE00E94593D6BEB71E087E69CE08D
S11321A00E94593D6BEB71E08DE69CE00E94593D25
S11321B067E070E081E090E03AD867E070E081E0A9
S11321C090E070D880E090E0B1D88DEA9BE00E9466
S11321D0A6238DEA9BE00E94FC238AEB9BE00E94ED
S11321E0A6238AEB9BE00E94FC231092A80C109279
S11321F0A70C2C988FE19EE40197F1F700C0000032
S11322002C9A8FE19EE40197F1F700C000000E9430
S113221092018FE19EE40197F1F700C00000449819
S113222082B182B982B182B96BEB71E089E49CE03E
S11322300E94593D6BEB71E08FE49CE00E94593D94
S11322406BEB71E08FE49CE00E94593D8EEC9CE0C6
S11322500E94D02B8EEC9CE00E94282C10928A0BBA
S113226010928B0B10928C0B10928D0B1092860B8C
S11322701092870B1092880B1092890B0E94F60122
S11322806DEB77E08DE59EE00E94343A0E94F60102
S11322908EEF9FEF9093A60C8093A50C0895AF92B8
S11322A0BF92CF92DF92EF92FF920F931F93CF933F
S11322B0DF9300D000D000D0CDB7DEB75B018A0138
S11322C06901EDB6FEB66EEC77E08DE59EE00E9406
S11322D0343AAB2809F44EC069EE77E08DE59EE010
S11322E00E94343A8091A50C9091A60C019690938B
S11322F0A60C8093A50CB801CE0101960E94DA3C8D
S11323008DB79EB78C199D090FB6F8949EBF0FBE6A
S11323108DBF0DB71EB70F5F1F4F20E030E0A60141
S1132320B801CE0101960E94783EF8010190002088
S1132330E9F73197AF01401B510BB8018DEA9BE0DF
S11323400E9441239FEF29EF80E09150204080407C
S1132350E1F700C000008DEA9BE00E94A623CE01B5
S113236001960E94733C0FB6F894FEBE0FBEEDBEFC
S113237081E001C080E00FB6F894FEBE0FBEEDBE52
S113238026960FB6F894DEBF0FBECDBFDF91CF9176
S11323901F910F91FF90EF90DF90CF90BF90AF907F
S11323A00895CF92DF92EF92FF920F931F93CF93F2
S11323B0DF93CDB7DEB76E970FB6F894DEBF0FBECE
S11323C0CDBFE091A50CF091A60C3296EB30F1054F
S11323D008F071C3EA5BFF4F0C945E406BEB71E055
S11323E089E49CE00E94593D64E178E08FE49CE03C
S11323F00E94593D6BEB71E085E59CE00E94593DDC
S11324006091A50C7091A60C44E650E083E49CE036
S11324100E94CA062FEF83EC99E02150804090403F
S1132420E1F700C000001FC06BEB71E089E49CE0A1
S11324300E94593D6BEB71E08FE49CE00E94593D92
S11324406BEB71E085E59CE00E94593D0E94D10848
S11324502FEF89EF90E0215080409040E1F700C0D9
S113246000000E94DB088091A50C9091A60C0196B7
S11324709093A60C8093A50C1EC36BEB71E089E4CA
S11324809CE00E94593D6BEB71E08FE49CE00E945C
S1132490593D6BEB71E085E59CE00E94593D6091EC
S11324A0A50C7091A60C44E650E083E49CE00E94E5
S11324B0CA062FEF83EC99E0215080409040E1F769
S11324C000C000001092E60CCECF60E278E089E410
S11324D09CE00E94593D6BEB71E08FE49CE00E940C
S11324E0593D64E378E085E59CE00E94593D6091A4
S11324F0A50C7091A60C44E650E083E49CE00E9495
S1132500CA0666E873E0CE0149960E94DA3C8091DF
S1132510E60C811116C0CE0101960E946B08BE0123
S11325206F5F7F4FCE0149960E944E3DCE010196CA
S11325300E94733C44E650E060E070E082E00E9458
S1132540430666E873E0CE0149960E945A3E811123
S113255002C0449BEDC28091A50C9091A60C0196FB
S11325609093A60C8093A50CCE014996BDC00E9401
S113257092018FE39FE10197F1F700C000004498B6
S11325806BEB71E08CE69BE00E94593D66E775E0D9
S113259089E49CE00E94593D6BEB71E08FE49CE080
S11325A00E94593D6AE875E085E59CE00E94593D2A
S11325B06091A50C7091A60C4AE050E083E49CE085
S11325C00E94CA0660911E0170911F018091200132
S11325D090912101D8C3BCDB60E0CE0107960E9434
S11325E088078FE39CE90197F1F700C00000BE0162
S11325F0695F7F4F8DE59EE00E94243A2B853C85E0
S113260045E050E0BE01695F7F4FCE0101960E9414
S1132610A63EBE016F5F7F4F80EF9CE00E944E3D5F
S1132620CE0101960E94733C25E030E040E050E08A
S1132630BE01695F7F4FCE0101960E94A63EBE0196
S11326406F5F7F4F86EF9CE00E944E3DCE01019666
S11326500E94733C1092FC0C67E478E08DE59EE0E8
S11326600E94343A69E578E0CE0101960E94DA3C92
S113267060EF7CE0CE0101960E94323EBC018DE504
S11326809EE00E94243ACE0101960E94733C6BE6C0
S113269078E0CE0101960E94DA3C66EF7CE0CE0140
S11326A001960E94323EBC018DE59EE00E94243AD0
S11326B0CE0101960E94733C60EF7CE083E79CE0CE
S11326C00E94313D61EE71E080EF9CE00E945A3E31
S11326D08111EBC26DE973E080EF9CE00E945A3EE9
S11326E08111E3C2CE0107960E94733CE4C163E703
S11326F078E089E49CE00E94593D6BEB71E08FE443
S11327009CE00E94593D6EE878E085E59CE00E94DB
S1132710593D6091A50C7091A60C44E650E083E409
S11327209CE00E94CA0661EE71E080EF9CE00E948A
S11327305A3E882361F082E40E94DE0867E070E07C
S113274080E090E00E94520965E973E014C06DE9ED
S113275073E080EF9CE00E945A3E882309F4ABC1E9
S113276084E40E94DE0867E070E080E090E00E946C
S113277017096FE973E081EB9CE00E94593DFFC2A9
S11327801092A40C1092A30C6FE978E089E49CE009
S11327900E94593D6BEB71E08FE49CE00E94593D2F
S11327A066EB78E0CE0101960E94DA3C61EB7CE0B6
S11327B0CE0101960E94323E6DEB78E00E94433ECA
S11327C0BC0185E59CE00E94313DCE0101960E944A
S11327D0733C6091A50C7091A60C44E650E083E430
S11327E09CE00E94CA0664E170E080E090E0CBC205
S11327F08091A30C9091A40C0E94EC086B017C01C5
S113280022E0AB01BC01CE0107960E94C43D64ECFA
S113281078E0CE0101960E94DA3CBE01695F7F4FE9
S1132820CE0101960E94323EBC0189E49CE00E94E4
S1132830313DCE0101960E94733CCE0107960E9461
S1132840733C6BEB71E08FE49CE00E94593D6CECAF
S113285078E0CE0101960E94DA3C61EB7CE0CE0187
S113286001960E94323EBC0185E59CE00E94313D08
S1132870CE0101960E94733C6091A50C7091A60C48
S113288044E650E083E49CE00E94CA06019B08C031
S11328906DE973E083E79CE00E945A3E81111CC2FB
S11328A0199B09C161EE71E083E79CE00E945A3EE6
S11328B0811141C200C16BEB71E089E49CE00E948C
S11328C0593D69ED78E08FE49CE00E94593D6BEB43
S11328D071E085E59CE00E94593D4499ECC060910B
S11328E0A50C7091A60C4AE050E083E49CE00E94A1
S11328F0CA060E94E30B9FEF23ED80E39150204032
S11329008040E1F700C000006BEB71E08BE59CE0D8
S11329100E94593D09E71CE081E9E82E8CE0F82E7D
S1132920B801CE0101960E94463D67EE78E0CE01E3
S113293001960E94433EBC018BE59CE00E941E3E32
S1132940CE0101960E94733C0A5F1F4FE016F10608
S113295039F78091A50C9091A60C0E94A9096BEB04
S113296071E0CE0101960E94DA3C6091A70C70914F
S1132970A80C8E010F5F1F4F24E630E04FED5BE0A3
S11329808091A50C9091A60C8ADC182FCE0101969B
S11329900E94733C112309F466CD0E9492016BEBF3
S11329A071E089E49CE00E94593D69EE78E08FE48F
S11329B09CE00E94593D6BEB71E085E59CE00E9430
S11329C0593D6091A50C7091A60C44E650E083E457
S11329D09CE00E94CA069FEF29EF80E091502040BE
S11329E08040E1F700C0000065C06BEB71E089E452
S11329F09CE00E94593D68EF78E08FE49CE00E94DF
S1132A00593D6BEB71E085E59CE00E94593D609176
S1132A10A50C7091A60C4AE050E083E49CE00E946F
S1132A20CA068FE19EE40197F1F700C000000E94FE
S1132A3092016BE079E08DE59EE00E94343A9FEFCD
S1132A4020E782E0915020408040E1F700C0000080
S1132A502C986CE179E08DE59EE00E94343A0E9466
S1132A60F6010E9404058FE19EE40197F1F700C08E
S1132A7000006BE57CE0CE0101960E94463D60912A
S1132A800601709107018091080190910901AE013E
S1132A904F5F5F4F0E940203CE0101960E94733C78
S1132AA08FE19EE40197F1F700C000000E94D0047A
S1132AB00E94F6015FDB6EE87BE0CE0101960E9486
S1132AC0FC1D86E0FE013196ACE7BBE001900D925F
S1132AD08A95E1F78CE79BE0E0D760938A0B7093CB
S1132AE08B0B80938C0B90938D0B0091860B109124
S1132AF0870B2091880B3091890BC090820BD0906A
S1132B00830BE090840BF090850B0C0D1D1D2E1D86
S1132B103F1D68017901C61AD70AE80AF90AD701E4
S1132B20C6010297A105B10508F030C123DB2EC10F
S1132B306BEB71E08DE59EE00E94343A6BE279E044
S1132B408DE59EE00E94093A6BE679E0CE0101969C
S1132B500E94DA3CBE01675E7F4FCE0101960E945F
S1132B60323EBC018DE59EE00E94243ACE010196DE
S1132B700E94733C6BE279E08DE59EE00E94093A85
S1132B806AE779E08DE59EE00E94343ABE01675E13
S1132B907F4F89E79CE00E94313D8EEC9CE00E94CF
S1132BA0C82B8EEC9CE00E942E2C8FE39CE90197AD
S1132BB0F1F700C0000060E278E089E49CE00E9444
S1132BC0593D6BEB71E08FE49CE00E94593D6FE945
S1132BD079E0CE0101960E94DA3CBE01675E7F4F28
S1132BE0CE0101960E94323EBC0185E59CE00E9424
S1132BF0313DCE0101960E94733C6091A50C709109
S1132C00A60C44E650E083E49CE00E94CA0688E6F1
S1132C109AE09A8389834091C90B5091CA0B6091C1
S1132C20CB0B7091CC0B4B835C836D837E83988735
S1132C308F834091CF0B5091D00B6091D10B709149
S1132C40D20B49875A876B877C879E878D878091B3
S1132C50D50B9091D60BA091D70BB091D80B8F8741
S1132C60988BA98BBA8B68E271E0CE0143960E94DF
S1132C707639CE0101967C018E01095F1F4F9E01BA
S1132C80235F3F4FAE014D5E5F4F62E271E083E52B
S1132C909DE00E9455229FEF23ED80E39150204058
S1132CA08040E1F700C0000056CC66EF7CE08FE77F
S1132CB09CE00E94313D60EF7CE085E89CE00E944E
S1132CC0313D60911A0170911B0180911C0190911A
S1132CD01D010E946A0706CD22E0B701A601CE01BC
S1132CE001960E94C43DBE016F5F7F4F8BE89CE05C
S1132CF00E944E3DCE0101960E94733C69EA79E040
S1132D0081EB9CE00E94593D67E070E081E090E037
S1132D100E94520967E070E081E090E00E94170988
S1132D2092B182E0892782B96AE070E080E090E0A5
S1132D300E946A07B5CD22E0B701A601CE01019633
S1132D400E94C43DBE016F5F7F4F8BE89CE00E94F0
S1132D504E3DCE0101960E94733C69EA79E081EB15
S1132D609CE00E94593D67E070E081E090E00E94A1
S1132D70520967E070E081E090E00E9417096AE080
S1132D8070E080E090E00E946A0795CE6E960FB6E0
S1132D90F894DEBF0FBECDBFDF91CF911F910F918D
S1132DA0FF90EF90DF90CF9008952091970D22230C
S1132DB099F04FB7F8942091970D213059F42DB321
S1132DC02093950D3DB32091960D209523232DBB83
S1132DD04FBF02C04093950D8CBD9DBD0895809159
S1132DE0970D882361F09FB7F8942091970D8091F7
S1132DF0950D213019F48DBB9FBF08958FBF0895A1
S1132E00CF93DF93EC01862F188219821A821B82DA
S1132E106C834D831D8A1E8A60E00E94E03B61E062
S1132E208D81DF91CF910C94E03B4F925F926F9232
S1132E307F928F929F92AF92BF92EF92FF920F93E5
S1132E401F93CF93DF93CDB7DEB72C970FB6F894CB
S1132E50DEBF0FBECDBF7C015A01280139016BEBE7
S1132E6071E00E94DA3C8501812C912C5401841478
S1132E709504A604B70409F446C0F80161918F01D2
S1132E8040E1CE016031F0F401960E946E3DB7013D
S1132E90CE0107960E94463D64E477E0CE01079692
S1132EA00E94433EBE016F5F7F4F0E94323EBC01D1
S1132EB0C7010E94313DCE0107960E94733CCE01AA
S1132EC0019619C007960E946E3DB701CE01019686
S1132ED00E94463DBE01695F7F4FCE0101960E946C
S1132EE0323EBC01C7010E94313DCE0101960E94D1
S1132EF0733CCE0107960E94733CFFEF8F1A9F0A22
S1132F00AF0ABF0AB4CF8DE59EE00E94113AC70113
S1132F102C960FB6F894DEBF0FBECDBFDF91CF91D4
S1132F201F910F91FF90EF90BF90AF909F908F9063
S1132F307F906F905F904F900895EF92FF920F9360
S1132F401F93CF93DF93FC012689222339F06EBDB2
S1132F5000000DB407FEFDCF8EB527C0062FEC018F
S1132F6061E081810E941C3CE12CF12C10E060E0C6
S1132F7089810E941C3CC8010E2C02C0959587953E
S1132F800A94E2F780FF02C061E001C060E08A8138
S1132F900E941C3C61E089810E941C3CFFEFEF1AF7
S1132FA0FF0A88E0E816F10411F7DF91CF911F9131
S1132FB00F91FF90EF900895CF92DF92EF92FF92DE
S1132FC01F93CF93DF93FC012689222339F01EBC83
S1132FD000000DB407FEFDCF1EB526C0EC0161E074
S1132FE081810E941C3CE12CF12C10E0CC24C39480
S1132FF0D12C8B810E944A3C892B39F0C6010E2CBE
S113300001C0880F0A94EAF7182B60E089810E94B6
S11330101C3C61E089810E941C3CFFEFEF1AFF0A0F
S113302088E0E816F10429F7812FDF91CF911F91F1
S1133030FF90EF90DF90CF9008951F93CF93DF938D
S1133040EC018D89882309F18E89882319F081E7A1
S113305090E0ABDE60E088810E941C3C62E070E09E
S113306080E090E00E94383B62E0CE0166DFCE0152
S1133070A3DF182F61E088810E941C3C8E89811196
S1133080AEDE91E0113031F406C08C810E944A3CDE
S113309091E0811190E0892FDF91CF911F910895E4
S11330A0CF92DF92EF92FF921F93CF93DF936C0145
S11330B07B01C0E0D0E0C601C0DF182F811115C02C
S11330C0E114F10459F02A96EC16FD0638F469EC83
S11330D079E08DE59EE00E94343A07C06AE070E032
S11330E080E090E00E94383BE6CF812FDF91CF91C2
S11330F01F91FF90EF90DF90CF900895CF92DF92D1
S1133100EF92FF920F931F93CF93DF93EC016B0128
S1133110F42E8D89042F10E08823A9F18E89882349
S113312019F081E790E041DE60E088810E941C3C58
S113313062E070E080E090E00E94383B63E0CE0102
S1133140FCDE76010C0D1D1D0E151F0561F061E0FE
S113315070E080E090E00E94383BCE012DDFF70163
S113316081937F01F1CF61E088810E941C3C8E89AC
S1133170882361F1DF91CF911F910F91FF90EF9020
S1133180DF90CF902CCE62E070E080E090E00E946F
S1133190383B42E04F0D64E287E09EE00E946B37CB
S11331A087E09EE00E941736E6010C0D1D1DC01736
S11331B0D10761F061E070E080E090E00E94383B6C
S11331C087E09EE00E9417368993F1CFDF91CF917B
S11331D01F910F91FF90EF90DF90CF900895CF93C0
S11331E0DF9300D000D000D0CDB7DEB746E0BE01FB
S11331F06F5F7F4F83DF46E050E06CE371E0CE0108
S113320001960E94EA4321E0892B09F020E0822FF5
S113321026960FB6F894DEBF0FBECDBFDF91CF91D7
S11332200895682F87E09EE00C949D36AF92BF927C
S1133230CF92DF92EF92FF920F931F93CF93DF937E
S11332407C018B01FC018589C1E0C40F882309F44A
S113325058C08689882319F081E790E0A6DD60E0F4
S1133260F70180810E941C3C62E070E080E090E005
S11332700E94383B61E0C70160DE60E0C7015DDEAB
S113328060E0C7015ADE6FEFC70157DE6C2FC7013C
S113329054DE6C2F6195C70150DE64EDC7014DDE2D
S11332A0C12C93EDD92ED0E02197AC2CB12CAC16C7
S11332B0BD065CF4A00EB11EF5016081C7013DDEC0
S11332C0F5018081D80EC394F0CF6D2D6095C701B0
S11332D034DE60E0C70131DE61E0F70180810E94E5
S11332E01C3CF7018689882309F44BC0DF91CF91F8
S11332F01F910F91FF90EF90DF90CF90BF90AF9010
S11333006ECD62E070E080E090E00E94383B64E2C1
S113331070E087E09EE00E94F83680E082DF80E083
S113332080DF8FEF7EDF8C2F7CDF8C2F819579DF20
S113333084ED77DFB12C83EDD82ED0E02197EB2CF0
S1133340F12CEC16FD0654F4E00EF11EF701808119
S113335068DFF7018081D80EB394F1CF8D2D80956D
S113336060DF80E05EDF87E09EE0DF91CF911F9118
S11333700F91FF90EF90DF90CF90BF90AF900C949F
S11333806F37DF91CF911F910F91FF90EF90DF90F6
S1133390CF90BF90AF9008950F931F93CF93DF9377
S11333A0EC01890143DFB801CE017ADE811102C04C
S11333B080E00EC0CE0113DF8823D1F39D899923C9
S11333C039F0B801CE01DF91CF911F910F9168CEF2
S11333D0DF91CF911F910F910895CF93DF93EC016B
S11333E08D89882331F18E89882329F00E948C33BA
S11333F081E790E0DADC60E088810E941C3C68EEA2
S113340073E080E090E00E94383B82E08093070DF7
S113341028EE33E041E067E07DE0CE01BDDF61E00E
S113342088810E941C3C8E89882309F1DF91CF9109
S1133430D6CC87E09EE00E94DB3661E08D810E945D
S11334401C3C60E08D810E941C3C60E971E080E0DE
S113345090E00E94383B61E08D810E941C3C6AE050
S113346070E080E090E0DF91CF910C94383BDF91E5
S1133470CF910895CF93DF93EC0182E08093070D01
S113348028EE33E041E067E07DE0CE0185DF811185
S113349004C060E070E0CB0132C04CE067E07DE046
S11334A0CE012CDE46E050E066E371E087E09DE06B
S11334B00E94EA43892B69F78D89811103C0E7E0F3
S11334C0F0E002C0E6E0F0E0E95FF24F6081862FB1
S11334D090E0A0E0B0E0BA2FA92F982F882721818F
S11334E0822BBA2FA92F982F88272281822BBA2FBB
S11334F0A92F982F88272381BC01CD01622BDF914E
S1133500CF910895CF93DF93EC0194E19093070D4D
S113351081E08093080D9093090D80930A0D28EEA5
S113352033E044E067E07DE0CE0136DF8823A9F094
S113353048E067E07DE0CE01E1DD8D89811103C0C3
S113354086E090E002C085E090E0FC01E95FF24F84
S113355081E09081953109F080E0DF91CF91089569
S1133560E7E0FDE022E3208325E021832FEF22839F
S113357021E02383648328EE33E045E0BF010CCFD0
S1133580AF92BF92CF92DF92EF92FF920F931F936D
S1133590CF93DF93EC017A01590168018AE48093A7
S11335A0070D81E08093080D6093090D980143E0B5
S11335B067E07DE0CE01F0DE182F882341F18D898C
S11335C0882379F044E167E07DE0CE0197DD8091C6
S11335D00E0D8130E1F48091130DF501808380E0BC
S11335E006C0B601CE015CDD8111ECCF10C0909114
S11335F0130D891768F4282F30E0F901E95FF24FC1
S11336009585F701E20FF31F90838F5FF0CF10E0F1
S1133610812FDF91CF911F910F91FF90EF90DF9059
S1133620CF90BF90AF900895AF92BF92CF92DF92A8
S1133630EF920F931F93CF93DF93EC01142F5C0150
S11336408EE0A80EB11C86E0F601D50101900D9222
S11336508A95E1F750E0CE0106960E94D1431D877A
S113366080E48093070D81E08093080DE11002C08F
S113367080E601C081E68093090D00930A0D86E07F
S1133680F501ABE0BDE001900D928A95E1F780E091
S11336904D85841760F4282F30E0FE01E20FF31FFC
S11336A09681F901E95FF24F92878F5FF1CF465F10
S11336B028EE33E067E07DE0CE016EDE882349F03A
S11336C04CE067E07DE0CE0119DD81E090910E0DC4
S11336D0911180E0DF91CF911F910F91EF90DF90D6
S11336E0CF90BF90AF9008950F931F93CF93DF9324
S11336F0EC018A0180E48093070D81E08093080D3A
S113370080E38093090D60930A0D28EE33E044E0D2
S113371067E07DE0CE0140DE811102C080E012C08E
S11337204AE167E07DE0CE01E9DC80910E0D811174
S1133730F5CF80E1EFE0FDE0D80101900D928A958C
S1133740E1F781E0DF91CF911F910F910895CF931D
S1133750DF93EC0180E48093070D81E08093080DF2
S113376080EA8093090D60930A0D80E1FA01ABE0D1
S1133770BDE001900D928A95E1F728EE33E044E133
S113378067E07DE0CE0108DE882369F06AE070E03E
S113379080E090E00E94383B4AE167E07DE0CE01A2
S11337A0ADDC81E001C080E0DF91CF910895803DE0
S11337B027E0920710F0805D974050E0EBE1F2E0E3
S11337C021E0261730F43491430F511D2F5F3196B9
S11337D0F8CF633038F09C0123703327232B11F486
S11337E04F5F5F4FBC016D5F7F4F76956795769510
S11337F06795EDE6F1E08E9F90018F9F300D9E9FBF
S1133800300D1124C9010197860F971F840F951F4E
S11338100895FC01908190539A3008F090E08181E2
S113382080532AE0929F800D112408958F929F92D5
S1133830AF92BF92CF92DF92EF92FF92CF93DF933A
S1133840EC016A017B0180E8C81A83E4D80A8DE69A
S1133850E80A88E3F80A8CE3882E912CA12CB12C79
S1133860C701B601A50194010E943C406D83CA01C1
S1133870B901A50194010E943C406C83C701B601C3
S113388020E13EE040E050E00E943C40CA01B90122
S113389028E130E040E050E00E943C406B83C701E7
S11338A0B60120E831E541E050E00E943C40188236
S11338B08881982F937041E050E011F040E050E08F
S11338C0BA0163597E4F2617370738F0241B350B8E
S11338D02D5631408F5F8883EBCF81E089838981C6
S11338E0E82FF0E0E65EFD4FE491911103C08230D1
S11338F009F4EF5FF0E02E173F0720F02E1B3F0B7B
S11339008F5FECCF2F5F2A83DF91CF91FF90EF90F1
S1133910DF90CF90BF90AF909F908F900895EF92DB
S1133920FF920F931F93CF93DF93CDB7DEB72B97FF
S11339300FB6F894DEBF0FBECDBF8C017A014BE009
S113394050E0CE0101960E94C843CE010A9661DF81
S1133950F8018083E9818E2F90E0FC01E154F109A4
S1133960E331F10548F5EF5AFF4F0C945E408A812C
S1133970813629F08B818E3621F087E01BC081E0EF
S113398019C086E017C082E015C08B81823711F020
S113399088E010C084E00EC08B81823711F085E08E
S11339A009C083E007C089E005C08AE003C08BE05A
S11339B001C08CE0F8018183CE0105962ADFF8016D
S11339C0828348E050E0B701CE0101960E94C843CB
S11339D0CE0101961EDFF8018383CE01049619DF20
S11339E0F8018483CE01079614DFF80185832B96B2
S11339F00FB6F894DEBF0FBECDBFDF91CF911F91FC
S1133A000F91FF90EF900895FC01808142816181C4
S1133A1090E0CDDE069667E070E00C9428400895AF
S1133A20EF92FF920F931F93CF93DF93EC01888162
S1133A304A81698190E0BBDE9C01A8E1B0E00E946C
S1133A4067402B817B018C01E20EF11C011D111DCD
S1133A50A8019701ACE3B0E00E9476402C817B0181
S1133A608C01E20EF11C011D111DA80197010E9499
S1133A7076402D81DC01CB01820F911DA11DB11D6A
S1133A80BC01CD0160587C4B8249974CDF91CF91AA
S1133A901F910F91FF90EF900895EF92FF920F9373
S1133AA01F93CF93DF93EC0188814A81698190E071
S1133AB07EDE9C01A8E1B0E00E9467402B817B017F
S1133AC08C01E20EF11C011D111DA8019701ACE34C
S1133AD0B0E00E9476402C817B018C01E20EF11C47
S1133AE0011D111DA80197010E9476402D81620FCE
S1133AF0711D811D911DDF91CF911F910F91FF9039
S1133B00EF900895FC0110821182128213821482B4
S1133B10089508950F931F93CF93DF93EC01062F1D
S1133B20142F68E687E09EE00E94EE36602F87E05F
S1133B309EE00E949D36612F87E09EE00E949D36A4
S1133B4087E09EE00E946F378883DF91CF911F91B9
S1133B500F9108951F93CF93DF93EC01162F68E61E
S1133B6087E09EE00E94EE36612F87E09EE00E948F
S1133B709D3687E09EE00E946F37888341E068E6C7
S1133B8087E09EE00E946B3787E09EE00E94173634
S1133B90DF91CF911F910895CF92DF92EF92FF9220
S1133BA0CF93DF93EC016A017B0187E09EE00E94E2
S1133BB0DB36B701A60187E09EE00E94EB3668E69B
S1133BC087E09EE00E94EE3687E09EE00E946F3719
S1133BD081110AC062E0CE01BDDF482F4F7B62E055
S1133BE0CE0198DF81E001C080E0DF91CF91FF90AA
S1133BF0EF90DF90CF9008950F931F93CF93DF93AF
S1133C008C01EB0168E687E09EE00E94EE3660E0FE
S1133C1087E09EE00E949D3687E09EE00E946F3719
S1133C20888347E068E687E09EE00E946B3787E080
S1133C309EE00E940F36079709F064C087E09EE07B
S1133C400E941736982F9695969596959E70292FD3
S1133C50220F220F920F8F70890F8D8387E09EE0D1
S1133C600E941736982F9695969596959E70292FB3
S1133C70220F220F920F8F70890F8E8387E09EE0B0
S1133C800E941736982F9695969596959E70292F93
S1133C90220F220F920F8F70890F8F8387E09EE08F
S1133CA00E94173687E09EE00E941736982F96955B
S1133CB0969596959670292F220F220F920F8F704A
S1133CC0890F888787E09EE00E94173684FB992736
S1133CD090F9990F292F220F220F920F8F70890FBD
S1133CE0898787E09EE00E941736982F92959F70EF
S1133CF08F702AE0929F800D112490E08053984F9A
S1133D009B878A872D813E814F81588569858A8565
S1133D109B85803D77E0970710F0805D9740F80120
S1133D20808361835283438334832583C801DF9175
S1133D30CF911F910F910895DF92EF92FF920F930D
S1133D401F93CF93DF9300D000D000D0CDB7DEB760
S1133D508C017B01FB0185819AE0D92E6D2D0E9497
S1133D601C40492FF0E18F9F400D112460E0C801F1
S1133D70D1DEF70184816D2D0E941C40492FF0E1B2
S1133D808F9F400D112461E0C801C4DEF7018381D7
S1133D906D2D0E941C40492FF0E18F9F400D11248E
S1133DA062E0C801B7DEC7012FDE482F63E0C80117
S1133DB0B1DEF70182816D2D0E941C40492FF0E194
S1133DC08F9F400D112464E0C801A4DEF7018181B6
S1133DD06D2D0E941C40492FF0E18F9F400D11244E
S1133DE065E0C80197DEF70180816D2D0E941C40BB
S1133DF0492FF0E18F9F400D112466E0C8018ADE4F
S1133E006FE0C801A7DE482F4F776FE0C80182DE5C
S1133E106EE0C8019FDE482F4F776EE0C8017ADE5E
S1133E20B801CE010196E8DECE010196F9DDF80174
S1133E30618372838383948326960FB6F894DEBFDE
S1133E400FBECDBFDF91CF911F910F91FF90EF90E7
S1133E50DF9008950F931F93CF93DF9300D000D08A
S1133E6000D0CDB7DEB78C0142E152E066E072E0EB
S1133E70CE01019654DDBE016F5F7F4FC8015CDF48
S1133E8026960FB6F894DEBF0FBECDBFDF91CF915B
S1133E901F910F9108950F9300E020E040E060E04F
S1133EA087E49DE00E946A390F910895FB014281E5
S1133EB0538164817581FC014283538364837583D8
S1133EC0178216820895CF93DF93DA01FB01EB0189
S1133ED089918111FDCF80E090E020E030E04AE05C
S1133EE051915523E9F02430310544F55E3269F4EB
S1133EF08F3F910509F014F5ED01C20FD31F8A839A
S1133F002F5F3F4F80E090E0EBCF489FB001499F87
S1133F10700D1124852F90E0C097860F971FE0CF76
S1133F208F3F910509F054F4243031053CF4FD0130
S1133F30E20FF31F828381E090E002C080E090E012
S1133F40DF91CF9108950F9300E020E040E060E01E
S1133F508DE49DE00E946A390F9108958F929F929B
S1133F60AF92BF92CF92DF92EF92FF920F931F9383
S1133F70CF93DF9300D01F92CDB7DEB76C017B01E6
S1133F800E94073BF601778366838601085F1F4F13
S1133F90B6016A5F7F4F42E050E0C80155D681E028
S1133FA090E09A83898342E050E0BE016F5F7F4FC7
S1133FB0C8014AD680E091E09A83898342E050E0C8
S1133FC0BE016F5F7F4FC8013FD61A82198242E05B
S1133FD050E0BE016F5F7F4FC80136D642E050E02B
S1133FE0BE016F5F7F4FC8012FD642E050E0BE0193
S1133FF06F5F7F4FC80128D65701F5018081882360
S1134000F9F0A7015A01F50181916F01882321F08C
S11340108E3211F0A601F6CF4A018E189F081814AB
S1134020190464F48B8241E050E0BE016D5F7F4F60
S1134030C8010AD6A401B701C80106D67601DDCFAE
S11340401B8241E050E0BE016D5F7F4FC801FCD58B
S1134050E12CFF24F394FA82E98242E050E0BE01AD
S11340606F5F7F4FC801F0D5FA82E98242E050E0E9
S1134070BE016F5F7F4FC801E7D581E090E00F90EC
S11340800F900F90DF91CF911F910F91FF90EF90C0
S1134090DF90CF90BF90AF909F908F9008952F9214
S11340A03F924F925F926F927F928F929F92AF92C4
S11340B0BF92CF92DF92EF92FF920F931F93CF9311
S11340C0DF93CDB7DEB763970FB6F894DEBF0FBEAC
S11340D0CDBF7C016B011A010E94073B4B015C01BF
S11340E08701085F1F4F2601612C712CC8014ED631
S11340F018161906A4F00E94073BDC01CB018819AD
S11341009909AA09BB09481659066A067B06D0F024
S113411062E370E080E090E00E94383BE7CFF70173
S11341204281538164817581818D928DA38DB48D7B
S1134130481759076A077B0749F4858D968DC597FB
S113414029F409C0EE24EA94FE2CF0C09EEFE92E77
S1134150FF24FA94EBC0C8012DD50C970CF4E2C0EF
S11341604CE050E0BE016F5F7F4FC801A8D58B8142
S11341709C819827892798279A8B898BF7014681F8
S1134180578129813A814217530711F497FD07C0DB
S1134190C8012AD57CEFE72EFF24FA94C7C08F709C
S11341A09270892B39F0C8011FD56BEFE62EFF24DE
S11341B0FA94BCC0CF80D884DC24CD24DC24C11480
S11341C0D10419F0E12CF12C1FC0C8010DD55AEF10
S11341D0E52EFF24FA94AAC041E050E0BE01635FDB
S11341E07F4FC8016CD58D85811117C08D858111D4
S11341F0F3CFC8013CD5C8013AD5C80138D5C801A8
S113420036D5FFEFEF1AFF0A8D819E819827892703
S11342109827E816F90600F309C08D859FEF980FDB
S11342209D87882319F3C80122D5F7CFA12CB12C7F
S113423041E050E0BE016D5E7F4FC80140D58B89DF
S1134240982F907C59F4882379F08B899FEF980FED
S11342509B8B882331F0C8010AD5F7CFC80107D555
S11342601B8A8B898111E4CF42E050E0BE01615F7B
S11342707F4FC80124D542E050E0BE01635F7F4F09
S1134280C8011DD5C801F3D4C801F1D4C801EFD4C5
S1134290C801EDD442E050E0BE016F5E7F4FC8011B
S11342A00ED58F8598898115914049F4ED84FE845B
S11342B0FE24EF24FE2481E0E816F10419F0E12C39
S11342C0F12C14C089899A898115944039F0C80168
S11342D08BD447EFE42EFF24FA9428C0B1016E5F1B
S11342E07F4F44E050E0C801EAD420C089899A890C
S11342F0982789279827E816F90630F4C801B7D417
S1134300FFEFEF1AFF0AF2CF2FEFA21AB20ACA1474
S1134310DB0409F08DCFC80167D436EFE32EFF2408
S1134320FA9404C08DEFE82EFF24FA94C701639633
S11343300FB6F894DEBF0FBECDBFDF91CF911F91B2
S11343400F91FF90EF90DF90CF90BF90AF909F9030
S11343508F907F906F905F904F903F902F90089533
S11343608F929F92AF92BF92CF92DF92EF92FF9281
S11343700F931F93CF93DF9300D000D000D0CDB71D
S1134380DEB77C014B015A019EDD8C01892B09F0BB
S113439057C0F701428153816481758180914F0D2B
S11343A09091500DA091510DB091520D481759079D
S11343B06A077B0709F447C00E94073B6701F8E0DE
S11343C0CF0ED11C6F7077277C5FC601AED48130CD
S11343D009F03BC088E69AE09A838983F7018281D9
S11343E09381A481B5818B839C83AD83BE8345E394
S11343F050E0BE016F5F7F4FC6011CD4892B19F4B6
S113440000E010E01AC0B401C701A8DD892BC1F394
S1134410C60117D4892BA1F383E0882E912CA50122
S113442068E873E1C7013BDE8C0121E0821A910840
S113443021F00F3FFFEF1F0791F3C601E7D305C03B
S113444001E010E002C00EEF1FEFC80126960FB680
S1134450F894DEBF0FBECDBFDF91CF911F910F91B6
S1134460FF90EF90DF90CF90BF90AF909F908F9090
S1134470089524E030E0AC0164E081E090E04DC7B1
S113448024E030E0AC0164E085E090E046C726E03B
S113449030E0AC0164E089E090E03FC724E030E024
S11344A0AC0164E08FE090E038C78F929F92AF92A6
S11344B0BF92CF92DF92EF92FF920F931F93CF930D
S11344C0DF934C015B016A01E901FC01648583E926
S11344D09DE06FD7C501DBDFC6010296DFDFC801AF
S11344E00296C7DFC7010296CBDF8A819B81AC812C
S11344F0BD81F40182839383A483B583DF91CF913B
S11345001F910F91FF90EF90DF90CF90BF90AF90ED
S11345109F908F90089528E63AE0FC013183208330
S1134520FB014281538164817581FC014283538381
S11345306483758308950F9300E020E040E060E019
S113454080E79DE00E946A3983E59DE00E9460391E
S1134550E3E5FDE0138612868AE084870F910895CF
S113456080E090E008950895DC01ED91FC91028CC7
S1134570F38DE02D099591E089270895CF93DF937A
S11345801F92CDB7DEB76983DC01ED91FC91028007
S1134590F381E02D41E050E0BE016F5F7F4F09954C
S11345A00F90DF91CF91089521E0FC01848588303C
S11345B009F420E0822F0895FC019485FB01848591
S11345C0981303C081E0983009F480E00895CF92F5
S11345D0DF92EF92FF920F931F93CF93DF93CDB7A8
S11345E0DEB7AF970FB6F894DEBF0FBECDBF8C0118
S11345F06B017A01CE0101960E946039CE010996C1
S113460014D4CE018A960E94603963E57DE0CE0120
S1134610849681DFBE016C5D7F4FCE01019646DC3E
S1134620AE01465D5F4FB601CE01019699DE813041
S11346309105C1F4D801ED91FC910684F785E02D34
S113464088E69AE09DA38CA38CA59DA5AEA5BFA5E5
S11346508EA39FA3A8A7B9A7A701BE016C5D7F4F36
S1134660C8010995AF960FB6F894DEBF0FBECDBF53
S1134670DF91CF911F910F91FF90EF90DF90CF903A
S113468008950F931F93CF93DF938C01D42FC52FDD
S1134690FC018485883041F481E090E0F801938343
S11346A0828380E090E005C00CD5892BA9F38D2F7F
S11346B09C2FDF91CF911F910F910895FC01648588
S11346C0683019F083E99DE0E9C680E090E0089540
S11346D0CF93DF931F92CDB7DEB741E050E0BE0128
S11346E06F5F7F4FFC01848534D5181619061CF4BE
S11346F0898190E002C08FEF9FEF0F90DF91CF91FF
S11347000895FC01848525C50F931F93CF93DF93F0
S11347101F92CDB7DEB78C01DC01ED91FC910084D2
S1134720F185E02D0995892B49F0BE016F5F7F4F1C
S1134730F80184854FD5898190E002C08FEF9FEF07
S11347400F90DF91CF911F910F910895FC01848503
S11347504EC5FC011382128288EE93E0A0E0B0E023
S113476084839583A683B78386ED99E091838083C0
S113477088E084870895FC011382128288EE93E016
S1134780A0E0B0E084839583A683B78386ED99E0A7
S11347909183808364870895FC016485683039F0CF
S11347A06295660F607E685F83E090E0E4C580E018
S11347B00895CF93DF93FC0124852830C9F0EC01E0
S11347C0EBDF843181F0882371F0883161F08C3122
S11347D061F4E881F9810084F185E02DCE01099529
S11347E021E0892B19F420E001C021E0822F01C0CF
S11347F080E0DF91CF910895CF92DF92EF92FF9204
S1134800CF93DF93EC018C85883069F155D40E94F5
S1134810073B6B017C01CE01BFDF8823A1F00E941E
S1134820073BDC01CB018C199D09AE09BF09883E09
S11348309340A105B10538F461E070E080E090E0B8
S11348400E94383BE8CFCE01A7DF882311F08C8586
S1134850B1D3EC85F0E0EE0FFF1FE05AF24F118266
S1134860108288E08C87DF91CF91FF90EF90DF90EA
S1134870CF900895CF92DF92FF920F931F93CF931F
S1134880DF93FC0124852830C1F56A018B01EC011A
S1134890F12C6F2D6295660F607E685F83E090E077
S11348A06AD5811102C0FC8607C08B7F8831D9F399
S11348B0F394F8E0FF12EDCF8C858830F1F020916D
S11348C04201309143012F5F3F4F11F420E034E067
S11348D0309343012093420140914201509143019E
S11348E020E061E072D3B8016E5F7F4FA6018C8532
S11348F0B0D3811105C088E08C8780E090E00FC0C0
S1134900CE014ADF873149F061E070E080E090E059
S11349100E94383BCE0140DFECCF81E090E0DF9194
S1134920CF911F910F91FF90DF90CF9008950F9337
S113493000E020E040E060E086E79DE00E946A3904
S11349400F910895CF93DF931F92CDB7DEB769839C
S1134950DC01ED91FC910280F381E02D41E050E017
S1134960BE016F5F7F4F09950F90DF91CF9108953E
S1134970EF92FF920F931F93CF93DF93CDB7DEB7E0
S11349802D970FB6F894DEBF0FBECDBF7C0100E0BB
S113499010E0602FCE010196EEDECE010196FCDE22
S11349A0811114C0F7014481558120E061E0802F1A
S11349B00CD3802F3DD3F70184819581000F111F03
S11349C0F801E05AF24F9183808305C00F5F1F4FB7
S11349D008301105F1F62D960FB6F894DEBF0FBE20
S11349E0CDBFDF91CF911F910F91FF90EF9008956C
S11349F0FC011382128288EF99E09183808375838E
S1134A0064830895AF92BF92CF92DF92EF92FF92A8
S1134A101F93CF93DF93CDB7DEB72D970FB6F894DE
S1134A20DEBF0FBECDBF7C0190E6A92E9DE0B92E5E
S1134A3010E0C12CD12C612FCE0101969CDED50152
S1134A402D913D915D01F7018481958128173907E6
S1134A5099F4CE010196A0DE843159F0CE0101967D
S1134A609BDE8C3149F4CE01019628DE892B91F02E
S1134A7003C0CC24C394D12C1F5F1830E1F6CD2899
S1134A8069F4D701ED91FC910084F185E02DC70113
S1134A90099504C0CE010196AFDEEECF2D960FB678
S1134AA0F894DEBF0FBECDBFDF91CF911F91FF9071
S1134AB0EF90DF90CF90BF90AF9008957F928F9248
S1134AC09F92AF92BF92CF92DF92EF92FF920F9399
S1134AD01F93CF93DF93CDB7DEB72D970FB6F8941E
S1134AE0DEBF0FBECDBF6C015B014A018BDF80E6E8
S1134AF0E82E8DE0F82E712C00E010E0672DCE0139
S1134B00019639DEF701219131917F01F60184810B
S1134B1095812817390729F4CE0101963DDE8731A6
S1134B20C9F07394F8E07F12E9CFC8012D960FB64F
S1134B30F894DEBF0FBECDBFDF91CF911F910F91CF
S1134B40FF90EF90DF90CF90BF90AF909F908F90A9
S1134B507F900895A401B501CE01019692DD080F5E
S1134B60191FDFCF0F9300E020E040E060E08CE706
S1134B709DE00E946A390F91089580E00895DC0158
S1134B80ED91FC91048CF58DE02D099428E63AE032
S1134B90FC0131832083FB01418952896389748933
S1134BA0FC0142835383648375830895FC018589E2
S1134BB096890895FC01818D928D0895CF93DF939A
S1134BC01F92CDB7DEB76983DC01ED91FC910280C1
S1134BD0F381E02D41E050E0BE016F5F7F4F099506
S1134BE00F90DF91CF910895CF93DF93EC01898DDE
S1134BF09A8D892B41F0E881F9810284F385E02DB7
S1134C00CE010995F4CFDF91CF910895CF93DF932F
S1134C10EC018C85883059F0CDD1EC85F0E0EE0FB5
S1134C20FF1FE05AF24F1182108288E08C87DF91D7
S1134C30CF910895FC01108E178A6E5F7F4F848593
S1134C4002C3FC01848522C3CF93DF93EC019A0154
S1134C508F89988DAB01BC018C85CAD22F89388D80
S1134C60280F391F388F2F8BDF91CF9108950F9321
S1134C701F93CF93DF931F92CDB7DEB7FC01218D35
S1134C80328D232B59F08C0141E050E0BE016F5F5F
S1134C907F4F84855ED2181619061CF08FEF9FEFA4
S1134CA008C0F801818D928D0197928F818F89813F
S1134CB090E00F90DF91CF911F910F910895CF93C2
S1134CC0DF93FC01218D328D2115310519F48FEF0D
S1134CD09FEF10C0EC014217530708F0A9018C851F
S1134CE038D2181619069CF7298D3A8D281B390BD2
S1134CF03A8F298FDF91CF910895CF93DF931F923D
S1134D00CDB7DEB7FC01218D328D232B41F0BE01DE
S1134D106F5F7F4F84855ED2898190E002C08FEF00
S1134D209FEF0F90DF91CF910895EF92FF921F9321
S1134D30CF93DF93FC012485283011F080E020C05C
S1134D407B01EC0110E0612F6295660F607E685F65
S1134D5083E090E010D3811102C01C8705C0883124
S1134D60E1F31F5F183079F78C85883039F3FE86BC
S1134D70ED861A8E198E20E0A70162E026D181E02B
S1134D80DF91CF911F91FF90EF9008950F931F93A0
S1134D90CF93DF93CDB7DEB728970FB6F894DEBF75
S1134DA00FBECDBF8C01DC01ED91FC910680F78133
S1134DB0E02D0995F801648583E99DE06FD3892B83
S1134DC039F148E050E0BE016F5F7F4FD8011C9677
S1134DD08C91BFD118161906ECF4BE016F5F7F4F9A
S1134DE0C8010F960E9482398D8190E0982F882700
S1134DF02E81820F911DF801968B858B8F8190E017
S1134E00982F88272885820F911D928F818F02C049
S1134E1080E090E028960FB6F894DEBF0FBECDBFB9
S1134E20DF91CF911F910F910895FC01138212829B
S1134E3088EE93E0A0E0B0E084839583A683B783F3
S1134E4086E09AE09183808388E08487CF010F967F
S1134E500C946039CF92DF92EF92FF920F931F93DD
S1134E60CF93DF93CDB7DEB7AF970FB6F894DEBF1D
S1134E700FBECDBF8C016B017A01CE0101960E9459
S1134E806039CE010996D1DFCE018A960E9460393D
S1134E9063E57DE0CE0184963EDBBE016C5D7F4F11
S1134EA0CE01019603D8AE01465D5F4FB601CE0137
S1134EB0019656DA81309105C1F4D801ED91FC9147
S1134EC00488F589E02D88E69AE09DA38CA38CA53F
S1134ED09DA5AEA5BFA58EA39FA3A8A7B9A7A7010B
S1134EE0BE016C5D7F4FC8010995AF960FB6F8946B
S1134EF0DEBF0FBECDBFDF91CF911F910F91FF9009
S1134F00EF90DF90CF9008950F9300E020E040E011
S1134F1060E082E89DE00E946A390F9108950F9342
S1134F2000E020E040E060E088E89DE00E946A390B
S1134F300F910895AB018295880F807E6CE0680F15
S1134F4024E030E08CE090E0E8C19B018295880F7A
S1134F50807E68E0680FC9010EC262E070E0F5CFA0
S1134F609B018295880F807E6CE0680FC901B5C1F2
S1134F70CF93DF93C82FD62F472F64E070E0F0DF84
S1134F804D2F65E070E08C2FDF91CF91E9CF462F54
S1134F9062E070E0E5CFCF93DF93C82FD62F472F81
S1134FA060E170E0DDDF4D2F61E170E08C2FDF9177
S1134FB0CF91D6CFCF93C82F40E1682F83E99DE0EE
S1134FC05FD36FEF8C2FCF91E2CFFF920F931F939C
S1134FD0CF93DF939FEF960F953018F5D22F8A0168
S1134FE0F62EC82FE7DF4F2D4D2B60E070E08C2F9D
S1134FF0B7DF0115110511F0B8010AC060918E0DDB
S113500070918F0D6F5F7F4F70938F0D60938E0D36
S11350108C2FAEDF41E06C2F83E99DE031D381E03A
S113502001C080E0DF91CF911F910F91FF9008950F
S1135030CF93C82F63E070E088DF833139F442E016
S11350406C2F83E99DE01CD381E001C080E0CF9107
S113505008950F931F93CF93FB0190819F3F51F4C9
S113506091819F3F91F492819F3F79F493819F3F77
S113507061F41CC0911109C09181911106C0928103
S1135080911103C09381992391F04115510571F059
S11350908A01BF01C82F4EDFB8018C2F7CDF44E0AA
S11350A06C2F83E99DE0ECD291E001C090E0892F60
S11350B0CF911F910F91089548E0682F83E99DE0F7
S11350C0DFC2CF92DF92EF92FF920F931F93CF93A1
S11350D0C82F7B018A014130584010F000E018E0ED
S11350E06C2F83E99DE0A9D16C0163E070E08C2F03
S11350F02CDF873111F08C3121F4C016D10680F3F6
S113510002C000E010E09801A7016C2F83E99DE044
S113511019D240E26C2F83E99DE0B2D28C2F1DDFBF
S113512084FD0BC063E070E08C2F0FDF8111F6CF9C
S11351308C2F40DF80E090E004C060E18C2F27DFFB
S1135140C801CF911F910F91FF90EF90DF90CF9006
S11351500895CF92DF92EF92FF920F931F93CF9314
S1135160DF93182F6B017A01682F83E99DE096D1B4
S1135170EC01009791F463E070E0812FE6DE843166
S1135180F9F08823E9F0C1E0D0E08C3111F4C0E0FB
S1135190D0E0D195C195D10913C0E816F9060CF4F5
S11351A0E7011C161D0664F400E09E01A601612FB0
S11351B083E99DE018D240E4612F83E99DE060D249
S11351C0CE01DF91CF911F910F91FF90EF90DF906F
S11351D0CF9008950F93AB0101E021E030E0682FF8
S11351E083E99DE000D281E090E00F910895089555
S11351F0AF92BF92CF92DF92FF920F931F93CF9300
S1135200DF93F82E6B015A01E901682F83E99DE0D1
S113521014D18C179D0728F46F2D83E99DE00DD1DF
S1135220EC018E019501A6016F2D83E99DE050D11B
S1135230CE01DF91CF911F910F91FF90DF90CF901E
S1135240BF90AF9008950F931F93CF93FB0190816C
S1135250911109C09181911106C09281911103C0ED
S11352609381992369F04115510551F08A01BF01D9
S1135270C82F60DEB8018C2F8EDE81E090E002C082
S113528080E090E0CF911F910F910895CF93C82FA4
S113529040E2682F83E99DE0F3D18C2F5EDE84FD2C
S11352A00AC08C2F5ADE83FFF8CF68E18C2F6FDEA3
S11352B080E090E005C060E18C2F69DE81E090E041
S11352C0CF9108958EBD00000DB407FEFDCF8EB5BD
S11352D0089544980895449A08950F931F93CF9383
S11352E0DF93182F092FD62FC42F8091910D909101
S11352F0920D0E94D516EDDF802FE4DF812FE2DFCF
S11353008D2FE0DF8C2FDEDFE6DF0E94EF1681E0D9
S1135310DF91CF911F910F910895DF92EF92FF9249
S11353200F931F93CF93DF93D82FD92EC62F7A01D3
S113533089018091910D9091920D0E94D516C9DF3B
S11353408D2DC0DF8D2FBEDF8C2FBCDFE701E00E7B
S1135350F11ECE15DF0519F08991B4DFFACFBBDF5A
S11353600E94EF16C801DF91CF911F910F91FF901A
S1135370EF90DF9008951F93CF93DF93D82F192FC9
S1135380C62F8091910D9091920D0E94D516A1DFA8
S1135390812F98DF8D2F96DF8C2F94DF80E092DFB2
S11353A0C82F99DF0E94EF168C2FDF91CF911F91A8
S11353B00895CF93DF936093900D68EE73E080E0DF
S11353C090E00E94383B3C9A0E948C3360E080E07D
S11353D090E0D1DF482F406864E080E090E07DDF1A
S11353E0C0E0DC2FD295DD0FD07ED45F42E06D2F7C
S11353F08EE190E072DF42E06D2F8FE190E06DDF8F
S1135400CF5FC83071F7DF91CF9108951F93CF9389
S1135410DF93182F60E270E098DDC82FD0E0DC2F16
S1135420CC2761E270E0812F90DD9E01280F311DB1
S1135430C901DF91CF911F910895FF920F931F939C
S1135440CF93DF93F62EC0E0D0E08F2DDFDF8C0109
S1135450892B19F08F2DDADFEC01C017D107A9F7DA
S1135460CE01DF91CF911F910F91FF9008951F936B
S1135470CF93DF93182F66E270E067DDC82FD0E08A
S1135480DC2FCC2767E270E0812F5FDD9E01280FBF
S1135490311DC901DF91CF911F910895FF920F93A0
S11354A01F93CF93DF93F62EC0E0D0E08F2DDFDF84
S11354B08C01892B19F08F2DDADFEC01C017D1078D
S11354C0A9F7CE01DF91CF911F910F91FF9008951D
S11354D0AF92BF92DF92EF92FF920F931F93CF93FD
S11354E0DF93D62E7A01590164E270E08D2D2DDD13
S11354F0C82F65E270E08D2D28DDD0E0DC2FCC27AD
S1135500E80EF11CCE0DDF1D6D2D6295660F607ED9
S11355106C5E9801A501CE0100DFC00FD11F4D2F95
S113552064E270E08D2D1CDD4C2F65E270E08D2D62
S1135530DF91CF911F910F91FF90EF90DF90BF907B
S1135540AF900ECD0F931F9389019A0140E050E074
S1135550BFDF1F910F910895DF92EF92FF920F9397
S11355601F93CF93DF93D82FD92EC62F7A018901A9
S11355708091910D9091920D0E94D516AADE8D2DE9
S1135580A1DE8D2F9FDE8C2F9DDEE701E00EF11E44
S1135590CE15DF0521F080E095DE8993F9CF9BDEFF
S11355A00E94EF16C801DF91CF911F910F91FF90D8
S11355B0EF90DF9008950F931F93CF93DF9300D064
S11355C0CDB7DEB75A834983A901980189819A81AD
S11355D06295660F607E685E0F900F90DF91CF91A9
S11355E01F910F91B9CF8F929F92AF92BF92CF929A
S11355F0DF92EF92FF920F931F93CF93DF936C018F
S1135600962E5A017901802E68E270E0892D9DDC86
S1135610082F69E270E0892D98DC10E0102F002734
S1135620E801C80FD11D87019501AE01692DC6019E
S1135630C2DF811018C00C0F1D1F412F68E270E0FB
S1135640892D8EDC402F69E270E0892DDF91CF91A6
S11356501F910F91FF90EF90DF90CF90BF90AF908C
S11356609F908F907DCCDF91CF911F910F91FF90F0
S1135670EF90DF90CF90BF90AF909F908F90089560
S1135680CF93C62F61E070E08C2F6ADC61E070E09C
S11356908C2F5BDC8111FACFCF910895E1E9FDE015
S11356A080E5808381E081830895FC0112828FEF7D
S11356B08183108213820895FC018381882331F051
S11356C0611103C08FEF818308951182089587E0EB
S11356D09EE00E94EE3687E09EE00E946F3791E0E4
S11356E0811190E0892F0895CF93DF93EC016A83B1
S11356F087E09EE00E94DB366A81CE01E8DF8B837F
S1135700882329F087E09EE00E94173688838B81E6
S113571090E0DF91CF910895CF93DF93FC01238133
S11357202223B1F0EC01818180956823608362813A
S113573087E09EE00E94EE36688187E09EE00E944A
S11357409D3687E09EE00E946F37282F30E002C02C
S113575020E030E081E090E0232B11F080E090E045
S1135760DF91CF91089508950895DC01ED91FC91A6
S11357700684F785E02D41E0099581E090E00895E5
S1135780FC01138212822EE23AE0318320830895D1
S1135790DC01ED91FC910484F585E02D6FEF099413
S11357A0DC01ED91FC910484F585E02D60E0099421
S11357B0DC01ED91FC910684F785E02D40E009942D
S11357C061E0F6DF80ED97E00C94713BCF93DF93BB
S11357D0CDB7DEB728970FB6F894DEBF0FBECDBFA6
S11357E0FC0180914A0190914B01A0914C01B09130
S11357F04D018D839E83AF83B88780914E01909134
S11358004F01A0915001B091510189839A83AB83D8
S1135810BC838781481710F04FEF480F908550E004
S1135820DE01A40FB51F903129F4843019F41196C8
S11358309C9102C015969C91690F6068CF012896CF
S11358400FB6F894DEBF0FBECDBFDF91CF91B0CFBE
S1135850FC0165816B7F65836860AACFFC0165816B
S1135860262F246025836C60A3CFCF93DF93EC01B4
S1135870423018F08C8188608C834F8368872223A0
S113588029F0413019F48C8184608C8364E670E0E3
S113589080E090E00E94383B6C8164FD31C0E88177
S11358A0F9810684F785E02D42E063E0CE01099595
S11358B084E991E10E94713BE881F9810684F785CE
S11358C0E02D42E063E0CE01099586E990E00E9474
S11358D0713BE881F9810684F785E02D42E063E0BD
S11358E0CE01099586E990E00E94713BE881F98137
S11358F00684F785E02D42E062E0CE01099513C0ED
S11359006062CE0155DF84E991E10E94713B6C81B4
S11359106062CE014DDF86E990E00E94713B6C81AC
S11359206062CE0145DF86E990E00E94713B6C81A4
S11359306062CE013DDF8CE390E00E94713B84E025
S11359408D83CE018BDFCE013BDF82E08E8366E068
S1135950CE012EDFCE01DF91CF911ACFEF92FF92CD
S11359600F931F93CF93DF938C017A01677088E0C4
S1135970689FB00111246064C8011ADF8EE190E0D1
S11359800E94713BE701A8E0EA0EF11C6991D8017D
S1135990ED91FC910190F081E02DC801099588E218
S11359A090E00E94713BCE15DF0581F7DF91CF9126
S11359B01F910F91FF90EF90089521E001C0220FF5
S11359C06A95EAF7DC011B962C931B9719964C9366
S11359D01997ED91FC910484F585E02D60E009941C
S11359E0FC018385882389F09185911103C061119D
S11359F005C006C0913021F4611102C0848701C042
S1135A0014866485CF010D9687CE08950F931F9356
S1135A10CF93DF938C01EC012D96FC016285CE01BE
S1135A2063DE019759F461E0CE0146DEF801148289
S1135A3060E0CE0171DE81E090E002C080E090E0A1
S1135A40DF91CF911F910F9108958F92AF92CF92D2
S1135A50EF920F93CF93DF93CDB7DEB7FC0162874C
S1135A6013861486118681E0982F01C0990F4A95F8
S1135A70EAF7918B982F01C0990F2A95EAF7928B38
S1135A80982F01C0990F0A95EAF7938B982F01C0BC
S1135A90990FEA94EAF7948B982F01C0990FCA944E
S1135AA0EAF7958B982F01C0990FAA94EAF7968B81
S1135AB001C0880F8A94EAF7878BDF91CF910F9109
S1135AC0EF90CF90AF908F9008956F927F928F92C6
S1135AD09F92AF92BF92CF92DF92EF92FF920F9379
S1135AE01F93CF93DF93CDB7DEB73C01D62EB42EF0
S1135AF0922E1989FA8844DE82E49AE0F3019183B4
S1135B008083C3010D96D1DD292D4B2D6D2DC3014D
S1135B109CDF4F2D612FC301DF91CF911F910F9116
S1135B20FF90EF90DF90CF90BF90AF909F908F90B9
S1135B307F906F9042CFEF92FF920F931F93CF937A
S1135B408C01C62F7C018DE0E80EF11CF8016189FF
S1135B506C2BC701E1DDF801618960956C23C701F5
S1135B60CF911F910F91FF90EF90D6CDFC01962F0E
S1135B70DF0184E060E090FF04C054962C915497B8
S1135B80622B9695815011968111F5CF413009F41D
S1135B9043899485692B642BCF01CDCF0F931F9339
S1135BA0CF93DF93062F0F70423019F440E0602F3B
S1135BB00DC0142FEC0170E084E0759567958A950B
S1135BC0E1F7CE01D3DF412F602FCE01DF91CF91DA
S1135BD01F910F91CBCFFF920F931F93CF93DF931E
S1135BE0EC01162F042FF22E11DF2F2D402F612FE1
S1135BF0CE01DF91CF911F910F91FF9036CECF93BD
S1135C00DF93EC0169E272E08DE59EE00E94D739F2
S1135C108881803130F467E272E08DE59EE00E9475
S1135C20D73940E150E068818DE59EE0DF91CF9166
S1135C300C949D3AFC0160834111E1CF0895CF9308
S1135C40DF93EC0180E5888319821A828FEF8E83BB
S1135C508F83888789871E861F86188A198A82E51A
S1135C608C8F87E58D8F1E8E1F8E18A219A2FE01C0
S1135C70E65AFF4F108211821282138234961082E8
S1135C80118212821382DE01A258BF4F82E1E2E543
S1135C90F1E001900D928A95E1F7DE01A057BF4F24
S1135CA088E4E4E6F1E001900D928A95E1F7DE01E3
S1135CB0A852BF4F89E0ECEAF1E001900D928A9579
S1135CC0E1F7FE01EF51FF4F8091B5019091B601CC
S1135CD0A091B70180839183A2838AE08A876D8330
S1135CE024B181E090E001C0880F6A95EAF7822B25
