S015000074656D706C61746556756F746F2E7372656396
S113000061C1000089C1000087C1000085C10000F2
S11300100C940C1881C100007FC100000C9462187C
S11300207BC1000079C1000077C1000075C10000E8
S113003073C1000071C100006FC100006DC10000F8
S11300400C940A3969C100000C94F8360C942A37D0
S113005063C1000061C100005FC100005DC1000018
S11300605BC1000059C100000C94143355C1000059
S113007053C1000051C100004FC100004DC1000038
S11300804BC1000049C1000047C10000960FEC0FAE
S113009013104F103211BE11B4121413A413901480
S11300A00115AB21C221C221BF21C221A921C22134
S11300B0C221C2219D21C221C221B221BD21BB2165
S11300C0C221C221C221B92100407A10F35A00A0F2
S11300D0724E18090010A5D4E80000E8764817000D
S11300E000E40B54020000CA9A3B000000E1F5054D
S11300F0000080969800000040420F000000A08697
S113010001000000102700000000E80300000000C8
S11301106400000000000A0000000000010000006C
S113012000002C76D888DC674F0823DFC1DFAE5986
S1130130E1B1B796E5E3E453C63AE651997696E819
S1130140E6C28426EB898C9B62ED407C6FFCEFBC9D
S11301509C9F40F2BAA56FA5F490055A2AF75C93C8
S11301606B6CF9676DC11BFCE0E40D47FEF520E6FE
S1130170B500D0ED902E0300943577050080841EE1
S1130180080000204E0A000000C80C333333330F3C
S1130190986E12831141EF8D2114893BE65516CFD9
S11301A0FEE6DB18D1844B381BF77C1D901DA4BBE5
S11301B0E424203284725E228100C9F124ECA1E59A
S11301C03D275254432063686970204453333233CB
S11301D0314D20696E697469616C697A65642E00B9
S11301E06E6F6E2074726F766F206D6F64756C6FB6
S11301F020525443204453333233314D4D2E205238
S11302006970726F766F207472612033732E004DA3
S1130210617920333120323032310030383A35318F
S11302203A3036001F1C1F1E1F1E1F1F1E1F1E1FBD
S1130230000000000403080700000200090A00008F
S113024000000000000000000000000000000001A9
S11302500102040810204080010210204080102078
S113026040801008200440800102040801020408B0
S1130270040404040404040402020202020201014C
S11302800101030303030303010101010303020248
S113029000000000230026002900000000002500C3
S11302A028002B0000000000240027002A00E11889
S11302B031248924812768297329452B152FA435D6
S11302C058370F1A11241FBECFEFD0E4DEBFCDBFC5
S11302D01AE0A0E0B1E0E6EDF9E800E00BBF02C0EF
S11302E007900D92AE37B107D9F72DE0AEE7BAE02B
S11302F001C01D92A03DB207E1F711E0C1E6D1E0D3
S113030004C02197FE010E943E3FC735D107C9F7BB
S11303100E94E4370C94DF4473CE80E090E00895AB
S1130320089544980895449A0895EF92FF920F9384
S11303301F93CF93DF93CDB7DEB768970FB6F894CA
S1130340DEBF0FBECDBF8DE59AE09A8389834091CD
S1130350C70A5091C80A6091C90A7091CA0A4B83AE
S11303605C836D837E8398878F834091CD0A5091FF
S1130370CE0A6091CF0A7091D00A49875A876B8759
S11303807C879E878D874091D30A5091D40A6091CF
S1130390D50A7091D60A4F87588B698B7A8B9C8BC0
S11303A08B8B8091D90A9091DA0AA091DB0AB091E3
S11303B0DC0A8D8B9E8BAF8BB88FCE0101967C01AE
S11303C08E01095F1F4F9E01235F3F4FAE014D5EBB
S11303D05F4F6AE271E083E29CE00E943B276896EB
S11303E00FB6F894DEBF0FBECDBFDF91CF911F9142
S11303F00F91FF90EF9008951816190644F4EFE951
S1130400FFE03197F1F700C000000197F5CF0895A0
S1130410CF9386E29DE00E946938CDE76FE372E0F6
S113042086E29DE00E946138C150C1F786E29DE0FA
S1130430CF910C946938CF93DF93D82FC0E0CD17B8
S113044041F061E472E086E29DE00E946138CF5F92
S1130450F6CFDF91CF910895CF93C82F81E0EBDFE2
S113046063E472E086E29DE00E946138CC2319F0D7
S113047067E472E002C06CE472E086E29DE00E94F0
S1130480613881E0CF91D7CF0F931F93CF93DF9340
S1130490EC018B010E94933BB8016A5F7F4FCE0150
S11304A006960E94933BF801848595859D878C87E9
S11304B0DF91CF911F910F910895CF93DF93EC01BA
S11304C006960E94C03ACE01DF91CF910C94C03AB7
S11304D0CF92DF92EF92FF920F931F93CF93DF930C
S11304E06A017B01C0E0D0E0082F10E0C017D107FB
S11304F024F4C60181DF2196F9CFDF91CF911F91BA
S11305000F91FF90EF90DF90CF9008958232910584
S113051009F49AC06CF58A30910509F483C0A4F4F7
S11305208630910509F475C08930910509F45DC0E0
S1130530059709F0CFC06091060186E29DE00E9414
S1130540623820E030E059C08231910509F473C06B
S11305508132910509F454C0419709F0BBC0609100
S1130560080186E29DE00E94623822E030E045C046
S11305708036910509F499C0ACF48834910509F4E6
S113058082C08035910509F487C08434910509F04F
S1130590A1C06091120186E29DE00E94623820E0D1
S11305A030E08BC08838910509F459C06CF4843864
S11305B0910509F08FC060910E0186E29DE00E94D2
S11305C0623820E030E05CC08039910509F450C005
S11305D0803A910509F07EC06091110186E29DE0A8
S11305E00E94623823E030E04BC06091070186E24C
S11305F09DE00E94623821E030E080E090E05FC03E
S11306006091090186E29DE00E94623823E030E0B7
S1130610F4CF60910A0186E29DE00E94623820E0F6
S113062030E01AC060910B0186E29DE00E946238BE
S113063021E030E011C060910C0186E29DE00E944F
S1130640623822E030E008C060910D0186E29DE04E
S11306500E94623823E030E081E090E030C0609195
S11306600F0186E29DE00E94623821E030E008C07C
S11306706091100186E29DE00E94623822E030E041
S113068082E090E01CC06091130186E29DE00E942C
S1130690623821E030E011C06091140186E29DE0EF
S11306A00E94623822E030E008C06091150186E2C1
S11306B09DE00E94623823E030E083E090E0880F00
S11306C0991F880F991F8A5F9E4FFC01E20FF31F49
S11306D0808108958EE40895CF93DF93EC0185E53E
S11306E09BE00E94A02F61E085E59BE00E946238B8
S11306F041E060E085E59BE00E94A62FBE016A5FB1
S11307007F4F85E59BE00E94533842E060E085E539
S11307109BE00E94A62FBE01645F7F4F85E59BE0AE
S11307200E94533843E060E085E59BE00E94A62FD9
S1130730BE016E5E7F4F85E59BE0DF91CF910C9407
S11307405338CF92DF92EF92FF926B017C0185E5E3
S11307509BE00E94A02F60912E0B70912F0B4AE01A
S113076050E08DED9AE0B8DFC092930AD092940ADB
S1130770E092950AF092960A8FE19EE40197F1F7D0
S113078000C000008DE89AE00E9433226093970A2B
S11307907093980A8093990A90939A0A80912E0BE9
S11307A090912F0B019690932F0B80932E0BFF901B
S11307B0EF90DF90CF9008958F929F92AF92BF9267
S11307C0CF92DF92EF920F931F93CF93DF93CDB726
S11307D0DEB7A2970FB6F894DEBF0FBECDBF5C01A3
S11307E04B0162E472E0CE014D960E94273B08EC77
S11307F010E025E73BE04EE65BE060E08EE39BE043
S11308000E94A61F8093760B882309F4A3C08091CD
S1130810750B843009F098C086E0E7E6F1E0DE016C
S1130820579601900D928A95E1F7CE0147966C0197
S1130830E12C04E010E020E030E044E06EE67BE0F0
S11308408EE39BE00E94FA1F8093760B882309F4C1
S11308506BC080E1F401DE01119601900D928A953E
S1130860E1F7AE014F5F5F4F64E08EE39BE00E94CF
S11308708D208093760B9FEF21EE84E091502040F1
S11308808040E1F700C00000AE014F5F5F4F64E0BD
S11308908EE39BE00E945A208093760B61E572E020
S11308A086E29DE00E948C38BE016F5F7F4FCE01CF
S11308B041960E94273B8091760B882301F1BE016B
S11308C06F5E7F4F86E29DE00E947C388D899E8911
S11308D0069759F4BE016F5E7F4FC5010E94763BB7
S11308E0CE0141960E94C03A3BC09FEF21EE84E0C6
S11308F0915020408040E1F700C0000010C085E521
S11309009BE00E94A02F41E060E085E59BE00E940F
S1130910A62F6FE572E085E59BE00E946138CE0169
S113092041960E94C03A10C085E59BE00E94A02F2A
S113093041E060E085E59BE00E94A62F69E672E055
S113094085E59BE00E94613862E472E086E29DE006
S11309500E948C38BE01635E7F4FC5010E94763BC6
S1130960CE014D960E94C03AC501A2960FB6F894E6
S1130970DEBF0FBECDBFDF91CF911F910F91EF90DE
S1130980DF90CF90BF90AF909F908F900895AF92DB
S1130990BF92CF92DF92EF92FF920F931F93CF9368
S11309A0DF93CDB7DEB7A2970FB6F894DEBF0FBEC4
S11309B0CDBF5C01F62E62E472E0CE014D960E943A
S11309C0273B08EC10E025E73BE04EE65BE060E007
S11309D08EE39BE00E94A61F8093760B882309F484
S11309E09DC04EE150E060E070E082E071DD8091F6
S11309F0750B843009F08CC086E0E7E6F1E0DE0197
S1130A00579601900D928A95E1F7CE0147966C01B5
S1130A10E12C04E010E020E030E044E06EE67BE00E
S1130A208EE39BE00E94FA1F8093760B882309F4DF
S1130A305FC0FF2099F080E1ECEBF9E0DE01119654
S1130A4001900D928A95E1F7AE014F5F5F4F64E02C
S1130A508EE39BE00E948D208093760BAE014F5F66
S1130A605F4F64E08EE39BE00E945A208093760BF4
S1130A70882389F161E572E086E29DE00E948C386A
S1130A80BE016F5F7F4FCE0141960E94273BBE019E
S1130A906F5E7F4F86E29DE00E947C388D899E893F
S1130AA0069759F4BE016F5E7F4FC5010E94763BE5
S1130AB0CE0141960E94C03A37C09FEF21EE84E0F8
S1130AC0915020408040E1F700C00000CE014196E3
S1130AD00E94C03A1DC085E59BE00E94A02F41E022
S1130AE060E085E59BE00E94A62F61E772E00CC000
S1130AF085E59BE00E94A02F41E060E085E59BE056
S1130B000E94A62F6EE772E085E59BE00E946138A3
S1130B1062E472E086E29DE00E948C38BE01635E6E
S1130B207F4FC5010E94763BCE014D960E94C03A8C
S1130B30C501A2960FB6F894DEBF0FBECDBFDF91FC
S1130B40CF911F910F91FF90EF90DF90CF90BF90C6
S1130B50AF900895CF92DF92EF92FF920F931F937D
S1130B60CF93DF93CDB7DEB764970FB6F894DEBFAB
S1130B700FBECDBF7C01CE0101966C0187E0F6016A
S1130B8011928A95E9F76CE872E0C7010E94273B4D
S1130B9000E010E09E012C5E3F4FA60160E08EE372
S1130BA09BE00E94A61F882359F10C8910E020E0E5
S1130BB030E0A6016EE37BE0CE010E960E94A51DF7
S1130BC0CE010E960E94BF3D28E030E040E050E0A8
S1130BD0BE01625F7F4FCE0108960E947C3DBE013C
S1130BE0685F7F4FC7010E949B3BCE0108960E941D
S1130BF0C03A81E080936D0BCE010E960E94C03AFC
S1130C00C70164960FB6F894DEBF0FBECDBFDF9167
S1130C10CF911F910F91FF90EF90DF90CF900895A7
S1130C20EF92FF920F931F93CF93DF93CDB7DEB76D
S1130C3062970FB6F894DEBF0FBECDBF8C017B0167
S1130C4063E972E0CE010D960E94273BE1DB6BE97C
S1130C5072E086E29DE00E948C3820914F01309131
S1130C605001F701848195812817390749F5A901B5
S1130C7043505109B701CE0107960E947C3D63EBB6
S1130C8072E0CE0101960E94273BBE01695F7F4F4F
S1130C90CE0101960E94FC3CBC0186E29DE00E94CC
S1130CA07C38CE0101960E94C03ABE01695F7F4F35
S1130CB0C8010E94763BCE0107960E94C03A09C043
S1130CC080E0CADBA5DBBE01635F7F4FC8010E94E1
S1130CD0763BCE010D960E94C03AC80162960FB6CB
S1130CE0F894DEBF0FBECDBFDF91CF911F910F915E
S1130CF0FF90EF900895AF92BF92CF92DF92EF9260
S1130D00FF920F931F93CF93DF93CDB7DEB7629714
S1130D100FB6F894DEBF0FBECDBF5C017B018A0124
S1130D20690176DB81E087DB6DE974E086E29DE0B2
S1130D300E946138A501B701C8010E94C927892B07
S1130D4009F48DC02FEF81EE94E021508040904053
S1130D50E1F700C000006AED74E0CE0101960E9444
S1130D60273BB601CE0101960E94FC3C64E173E08E
S1130D700E940D3DBC0182E39BE00E947E3BCE01BC
S1130D8001960E94C03AB701CE0107960E94273B04
S1130D9067E075E0CE0101960E94273BBE01695FC2
S1130DA07F4FCE0101960E94FC3CBC0182E39BE094
S1130DB00E94D63CCE0101960E94C03ACE0107960D
S1130DC00E94C03A6DE173E082E39BE00E94DC3C48
S1130DD064E973E082E39BE00E94DC3C6DE173E034
S1130DE082E39BE00E94DC3C6EE374E082E39BE0E0
S1130DF00E94DC3C6DE173E082E39BE00E94DC3CFA
S1130E006EE075E082E39BE00E94DC3C6DE173E000
S1130E1082E39BE00E94DC3C6DE173E082E39BE0B3
S1130E200E94DC3C62E37BE086E29DE00E947C3829
S1130E3062E37BE0C8010E9453382FEF83EC99E012
S1130E40215080409040E1F700C000006DE574E05F
S1130E50C8010E948C38C8010E94693825C085E504
S1130E609BE00E94A02F41E060E085E59BE00E94AA
S1130E70A62F6FE674E085E59BE00E94613843E0AD
S1130E8060E085E59BE00E94A62F64E874E085E5B8
S1130E909BE00E9461382FEF83ED90E32150804066
S1130EA09040E1F700C000008FE39CE90197F1F75F
S1130EB000C000006AE175E0CE010D960E94273B58
S1130EC0C8010E944028892B21F120914F013091C3
S1130ED050018091290B90912A0B82179307C8F433
S1130EE0C8010E944A28F82E65E27BE0CE010196F3
S1130EF00E94933B6F2DCE0101960E94243DBC01BC
S1130F0085E29BE00E947E3BCE0101960E94C03A9E
S1130F10D7CF65E27BE0CE0107960E94933BBE01EA
S1130F20695F7F4FCE0101967BDEBE016F5F7F4F0D
S1130F30CE010D960E949B3BCE0101960E94C03AC1
S1130F40CE0107960E94C03A9FEF27EE83E09150AE
S1130F5020408040E1F700C0000069E974E0CE0160
S1130F600D960E94303D882329F081E075DA50DA2D
S1130F7011E001C010E0CE010D960E94C03A812F0D
S1130F8062960FB6F894DEBF0FBECDBFDF91CF914E
S1130F901F910F91FF90EF90DF90CF90BF90AF9093
S1130FA00895AF92BF92CF92DF92EF92FF920F9388
S1130FB01F93CF93DF93CDB7DEB762970FB6F89444
S1130FC0DEBF0FBECDBF5C016B018A01790120DA5F
S1130FD081E031DA6CE175E086E29DE00E946138DF
S1130FE0A501B601C8010E94C927892B09F4B0C024
S1130FF02FEF81EE94E0215080409040E1F700C053
S113100000006CE575E082E39BE00E94A63BB6011C
S1131010CE0107960E94273B67E075E0CE0101965A
S11310200E94273BBE01695F7F4FCE0101960E945B
S1131030FC3CBC0182E39BE00E94D63CCE010196BD
S11310400E94C03ACE0107960E94C03A6DE173E057
S113105082E39BE00E94DC3C64E973E082E39BE072
S11310600E94DC3C6DE173E082E39BE00E94DC3C87
S11310706EE374E082E39BE00E94DC3C6DE173E08C
S113108082E39BE00E94DC3C6EE075E082E39BE03F
S11310900E94DC3C6DE173E082E39BE00E94DC3C57
S11310A0F701648175816B5E7F4F4AE0CE0107963C
S11310B00E94273C6EE775E0CE0101960E94273B13
S11310C0BE01695F7F4FCE0101960E94FC3CBC01CA
S11310D082E39BE00E94D63CCE0101960E94C03A76
S11310E0CE0107960E94C03A6DE173E082E39BE073
S11310F00E94DC3C6DE173E082E39BE00E94DC3CF7
S1131100B70182E39BE00E94D63C6DE173E082E389
S11311109BE00E94DC3C62E37BE086E29DE00E946F
S11311207C3862E37BE0C8010E945338FFEF23EC74
S113113089E0F15020408040E1F700C000006DE5F7
S113114074E0C8010E948C38C8010E94693825C027
S113115085E59BE00E94A02F41E060E085E59BE0EF
S11311600E94A62F6FE674E085E59BE00E9461383B
S113117043E060E085E59BE00E94A62F64E874E00C
S113118085E59BE00E9461389FEFE3EDF0E3915029
S1131190E040F040E1F700C000008FE39CE90197D4
S11311A0F1F700C000006AE175E0CE010D960E94DF
S11311B0273BC8010E944028892B21F120914F012F
S11311C0309150018091290B90912A0B821793073B
S11311D0C8F4C8010E944A28F82E65E27BE0CE01DB
S11311E001960E94933B6F2DCE0101960E94243DEF
S11311F0BC0185E29BE00E947E3BCE0101960E94E9
S1131200C03AD7CF65E27BE0CE0107960E94933BBC
S1131210BE01695F7F4FCE01019602DDBE016F5FA3
S11312207F4FCE010D960E949B3BCE0101960E94FA
S1131230C03ACE0107960E94C03A9FEFE7EEF3E072
S11312409150E040F040E1F700C0000069E974E02B
S1131250CE010D960E94303D882329F081E0FCD810
S1131260D7D811E001C010E0CE010D960E94C03A1B
S1131270812F62960FB6F894DEBF0FBECDBFDF910B
S1131280CF911F910F91FF90EF90DF90CF90BF907F
S1131290AF9008955798569888E08093680080EC42
S11312A0809373007894089509980A98089591E0BA
S11312B090936800843419F40D9880E202C00E986B
S11312C080E480936B0078940895CF92DF92EF923C
S11312D0FF92BC01990F880B990B0E9446366B0153
S11312E07C0120E030E0A9010E94A73587FF03C0FC
S11312F0C12CD12C760160914D0170914E01072EC5
S1131300000C880B990B0E9446369B01AC01C70167
S1131310B6010E94AB35FF90EF90DF90CF90089517
S11313203F9A8130910571F082309105E1F0892B6B
S113133089F547982FEF30E742E021503040404094
S1131340E1F70EC028B101C0880F6A95EAF7822B35
S113135088B98FEF90E722E0815090402040E1F778
S113136000C00000089528B181E090E001C0880F1A
S11313706A95EAF7982F9095922398B93FEF45EA3A
S11313802EE0315040402040E1F700C0000098B109
S1131390892B88B908950F9A81309105B9F082306C
S11313A0910529F1892BD1F522B181E090E001C0AA
S11313B0880F6A95EAF78095822382B92FEF30E788
S11313C042E0215030404040E1F70EC022B101C05C
S11313D0880F6A95EAF7822B82B98FEF90E722E0B3
S11313E0815090402040E1F700C00000089522B1F0
S11313F081E090E001C0880F6A95EAF7982F9095F4
S1131400922392B93FEF45EA2EE03150404020400C
S1131410E1F700C0000092B1892B82B90895239AA4
S11314202FEF36E741E0215030404040E1F700C063
S113143000008130910511F42B9A0895892B09F449
S11314402B98089562E472E085E29BE00E94A63B3B
S113145010922D0B10922C0B10926D0B6AE175E01B
S113146087E79BE00E94A63B6AE175E08DE79BE07D
S11314700E94A63B62E476E083E89BE00E94A63BE0
S113148010922B0B67E070E081E090E049DF67E0A9
S113149070E081E090E07FDF80E090E0C0DF8FE1EA
S11314A09EE40197F1F700C000008BEA9AE00E94E5
S11314B088288BEA9AE00E94CD288FE19EE4019768
S11314C0F1F700C0000088EB9AE00E94882888EBBE
S11314D09AE00E94CD281092310B1092300B8FE1CC
S11314E09EE40197F1F700C000002C988FE19EE480
S11314F00197F1F700C000002C9A8FE19EE4019758
S1131500F1F700C000000E9493018FE19EE401976F
S1131510F1F700C000000E94910182B182B982B14A
S113152082B962E472E083EE9AE00E94A63B62E430
S113153072E089EE9AE00E94A63B62E472E089EED2
S11315409AE00E94A63B85E59BE00E94902F85E5EA
S11315509BE00E94E82F10929B0A10929C0A109222
S11315609D0A10929E0A1092970A1092980A10925D
S1131570990A10929A0A0E9408026FE875E086E2BE
S11315809DE00E948C380E94080262E472E087E8C1
S11315909AE00E94A63B8FEF9FEF90932F0B8093CE
S11315A02E0B0895CF93DF93CDB7DEB762970FB6B6
S11315B0F894DEBF0FBECDBF813421F1D8F483325D
S11315C009F486C08A3209F0B2C062E472E087E8A6
S11315D09AE00E94A63B64EA75E083EE9AE00E94DA
S11315E0A63B62E472E089EE9AE00E94A63B62E4C4
S11315F072E08FC0833409F451C0A0F08E3409F432
S1131600D1C095C080918B0A90918C0A059709F0FE
S1131610C9C067E87AE0CE0101960E94933B60EA74
S113162075E00FC080918B0A90918C0A059709F0A0
S1131630B9C067E87AE0CE0101960E94933B62EA62
S113164075E0CE0101960E940D3DBC01CE010796C6
S11316500E94933BCE0101960E94C03A20E030E004
S113166047E050E0BE01635F7F4FCE0107960E94C2
S11316704E3DBE01635F7F4FCE0101969DD88FE33F
S11316809CE90197F1F700C00000CE0101960E9489
S1131690C03ACE0107960E94C03A84C020918B0ABA
S11316A030918C0A2115310509F47CC0215031098F
S11316B040E050E067E87AE0CE0101960E947C3D6C
S11316C0BE016F5F7F4F87E89AE00E949B3B3BC05F
S11316D080918B0A90918C0A059709F063C067E8A2
S11316E07AE08DE79BE00E947E3B6DE77BE087E03C
S11316F09BE00E947E3B65EE75E083EE9AE00E94DB
S1131700A63B69EF75E089EE9AE00E94A63B68E08B
S113171076E08FEE9AE00E94A63B60911E017091E4
S11317201F0180912001909121010BD83BC0682FAB
S1131730CE0101960E94BB3BBE016F5F7F4F87E8DD
S11317409AE00E94D63CCE0101960E94C03A67EB13
S113175075E083EE9AE00E94A63B69EC75E0CE0149
S113176001960E94273B67E87AE0CE0101960E9429
S1131770FC3CBC0189EE9AE00E947E3BCE010196BE
S11317800E94C03A60ED75E08FEE9AE00E94A63B9D
S113179060912E0B70912F0B4AE050E08DED9AE092
S11317A00E946C0362960FB6F894DEBF0FBECDBFE5
S11317B0DF91CF910895CF93DF93CDB7DEB72C9708
S11317C00FB6F894DEBF0FBECDBF833460F481340E
S11317D008F0CAC08A3209F4C7C08E3209F4C4C002
S11317E0833209F186C0833421F08E3409F081C03C
S11317F0BBC02091850A3091860A2115310509F470
S113180088C02150310940E050E061E87AE0CE011F
S113181001960E947C3DBE016F5F7F4F81E89AE094
S11318200E949B3B72C08091850A9091860A04971E
S113183009F09AC061E87AE083E89BE00E947E3B6D
S113184063E87BE089E19BE00E947E3B67E376E00E
S113185083EE9AE00E94A63B60912C0B70912D0BB5
S11318604AE0CE0107960E94FD3B64E476E0CE0197
S113187001960E94273BBE01695F7F4FCE0101960E
S11318800E94FC3CBC0189EE9AE00E947E3BCE01A2
S113189001960E94C03ACE0107960E94C03A6AE4BB
S11318A076E0CE0101960E94273B68E37BE0CE01FF
S11318B001960E94FC3CBC018FEE9AE00E947E3BA4
S11318C0CE0101960E94C03A0E9493018FE39FE1EA
S11318D00197F1F700C000000E94910160911A0184
S11318E070911B0180911C0190911D010E94A10324
S11318F03BC0682FCE0101960E94BB3BBE016F5FC7
S11319007F4F81E89AE00E94D63CCE0101960E9466
S1131910C03A67E176E083EE9AE00E94A63B68E273
S113192076E0CE0101960E94273B61E87AE0CE0181
S113193001960E94FC3CBC0189EE9AE00E947E3B29
S1131940CE0101960E94C03A6CE276E08FEE9AE0F6
S11319500E94A63B60912E0B70912F0B4AE050E041
S11319608DED9AE00E946C032C960FB6F894DEBFBE
S11319700FBECDBFDF91CF9108954F925F926F92CA
S11319807F928F929F92AF92BF92CF92DF92EF920B
S1131990FF920F931F93CF93DF9300D000D000D01A
S11319A0CDB7DEB77C015B014DB65EB663EA77E086
S11319B00E94273BF501C284D3848DB79EB78C194E
S11319C09D090FB6F8949EBF0FBE8DBFEDB7FEB74D
S11319D031964F013F01F50104851585C00ED11ED6
S11319E00C151D054CF4C8010E94C944F3018193F0
S11319F03F010F5F1F4FF4CF65E472E086E29DE084
S1131A000E948C3865E472E086E29DE00E948C3886
S1131A10B401CE0101960E94273BBE016F5F7F4F48
S1131A20C7010E949B3BCE0101960E94C03AB501BA
S1131A30CE0101960E94933B6CE178E0CE010196C1
S1131A400E940D3DBC0186E29DE00E945338CE0108
S1131A5001960E94C03AB70186E29DE00E947C385C
S1131A60C7010FB6F8945EBE0FBE4DBE26960FB6E4
S1131A70F894DEBF0FBECDBFDF91CF911F910F91C0
S1131A80FF90EF90DF90CF90BF90AF909F908F909A
S1131A907F906F905F904F9008958F929F92AF9236
S1131AA0BF92CF92DF92EF92FF920F931F93CF9347
S1131AB0DF93CDB7DEB72C970FB6F894DEBF0FBE19
S1131AC0CDBF5C018DB69EB6FC01C284D3848DB7B4
S1131AD09EB78C199D090FB6F8949EBF0FBE8DBF9B
S1131AE00DB71EB70F5F1F4FA6014F5F5F4F20E07A
S1131AF030E0B801C50106960E944E3D4AE0B601A9
S1131B00CE0107960E94FD3B67E576E0CE01019683
S1131B100E94273BBE01695F7F4FCE0101960E9460
S1131B20FC3CBC0186E29DE00E947C38CE0101961B
S1131B300E94C03ACE0107960E94C03A6EE576E054
S1131B4086E29DE00E948C3865E472E086E29DE0C6
S1131B500E948C38F501E484F584F501848595852B
S1131B608C0D9D1DE816F90664F4F80161918F014E
S1131B70662319F0C7010E94D144FFEFEF1AFF0A50
S1131B80ECCF65E472E086E29DE00E948C3881E04F
S1131B900FB6F8949EBE0FBE8DBE2C960FB6F89469
S1131BA0DEBF0FBECDBFDF91CF911F910F91FF908C
S1131BB0EF90DF90CF90BF90AF909F908F9008955B
S1131BC00F931F93CF93DF93EC018B0165E472E0D5
S1131BD086E29DE00E948C3865E472E086E29DE036
S1131BE00E948C386CE776E086E29DE00E948C3897
S1131BF0C017D10734F460E0CE010E94D14421968D
S1131C00F7CF69E976E086E29DE00E948C3865E4CE
S1131C1072E086E29DE00E948C3865E472E086E220
S1131C209DE0DF91CF911F910F910C948C384F92CE
S1131C305F926F927F928F929F92AF92BF92CF9258
S1131C40DF92EF92FF920F931F93CF93DF93CDB761
S1131C50DEB72C970FB6F894DEBF0FBECDBF7C0164
S1131C606B012A016DB67EB663EA77E00E94273BDA
S1131C708DB79EB78C199D090FB6F8949EBF0FBE01
S1131C808DBFEDB7FEB731965F0165E472E086E281
S1131C909DE00E948C386AEA76E086E29DE00E942C
S1131CA08C3865E472E086E29DE00E948C38450140
S1131CB08201C40CD51C0C151D055CF5C8010E94DD
S1131CC0C944F40181934F01882301F14AE0682F4C
S1131CD0CE0107960E94D23B65E472E0CE010196E4
S1131CE00E94273BBE01695F7F4FCE0101960E948F
S1131CF0FC3CBC0186E29DE00E945338CE01019673
S1131D000E94C03ACE0107960E94C03A0F5F1F4F4F
S1131D10D2CF65E472E086E29DE00E948C3865E4EF
S1131D2072E086E29DE00E948C38B501CE010196F6
S1131D300E94273BBE016F5F7F4FC7010E949B3B00
S1131D40CE0101960E94C03A6DEB76E086E29DE0FA
S1131D500E946138B70186E29DE00E947C38C70189
S1131D600FB6F8947EBE0FBE6DBE2C960FB6F894D7
S1131D70DEBF0FBECDBFDF91CF911F910F91FF90BA
S1131D80EF90DF90CF90BF90AF909F908F907F9017
S1131D906F905F904F9008958F929F92AF92BF92F1
S1131DA0CF92DF92EF92FF920F931F93CF93DF9323
S1131DB0CDB7DEB72C970FB6F894DEBF0FBECDBFFC
S1131DC06B014A01ADB6BEB62DB73EB7261B370B25
S1131DD00FB6F8943EBF0FBE2DBFEDB7FEB73196D8
S1131DE07F01FC01448155814F5F5F4F20E030E06B
S1131DF0B7010E944E3D4AE0B601CE0107960E940B
S1131E00FD3B67E576E0CE0101960E94273BBE01CB
S1131E10695F7F4FCE0101960E94FC3CBC0186E2C3
S1131E209DE00E947C38CE0101960E94C03ACE010A
S1131E3007960E94C03A6EE576E086E29DE00E9435
S1131E408C3865E472E086E29DE00E948C3884015F
S1131E50C80CD91C0C151D056CF5F70160816623AF
S1131E6019F1C8010E94D144F7016081CE0107969F
S1131E700E94BB3B65E472E0CE0101960E94273BC1
S1131E80BE01695F7F4FCE0101960E94FC3CBC01FC
S1131E9086E29DE00E945338CE0101960E94C03A2A
S1131EA0CE0107960E94C03A0F5F1F4FFFEFEF1A53
S1131EB0FF0AD0CF65E472E086E29DE00E948C3890
S1131EC081E00FB6F894BEBE0FBEADBE2C960FB621
S1131ED0F894DEBF0FBECDBFDF91CF911F910F915C
S1131EE0FF90EF90DF90CF90BF90AF909F908F9036
S1131EF00895CF92DF92EF92FF920F931F93CF93A7
S1131F00DF93CDB7DEB7A4970FB6F894DEBF0FBE4C
S1131F10CDBFE0912E0BF0912F0B3296EB30F105F3
S1131F2008F0ACC6EA5BFF4F0C943E3F0E940802E7
S1131F3064ED76E086E29DE00E9461386091CF0B0B
S1131F407091D00BCE0101960E944402BE016F5FD6
S1131F507F4FCE01479611DDCE0101960E945D02AE
S1131F604B8D5C8D4F5F5F4F20E030E060E371E0AC
S1131F70CE0147960E944E3D6091CF0B7091D00BDD
S1131F80665D7F4FCE0101960E944402BE016F5FE1
S1131F907F4FCE010F96F1DCCE0101960E945D02C7
S1131FA04B895C894F5F5F4F20E030E062E471E071
S1131FB0CE010F960E944E3D0E94080280912E0B86
S1131FC090912F0B019690932F0B80932E0BCE01A3
S1131FD00F960E94C03A43C12FEF39EF80E02150A1
S1131FE030408040E1F700C0000054D99FEF29EF52
S1131FF030E0915020403040E1F700C0000054D957
S11320008FEF99EF20E0815090402040E1F700C02D
S1132010000080912E0B90912F0B019690932F0B23
S113202080932E0B2BC63FEF83ED90E3315080401D
S11320309040E1F700C0000010926D0B0E949101E6
S11320406DEE76E083EE9AE00E94A63B62E472E0D5
S113205089EE9AE00E94A63B61E077E08FEE9AE079
S11320600E94A63B60912E0B70912F0B42E350E02F
S11320708DED9AE00E946C0380912E0B90912F0BB2
S1132080019690932F0B80932E0B2FEF39E688E166
S1132090215030408040E1F700C00000EFC562E409
S11320A072E087E89AE00E94A63B62E472E081E86D
S11320B09AE00E94A63B6CE872E0CE0147960E942B
S11320C0273B80916D0B811116C0CE0101960E94B1
S11320D0AA05BE016F5F7F4FCE0147960E949B3BCE
S11320E0CE0101960E94C03A44E650E060E070E000
S11320F082E00E9468026CE872E0CE0147960E947A
S1132100303D811102C0449BF8C567EB75E083EE56
S11321109AE00E94A63B69EC75E089EE9AE00E9481
S1132120A63B60ED75E08FEE9AE00E94A63BBE01EF
S1132130695E7F4FCE010F960E94933B8091AD0A5A
S11321409091AE0A9C838B838091AF0A9091B00AE0
S1132150A091B10AB091B20A8D839E83AF83B887F0
S11321608091B30A9091B40AA091B50AB091B60ACD
S113217089879A87AB87BC8789ED99E09A8389839D
S11321808091B70A8D879E01215F3F4FAE014F5F5B
S11321905F4F60E371E080E590E00E947B06182FBA
S11321A0CE010F960E94C03A449A112309F164E1CA
S11321B077E08FE19BE00E94A63B48EC50E060E0B2
S11321C070E081E00E9468029FEF20E732E09150C6
S11321D020403040E1F700C000006091260170917A
S11321E0270180912801909129010E94A10337C001
S11321F068E177E08FE19BE00E94A63B48EC50E069
S113220060E070E083E00E94680285E59BE00E9444
S1132210A02F6CE177E083EE9AE00E94A63B60E396
S113222077E089EE9AE00E94A63B62E472E08FEECA
S11322309AE00E94A63B60912E0B70912F0B4AE00E
S113224050E08DED9AE00E946C038FEF93ED20E354
S1132250815090402040E1F700C00000F3D8CE0147
S113226047960AC540E060E085E59BE00E94A62F02
S113227061E085E59BE00E9462384091970A5091A5
S1132280980A6091990A70919A0A8091930A9091A0
S1132290940AA091950AB091960A480F591F6A1F93
S11322A07B1F415051096109710980919B0A9091EA
S11322B09C0AA0919D0AB0919E0A481B590B6A0B77
S11322C07B0B2AE0CE010F960E94513C64E677E036
S11322D0CE0101960E94273BBE01615F7F4FCE0174
S11322E001960E94FC3C62E477E00E940D3DBC0133
S11322F085E59BE00E945338CE0101960E94C03AC6
S1132300CE010F960E94C03A6CE38EE79AE00E94D9
S11323102E1D8EE79AE00E94451DE82E42E0BE0184
S1132320695E7F4F90E00E94FB4163EC8EE79AE088
S11323300E942E1D8EE79AE00E94451DF82E42E071
S1132340BE01615F7F4F90E00E94FB41FE24EF2CB1
S1132350F12C42E0BE016F5F7F4FC7010E94FB4139
S1132360C7010E9486023FEF99EF20E03150904070
S11323702040E1F700C0000015D980C440E060E0CF
S113238085E59BE00E94A62F61E085E59BE00E9425
S113239062384091970A5091980A6091990A709115
S11323A09A0A8091930A9091940AA091950AB09107
S11323B0960A480F591F6A1F7B1F41505109610932
S11323C0710980919B0A90919C0AA0919D0AB091F9
S11323D09E0A481B590B6A0B7B0B2AE0CE010F9611
S11323E00E94513C64E677E0CE0101960E94273BAF
S11323F0BE01615F7F4FCE0101960E94FC3C62E406
S113240077E00E940D3DBC0185E59BE00E945338B6
S1132410CE0101960E94C03ACE010F960E94C03AA6
S113242080918B0A90918C0A0597E9F46AE175E032
S113243087E79BE00E94A63B67E87AE08DE79BE094
S11324400E947E3B62E476E083E89BE00E94A63B28
S113245010922B0B60911E0170911F01809120013D
S113246090912101C7C560E0CE010F960E94C70478
S11324708FE39CE90197F1F700C00000BE01615FA2
S11324807F4F86E29DE00E947C382B893C8945E0A1
S113249050E0BE01615F7F4FCE0101960E947C3DFA
S11324A0BE016F5F7F4F87E79BE00E949B3BCE019D
S11324B001960E94C03A25E030E040E050E0BE01C1
S11324C0615F7F4FCE0101960E947C3DBE016F5F2C
S11324D07F4F8DE79BE00E949B3BCE0101960E94BB
S11324E0C03A62E476E083E89BE00E94A63B68E49D
S11324F077E0CE0101960E94273B67E77BE0CE019F
S113250001960E94FC3CBC0186E29DE00E947C385E
S1132510CE0101960E94C03A6AE577E0CE010196A9
S11325200E94273B6DE77BE0CE0101960E94FC3CB4
S1132530BC0186E29DE00E947C38CE0101960E9497
S1132540C03A62EA75E087E79BE00E94303D811162
S11325503EC460EA75E087E79BE00E94303D81114C
S113256036C4CE010F9688C340E060E085E59BE069
S11325700E94A62F61E085E59BE00E9462384091AD
S1132580970A5091980A6091990A70919A0A8091D9
S1132590930A9091940AA091950AB091960A480FD3
S11325A0591F6A1F7B1F41505109610971098091AC
S11325B09B0A90919C0AA0919D0AB0919E0A481B87
S11325C0590B6A0B7B0B2AE0CE010F960E94513CFB
S11325D064E677E0CE0101960E94273BBE01615F6D
S11325E07F4FCE0101960E94FC3C62E477E00E949A
S11325F00D3DBC0185E59BE00E945338CE01019658
S11326000E94C03ACE010F960E94C03A62EA75E079
S113261087E79BE00E94303D811110C480912B0B11
S1132620823009F040C40AC440E060E085E59BE0E4
S11326300E94A62F61E085E59BE00E9462384091EC
S1132640970A5091980A6091990A70919A0A809118
S1132650930A9091940AA091950AB091960A480F12
S1132660591F6A1F7B1F41505109610971098091EB
S11326709B0A90919C0AA0919D0AB0919E0A481BC6
S1132680590B6A0B7B0B2AE0CE010F960E94513C3A
S113269064E677E0CE0101960E94273BBE01615FAC
S11326A07F4FCE0101960E94FC3C62E477E00E94D9
S11326B00D3DBC0185E59BE00E945338CE01019697
S11326C00E94C03ACE010F960E94C03A6CE38EE796
S11326D09AE00E942E1D8EE79AE00E94451DE82E86
S11326E042E0BE01695E7F4F90E00E94FB4163ECD3
S11326F08EE79AE00E942E1D8EE79AE00E94451D07
S1132700F82E42E0BE01615F7F4F90E00E94FB41E2
S1132710FE24EF2CF12C42E0BE016F5F7F4FC70116
S11327200E94FB41C7010E9486029FEF29EF30E01F
S1132730915020403040E1F700C000003CD8109296
S11327402D0B10922C0B9AC240E060E085E59BE0D3
S11327500E94A62F61E085E59BE00E9462384091CB
S1132760970A5091980A6091990A70919A0A8091F7
S1132770930A9091940AA091950AB091960A480FF1
S1132780591F6A1F7B1F41505109610971098091CA
S11327909B0A90919C0AA0919D0AB0919E0A481BA5
S11327A0590B6A0B7B0B2AE0CE010F960E94513C19
S11327B062E677E0CE0101960E94273BBE01615F8D
S11327C07F4FCE0101960E94FC3C62E477E00E94B8
S11327D00D3DBC0185E59BE00E945338CE01019676
S11327E00E94C03ACE010F960E94C03A80912C0BF1
S11327F090912D0B0E9465096B017C0122E0AB01D5
S1132800BC01CE010F960E947C3C6CE677E0CE01C1
S113281001960E94273BBE01615F7F4FCE01019666
S11328200E94FC3CBC0183EE9AE00E947E3BCE01F8
S113283001960E94C03ACE010F960E94C03A609160
S11328402C0B70912D0B4AE0CE010F960E94FD3B9C
S113285064E476E0CE0101960E94273BBE01615FED
S11328607F4FCE0101960E94FC3CBC0189EE9AE0A8
S11328700E947E3BCE0101960E94C03ACE010F9683
S11328800E94C03A6AE476E0CE0101960E94273B9A
S113289068E37BE0CE0101960E94FC3CBC018FEE14
S11328A09AE00E947E3BCE0101960E94C03A41E02C
S11328B060E085E59BE00E94A62F63EE7AE085E563
S11328C09BE00E94533842E060E085E59BE00E9473
S11328D0A62F69EE7AE085E59BE00E94533843E039
S11328E060E085E59BE00E94A62F6FEE7AE085E527
S11328F09BE00E945338019B08C060EA75E087E7BB
S11329009BE00E94303D81111AC3199BB7C162EA52
S113291075E087E79BE00E94303D81113FC3AEC163
S113292062E472E083EE9AE00E94A63B64E777E0FB
S113293089EE9AE00E94A63B62E472E08FEE9AE090
S11329400E94A63B60912E0B70912F0B44E650E041
S11329508DED9AE00E946C0362E472E085EF9AE0E8
S11329600E94A63B01E01BE0B801CE0101960E9443
S1132970933B62E877E0CE0101960E940D3DBC01D5
S113298085EF9AE00E94D63CCE0101960E94C03A9F
S11329900A5F1F4F8BE00532180731F762E471E0DC
S11329A085EF9AE00E94DC3C64E877E0CE01019672
S11329B00E94273B65EF7AE0CE0101960E94FC3C21
S11329C0BC0186E29DE00E947C38CE0101960E9403
S11329D0C03A0E9493018FE39FE10197F1F700C091
S11329E000000E9491019FEF23ED30E391502040BD
S11329F03040E1F700C000006EE170E080E090E05C
S1132A00F9C244993BC14AE050E068E070E08DEDC2
S1132A109AE00E946C0362E472E085EF9AE00E94FF
S1132A20A63B01E01BE095E2E92E9BE0F92EB801FC
S1132A30CE0101960E94933B62E877E0CE010196B5
S1132A400E940D3DBC0185EF9AE00E94D63CCE0168
S1132A5001960E94C03A0A5F1F4FE016F10639F74B
S1132A6062E471E085EF9AE00E94DC3C64E877E080
S1132A70CE0101960E94273B65EF7AE0CE010196D4
S1132A800E94FC3CBC0186E29DE00E947C38CE01A1
S1132A9001960E94C03A8FEF93ED20E3815090405D
S1132AA02040E1F700C0000065EF7AE0CE010F9608
S1132AB00E94933B8091BA0A9091BB0A9C838B83BA
S1132AC08091BC0A9091BD0AA091BE0AB091BF0A40
S1132AD08D839E83AF83B8878091C00A9091C10A89
S1132AE0A091C20AB091C30A89879A87AB87BC8731
S1132AF089ED99E09A8389838091C40A8D879E0128
S1132B00215F3F4FAE014F5F5F4F60E371E080E5AF
S1132B1090E00E94D107182FCE010F960E94C03A70
S1132B201123A1F00E9493013FEF83EC99E031500F
S1132B3080409040E1F700C000006FE877E086E253
S1132B409DE00E948C380E94220A98C00E94930142
S1132B504BE054E064E070E0CE014F9668D8CE01BB
S1132B604F960E94183E6B017C010091F90A109166
S1132B70FA0A65EF7AE0CE0101960E94933BA60122
S1132B80B801CE01019608D9182FCE0101960E94F2
S1132B90C03A112309F46CC04AE0B601CE010F9685
S1132BA00E94FD3B66EA77E0CE0101960E94273B36
S1132BB0BE01615F7F4FCE0101960E94FC3CBC01C7
S1132BC086E29DE00E947C38CE0101960E94C03AC4
S1132BD0CE010F960E94C03A22E3C20ED11C39EBFB
S1132BE0C3163BE0D30624F080EDC82E87E0D82E30
S1132BF04AE0B601CE0147960E94FD3B0B8D1C8D29
S1132C00BE01695E7F4FCE0101960E94933B4BE06B
S1132C1054E0B801CE010196BFD8182FCE01019619
S1132C200E94C03A112301F14AE0B601CE010F9689
S1132C300E94FD3B6CEB77E0CE0101960E94273B9E
S1132C40BE01615F7F4FCE0101960E94FC3CBC0136
S1132C5086E29DE00E947C38CE0101960E94C03A33
S1132C60CE010F960E94C03ACE0147960E94C03A08
S1132C700E94220ACE014F960E94C03A6FE97AE080
S1132C80CE0101960E94E22286E0FE013196ADE873
S1132C90BAE001900D928A95E1F78DE89AE00E94DE
S1132CA0332260939B0A70939C0A80939D0A9093AD
S1132CB09E0A0091970A1091980A2091990A3091DE
S1132CC09A0AC090930AD090940AE090950AF090E2
S1132CD0960A0C0D1D1D2E1D3F1D68017901C61A93
S1132CE0D70AE80AF90AD701C6010297A105B10576
S1132CF008F083C10E94220A80C162E472E086E285
S1132D009DE00E948C3860ED77E086E29DE00E94B1
S1132D10613860E178E0CE0101960E94273BBE0154
S1132D20695E7F4FCE0101960E94FC3CBC0186E2A5
S1132D309DE00E947C38CE0101960E94C03A60ED6D
S1132D4077E086E29DE00E9461386FE178E086E2F8
S1132D509DE00E948C3864E478E081E09BE00E946E
S1132D60A63B85E59BE00E94882F85E59BE00E94B9
S1132D70EE2F8FE39CE90197F1F700C000006DE4AA
S1132D8078E083EE9AE00E94A63B6FE578E089EE56
S1132D909AE00E94A63B62E778E08FEE9AE00E94F8
S1132DA0A63B60912E0B70912F0B44E650E08DED05
S1132DB09AE00E946C030E9495019FEF23ED30E39B
S1132DC0915020403040E1F700C000009EC96DE7FB
S1132DD07BE087E09BE00E947E3B67E77BE08DE041
S1132DE09BE00E947E3B6AE577E0CE0101960E945B
S1132DF0273B6DE77BE0CE0101960E94FC3CBC01C1
S1132E008FEE9AE00E947E3BCE0101960E94C03A6A
S1132E108FEF99E628E1815090402040E1F700C00F
S1132E20000010922B0B60911E0170911F01809184
S1132E302001909121010E94A10393CB82E40E947E
S1132E40570962EA75E087E79BE00E94A63B67E0CA
S1132E5070E080E090E00E94CB096FE076E088E3C8
S1132E609BE00E94A63B67E77BE08DE09BE00E942D
S1132E707E3B67E176E083EE9AE00E94A63B68E23F
S1132E8076E089EE9AE00E94A63B6CE276E08FEE53
S1132E909AE00E94A63B3FEF81EE94E031508040DF
S1132EA09040E1F741C060EA75E087E79BE00E944B
S1132EB0303D811105C080912B0B813009F0DECEAD
S1132EC060EA75E087E79BE00E94A63B84E40E94E9
S1132ED0570967E070E080E090E00E94900960E0AC
S1132EE076E088E39BE00E94A63B67E77BE08DE009
S1132EF09BE00E947E3B67E176E083EE9AE00E94CD
S1132F00A63B68E276E089EE9AE00E94A63B6CE27A
S1132F1076E08FEE9AE00E94A63B2FEF31EE84E03C
S1132F20215030408040E1F700C000006091220150
S1132F307091230180912401909125015BC022E0CE
S1132F40B701A601CE0101960E947C3CBE016F5FD1
S1132F507F4F83E19BE00E949B3BCE0101960E9440
S1132F60C03A65E878E088E39BE00E94A63B67E00E
S1132F7070E081E090E00E94CB0967E070E081E0BE
S1132F8090E00E9490096091160170911701809160
S1132F901801909119010E94A103B7CC22E0B70156
S1132FA0A601CE0101960E947C3CBE016F5F7F4F5B
S1132FB083E19BE00E949B3BCE0101960E94C03AB4
S1132FC065E878E088E39BE00E94A63B67E070E058
S1132FD081E090E00E94CB0967E070E081E090E03E
S1132FE00E94900960911601709117018091180157
S1132FF0909119010E94A10341CEA4960FB6F894B2
S1133000DEBF0FBECDBFDF91CF911F910F91FF9017
S1133010EF90DF90CF9008951F920F920FB60F920A
S113302011240BB60F922F933F934F935F936F939B
S11330307F938F939F93AF93BF93EF93FF93059BDE
S113304016C080912C0B90912D0B019690932D0B13
S113305080932C0B6091490170914A0180914B013E
S113306090914C010E941336CB010E94FC01069BF7
S113307016C080912C0B90912D0B019690932D0BE3
S113308080932C0B6091490170914A0180914B010E
S113309090914C010E941336CB010E94FC01FF91D8
S11330A0EF91BF91AF919F918F917F916F915F91BC
S11330B04F913F912F910F900BBE0F900FBE0F9029
S11330C01F9018951F920F920FB60F9211248F9391
S11330D09F9380912E0B90912F0B049709F06AC057
S11330E04E9B1CC080918B0B90918C0B01969093FE
S11330F08C0B80938B0B80918B0B90918C0B1816FF
S113310019061CF510928C0B10928B0B10928A0BE3
S11331101092890B82E080932B0B17C08091890B4E
S113312090918A0B019690938A0B8093890B8091DE
S1133130890B90918A0B029744F010928C0B109299
S11331408B0B10928A0B1092890B4F9B1CC08091A1
S11331508B0B90918C0B019690938C0B80938B0B23
S113316080918B0B90918C0B181619061CF51092FC
S11331708C0B10928B0B10928A0B1092890B81E0AE
S113318080932B0B17C08091890B90918A0B019629
S113319090938A0B8093890B8091890B90918A0B71
S11331A0029744F010928C0B10928B0B10928A0BA6
S11331B01092890B9F918F910F900FBE0F901F90CB
S11331C018958F92AF92CF92EF920F93CF93DF9394
S11331D000E020E040E060E081ED9BE00E94CE371B
S11331E06DE671E085EA9BE00E94273B6EE771E0A3
S11331F08BEA9BE00E94273BC5EADBE088EE93E084
S11332009D878C8761E971E083EB9BE00E94273BFB
S11332106AE971E089EB9BE00E94273B8CEF93E025
S11332209B8F8A8F68EA71E081EC9BE00E94273BC8
S11332306AEB71E087EC9BE00E94273B8BE094E013
S113324099A788A76FEB71E08DE89BE00E94273B6C
S1133250CDE8DBE080ED97E09F838E8367EE71E03D
S113326085E99BE00E94273B88EF97E09F878E8744
S11332706EE072E08DE99BE00E94273B80E298E0DB
S11332809F8B8E8B62E472E087E79BE00E94273B72
S113329062E472E08DE79BE00E94273B62E472E007
S11332A083E89BE00E94273B1F9283E08F9387E093
S11332B0882E96E0A92E25E0C22E34E0E32E21E0EC
S11332C042E067E285E59BE00E94253143E064E04B
S11332D08EE39BE004D465E978E088E39BE00E94F8
S11332E0273B62E472E082E39BE00E94273B62E4B6
S11332F072E085E29BE00E94273B62E472E081E099
S11333009BE00E94273B62E472E087E09BE00E941E
S1133310273B62E472E08DE09BE00E94273B62E47D
S113332072E083E19BE00E94273B62E472E089E162
S11333309BE00E94273B62E472E08FE19BE00E94E5
S1133340273B62E472E08BEF9AE00E94273B62E441
S113335072E085EF9AE00E94273B6AE175E08DED0B
S11333609AE00E94273B6AE175E083EE9AE00E94AE
S1133370273B6AE175E089EE9AE00E94273B6AE107
S113338075E08FEE9AE00E94273B02E320E048EAD2
S113339060EC87ED9AE00E94CE3705E121E048EA2F
S11333A060EC81ED9AE00E94CE3701E020E048EA2B
S11333B060EC8BEC9AE00E94CE3700E020E04FEF07
S11333C06FEF85EC9AE00E94CE3788EB9AE00E947A
S11333D08B288BEA9AE00E948B288FE99AE00E945E
S11333E0682240E050E0BA018DE89AE005D762E433
S11333F072E087E89AE00E94273B62E472E081E889
S11334009AE00E94273B0F900F908EE79AE0DF919D
S1133410CF910F91EF90CF90AF908F90C0C2CF9388
S1133420DF9381E89AE00E94C03A87E89AE00E941C
S1133430C03A8FE99AE00E946F228FEE9AE00E94D0
S1133440C03A89EE9AE00E94C03A83EE9AE00E9464
S1133450C03A8DED9AE00E94C03A85EF9AE00E944E
S1133460C03A8BEF9AE00E94C03AC5E2DBE02697AF
S1133470CE010E94C03A8BE0C130D807C1F785E283
S11334809BE00E94C03A82E39BE00E94C03A88E33A
S11334909BE00E94C03A83E89BE00E94C03A8DE71B
S11334A09BE00E94C03A87E79BE00E94C03A8DE906
S11334B09BE00E94C03A85E99BE00E94C03A8DE8F7
S11334C09BE00E94C03A81EC9BE00E945D0283EB8A
S11334D09BE00E945D0285EA9BE0DF91CF910C9412
S11334E05D02CF92DF92EF92FF920F931F93CF93DF
S11334F0DF93CDB7DEB764970FB6F894DEBF0FBE87
S1133500CDBF3C9A8FE19EE40197F1F700C0000023
S11335100E9493019FEF21EE84E09150204080406F
S1133520E1F700C000006EE978E086E29DE00E94C9
S11335308C380E94080285EA9BE09093D00B80931C
S1133540CF0B0E94080263EB78E086E29DE00E94C4
S113355061384AE050E060E070E186E29DE00E945C
S1133560F53865E472E086E29DE00E948C386EECEA
S113357078E086E29DE00E94613862E472E0CE0168
S11335800F960E94273B60E070E180E090E00E948B
S1133590E00D6091CF0B7091D00BCE0101960E948B
S11335A04402CE0101960E944D0D182FCE010196C2
S11335B00E945D02112331F067EE78E086E29DE01F
S11335C00E948C386091CF0B7091D00B625F7F4F5B
S11335D0CE0101960E944402CE0101960E944D0D37
S11335E0182FCE0101960E945D02112331F067EE7F
S11335F078E086E29DE00E948C386091CF0B709158
S1133600D00B645E7F4FCE0101960E944402CE012E
S113361001960E944D0D182FCE0101960E945D0265
S1133620112331F067EE78E086E29DE00E948C3849
S11336306091CF0B7091D00B665D7F4FCE010196E8
S11336400E944402CE0101960E944D0D182FCE0116
S113365001960E945D02112331F067EE78E086E264
S11336609DE00E948C380E9408023E9A3F9A0F9A6D
S11336708FE39CE90197F1F700C00000479A8FE3BC
S11336809CE90197F1F700C00000179A0E94080214
S113369020E044E064E185E59BE00E94AB3185E5F0
S11336A09BE00E94882F9FEF24E38CE09150204000
S11336B08040E1F700C0000085E59BE00E94902F68
S11336C09FEF24E38CE0915020408040E1F700C05C
S11336D0000085E59BE00E94882F9FEF24E38CE0A7
S11336E0915020408040E1F700C0000085E59BE058
S11336F00E94902F9FEF24E38CE091502040804063
S1133700E1F700C0000041E551E061E085E59BE0A0
S11337100E946E309FEF29EF80E09150204080405E
S1133720E1F700C0000085E59BE00E94882F0DEDC5
S11337301AE062E472E0C8010E94A63B0A5F1F4FD0
S11337409AE0053F1907A9F70E9408028EE39BE05F
S1133750D7D12FEF80E792E0215080409040E1F7ED
S113376000C000008EE39BE06BD36B017C01672BF0
S1133770682B692B69F560EF78E086E29DE00E9492
S1133780613885E59BE00E94882F2FEF84E39CE05D
S1133790215080409040E1F700C0000085E59BE0A7
S11337A00E94A02F69E079E085E59BE00E946138E2
S11337B02FEF87EA91E6215080409040E1F700C066
S11337C0000063E279E088E39BE00E94A63B06C028
S11337D066E379E086E29DE00E948C386BE479E050
S11337E086E29DE00E9461384F2D55276627772792
S11337F020E130E086E29DE00E94FA386AE579E053
S113380086E29DE00E9461384E2D50E060E070E059
S11338102AE030E086E29DE00E94E3386EE286E230
S11338209DE00E9462384D2D50E060E070E02AE097
S113383030E086E29DE00E94FA386FEF8EE39BE071
S113384075D38EE39BE044D30E94080240EA56E815
S113385061E070E08FE99AE085D6811110C060EED6
S113386071E086E29DE00E946C382FEF83ED90E3D7
S1133870215080409040E1F700C00000E7CF2FEFD7
S113388080E792E0215080409040E1F700C00000C2
S113389062EC71E086E29DE00E946C388FE99AE068
S11338A0BFD70E94080269E679E086E29DE00E94A3
S11338B08C3880ED9CE00E940E3568E270E080ED6B
S11338C09CE00E942B3560E080ED9CE00E94D034A7
S11338D062E380ED9CE00E94D03480ED9CE00E9485
S11338E0A2352FEF80E792E0215080409040E1F72D
S11338F000C0000062E570E080ED9CE00E942B3582
S113390060E080ED9CE00E94D03462E380ED9CE0B6
S11339100E94D03480ED9CE00E94A23580ED9CE0B2
S11339200E941D356DE979E086E29DE00E948C38A5
S11339300E94080260E28EE79AE036D02CE340E071
S113394063EC8EE79AE036D08EEF9FEF90932F0BC7
S113395080932E0B6EEA79E088E39BE00E94A63BFD
S113396068E37BE086E29DE00E947C380E940802C6
S11339700E9408020E940802CE010F960E94C03ADB
S113398064960FB6F894DEBF0FBECDBFDF91CF9122
S11339901F910F91FF90EF90DF90CF900895FC015D
S11339A01082118212820895FC01608380ED9CE0F4
S11339B00C940E35FF920F931F93CF93DF93EC017A
S11339C0F62E042F122F688180ED9CE00E94213591
S11339D061E080ED9CE00E94D0346F2D80ED9CE08E
S11339E00E94D03480ED9CE00E94A235688180ED75
S11339F09CE00E94213562E080ED9CE00E94D0347E
S1133A00602F80ED9CE00E94D03480ED9CE00E9409
S1133A10A2358FE39CE90197F1F700C000006881AB
S1133A2080ED9CE00E94213563E080ED9CE00E94E3
S1133A30D034612F80ED9CE00E94D03480ED9CE076
S1133A400E94A2358FE39CE90197F1F700C00000C2
S1133A50DF91CF911F910F91FF900895CF93C62FBF
S1133A60FC01608180ED9CE00E94213563E080EDE3
S1133A709CE00E94D0346C2F80ED9CE00E94D034F6
S1133A8080ED9CE0CF910C94A235CF93DF93EC01B1
S1133A90688180ED9CE00E94213560E080ED9CE02F
S1133AA00E94D03480ED9CE00E94A235688170E0D1
S1133AB041E050E080ED9CE00E94A035C0E080ED44
S1133AC09CE00E944234892B31F080ED9CE00E94FE
S1133AD04A34C82FF4CF8C2FDF91CF910895CF9320
S1133AE0DF93EC01862F6C834D831D8A1E8A60E070
S1133AF00E942D3A61E08D81DF91CF910C942D3A93
S1133B00CF93DF93EC0180ED9CE00E940E3561E0E1
S1133B108D810E94693A60E08D810E94693A2FEF9D
S1133B2087E893E1215080409040E1F700C0000015
S1133B3061E08D810E94693A8FE39CE90197F1F776
S1133B4000C00000DF91CF9108954F925F926F9271
S1133B507F928F929F92AF92BF92EF92FF920F93B8
S1133B601F93CF93DF93CDB7DEB72C970FB6F8949E
S1133B70DEBF0FBECDBF7C015A012801390162E4CA
S1133B8072E00E94273B8501812C912C54018414FE
S1133B909504A604B70409F446C0F80161918F01A5
S1133BA040E1CE016031F0F401960E94D23BB701AE
S1133BB0CE0107960E94933B62E476E0CE0107961D
S1133BC00E940D3DBE016F5F7F4F0E94FC3CBC0113
S1133BD0C7010E947E3BCE0107960E94C03ACE01E7
S1133BE0019619C007960E94D23BB701CE010196F7
S1133BF00E94933BBE01695F7F4FCE0101960E94F4
S1133C00FC3CBC01C7010E947E3BCE0101960E9490
S1133C10C03ACE0107960E94C03AFFEF8F1A9F0A5E
S1133C20AF0ABF0AB4CF86E29DE00E946938C7019B
S1133C302C960FB6F894DEBF0FBECDBFDF91CF91A7
S1133C401F910F91FF90EF90BF90AF909F908F9036
S1133C507F906F905F904F900895FC0184810E9443
S1133C60973A91E0811190E0892F0895CF92DF92E5
S1133C70EF92FF921F93CF93DF936C017B01C0E01F
S1133C80D0E0C601EADF182F811115C0E114F10458
S1133C9059F02A96EC16FD0638F46CEC79E086E2CD
S1133CA09DE00E948C3807C08FE39CE90197F1F7EF
S1133CB000C00000E6CF812FDF91CF911F91FF90CC
S1133CC0EF90DF90CF900895FF920F931F93CF93BF
S1133CD0DF93F62E072F142F8FE39FE10197F1F75F
S1133CE000C0000042E0410F64E280ED9CE00E94CD
S1133CF09E3580ED9CE00E944A34CF2DD02FCE011A
S1133D00810F911D8C01C017D10761F08FE99FE0ED
S1133D100197F1F700C0000080ED9CE00E944A3456
S1133D208993F1CFDF91CF911F910F91FF90089567
S1133D30CF93DF9300D000D000D0CDB7DEB746E0FC
S1133D40BE016F5F7F4FC0DF46E050E06FE571E07A
S1133D50CE0101960E94D44121E0892B09F020E094
S1133D60822F26960FB6F894DEBF0FBECDBFDF912B
S1133D70CF910895682F80ED9CE00C94D034CF92BD
S1133D80DF92EF92FF920F931F93CF93DF937B0108
S1133D90C1E0C40F8FE39FE10197F1F700C0000079
S1133DA064E270E080ED9CE00E942B3580E0E2DF6D
S1133DB080E0E0DF8FEFDEDF8C2FDCDF8C2F81955E
S1133DC0D9DF84EDD7DFC12C83EDD82ED0E0219745
S1133DD00C2D10E00C171D0754F40E0D1F1DF801D7
S1133DE08081C8DFF8018081D80EC394F1CF8D2D76
S1133DF08095C0DF80E0BEDF80ED9CE0DF91CF9155
S1133E001F910F91FF90EF90DF90CF900C94A2350B
S1133E100F931F93CF93DF93EC018901B0DFB801B7
S1133E20CE0124DF882331F0CE01DF91CF911F91A1
S1133E300F917ECF80E0DF91CF911F910F91089574
S1133E40CF93DF93EC0182E08093D70B28EE33E02D
S1133E5041E067ED7BE0CE01DBDF811104C060E06F
S1133E6070E0CB0132C04CE067ED7BE0CE012CDF8B
S1133E7046E050E069E571E087ED9BE00E94D441A3
S1133E80892B69F78D89811103C0E7E0F0E002C056
S1133E90E6E0F0E0E952F44F6081862F90E0A0E084
S1133EA0B0E0BA2FA92F982F88272181822BBA2F0F
S1133EB0A92F982F88272281822BBA2FA92F982FD8
S1133EC088272381BC01CD01622BDF91CF91089516
S1133ED0CF93DF93EC0194E19093D70B81E080932F
S1133EE0D80B9093D90B8093DA0B28EE33E044E09F
S1133EF067ED7BE0CE018CDF8823A9F048E067ED15
S1133F007BE0CE01E1DE8D89811103C086E090E083
S1133F1002C085E090E0FC01E952F44F81E0908119
S1133F20953109F080E0DF91CF910895E7EDFBE052
S1133F3022E3208325E021832FEF228321E02383C2
S1133F40648328EE33E045E0BF0162CFAF92BF92B5
S1133F50CF92DF92EF92FF920F931F93CF93DF9351
S1133F60EC017A01590168018AE48093D70B81E05E
S1133F708093D80B6093D90B980143E067ED7BE005
S1133F80CE0146DF182F882341F18D89882379F0EB
S1133F9044E167ED7BE0CE0197DE8091DE0B81305A
S1133FA0E1F48091E30BF501808380E006C0B60163
S1133FB0CE015CDE8111ECCF10C09091E30B891728
S1133FC068F4282F30E0F901E952F44F9585F701A0
S1133FD0E20FF31F90838F5FF0CF10E0812FDF910A
S1133FE0CF911F910F91FF90EF90DF90CF90BF90F2
S1133FF0AF900895AF92BF92CF92DF92EF920F935A
S11340001F93CF93DF93EC01142F5C018EE0A80E75
S1134010B11C86E0F601D50101900D928A95E1F775
S113402050E0CE0106960E94BB411D8780E4809338
S1134030D70B81E08093D80BE11002C080E601C069
S113404081E68093D90B0093DA0B86E0F501ABEDA2
S1134050BBE001900D928A95E1F780E04D858417CD
S113406060F4282F30E0FE01E20FF31F9681F9017E
S1134070E952F44F92878F5FF1CF465F28EE33E029
S113408067ED7BE0CE01C4DE882349F04CE067EDA8
S11340907BE0CE0119DE81E09091DE0B911180E08E
S11340A0DF91CF911F910F91EF90DF90CF90BF9050
S11340B0AF9008950F931F93CF93DF93EC018A0180
S11340C080E48093D70B81E08093D80B80E38093C6
S11340D0D90B6093DA0B28EE33E044E067ED7BE024
S11340E0CE0196DE811102C080E012C04AE167ED84
S11340F07BE0CE01E9DD8091DE0B8111F5CF80E11B
S1134100EFEDFBE0D80101900D928A95E1F781E093
S1134110DF91CF911F910F910895CF93DF93EC011D
S113412080E48093D70B81E08093D80B80EA80935E
S1134130D90B6093DA0B80E1FA01ABEDBBE001909F
S11341400D928A95E1F728EE33E044E167ED7BE0D8
S1134150CE015EDE882369F08FE39CE90197F1F7D5
S113416000C000004AE167ED7BE0CE01ADDD81E0F7
S113417001C080E0DF91CF910895803D27E0920750
S113418010F0805D974050E0E4E2F2E021E0261771
S113419030F43491430F511D2F5F3196F8CF6330C3
S11341A038F09C0123703327232B11F44F5F5F4FAA
S11341B0BC016D5F7F4F7695679576956795EDE6C3
S11341C0F1E08E9F90018F9F300D9E9F300D112442
S11341D0C9010197860F971F840F951F0895FC014D
S11341E0908190539A3008F090E0818180532AE0C6
S11341F0929F800D112408958F929F92AF92BF9247
S1134200CF92DF92EF92FF92CF93DF93EC016A019A
S11342107B0180E8C81A83E4D80A8DE6E80A88E3BB
S1134220F80A8CE3882E912CA12CB12CC701B6017D
S1134230A50194010E941C3F6D83CA01B901A50127
S113424094010E941C3F6C83C701B60120E13EE04B
S113425040E050E00E941C3FCA01B90128E130E06F
S113426040E050E00E941C3F6B83C701B60120E888
S113427031E541E050E00E941C3F18828881982F6C
S1134280937041E050E011F040E050E0BA0163590E
S11342907E4F2617370738F0241B350B2D56314037
S11342A08F5F8883EBCF81E089838981E82FF0E0F9
S11342B0ED5DFD4FE491911103C0823009F4EF5F8D
S11342C0F0E02E173F0720F02E1B3F0B8F5FECCF43
S11342D02F5F2A83DF91CF91FF90EF90DF90CF90F3
S11342E0BF90AF909F908F900895EF92FF920F939D
S11342F01F93CF93DF93CDB7DEB72B970FB6F89408
S1134300DEBF0FBECDBF8C017A014BE050E0CE0181
S113431001960E94B241CE010A9661DFF8018083C2
S1134320E9818E2F90E0FC01E154F109E331F105BC
S113433048F5EF5AFF4F0C943E3F8A81813629F0AD
S11343408B818E3621F087E01BC081E019C086E0A6
S113435017C082E015C08B81823711F088E010C04D
S113436084E00EC08B81823711F085E009C083E0C0
S113437007C089E005C08AE003C08BE001C08CE07F
S1134380F8018183CE0105962ADFF801828348E093
S113439050E0B701CE0101960E94B241CE010196D0
S11343A01EDFF8018383CE01049619DFF8018483AC
S11343B0CE01079614DFF80185832B960FB6F89487
S11343C0DEBF0FBECDBFDF91CF911F910F91FF9044
S11343D0EF900895FC0180814281618190E0CDDEFF
S11343E0069667E070E00C94083F0895EF92FF9200
S11343F00F931F93CF93DF93EC0188814A816981E6
S113440090E0BBDE9C01A8E1B0E00E94473F2B8115
S11344107B018C01E20EF11C011D111DA801970105
S1134420ACE3B0E00E94563F2C817B018C01E20E8C
S1134430F11C011D111DA80197010E94563F2D81F9
S1134440DC01CB01820F911DA11DB11DBC01CD0169
S113445060587C4B8249974CDF91CF911F910F910B
S1134460FF90EF900895EF92FF920F931F93CF93D5
S1134470DF93EC0188814A81698190E07EDE9C01B2
S1134480A8E1B0E00E94473F2B817B018C01E20E42
S1134490F11C011D111DA8019701ACE3B0E00E94BD
S11344A0563F2C817B018C01E20EF11C011D111D74
S11344B0A80197010E94563F2D81620F711D811D35
S11344C0911DDF91CF911F910F91FF90EF9008956F
S11344D0FC011082118212821382148208950895BD
S11344E00F931F93CF93DF93EC01062F142F68E6ED
S11344F080ED9CE00E942135602F80ED9CE00E94BD
S1134500D034612F80ED9CE00E94D03480ED9CE09B
S11345100E94A2358883DF91CF911F910F91089556
S11345201F93CF93DF93EC01162F68E680ED9CE098
S11345300E942135612F80ED9CE00E94D03480EDF3
S11345409CE00E94A235888341E068E680ED9CE00F
S11345500E949E3580ED9CE00E944A34DF91CF9109
S11345601F910895CF92DF92EF92FF92CF93DF9342
S1134570EC016A017B0180ED9CE00E940E35B701DD
S1134580A60180ED9CE00E941E3568E680ED9CE06B
S11345900E94213580ED9CE00E94A23581110AC061
S11345A062E0CE01BDDF482F4F7B62E0CE0198DF91
S11345B081E001C080E0DF91CF91FF90EF90DF9028
S11345C0CF9008950F931F93CF93DF938C01EB014A
S11345D068E680ED9CE00E94213560E080ED9CE07F
S11345E00E94D03480ED9CE00E94A235888347E08D
S11345F068E680ED9CE00E949E3580ED9CE00E9480
S11346004234079709F064C080ED9CE00E944A346C
S1134610982F9695969596959E70292F220F220F86
S1134620920F8F70890F8D8380ED9CE00E944A3435
S1134630982F9695969596959E70292F220F220F66
S1134640920F8F70890F8E8380ED9CE00E944A3414
S1134650982F9695969596959E70292F220F220F46
S1134660920F8F70890F8F8380ED9CE00E944A34F3
S113467080ED9CE00E944A34982F969596959695E5
S11346809670292F220F220F920F8F70890F88871F
S113469080ED9CE00E944A3484FB992790F9990F9D
S11346A0292F220F220F920F8F70890F898780ED97
S11346B09CE00E944A34982F92959F708F702AE054
S11346C0929F800D112490E08053984F9B878A8796
S11346D02D813E814F81588569858A859B85803DE2
S11346E077E0970710F0805D9740F801808361833D
S11346F05283438334832583C801DF91CF911F9173
S11347000F910895DF92EF92FF920F931F93CF932F
S1134710DF9300D000D000D0CDB7DEB78C017B0191
S1134720FB0185819AE0D92E6D2D0E94FC3E492F14
S1134730F0E18F9F400D112460E0C801D1DEF70144
S113474084816D2D0E94FC3E492FF0E18F9F400D26
S1134750112461E0C801C4DEF70183816D2D0E943C
S1134760FC3E492FF0E18F9F400D112462E0C80107
S1134770B7DEC7012FDE482F63E0C801B1DEF701C1
S113478082816D2D0E94FC3E492FF0E18F9F400DE8
S1134790112464E0C801A4DEF70181816D2D0E941B
S11347A0FC3E492FF0E18F9F400D112465E0C801C4
S11347B097DEF70180816D2D0E94FC3E492FF0E1C8
S11347C08F9F400D112466E0C8018ADE6FE0C801A6
S11347D0A7DE482F4F776FE0C80182DE6EE0C80184
S11347E09FDE482F4F776EE0C8017ADEB801CE0114
S11347F00196E8DECE010196F9DDF801618372834A
S11348008383948326960FB6F894DEBF0FBECDBF84
S1134810DF91CF911F910F91FF90EF90DF9008955A
S11348200F931F93CF93DF9300D000D000D0CDB768
S1134830DEB78C014BE152E06FE072E0CE010196ED
S113484054DDBE016F5F7F4FC8015CDF26960FB653
S1134850F894DEBF0FBECDBFDF91CF911F910F91B2
S113486008950F9300E020E040E060E087E19CE0E1
S11348700E94CE370F910895FB01428153816481D8
S11348807581FC0142835383648375831782168286
S11348900895CF93DF93DA01FB01EB018991811134
S11348A0FDCF80E090E020E030E04AE051915523D4
S11348B0E9F02430310544F55E3269F48F3F910507
S11348C009F014F5ED01C20FD31F8A832F5F3F4F08
S11348D080E090E0EBCF489FB001499F700D112418
S11348E0852F90E0C097860F971FE0CF8F3F9105EB
S11348F009F054F4243031053CF4FD01E20FF31FB8
S1134900828381E090E002C080E090E0DF91CF916B
S113491008950F9300E020E040E060E08DE19CE02A
S11349200E94CE370F9108958F929F92AF92BF92BB
S1134930CF92DF92EF92FF920F931F93CF93DF9367
S113494000D01F92CDB7DEB76C017B010E945439B1
S1134950F601778366838601085F1F4FB6016A5F9D
S11349607F4F42E050E0C80130D581E090E09A8367
S1134970898342E050E0BE016F5F7F4FC80125D5B7
S113498080E091E09A83898342E050E0BE016F5F4A
S11349907F4FC8011AD51A82198242E050E0BE0145
S11349A06F5F7F4FC80111D542E050E0BE016F5FD9
S11349B07F4FC8010AD542E050E0BE016F5F7F4FD0
S11349C0C80103D55701F50180818823F9F0A701B7
S11349D05A01F50181916F01882321F08E3211F083
S11349E0A601F6CF4A018E189F081814190464F41E
S11349F08B8241E050E0BE016D5F7F4FC801E5D47A
S1134A00A401B701C801E1D47601DDCF1B8241E0E6
S1134A1050E0BE016D5F7F4FC801D7D4E12CFF2465
S1134A20F394FA82E98242E050E0BE016F5F7F4F67
S1134A30C801CBD4FA82E98242E050E0BE016F5F44
S1134A407F4FC801C2D481E090E00F900F900F9087
S1134A50DF91CF911F910F91FF90EF90DF90CF9056
S1134A60BF90AF909F908F9008952F923F924F9256
S1134A705F926F927F928F929F92AF92BF92CF92EA
S1134A80DF92EF92FF920F931F93CF93DF93CDB7F3
S1134A90DEB763970FB6F894DEBF0FBECDBF7C01BF
S1134AA06B011A010E9454394B015C018701085FB4
S1134AB01F4F2601612C712CC80129D5181619061F
S1134AC0A4F00E945439DC01CB0188199909AA0980
S1134AD0BB09481659066A067B06D0F062E370E00B
S1134AE080E090E00E948539E7CFF701428153814D
S1134AF064817581818D928DA38DB48D481759077A
S1134B006A077B0749F4858D968DC59729F409C0FA
S1134B10EE24EA94FE2CF0C09EEFE92EFF24FA94D2
S1134B20EBC0C80108D40C970CF4E2C04CE050E090
S1134B30BE016F5F7F4FC80183D48B819C8198270E
S1134B40892798279A8B898BF70146815781298178
S1134B503A814217530711F497FD07C0C80105D4E1
S1134B607CEFE72EFF24FA94C7C08F709270892BD4
S1134B7039F0C801FAD36BEFE62EFF24FA94BCC0D7
S1134B80CF80D884DC24CD24DC24C114D10419F0D2
S1134B90E12CF12C1FC0C801E8D35AEFE52EFF2405
S1134BA0FA94AAC041E050E0BE01635F7F4FC801A0
S1134BB047D48D85811117C08D858111F3CFC8012C
S1134BC017D4C80115D4C80113D4C80111D4FFEFF8
S1134BD0EF1AFF0A8D819E81982789279827E81666
S1134BE0F90600F309C08D859FEF980F9D878823F0
S1134BF019F3C801FDD3F7CFA12CB12C41E050E04B
S1134C00BE016D5E7F4FC8011BD48B89982F907CA9
S1134C1059F4882379F08B899FEF980F9B8B882315
S1134C2031F0C801E5D3F7CFC801E2D31B8A8B89E1
S1134C308111E4CF42E050E0BE01615F7F4FC801C3
S1134C40FFD342E050E0BE01635F7F4FC801F8D359
S1134C50C801CED3C801CCD3C801CAD3C801C8D3B4
S1134C6042E050E0BE016F5E7F4FC801E9D38F85FB
S1134C7098898115914049F4ED84FE84FE24EF2443
S1134C80FE2481E0E816F10419F0E12CF12C14C0A3
S1134C9089899A898115944039F0C80166D347EF10
S1134CA0E42EFF24FA9428C0B1016E5F7F4F44E0E4
S1134CB050E0C801C5D320C089899A8998278927DB
S1134CC09827E816F90630F4C80192D3FFEFEF1ADB
S1134CD0FF0AF2CF2FEFA21AB20ACA14DB0409F0BA
S1134CE08DCFC80142D336EFE32EFF24FA9404C0DB
S1134CF08DEFE82EFF24FA94C70163960FB6F8945B
S1134D00DEBF0FBECDBFDF91CF911F910F91FF90FA
S1134D10EF90DF90CF90BF90AF909F908F907F9057
S1134D206F905F904F903F902F9008958F929F9235
S1134D30AF92BF92CF92DF92EF92FF920F931F93A5
S1134D40CF93DF9300D000D000D0CDB7DEB77C0185
S1134D504B015A019EDD8C01892B09F057C0F701E4
S1134D60428153816481758180911F0C9091200C44
S1134D70A091210CB091220C481759076A077B07B0
S1134D8009F447C00E9454396701F8E0CF0ED11CE2
S1134D906F7077277C5FC60189D3813009F03BC0EF
S1134DA08DE59AE09A838983F70182819381A481B6
S1134DB0B5818B839C83AD83BE8345E350E0BE0104
S1134DC06F5F7F4FC601F7D2892B19F400E010E022
S1134DD01AC0B401C701A8DD892BC1F3C601F2D200
S1134DE0892BA1F383E0882E912CA50168E873E157
S1134DF0C7013BDE8C0121E0821A910821F00F3FAC
S1134E00FFEF1F0791F3C601C2D205C001E010E015
S1134E1002C00EEF1FEFC80126960FB6F894DEBF4E
S1134E200FBECDBFDF91CF911F910F91FF90EF90F7
S1134E30DF90CF90BF90AF909F908F90089524E023
S1134E4030E0AC0164E081E090E035C624E030E07D
S1134E50AC0164E085E090E02EC626E030E0AC01D1
S1134E6064E089E090E027C624E030E0AC0164E02F
S1134E708FE090E020C68F929F92AF92BF92CF9224
S1134E80DF92EF92FF920F931F93CF93DF934C0126
S1134E905B016A01E901FC0164858DE59CE053D660
S1134EA0C501DBDFC6010296DFDFC8010296C7DF5A
S1134EB0C7010296CBDF8A819B81AC81BD81F4015D
S1134EC082839383A483B583DF91CF911F910F9144
S1134ED0FF90EF90DF90CF90BF90AF909F908F9016
S1134EE008952DE53AE0FC0131832083FB014281E2
S1134EF0538164817581FC01428353836483758388
S1134F0008950F9300E020E040E060E080E49CE03E
S1134F100E94CE3783E29CE00E94C437E3E2FCE0C7
S1134F20138612868AE084870F910895DC01ED913F
S1134F30FC91028CF38DE02D099591E08927089569
S1134F40CF93DF931F92CDB7DEB76983DC01ED9178
S1134F50FC910280F381E02D41E050E0BE016F5FDF
S1134F607F4F09950F90DF91CF91089521E0FC01C7
S1134F708485883009F420E0822F0895FC0194850B
S1134F80FB018485981303C081E0983009F480E024
S1134F900895CF92DF92EF92FF920F931F93CF93D6
S1134FA0DF93CDB7DEB7AF970FB6F894DEBF0FBE71
S1134FB0CDBF8C016B017A01CE0101960E94C437EA
S1134FC0CE010996F3D2CE018A960E94C43763E2D9
S1134FD07CE0CE01849685DFBE016C5D7F4FCE01FF
S1134FE001964ADCAE01465D5F4FB601CE010196E3
S1134FF09DDE81309105C1F4D801ED91FC910684C8
S1135000F785E02D8DE59AE09DA38CA38CA59DA545
S1135010AEA5BFA58EA39FA3A8A7B9A7A701BE014C
S11350206C5D7F4FC8010995AF960FB6F894DEBF4B
S11350300FBECDBFDF91CF911F910F91FF90EF90E5
S1135040DF90CF9008950F931F93CF93DF938C013C
S1135050D42FC52FFC018485883041F481E090E091
S1135060F8019383828380E090E005C0CFD3892B3D
S1135070A9F38D2F9C2FDF91CF911F910F9108954C
S1135080FC016485683019F08DE59CE0D0C580E0B2
S113509090E00895CF93DF931F92CDB7DEB741E040
S11350A050E0BE016F5F7F4FFC018485F7D3181673
S11350B019061CF4898190E002C08FEF9FEF0F90D6
S11350C0DF91CF910895FC018485E8C30F931F936A
S11350D0CF93DF931F92CDB7DEB78C01DC01ED9146
S11350E0FC910084F185E02D0995892B49F0BE01DE
S11350F06F5F7F4FF801848512D4898190E002C0EC
S11351008FEF9FEF0F90DF91CF911F910F91089533
S1135110FC01848511C4FC011382128288EE93E0A1
S1135120A0E0B0E084839583A683B78389ED99E0FA
S11351309183808388E084870895FC0164856830C6
S113514039F06295660F607E685F83E090E0DFC4AB
S113515080E00895CF93DF93FC0124852830C9F0C3
S1135160EC01EBDF843181F0882371F0883161F048
S11351708C3161F4E881F9810084F185E02DCE0160
S1135180099521E0892B19F420E001C021E0822F48
S113519001C080E0DF91CF910895CF92DF92EF922A
S11351A0FF92CF93DF93EC018C85883069F129D38A
S11351B00E9454396B017C01CE01BFDF8823A1F02A
S11351C00E945439DC01CB018C199D09AE09BF0939
S11351D0883E9340A105B10538F461E070E080E0B9
S11351E090E00E948539E8CFCE01A7DF882311F033
S11351F08C8596D2EC85F0E0EE0FFF1FE05DF34F57
S11352001182108288E08C87DF91CF91FF90EF901C
S1135210DF90CF900895CF92DF92FF920F931F9368
S1135220CF93DF93FC0124852830C1F56A018B01FB
S1135230EC01F12C6F2D6295660F607E685F83E050
S113524090E065D4811102C0FC8607C08B7F883151
S1135250D9F3F394F8E0FF12EDCF8C858830F1F0A8
S113526020916501309166012F5F3F4F11F420E0DA
S113527034E03093660120936501409165015091BB
S1135280660120E061E057D2B8016E5F7F4FA6014E
S11352908C8584D2811105C088E08C8780E090E001
S11352A00FC0CE014ADF873149F061E070E080E051
S11352B090E00E948539CE0140DFECCF81E090E0A0
S11352C0DF91CF911F910F91FF90DF90CF900895C0
S11352D00F9300E020E040E060E086E49CE00E9460
S11352E0CE370F9108950F9300E020E040E060E096
S11352F08CE49CE00E94CE370F91089580E00895DD
S1135300DC01ED91FC91048CF58DE02D09942DE5E3
S11353103AE0FC0131832083FB014189528963898E
S11353207489FC0142835383648375830895FC016B
S1135330858996890895FC01818D928D0895CF9376
S1135340DF931F92CDB7DEB76983DC01ED91FC9149
S11353500280F381E02D41E050E0BE016F5F7F4F9A
S113536009950F90DF91CF910895CF93DF93EC01CE
S1135370898D9A8D892B41F0E881F9810284F38526
S1135380E02DCE010995F4CFDF91CF910895CF930D
S1135390DF93EC018C85883059F0C2D1EC85F0E0C4
S11353A0EE0FFF1FE05DF34F1182108288E08C87BF
S11353B0DF91CF910895FC01108E178A6E5F7F4FA5
S11353C08485E6C2FC01848506C3CF93DF93EC0198
S11353D09A018F89988DAB01BC018C85AED22F893F
S11353E0388D280F391F388F2F8BDF91CF91089577
S11353F00F931F93CF93DF931F92CDB7DEB7FC01BA
S1135400218D328D232B59F08C0141E050E0BE01F7
S11354106F5F7F4F848542D2181619061CF08FEFF8
S11354209FEF08C0F801818D928D0197928F818F33
S1135430898190E00F90DF91CF911F910F91089592
S1135440CF93DF93FC01218D328D2115310519F4A1
S11354508FEF9FEF10C0EC014217530708F0A9012A
S11354608C851CD2181619069CF7298D3A8D281B99
S1135470390B3A8F298FDF91CF910895CF93DF9322
S11354801F92CDB7DEB7FC01218D328D232B41F065
S1135490BE016F5F7F4F848542D2898190E002C054
S11354A08FEF9FEF0F90DF91CF910895EF92FF92CE
S11354B01F93CF93DF93FC012485283011F080E003
S11354C020C07B01EC0110E0612F6295660F607EC5
S11354D0685F83E090E01BD3811102C01C8705C084
S11354E08831E1F31F5F183079F78C85883039F300
S11354F0FE86ED861A8E198E20E0A70162E01BD18C
S113550081E0DF91CF911F91FF90EF9008950F9369
S11355101F93CF93DF93CDB7DEB728970FB6F894D8
S1135520DEBF0FBECDBF8C01DC01ED91FC91068086
S1135530F781E02D0995F80164858DE59CE077D32A
S1135540892B39F148E050E0BE016F5F7F4FD801ED
S11355501C968C91A3D118161906ECF4BE016F5F4A
S11355607F4FC8010F960E94DA378D8190E0982F03
S113557088272E81820F911DF801968B858B8F8150
S113558090E0982F88272885820F911D928F818F14
S113559002C080E090E028960FB6F894DEBF0FBEFC
S11355A0CDBFDF91CF911F910F910895FC0113821C
S11355B0128288EE93E0A0E0B0E084839583A68312
S11355C0B7838BEF99E09183808388E08487CF0150
S11355D00F960C94C437CF92DF92EF92FF920F9301
S11355E01F93CF93DF93CDB7DEB7AF970FB6F89481
S11355F0DEBF0FBECDBF8C016B017A01CE010196D7
S11356000E94C437CE010996D1DFCE018A960E944A
S1135610C43763E27CE0CE01849663DCBE016C5D3A
S11356207F4FCE01019628D9AE01465D5F4FB6018A
S1135630CE0101967BDB81309105C1F4D801ED9157
S1135640FC910488F589E02D8DE59AE09DA38CA357
S11356508CA59DA5AEA5BFA58EA39FA3A8A7B9A7FA
S1135660A701BE016C5D7F4FC8010995AF960FB6C7
S1135670F894DEBF0FBECDBFDF91CF911F910F9184
S1135680FF90EF90DF90CF9008950F9300E020E01B
S113569040E060E082E59CE00E94CE370F910895DF
S11356A0AB018295880F807E6CE0680F24E030E0C7
S11356B08CE090E000C29B018295880F807E68E0B8
S11356C0680FC90124C262E070E0F5CF9B018295A6
S11356D0880F807E6CE0680FC901CFC1CF93DF9340
S11356E0C82FD62F472F64E070E0F0DF4D2F65E020
S11356F070E08C2FDF91CF91E9CF462F62E070E00C
S1135700E5CFCF93DF93C82FD62F472F60E170E00A
S1135710DDDF4D2F61E170E08C2FDF91CF91D6CF8B
S1135720CF93C82F40E1682F8DE59CE070D36FEFD5
S11357308C2FCF91E2CFFF920F931F93CF93DF93E0
S11357409FEF960F953018F5D22F8A01F62EC82FA9
S1135750E7DF4F2D4D2B60E070E08C2FB7DF011594
S1135760110511F0B8010AC06091580C7091590CE0
S11357706F5F7F4F7093590C6093580C8C2FAEDF82
S113578041E06C2F8DE59CE042D381E001C080E0D4
S1135790DF91CF911F910F91FF9008950F931F9365
S11357A0CF93FB0190819F3F51F491819F3F91F4EE
S11357B092819F3F79F493819F3F61F41CC09111C2
S11357C009C09181911106C09281911103C0938106
S11357D0992391F04115510571F08A01BF01C82F39
S11357E05FDFB8018C2F8DDF44E06C2F8DE59CE0EA
S11357F00ED391E001C090E0892FCF911F910F91BA
S1135800089548E0682F8DE59CE001C3CF92DF92B4
S1135810EF92FF920F931F93CF93C82F7B018A01BE
S11358204130584010F000E018E06C2F8DE59CE00A
S1135830CDD16C0163E070E08C2F3DDF873111F036
S11358408C3121F4C016D10680F302C000E010E0D0
S11358509801A7016C2F8DE59CE03DD240E26C2FAE
S11358608DE59CE0D4D28C2F2EDF84FD0BC063E049
S113587070E08C2F20DF8111F6CF8C2F51DF80E078
S113588090E004C060E18C2F38DFC801CF911F91F4
S11358900F91FF90EF90DF90CF900895CF92DF9219
S11358A0EF92FF920F931F93CF93DF93182F6B0107
S11358B07A01682F8DE59CE0BAD1EC01009791F450
S11358C063E070E0812FF7DE8431F9F08823E9F09A
S11358D0C1E0D0E08C3111F4C0E0D0E0D195C195A5
S11358E0D10913C0E816F9060CF4E7011C161D06CD
S11358F064F400E09E01A601612F8DE59CE03AD29C
S113590040E4612F8DE59CE082D2CE01DF91CF91FE
S11359101F910F91FF90EF90DF90CF9008950F9318
S1135920AB0101E021E030E0682F8DE59CE022D25C
S113593081E090E00F9108950895AF92BF92CF92C5
S1135940DF92FF920F931F93CF93DF93F82E6B0197
S11359505A01E901682F8DE59CE038D18C179D0729
S113596028F46F2D8DE59CE031D1EC018E01950179
S1135970A6016F2D8DE59CE074D1CE01DF91CF910E
S11359801F910F91FF90DF90CF90BF90AF9008953B
S11359900F931F93CF93FB019081911109C09181C3
S11359A0911106C09281911103C09381992369F0EA
S11359B04115510551F08A01BF01C82F71DEB801AC
S11359C08C2F9FDE81E090E002C080E090E0CF91D8
S11359D01F910F910895CF93C82F40E2682F8DE552
S11359E09CE015D28C2F6FDE84FD0AC08C2F6BDEF9
S11359F083FFF8CF68E18C2F80DE80E090E005C063
S1135A0060E18C2F7ADE81E090E0CF9108952091BF
S1135A10600C222399F04FB7F8942091600C213048
S1135A2059F42DB320935E0C3DB320915F0C209567
S1135A3023232DBB4FBF02C040935E0C8CBD9DBD84
S1135A4008958EBD00000DB407FEFDCF8EB50895F8
S1135A508091600C882361F09FB7F8942091600CCA
S1135A6080915E0C213019F48DBB9FBF08958FBFC8
S1135A70089544980895449A08950F931F93CF93DB
S1135A80DF93182F092FD62FC42F80915B0C909190
S1135A905C0CBDDFEEDF802FD4DF812FD2DF8D2FB2
S1135AA0D0DF8C2FCEDFE7DFD3DF81E0DF91CF9132
S1135AB01F910F910895DF92EF92FF920F931F931E
S1135AC0CF93DF93D82FD92EC62F7A0189018091E5
S1135AD05B0C90915C0C9BDFCCDF8D2DB2DF8D2FA6
S1135AE0B0DF8C2FAEDFE701E00EF11ECE15DF052F
S1135AF019F08991A6DFFACFBEDFAADFC801DF91D2
S1135B00CF911F910F91FF90EF90DF9008951F9315
S1135B10CF93DF93D82F192FC62F80915B0C9091D0
S1135B205C0C75DFA6DF812F8CDF8D2F8ADF8C2F35
S1135B3088DF80E086DFC82F9EDF8ADF8C2FDF912D
S1135B40CF911F910895CF93DF9360935A0C68EE21
S1135B5073E080E090E00E9485393C9A10D460E0C4
S1135B6080E090E0D4DF482F406864E080E090E07B
S1135B7084DFC0E0DC2FD295DD0FD07ED45F42E01D
S1135B806D2F8EE190E079DF42E06D2F8FE190E0A0
S1135B9074DFCF5FC83071F7DF91CF9108951F9301
S1135BA0CF93DF93182F60E270E085DDC82FD0E03B
S1135BB0DC2FCC2761E270E0812F7DDD9E01280F70
S1135BC0311DC901DF91CF911F910895FF920F9369
S1135BD01F93CF93DF93F62EC0E0D0E08F2DDFDF4D
S1135BE08C01892B19F08F2DDADFEC01C017D10756
S1135BF0A9F7CE01DF91CF911F910F91FF900895E6
S1135C001F93CF93DF93182F66E270E054DDC82F03
S1135C10D0E0DC2FCC2767E270E0812F4CDD9E01C1
S1135C20280F311DC901DF91CF911F910895FF9273
S1135C300F931F93CF93DF93F62EC0E0D0E08F2D08
S1135C40DFDF8C01892B19F08F2DDADFEC01C0170F
S1135C50D107A9F7CE01DF91CF911F910F91FF904A
S1135C600895AF92BF92DF92EF92FF920F931F932A
S1135C70CF93DF93D62E7A01590164E270E08D2D23
S1135C801ADDC82F65E270E08D2D15DDD0E0DC2F24
S1135C90CC27E80EF11CCE0DDF1D6D2D6295660F2D
S1135CA0607E6C5E9801A501CE0105DFC00FD11F97
S1135CB04D2F64E270E08D2D09DD4C2F65E270E01C
S1135CC08D2DDF91CF911F910F91FF90EF90DF9079
S1135CD0BF90AF90FBCC0F931F9389019A0140E0D2
S1135CE050E0BFDF1F910F910895DF92EF92FF9272
