S015000074656D706C61746556756F746F2E7372656396
S11300005EC1000086C1000084C1000082C10000FE
S11300107AC500007EC100007CC1000098C50000C4
S113002078C1000076C1000074C1000072C10000F4
S113003070C100006EC100006CC100006AC1000004
S11300400C94B82F66C100000C949F2D0C94D12DF4
S113005060C100005EC100005CC100005AC1000024
S113006058C1000056C100000C94EC2952C1000094
S113007050C100004EC100004CC100004AC1000044
S113008048C1000046C1000044C10000F20C180D34
S1130090410D690DBB0DEA0D760EC50EFD0E600F08
S11300A0FC0F65177C177C1779177C1763177C176F
S11300B07C177C1757177C177C176C1777177517E5
S11300C07C177C177C17731700407A10F35A00A032
S11300D0724E18090010A5D4E80000E8764817000D
S11300E000E40B54020000CA9A3B000000E1F5054D
S11300F0000080969800000040420F000000A08697
S113010001000000102700000000E80300000000C8
S11301106400000000000A0000000000010000006C
S113012000002C76D888DC674F0823DFC1DFAE5986
S1130130E1B1B796E5E3E453C63AE651997696E819
S1130140E6C28426EB898C9B62ED407C6FFCEFBC9D
S11301509C9F40F2BAA56FA5F490055A2AF75C93C8
S11301606B6CF9676DC11BFCE0E40D47FEF520E6FE
S1130170B500D0ED902E0300943577050080841EE1
S1130180080000204E0A000000C80C333333330F3C
S1130190986E12831141EF8D2114893BE65516CFD9
S11301A0FEE6DB18D1844B381BF77C1D901DA4BBE5
S11301B0E424203284725E228100C9F124ECA1E59A
S11301C03D274453333233314D20696E697469617C
S11301D06C697A65642E00556E61626C6520746F7B
S11301E02066696E64204453333233314D4D2E20E2
S11301F0436865636B696E6720616761696E206936
S11302006E2033732E004D6172202039203230323B
S1130210300030373A32363A3232001F1C1F1E1F6C
S11302201E1F1F1E1F1E1F000000000403080700DE
S1130230000200090A0000000000000000000000A5
S113024000000000000001010204081020408001A9
S113025002102040801020408010082004408001BB
S1130260020408010204080404040404040404024B
S11302700202020202010101010303030303030159
S113028001010103030202000000002300260029EB
S11302900000000000250028002B000000000024BE
S11302A00027002A00005806EB19431A3B1D371F8C
S11302B0522024222F22ED257C2CFF2D45071124CA
S11302C01FBECFEFD0E4DEBFCDBF18E0A0E0B1E0A9
S11302D0E2E4F5E700E00BBF02C007900D92A43002
S11302E0B107D9F72BE0A4E0B8E001C01D92AE3904
S11302F0B207E1F711E0CEE5D1E004C02197FE0199
S11303000E945935C335D107C9F70E94972E0C9422
S1130310953A76CE44980895449A0895DC01ED9177
S1130320FC910190F081E02D09948EE99AE00E94FD
S1130330E62B60E28EE99AE00E94F92B61E070E01E
S11303408EE99AE0EBDF63EC70E08EE99AE0E6DF99
S11303508EE99AE00E947A2C60E28EE99AE00E948B
S1130360F92B62E070E08EE99AE0D8DF60E070E09B
S11303708EE99AE0D3DF8EE99AE00E947A2C8FE32B
S11303809CE90197F1F700C0000060E28EE99AE071
S11303900E94F92B63E070E08EE99AE0BFDF6CE322
S11303A070E08EE99AE0BADF8EE99AE00E947A2C36
S11303B08FE39CE90197F1F700C0000060E28EE949
S11303C09AE00E94F92B60E070E08EE99AE0A6DFE3
S11303D08EE99AE00E947A2C8EE99AE00C94E62B3E
S11303E01816190644F4EFE9FFE03197F1F700C05D
S11303F000000197F5CF08958F929F92AF92BF921C
S1130400FF920F931F93CF93DF934A015B01C0E0E8
S1130410D0E0082F10E080E4F82EC017D1075CF478
S11304203E9A98B19F2598B9C401DADF98B19F2507
S113043098B92196F2CFDF91CF911F910F91FF9040
S1130440BF90AF909F908F90089560E28EE99AE0FC
S11304500E94F92B63E070E08EE99AE05FDF63ECC1
S113046070E08EE99AE05ADF8EE99AE00E947A2CD5
S11304708FE19EE40197F1F700C00000089560E267
S11304808EE99AE00E94F92B63E070E08EE99AE02D
S113049045DF6CE370E08EE99AE040DF8EE99AE094
S11304A00E947A2C8FE19EE40197F1F700C00000CE
S11304B0089560E28EE99AE00E94F92B60E070E012
S11304C08EE99AE02BDF8EE99AE00E947A2C8FE184
S11304D09EE40197F1F700C00000089560E28EE900
S11304E09AE00E94F92B61E070E08EE99AE016DF51
S11304F08EE99AE00E947A2C8FE19EE40197F1F74D
S113050000C000000895CF92DF92EF92FF920F9304
S11305101F93CF93DF93CDB7DEB72C970FB6F89424
S1130520DEBF0FBECDBF8C016B017A0186E699E078
S11305300E94782683E0C816D1040CF447C0409189
S11305401E0850911F086091200870912108809125
S11305501A0890911B08A0911C08B0911D08480F1F
S1130560591F6A1F7B1F415051096109710980910C
S1130570220890912308A0912408B0912508481BD3
S1130580590B6A0B7B0B2AE0CE0107960E9494322A
S11305906EE471E0CE0101960E94D531BE01695F1F
S11305A07F4FCE0101960E942D3366E571E00E94D3
S11305B03E33BC0186E699E00E94062FCE010196E7
S11305C00E946E31CE0107960E946E3161E086E68C
S11305D099E00E94152F41E060E086E699E00E94D0
S11305E07E26B8016A5F7F4F86E699E00E94062F57
S11305F042E060E086E699E00E947E26B801645FEE
S11306007F4F86E699E00E94062F43E060E086E68D
S113061099E00E947E26B8016E5E7F4F86E699E0DF
S11306200E94062FC701DCDE2C960FB6F894DEBFBD
S11306300FBECDBFDF91CF911F910F91FF90EF902F
S1130640DF90CF90089560931A0870931B088093ED
S11306501C0890931D0884E198E00E94ED176093B4
S11306601E0870931F08809320089093210880919E
S11306703D0990913E09019690933E0980933D096E
S11306800895AF92BF92CF92DF92EF92FF920F93B1
S11306901F93CF93DF93CDB7DEB7A2970FB6F8942D
S11306A0DEBF0FBECDBF5C01F62E69E475E0CE015E
S11306B04D960E94D53108EC10E026E839E04FE76A
S11306C059E060E08FE499E00E9460158093870907
S11306D0882309F49DC04EE150E060E070E082E0C0
S11306E08BDE80918609843009F08CC086E0E0E4DA
S11306F0F1E0DE01579601900D928A95E1F7CE0163
S113070047966C01E12C04E010E020E030E044E086
S11307106FE779E08FE499E00E94B415809387092C
S1130720882309F45FC0FF2099F080E1E4E3F7E057
S1130730DE01119601900D928A95E1F7AE014F5FAB
S11307405F4F64E08FE499E00E9447168093870925
S1130750AE014F5F5F4F64E08FE499E00E9414168E
S113076080938709882389F16CE571E084EF9AE02E
S11307700E943F2FBE016F5F7F4FCE0141960E94C2
S1130780D531BE016F5E7F4F84EF9AE00E942F2F18
S11307908D899E89069759F4BE016F5E7F4FC5010E
S11307A00E942432CE0141960E946E3137C09FEFE1
S11307B021EE84E0915020408040E1F700C0000029
S11307C0CE0141960E946E311DC086E699E00E94DA
S11307D0782641E060E086E699E00E947E266AE69B
S11307E071E00CC086E699E00E94782641E060E062
S11307F086E699E00E947E2664E771E086E699E049
S11308000E94142F69E475E084EF9AE00E943F2F60
S1130810BE01635E7F4FC5010E942432CE014D9616
S11308200E946E31C501A2960FB6F894DEBF0FBECA
S1130830CDBFDF91CF911F910F91FF90EF90DF908B
S1130840CF90BF90AF900895CF92DF92EF92FF9236
S11308500F931F93CF93DF93CDB7DEB764970FB693
S1130860F894DEBF0FBECDBF7C01CE0101966C01B2
S113087087E0F60111928A95E9F76CE771E0C70108
S11308800E94D53100E010E09E012C5E3F4FA6018E
S113089060E08FE499E00E946015882359F10C8987
S11308A010E020E030E0A6016FE479E0CE010E967E
S11308B00E94B511CE010E960E94E43328E030E088
S11308C040E050E0BE01625F7F4FCE0108960E9477
S11308D0A133BE01685F7F4FC7010E944932CE0138
S11308E008960E946E3181E080937E09CE010E96B7
S11308F00E946E31C70164960FB6F894DEBF0FBE36
S1130900CDBFDF91CF911F910F91FF90EF90DF90BA
S1130910CF9008955798569888E08093680080ECAB
S1130920809373007894089509980A98089591E043
S113093090936800843419F40D9880E202C00E98F4
S113094080E480936B0078940895CF92DF92EF92C5
S1130950FF92BC01990F880B990B0E94ED2C6B013F
S11309607C0120E030E0A9010E947F2C87FF03C0B6
S1130970C12CD12C76016091280170912901072E98
S1130980000C880B990B0E94ED2C9B01AC01C70154
S1130990B6010E94832CFF90EF90DF90CF900895D2
S11309A03F9A8130910571F082309105E1F0892BF5
S11309B089F547982FEF30E742E02150304040401E
S11309C0E1F70EC028B101C0880F6A95EAF7822BBF
S11309D088B98FEF90E722E0815090402040E1F702
S11309E000C00000089528B181E090E001C0880FA4
S11309F06A95EAF7982F9095922398B93FEF45EAC4
S1130A002EE0315040402040E1F700C0000098B192
S1130A10892B88B908950F9A81309105B9F08230F5
S1130A20910529F1892BD1F522B181E090E001C033
S1130A30880F6A95EAF78095822382B92FEF30E711
S1130A4042E0215030404040E1F70EC022B101C0E5
S1130A50880F6A95EAF7822B82B98FEF90E722E03C
S1130A60815090402040E1F700C00000089522B179
S1130A7081E090E001C0880F6A95EAF7982F90957D
S1130A80922392B93FEF45EA2EE031504040204096
S1130A90E1F700C0000092B1892B82B90895239A2E
S1130AA02FEF36E741E0215030404040E1F700C0ED
S1130AB000008130910511F42B9A0895892B09F4D3
S1130AC02B98089510923C0910923B091092420908
S1130AD01092410967E475E083EF98E00E941F33A8
S1130AE02FEF81EE94E0215080409040E1F700C068
S1130AF0000020E030E044E650E067E778E083EF70
S1130B0098E00C9473331F920F920FB60F92112436
S1130B108F939F93059B09C080913B0990913C0959
S1130B20019690933C0980933B09069B09C08091F0
S1130B303B0990913C09019690933C0980933B09B1
S1130B409F918F910F900FBE0F901F9018951F9239
S1130B500F920FB60F9211240BB60F922F933F935F
S1130B604F935F936F937F938F939F93AF93BF93B1
S1130B70EF93FF9380913D0990913E09049709F00A
S1130B8084C04E9B29C08091970990919809019641
S1130B909093980980939709809197099091980967
S1130BA01816190684F582E4C2DE67E070E080E07E
S1130BB090E031DF6BE871E08BE099E00E94543201
S1130BC06DE871E089E499E00E9454326AE070E0D3
S1130BD080E090E038DD0FC08091950990919609EE
S1130BE00196909396098093950980919509909127
S1130BF09609029744F0109298091092970910925E
S1130C009609109295094F9B29C08091970990915C
S1130C109809019690939809809397098091970970
S1130C20909198091816190684F584E480DE67E02B
S1130C3070E080E090E0B4DE65E971E08BE099E07B
S1130C400E94543267E971E089E499E00E945432C9
S1130C506AE070E080E090E0F6DC0FC080919509D6
S1130C6090919609019690939609809395098091A5
S1130C70950990919609029744F010929809109260
S1130C8097091092960910929509FF91EF91BF91DF
S1130C90AF919F918F917F916F915F914F913F9110
S1130CA02F910F900BBE0F900FBE0F901F901895B1
S1130CB08F92AF92CF92EF920F9300E020E040E04A
S1130CC060E089E999E00E94752E69E475E088E89E
S1130CD099E00E94D53169E475E08EE899E00E94BC
S1130CE0D5311F9283E08F9387E0882E96E0A92E5A
S1130CF025E0C22E34E0E32E21E042E067E286E6FE
S1130D0099E00E94FD2743E064E08FE499E00E94AB
S1130D10A0116FE971E089E499E00E94D53169E49A
S1130D2075E083E499E00E94D53169E475E085E3D8
S1130D3099E00E94D53169E475E081E199E00E946F
S1130D40D53169E475E087E199E00E94D53169E421
S1130D5075E08DE199E00E94D53169E475E083E2A4
S1130D6099E00E94D53169E475E089E299E00E9436
S1130D70D53169E475E08FE299E00E94D53168EAE3
S1130D8071E08BE099E00E94D53168EA71E08FEF61
S1130D9098E00E94D53168EA71E085E099E00E940C
S1130DA0D53169E475E089EF98E00E94D53169E4B2
S1130DB075E083EF98E00E94D53168EA71E08BED2D
S1130DC098E00E94D53168EA71E081EE98E00E94D3
S1130DD0D53168EA71E087EE98E00E94D53168EA7F
S1130DE071E08DEE98E00E94D5310EE125E048EAED
S1130DF060EC81E798E00E94752E05E121E048EA65
S1130E0060EC8BE698E00E94752E01E020E048EA51
S1130E1060EC85E698E00E94752E00E020E04FEF3C
S1130E206FEF8FE598E00E94752E82E598E00E94AE
S1130E30491E85E498E00E94491E69E179E78FE341
S1130E4098E00E94981F82E398E00E94491E86E27F
S1130E5098E00E94221840E050E0BA0184E198E052
S1130E600E94B61669E475E08AE098E00E94D531E4
S1130E700F900F9069E475E084E098E00F91EF9093
S1130E80CF90AF908F900C94D531CF93DF9384E0C3
S1130E9098E00E946E318AE098E00E946E3186E20A
S1130EA098E00E9429188DEE98E00E946E3187EE3A
S1130EB098E00E946E3181EE98E00E946E318BEDD5
S1130EC098E00E946E3183EF98E00E946E3189EFC2
S1130ED098E00E946E3185E099E00E946E318FEFB8
S1130EE098E00E946E318BE099E00E946E31C5E378
S1130EF0D9E02697CE010E946E3189E0C131D8072E
S1130F00C1F785E399E00E946E3183E499E00E9481
S1130F106E3189E499E00E946E318EE899E00E9476
S1130F206E3188E899E0DF91CF910C946E31CF92C5
S1130F30DF92EF92FF920F931F93CF93DF93CDB77E
S1130F40DEB768970FB6F894DEBF0FBECDBF83EE51
S1130F50C82E87E0D82EDA82C982809161089091E8
S1130F606208A0916308B09164088B839C83AD836D
S1130F70BE83D886CF828091670890916808A0913B
S1130F806908B0916A0889879A87AB87BC87DE862F
S1130F90CD8680916D0890916E08A0916F08B091F4
S1130FA070088F87988BA98BBA8B64E271E0CE01AD
S1130FB043960E94812ECE0101967C018E01095F29
S1130FC01F4F9E01235F3F4FAE014D5E5F4F6EE1A9
S1130FD071E08BEE99E00E94F51C8FE398E00E948B
S1130FE0581FDA82C9828091730890917408A09185
S1130FF07508B09176088B839C83AD83BE8349EFDB
S11310005AE2B70185E498E00E94DA1E892B81F048
S11310106AEA71E084EF9AE00E943F2F85E498E049
S11310200E94791E90E09093400980933F0906C086
S11310306DEB71E084EF9AE00E943F2F68960FB643
S1131040F894DEBF0FBECDBFDF91CF911F910F91FA
S1131050FF90EF90DF90CF900895CF92DF92EF92C0
S1131060FF92CF93DF933F9A0F9A8FE39CE9019706
S1131070F1F700C00000479A8FE39CE90197F1F76C
S113108000C00000179A20E044E064E186E699E09D
S11310900E94832886E699E00E9460269FEF24E35D
S11310A08CE0915020408040E1F700C0000086E6CB
S11310B099E00E9468269FEF24E38CE09150204041
S11310C08040E1F700C0000086E699E00E946026B7
S11310D09FEF24E38CE0915020408040E1F700C072
S11310E0000086E699E00E9468269FEF24E38CE0E6
S11310F0915020408040E1F700C000004AE251E0F6
S113110061E086E699E00E9446279FEF29EF80E0A0
S1131110915020408040E1F700C0000086E699E04D
S11311200E946026CBEDD8E069E475E0CE010E9410
S11311305432269698E0C33FD907B1F78FE499E07B
S11311400E948D142FEF80E792E021508040904060
S1131150E1F700C000008FE499E00E94DA146B010B
S11311607C01672B682B692B69F561ED71E084EFD5
S11311709AE00E94142F86E699E00E9460262FEFE1
S113118084E39CE0215080409040E1F700C00000DF
S113119086E699E00E9478266AEE71E086E699E098
S11311A00E94142F2FEF87EA91E62150804090404F
S11311B0E1F700C0000064E072E089E499E00E9475
S11311C0543206C067E172E084EF9AE00E943F2F38
S11311D06CE272E084EF9AE00E94142F4F2D5527A1
S11311E06627772720E130E084EF9AE00E94A82F59
S11311F06BE372E084EF9AE00E94142F4E2D50E0CE
S113120060E070E02AE030E084EF9AE00E94962FDC
S11312106EE284EF9AE00E94152F4D2D50E060E0BD
S113122070E02AE030E084EF9AE00E94A82F6FEF8C
S11312308FE499E00E9450158FE499E00E942215F2
S113124040EA56E861E070E086E298E00E946C189B
S1131250811110C067ED71E084EF9AE00E941F2FA6
S11312602FEF83ED90E3215080409040E1F700C0E0
S11312700000E6CF2FEF80E792E0215080409040BD
S1131280E1F700C0000062EC71E084EF9AE00E9494
S11312901F2F86E298E00E94CA196AE472E084EF84
S11312A09AE00E943F2F60E972E084EF9AE00E9486
S11312B03F2F8EE99AE00E94E62B68E270E08EE907
S11312C09AE00E94032C60E08EE99AE00E94A82B29
S11312D062E370E08EE99AE021D88EE99AE00E94F8
S11312E07A2C2FEF80E792E0215080409040E1F784
S11312F000C0000062E570E08EE99AE00E94032CD1
S113130060E08EE99AE00E94A82B62E370E08EE927
S11313109AE004D88EE99AE00E947A2C8EE99AE049
S11313200E94F52B64EC72E084EF9AE00E943F2F58
S113133065ED72E084EF9AE00E943F2F6CE073E069
S113134084EF9AE00E943F2F2FEF80E792E0215034
S113135080409040E1F700C000000E9495012FEF0B
S113136080E792E0215080409040E1F700C0000007
S11313708EEF9FEF90933E0980933D0967E273E0FF
S113138089E499E00E94543269E479E084EF9AE0B8
S1131390DF91CF91FF90EF90DF90CF900C942F2F9F
S11313A0EF92FF920F931F93CF93DF93CDB7DEB7E6
S11313B062970FB6F894DEBF0FBECDBF8EE99AE0F8
S11313C00E94452B41E050E060E270E08EE99AE033
S11313D00E94782C69E475E0CE010D960E94D53107
S11313E011E002E083E0F82E94E0E92E8EE99AE021
S11313F00E941A2B892B09F452C18EE99AE00E94AB
S1131400222B9927823C910549F194F48334910568
S113141041F124F4CC9709F447C044C083389105C2
S113142079F1813C910509F03DC0009312081BC07D
S11314308B3C910541F14CF4833C9105A9F1873C27
S1131440910581F51093130823C0833D9105F1F0B4
S1131450833E910539F5E09213081AC010931208DF
S113146002C0F09212088FE19EE40197F1F700C0E8
S1131470000005D8809111088F5F8093110814C073
S1131480E0921208F0CF0093130802C0F092130800
S11314908FE19EE40197F1F700C000000E9425024D
S11314A01DD802C00E943F0204D8809111088823ED
S11314B009F4EEC06091120894E0699FB001112410
S11314C06E5F7E4F8AE098E00E9454328091120849
S11314D0843009F069C080911308833081F48091CD
S11314E010088F5F80931008833008F4CFC0809178
S11314F0080890910908059709F0C8C04EC18130C9
S113150009F05AC0809110088F5F809310088330CF
S113151008F4BCC046E950E060E070E081E00E945D
S1131520FC0169E475E084E098E00E94543265E3CC
S113153073E081EE98E00E94543269E475E087EE2E
S113154098E00E94543269E473E0CE0101960E944F
S1131550D53164E078E0CE0101960E942D33BC01C0
S11315608DEE98E00E942C32CE0101960E946E31DD
S113157086E699E00E94782643E060E086E699E0FA
S11315800E947E2669E473E0CE0101960E94D53163
S113159064E078E0CE0101960E942D33BC0186E61A
S11315A099E00E94062F27C0813021F0823011F08B
S11315B0833031F580911308843011F565E373E0CD
S11315C081EE98E00E94543269E475E087EE98E079
S11315D00E94543269E473E0CE0101960E94D53131
S11315E064E078E0CE0101960E942D33BC018DEEBB
S11315F098E00E942C32CE0101960E946E3146C0C2
S113160080911108823008F041C02091130830E025
S1131610A901415051096AE078E0CE0101960E9487
S1131620A133BE016F5F7F4F84E098E00E941933BD
S1131630CE0101960E946E3165E373E081EE98E07D
S11316400E94543269E475E087EE98E00E945432B7
S113165069E473E0CE0101960E94D53164E078E03C
S1131660CE0101960E942D33BC018DEE98E00E94BC
S11316702C32CE0101960E946E31109210084AE07D
S113168050E060E070E081E00E94FC0110921108DB
S11316908FE39FE10197F1F700C00000A7CE40E07F
S11316A060E086E699E00E947E2640911E085091F3
S11316B01F08609120087091210880911A08909168
S11316C01B08A0911C08B0911D08480F591F6A1FE0
S11316D07B1F415051096109710980912208909141
S11316E02308A0912408B0912508481B590B6A0BC4
S11316F07B0B2AE0CE0107960E9494326EE471E0DF
S1131700CE0101960E94D531BE01695F7F4FCE01A3
S113171001960E942D3366E571E00E943E33BC01C0
S113172086E699E00E94062FCE0101960E946E3152
S1131730CE0107960E946E3161E086E699E00E9430
S1131740152F43E060E086E699E00E947E2669E476
S113175073E0CE0101960E94D53164E078E0CE01B9
S113176001960E942D33BC0186E699E00E94062F63
S1131770CE0101960E946E31CE010D960E946E310B
S113178062960FB6F894DEBF0FBECDBFDF91CF9146
S11317901F910F91FF90EF90089544E650E060E0B0
S11317A070E081E00E94FC016091160170911701C4
S11317B080911801909119010E94230367CF69E475
S11317C075E085E399E00E94543210923C0910922E
S11317D03B0910927E0968EA71E08BE099E00E946F
S11317E0543269E475E08FEF98E00E94543269E462
S11317F075E085E099E00E94543267E070E081E092
S113180090E0CED867E070E081E090E004D980E019
S113181090E045D985E498E00E94461E85E498E06E
S11318200E949C1E82E598E00E94461E82E598E094
S11318300E949C1E0E948C010E948A0182B182B97E
S113184082B182B969E475E081EE98E00E94543275
S113185069E475E087EE98E00E94543269E475E02B
S113186087EE98E00E94543286E699E00E9468264A
S113187086E699E00E94C02610922208109223085E
S1131880109224081092250810921E0810921F0826
S113189010922008109221088EEF9FEF90933E093A
S11318A080933D090895AF92BF92CF92DF92EF9259
S11318B0FF920F931F93CF93DF9300D000D000D0FB
S11318C0CDB7DEB75B018A016901EDB6FEB66CE700
S11318D075E084EF9AE00E943F2FAB2809F44EC0D4
S11318E067E975E084EF9AE00E943F2F80913D09FB
S11318F090913E09019690933E0980933D09B80169
S1131900CE0101960E94D5318DB79EB78C199D09E1
S11319100FB6F8949EBF0FBE8DBF0DB71EB70F5FF5
S11319201F4F20E030E0A601B801CE0101960E94CD
S11319307333F80101900020E9F73197AF01401BA0
S1131940510BB80185E498E00E94E11D9FEF29EF57
S113195080E0915020408040E1F700C0000085E421
S113196098E00E94461ECE0101960E946E310FB689
S1131970F894FEBE0FBEEDBE81E001C080E00FB65C
S1131980F894FEBE0FBEEDBE26960FB6F894DEBFE9
S11319900FBECDBFDF91CF911F910F91FF90EF90BC
S11319A0DF90CF90BF90AF900895CF92DF92EF92E7
S11319B0FF920F931F93CF93DF93CDB7DEB76E974C
S11319C00FB6F894DEBF0FBECDBFE0913D09F09194
S11319D03E093296EB30F10508F00FC3EA5BFF4F86
S11319E00C94593569E475E081EE98E00E94543214
S11319F062EC75E087EE98E00E94543269E475E089
S1131A008DEE98E00E94543260913D0970913E0938
S1131A1044E650E08BED98E00E9483022FEF83ECC4
S1131A2099E0215080409040E1F700C000001FC0C1
S1131A3069E475E081EE98E00E94543269E475E04F
S1131A4087EE98E00E94543269E475E08DEE98E0E8
S1131A500E9454320E948A042FEF89EF90E02150B3
S1131A6080409040E1F700C000000E9494048091FF
S1131A703D0990913E09019690933E0980933D095A
S1131A80BCC269E475E081EE98E00E94543269E4D6
S1131A9075E087EE98E00E94543269E475E08DEEBB
S1131AA098E00E94543260913D0970913E0944E6E9
S1131AB050E08BED98E00E9483022FEF83EC99E0D5
S1131AC0215080409040E1F700C0000010927E0950
S1131AD0CECF6EEC75E081EE98E00E94543269E45A
S1131AE075E087EE98E00E94543262EE75E08DEE68
S1131AF098E00E94543260913D0970913E0944E699
S1131B0050E08BED98E00E9483026CE771E0CE0117
S1131B1049960E94D53180917E09811116C0CE016B
S1131B2001960E942404BE016F5F7F4FCE01499647
S1131B300E944932CE0101960E946E3144E650E083
S1131B4060E070E082E00E94FC016CE771E0CE018D
S1131B5049960E945533811102C0449B8BC28091E7
S1131B603D0990913E09019690933E0980933D0969
S1131B70CE014996B8C00E948C010E948A0169E492
S1131B8075E084E098E00E94543265E373E081EEEE
S1131B9098E00E94543269E475E087EE98E00E9470
S1131BA0543269E473E08DEE98E00E9454326091FF
S1131BB03D0970913E094AE050E08BED98E00E94A7
S1131BC0830260911A0170911B0180911C01909114
S1131BD01D01D8C0E5DB60E0CE0107960E944103F9
S1131BE08FE39CE90197F1F700C00000BE01695F33
S1131BF07F4F84EF9AE00E942F2F2B853C8545E090
S1131C0050E0BE01695F7F4FCE0101960E94A1336F
S1131C10BE016F5F7F4F88E899E00E944932CE0190
S1131C2001960E946E3125E030E040E050E0BE01B4
S1131C30695F7F4FCE0101960E94A133BE016F5FA1
S1131C407F4F8EE899E00E944932CE0101960E94AE
S1131C506E311092940965EF75E084EF9AE00E946A
S1131C603F2F67E076E0CE0101960E94D53168E807
S1131C7079E0CE0101960E942D33BC0184EF9AE0F5
S1131C800E942F2FCE0101960E946E3169E176E009
S1131C90CE0101960E94D5316EE879E0CE0101961D
S1131CA00E942D33BC0184EF9AE00E942F2FCE01B5
S1131CB001960E946E3168E879E08BE099E00E9419
S1131CC02C326BE871E088E899E00E945533811169
S1131CD08EC265E971E088E899E00E94553381116C
S1131CE086C2CE0107960E946E3187C161E276E01A
S1131CF081EE98E00E94543269E475E087EE98E042
S1131D000E9454326CE376E08DEE98E00E945432E7
S1131D1060913D0970913E0944E650E08BED98E0F6
S1131D200E9483026BE871E088E899E00E945533D1
S1131D30882361F082E40E94970467E070E080E009
S1131D4090E00E940B056DE871E014C065E971E054
S1131D5088E899E00E945533882309F44EC184E44D
S1131D600E94970467E070E080E090E00E94D00455
S1131D7067E971E089E499E00E9454326AE070E016
S1131D8080E090E00E94230338C110923C09109235
S1131D903B096DE476E081EE98E00E94543269E4F8
S1131DA075E087EE98E00E94543264E676E0CE0156
S1131DB001960E94D53169E479E0CE0101960E9432
S1131DC02D336BE676E00E943E33BC018DEE98E045
S1131DD00E942C32CE0101960E946E3160913D0921
S1131DE070913E0944E650E08BED98E00E94830236
S1131DF064E170E080E090E0C5CF80913B09909170
S1131E003C090E94A5046B017C0122E0AB01BC01EA
S1131E10CE0107960E94BF3262E776E0CE010196BA
S1131E200E94D531BE01695F7F4FCE0101960E94A9
S1131E302D33BC0181EE98E00E942C32CE01019634
S1131E400E946E31CE0107960E946E3169E475E0FE
S1131E5087EE98E00E9454326AE776E0CE0101965C
S1131E600E94D53169E479E0CE0101960E942D33B8
S1131E70BC018DEE98E00E942C32CE0101960E94A6
S1131E806E3160913D0970913E0944E650E08BED5E
S1131E9098E00E948302019B08C065E971E08BE031
S1131EA099E00E9455338111B9C1199BA6C06BE812
S1131EB071E08BE099E00E9455338111DEC19DC031
S1131EC069E475E081EE98E00E94543267E876E0B8
S1131ED087EE98E00E94543269E475E08DEE98E054
S1131EE00E945432449989C060913D0970913E0921
S1131EF04AE050E08BED98E00E94830218D89FEFEF
S1131F0023ED80E3915020408040E1F700C00000C1
S1131F1069E475E083EF98E00E94543201E119E02E
S1131F2089E2E82E89E0F82EB801CE0101960E94DC
S1131F30413265E976E0CE0101960E943E33BC0150
S1131F4083EF98E00E941933CE0101960E946E310E
S1131F500A5F1F4FE016F10639F780913D09909111
S1131F603E090E94620569E475E0CE0101960E9473
S1131F70D53160913F09709140098E010F5F1F4F69
S1131F8024E630E047E758E080913D0990913E090E
S1131F908ADC182FCE0101960E946E31112339F18B
S1131FA0449A69E475E081EE98E00E94543267E94E
S1131FB076E087EE98E00E94543269E475E08DEE95
S1131FC098E00E94543260913D0970913E0944E6C4
S1131FD050E08BED98E00E9483029FEF27EA81E6B0
S1131FE0915020408040E1F700C0000005C063E04C
S1131FF070E080E090E0C6CEE2DB66E278E0CE01FD
S113200001960E949C1886E0FE013196A4E1B8E096
S113201001900D928A95E1F784E198E0DED7609310
S11320202208709323088093240890932508009134
S11320301E0810911F082091200830912108C0909B
S11320401A08D0901B08E0901C08F0901D080C0D95
S11320501D1D2E1D3F1D68017901C61AD70AE80A05
S1132060F90AD701C6010297A105B10508F02EC1EE
S1132070A6DB2CC169E475E084EF9AE00E943F2F4F
S113208066EA76E084EF9AE00E94142F66EE76E02A
S1132090CE0101960E94D531BE01675E7F4FCE010D
S11320A001960E942D33BC0184EF9AE00E942F2FE9
S11320B0CE0101960E946E3166EA76E084EF9AE0E2
S11320C00E94142F65EF76E084EF9AE00E943F2F80
S11320D0BE01675E7F4F81E199E00E942C3286E663
S11320E099E00E94602686E699E00E94C6268FE366
S11320F09CE90197F1F700C000006EEC75E081EEF9
S113210098E00E94543269E475E087EE98E00E94FA
S113211054326AE177E0CE0101960E94D531BE01C6
S1132120675E7F4FCE0101960E942D33BC018DEE78
S113213098E00E942C32CE0101960E946E3160918B
S11321403D0970913E0944E650E08BED98E00E9411
S1132150830283EE97E09A838983409161085091CA
S1132160620860916308709164084B835C836D839B
S11321707E8398878F8340916708509168086091A7
S1132180690870916A0849875A876B877C879E879C
S11321908D8780916D0890916E08A0916F08B09121
S11321A070088F87988BA98BBA8B64E271E0CE019B
S11321B043960E94812ECE0101967C018E01095F17
S11321C01F4F9E01235F3F4FAE014D5E5F4F6EE197
S11321D071E08BEE99E00E94F51C9FEF23ED80E304
S11321E0915020408040E1F700C00000B8CC6EE878
S11321F079E087E199E00E942C3268E879E08DE18A
S113220099E00E942C32609116017091170180911F
S11322101801909119010E94230363CD22E0B701B4
S1132220A601CE0101960E94BF32BE016F5F7F4FAF
S113223083E299E00E944932CE0101960E946E31F8
S113224064E277E089E499E00E94543267E070E048
S113225081E090E00E940B0567E070E081E090E08F
S11322600E94D00492B182E0892782B96EE170E0C5
S113227080E090E00E94230318CE22E0B701A6017B
S1132280CE0101960E94BF32BE016F5F7F4F83E291
S113229099E00E944932CE0101960E946E3164E2B7
S11322A077E089E499E00E94543267E070E081E0CD
S11322B090E00E940B0567E070E081E090E00E94EE
S11322C0D0046EE170E080E090E05CCD6E960FB6D5
S11322D0F894DEBF0FBECDBFDF91CF911F910F9158
S11322E0FF90EF90DF90CF90089520912E0A222343
S11322F099F04FB7F89420912E0A213059F42DB358
S113230020932C0A3DB320912D0A209523232DBB25
S11323104FBF02C040932C0A8CBD9DBD089580918F
S11323202E0A882361F09FB7F89420912E0A809199
S11323302C0A213019F48DBB9FBF08958FBF0895D7
S1132340CF93DF93EC01862F188219821A821B82A5
S11323506C834D831D8A1E8A60E00E94DB3061E03D
S11323608D81DF91CF910C94DB304F925F926F920D
S11323707F928F929F92AF92BF92EF92FF920F93B0
S11323801F93CF93DF93CDB7DEB72C970FB6F89496
S1132390DEBF0FBECDBF7C015A012801390169E4BB
S11323A075E00E94D5318501812C912C540184144F
S11323B09504A604B70409F446C0F80161918F019D
S11323C040E1CE016031F0F401960E946932B70118
S11323D0CE0107960E94413263E075E0CE01079674
S11323E00E943E33BE016F5F7F4F0E942D33BC01BC
S11323F0C7010E942C32CE0107960E946E31CE0195
S1132400019619C007960E946932B701CE01019660
S11324100E944132BE01695F7F4FCE0101960E9446
S11324202D33BC01C7010E942C32CE0101960E94BB
S11324306E31CE0107960E946E31FFEF8F1A9F0A0C
S1132440AF0ABF0AB4CF84EF9AE00E941C2FC701E1
S11324502C960FB6F894DEBF0FBECDBFDF91CF919F
S11324601F910F91FF90EF90BF90AF909F908F902E
S11324707F906F905F904F900895EF92FF920F932B
S11324801F93CF93DF93FC012689222339F06EBD7D
S113249000000DB407FEFDCF8EB527C0062FEC015A
S11324A061E081810E941731E12CF12C10E060E0A1
S11324B089810E941731C8010E2C02C09595879519
S11324C00A94E2F780FF02C061E001C060E08A8103
S11324D00E94173161E089810E941731FFEFEF1AE2
S11324E0FF0A88E0E816F10411F7DF91CF911F91FC
S11324F00F91FF90EF900895CF92DF92EF92FF92A9
S11325001F93CF93DF93FC012689222339F01EBC4D
S113251000000DB407FEFDCF1EB526C0EC0161E03E
S113252081810E941731E12CF12C10E0CC24C3945A
S1132530D12C8B810E944531892B39F0C6010E2C98
S113254001C0880F0A94EAF7182B60E089810E9481
S1132550173161E089810E941731FFEFEF1AFF0AFA
S113256088E0E816F10429F7812FDF91CF911F91BC
S1132570FF90EF90DF90CF9008951F93CF93DF9358
S1132580EC018D89882309F18E89882319F081E76C
S113259090E0ABDE60E088810E94173162E070E079
S11325A080E090E00E94333062E0CE0166DFCE012D
S11325B0A3DF182F61E088810E9417318E89811171
S11325C0AEDE91E0113031F406C08C810E944531B9
S11325D091E0811190E0892FDF91CF911F910895AF
S11325E0CF92DF92EF92FF921F93CF93DF936C0110
S11325F07B01C0E0D0E0C601C0DF182F811115C0F7
S1132600E114F10459F02A96EC16FD0638F464E45A
S113261077E084EF9AE00E943F2F07C06AE070E001
S113262080E090E00E943330E6CF812FDF91CF919C
S11326301F91FF90EF90DF90CF900895CF92DF929B
S1132640EF92FF920F931F93CF93DF93EC016B01F3
S1132650F42E8D89042F10E08823A9F18E89882314
S113266019F081E790E041DE60E088810E94173133
S113267062E070E080E090E00E94333063E0CE01DD
S1132680FCDE76010C0D1D1D0E151F0561F061E0C9
S113269070E080E090E00E943330CE012DDFF7013E
S11326A081937F01F1CF61E088810E9417318E8987
S11326B0882361F1DF91CF911F910F91FF90EF90EB
S11326C0DF90CF902CCE62E070E080E090E00E943A
S11326D0333042E04F0D64E28EE99AE00E94762C9A
S11326E08EE99AE00E94222BE6010C0D1D1DC017F5
S11326F0D10761F061E070E080E090E00E94333047
S11327008EE99AE00E94222B8993F1CFDF91CF9139
S11327101F910F91FF90EF90DF90CF900895CF938A
S1132720DF9300D000D000D0CDB7DEB746E0BE01C5
S11327306F5F7F4F83DF46E050E068E371E0CE01D6
S113274001960E94C93721E0892B09F020E0822FED
S113275026960FB6F894DEBF0FBECDBFDF91CF91A2
S11327600895682F8EE99AE00C94A82BAF92BF923B
S1132770CF92DF92EF92FF920F931F93CF93DF9349
S11327807C018B01FC018589C1E0C40F882309F415
S113279058C08689882319F081E790E0A6DD60E0BF
S11327A0F70180810E94173162E070E080E090E0E0
S11327B00E94333061E0C70160DE60E0C7015DDE86
S11327C060E0C7015ADE6FEFC70157DE6C2FC70107
S11327D054DE6C2F6195C70150DE64EDC7014DDEF8
S11327E0C12C93EDD92ED0E02197AC2CB12CAC1692
S11327F0BD065CF4A00EB11EF5016081C7013DDE8B
S1132800F5018081D80EC394F0CF6D2D6095C7017A
S113281034DE60E0C70131DE61E0F70180810E94AF
S11328201731F7018689882309F44BC0DF91CF91D2
S11328301F910F91FF90EF90DF90CF90BF90AF90DA
S11328406ECD62E070E080E090E00E94333064E29C
S113285070E08EE99AE00E94032C80E082DF80E041
S113286080DF8FEF7EDF8C2F7CDF8C2F819579DFEB
S113287084ED77DFB12C83EDD82ED0E02197EB2CBB
S1132880F12CEC16FD0654F4E00EF11EF7018081E4
S113289068DFF7018081D80EB394F1CF8D2D809538
S11328A060DF80E05EDF8EE99AE0DF91CF911F91D7
S11328B00F91FF90EF90DF90CF90BF90AF900C946A
S11328C07A2CDF91CF911F910F91FF90EF90DF90C1
S11328D0CF90BF90AF9008950F931F93CF93DF9342
S11328E0EC01890143DFB801CE017ADE811102C017
S11328F080E00EC0CE0113DF8823D1F39D89992394
S113290039F0B801CE01DF91CF911F910F9168CEBC
S1132910DF91CF911F910F910895CF93DF93EC0135
S11329208D89882331F18E89882329F00E94972884
S113293081E790E0DADC60E088810E94173168EE7C
S113294073E080E090E00E94333082E080939F093E
S113295028EE33E041E06FE979E0CE01BDDF61E0CC
S113296088810E9417318E89882309F1DF91CF91E4
S1132970D6CC8EE99AE00E94E62B61E08D810E941C
S1132980173160E08D810E94173160E971E080E0C9
S113299090E00E94333061E08D810E9417316AE03B
S11329A070E080E090E0DF91CF910C943330DF91C0
S11329B0CF910895CF93DF93EC0182E080939F0938
S11329C028EE33E041E06FE979E0CE0185DF811143
S11329D004C060E070E0CB0132C04CE06FE979E004
S11329E0CE012CDE46E050E062E371E08FE999E02D
S11329F00E94C937892B69F78D89811103C0E7E0EB
S1132A00F0E002C0E6E0F0E0E156F64F6081862F88
S1132A1090E0A0E0B0E0BA2FA92F982F8827218159
S1132A20822BBA2FA92F982F88272281822BBA2F85
S1132A30A92F982F88272381BC01CD01622BDF9118
S1132A40CF910895CF93DF93EC0194E190939F0984
S1132A5081E08093A0099093A1098093A20928EEB4
S1132A6033E044E06FE979E0CE0136DF8823A9F052
S1132A7048E06FE979E0CE01E1DD8D89811103C081
S1132A8086E090E002C085E090E0FC01E156F64F5C
S1132A9081E09081953109F080E0DF91CF91089534
S1132AA0EFE9F9E022E3208325E021832FEF22835D
S1132AB021E02383648328EE33E045E0BF010CCF9B
S1132AC0AF92BF92CF92DF92EF92FF920F931F9338
S1132AD0CF93DF93EC017A01590168018AE4809372
S1132AE09F0981E08093A0096093A109980143E0C4
S1132AF06FE979E0CE01F0DE182F882341F18D894A
S1132B00882379F044E16FE979E0CE0197DD809183
S1132B10A6098130E1F48091AB09F501808380E05E
S1132B2006C0B601CE015CDD8111ECCF10C09091DE
S1132B30AB09891768F4282F30E0F901E156F64F04
S1132B409585F701E20FF31F90838F5FF0CF10E0BC
S1132B50812FDF91CF911F910F91FF90EF90DF9024
S1132B60CF90BF90AF900895AF92BF92CF92DF9273
S1132B70EF920F931F93CF93DF93EC01142F5C011B
S1132B808EE0A80EB11C86E0F601D50101900D92ED
S1132B908A95E1F750E0CE0106960E94B0371D8772
S1132BA080E480939F0981E08093A009E11002C032
S1132BB080E601C081E68093A1090093A20986E022
S1132BC0F501A3EAB9E001900D928A95E1F780E05E
S1132BD04D85841760F4282F30E0FE01E20FF31FC7
S1132BE09681F901E156F64F92878F5FF1CF465FE8
S1132BF028EE33E06FE979E0CE016EDE882349F0F8
S1132C004CE06FE979E0CE0119DD81E09091A609ED
S1132C10911180E0DF91CF911F910F91EF90DF90A0
S1132C20CF90BF90AF9008950F931F93CF93DF93EE
S1132C30EC018A0180E480939F0981E08093A009DC
S1132C4080E38093A1096093A20928EE33E044E075
S1132C506FE979E0CE0140DE811102C080E012C04C
S1132C604AE16FE979E0CE01E9DC8091A60981119E
S1132C70F5CF80E1E7EAF9E0D80101900D928A9559
S1132C80E1F781E0DF91CF911F910F910895CF93E8
S1132C90DF93EC0180E480939F0981E08093A00995
S1132CA080EA8093A1096093A20980E1FA01A3EA72
S1132CB0B9E001900D928A95E1F728EE33E044E102
S1132CC06FE979E0CE0108DE882369F06AE070E0FC
S1132CD080E090E00E9433304AE16FE979E0CE0170
S1132CE0ADDC81E001C080E0DF91CF910895803DAB
S1132CF027E0920710F0805D974050E0EBE1F2E0AE
S1132D0021E0261730F43491430F511D2F5F319683
S1132D10F8CF633038F09C0123703327232B11F450
S1132D204F5F5F4FBC016D5F7F4F769567957695DA
S1132D306795EDE6F1E08E9F90018F9F300D9E9F89
S1132D40300D1124C9010197860F971F840F951F19
S1132D500895FC01908190539A3008F090E08181AD
S1132D6080532AE0929F800D112408958F929F92A0
S1132D70AF92BF92CF92DF92EF92FF92CF93DF9305
S1132D80EC016A017B0180E8C81A83E4D80A8DE665
S1132D90E80A88E3F80A8CE3882E912CA12CB12C44
S1132DA0C701B601A50194010E9437356D83CA019C
S1132DB0B901A50194010E9437356C83C701B6019E
S1132DC020E13EE040E050E00E943735CA01B901FD
S1132DD028E130E040E050E00E9437356B83C701C2
S1132DE0B60120E831E541E050E00E943735188211
S1132DF08881982F937041E050E011F040E050E05A
S1132E00BA0163597E4F2617370738F0241B350B58
S1132E102D5631408F5F8883EBCF81E08983898190
S1132E20E82FF0E0E65EFD4FE491911103C082309B
S1132E3009F4EF5FF0E02E173F0720F02E1B3F0B45
S1132E408F5FECCF2F5F2A83DF91CF91FF90EF90BC
S1132E50DF90CF90BF90AF909F908F900895EF92A6
S1132E60FF920F931F93CF93DF93CDB7DEB72B97CA
S1132E700FB6F894DEBF0FBECDBF8C017A014BE0D4
S1132E8050E0CE0101960E94A737CE010A9661DF79
S1132E90F8018083E9818E2F90E0FC01E154F1096F
S1132EA0E331F10548F5EF5AFF4F0C9459358A8107
S1132EB0813629F08B818E3621F087E01BC081E0BA
S1132EC019C086E017C082E015C08B81823711F0EB
S1132ED088E010C084E00EC08B81823711F085E059
S1132EE009C083E007C089E005C08AE003C08BE025
S1132EF001C08CE0F8018183CE0105962ADFF80138
S1132F00828348E050E0B701CE0101960E94A737C2
S1132F10CE0101961EDFF8018383CE01049619DFEA
S1132F20F8018483CE01079614DFF80185832B967C
S1132F300FB6F894DEBF0FBECDBFDF91CF911F91C6
S1132F400F91FF90EF900895FC018081428161818F
S1132F5090E0CDDE069667E070E00C94233508958A
S1132F60EF92FF920F931F93CF93DF93EC0188812D
S1132F704A81698190E0BBDE9C01A8E1B0E00E9437
S1132F8062352B817B018C01E20EF11C011D111DA8
S1132F90A8019701ACE3B0E00E9471352C817B015C
S1132FA08C01E20EF11C011D111DA80197010E9464
S1132FB071352D81DC01CB01820F911DA11DB11D45
S1132FC0BC01CD0160587C4B8249974CDF91CF9175
S1132FD01F910F91FF90EF900895EF92FF920F933E
S1132FE01F93CF93DF93EC0188814A81698190E03C
S1132FF07EDE9C01A8E1B0E00E9462352B817B015A
S11330008C01E20EF11C011D111DA8019701ACE316
S1133010B0E00E9471352C817B018C01E20EF11C21
S1133020011D111DA80197010E9471352D81620FA8
S1133030711D811D911DDF91CF911F910F91FF9003
S1133040EF900895FC01108211821282138214827F
S1133050089508950F931F93CF93DF93EC01062FE8
S1133060142F68E68EE99AE00E94F92B602F8EE90E
S11330709AE00E94A82B612F8EE99AE00E94A82B67
S11330808EE99AE00E947A2C8883DF91CF911F9178
S11330900F9108951F93CF93DF93EC01162F68E6E9
S11330A08EE99AE00E94F92B612F8EE99AE00E9442
S11330B0A82B8EE99AE00E947A2C888341E068E686
S11330C08EE99AE00E94762C8EE99AE00E94222BE7
S11330D0DF91CF911F910895CF92DF92EF92FF92EB
S11330E0CF93DF93EC016A017B018EE99AE00E94A1
S11330F0E62BB701A6018EE99AE00E94F62B68E65A
S11331008EE99AE00E94F92B8EE99AE00E947A2CCB
S113311081110AC062E0CE01BDDF482F4F7B62E01F
S1133120CE0198DF81E001C080E0DF91CF91FF9074
S1133130EF90DF90CF9008950F931F93CF93DF9379
S11331408C01EB0168E68EE99AE00E94F92B60E0BD
S11331508EE99AE00E94A82B8EE99AE00E947A2CCC
S1133160888347E068E68EE99AE00E94762C8EE92F
S11331709AE00E941A2B079709F064C08EE99AE03E
S11331800E94222B982F9695969596959E70292F9E
S1133190220F220F920F8F70890F8D838EE99AE090
S11331A00E94222B982F9695969596959E70292F7E
S11331B0220F220F920F8F70890F8E838EE99AE06F
S11331C00E94222B982F9695969596959E70292F5E
S11331D0220F220F920F8F70890F8F838EE99AE04E
S11331E00E94222B8EE99AE00E94222B982F96951A
S11331F0969596959670292F220F220F920F8F7015
S1133200890F88878EE99AE00E94222B84FB9927F4
S113321090F9990F292F220F220F920F8F70890F87
S113322089878EE99AE00E94222B982F92959F70AD
S11332308F702AE0929F800D112490E08053984F64
S11332409B878A872D813E814F81588569858A8530
S11332509B85803D77E0970710F0805D9740F801EB
S1133260808361835283438334832583C801DF9140
S1133270CF911F910F910895DF92EF92FF920F93D8
S11332801F93CF93DF9300D000D000D0CDB7DEB72B
S11332908C017B01FB0185819AE0D92E6D2D0E9462
S11332A01735492FF0E18F9F400D112460E0C801CC
S11332B0D1DEF70184816D2D0E941735492FF0E18D
S11332C08F9F400D112461E0C801C4DEF7018381A2
S11332D06D2D0E941735492FF0E18F9F400D112469
S11332E062E0C801B7DEC7012FDE482F63E0C801E2
S11332F0B1DEF70182816D2D0E941735492FF0E16F
S11333008F9F400D112464E0C801A4DEF701818180
S11333106D2D0E941735492FF0E18F9F400D112428
S113332065E0C80197DEF70180816D2D0E94173595
S1133330492FF0E18F9F400D112466E0C8018ADE19
S11333406FE0C801A7DE482F4F776FE0C80182DE27
S11333506EE0C8019FDE482F4F776EE0C8017ADE29
S1133360B801CE010196E8DECE010196F9DDF8013F
S1133370618372838383948326960FB6F894DEBFA9
S11333800FBECDBFDF91CF911F910F91FF90EF90B2
S1133390DF9008950F931F93CF93DF9300D000D055
S11333A000D0CDB7DEB78C0142E152E066E072E0B6
S11333B0CE01019654DDBE016F5F7F4FC8015CDF13
S11333C026960FB6F894DEBF0FBECDBFDF91CF9126
S11333D01F910F9108950F9300E020E040E060E01A
S11333E08FED99E00E94752E0F910895FB014281A3
S11333F0538164817581FC014283538364837583A3
S1133400178216820895CF93DF93DA01FB01EB0153
S113341089918111FDCF80E090E020E030E04AE026
S113342051915523E9F02430310544F55E3269F4B5
S11334308F3F910509F014F5ED01C20FD31F8A8364
S11334402F5F3F4F80E090E0EBCF489FB001499F52
S1133450700D1124852F90E0C097860F971FE0CF41
S11334608F3F910509F054F4243031053CF4FD01FB
S1133470E20FF31F828381E090E002C080E090E0DD
S1133480DF91CF9108950F9300E020E040E060E0E9
S113349085EE99E00E94752E0F9108958F929F9268
S11334A0AF92BF92CF92DF92EF92FF920F931F934E
S11334B0CF93DF9300D01F92CDB7DEB76C017B01B1
S11334C00E940230F601778366838601085F1F4FEE
S11334D0B6016A5F7F4F42E050E0C80155D681E0F3
S11334E090E09A83898342E050E0BE016F5F7F4F92
S11334F0C8014AD680E091E09A83898342E050E093
S1133500BE016F5F7F4FC8013FD61A82198242E025
S113351050E0BE016F5F7F4FC80136D642E050E0F5
S1133520BE016F5F7F4FC8012FD642E050E0BE015D
S11335306F5F7F4FC80128D65701F501808188232A
S1133540F9F0A7015A01F50181916F01882321F057
S11335508E3211F0A601F6CF4A018E189F08181476
S1133560190464F48B8241E050E0BE016D5F7F4F2B
S1133570C8010AD6A401B701C80106D67601DDCF79
S11335801B8241E050E0BE016D5F7F4FC801FCD556
S1133590E12CFF24F394FA82E98242E050E0BE0178
S11335A06F5F7F4FC801F0D5FA82E98242E050E0B4
S11335B0BE016F5F7F4FC801E7D581E090E00F90B7
S11335C00F900F90DF91CF911F910F91FF90EF908B
S11335D0DF90CF90BF90AF909F908F9008952F92DF
S11335E03F924F925F926F927F928F929F92AF928F
S11335F0BF92CF92DF92EF92FF920F931F93CF93DC
S1133600DF93CDB7DEB763970FB6F894DEBF0FBE76
S1133610CDBF7C016B011A010E9402304B015C0199
S11336208701085F1F4F2601612C712CC8014ED6FB
S113363018161906A4F00E940230DC01CB01881987
S11336409909AA09BB09481659066A067B06D0F0EF
S113365062E370E080E090E00E943330E7CFF7014E
S11336604281538164817581818D928DA38DB48D46
S1133670481759076A077B0749F4858D968DC597C6
S113368029F409C0EE24EA94FE2CF0C09EEFE92E42
S1133690FF24FA94EBC0C8012DD50C970CF4E2C0BA
S11336A04CE050E0BE016F5F7F4FC801A8D58B810D
S11336B09C819827892798279A8B898BF7014681C3
S11336C0578129813A814217530711F497FD07C0A6
S11336D0C8012AD57CEFE72EFF24FA94C7C08F7067
S11336E09270892B39F0C8011FD56BEFE62EFF24A9
S11336F0FA94BCC0CF80D884DC24CD24DC24C1144B
S1133700D10419F0E12CF12C1FC0C8010DD55AEFDA
S1133710E52EFF24FA94AAC041E050E0BE01635FA5
S11337207F4FC8016CD58D85811117C08D8581119E
S1133730F3CFC8013CD5C8013AD5C80138D5C80172
S113374036D5FFEFEF1AFF0A8D819E8198278927CE
S11337509827E816F90600F309C08D859FEF980FA6
S11337609D87882319F3C80122D5F7CFA12CB12C4A
S113377041E050E0BE016D5E7F4FC80140D58B89AA
S1133780982F907C59F4882379F08B899FEF980FB8
S11337909B8B882331F0C8010AD5F7CFC80107D520
S11337A01B8A8B898111E4CF42E050E0BE01615F46
S11337B07F4FC80124D542E050E0BE01635F7F4FD4
S11337C0C8011DD5C801F3D4C801F1D4C801EFD490
S11337D0C801EDD442E050E0BE016F5E7F4FC801E6
S11337E00ED58F8598898115914049F4ED84FE8426
S11337F0FE24EF24FE2481E0E816F10419F0E12C04
S1133800F12C14C089899A898115944039F0C80132
S11338108BD447EFE42EFF24FA9428C0B1016E5FE5
S11338207F4F44E050E0C801EAD420C089899A89D6
S1133830982789279827E816F90630F4C801B7D4E1
S1133840FFEFEF1AFF0AF2CF2FEFA21AB20ACA143F
S1133850DB0409F08DCFC80167D436EFE32EFF24D3
S1133860FA9404C08DEFE82EFF24FA94C7016396FE
S11338700FB6F894DEBF0FBECDBFDF91CF911F917D
S11338800F91FF90EF90DF90CF90BF90AF909F90FB
S11338908F907F906F905F904F903F902F900895FE
S11338A08F929F92AF92BF92CF92DF92EF92FF924C
S11338B00F931F93CF93DF9300D000D000D0CDB7E8
S11338C0DEB77C014B015A019EDD8C01892B09F086
S11338D057C0F70142815381648175818091E70962
S11338E09091E809A091E909B091EA0948175907AC
S11338F06A077B0709F447C00E9402306701F8E0B9
S1133900CF0ED11C6F7077277C5FC601AED4813097
S113391009F03BC083EE97E09A838983F7018281A3
S11339209381A481B5818B839C83AD83BE8345E35E
S113393050E0BE016F5F7F4FC6011CD4892B19F480
S113394000E010E01AC0B401C701A8DD892BC1F35F
S1133950C60117D4892BA1F383E0882E912CA501ED
S113396068E873E1C7013BDE8C0121E0821A91080B
S113397021F00F3FFFEF1F0791F3C601E7D305C006
S113398001E010E002C00EEF1FEFC80126960FB64B
S1133990F894DEBF0FBECDBFDF91CF911F910F9181
S11339A0FF90EF90DF90CF90BF90AF909F908F905B
S11339B0089524E030E0AC0164E081E090E04DC77C
S11339C024E030E0AC0164E085E090E046C726E006
S11339D030E0AC0164E089E090E03FC724E030E0EF
S11339E0AC0164E08FE090E038C78F929F92AF9271
S11339F0BF92CF92DF92EF92FF920F931F93CF93D8
S1133A00DF934C015B016A01E901FC0164858BE2EF
S1133A109AE06FD7C501DBDFC6010296DFDFC8017C
S1133A200296C7DFC7010296CBDF8A819B81AC81F6
S1133A30BD81F40182839383A483B583DF91CF9105
S1133A401F910F91FF90EF90DF90CF90BF90AF90B8
S1133A509F908F90089523EE37E0FC0131832083FB
S1133A60FB014281538164817581FC01428353834C
S1133A706483758308950F9300E020E040E060E0E4
S1133A8088E09AE00E94752E8BEE99E00E946B2EDE
S1133A90EBEEF9E0138612868AE084870F9108958D
S1133AA080E090E008950895DC01ED91FC91028C92
S1133AB0F38DE02D099591E089270895CF93DF9345
S1133AC01F92CDB7DEB76983DC01ED91FC910280D2
S1133AD0F381E02D41E050E0BE016F5F7F4F099517
S1133AE00F90DF91CF91089521E0FC018485883007
S1133AF009F420E0822F0895FC019485FB0184855C
S1133B00981303C081E0983009F480E00895CF92BF
S1133B10DF92EF92FF920F931F93CF93DF93CDB772
S1133B20DEB7AF970FB6F894DEBF0FBECDBF8C01E2
S1133B306B017A01CE0101960E946B2ECE0109968B
S1133B4014D4CE018A960E946B2E6BEE79E0CE01DE
S1133B50849681DFBE016C5D7F4FCE01019646DC09
S1133B60AE01465D5F4FB601CE01019699DE81300C
S1133B709105C1F4D801ED91FC910684F785E02DFF
S1133B8083EE97E09DA38CA38CA59DA5AEA5BFA5B0
S1133B908EA39FA3A8A7B9A7A701BE016C5D7F4F01
S1133BA0C8010995AF960FB6F894DEBF0FBECDBF1E
S1133BB0DF91CF911F910F91FF90EF90DF90CF9005
S1133BC008950F931F93CF93DF938C01D42FC52FA8
S1133BD0FC018485883041F481E090E0F80193830E
S1133BE0828380E090E005C00CD5892BA9F38D2F4A
S1133BF09C2FDF91CF911F910F910895FC01648553
S1133C00683019F08BE29AE0E8C680E090E008950D
S1133C10CF93DF931F92CDB7DEB741E050E0BE01F2
S1133C206F5F7F4FFC01848534D5181619061CF488
S1133C30898190E002C08FEF9FEF0F90DF91CF91C9
S1133C400895FC01848525C50F931F93CF93DF93BB
S1133C501F92CDB7DEB78C01DC01ED91FC9100849D
S1133C60F185E02D0995892B49F0BE016F5F7F4FE7
S1133C70F80184854FD5898190E002C08FEF9FEFD2
S1133C800F90DF91CF911F910F910895FC018485CE
S1133C904EC5FC011382128288EE93E0A0E0B0E0EE
S1133CA084839583A683B78381E597E0918380839A
S1133CB088E084870895FC011382128288EE93E0E1
S1133CC0A0E0B0E084839583A683B78381E597E081
S1133CD09183808364870895FC016485683039F09A
S1133CE06295660F607E685F83E090E0E4C580E0E3
S1133CF00895CF93DF93FC0124852830C9F0EC01AB
S1133D00EBDF843181F0882371F0883161F08C31EC
S1133D1061F4E881F9810084F185E02DCE010995F3
S1133D2021E0892B19F420E001C021E0822F01C099
S1133D3080E0DF91CF910895CF92DF92EF92FF92CE
S1133D40CF93DF93EC018C85883069F155D40E94C0
S1133D5002306B017C01CE01BFDF8823A1F00E94F9
S1133D600230DC01CB018C199D09AE09BF09883EE4
S1133D709340A105B10538F461E070E080E090E083
S1133D800E943330E8CFCE01A7DF882311F08C8561
S1133D90B1D3EC85F0E0EE0FFF1FE850F64F11822F
S1133DA0108288E08C87DF91CF91FF90EF90DF90B5
S1133DB0CF900895CF92DF92FF920F931F93CF93EA
S1133DC0DF93FC0124852830C1F56A018B01EC01E5
S1133DD0F12C6F2D6295660F607E685F83E090E042
S1133DE06AD5811102C0FC8607C08B7F8831D9F364
S1133DF0F394F8E0FF12EDCF8C858830F1F0209138
S1133E003E0130913F012F5F3F4F11F420E034E039
S1133E1030933F0120933E0140913E0150913F0178
S1133E2020E061E072D3B8016E5F7F4FA6018C85FC
S1133E30B0D3811105C088E08C8780E090E00FC08A
S1133E40CE014ADF873149F061E070E080E090E024
S1133E500E943330CE0140DFECCF81E090E0DF916F
S1133E60CF911F910F91FF90DF90CF9008950F9302
S1133E7000E020E040E060E08EE09AE00E94752ED1
S1133E800F910895CF93DF931F92CDB7DEB7698367
S1133E90DC01ED91FC910280F381E02D41E050E0E2
S1133EA0BE016F5F7F4F09950F90DF91CF91089509
S1133EB0EF92FF920F931F93CF93DF93CDB7DEB7AB
S1133EC02D970FB6F894DEBF0FBECDBF7C0100E086
S1133ED010E0602FCE010196EEDECE010196FCDEED
S1133EE0811114C0F7014481558120E061E0802FE5
S1133EF00CD3802F3DD3F70184819581000F111FCE
S1133F00F801E850F64F9183808305C00F5F1F4F7F
S1133F1008301105F1F62D960FB6F894DEBF0FBEEA
S1133F20CDBFDF91CF911F910F91FF90EF90089536
S1133F30FC011382128283E797E091838083758367
S1133F4064830895AF92BF92CF92DF92EF92FF9273
S1133F501F93CF93DF93CDB7DEB72D970FB6F894A9
S1133F60DEBF0FBECDBF7C0198EFA92E99E0B92E1C
S1133F7010E0C12CD12C612FCE0101969CDED5011D
S1133F802D913D915D01F7018481958128173907B1
S1133F9099F4CE010196A0DE843159F0CE01019648
S1133FA09BDE8C3149F4CE01019628DE892B91F0F9
S1133FB003C0CC24C394D12C1F5F1830E1F6CD2864
S1133FC069F4D701ED91FC910084F185E02DC701DE
S1133FD0099504C0CE010196AFDEEECF2D960FB643
S1133FE0F894DEBF0FBECDBFDF91CF911F91FF903C
S1133FF0EF90DF90CF90BF90AF9008957F928F9213
S11340009F92AF92BF92CF92DF92EF92FF920F9363
S11340101F93CF93DF93CDB7DEB72D970FB6F894E8
S1134020DEBF0FBECDBF6C015B014A018BDF88EFA1
S1134030E82E89E0F82E712C00E010E0672DCE0107
S1134040019639DEF701219131917F01F6018481D6
S113405095812817390729F4CE0101963DDE873171
S1134060C9F07394F8E07F12E9CFC8012D960FB61A
S1134070F894DEBF0FBECDBFDF91CF911F910F919A
S1134080FF90EF90DF90CF90BF90AF909F908F9074
S11340907F900895A401B501CE01019692DD080F29
S11340A0191FDFCF0F9300E020E040E060E084E1DF
S11340B09AE00E94752E0F91089580E00895DC0126
S11340C0ED91FC91048CF58DE02D099423EE37E0FD
S11340D0FC0131832083FB014189528963897489FE
S11340E0FC0142835383648375830895FC018589AD
S11340F096890895FC01818D928D0895CF93DF9365
S11341001F92CDB7DEB76983DC01ED91FC9102808B
S1134110F381E02D41E050E0BE016F5F7F4F0995D0
S11341200F90DF91CF910895CF93DF93EC01898DA8
S11341309A8D892B41F0E881F9810284F385E02D81
S1134140CE010995F4CFDF91CF910895CF93DF93FA
S1134150EC018C85883059F0CDD1EC85F0E0EE0F80
S1134160FF1FE850F64F1182108288E08C87DF91A0
S1134170CF910895FC01108E178A6E5F7F4F84855E
S113418002C3FC01848522C3CF93DF93EC019A011F
S11341908F89988DAB01BC018C85CAD22F89388D4B
S11341A0280F391F388F2F8BDF91CF9108950F93EC
S11341B01F93CF93DF931F92CDB7DEB7FC01218D00
S11341C0328D232B59F08C0141E050E0BE016F5F2A
S11341D07F4F84855ED2181619061CF08FEF9FEF6F
S11341E008C0F801818D928D0197928F818F89810A
S11341F090E00F90DF91CF911F910F910895CF938D
S1134200DF93FC01218D328D2115310519F48FEFD7
S11342109FEF10C0EC014217530708F0A9018C85E9
S113422038D2181619069CF7298D3A8D281B390B9C
S11342303A8F298FDF91CF910895CF93DF931F9207
S1134240CDB7DEB7FC01218D328D232B41F0BE01A9
S11342506F5F7F4F84855ED2898190E002C08FEFCB
S11342609FEF0F90DF91CF910895EF92FF921F93EC
S1134270CF93DF93FC012485283011F080E020C027
S11342807B01EC0110E0612F6295660F607E685F30
S113429083E090E010D3811102C01C8705C08831EF
S11342A0E1F31F5F183079F78C85883039F3FE8687
S11342B0ED861A8E198E20E0A70162E026D181E0F6
S11342C0DF91CF911F91FF90EF9008950F931F936B
S11342D0CF93DF93CDB7DEB728970FB6F894DEBF40
S11342E00FBECDBF8C01DC01ED91FC910680F781FE
S11342F0E02D0995F80164858BE29AE06ED3892B51
S113430039F148E050E0BE016F5F7F4FD8011C9641
S11343108C91BFD118161906ECF4BE016F5F7F4F64
S1134320C8010F960E948D2E8D8190E0982F8827CA
S11343302E81820F911DF801968B858B8F8190E0E1
S1134340982F88272885820F911D928F818F02C014
S113435080E090E028960FB6F894DEBF0FBECDBF84
S1134360DF91CF911F910F910895FC011382128266
S113437088EE93E0A0E0B0E084839583A683B783BE
S113438081E897E09183808388E08487CF010F964A
S11343900C946B2ECF92DF92EF92FF920F931F93A8
S11343A0CF93DF93CDB7DEB7AF970FB6F894DEBFE8
S11343B00FBECDBF8C016B017A01CE0101960E9424
S11343C06B2ECE010996D1DFCE018A960E946B2E08
S11343D06BEE79E0CE0184963EDBBE016C5D7F4FCF
S11343E0CE01019603D8AE01465D5F4FB601CE0102
S11343F0019656DA81309105C1F4D801ED91FC9112
S11344000488F589E02D83EE97E09DA38CA38CA509
S11344109DA5AEA5BFA58EA39FA3A8A7B9A7A701D5
S1134420BE016C5D7F4FC8010995AF960FB6F89435
S1134430DEBF0FBECDBFDF91CF911F910F91FF90D3
S1134440EF90DF90CF9008950F9300E020E040E0DC
S113445060E08AE19AE00E94752E0F9108950F930F
S113446000E020E040E060E080E29AE00E94752EE7
S11344700F910895AB018295880F807E6CE0680FE0
S113448024E030E08CE090E0E8C19B018295880F45
S1134490807E68E0680FC9010EC262E070E0F5CF6B
S11344A09B018295880F807E6CE0680FC901B5C1BD
S11344B0CF93DF93C82FD62F472F64E070E0F0DF4F
S11344C04D2F65E070E08C2FDF91CF91E9CF462F1F
S11344D062E070E0E5CFCF93DF93C82FD62F472F4C
S11344E060E170E0DDDF4D2F61E170E08C2FDF9142
S11344F0CF91D6CFCF93C82F40E1682F8BE29AE0BB
S11345005ED36FEF8C2FCF91E2CFFF920F931F9367
S1134510CF93DF939FEF960F953018F5D22F8A0132
S1134520F62EC82FE7DF4F2D4D2B60E070E08C2F67
S1134530B7DF0115110511F0B8010AC06091260A10
S11345407091270A6F5F7F4F7093270A6093260A42
S11345508C2FAEDF41E06C2F8BE29AE030D381E008
S113456001C080E0DF91CF911F910F91FF900895DA
S1134570CF93C82F63E070E088DF833139F442E0E1
S11345806C2F8BE29AE01BD381E001C080E0CF91D5
S113459008950F931F93CF93FB0190819F3F51F494
S11345A091819F3F91F492819F3F79F493819F3F42
S11345B061F41CC0911109C09181911106C09281CE
S11345C0911103C09381992391F04115510571F024
S11345D08A01BF01C82F4EDFB8018C2F7CDF44E075
S11345E06C2F8BE29AE0EBD291E001C090E0892F2E
S11345F0CF911F910F91089548E0682F8BE29AE0C4
S1134600DEC2CF92DF92EF92FF920F931F93CF936C
S1134610C82F7B018A014130584010F000E018E0B7
S11346206C2F8BE29AE0A8D16C0163E070E08C2FD0
S11346302CDF873111F08C3121F4C016D10680F3C0
S113464002C000E010E09801A7016C2F8BE29AE011
S113465018D240E26C2F8BE29AE0B1D28C2F1DDF8E
S113466084FD0BC063E070E08C2F0FDF8111F6CF67
S11346708C2F40DF80E090E004C060E18C2F27DFC6
S1134680C801CF911F910F91FF90EF90DF90CF90D1
S11346900895CF92DF92EF92FF920F931F93CF93DF
S11346A0DF93182F6B017A01682F8BE29AE095D182
S11346B0EC01009791F463E070E0812FE6DE843131
S11346C0F9F08823E9F0C1E0D0E08C3111F4C0E0C6
S11346D0D0E0D195C195D10913C0E816F9060CF4C0
S11346E0E7011C161D0664F400E09E01A601612F7B
S11346F08BE29AE017D240E4612F8BE29AE05FD21A
S1134700CE01DF91CF911F910F91FF90EF90DF9039
S1134710CF9008950F93AB0101E021E030E0682FC2
S11347208BE29AE0FFD181E090E00F910895089523
S1134730AF92BF92CF92DF92FF920F931F93CF93CA
S1134740DF93F82E6B015A01E901682F8BE29AE09E
S113475013D18C179D0728F46F2D8BE29AE00CD1AE
S1134760EC018E019501A6016F2D8BE29AE04FD1E9
S1134770CE01DF91CF911F910F91FF90DF90CF90E9
S1134780BF90AF9008950F931F93CF93FB01908137
S1134790911109C09181911106C09281911103C0B8
S11347A09381992369F04115510551F08A01BF01A4
S11347B0C82F60DEB8018C2F8EDE81E090E002C04D
S11347C080E090E0CF911F910F910895CF93C82F6F
S11347D040E2682F8BE29AE0F2D18C2F5EDE84FDFA
S11347E00AC08C2F5ADE83FFF8CF68E18C2F6FDE6E
S11347F080E090E005C060E18C2F69DE81E090E00C
S1134800CF9108958EBD00000DB407FEFDCF8EB587
S1134810089544980895449A08950F931F93CF934D
S1134820DF93182F092FD62FC42F8091290A909136
S11348302A0A0E947511EDDF802FE4DF812FE2DF69
S11348408D2FE0DF8C2FDEDFE6DF0E948F1181E009
S1134850DF91CF911F910F910895DF92EF92FF9214
S11348600F931F93CF93DF93D82FD92EC62F7A019E
S113487089018091290A90912A0A0E947511C9DF41
S11348808D2DC0DF8D2FBEDF8C2FBCDFE701E00E46
S1134890F11ECE15DF0519F08991B4DFFACFBBDF25
S11348A00E948F11C801DF91CF911F910F91FF904A
S11348B0EF90DF9008951F93CF93DF93D82F192F94
S11348C0C62F8091290A90912A0A0E947511A1DFAE
S11348D0812F98DF8D2F96DF8C2F94DF80E092DF7D
S11348E0C82F99DF0E948F118C2FDF91CF911F91D8
S11348F00895CF93DF936093280A68EE73E080E015
S113490090E00E9433303C9A12D460E080E090E062
S1134910D2DF482F406864E080E090E07EDFC0E0B2
S1134920DC2FD295DD0FD07ED45F42E06D2F8EE177
S113493090E073DF42E06D2F8FE190E06EDFCF5F98
S1134940C83071F7DF91CF9108951F93CF93DF9310
S1134950182F60E270E099DDC82FD0E0DC2FCC275F
S113496061E270E0812F91DD9E01280F311DC901A4
S1134970DF91CF911F910895FF920F931F93CF93CF
S1134980DF93F62EC0E0D0E08F2DDFDF8C01892B82
S113499019F08F2DDADFEC01C017D107A9F7CE018A
S11349A0DF91CF911F910F91FF9008951F93CF93A3
S11349B0DF93182F66E270E068DDC82FD0E0DC2FAB
S11349C0CC2767E270E0812F60DD9E01280F311D46
S11349D0C901DF91CF911F910895FF920F931F9307
S11349E0CF93DF93F62EC0E0D0E08F2DDFDF8C0174
S11349F0892B19F08F2DDADFEC01C017D107A9F745
S1134A00CE01DF91CF911F910F91FF900895AF9246
S1134A10BF92DF92EF92FF920F931F93CF93DF9396
S1134A20D62E7A01590164E270E08D2D2EDDC82F57
S1134A3065E270E08D2D29DDD0E0DC2FCC27E80E77
S1134A40F11CCE0DDF1D6D2D6295660F607E6C5ED0
S1134A509801A501CE0101DFC00FD11F4D2F64E2E3
S1134A6070E08D2D1DDD4C2F65E270E08D2DDF9102
S1134A70CF911F910F91FF90EF90DF90BF90AF9077
S1134A800FCD0F931F9389019A0140E050E0BFDFDF
S1134A901F910F910895DF92EF92FF920F931F934E
S1134AA0CF93DF93D82FD92EC62F7A018901809115
S1134AB0290A90912A0A0E947511ABDE8D2DA2DE7F
S1134AC08D2FA0DE8C2F9EDEE701E00EF11ECE15A9
S1134AD0DF0521F080E096DE8993F9CF9CDE0E9409
S1134AE08F11C801DF91CF911F910F91FF90EF902B
S1134AF0DF9008950F931F93CF93DF9300D0CDB72A
S1134B00DEB75A834983A901980189819A81629504
S1134B10660F607E685E0F900F90DF91CF911F91BA
S1134B200F91B9CF8F929F92AF92BF92CF92DF92A3
S1134B30EF92FF920F931F93CF93DF936C01962E06
S1134B405A017901802E68E270E0892D9EDC082FDD
S1134B5069E270E0892D99DC10E0102F0027E8014C
S1134B60C80FD11D87019501AE01692DC601C2DFB1
S1134B70811018C00C0F1D1F412F68E270E0892DB1
S1134B808FDC402F69E270E0892DDF91CF911F9176
S1134B900F91FF90EF90DF90CF90BF90AF909F90D8
S1134BA08F907ECCDF91CF911F910F91FF90EF906A
S1134BB0DF90CF90BF90AF909F908F900895CF9348
S1134BC0C62F61E070E08C2F6BDC61E070E08C2F0D
S1134BD05CDC8111FACFCF910895E9E2FAE080E537
S1134BE0808381E081830895FC0112828FEF8183A9
S1134BF0108213820895FC018381882331F06111AE
S1134C0003C08FEF81830895118208958EE99AE09D
S1134C10F0D58EE99AE06ED691E0811190E0892F6B
S1134C200895CF93DF93EC016A838EE99AE0CED5A1
S1134C306A81CE01EBDF8B83882321F08EE99AE031
S1134C4001D588838B8190E0DF91CF910895CF9334
S1134C50DF93FC012381222399F0EC01818180956B
S1134C606823608362818EE99AE0C3D568818EE906
S1134C709AE06ED58EE99AE03DD6282F30E002C046
S1134C8020E030E081E090E0232B11F080E090E020
S1134C90DF91CF91089508950895DC01ED91FC9181
S1134CA00684F785E02D41E0099581E090E00895C0
S1134CB0FC011382128229EA37E0318320830895AC
S1134CC0DC01ED91FC910484F585E02D6FEF0994EE
S1134CD0DC01ED91FC910484F585E02D60E00994FC
S1134CE0DC01ED91FC910684F785E02D40E0099408
S1134CF061E0F6DF80ED97E00C946C30CF93DF93A6
S1134D00CDB7DEB728970FB6F894DEBF0FBECDBF80
S1134D10FC018091460190914701A0914801B09116
S1134D2049018D839E83AF83B88780914A01909116
S1134D304B01A0914C01B0914D0189839A83AB83BF
S1134D40BC838781481710F04FEF480F908550E0DF
S1134D50DE01A40FB51F903129F4843019F41196A3
S1134D609C9102C015969C91690F6068CF012896AA
S1134D700FB6F894DEBF0FBECDBFDF91CF91B0CF99
S1134D80FC0165816B7F65836860AACFFC01658146
S1134D90262F246025836C60A3CFCF93DF93EC018F
S1134DA0423018F08C8188608C834F83688722237B
S1134DB029F0413019F48C8184608C8364E670E0BE
S1134DC080E090E00E9433306C8164FD31C0E88162
S1134DD0F9810684F785E02D42E063E0CE01099570
S1134DE084E991E10E946C30E881F9810684F785B9
S1134DF0E02D42E063E0CE01099586E990E00E944F
S1134E006C30E881F9810684F785E02D42E063E0A7
S1134E10CE01099586E990E00E946C30E881F98121
S1134E200684F785E02D42E062E0CE01099513C0C7
S1134E306062CE0155DF84E991E10E946C306C819F
S1134E406062CE014DDF86E990E00E946C306C8197
S1134E506062CE0145DF86E990E00E946C306C818F
S1134E606062CE013DDF8CE390E00E946C3084E010
S1134E708D83CE018BDFCE013BDF82E08E8366E043
S1134E80CE012EDFCE01DF91CF911ACFEF92FF92A8
S1134E900F931F93CF93DF938C017A01677088E09F
S1134EA0689FB00111246064C8011ADF8EE190E0AC
S1134EB00E946C30E701A8E0EA0EF11C6991D80168
S1134EC0ED91FC910190F081E02DC801099588E2F3
S1134ED090E00E946C30CE15DF0581F7DF91CF9111
S1134EE01F910F91FF90EF90089521E001C0220FD0
S1134EF06A95EAF7DC011B962C931B9719964C9341
S1134F001997ED91FC910484F585E02D60E00994F6
S1134F10FC018385882389F09185911103C0611177
S1134F2005C006C0913021F4611102C0848701C01C
S1134F3014866485CF010D968ACE08950F931F932E
S1134F40CF93DF938C01EC012D96FC016285CE0199
S1134F5068DE019759F461E0CE014DDEF801148258
S1134F6060E0CE0174DE81E090E002C080E090E079
S1134F70DF91CF911F910F9108958F92AF92CF92AD
S1134F80EF920F93CF93DF93CDB7DEB7FC01628727
S1134F9013861486118681E0982F01C0990F4A95D3
S1134FA0EAF7918B982F01C0990F2A95EAF7928B13
S1134FB0982F01C0990F0A95EAF7938B982F01C097
S1134FC0990FEA94EAF7948B982F01C0990FCA9429
S1134FD0EAF7958B982F01C0990FAA94EAF7968B5C
S1134FE001C0880F8A94EAF7878BDF91CF910F91E4
S1134FF0EF90CF90AF908F9008956F927F928F92A1
S11350009F92AF92BF92CF92DF92EF92FF920F9353
S11350101F93CF93DF93CDB7DEB73C01D62EB42ECA
S1135020922E1989FA8844DE8DEB97E0F30191837F
S11350308083C3010D96D8DD292D4B2D6D2DC30121
S11350409CDF4F2D612FC301DF91CF911F910F91F1
S1135050FF90EF90DF90CF90BF90AF909F908F9094
S11350607F906F9042CFEF92FF920F931F93CF9355
S11350708C01C62F7C018DE0E80EF11CF8016189DA
S11350806C2BC701E4DDF801618960956C23C701CD
S1135090CF911F910F91FF90EF90D9CDFC01962FE6
S11350A0DF0184E060E090FF04C054962C91549793
S11350B0622B9695815011968111F5CF413009F4F8
S11350C043899485692B642BCF01CDCF0F931F9314
S11350D0CF93DF93062F0F70423019F440E0602F16
S11350E00DC0142FEC0170E084E0759567958A95E6
S11350F0E1F7CE01D3DF412F602FCE01DF91CF91B5
S11351001F910F91CBCFFF920F931F93CF93DF93F8
S1135110EC01162F042FF22E11DF2F2D402F612FBB
S1135120CE01DF91CF911F910F91FF9036CECF9397
S1135130CFB7F89480912F0A811127C0E1E7F2E0FC
S11351408491E1E5F2E09491E82FF0E0EE0FFF1F87
S1135150E556FD4FA591B491EC91E92321F461E06A
S11351608AE00E94173161E08AE00E94DB308CB54E
S113517080618CBD8CB580648CBD61E08DE00E9443
S1135180DB3061E08BE00E94DB3080912F0A8F5F7F
S113519080932F0ACFBFCF91089510929D0A81E08A
S11351A080939B0A10929A0A61E08DE10E94173164
S11351B061E08CE10E941731E9EBF0E080818E7FA1
S11351C0808380818D7F808388E48093B80085E428
S11351D08093BC000895ECEBF0E080818A7B8083AF
S11351E060E08DE10E94173160E08CE10C9417318E
S11351F09B01AC0160E074E284EF90E00E943735DB
S1135200DA01C9014097A109B109B695A795979507
S113521087958093B8000895413208F043C0909177
S11352209D0A9111FCCF91E090939D0A20939B0AD3
S11352302FEF2093300A1092750A240F2093740ADA
S113524090939C0A90919C0A880F892B80939C0AC6
S113525080919A0A813061F410929A0A80919C0A92
S11352608093BB008091BC0083FDF8CF85EC01C026
S113527085EE8093BC0080919D0A8130E1F380919A
S1135280750A841710F44091750AA6E7BAE0962FC0
S1135290FB018E2F891B841718F48D918193F9CF0C
S11352A0842F089580E008950F93413208F04AC096
S11352B090919D0A9111FCCF32E030939D0A0093A6
S11352C09B0A3FEF3093300A1092750A4093740A98
S11352D0562FA6E7BAE0FB013E2F351B341718F40E
S11352E031913D93F9CF10929C0A30919C0A880F1A
S11352F0832B80939C0A80919A0A813061F41092E6
S11353009A0A80919C0A8093BB008091BC0083FD23
S1135310F8CF85EC01C085EE8093BC00222321F0F8
S113532080919D0A8230D1F38091300A8F3F79F0C9
S11353308091300A803241F08091300A803331F01C
S113534094E005C091E003C092E001C093E0892F8E
S11353500F9108954091520A262F30E0240F311DF9
S113536021323105DCF420919D0A2430C9F4FC017A
S113537080E090E0861758F43091520A2191DC01C4
S1135380AC5AB54FA30FB11D2C930196F3CF809166
S1135390520A680F6093520A80E0089581E00895EC
S11353A082E008959093970A8093960A08959093C3
S11353B0990A8093980A089585ED8093BC008091A2
S11353C0BC0084FDFCCF10929D0A089585EC809367
S11353D0BC0010929D0A08951F920F920FB60F926F
S11353E011240BB60F922F933F934F935F936F93B8
S11353F07F938F939F93AF93BF93EF93FF9380918A
S1135400B900887F803609F49DC070F5883209F4AC
S11354105CC090F4803109F455C038F4882309F451
S1135420F3C0883009F44EC0F2C0883109F44DC08D
S1135430803209F45EC0EBC0803409F469C050F4D2
S1135440803309F456C0883309F0E1C08093300AF0
S1135450BDDFDDC0803509F44FC0883509F45DC077
S1135460883409F0D4C0D2C0883909F4C3C0A8F480
S1135470883709F467C038F4883609F463C0803784
S113548009F460C0C4C0883809F4B4C0803909F490
S11354905FC0803809F0BBC05BC0803B09F482C0A8
S11354A038F4803A09F466C0883A09F47BC0AFC086
S11354B0803C09F4A3C0883C09F4A0C0883B09F4EB
S11354C086C0A5C080919C0A10C09091750A8091F5
S11354D0740A981770F5E091750A81E08E0F809335
S11354E0750AF0E0EA58F54F80818093BB0085ECA3
S11354F082C08093300A8AC0E091750A81E08E0FE1
S11355008093750A8091BB00F0E0EA58F54F8083E0
S11355109091750A8091740A6AC0E091750A81E0DD
S11355208E0F8093750A8091BB00F0E0EA58F54F26
S1135530808380919B0A811169C081E080939A0ADB
S113554084EA5DC083E080939D0A1092310ACFCF34
S11355508091310A803208F04DC0E091310A81E037
S11355608E0F8093310A8091BB00F0E0EE5CF54F22
S11355708083BDCF2BDF8091310A803230F4E091FB
S1135580310AF0E0EE5CF54F10826091310A70E070
S1135590E091960AF091970A82E39AE009951092B5
S11355A0310A35C084E080939D0A1092530A109208
S11355B0520AE091980AF091990A09958091520A49
S11355C0811105C081E08093520A1092540AE0913F
S11355D0530A81E08E0F8093530AF0E0EC5AF54FA2
S11355E080818093BB009091530A8091520A98174E
S11355F008F47DCF85E88093BC0009C085EC8093D6
S1135600BC0010929D0A03C01092300AD5DEFF91AF
S1135610EF91BF91AF919F918F917F916F915F9126
S11356204F913F912F910F900BBE0F900FBE0F9093
S11356301F9018958091D20A90E02091D30A821B82
S1135640910908959091D30A8091D20A981750F441
S1135650E92FF0E0EC52F54F208130E09F5F90930A
S1135660D30A02C02FEF3FEFC9010895E091D30A96
S11356708091D20AE81730F4F0E0EC52F54F8081C3
S113568090E008958FEF9FEF08950895CF93DF93EF
S1135690EC01E091AA0AF091AB0A3097F1F09091F5
S11356A0D30A8091D20A9817C0F090E0292F30E0F5
S11356B02617370754F4DE01A20FB31F4C91D9010A
S11356C0AC52B54F4C939F5FF1CF1092D30A6093C5
S11356D0D20ACB01DF91CF910994DF91CF91089544
S11356E0E091AC0AF091AD0A309729F01092B00A1B
S11356F01092AF0A09940895CF92DF92EF92FF922D
S11357000F931F93CF93DF937C01CB018A012091E8
S1135710AE0A222389F0EB016B01C40ED51ECC1511
S1135720DD0561F06991D701ED91FC910190F08163
S1135730E02DC7010995F3CF642F0CDEC801DF917A
S1135740CF911F910F91FF90EF90DF90CF9008952C
S1135750CF93DF931F92CDB7DEB769832091AE0A52
S11357602223D1F02091AF0A203240F021E030E032
S1135770FC013383228380E090E014C08091B00A5E
S1135780E82FF0E0EF54F54F998190838F5F809379
S1135790B00A8093AF0A04C061E0CE010196DADD5D
S11357A081E090E00F90DF91CF910895FC01138286
S11357B0128288EE93E0A0E0B0E084839583A68310
S11357C0B78381ED97E09183808308951092D30A83
S11357D01092D20A1092B00A1092AF0ADEDC80E76F
S11357E09BE2E5DD86E49BE2DDCDF5CCCB01BA019D
S11357F0FFCC81E08093AE0A6093D10A1092B00A84
S11358001092AF0A0895F5CF0F93062F21E040912F
S1135810AF0A61EB7AE08091D10A46DD1092B00ABA
S11358201092AF0A1092AE0A0F9108954F925F92B0
S11358306F927F92AF92BF92CF92EF92FF920F93AB
S11358401F93CF93DF935C01F62ED42F28013901E7
S1135850EE2011F1CEDFCE2DC43008F0C3E0C150EC
S1135860C0F028E0C29FC0011124A301920104C02A
S113587056954795379527958A95D2F7CA01B90168
S1135880D501ED91FC910190F081E02DC5010995C0
S1135890E6CF60E0C501B8DF4D2FD13208F040E219
S11358A02C2D64ED7AE08F2DB7DC1092D30A80930F
S11358B0D20ADF91CF911F910F91FF90EF90CF907B
S11358C0BF90AF907F906F905F904F900895CF926C
S11358D0EF920F931F93C22EE12C00E010E0980189
S11358E0A5DF1F910F91EF90CF90089521E0EFCFA6
S11358F021E0EDCF61E088CF8EE99AE057CFA8D0C0
S113590008F481E008950CD0DEC0D6D040F0CDD0AC
S113591030F021F45F3F19F0BFC0511108C1C2C07B
S1135920E3D098F39923C9F35523B1F3951B550B91
S1135930BB27AA2762177307840738F09F5F5F4F5E
S1135940220F331F441FAA1FA9F333D00E2E3AF09F
S1135950E0E830D091505040E695001CCAF729D0B9
S1135960FE2F27D0660F771F881FBB1F2617370708
S11359704807AB07B0E809F0BB0B802DBF01FF2738
S113598093585F4F2AF09E3F510568F085C0CFC001
S11359905F3FECF3983EDCF3869577956795B79572
S11359A0F7959F5FC9F7880F911D9695879597F98D
S11359B00895E1E0660F771F881FBB1F6217730706
S11359C08407BA0720F0621B730B840BBA0BEE1F1B
S11359D088F7E0950895E89409C097FB3EF4909504
S11359E08095709561957F4F8F4F9F4F9923A9F0B4
S11359F0F92F96E9BB279395F69587957795679543
S1135A00B795F111F8CFFAF4BB0F11F460FF1BC086
S1135A106F5F7F4F8F4F9F4F16C0882311F096E919
S1135A2011C0772321F09EE8872F762F05C06623C7
S1135A3071F096E8862F70E060E02AF09A95660F80
S1135A40771F881FDAF7880F9695879597F9089539
S1135A50990F0008550FAA0BE0E8FEEF161617067B
S1135A60E807F907C0F012161306E407F50798F0E3
S1135A70621B730B840B950B39F40A2661F0232BFC
S1135A80242B252B21F408950A2609F4A140A69578
S1135A908FEF811D811D089597F99F6780E870E05D
S1135AA060E008959FEF80EC089500240A94161690
S1135AB0170618060906089500240A9412161306F8
S1135AC0140605060895092E0394000C11F4882386
S1135AD052F0BB0F40F4BF2B11F460FF04C06F5FA2
S1135AE07F4F8F4F9F4F089557FD9058440F551F78
S1135AF059F05F3F71F04795880F97FB991F61F04C
S1135B009F3F79F087950895121613061406551FC2
S1135B10F2CF4695F1DF08C0161617061806991F2E
S1135B20F1CF86957105610508940895E894BB2723
S1135B3066277727CB0197F908950E949B371F9218
S1135B400F920FB60F9211242F938F939F93EF937D
S1135B50FF93E091040BF091050B8081E0910A0B17
S1135B60F0910B0B82FD12C0908180910D0B8F5F21
S1135B708F7320910E0B821751F0E0910D0BF0E022
S1135B80EC50F54F958F80930D0B01C08081FF91F0
S1135B90EF919F918F912F910F900FBE0F901F90B7
S1135BA018951F920F920FB60F9211242F933F93C3
S1135BB04F935F936F937F938F939F93AF93BF9311
S1135BC0EF93FF9384EF9AE0A2D6FF91EF91BF91F8
S1135BD0AF919F918F917F916F915F914F913F9181
S1135BE02F910F900FBE0F901F90189584EF9AE09D
S1135BF044D621E0892B09F420E0822F0895E4EFB4
S1135C00FAE01382128288EE93E0A0E0B0E084838D
S1135C109583A683B78385EF97E09183808385EC92
S1135C2090E09587848784EC90E09787868780EC62
S1135C3090E0918B808B81EC90E0938B828B82EC53
S1135C4090E0958B848B86EC90E0978B868B118EFD
S1135C50128E138E148E08958F929F92AF92BF92DC
S1135C60CF92DF92EF92FF920F931F93CF93DF9324
S1135C707C018B014C0182E0880E911C5701E5E008
S1135C80AE0EB11CC0E0D0E0F40161914F014AE0D6
S1135C9050E0C80157D16C016EE2C801C6D08C0D2A
S1135CA09D1DC80FD91F8A149B0471F74AE050E068
S1135CB0F7016581C80146D18C0F9D1FDF91CF91FB
S1135CC01F910F91FF90EF90DF90CF90BF90AF9016
S1135CD09F908F90089523EE37E0FC013183208359
S1135CE0128213821482158208950F93FC0183EEAD
