S015000074656D706C61746556756F746F2E7372656396
S11300005EC1000086C1000084C1000082C10000FE
S11300100C945C0E7EC100007CC100000C94800E28
S113002078C1000076C1000074C1000072C10000F4
S113003070C100006EC100006CC100006AC1000004
S11300400C94632E66C100000C94562C0C94882CDE
S113005060C100005EC100005CC100005AC1000024
S113006058C1000056C100000C94A32852C10000DE
S113007050C100004EC100004CC100004AC1000044
S113008048C1000046C1000044C10000710996093E
S1130090AB09D4099E0AD20A7B0BC50BFD0B690C74
S11300A0240D240D3A17511751174E1751173817AD
S11300B05117511751172C175117511741174C1736
S11300C04A17511751175117481700407A10F35A1D
S11300D000A0724E18090010A5D4E80000E8764884
S11300E0170000E40B54020000CA9A3B000000E130
S11300F0F505000080969800000040420F000000C3
S1130100A08601000000102700000000E8030000A2
S113011000006400000000000A000000000001006C
S1130120000000002C76D888DC674F0823DFC1DF8D
S1130130AE59E1B1B796E5E3E453C63AE651997690
S113014096E8E6C28426EB898C9B62ED407C6FFCCA
S1130150EFBC9C9F40F2BAA56FA5F490055A2AF70C
S11301605C936B6CF9676DC11BFCE0E40D47FEF515
S113017020E6B500D0ED902E03009435770500807D
S1130180841E080000204E0A000000C80C333333DC
S1130190330F986E12831141EF8D2114893BE6557C
S11301A016CFFEE6DB18D1844B381BF77C1D901D5F
S11301B0A4BBE424203284725E228100C9F124ECC1
S11301C0A1E53D274453333233314D20696E6974C0
S11301D069616C697A65642E00556E61626C652094
S11301E0746F2066696E64204453333233314D4D4D
S11301F02E20436865636B696E6720616761696E71
S113020020696E2033732E0053657020203920320C
S11302103032300031313A33333A3539001F1C1F44
S11302201E1F1E1F1F1E1F1E1F00000000040308A8
S11302300700000200090A0000000000000000009E
S1130240000000000000000001010204081020402A
S113025080010210204080102040801008200440BB
S113026080010204080102040804040404040404D0
S11302700402020202020201010101030303030357
S11302800301010101030302020000000023002610
S113029000290000000000250028002B00000000B9
S11302A000240027002A0000330FC019181A101D5B
S11302B0F71E021FD420A424332BB62C16101124AD
S11302C01FBECFEFD0E4DEBFCDBF18E0A0E0B1E0A9
S11302D0EEE6F2E700E00BBF02C007900D92A831F2
S11302E0B107D9F72BE0A8E1B8E001C01D92A23311
S11302F0B207E1F711E0CEE5D1E004C02197FE0199
S11303000E94F433C435D107C9F70E94422D0C94DE
S11303102B3976CE80E090E00895089544980895AE
S1130320449A0895EF92FF920F931F93CF93DF9314
S1130330CDB7DEB768970FB6F894DEBF0FBECDBF5A
S113034087EF97E09A83898340916108509162080E
S113035060916308709164084B835C836D837E8332
S113036098878F8340916708509168086091690865
S113037070916A0849875A876B877C879E878D8727
S113038040916D0850916E0860916F0870917008EB
S11303904F87588B698B7A8B9C8B8B8B80917308DE
S11303A090917408A0917508B09176088D8B9E8BFE
S11303B0AF8BB88FCE0101967C018E01095F1F4F70
S11303C09E01235F3F4FAE014D5E5F4F66E271E0D9
S11303D085E899E00E94CA1C68960FB6F894DEBFBF
S11303E00FBECDBFDF91CF911F910F91FF90EF9082
S11303F008951816190644F4EFE9FFE03197F1F770
S113040000C000000197F5CF0895CF9388E89AE0E3
S11304100E94C72DCDE761E871E088E89AE00E9468
S1130420BF2DC150C1F788E89AE0CF910C94C72D35
S1130430CF92DF92EF92FF920F931F93CF93DF93AC
S11304406A017B01C0E0D0E0082F10E0C017D1079B
S113045024F4C601CEDF2196F9CFDF91CF911F910D
S11304600F91FF90EF90DF90CF900895823209F4BE
S113047097C0B0F5893009F46FC098F4853009F459
S113048064C0863009F47AC08111C6C02FEF89EFA9
S113049090E0215080409040E1F700C000008EE4DD
S11304A00895813109F461C060F48A3009F0B4C060
S11304B060910B0188E89AE00E94C02D21E030E0B1
S11304C077C0823109F463C0813209F0A5C060911C
S11304D0090188E89AE00E94C02D23E030E09EC024
S11304E0803609F48EC090F4883409F478C08035DD
S11304F009F47EC0843409F08FC06091120188E849
S11305009AE00E94C02D20E030E083C0883809F4CE
S113051052C060F4843809F07FC060910E0188E80D
S11305209AE00E94C02D20E030E056C0803909F4E2
S11305304BC0803A09F070C06091110188E89AE0DC
S11305400E94C02D23E030E047C06091060188E896
S11305509AE00E94C02D60C06091070188E89AE08B
S11305600E94C02D21E030E059C06091080188E864
S11305709AE00E94C02D22E030E050C060910A0150
S113058088E89AE00E94C02D20E030E011C060911C
S11305900C0188E89AE00E94C02D22E030E008C0F7
S11305A060910D0188E89AE00E94C02D23E030E0BC
S11305B081E090E035C060910F0188E89AE00E94E4
S11305C0C02D21E030E008C06091100188E89AE075
S11305D00E94C02D22E030E082E090E021C06091D2
S11305E0130188E89AE00E94C02D21E030E011C098
S11305F06091140188E89AE00E94C02D22E030E066
S113060008C06091150188E89AE00E94C02D23E09B
S113061030E083E090E004C020E030E080E090E04F
S1130620880F991F880F991F8A5F9E4FFC01E20F64
S1130630F31F80810895CF92DF92EF92FF920F9380
S11306401F93CF93DF93CDB7DEB72C970FB6F894F3
S1130650DEBF0FBECDBF8C016B017A0180E099E053
S11306600E942F2583E0C816D1040CF447C04091A2
S113067031085091320860913308709134088091A8
S11306802D0890912E08A0912F08B0913008480FA2
S1130690591F6A1F7B1F41505109610971098091DB
S11306A0350890913608A0913708B0913808481B56
S11306B0590B6A0B7B0B2AE0CE0107960E943F314F
S11306C063E971E0CE0101960E948030BE01695F4A
S11306D07F4FCE0101960E94EA316BE971E00E94DE
S11306E0FB31BC0180E099E00E94B12DCE0101965E
S11306F00E941930CE0107960E94193061E080E013
S113070099E00E94C02D41E060E080E099E00E9401
S11307103525B8016A5F7F4F80E099E00E94B12DD2
S113072042E060E080E099E00E943525B801645F12
S11307307F4F80E099E00E94B12D43E060E080E0CB
S113074099E00E943525B8016E5E7F4F80E099E004
S11307500E94B12DC7014DDE2C960FB6F894DEBF72
S11307600FBECDBFDF91CF911F910F91FF90EF90FE
S1130770DF90CF90089560932D0870932E08809396
S11307802F089093300887E298E00E94C217609384
S11307903108709332088093330890933408809121
S11307A0D9089091DA0801969093DA088093D908D1
S11307B00895AF92BF92CF92DF92EF92FF920F9380
S11307C01F93CF93DF93CDB7DEB7A2970FB6F894FC
S11307D0DEBF0FBECDBF5C01F62E64E871E0CE0132
S11307E04D960E94803008EC10E020E239E049E1A7
S11307F059E060E089EE98E00E9435158093210964
S1130800882309F49DC04EE150E060E070E082E08E
S11308100FDE80912009843009F08CC086E0E3E784
S1130820F1E0DE01579601900D928A95E1F7CE0131
S113083047966C01E12C04E010E020E030E044E055
S113084069E179E089EE98E00E9489158093210995
S1130850882309F45FC0FF2099F080E1E6E5F7E022
S1130860DE01119601900D928A95E1F7AE014F5F7A
S11308705F4F64E089EE98E00E941C168093210982
S1130880AE014F5F5F4F64E089EE98E00E94E91586
S113089080932109882389F161EA71E088E89AE06C
S11308A00E94EA2DBE016F5F7F4FCE0141960E94E8
S11308B08030BE016F5E7F4F88E89AE00E94DA2D97
S11308C08D899E89069759F4BE016F5E7F4FC501DD
S11308D00E94CF30CE0141960E94193037C09FEF5D
S11308E021EE84E0915020408040E1F700C00000F8
S11308F0CE0141960E9419301DC080E099E00E940B
S11309002F2541E060E080E099E00E9435256FEA00
S113091071E00CC080E099E00E942F2541E060E086
S113092080E099E00E94352569EB71E080E099E070
S11309300E94BF2D64E871E088E89AE00E94EA2DE5
S1130940BE01635E7F4FC5010E94CF30CE014D963C
S11309500E941930C501A2960FB6F894DEBF0FBEEF
S1130960CDBFDF91CF911F910F91FF90EF90DF905A
S1130970CF90BF90AF900895CF92DF92EF92FF9205
S11309800F931F93CF93DF93CDB7DEB764970FB662
S1130990F894DEBF0FBECDBF7C01CE0101966C0181
S11309A087E0F60111928A95E9F761EC71E0C701DD
S11309B00E94803000E010E09E012C5E3F4FA601B3
S11309C060E089EE98E00E943515882359F10C897E
S11309D010E020E030E0A60169EE78E0CE010E964A
S11309E00E943413CE010E960E947F3228E030E03C
S11309F040E050E0BE01625F7F4FCE0108960E9446
S1130A003C32BE01685F7F4FC7010E94F430CE01C3
S1130A1008960E94193081E080931809CE010E9641
S1130A200E941930C70164960FB6F894DEBF0FBE5A
S1130A30CDBFDF91CF911F910F91FF90EF90DF9089
S1130A40CF900895EF92FF920F931F93CF93DF936C
S1130A50CDB7DEB72C970FB6F894DEBF0FBECDBF6F
S1130A608C017B0168EC71E0CE0107960E94803016
S1130A7020915B0130915C01F701848195812817F5
S1130A80390799F4A90143505109B701CE010196E0
S1130A900E943C32BE016F5F7F4FC8010E94CF307D
S1130AA0CE0101960E94193006C0BE01695F7F4FD6
S1130AB0C8010E94CF30CE0107960E941930C801A8
S1130AC02C960FB6F894DEBF0FBECDBFDF91CF9149
S1130AD01F910F91FF90EF900895EF92FF920F9363
S1130AE01F93CF93DF93CDB7DEB72C970FB6F8944F
S1130AF0DEBF0FBECDBF8A017901AC01C8010E94DF
S1130B00581D892B09F477C060ED71E0CE01019680
S1130B100E948030B701CE0101960E94EA3161E063
S1130B2072E00E94FB31BC018DED98E00E94D73049
S1130B30CE0101960E9419306EE072E08DED98E0CE
S1130B400E94CA316BEF73E08DED98E00E94CA31C8
S1130B506AE272E08DED98E00E94CA316BEF73E0B7
S1130B608DED98E00E94CA3163E472E08DED98E067
S1130B700E94CA316BEF73E08DED98E00E94CA3198
S1130B8062E672E08DED98E00E94CA316BEF73E08B
S1130B908DED98E00E94CA3162E872E08DED98E034
S1130BA00E94CA316BEF73E08DED98E00E94CA3168
S1130BB06CE273E08DED98E00E94CA316BEF73E054
S1130BC08DED98E00E94CA316DED78E0C8010E9475
S1130BD0B12D2FEF87EE93E0215080409040E1F754
S1130BE000C000006BE473E0C8010E94EA2DC80154
S1130BF00E94C72D25C080E099E00E942F2541E086
S1130C0060E080E099E00E9435256DE573E080E0C6
S1130C1099E00E94BF2D43E060E080E099E00E94EB
S1130C20352562E773E080E099E00E94BF2D2FEF45
S1130C3083ED90E3215080409040E1F700C0000034
S1130C402FEF81EE94E0215080409040E1F700C006
S1130C500000F12CC8010E94CF1D892B09F454C057
S1130C60C8010E94D91DE82E61ED78E0CE010196FD
S1130C700E94EC306E2DCE0101960E941232BC010E
S1130C8081ED98E00E94D730CE0101960E94193080
S1130C9020915B0130915C018091D5089091D60838
S1130CA028173907B9F661ED78E0CE0101960E9464
S1130CB0EC30BE016F5F7F4FCE010796C3DECE01DD
S1130CC001960E9419302FEF87EE93E02150804067
S1130CD09040E1F700C0000061E873E0CE010796A0
S1130CE00E941E32882311F0FF24F3942FEF87EE25
S1130CF093E0215080409040E1F700C00000CE0115
S1130D0007960E941930A6CF8F2D2C960FB6F89413
S1130D10DEBF0FBECDBFDF91CF911F910F91FF902A
S1130D20EF900895EF92FF920F931F93CF93DF9369
S1130D30CDB7DEB72C970FB6F894DEBF0FBECDBF8C
S1130D408A017901AC01C8010E94581D892B09F45C
S1130D5089C065E873E08DED98E00E94FF3066EA93
S1130D6073E08DED98E00E94CA316BEF73E08DED76
S1130D7098E00E94CA3162E872E08DED98E00E942A
S1130D80CA316BEF73E08DED98E00E94CA316CE2DA
S1130D9073E08DED98E00E94CA316BEF73E08DED46
S1130DA098E00E94CA3168EC73E08DED98E00E94EF
S1130DB0CA316BEF73E08DED98E00E94CA3164EDA7
S1130DC073E08DED98E00E94CA316BEF73E08DED16
S1130DD098E00E94CA316BEF73E08DED98E00E94B9
S1130DE0CA3167EE73E08DED98E00E94CA316BEE74
S1130DF073E0CE0101960E948030B701CE010196C6
S1130E000E94EA316AEF73E00E94FB31BC018DED70
S1130E1098E00E94C431CE0101960E9419306EEF11
S1130E2073E08DED98E00E94CA316DED78E088E8BA
S1130E309AE00E94DA2D6DED78E0C8010E94B12D90
S1130E402FEF87EE93E0215080409040E1F700C0FF
S1130E5000006BE473E0C8010E94EA2DC8010E94FF
S1130E60C72D25C080E099E00E942F2541E060E075
S1130E7080E099E00E9435256DE573E080E099E01B
S1130E800E94BF2D43E060E080E099E00E94352598
S1130E9062E773E080E099E00E94BF2D2FEF83EDBD
S1130EA090E3215080409040E1F700C000002FEF14
S1130EB081EE94E0215080409040E1F700C00000B2
S1130EC0F12CC8010E94CF1D892B09F454C0C8011C
S1130ED00E94D91DE82E61ED78E0CE0101960E94B2
S1130EE0EC306E2DCE0101960E941232BC0181EDD0
S1130EF098E00E94D730CE0101960E9419302091CB
S1130F005B0130915C018091D5089091D608281737
S1130F103907B9F661ED78E0CE0101960E94EC3014
S1130F20BE016F5F7F4FCE0107968CDDCE01019627
S1130F300E9419302FEF87EE93E0215080409040BB
S1130F40E1F700C0000061E873E0CE0107960E945B
S1130F501E32882311F0FF24F3942FEF87EE93E0E1
S1130F60215080409040E1F700C00000CE01079678
S1130F700E941930A6CF2FEF80E792E021508040E5
S1130F809040E1F700C000008F2D2C960FB6F89426
S1130F90DEBF0FBECDBFDF91CF911F910F91FF90A8
S1130FA0EF9008955798569888E08093680080ECF5
S1130FB0809373007894089509980A98089591E0AD
S1130FC090936800843419F40D9880E202C00E985E
S1130FD080E480936B0078940895CF92DF92EF922F
S1130FE0FF92BC01990F880B990B0E94A42B6B01F3
S1130FF07C0120E030E0A9010E94362B87FF03C06A
S1131000C12CD12C76016091590170915A01072E9F
S1131010000C880B990B0E94A42B9B01AC01C70107
S1131020B6010E943A2BFF90EF90DF90CF90089585
S11310303F9A8130910571F082309105E1F0892B5E
S113104089F547982FEF30E742E021503040404087
S1131050E1F70EC028B101C0880F6A95EAF7822B28
S113106088B98FEF90E722E0815090402040E1F76B
S113107000C00000089528B181E090E001C0880F0D
S11310806A95EAF7982F9095922398B93FEF45EA2D
S11310902EE0315040402040E1F700C0000098B1FC
S11310A0892B88B908950F9A81309105B9F082305F
S11310B0910529F1892BD1F522B181E090E001C09D
S11310C0880F6A95EAF78095822382B92FEF30E77B
S11310D042E0215030404040E1F70EC022B101C04F
S11310E0880F6A95EAF7822B82B98FEF90E722E0A6
S11310F0815090402040E1F700C00000089522B1E3
S113110081E090E001C0880F6A95EAF7982F9095E6
S1131110922392B93FEF45EA2EE0315040402040FF
S1131120E1F700C0000092B1892B82B90895239A97
S11311302FEF36E741E0215030404040E1F700C056
S113114000008130910511F42B9A0895892B09F43C
S11311502B98089564E871E081ED98E00E94FF30D7
S11311601092D8081092D7081092180969E774E011
S113117087EA98E00E94FF3064E871E08BE998E028
S11311800E94FF3064E871E081EA98E00E94FF3039
S113119067E070E081E090E04BDF67E070E081E0C1
S11311A090E081DF80E090E0C2DF8FE19EE4019770
S11311B0F1F700C0000085E498E00E94171E85E462
S11311C098E00E945C1E8FE19EE40197F1F700C055
S11311D0000082E598E00E94171E82E598E00E94D4
S11311E05C1E1092DC081092DB088FE19EE40197EC
S11311F0F1F700C000002C988FE19EE40197F1F70D
S113120000C000002C9A8FE19EE40197F1F700C022
S1131210000086D88FE19EE40197F1F700C000003A
S11312207DD882B182B982B182B964E871E08DE778
S113123098E00E94FF3064E871E083E898E00E943F
S1131240FF3064E871E083E898E00E94FF3080E0BA
S113125099E00E941F2580E099E00E947725109272
S113126035081092360810923708109238081092F8
S11312703108109232081092330810923408C5D8FD
S11312806BE774E088E89AE00E94EA2DBED864E82F
S113129071E08BE198E00E94FF308EEF9FEF909316
S11312A0DA088093D9080895CF92DF92EF92FF92E3
S11312B00F931F93CF93DF93CDB7DEB769970FB624
S11312C0F894DEBF0FBECDBFE091D908F091DA08E3
S11312D03296EC30F10508F0B8C3EA5BFF4F0C948A
S11312E0F43364E871E08DE798E00E94FF306CE825
S11312F074E083E898E00E94FF3064E871E089E8D4
S113130098E00E94FF306091D9087091DA0844E6B1
S113131050E087E798E08FD92FEF83EC99E02150D4
S113132080409040E1F700C000000BC03BDE2FEF8F
S113133089EF90E0215080409040E1F700C0000028
S11313403BDE8091D9089091DA0801969093DA08EF
S11313508093D9087AC364E871E08DE798E00E942D
S1131360FF3064E871E083E898E00E94FF3064E8AD
S113137071E089E898E00E94FF306091D90870918B
S1131380DA0844E650E087E798E055D92FEF87EA7A
S113139091E6215080409040E1F700C00000109297
S11313A018090E948E01CDCF68E974E08DE798E0BA
S11313B00E94FF3064E871E083E898E00E94FF3007
S11313C06CEA74E089E898E00E94FF306091D908E3
S11313D07091DA0844E650E087E798E02CD98091D0
S11313E0D9089091DA0801969093DA088093D90885
S11313F061EC71E0CE0144960E948030809118091E
S1131400811114C0CE010196B7DABE016F5F7F4F20
S1131410CE0144960E94F430CE0101960E94193008
S113142044E650E060E070E082E002D861EC71E0F4
S1131430CE0144960E941E32811102C0449B43C3D4
S1131440BE016C5E7F4FCE010E960E94EC308091FF
S11314504708909148089C838B8380914908909118
S11314604A08A0914B08B0914C088D839E83AF83AA
S1131470B88780914D0890914E08A0914F08B09183
S1131480500889879A87AB87BC8783E797E09A835C
S11314908983809151088D879E01225F3F4FAE0161
S11314A04F5F5F4F63E471E080E590E016DB182F37
S11314B0CE010E960E941930112349F0449A40E956
S11314C051E060E070E081E00E9418022BC048EC1B
S11314D050E060E070E083E00E9418026FEB74E07B
S11314E08DE798E00E94FF3064E871E083E898E0BB
S11314F00E94FF3062ED74E089E898E00E94FF30BA
S11315006091D9087091DA0844E650E087E798E0E2
S113151092D82FEF83ED90E3215080409040E1F783
S113152000C0000060912201709123018091240188
S11315309091250120D9CE014496DAC00E949001F1
S11315408FE39FE10197F1F700C000000E948E0134
S113155064E871E08BE198E00E94FF3065EE74E08E
S11315608DE798E00E94FF3064E871E083E898E03A
S11315700E94FF3069EF74E089E898E00E94FF3030
S11315806091D9087091DA084AE050E087E798E062
S113159052D860912201709123018091240190918D
S11315A02501DEC088E198E0F0D70E9436028E342F
S11315B029F0682F8BE198E00E94D83180E099E00F
S11315C00E942F2541E060E080E099E00E943525EB
S11315D060E075E0CE0101960E9480306BE178E016
S11315E0CE0101960E94EA31BC0180E099E00E949C
S11315F0B12DCE0101960E94193060E0CE010E9605
S1131600D8D8BE01625F7F4F88E89AE00E94DA2D45
S11316102A893B8945E050E0BE01625F7F4FCE01DD
S113162001960E943C32BE016F5F7F4F82E299E0D7
S11316300E94F430CE0101960E94193025E030E07A
S113164040E050E0BE01625F7F4FCE0101960E94F0
S11316503C32BE016F5F7F4F88E299E00E94F43014
S1131660CE0101960E94193010922E0968E075E0AF
S1131670CE0101960E94803062E279E0CE010196AB
S11316800E94EA31BC0188E89AE00E94DA2DCE017A
S113169001960E94193060E075E0CE0101960E9427
S11316A0803068E279E0CE0101960E94EA31BC0103
S11316B088E89AE00E94DA2DCE0101960E94193042
S11316C062E279E087EA98E00E94D7306AE175E047
S11316D082E299E00E941E32811170C26CE175E0D1
S11316E082E299E00E941E32811168C2CE010E96F8
S11316F00E941930AAC16EE175E08DE798E00E945E
S1131700FF3064E871E083E898E00E94FF3069E309
S113171075E089E898E00E94FF306091D9087091E3
S1131720DA0844E650E087E798E00E941B036AE188
S113173075E082E299E00E941E32882399F082E4E7
S11317403EDC67E070E080E090E0ADDC6AE475E0E8
S113175083EE98E00E94FF306AE070E080E090E061
S11317600AD873C16CE175E082E299E00E941E32EE
S1131770882309F46AC184E422DC67E070E080E035
S113178090E056DC62E575E0E3CF1092D808109241
S1131790D7086AE575E08DE798E00E94FF3064E8B9
S11317A071E083E898E00E94FF3061E775E0CE01C4
S11317B001960E94803063EE78E0CE0101960E948B
S11317C0EA316BEC74E00E94FB31BC0189E898E0DB
S11317D00E94D730CE0101960E9419306091D90839
S11317E07091DA0844E650E087E798E00E941B0312
S11317F064E170E080E090E0B3CF0E9490018FE359
S11318009FE10197F1F700C000000E948E018091D2
S1131810D7089091D808E1DB6B017C0122E0AB0191
S1131820BC01CE010E960E946A3168E775E0CE01D4
S113183001960E948030BE01625F7F4FCE01019607
S11318400E94EA31BC018DE798E00E94D730CE01B6
S113185001960E941930CE010E960E94193064E858
S113186071E083E898E00E94FF3060E875E0CE0103
S113187001960E94803063EE78E0CE0101960E94CA
S1131880EA31BC0189E898E00E94D730CE01019684
S11318900E9419306091D9087091DA0844E650E04A
S11318A087E798E00E941B03019B08C06CE175E088
S11318B087EA98E00E941E32811197C1199BC5C026
S11318C06AE175E087EA98E00E941E328111BAC18C
S11318D0BCC064E871E08DE798E00E94FF306DE8D9
S11318E075E083E898E00E94FF3064E871E089E8DD
S11318F098E00E94FF304499A8C06091D908709183
S1131900DA084AE050E087E798E00E941B0364E8A5
S113191071E08FE898E00E94FF300DEA18E085EC52
S1131920E82E88E0F82EB801CE0101960E94EC3032
S11319306BE975E0CE0101960E94FB31BC018FE892
S113194098E00E94C431CE0101960E9419300A5FCA
S11319501F4FE016F10639F79FEF23ED80E3915016
S113196020408040E1F700C000006FE878E0CE013D
S11319700E960E94EC3080915408909155089C83F7
S11319808B838091560890915708A0915808B09184
S113199059088D839E83AF83B88780915A089091AC
S11319A05B08A0915C08B0915D0889879A87AB8732
S11319B0BC8783E797E09A83898380915E088D874B
S11319C09E01225F3F4FAE014F5F5F4F6CE271E0BB
S11319D089E893E1A7D9182FCE010E960E941930F9
S11319E0112339F10E94900164E871E08DE798E0D9
S11319F00E94FF306DE975E083E898E00E94FF30B3
S1131A0064E871E089E898E00E94FF306091D908A9
S1131A107091DA0844E650E087E798E00E941B03DF
S1131A209FEF29EF80E0915020408040E1F700C013
S1131A3000000E949001609116017091170180913D
S1131A401801909119018CCE85DB69E378E0CE0111
S1131A5001960E94711886E0FE013196A7E2B8E073
S1131A6001900D928A95E1F787E298E00E94C217EF
S1131A70609335087093360880933708909338083C
S1131A8000913108109132082091330830913408C4
S1131A90C0902D08D0902E08E0902F08F0903008C8
S1131AA00C0D1D1D2E1D3F1D68017901C61AD70A94
S1131AB0E80AF90AD701C6010297A105B10508F0A1
S1131AC0ECC048DBEAC064E871E088E89AE00E9470
S1131AD0EA2D6CEA75E088E89AE00E94BF2D6CEE6E
S1131AE075E0CE0101960E948030BE016C5E7F4F8E
S1131AF0CE0101960E94EA31BC0188E89AE00E9476
S1131B00DA2DCE0101960E9419306CEA75E088E85E
S1131B109AE00E94BF2D6BEF75E088E89AE00E947E
S1131B20EA2DBE016C5E7F4F8DEA98E00E94D730AB
S1131B3080E099E00E94172580E099E00E947D25CD
S1131B408FE39CE90197F1F700C0000060E276E0C2
S1131B508DE798E00E94FF3064E376E083E898E044
S1131B600E94FF3063E476E0CE0101960E9480304B
S1131B70BE016C5E7F4FCE0101960E94EA31BC012A
S1131B8089E898E00E94D730CE0101960E9419306E
S1131B906091D9087091DA0844E650E087E798E04C
S1131BA00E941B030E9492019FEF23ED80E391505A
S1131BB020408040E1F700C0000042CC68E279E0B8
S1131BC083EB98E00E94D73062E279E089EB98E0F9
S1131BD00E94D73060911E0170911F0180912001F5
S1131BE0909121010E94BB0381CD22E0B701A6019F
S1131BF0CE0101960E946A31BE016F5F7F4F8FEB69
S1131C0098E00E94F430CE0101960E9419306DE4F0
S1131C1076E083EE98E00E94FF3067E070E081E0B8
S1131C2090E041DA67E070E081E090E001DA92B19F
S1131C3082E0892782B96AE070E080E090E00E9447
S1131C40BB033CCE22E0B701A601CE0101960E945F
S1131C506A31BE016F5F7F4F8FEB98E00E94F430D2
S1131C60CE0101960E9419306DE476E083EE98E08F
S1131C700E94FF3067E070E081E090E014DA67E0F2
S1131C8070E081E090E0D4D960911A0170911B0159
S1131C9080911C0190911D0163CD69960FB6F89453
S1131CA0DEBF0FBECDBFDF91CF911F910F91FF908B
S1131CB0EF90DF90CF9008951F920F920FB60F927E
S1131CC011248F939F93059B09C08091D70890910D
S1131CD0D80801969093D8088093D708069B09C02A
S1131CE08091D7089091D80801969093D808809352
S1131CF0D7089F918F910F900FBE0F901F9018954A
S1131D001F920F920FB60F9211240BB60F922F93BE
S1131D103F934F935F936F937F938F939F93AF936F
S1131D20BF93EF93FF938091D9089091DA080497B9
S1131D3009F086C04E9B2AC08091310990913209E6
S1131D4001969093320980933109809131099091E1
S1131D503209181619068CF582E431D967E070E06F
S1131D6080E090E0A0D96AE175E087EA98E00E94FB
S1131D70FF306AE475E083EE98E00E94FF306AE089
S1131D8070E080E090E00E94BB030FC080912F09B7
S1131D909091300901969093300980932F09809196
S1131DA02F0990913009029744F010923209109251
S1131DB031091092300910922F094F9B2AC080914B
S1131DC03109909132090196909332098093310937
S1131DD08091310990913209181619068CF584E422
S1131DE0EED867E070E080E090E022D96CE175E025
S1131DF087EA98E00E94FF3062E575E083EE98E0A0
S1131E000E94FF306AE070E080E090E00E94BB0333
S1131E100FC080912F099091300901969093300959
S1131E2080932F0980912F0990913009029744F0F3
S1131E3010923209109231091092300910922F0930
S1131E40FF91EF91BF91AF919F918F917F916F918E
S1131E505F914F913F912F910F900BBE0F900FBE4A
S1131E600F901F9018958F92AF92CF92EF920F938D
S1131E7000E020E040E060E083E399E00E942C2D44
S1131E8064E871E082E299E00E94803064E871E0E5
S1131E9088E299E00E9480301F9283E08F9387E06C
S1131EA0882E96E0A92E25E0C22E34E0E32E21E010
S1131EB042E067E280E099E00E94B42643E064E0F7
S1131EC089EE98E09FD36DE576E083EE98E00E947A
S1131ED0803064E871E08DED98E00E94803064E821
S1131EE071E081ED98E00E94803064E871E08DEA51
S1131EF098E00E94803064E871E083EB98E00E94EF
S1131F00803064E871E089EB98E00E94803064E8F6
S1131F1071E08FEB98E00E94803064E871E085EC1A
S1131F2098E00E94803064E871E08BEC98E00E94B5
S1131F30803069E774E087EA98E00E94803069E7BE
S1131F4074E08BE998E00E94803069E774E081EAEC
S1131F5098E00E94803064E871E085E998E00E948E
S1131F60803064E871E08FE898E00E94803069E78F
S1131F7074E087E798E00E94803069E774E08DE7B9
S1131F8098E00E94803069E774E083E898E00E945A
S1131F90803069E774E089E898E00E94803002E3C9
S1131FA020E048EA60EC81E798E00E942C2D05E1EE
S1131FB021E048EA60EC8BE698E00E942C2D01E0D9
S1131FC020E048EA60EC85E698E00E942C2D00E0D1
S1131FD020E04FEF6FEF8FE598E00E942C2D82E513
S1131FE098E00E941A1E85E498E00E941A1E89E374
S1131FF098E0FDD740E050E0BA0187E298E08BD644
S113200064E871E081E298E00E94803064E871E065
S11320108BE198E00E9480300F900F9088E198E067
S11320200F91EF90CF90AF908F900FC2CF93DF932B
S11320308BE198E00E94193081E298E00E94193007
S113204089E398E0DBD789E898E00E94193083E8B7
S113205098E00E9419308DE798E00E94193087E7D4
S113206098E00E9419308FE898E00E94193085E9C1
S113207098E00E94193081EA98E00E9419308BE9B7
S113208098E00E94193087EA98E00E941930C1ED67
S1132090D8E02697CE010E94193088E0CD3AD807BF
S11320A0C1F781ED98E00E9419308DED98E00E940F
S11320B0193083EE98E00E94193088E299E00E947A
S11320C0193082E299E0DF91CF910C941930CF92CC
S11320D0DF92EF92FF920F931F93CF93DF9300D081
S11320E000D000D0CDB7DEB73C9A8FE19EE40197D3
S11320F0F1F700C000000E94900166E676E088E8EF
S11321009AE00E94EA2D3E9A3F9A0F9A8FE39CE947
S11321100197F1F700C00000479A8FE39CE901970B
S1132120F1F700C00000179A0E94050220E044E085
S113213064E180E099E00E943A2780E099E00E94FF
S113214017259FEF24E38CE0915020408040E1F775
S113215000C0000080E099E00E941F259FEF24E367
S11321608CE0915020408040E1F700C0000080E006
S113217099E00E9417259FEF24E38CE091502040C2
S11321808040E1F700C0000080E099E00E941F2534
S11321909FEF24E38CE0915020408040E1F700C0A1
S11321A000004DE551E061E080E099E00E94FD25EA
S11321B09FEF29EF80E0915020408040E1F700C07C
S11321C0000080E099E00E94172507E718E064E822
S11321D071E0C8010E94FF300A5F1F4F98E00F387A
S11321E01907A9F70E94050289EE98E01CD22FEF87
S11321F080E792E0215080409040E1F700C0000069
S113220089EE98E0ACD36B017C01672B682B692BBA
S113221069F56BE776E088E89AE00E94BF2D80E0DC
S113222099E00E9417252FEF84E39CE02150804021
S11322309040E1F700C0000080E099E00E942F2563
S113224064E976E080E099E00E94BF2D2FEF87EAF1
S113225091E6215080409040E1F700C000006EEA12
S113226076E083EE98E00E94FF3006C061EC76E0F1
S113227088E89AE00E94EA2D66ED76E088E89AE024
S11322800E94BF2D4F2D55276627772720E130E088
S113229088E89AE00E94532E65EE76E088E89AE09A
S11322A00E94BF2D4E2D50E060E070E02AE030E047
S11322B088E89AE00E94412E6EE288E89AE00E9443
S11322C0C02D4D2D50E060E070E02AE030E088E859
S11322D09AE00E94532E6FEF89EE98E0B6D389EE10
S11322E098E085D30E94050240EA56E861E070E078
S11322F089E398E0C6D6811110C069ED71E088E8E1
S11323009AE00E94CA2D2FEF83ED90E32150804084
S11323109040E1F700C00000E7CF2FEF80E792E0A4
S1132320215080409040E1F700C0000064EC71E06F
S113233088E89AE00E94CA2D89E398E00E949F19D8
S11323400E94050264EF76E088E89AE00E94EA2D94
S113235082E39AE00E949D2A68E270E082E39AE0B8
S11323600E94BA2A60E082E39AE00E945F2A62E354
S113237082E39AE00E945F2A82E39AE00E94312B72
S11323802FEF80E792E0215080409040E1F700C0B9
S1132390000062E570E082E39AE00E94BA2A60E0FD
S11323A082E39AE00E945F2A62E382E39AE00E9459
S11323B05F2A82E39AE00E94312B82E39AE00E9432
S11323C0AC2A68E277E088E89AE00E94EA2D0E944D
S11323D0050260E288E198E03DD02CE340E063EC44
S11323E088E198E03DD08EEF9FEF9093DA088093D8
S11323F0D90869E377E083EE98E00E94FF3067E450
S113240077E0CE0101960E94803063EE78E0CE0141
S113241001960E94EA31BC0188E89AE00E94DA2D14
S1132420CE0101960E9419300E94050226960FB62D
S1132430F894DEBF0FBECDBFDF91CF911F910F91F6
S1132440FF90EF90DF90CF900895FC0110821182ED
S113245012820895FC01608382E39AE00C949D2A21
S1132460FF920F931F93CF93DF93EC01F62E042F6B
S1132470122F688182E39AE00E94B02A61E082E32D
S11324809AE00E945F2A6F2D82E39AE00E945F2AFD
S113249082E39AE00E94312B688182E39AE00E94F1
S11324A0B02A62E082E39AE00E945F2A602F82E30E
S11324B09AE00E945F2A82E39AE00E94312B8FE324
S11324C09CE90197F1F700C00000688182E39AE07B
S11324D00E94B02A63E082E39AE00E945F2A612F9F
S11324E082E39AE00E945F2A82E39AE00E94312B01
S11324F08FE39CE90197F1F700C00000DF91CF91D1
S11325001F910F91FF900895CF93C62FFC01608116
S113251082E39AE00E94B02A63E082E39AE00E9498
S11325205F2A6C2F82E39AE00E945F2A82E39AE09A
S1132530CF910C94312BCF93DF93EC01688182E32C
S11325409AE00E94B02A60E082E39AE00E945F2A47
S113255082E39AE00E94312B688170E041E050E010
S113256082E39AE00E942F2BC0E082E39AE00E946B
S1132570D129892B31F082E39AE00E94D929C82F0E
S1132580F4CF8C2FDF91CF910895FF920F931F9377
S1132590CF93DF93CDB7DEB768970FB6F894DEBF5D
S11325A00FBECDBF8C016CE3AFDFC801C4DFF82ED2
S11325B042E0BE016F5E7F4F90E00E94723663EC92
S11325C0C801A2DFC801B7DF182F42E0BE01675F70
S11325D07F4F90E00E9472361F2542E0BE016F5F7C
S11325E07F4F812F90E00E947236812F68960FB63C
S11325F0F894DEBF0FBECDBFDF91CF911F910F9135
S1132600FF900895CF93DF93EC01862F6C834D8365
S11326101D8A1E8A60E00E94862F61E08D81DF9111
S1132620CF910C94862FCF93DF93EC0182E39AE051
S11326300E949D2A61E08D810E94C22F60E08D81FD
S11326400E94C22F60E971E080E090E00E94DE2EDB
S113265061E08D810E94C22F6AE070E080E090E02A
S1132660DF91CF910C94DE2E4F925F926F927F9206
S11326708F929F92AF92BF92EF92FF920F931F930C
S1132680CF93DF93CDB7DEB72C970FB6F894DEBFA8
S11326900FBECDBF7C015A012801390164E871E005
S11326A00E9480308501812C912C5401841495045E
S11326B0A604B70409F446C0F80161918F0140E112
S11326C0CE016031F0F401960E941431B701CE01BD
S11326D007960E94EC3066EC73E0CE0107960E94E8
S11326E0FB31BE016F5F7F4F0E94EA31BC01C7011D
S11326F00E94D730CE0107960E941930CE01019670
S113270019C007960E941431B701CE0101960E94A8
S1132710EC30BE01695F7F4FCE0101960E94EA3121
S1132720BC01C7010E94D730CE0101960E94193026
S1132730CE0107960E941930FFEF8F1A9F0AAF0A45
S1132740BF0AB4CF88E89AE00E94C72DC7012C962F
S11327500FB6F894DEBF0FBECDBFDF91CF911F91AE
S11327600F91FF90EF90BF90AF909F908F907F90CC
S11327706F905F904F900895FC0184810E94F02F28
S113278091E0811190E0892F0895CF92DF92EF922A
S1132790FF921F93CF93DF936C017B01C0E0D0E0E5
S11327A0C601EADF182F811115C0E114F10459F0B4
S11327B02A96EC16FD0638F466E677E088E89AE097
S11327C00E94EA2D07C06AE070E080E090E00E9479
S11327D0DE2EE6CF812FDF91CF911F91FF90EF90F6
S11327E0DF90CF900895FF920F931F93CF93DF93C1
S11327F0F62E072F142F62E070E080E090E00E9434
S1132800DE2E42E0410F64E282E39AE00E942D2B27
S113281082E39AE00E94D929CF2DD02FCE01810FD7
S1132820911D8C01C017D10761F061E070E080E078
S113283090E00E94DE2E82E39AE00E94D9298993D7
S1132840F1CFDF91CF911F910F91FF900895CF9316
S1132850DF9300D000D000D0CDB7DEB746E0BE0194
S11328606F5F7F4FC0DF46E050E06BE671E0CE0162
S113287001960E94643621E0892B09F020E0822F22
S113288026960FB6F894DEBF0FBECDBFDF91CF9171
S11328900895682F82E39AE00C945F2ACF92DF9226
S11328A0EF92FF920F931F93CF93DF937B01C1E0CD
S11328B0C40F62E070E080E090E00E94DE2E64E2EB
S11328C070E082E39AE00E94BA2A80E0E2DF80E0CE
S11328D0E0DF8FEFDEDF8C2FDCDF8C2F8195D9DFFB
S11328E084EDD7DFC12C83EDD82ED0E021970C2DB9
S11328F010E00C171D0754F40E0D1F1DF801808104
S1132900C8DFF8018081D80EC394F1CF8D2D809556
S1132910C0DF80E0BEDF82E39AE0DF91CF911F91B8
S11329200F91FF90EF90DF90CF900C94312B0F9389
S11329301F93CF93DF93EC018901B0DFB801CE017F
S113294024DF882331F0CE01DF91CF911F910F91C5
S11329507ECF80E0DF91CF911F910F910895CF93A7
S1132960DF93EC0182E08093390928EE33E041E003
S113297069E379E0CE01DBDF811104C060E070E03F
S1132980CB0132C04CE069E379E0CE012CDF46E0B4
S113299050E065E671E089E399E00E946436892B92
S11329A069F78D89811103C0E7E0F0E002C0E6E039
S11329B0F0E0E75CF64F6081862F90E0A0E0B0E0A5
S11329C0BA2FA92F982F88272181822BBA2FA92FBC
S11329D0982F88272281822BBA2FA92F982F8827F6
S11329E02381BC01CD01622BDF91CF910895CF9358
S11329F0DF93EC0194E19093390981E080933A09E3
S1132A0090933B0980933C0928EE33E044E069E36A
S1132A1079E0CE018CDF8823A9F048E069E379E00E
S1132A20CE01E1DE8D89811103C086E090E002C011
S1132A3085E090E0FC01E75CF64F81E09081953100
S1132A4009F080E0DF91CF910895E9E3F9E022E312
S1132A50208325E021832FEF228321E023836483D5
S1132A6028EE33E045E0BF0162CFAF92BF92CF9230
S1132A70DF92EF92FF920F931F93CF93DF93EC01BA
S1132A807A01590168018AE48093390981E08093CD
S1132A903A0960933B09980143E069E379E0CE0188
S1132AA046DF182F882341F18D89882379F044E18A
S1132AB069E379E0CE0197DE809140098130E1F449
S1132AC080914509F501808380E006C0B601CE01FE
S1132AD05CDE8111ECCF10C090914509891768F430
S1132AE0282F30E0F901E75CF64F9585F701E20FF6
S1132AF0F31F90838F5FF0CF10E0812FDF91CF9190
S1132B001F910F91FF90EF90DF90CF90BF90AF9007
S1132B100895AF92BF92CF92DF92EF920F931F93DB
S1132B20CF93DF93EC01142F5C018EE0A80EB11C4F
S1132B3086E0F601D50101900D928A95E1F750E007
S1132B40CE0106960E944B361D8780E48093390996
S1132B5081E080933A09E11002C080E601C081E679
S1132B6080933B0900933C0986E0F501ADE3B9E0AD
S1132B7001900D928A95E1F780E04D85841760F409
S1132B80282F30E0FE01E20FF31F9681F901E75C84
S1132B90F64F92878F5FF1CF465F28EE33E069E30B
S1132BA079E0CE01C4DE882349F04CE069E379E0A2
S1132BB0CE0119DE81E090914009911180E0DF910E
S1132BC0CF911F910F91EF90DF90CF90BF90AF9076
S1132BD008950F931F93CF93DF93EC018A0180E450
S1132BE08093390981E080933A0980E380933B091B
S1132BF060933C0928EE33E044E069E379E0CE01D8
S1132C0096DE811102C080E012C04AE169E379E0F6
S1132C10CE01E9DD809140098111F5CF80E1E1E445
S1132C20F9E0D80101900D928A95E1F781E0DF91F6
S1132C30CF911F910F910895CF93DF93EC0180E41E
S1132C408093390981E080933A0980EA80933B09B3
S1132C5060933C0980E1FA01ADE3B9E001900D9283
S1132C608A95E1F728EE33E044E169E379E0CE01A7
S1132C705EDE882369F06AE070E080E090E00E9404
S1132C80DE2E4AE169E379E0CE01ADDD81E001C0E9
S1132C9080E0DF91CF910895803D27E0920710F006
S1132CA0805D974050E0EDE1F2E021E0261730F43A
S1132CB03491430F511D2F5F3196F8CF633038F0B4
S1132CC09C0123703327232B11F44F5F5F4FBC010A
S1132CD06D5F7F4F7695679576956795EDE6F1E0A4
S1132CE08E9F90018F9F300D9E9F300D1124C9013E
S1132CF00197860F971F840F951F0895FC019081FB
S1132D0090539A3008F090E0818180532AE0929F9A
S1132D10800D112408958F929F92AF92BF92CF920B
S1132D20DF92EF92FF92CF93DF93EC016A017B0174
S1132D3080E8C81A83E4D80A8DE6E80A88E3F80A2A
S1132D408CE3882E912CA12CB12CC701B601A501CE
S1132D5094010E94D2336D83CA01B901A501940183
S1132D600E94D2336C83C701B60120E13EE040E00B
S1132D7050E00E94D233CA01B90128E130E040E0BA
S1132D8050E00E94D2336B83C701B60120E831E5DD
S1132D9041E050E00E94D23318828881982F9370CA
S1132DA041E050E011F040E050E0BA0163597E4F39
S1132DB02617370738F0241B350B2D5631408F5F0B
S1132DC08883EBCF81E089838981E82FF0E0E45E9A
S1132DD0FD4FE491911103C0823009F4EF5FF0E0FC
S1132DE02E173F0720F02E1B3F0B8F5FECCF2F5F7A
S1132DF02A83DF91CF91FF90EF90DF90CF90BF9027
S1132E00AF909F908F900895EF92FF920F931F932E
S1132E10CF93DF93CDB7DEB72B970FB6F894DEBF11
S1132E200FBECDBF8C017A014BE050E0CE0101967C
S1132E300E944236CE010A9661DFF8018083E9815F
S1132E408E2F90E0FC01E154F109E331F10548F5DE
S1132E50EE5AFF4F0C94F4338A81813629F08B812A
S1132E608E3621F087E01BC081E019C086E017C0D0
S1132E7082E015C08B81823711F088E010C084E0B5
S1132E800EC08B81823711F085E009C083E007C052
S1132E9089E005C08AE003C08BE001C08CE0F80142
S1132EA08183CE0105962ADFF801828348E050E051
S1132EB0B701CE0101960E944236CE0101961EDF73
S1132EC0F8018383CE01049619DFF8018483CE01CF
S1132ED0079614DFF80185832B960FB6F894DEBFAE
S1132EE00FBECDBFDF91CF911F910F91FF90EF9057
S1132EF00895FC0180814281618190E0CDDE0696D7
S1132F0067E070E00C94BE330895EF92FF920F9344
S1132F101F93CF93DF93EC0188814A81698190E00C
S1132F20BBDE9C01A8E1B0E00E94FD332B817B0154
S1132F308C01E20EF11C011D111DA8019701ACE3E7
S1132F40B0E00E940C342C817B018C01E20EF11C58
S1132F50011D111DA80197010E940C342D81DC0173
S1132F60CB01820F911DA11DB11DBC01CD01605883
S1132F707C4B8249974CDF91CF911F910F91FF9029
S1132F80EF900895EF92FF920F931F93CF93DF93E7
S1132F90EC0188814A81698190E07EDE9C01A8E190
S1132FA0B0E00E94FD332B817B018C01E20EF11C09
S1132FB0011D111DA8019701ACE3B0E00E940C347F
S1132FC02C817B018C01E20EF11C011D111DA80155
S1132FD097010E940C342D81620F711D811D911D7A
S1132FE0DF91CF911F910F91FF90EF900895FC0115
S1132FF010821182128213821482089508950F930D
S11330001F93CF93DF93EC01062F142F68E682E31E
S11330109AE00E94B02A602F82E39AE00E945F2A1D
S1133020612F82E39AE00E945F2A82E39AE00E9481
S1133030312B8883DF91CF911F910F9108951F93B6
S1133040CF93DF93EC01162F68E682E39AE00E94A7
S1133050B02A612F82E39AE00E945F2A82E39AE019
S11330600E94312B888341E068E682E39AE00E9463
S11330702D2B82E39AE00E94D929DF91CF911F91F1
S11330800895CF92DF92EF92FF92CF93DF93EC01FA
S11330906A017B0182E39AE00E949D2AB701A6019E
S11330A082E39AE00E94AD2A68E682E39AE00E94F5
S11330B0B02A82E39AE00E94312B81110AC062E0B7
S11330C0CE01BDDF482F4F7B62E0CE0198DF81E067
S11330D001C080E0DF91CF91FF90EF90DF90CF901F
S11330E008950F931F93CF93DF938C01EB0168E650
S11330F082E39AE00E94B02A60E082E39AE00E94B0
S11331005F2A82E39AE00E94312B888347E068E6D5
S113311082E39AE00E942D2B82E39AE00E94D12957
S1133120079709F064C082E39AE00E94D929982F96
S11331309695969596959E70292F220F220F920FA1
S11331408F70890F8D8382E39AE00E94D929982F8A
S11331509695969596959E70292F220F220F920F81
S11331608F70890F8E8382E39AE00E94D929982F69
S11331709695969596959E70292F220F220F920F61
S11331808F70890F8F8382E39AE00E94D92982E3AA
S11331909AE00E94D929982F9695969596959670BF
S11331A0292F220F220F920F8F70890F888782E3B5
S11331B09AE00E94D92984FB992790F9990F292F25
S11331C0220F220F920F8F70890F898782E39AE072
S11331D00E94D929982F92959F708F702AE0929F10
S11331E0800D112490E08053984F9B878A872D810E
S11331F03E814F81588569858A859B85803D77E02E
S1133200970710F0805D9740F801808361835283B3
S1133210438334832583C801DF91CF911F910F919C
S11332200895DF92EF92FF920F931F93CF93DF9352
S113323000D000D000D0CDB7DEB78C017B01FB01FC
S113324085819AE0D92E6D2D0E94B233492FF0E189
S11332508F9F400D112460E0C801D1DEF701848105
S11332606D2D0E94B233492FF0E18F9F400D112440
S113327061E0C801C4DEF70183816D2D0E94B23381
S1133280492FF0E18F9F400D112462E0C801B7DEA1
S1133290C7012FDE482F63E0C801B1DEF701828148
S11332A06D2D0E94B233492FF0E18F9F400D112400
S11332B064E0C801A4DEF70181816D2D0E94B23360
S11332C0492FF0E18F9F400D112465E0C80197DE7E
S11332D0F70180816D2D0E94B233492FF0E18F9F59
S11332E0400D112466E0C8018ADE6FE0C801A7DE44
S11332F0482F4F776FE0C80182DE6EE0C8019FDE81
S1133300482F4F776EE0C8017ADEB801CE010196EE
S1133310E8DECE010196F9DDF801618372838383CF
S1133320948326960FB6F894DEBF0FBECDBFDF910F
S1133330CF911F910F91FF90EF90DF9008950F931D
S11333401F93CF93DF9300D000D000D0CDB7DEB76A
S11333508C0144E152E068E072E0CE01019654DD54
S1133360BE016F5F7F4FC8015CDF26960FB6F894ED
S1133370DEBF0FBECDBFDF91CF911F910F91089596
S11333800F9300E020E040E060E089E799E00E94CC
S11333902C2D0F910895FB01428153816481758125
S11333A0FC014283538364837583178216820895D4
S11333B0CF93DF93DA01FB01EB0189918111FDCFFA
S11333C080E090E020E030E04AE051915523E9F0BC
S11333D02430310544F55E3269F48F3F910509F0DC
S11333E014F5ED01C20FD31F8A832F5F3F4F80E096
S11333F090E0EBCF489FB001499F700D1124852FB9
S113340090E0C097860F971FE0CF8F3F910509F09A
S113341054F4243031053CF4FD01E20FF31F8283A0
S113342081E090E002C080E090E0DF91CF910895C8
S11334300F9300E020E040E060E08FE799E00E9415
S11334402C2D0F9108958F929F92AF92BF92CF929D
S1133450DF92EF92FF920F931F93CF93DF9300D0ED
S11334601F92CDB7DEB76C017B010E94AD2EF60131
S1133470778366838601085F1F4FB6016A5F7F4FBB
S113348042E050E0C80130D581E090E09A8389831E
S113349042E050E0BE016F5F7F4FC80125D580E058
S11334A091E09A83898342E050E0BE016F5F7F4FD1
S11334B0C8011AD51A82198242E050E0BE016F5F3A
S11334C07F4FC80111D542E050E0BE016F5F7F4FCE
S11334D0C8010AD542E050E0BE016F5F7F4FC801CA
S11334E003D55701F50180818823F9F0A7015A011A
S11334F0F50181916F01882321F08E3211F0A6012C
S1133500F6CF4A018E189F081814190464F48B82AC
S113351041E050E0BE016D5F7F4FC801E5D4A401D6
S1133520B701C801E1D47601DDCF1B8241E050E050
S1133530BE016D5F7F4FC801D7D4E12CFF24F39403
S1133540FA82E98242E050E0BE016F5F7F4FC8011A
S1133550CBD4FA82E98242E050E0BE016F5F7F4F34
S1133560C801C2D481E090E00F900F900F90DF91DA
S1133570CF911F910F91FF90EF90DF90CF90BF906C
S1133580AF909F908F9008952F923F924F925F92A9
S11335906F927F928F929F92AF92BF92CF92DF925F
S11335A0EF92FF920F931F93CF93DF93CDB7DEB7C4
S11335B063970FB6F894DEBF0FBECDBF7C016B01DD
S11335C01A010E94AD2E4B015C018701085F1F4F59
S11335D02601612C712CC80129D518161906A4F0EE
S11335E00E94AD2EDC01CB0188199909AA09BB09F7
S11335F0481659066A067B06D0F062E370E080E064
S113360090E00E94DE2EE7CFF7014281538164816E
S11336107581818D928DA38DB48D481759076A07E2
S11336207B0749F4858D968DC59729F409C0EE244E
S1133630EA94FE2CF0C09EEFE92EFF24FA94EBC02E
S1133640C80108D40C970CF4E2C04CE050E0BE0171
S11336506F5F7F4FC80183D48B819C819827892712
S113366098279A8B898BF7014681578129813A8162
S11336704217530711F497FD07C0C80105D47CEF26
S1133680E72EFF24FA94C7C08F709270892B39F00B
S1133690C801FAD36BEFE62EFF24FA94BCC0CF80A6
S11336A0D884DC24CD24DC24C114D10419F0E12C09
S11336B0F12C1FC0C801E8D35AEFE52EFF24FA9479
S11336C0AAC041E050E0BE01635F7F4FC80147D408
S11336D08D85811117C08D858111F3CFC80117D451
S11336E0C80115D4C80113D4C80111D4FFEFEF1ACF
S11336F0FF0A8D819E81982789279827E816F90665
S113370000F309C08D859FEF980F9D87882319F3D7
S1133710C801FDD3F7CFA12CB12C41E050E0BE018C
S11337206D5E7F4FC8011BD48B89982F907C59F410
S1133730882379F08B899FEF980F9B8B882331F036
S1133740C801E5D3F7CFC801E2D31B8A8B89811165
S1133750E4CF42E050E0BE01615F7F4FC801FFD378
S113376042E050E0BE01635F7F4FC801F8D3C80157
S1133770CED3C801CCD3C801CAD3C801C8D342E050
S113378050E0BE016F5E7F4FC801E9D38F859889F1
S11337908115914049F4ED84FE84FE24EF24FE2437
S11337A081E0E816F10419F0E12CF12C14C08989A8
S11337B09A898115944039F0C80166D347EFE42E05
S11337C0FF24FA9428C0B1016E5F7F4F44E050E0BB
S11337D0C801C5D320C089899A8998278927982741
S11337E0E816F90630F4C80192D3FFEFEF1AFF0A86
S11337F0F2CF2FEFA21AB20ACA14DB0409F08DCF5C
S1133800C80142D336EFE32EFF24FA9404C08DEFAF
S1133810E82EFF24FA94C70163960FB6F894DEBF2E
S11338200FBECDBFDF91CF911F910F91FF90EF900D
S1133830DF90CF90BF90AF909F908F907F906F90CC
S11338405F904F903F902F9008958F929F92AF92E8
S1133850BF92CF92DF92EF92FF920F931F93CF9379
S1133860DF9300D000D000D0CDB7DEB77C014B0190
S11338705A019EDD8C01892B09F057C0F701428162
S11338805381648175818091810990918209A0910D
S11338908309B0918409481759076A077B0709F41B
S11338A047C00E94AD2E6701F8E0CF0ED11C6F70A7
S11338B077277C5FC60189D3813009F03BC087EF4D
S11338C097E09A838983F70182819381A481B581EA
S11338D08B839C83AD83BE8345E350E0BE016F5F61
S11338E07F4FC601F7D2892B19F400E010E01AC00B
S11338F0B401C701A8DD892BC1F3C601F2D2892B1B
S1133900A1F383E0882E912CA50168E873E1C70137
S11339103BDE8C0121E0821A910821F00F3FFFEF7A
S11339201F0791F3C601C2D205C001E010E002C036
S11339300EEF1FEFC80126960FB6F894DEBF0FBE38
S1133940CDBFDF91CF911F910F91FF90EF90DF904A
S1133950CF90BF90AF909F908F90089524E030E077
S1133960AC0164E081E090E035C624E030E0AC01D5
S113397064E085E090E02EC626E030E0AC0164E02F
S113398089E090E027C624E030E0AC0164E08FE0F9
S113399090E020C68F929F92AF92BF92CF92DF9217
S11339A0EF92FF920F931F93CF93DF934C015B0130
S11339B06A01E901FC0164858FEB99E053D6C501E6
S11339C0DBDFC6010296DFDFC8010296C7DFC7014D
S11339D00296CBDF8A819B81AC81BD81F401828315
S11339E09383A483B583DF91CF911F910F91FF90AF
S11339F0EF90DF90CF90BF90AF909F908F900895FD
S1133A0027EF37E0FC0131832083FB01428153819E
S1133A1064817581FC0142835383648375830895B3
S1133A200F9300E020E040E060E082EA99E00E9429
S1133A302C2D85E899E00E94222DE5E8F9E0138613
S1133A4012868AE084870F910895DC01ED91FC9140
S1133A50028CF38DE02D099591E089270895CF9389
S1133A60DF931F92CDB7DEB76983DC01ED91FC9142
S1133A700280F381E02D41E050E0BE016F5F7F4F93
S1133A8009950F90DF91CF91089521E0FC01848581
S1133A90883009F420E0822F0895FC019485FB010D
S1133AA08485981303C081E0983009F480E0089578
S1133AB0CF92DF92EF92FF920F931F93CF93DF93F6
S1133AC0CDB7DEB7AF970FB6F894DEBF0FBECDBF4C
S1133AD08C016B017A01CE0101960E94222DCE0148
S1133AE00996F3D2CE018A960E94222D65E879E0E8
S1133AF0CE01849685DFBE016C5D7F4FCE010196B9
S1133B004ADCAE01465D5F4FB601CE0101969DDEF3
S1133B1081309105C1F4D801ED91FC910684F785BB
S1133B20E02D87EF97E09DA38CA38CA59DA5AEA562
S1133B30BFA58EA39FA3A8A7B9A7A701BE016C5DCB
S1133B407F4FC8010995AF960FB6F894DEBF0FBE3C
S1133B50CDBFDF91CF911F910F91FF90EF90DF9038
S1133B60CF9008950F931F93CF93DF938C01D42F9D
S1133B70C52FFC018485883041F481E090E0F80190
S1133B809383828380E090E005C0CFD3892BA9F38F
S1133B908D2F9C2FDF91CF911F910F910895FC01E0
S1133BA06485683019F08FEB99E0D0C580E090E02F
S1133BB00895CF93DF931F92CDB7DEB741E050E075
S1133BC0BE016F5F7F4FFC018485F7D31816190679
S1133BD01CF4898190E002C08FEF9FEF0F90DF917A
S1133BE0CF910895FC018485E8C30F931F93CF936D
S1133BF0DF931F92CDB7DEB78C01DC01ED91FC9110
S1133C000084F185E02D0995892B49F0BE016F5F91
S1133C107F4FF801848512D4898190E002C08FEF30
S1133C209FEF0F90DF91CF911F910F910895FC01A9
S1133C30848511C4FC011382128288EE93E0A0E013
S1133C40B0E084839583A683B78383E797E0918369
S1133C50808388E084870895FC016485683039F0A6
S1133C606295660F607E685F83E090E0DFC480E069
S1133C700895CF93DF93FC0124852830C9F0EC012B
S1133C80EBDF843181F0882371F0883161F08C316D
S1133C9061F4E881F9810084F185E02DCE01099574
S1133CA021E0892B19F420E001C021E0822F01C01A
S1133CB080E0DF91CF910895CF92DF92EF92FF924F
S1133CC0CF93DF93EC018C85883069F129D30E946E
S1133CD0AD2E6B017C01CE01BFDF8823A1F00E94D1
S1133CE0AD2EDC01CB018C199D09AE09BF09883EBC
S1133CF09340A105B10538F461E070E080E090E004
S1133D000E94DE2EE8CFCE01A7DF882311F08C8538
S1133D1096D2EC85F0E0EE0FFF1FEE56F64F1182BF
S1133D20108288E08C87DF91CF91FF90EF90DF9035
S1133D30CF900895CF92DF92FF920F931F93CF936A
S1133D40DF93FC0124852830C1F56A018B01EC0165
S1133D50F12C6F2D6295660F607E685F83E090E0C2
S1133D6065D4811102C0FC8607C08B7F8831D9F3EA
S1133D70F394F8E0FF12EDCF8C858830F1F02091B8
S1133D807101309172012F5F3F4F11F420E034E054
S1133D90309372012093710140917101509172012D
S1133DA020E061E057D2B8016E5F7F4FA6018C8599
S1133DB084D2811105C088E08C8780E090E00FC038
S1133DC0CE014ADF873149F061E070E080E090E0A5
S1133DD00E94DE2ECE0140DFECCF81E090E0DF9147
S1133DE0CF911F910F91FF90DF90CF9008950F9383
S1133DF000E020E040E060E088EA99E00E942C2D99
S1133E000F9108950F9300E020E040E060E08EEA17
S1133E1099E00E942C2D0F91089580E00895DC0113
S1133E20ED91FC91048CF58DE02D099427EF37E09A
S1133E30FC0131832083FB014189528963897489A0
S1133E40FC0142835383648375830895FC0185894F
S1133E5096890895FC01818D928D0895CF93DF9307
S1133E601F92CDB7DEB76983DC01ED91FC9102802E
S1133E70F381E02D41E050E0BE016F5F7F4F099573
S1133E800F90DF91CF910895CF93DF93EC01898D4B
S1133E909A8D892B41F0E881F9810284F385E02D24
S1133EA0CE010995F4CFDF91CF910895CF93DF939D
S1133EB0EC018C85883059F0C2D1EC85F0E0EE0F2E
S1133EC0FF1FEE56F64F1182108288E08C87DF9137
S1133ED0CF910895FC01108E178A6E5F7F4F848501
S1133EE0E6C2FC01848506C3CF93DF93EC019A01FB
S1133EF08F89988DAB01BC018C85AED22F89388D0A
S1133F00280F391F388F2F8BDF91CF9108950F938E
S1133F101F93CF93DF931F92CDB7DEB7FC01218DA2
S1133F20328D232B59F08C0141E050E0BE016F5FCC
S1133F307F4F848542D2181619061CF08FEF9FEF2D
S1133F4008C0F801818D928D0197928F818F8981AC
S1133F5090E00F90DF91CF911F910F910895CF932F
S1133F60DF93FC01218D328D2115310519F48FEF7A
S1133F709FEF10C0EC014217530708F0A9018C858C
S1133F801CD2181619069CF7298D3A8D281B390B5B
S1133F903A8F298FDF91CF910895CF93DF931F92AA
S1133FA0CDB7DEB7FC01218D328D232B41F0BE014C
S1133FB06F5F7F4F848542D2898190E002C08FEF8A
S1133FC09FEF0F90DF91CF910895EF92FF921F938F
S1133FD0CF93DF93FC012485283011F080E020C0CA
S1133FE07B01EC0110E0612F6295660F607E685FD3
S1133FF083E090E01BD3811102C01C8705C0883187
S1134000E1F31F5F183079F78C85883039F3FE8629
S1134010ED861A8E198E20E0A70162E01BD181E0A3
S1134020DF91CF911F91FF90EF9008950F931F930D
S1134030CF93DF93CDB7DEB728970FB6F894DEBFE2
S11340400FBECDBF8C01DC01ED91FC910680F781A0
S1134050E02D0995F80164858FEB99E077D3892BDE
S113406039F148E050E0BE016F5F7F4FD8011C96E4
S11340708C91A3D118161906ECF4BE016F5F7F4F23
S1134080C8010F960E94382D8D8190E0982F8827C3
S11340902E81820F911DF801968B858B8F8190E084
S11340A0982F88272885820F911D928F818F02C0B7
S11340B080E090E028960FB6F894DEBF0FBECDBF27
S11340C0DF91CF911F910F910895FC011382128209
S11340D088EE93E0A0E0B0E084839583A683B78361
S11340E085E997E09183808388E08487CF010F96E8
S11340F00C94222DCF92DF92EF92FF920F931F9395
S1134100CF93DF93CDB7DEB7AF970FB6F894DEBF8A
S11341100FBECDBF8C016B017A01CE0101960E94C6
S1134120222DCE010996D1DFCE018A960E94222D3E
S113413065E879E0CE01849663DCBE016C5D7F4F57
S1134140CE01019628D9AE01465D5F4FB601CE017E
S113415001967BDB81309105C1F4D801ED91FC918E
S11341600488F589E02D87EF97E09DA38CA38CA5A7
S11341709DA5AEA5BFA58EA39FA3A8A7B9A7A70178
S1134180BE016C5D7F4FC8010995AF960FB6F894D8
S1134190DEBF0FBECDBFDF91CF911F910F91FF9076
S11341A0EF90DF90CF9008950F9300E020E040E07F
S11341B060E084EB99E00E942C2D0F910895AB01EF
S11341C08295880F807E6CE0680F24E030E08CE0FC
S11341D090E000C29B018295880F807E68E0680FA2
S11341E0C90124C262E070E0F5CF9B018295880F7B
S11341F0807E6CE0680FC901CFC1CF93DF93C82FD5
S1134200D62F472F64E070E0F0DF4D2F65E070E0BB
S11342108C2FDF91CF91E9CF462F62E070E0E5CF9C
S1134220CF93DF93C82FD62F472F60E170E0DDDFF7
S11342304D2F61E170E08C2FDF91CF91D6CFCF93DA
S1134240C82F40E1682F8FEB99E070D36FEF8C2F6C
S1134250CF91E2CFFF920F931F93CF93DF939FEF02
S1134260960F953018F5D22F8A01F62EC82FE7DF66
S11342704F2D4D2B60E070E08C2FB7DF0115110539
S113428011F0B8010AC06091BA097091BB096F5F5F
S11342907F4F7093BB096093BA098C2FAEDF41E066
S11342A06C2F8FEB99E042D381E001C080E0DF9175
S11342B0CF911F910F91FF9008950F931F93CF9368
S11342C0FB0190819F3F51F491819F3F91F4928132
S11342D09F3F79F493819F3F61F41CC0911109C001
S11342E09181911106C09281911103C09381992308
S11342F091F04115510571F08A01BF01C82F5FDFAC
S1134300B8018C2F8DDF44E06C2F8FEB99E00ED336
S113431091E001C090E0892FCF911F910F910895F2
S113432048E0682F8FEB99E001C3CF92DF92EF92C0
S1134330FF920F931F93CF93C82F7B018A014130C3
S1134340584010F000E018E06C2F8FEB99E0CDD1CD
S11343506C0163E070E08C2F3DDF873111F08C310C
S113436021F4C016D10680F302C000E010E09801E9
S1134370A7016C2F8FEB99E03DD240E26C2F8FEBBD
S113438099E0D4D28C2F2EDF84FD0BC063E070E063
S11343908C2F20DF8111F6CF8C2F51DF80E090E04D
S11343A004C060E18C2F38DFC801CF911F910F91B9
S11343B0FF90EF90DF90CF900895CF92DF92EF922D
S11343C0FF920F931F93CF93DF93182F6B017A0102
S11343D0682F8FEB99E0BAD1EC01009791F463E078
S11343E070E0812FF7DE8431F9F08823E9F0C1E031
S11343F0D0E08C3111F4C0E0D0E0D195C195D10961
S113440013C0E816F9060CF4E7011C161D0664F443
S113441000E09E01A601612F8FEB99E03AD240E4BF
S1134420612F8FEB99E082D2CE01DF91CF911F9162
S11344300F91FF90EF90DF90CF9008950F93AB0111
S113444001E021E030E0682F8FEB99E022D281E097
S113445090E00F9108950895AF92BF92CF92DF92AA
S1134460FF920F931F93CF93DF93F82E6B015A01A2
S1134470E901682F8FEB99E038D18C179D0728F458
S11344806F2D8FEB99E031D1EC018E019501A601DE
S11344906F2D8FEB99E074D1CE01DF91CF911F91F5
S11344A00F91FF90DF90CF90BF90AF9008950F933E
S11344B01F93CF93FB019081911109C091819111B8
S11344C006C09281911103C09381992369F041152B
S11344D0510551F08A01BF01C82F71DEB8018C2F3C
S11344E09FDE81E090E002C080E090E0CF911F91D8
S11344F00F910895CF93C82F40E2682F8FEB99E076
S113450015D28C2F6FDE84FD0AC08C2F6BDE83FFE7
S1134510F8CF68E18C2F80DE80E090E005C060E198
S11345208C2F7ADE81E090E0CF9108952091C2092A
S1134530222399F04FB7F8942091C209213059F4FD
S11345402DB32093C0093DB32091C10920952323A5
S11345502DBB4FBF02C04093C0098CBD9DBD0895C3
S11345608EBD00000DB407FEFDCF8EB50895809179
S1134570C209882361F09FB7F8942091C209809101
S1134580C009213019F48DBB9FBF08958FBF0895D2
S113459044980895449A08950F931F93CF93DF93FB
S11345A0182F092FD62FC42F8091BD099091BE09D1
S11345B0BDDFEEDF802FD4DF812FD2DF8D2FD0DF60
S11345C08C2FCEDFE7DFD3DF81E0DF91CF911F9126
S11345D00F910895DF92EF92FF920F931F93CF9361
S11345E0DF93D82FD92EC62F7A0189018091BD0976
S11345F09091BE099BDFCCDF8D2DB2DF8D2FB0DF14
S11346008C2FAEDFE701E00EF11ECE15DF0519F0A9
S11346108991A6DFFACFBEDFAADFC801DF91CF916F
S11346201F910F91FF90EF90DF9008951F93CF9308
S1134630DF93D82F192FC62F8091BD099091BE0901
S113464075DFA6DF812F8CDF8D2F8ADF8C2F88DF2B
S113465080E086DFC82F9EDF8ADF8C2FDF91CF9129
S11346601F910895CF93DF936093BC0968EE73E0C4
S113467080E090E00E94DE2E3C9A10D460E080E05E
S113468090E0D4DF482F406864E080E090E084DF6D
S1134690C0E0DC2FD295DD0FD07ED45F42E06D2FD9
S11346A08EE190E079DF42E06D2F8FE190E074DFDE
S11346B0CF5FC83071F7DF91CF9108951F93CF93E7
S11346C0DF93182F60E270E085DDC82FD0E0DC2F87
S11346D0CC2761E270E0812F7DDD9E01280F311D22
S11346E0C901DF91CF911F910895FF920F931F93FA
S11346F0CF93DF93F62EC0E0D0E08F2DDFDF8C0167
S1134700892B19F08F2DDADFEC01C017D107A9F737
S1134710CE01DF91CF911F910F91FF9008951F93C8
S1134720CF93DF93182F66E270E054DDC82FD0E0FA
S1134730DC2FCC2767E270E0812F4CDD9E01280F2F
S1134740311DC901DF91CF911F910895FF920F93FD
S11347501F93CF93DF93F62EC0E0D0E08F2DDFDFE1
S11347608C01892B19F08F2DDADFEC01C017D107EA
S1134770A9F7CE01DF91CF911F910F91FF9008957A
S1134780AF92BF92DF92EF92FF920F931F93CF935A
S1134790DF93D62E7A01590164E270E08D2D1ADD83
S11347A0C82F65E270E08D2D15DDD0E0DC2FCC271D
S11347B0E80EF11CCE0DDF1D6D2D6295660F607E37
S11347C06C5E9801A501CE0105DFC00FD11F4D2FEE
S11347D064E270E08D2D09DD4C2F65E270E08D2DD3
S11347E0DF91CF911F910F91FF90EF90DF90BF90D9
S11347F0AF90FBCC0F931F9389019A0140E050E0E6
S1134800BFDF1F910F910895DF92EF92FF920F93F4
S11348101F93CF93DF93D82FD92EC62F7A01890106
S11348208091BD099091BE0981DEB2DE8D2D98DEA6
S11348308D2F96DE8C2F94DEE701E00EF11ECE154F
S1134840DF0521F080E08CDE8993F9CFA3DE8FDED3
S1134850C801DF91CF911F910F91FF90EF90DF90EE
S113486008950F931F93CF93DF9300D0CDB7DEB796
S11348705A834983A901980189819A816295660FB7
S1134880607E685E0F900F90DF91CF911F910F9122
S1134890BBCF8F929F92AF92BF92CF92DF92EF9253
S11348A0FF920F931F93CF93DF936C01962E5A01BF
S11348B07901802E68E270E0892D8CDC082F69E292
S11348C070E0892D87DC10E0102F0027E801C80F65
S11348D0D11D87019501AE01692DC601C2DF81108A
S11348E018C00C0F1D1F412F68E270E0892D7DDC7C
S11348F0402F69E270E0892DDF91CF911F910F91D4
S1134900FF90EF90DF90CF90BF90AF909F908F90EB
S11349106CCCDF91CF911F910F91FF90EF90DF90BE
S1134920CF90BF90AF909F908F900895CF93C62F54
S113493061E070E08C2F59DC61E070E08C2F4ADC80
S11349408111FACFCF910895EDEBF9E080E58083F2
S113495081E081830895FC0112828FEF81831082AC
S113496013820895FC018381882331F0611103C00F
S11349708FEF818308951182089582E39AE0F0D540
S113498082E39AE06ED691E0811190E0892F089538
S1134990CF93DF93EC016A8382E39AE0CED56A81F8
S11349A0CE01EBDF8B83882321F082E39AE001D5EB
S11349B088838B8190E0DF91CF910895CF93DF932B
S11349C0FC012381222399F0EC01818180956823E5
S11349D06083628182E39AE0C3D5688182E39AE0CE
S11349E06ED582E39AE03DD6282F30E002C020E065
S11349F030E081E090E0232B11F080E090E0DF9143
S1134A00CF91089508950895DC01ED91FC910684F9
S1134A10F785E02D41E0099581E090E00895FC01DF
S1134A20138212822DEB37E0318320830895DC0159
S1134A30ED91FC910484F585E02D6FEF0994DC0180
S1134A40ED91FC910484F585E02D60E00994DC018E
S1134A50ED91FC910684F785E02D40E0099461E036
S1134A60F6DF80ED97E00C94172FCF93DF93CDB74B
S1134A70DEB728970FB6F894DEBF0FBECDBFFC019A
S1134A808091790190917A01A0917B01B0917C0190
S1134A908D839E83AF83B88780917D0190917E0141
S1134AA0A0917F01B091800189839A83AB83BC83F9
S1134AB08781481710F04FEF480F908550E0DE01D2
S1134AC0A40FB51F903129F4843019F411969C91E8
S1134AD002C015969C91690F6068CF0128960FB6A5
S1134AE0F894DEBF0FBECDBFDF91CF91B0CFFC01F4
S1134AF065816B7F65836860AACFFC016581262F81
S1134B00246025836C60A3CFCF93DF93EC01423004
S1134B1018F08C8188608C834F836887222329F066
S1134B20413019F48C8184608C8364E670E080E009
S1134B3090E00E94DE2E6C8164FD31C0E881F98131
S1134B400684F785E02D42E063E0CE01099584E90F
S1134B5091E10E94172FE881F9810684F785E02D01
S1134B6042E063E0CE01099586E990E00E94172FA8
S1134B70E881F9810684F785E02D42E063E0CE0107
S1134B80099586E990E00E94172FE881F98106844F
S1134B90F785E02D42E062E0CE01099513C0606222
S1134BA0CE0155DF84E991E10E94172F6C81606288
S1134BB0CE014DDF86E990E00E94172F6C81606280
S1134BC0CE0145DF86E990E00E94172F6C81606278
S1134BD0CE013DDF8CE390E00E94172F84E08D83AB
S1134BE0CE018BDFCE013BDF82E08E8366E0CE0117
S1134BF02EDFCE01DF91CF911ACFEF92FF920F9368
S1134C001F93CF93DF938C017A01677088E0689FCC
S1134C10B00111246064C8011ADF8EE190E00E94A3
S1134C20172FE701A8E0EA0EF11C6991D801ED9174
S1134C30FC910190F081E02DC801099588E290E093
S1134C400E94172FCE15DF0581F7DF91CF911F91B9
S1134C500F91FF90EF90089521E001C0220F6A9513
S1134C60EAF7DC011B962C931B9719964C93199722
S1134C70ED91FC910484F585E02D60E00994FC013C
S1134C808385882389F09185911103C0611105C042
S1134C9006C0913021F4611102C0848701C01486DA
S1134CA06485CF010D968ACE08950F931F93CF93F9
S1134CB0DF938C01EC012D96FC016285CE0168DE48
S1134CC0019759F461E0CE014DDEF801148260E0F1
S1134CD0CE0174DE81E090E002C080E090E0DF91DC
S1134CE0CF911F910F9108958F92AF92CF92EF922F
S1134CF00F93CF93DF93CDB7DEB7FC0162871386A2
S1134D001486118681E0982F01C0990F4A95EAF71D
S1134D10918B982F01C0990F2A95EAF7928B982FBF
S1134D2001C0990F0A95EAF7938B982F01C0990F48
S1134D30EA94EAF7948B982F01C0990FCA94EAF782
S1134D40958B982F01C0990FAA94EAF7968B01C00E
S1134D50880F8A94EAF7878BDF91CF910F91EF90B8
S1134D60CF90AF908F9008956F927F928F929F9281
S1134D70AF92BF92CF92DF92EF92FF920F931F9365
S1134D80CF93DF93CDB7DEB73C01D62EB42E922E4F
S1134D901989FA8844DE81ED97E0F30191838083D9
S1134DA0C3010D96D8DD292D4B2D6D2DC3019CDF3C
S1134DB04F2D612FC301DF91CF911F910F91FF9070
S1134DC0EF90DF90CF90BF90AF909F908F907F90A7
S1134DD06F9042CFEF92FF920F931F93CF938C016A
S1134DE0C62F7C018DE0E80EF11CF80161896C2B63
S1134DF0C701E4DDF801618960956C23C701CF9197
S1134E001F910F91FF90EF90D9CDFC01962FDF01F8
S1134E1084E060E090FF04C054962C915497622B78
S1134E209695815011968111F5CF413009F443894B
S1134E309485692B642BCF01CDCF0F931F93CF9310
S1134E40DF93062F0F70423019F440E0602F0DC03D
S1134E50142FEC0170E084E0759567958A95E1F76D
S1134E60CE01D3DF412F602FCE01DF91CF911F916F
S1134E700F91CBCFFF920F931F93CF93DF93EC014E
S1134E80162F042FF22E11DF2F2D402F612FCE016C
S1134E90DF91CF911F910F91FF9036CECF93CFB773
S1134EA0F8948091C309811127C0E3E7F2E084916B
S1134EB0E3E5F2E09491E82FF0E0EE0FFF1FE356F4
S1134EC0FD4FA591B491EC91E92321F461E08AE0CE
S1134ED00E94C22F61E08AE00E94862F8CB5806117
S1134EE08CBD8CB580648CBD61E08DE00E94862F02
S1134EF061E08BE00E94862F8091C3098F5F8093CD
S1134F00C309CFBFCF9108951092310A81E08093F5
S1134F102F0A10922E0A61E08DE10E94C22F61E0F7
S1134F208CE10E94C22FE9EBF0E080818E7F8083C8
S1134F3080818D7F808388E48093B80085E48093AA
S1134F40BC000895ECEBF0E080818A7B808360E014
S1134F508DE10E94C22F60E08CE10C94C22F9B0172
S1134F60AC0160E074E284EF90E00E94D233DA0195
S1134F70C9014097A109B109B695A7959795879559
S1134F808093B8000895413208F043C09091310AEB
S1134F909111FCCF91E09093310A20932F0A2FEFC7
S1134FA02093C4091092090A240F2093080A9093AD
S1134FB0300A9091300A880F892B8093300A8091AF
S1134FC02E0A813061F410922E0A8091300A809367
S1134FD0BB008091BC0083FDF8CF85EC01C085EE59
S1134FE08093BC008091310A8130E1F38091090AF9
S1134FF0841710F44091090AAAE0BAE0962FFB0145
S11350008E2F891B841718F48D918193F9CF842FE7
S1135010089580E008950F93413208F04AC09091BA
S1135020310A9111FCCF32E03093310A00932F0AF8
S11350303FEF3093C4091092090A4093080A562F8F
S1135040AAE0BAE0FB013E2F351B341718F4319166
S11350503D93F9CF1092300A3091300A880F832B98
S11350608093300A80912E0A813061F410922E0AC6
S11350708091300A8093BB008091BC0083FDF8CFFF
S113508085EC01C085EE8093BC00222321F0809141
S1135090310A8230D1F38091C4098F3F79F0809135
S11350A0C409803241F08091C409803331F094E026
S11350B005C091E003C092E001C093E0892F0F91F5
S11350C008954091E609262F30E0240F311D213246
S11350D03105DCF42091310A2430C9F4FC0180E06C
S11350E090E0861758F43091E6092191DC01A8512B
S11350F0B64FA30FB11D2C930196F3CF8091E6090F
S1135100680F6093E60980E0089581E0089582E0E5
S1135110089590932B0A80932A0A089590932D0A58
S113512080932C0A089585ED8093BC008091BC0087
S113513084FDFCCF1092310A089585EC8093BC0065
S11351401092310A08951F920F920FB60F921124F4
S11351500BB60F922F933F934F935F936F937F936D
S11351608F939F93AF93BF93EF93FF938091B90075
S1135170887F803609F49DC070F5883209F45CC0DC
S113518090F4803109F455C038F4882309F4F3C04D
S1135190883009F44EC0F2C0883109F44DC0803221
S11351A009F45EC0EBC0803409F469C050F4803364
S11351B009F456C0883309F0E1C08093C409BDDF07
S11351C0DDC0803509F44FC0883509F45DC08834EA
S11351D009F0D4C0D2C0883909F4C3C0A8F4883710
S11351E009F467C038F4883609F463C0803709F4D9
S11351F060C0C4C0883809F4B4C0803909F45FC001
S1135200803809F0BBC05BC0803B09F482C038F42D
S1135210803A09F466C0883A09F47BC0AFC0803C88
S113522009F4A3C0883C09F4A0C0883B09F486C0F3
S1135230A5C08091300A10C09091090A8091080A93
S1135240981770F5E091090A81E08E0F8093090A9E
S1135250F0E0E65FF54F80818093BB0085EC82C06F
S11352608093C4098AC0E091090A81E08E0F80937B
S1135270090A8091BB00F0E0E65FF54F80839091CE
S1135280090A8091080A6AC0E091090A81E08E0F38
S11352908093090A8091BB00F0E0E65FF54F8083BC
S11352A080912F0A811169C081E080932E0A84EADB
S11352B05DC083E08093310A1092C509CFCF8091FD
S11352C0C509803208F04DC0E091C50981E08E0F18
S11352D08093C5098091BB00F0E0EA53F64F8083C8
S11352E0BDCF2BDF8091C509803230F4E091C50930
S11352F0F0E0EA53F64F10826091C50970E0E09146
S11353002A0AF0912B0A86EC99E009951092C509B6
S113531035C084E08093310A1092E7091092E609BF
S1135320E0912C0AF0912D0A09958091E6098111EA
S113533005C081E08093E6091092E809E091E7094D
S113534081E08E0F8093E709F0E0E851F64F808109
S11353508093BB009091E7098091E609981708F4BF
S11353607DCF85E88093BC0009C085EC8093BC00A8
S11353701092310A03C01092C409D5DEFF91EF9157
S1135380BF91AF919F918F917F916F915F914F9159
S11353903F912F910F900BBE0F900FBE0F901F9057
S11353A018958091660A90E02091670A821B910902
S11353B008959091670A8091660A981750F4E92F2E
S11353C0F0E0E859F54F208130E09F5F9093670A41
S11353D002C02FEF3FEFC9010895E091670A809161
S11353E0660AE81730F4F0E0E859F54F808190E060
S11353F008958FEF9FEF08950895CF93DF93EC0105
S1135400E0913E0AF0913F0A3097F1F09091670ADB
S11354108091660A9817C0F090E0292F30E0261793
S1135420370754F4DE01A20FB31F4C91D901A859D8
S1135430B54F4C939F5FF1CF1092670A6093660A51
S1135440CB01DF91CF910994DF91CF910895E09141
S1135450400AF091410A309729F01092440A1092C0
S1135460430A09940895CF92DF92EF92FF920F932B
S11354701F93CF93DF937C01CB018A012091420AD1
S1135480222389F0EB016B01C40ED51ECC15DD057A
S113549061F06991D701ED91FC910190F081E02DCB
S11354A0C7010995F3CF642F0CDEC801DF91CF91BA
S11354B01F910F91FF90EF90DF90CF900895CF93BD
S11354C0DF931F92CDB7DEB769832091420A22236E
S11354D0D1F02091430A203240F021E030E0FC0179
S11354E03383228380E090E014C08091440AE82F43
S11354F0F0E0EB5BF54F998190838F5F8093440AD2
S11355008093430A04C061E0CE010196DADD81E0B4
S113551090E00F90DF91CF910895FC0113821282E5
S113552088EE93E0A0E0B0E084839583A683B783FC
S113553085EE97E09183808308951092670A109214
S1135540660A1092440A1092430ADEDC87E29AE269
S1135550E5DD8DEF99E2DDCDF5CCCB01BA01FFCCD1
S113556081E08093420A6093650A1092440A109283
S1135570430A0895F5CF0F93062F21E04091430A83
S113558065E47AE08091650A46DD1092440A10923F
S1135590430A1092420A0F9108954F925F926F92BC
S11355A07F92AF92BF92CF92EF92FF920F931F938D
S11355B0CF93DF935C01F62ED42F28013901EE201E
S11355C011F1CEDFCE2DC43008F0C3E0C150C0F0DD
S11355D028E0C29FC0011124A301920104C0569582
S11355E04795379527958A95D2F7CA01B901D50110
S11355F0ED91FC910190F081E02DC5010995E6CF74
S113560060E0C501B8DF4D2FD13208F040E22C2D07
S113561068E67AE08F2DB7DC1092670A8093660AF9
S1135620DF91CF911F910F91FF90EF90CF90BF909A
S1135630AF907F906F905F904F900895CF92EF92CC
S11356400F931F93C22EE12C00E010E09801A5DF18
S11356501F910F91EF90CF90089521E0EFCF21E0BB
S1135660EDCF61E088CF82E39AE057CFA8D008F469
S113567081E008950CD0DEC0D6D040F0CDD030F01B
S113568021F45F3F19F0BFC0511108C1C2C0E3D07B
S113569098F39923C9F35523B1F3951B550BBB27F5
S11356A0AA2762177307840738F09F5F5F4F220FA2
S11356B0331F441FAA1FA9F333D00E2E3AF0E0E89B
S11356C030D091505040E695001CCAF729D0FE2FE7
S11356D027D0660F771F881FBB1F26173707480779
S11356E0AB07B0E809F0BB0B802DBF01FF2793582F
S11356F05F4F2AF09E3F510568F085C0CFC05F3FE1
S1135700ECF3983EDCF3869577956795B795F79516
S11357109F5FC9F7880F911D9695879597F908950E
S1135720E1E0660F771F881FBB1F621773078407AA
S1135730BA0720F0621B730B840BBA0BEE1F88F7B9
S1135740E0950895E89409C097FB3EF49095809500
S1135750709561957F4F8F4F9F4F9923A9F0F92F33
S113576096E9BB279395F695879577956795B795B1
S1135770F111F8CFFAF4BB0F11F460FF1BC06F5F97
S11357807F4F8F4F9F4F16C0882311F096E911C0A9
S1135790772321F09EE8872F762F05C0662371F0CA
S11357A096E8862F70E060E02AF09A95660F771FDE
S11357B0881FDAF7880F9695879597F90895990FBA
S11357C00008550FAA0BE0E8FEEF16161706E807C7
S11357D0F907C0F012161306E407F50798F0621BE8
S11357E0730B840B950B39F40A2661F0232B242BBD
S11357F0252B21F408950A2609F4A140A6958FEFDC
S1135800811D811D089597F99F6780E870E060E02D
S113581008959FEF80EC089500240A941616170645
S113582018060906089500240A941216130614068D
S113583005060895092E0394000C11F4882352F0F0
S1135840BB0F40F4BF2B11F460FF04C06F5F7F4FA8
S11358508F4F9F4F089557FD9058440F551F59F08F
S11358605F3F71F04795880F97FB991F61F09F3F49
S113587079F087950895121613061406551FF2CF72
S11358804695F1DF08C0161617061806991FF1CFC2
S113589086957105610508940895E894BB276627E9
S11358A07727CB0197F908950E9436361F920F92FD
S11358B00FB60F9211242F938F939F93EF93FF931F
S11358C0E091980AF091990A8081E0919E0AF09102
S11358D09F0A82FD12C090818091A10A8F5F8F730D
S11358E02091A20A821751F0E091A10AF0E0E85752
S11358F0F54F958F8093A10A01C08081FF91EF91AC
S11359009F918F912F910F900FBE0F901F9018951C
S11359101F920F920FB60F9211242F933F934F9320
S11359205F936F937F938F939F93AF93BF93EF9303
S1135930FF9388E89AE086D6FF91EF91BF91AF91EB
S11359409F918F917F916F915F914F913F912F9193
S11359500F900FBE0F901F90189588E89AE028D6F4
S113596021E0892B09F420E0822F0895E8E8FAE089
S11359701382128288EE93E0A0E0B0E084839583E2
S1135980A683B78389E098E09183808385EC90E0D7
S11359909587848784EC90E09787868780EC90E0F5
S11359A0918B808B81EC90E0938B828B82EC90E0E6
S11359B0958B848B86EC90E0978B868B118E128E60
S11359C0138E148E08958F929F92AF92BF92CF92AE
S11359D0DF92EF92FF920F931F93CF93DF937C019B
S11359E08B014C0182E0880E911C5701E5E0AE0E5C
S11359F0B11CC0E0D0E0F40161914F014AE050E0F5
S1135A00C8014BD16C016EE2C801BAD08C0D9D1D4A
S1135A10C80FD91F8A149B0471F74AE050E0F701BC
S1135A206581C8013AD18C0F9D1FDF91CF911F91E1
S1135A300F91FF90EF90DF90CF90BF90AF909F9029
S1135A408F90089527EF37E0FC0131832083128281
S1135A5013821482158208950F93FC0187EF97E057
S1135A609183808362834383248305830F91089504
S1135A70DC01129624E0FB0101900D922A95E1F7D6
S1135A8008950895DFD1FDDF0E946710C5E1D3E3D7
S1135A900E9454092097E1F3C8D5FACFCF92DF9240
S1135AA0EF92FF920F931F93CF93DF936C017A01D0
S1135AB08B01C0E0D0E0CE15DF0581F0D8016D91F7
S1135AC08D01D601ED91FC910190F081E02DC6018C
S1135AD00995892B11F02196EECF7E01C701DF9144
S1135AE0CF911F910F91FF90EF90DF90CF90089589
S1135AF06115710579F0FB0101900020E9F73197F8
S1135B00AF01461B570BDC01ED91FC910280F38140
S1135B10E02D099480E090E00895EF92FF920F93B6
S1135B201F93CF93DF938C017B01C0E0D0E0F7019A
S1135B30EC0FFD1F6491662361F0D801ED91FC9197
S1135B400190F081E02DC8010995892B11F021966F
S1135B50EECFCE01DF91CF911F910F91FF90EF9087
S1135B600895DB0114964D915C9115976D917C918C
S1135B70DC01ED91FC910280F381E02D0994B8CF12
S1135B80DC01ED91FC910190F081E02D09946BEF23
S1135B9073E0AECF0F931F93CF93DF93EC01BDDF80
S1135BA08C01CE01F4DF800F911FDF91CF911F9103
S1135BB00F9108950F931F93CF93DF93EC01D1DFDF
S1135BC08C01CE01E4DF800F911FDF91CF911F91F3
S1135BD00F9108950F931F93CF93DF93EC0188DF08
S1135BE08C01CE01D4DF800F911FDF91CF911F91E3
S1135BF00F9108958F929F92AF92BF92EF92FF926E
S1135C000F931F93CF93DF93CDB7DEB7A1970FB652
S1135C10F894DEBF0FBECDBF7C01FA01CB0119A2FF
S1135C20223008F42AE08E010F5D1F4F822E912C42
S1135C30A12CB12CBF01A5019401B4D5F901CA016D
S1135C40015011096A3010F4605D01C0695CD8012B
S1135C506C93232B242B252B69F7B801C70148DF4C
S1135C60A1960FB6F894DEBF0FBECDBFDF91CF91E2
S1135C701F910F91FF90EF90BF90AF909F908F90E6
S1135C8008952115310541F4DC01ED91FC91019059
S1135C90F081E02D642F0994ADCF9A01462F50E096
S1135CA060E070E0EECF0F931F93CF93DF93EC018E
S1135CB0E8DF8C01CE016BDF800F911FDF91CF9164
S1135CC01F910F9108951F920F920FB60F921124F6
S1135CD02F933F938F939F93AF93BF938091260B02
S1135CE09091270BA091280BB091290B3091250B93
