:1000000063C100008BC1000089C1000087C10000EE
:100010000C94181983C1000081C100000C946C1964
:100020007DC100007BC1000079C1000077C10000E4
:1000300075C1000073C1000071C100006FC10000F4
:100040000C949A396BC100000C9488370C94BA3721
:1000500065C1000063C1000061C100005FC1000014
:100060005DC100005BC100000C94D53357C1000096
:1000700055C1000053C1000051C100004FC1000034
:100080004DC100004BC1000049C100002B0FB10F52
:10009000D80F1410D71063115912B9124913B013A5
:1000A0009C1410153F166C22832283228022832207
:1000B0006A228322832283225E2283228322732266
:1000C0007E227C228322832283227A2200407A109D
:1000D000F35A00A0724E18090010A5D4E80000E8F9
:1000E0007648170000E40B54020000CA9A3B000057
:1000F00000E1F505000080969800000040420F00E6
:100100000000A08601000000102700000000E803A6
:10011000000000006400000000000A000000000071
:100120000100000000002C76D888DC674F0823DF30
:10013000C1DFAE59E1B1B796E5E3E453C63AE65103
:10014000997696E8E6C28426EB898C9B62ED407C2A
:100150006FFCEFBC9C9F40F2BAA56FA5F490055AC6
:100160002AF75C936B6CF9676DC11BFCE0E40D47EB
:10017000FEF520E6B500D0ED902E0300943577050E
:100180000080841E080000204E0A000000C80C33C6
:100190003333330F986E12831141EF8D2114893B55
:1001A000E65516CFFEE6DB18D1844B381BF77C1DD5
:1001B000901DA4BBE424203284725E228100C9F128
:1001C00024ECA1E53D275254432063686970204424
:1001D00053333233314D20696E697469616C697AC9
:1001E00065642E006E6F6E2074726F766F206D6F77
:1001F00064756C6F20525443204453333233314D75
:100200004D2E20526970726F766F207472612033A8
:10021000732E004A756E2020392032303231003181
:10022000333A34353A3532001F1C1F1E1F1E1F1F64
:100230001E1F1E1F0000000004030807000002002C
:10024000090A00000000000000000000000000009B
:10025000000000010102040810204080010210206B
:1002600040801020408010082004408001020408D3
:100270000102040804040404040404040202020247
:100280000202010101010303030303030101010150
:1002900003030202000000002300260029000000E2
:1002A0000000250028002B0000000000240027008B
:1002B0002A00EB19F2244A254228292A342A062C3E
:1002C000D62F6536E837091B11241FBECFEFD0E4C7
:1002D000DEBFCDBF1AE0A0E0B1E0E6EFFAE800E053
:1002E0000BBF02C007900D92A237B107D9F72DE0DE
:1002F000A2E7BAE001C01D92AA3BB207E1F711E004
:10030000C3E6D1E004C02197FE010E94CE3FC9356B
:10031000D107C9F70E9474380C946F4571CE80E004
:1003200090E00895089544980895449A0895EF92AE
:10033000FF920F931F93CF93DF93CDB7DEB76897EC
:100340000FB6F894DEBF0FBECDBF82E59AE09A8368
:1003500089834091BB0A5091BC0A6091BD0A70919B
:10036000BE0A4B835C836D837E8398878F83409125
:10037000C10A5091C20A6091C30A7091C40A4987A8
:100380005A876B877C879E878D874091C70A5091DB
:10039000C80A6091C90A7091CA0A4F87588B698B45
:1003A0007A8B9C8B8B8B8091CD0A9091CE0AA091F9
:1003B000CF0AB091D00A8D8B9E8BAF8BB88FCE01B8
:1003C00001967C018E01095F1F4F9E01235F3F4F05
:1003D000AE014D5E5F4F6EE271E08DE09CE00E94E9
:1003E000FC2768960FB6F894DEBF0FBECDBFDF9135
:1003F000CF911F910F91FF90EF9008951816190655
:1004000044F4EFE9FFE03197F1F700C000000197F5
:10041000F5CF0895CF9380E19DE00E94F938CDE7B4
:1004200067EE71E080E19DE00E94F138C150C1F7B4
:1004300080E19DE0CF910C94F938CF93DF93D82FD2
:10044000C0E0CD1741F069EE71E080E19DE00E94CF
:10045000F138CF5FF6CFDF91CF910895CF93C82FBA
:1004600081E0EBDF6BEE71E080E19DE00E94F1380E
:10047000CC2319F06FEE71E002C064EF71E080E10F
:100480009DE00E94F13881E0CF91D7CF0F931F9369
:10049000CF93DF93EC018B016DEE71E080E19DE085
:1004A0000E941C396DEE71E080E19DE00E941C39D4
:1004B0006EE172E080E19DE00E941C39C017D10717
:1004C00034F460E0CE010E9461452196F7CF6BE3E2
:1004D00072E080E19DE00E941C396DEE71E080E1E8
:1004E0009DE00E941C396DEE71E080E19DE0DF919E
:1004F000CF911F910F910C941C39CF92DF92EF9204
:10050000FF920F931F93CF93DF936A017B01C0E0AB
:10051000D0E0082F10E0C017D10724F4C6016EDF29
:100520002196F9CFDF91CF911F910F91FF90EF901E
:10053000DF90CF9008958232910509F49AC06CF54E
:100540008A30910509F483C0A4F48630910509F43A
:1005500075C08930910509F45DC0059709F0CFC0D9
:100560006091060180E19DE00E94F23820E030E0D9
:1005700059C08231910509F473C08132910509F4A3
:1005800054C0419709F0BBC06091080180E19DE033
:100590000E94F23822E030E045C08036910509F42F
:1005A00099C0ACF48834910509F482C08035910576
:1005B00009F487C08434910509F0A1C0609112014B
:1005C00080E19DE00E94F23820E030E08BC0883866
:1005D000910509F459C06CF48438910509F08FC075
:1005E00060910E0180E19DE00E94F23820E030E051
:1005F0005CC08039910509F450C0803A910509F03A
:100600007EC06091110180E19DE00E94F23823E0FC
:1006100030E04BC06091070180E19DE00E94F2381C
:1006200021E030E080E090E05FC06091090180E16E
:100630009DE00E94F23823E030E0F4CF60910A019F
:1006400080E19DE00E94F23820E030E01AC0609125
:100650000B0180E19DE00E94F23821E030E011C002
:1006600060910C0180E19DE00E94F23822E030E0D0
:1006700008C060910D0180E19DE00E94F23823E006
:1006800030E081E090E030C060910F0180E19DE0BA
:100690000E94F23821E030E008C06091100180E152
:1006A0009DE00E94F23822E030E082E090E01CC041
:1006B0006091130180E19DE00E94F23821E030E07A
:1006C00011C06091140180E19DE00E94F23822E0A7
:1006D00030E008C06091150180E19DE00E94F23891
:1006E00023E030E083E090E0880F991F880F991F86
:1006F0008A5F9E4FFC01E20FF31F808108958EE414
:100700000895CF93DF93EC0189E49BE00E94613070
:1007100061E089E49BE00E94F23841E060E089E416
:100720009BE00E946730BE016A5F7F4F89E49BE0D7
:100730000E94E33842E060E089E49BE00E94673079
:10074000BE01645F7F4F89E49BE00E94E33843E091
:1007500060E089E49BE00E946730BE016E5E7F4FDF
:1007600089E49BE0DF91CF910C94E338CF92DF9244
:10077000EF92FF926B017C0189E49BE00E94613063
:100780006091220B7091230B4AE050E081ED9AE0DA
:10079000B8DFC092870AD092880AE092890AF09264
:1007A0008A0A8FE19EE40197F1F700C0000081E81A
:1007B0009AE00E94F42260938B0A70938C0A8093D3
:1007C0008D0A90938E0A8FE19EE40197F1F700C0A5
:1007D00000008091220B9091230B01969093230BA4
:1007E0008093220BFF90EF90DF90CF9008958F922F
:1007F0009F92AF92BF92CF92DF92EF920F931F938F
:10080000CF93DF93CDB7DEB7A2970FB6F894DEBFD4
:100810000FBECDBF5C014B016AEE71E0CE014D967B
:100820000E94B73B08EC10E029E63BE042E65BE0C3
:1008300060E082E39BE00E94672080936A0B88233C
:1008400009F4A3C08091690B843009F098C086E058
:10085000E7E6F1E0DE01579601900D928A95E1F707
:10086000CE0147966C01E12C04E010E020E030E07E
:1008700044E062E67BE082E39BE00E94BB20809341
:100880006A0B882309F46BC080E1F401DE01119644
:1008900001900D928A95E1F7AE014F5F5F4F64E0E2
:1008A00082E39BE00E944E2180936A0B9FEF21EE32
:1008B00084E0915020408040E1F700C00000AE018C
:1008C0004F5F5F4F64E082E39BE00E941B218093B7
:1008D0006A0B6CE472E080E19DE00E941C39BE016D
:1008E0006F5F7F4FCE0141960E94B73B80916A0BAC
:1008F000882301F1BE016F5E7F4F80E19DE00E9481
:100900000C398D899E89069759F4BE016F5E7F4F21
:10091000C5010E94063CCE0141960E94503B3BC05F
:100920009FEF21EE84E0915020408040E1F700C02D
:10093000000010C089E49BE00E94613041E060E06B
:1009400089E49BE00E9467306AE572E089E49BE0FD
:100950000E94F138CE0141960E94503B10C089E4BC
:100960009BE00E94613041E060E089E49BE00E94EE
:10097000673064E672E089E49BE00E94F1386AEE39
:1009800071E080E19DE00E941C39BE01635E7F4FF3
:10099000C5010E94063CCE014D960E94503BC50108
:1009A000A2960FB6F894DEBF0FBECDBFDF91CF91F8
:1009B0001F910F91EF90DF90CF90BF90AF909F90DD
:1009C0008F900895AF92BF92CF92DF92EF92FF92F5
:1009D0000F931F93CF93DF93CDB7DEB7A2970FB6D8
:1009E000F894DEBF0FBECDBF5C01F62E6AEE71E05B
:1009F000CE014D960E94B73B08EC10E029E63BE0A3
:100A000042E65BE060E082E39BE00E946720809327
:100A10006A0B882309F49DC04EE150E060E070E06D
:100A200082E06BDD8091690B843009F08CC086E038
:100A3000E7E6F1E0DE01579601900D928A95E1F725
:100A4000CE0147966C01E12C04E010E020E030E09C
:100A500044E062E67BE082E39BE00E94BB2080935F
:100A60006A0B882309F45FC0FF2099F080E1E1EB75
:100A7000F9E0DE01119601900D928A95E1F7AE0141
:100A80004F5F5F4F64E082E39BE00E944E218093C2
:100A90006A0BAE014F5F5F4F64E082E39BE00E9410
:100AA0001B2180936A0B882389F16CE472E080E15A
:100AB0009DE00E941C39BE016F5F7F4FCE014196C1
:100AC0000E94B73BBE016F5E7F4F80E19DE00E94B8
:100AD0000C398D899E89069759F4BE016F5E7F4F50
:100AE000C5010E94063CCE0141960E94503B37C092
:100AF0009FEF21EE84E0915020408040E1F700C05C
:100B00000000CE0141960E94503B1DC089E49BE04D
:100B10000E94613041E060E089E49BE00E94673020
:100B20006CE672E00CC089E49BE00E94613041E019
:100B300060E089E49BE00E94673069E772E089E445
:100B40009BE00E94F1386AEE71E080E19DE00E9436
:100B50001C39BE01635E7F4FC5010E94063CCE0179
:100B60004D960E94503BC501A2960FB6F894DEBF89
:100B70000FBECDBFDF91CF911F910F91FF90EF90EE
:100B8000DF90CF90BF90AF900895CF92DF92EF9219
:100B9000FF920F931F93CF93DF93CDB7DEB7649788
:100BA0000FB6F894DEBF0FBECDBF7C01CE0101961B
:100BB0006C0187E0F60111928A95E9F767E872E027
:100BC000C7010E94B73B00E010E09E012C5E3F4F42
:100BD000A60160E082E39BE00E946720882359F130
:100BE0000C8910E020E030E0A60162E37BE0CE015A
:100BF0000E960E945D1ECE010E960E944F3E28E08A
:100C000030E040E050E0BE01625F7F4FCE010896C9
:100C10000E940C3EBE01685F7F4FC7010E942B3CC3
:100C2000CE0108960E94503B81E08093610BCE017B
:100C30000E960E94503BC70164960FB6F894DEBF33
:100C40000FBECDBFDF91CF911F910F91FF90EF901D
:100C5000DF90CF900895EF92FF920F931F93CF9361
:100C6000DF93CDB7DEB762970FB6F894DEBF0FBE45
:100C7000CDBF8C017B016EE872E0CE010D960E9423
:100C8000B73BC8DB66E972E080E19DE00E941C3959
:100C900020914F0130915001F701848195812817EF
:100CA000390749F5A90143505109B701CE0107960B
:100CB0000E940C3E6EEA72E0CE0101960E94B73BA4
:100CC000BE01695F7F4FCE0101960E948C3DBC0141
:100CD00080E19DE00E940C39CE0101960E94503BBC
:100CE000BE01695F7F4FC8010E94063CCE01079696
:100CF0000E94503B09C080E0B1DB8CDBBE01635F2A
:100D00007F4FC8010E94063CCE010D960E94503BC9
:100D1000C80162960FB6F894DEBF0FBECDBFDF915B
:100D2000CF911F910F91FF90EF900895AF92BF92D6
:100D3000CF92DF92EF92FF920F931F93CF93DF93A7
:100D4000CDB7DEB762970FB6F894DEBF0FBECDBF4A
:100D50005C017B018A0169015DDB81E06EDB68E992
:100D600074E080E19DE00E94F138A501B701C8015F
:100D70000E948A28892B09F4C3C02FEF81EE94E0EA
:100D8000215080409040E1F700C0000065ED74E024
:100D9000CE0101960E94B73BB601CE0101960E949A
:100DA0008C3D6FE073E00E949D3DBC0186E29BE0BC
:100DB0000E940E3CCE0101960E94503BB701CE012D
:100DC00001960E94B73B62E075E0CE0107960E9453
:100DD000B73BBE016F5F7F4FCE0107960E948C3DEF
:100DE000BC0186E29BE00E94663DCE0107960E9410
:100DF000503BCE0101960E94503B68E173E086E2D1
:100E00009BE00E946C3D6FE873E086E29BE00E94ED
:100E10006C3D68E173E086E29BE00E946C3D69E313
:100E200074E086E29BE00E946C3D68E173E086E23C
:100E30009BE00E946C3D69E075E086E29BE00E94C9
:100E40006C3D68E173E086E29BE00E946C3D68E1E6
:100E500073E086E29BE00E946C3D66E27BE080E10D
:100E60009DE00E940C3966E27BE0C8010E94E338F5
:100E70002FEF83EC99E0215080409040E1F700C0D3
:100E8000000068E574E0C8010E941C39C8010E9496
:100E9000F9388FE39CE90197F1F700C0000065E1A4
:100EA00075E0CE010D960E94B73BC8010E94012952
:100EB000892B09F44CC020911D0B30911E0B8091A1
:100EC0004F01909150012817390708F040C0C80120
:100ED0000E940B29F82E69E17BE0CE0101960E9469
:100EE000233C6F2DCE0101960E94B43DBC0189E1E7
:100EF0009BE00E940E3CCE0101960E94503BD5CF54
:100F000089E49BE00E94613041E060E089E49BE07D
:100F10000E9467306AE674E089E49BE00E94F13841
:100F200043E060E089E49BE00E9467306FE774E093
:100F300089E49BE00E94F1389FEF23ED80E391501C
:100F400020408040E1F700C0000080E038C069E147
:100F50007BE0CE0107960E94233CBE01695F7F4F74
:100F6000CE01019678DEBE016F5F7F4FCE010D96F8
:100F70000E942B3CCE0101960E94503BCE01079669
:100F80000E94503B9FEF27EE83E09150204080402D
:100F9000E1F700C0000064E974E0CE010D960E9404
:100FA000C03D882351F081E059DA34DA11E0CE01F6
:100FB0000D960E94503B812F02C010E0F8CF629640
:100FC0000FB6F894DEBF0FBECDBFDF91CF911F915A
:100FD0000F91FF90EF90DF90CF90BF90AF9008956A
:100FE000AF92BF92CF92DF92EF92FF920F931F9337
:100FF000CF93DF93CDB7DEB762970FB6F894DEBF1D
:101000000FBECDBF5C016B018A01790103DA81E07B
:1010100014DA67E175E080E19DE00E94F138A501F6
:10102000B601C8010E948A28892B09F4E6C02FEF77
:1010300081EE94E0215080409040E1F700C0000034
:1010400067E575E086E29BE00E94363CB601CE0182
:1010500001960E94B73B62E075E0CE0107960E94C0
:10106000B73BBE016F5F7F4FCE0107960E948C3D5C
:10107000BC0186E29BE00E94663DCE0107960E947D
:10108000503BCE0101960E94503B68E173E086E23E
:101090009BE00E946C3D6FE873E086E29BE00E945B
:1010A0006C3D68E173E086E29BE00E946C3D69E381
:1010B00074E086E29BE00E946C3D68E173E086E2AA
:1010C0009BE00E946C3D69E075E086E29BE00E9437
:1010D0006C3D68E173E086E29BE00E946C3DF701A5
:1010E000648175816B5E7F4F4AE0CE0101960E945C
:1010F000B73C69E775E0CE0107960E94B73BBE0199
:101100006F5F7F4FCE0107960E948C3DBC0186E247
:101110009BE00E94663DCE0107960E94503BCE01A7
:1011200001960E94503B68E173E086E29BE00E94DA
:101130006C3D68E173E086E29BE00E946C3DB70184
:1011400086E29BE00E94663D68E173E086E29BE0F8
:101150000E946C3D66E27BE080E19DE00E940C39DC
:1011600066E27BE0C8010E94E338FFEF23EC89E0F0
:10117000F15020408040E1F700C0000068E574E0D5
:10118000C8010E941C39C8010E94F938EFE3FCE94C
:101190003197F1F700C0000065E175E0CE010D96D2
:1011A0000E94B73BC8010E940129892B09F44CC059
:1011B00020911D0B30911E0B80914F019091500199
:1011C0002817390708F040C0C8010E940B29F82EE3
:1011D00069E17BE0CE0101960E94233C6F2DCE0198
:1011E00001960E94B43DBC0189E19BE00E940E3C47
:1011F000CE0101960E94503BD5CF89E49BE00E942E
:10120000613041E060E089E49BE00E9467306AE67B
:1012100074E089E49BE00E94F13843E060E089E4F7
:101220009BE00E9467306FE774E089E49BE00E94D6
:10123000F138FFEF23ED80E3F15020408040E1F7EB
:1012400000C0000080E038C069E17BE0CE01079675
:101250000E94233CBE01695F7F4FCE010196FBDCFB
:10126000BE016F5F7F4FCE010D960E942B3CCE01D9
:1012700001960E94503BCE0107960E94503B9FEF83
:10128000E7EEF3E09150E040F040E1F700C00000ED
:1012900064E974E0CE010D960E94C03D882351F0B0
:1012A00081E0DCD8B7D811E0CE010D960E94503B0A
:1012B000812F02C010E0F8CF62960FB6F894DEBF1F
:1012C0000FBECDBFDF91CF911F910F91FF90EF9097
:1012D000DF90CF90BF90AF9008955798569888E0D0
:1012E0008093680080EC8093730078940895099847
:1012F0000A98089591E090936800843419F40D9849
:1013000080E202C00E9880E480936B007894089588
:10131000CF92DF92EF92FF920197BC01990F880B59
:10132000990B0E94D6366B017C0120E030E0A901C8
:101330000E94683687FF03C0C12CD12C76016091D2
:101340004D0170914E01072E000C880B990B0E94E5
:10135000D6369B01AC01C701B6010E946C36FF90E6
:10136000EF90DF90CF9008953F9A8130910571F012
:1013700082309105E1F0892B89F547982FEF30E70E
:1013800042E0215030404040E1F70EC028B101C09A
:10139000880F6A95EAF7822B88B98FEF90E722E0F1
:1013A000815090402040E1F700C00000089528B12E
:1013B00081E090E001C0880F6A95EAF7982F909538
:1013C000922398B93FEF45EA2EE03150404020404B
:1013D000E1F700C0000098B1892B88B908950F9AF1
:1013E00081309105B9F08230910529F1892BD1F531
:1013F00022B181E090E001C0880F6A95EAF78095FC
:10140000822382B92FEF30E742E021503040404044
:10141000E1F70EC022B101C0880F6A95EAF7822B6E
:1014200082B98FEF90E722E0815090402040E1F7B1
:1014300000C00000089522B181E090E001C0880F53
:101440006A95EAF7982F9095922392B93FEF45EA73
:101450002EE0315040402040E1F700C0000092B142
:10146000892B82B90895239A2FEF36E741E0215066
:1014700030404040E1F700C000008130910511F498
:101480002B9A0895892B09F42B9808956AEE71E040
:1014900089E19BE00E94363C1092210B1092200BB8
:1014A0001092610B65E175E08BE69BE00E94363C93
:1014B00065E175E081E79BE00E94363C61E878E0F9
:1014C00087E79BE00E94363C10921F0B67E070E0BC
:1014D00081E090E049DF67E070E081E090E07FDF4D
:1014E00080E090E0C0DF8FE19EE40197F1F700C05B
:1014F00000008FE99AE00E9449298FE99AE00E9452
:101500008E298FE19EE40197F1F700C000008CEA7C
:101510009AE00E9449298CEA9AE00E948E29109252
:10152000250B1092240B8FE19EE40197F1F700C088
:1015300000002C988FE19EE40197F1F700C00000B5
:101540002C9A8FE19EE40197F1F700C000000E9401
:1015500095018FE19EE40197F1F700C000000E9421
:10156000930182B182B982B182B96AEE71E087EDEE
:101570009AE00E94363C6AEE71E08DED9AE00E949E
:10158000363C6AEE71E08DED9AE00E94363C89E4CB
:101590009BE00E94513089E49BE00E94A9301092A8
:1015A0008F0A1092900A1092910A1092920A109249
:1015B0008B0A10928C0A10928D0A10928E0A0E9449
:1015C0000A026AE875E080E19DE00E941C390E94F1
:1015D0000A026AEE71E08BE79AE00E94363C8FEFD8
:1015E0009FEF9093230B8093220B0895CF93DF936B
:1015F000CDB7DEB762970FB6F894DEBF0FBECDBF92
:10160000813421F1D8F4833209F486C08A3209F09A
:10161000B3C06AEE71E08BE79AE00E94363C6FE956
:1016200075E087ED9AE00E94363C6AEE71E08DED40
:101630009AE00E94363C6AEE71E08FC0833409F470
:1016400051C0A0F08E3409F4D2C096C080917F0AB8
:101650009091800A059709F0CAC06BE77AE0CE0145
:1016600001960E94233C6BE975E00FC080917F0AD0
:101670009091800A059709F0BAC06BE77AE0CE0135
:1016800001960E94233C6DE975E0CE0101960E940F
:101690009D3DBC01CE0107960E94233CCE010196E0
:1016A0000E94503B20E030E047E050E0BE01635F25
:1016B0007F4FCE0107960E94DE3DBE01635F7F4FE4
:1016C000CE01019694D88FE39CE90197F1F700C011
:1016D0000000CE0101960E94503BCE0107960E9469
:1016E000503B85C020917F0A3091800A2115310539
:1016F00009F47DC02150310940E050E06BE77AE009
:10170000CE0101960E940C3EBE016F5F7F4F8BE7BA
:101710009AE00E942B3C3CC080917F0A9091800A05
:10172000059709F064C06BE77AE081E79BE00E94CF
:101730000E3C61E77BE08BEF9AE00E940E3C60EE8E
:1017400075E087ED9AE00E94363C64EF75E08DED20
:101750009AE00E94363C63E076E083EE9AE00E94D5
:10176000363C609122017091230180912401909177
:1017700025010E94B6033BC0682FCE0101960E944E
:101780004B3CBE016F5F7F4F8BE79AE00E94663D46
:10179000CE0101960E94503B62EB75E087ED9AE026
:1017A0000E94363C64EC75E0CE0101960E94B73B86
:1017B0006BE77AE0CE0101960E948C3DBC018DED75
:1017C0009AE00E940E3CCE0101960E94503B6BECC9
:1017D00075E083EE9AE00E94363C6091220B709196
:1017E000230B4AE050E081ED9AE00E94810362966B
:1017F0000FB6F894DEBF0FBECDBFDF91CF91089535
:10180000CF93DF9300D000D000D0CDB7DEB78334C4
:1018100060F4813408F0BFC08A3209F4BCC08E3253
:1018200009F4B9C0833209F17BC0833421F08E34CE
:1018300009F076C0B0C02091790A30917A0A21155A
:10184000310509F47DC02150310940E050E065E7E1
:101850007AE0CE0101960E940C3EBE016F5F7F4F81
:1018600085E79AE00E942B3C67C08091790A9091AD
:101870007A0A049709F08FC06BE975E08BE69BE06C
:101880000E94C03D882351F067E070E080E090E066
:101890006BDD84E42FDD6BEF75E011C06DE975E061
:1018A0008BE69BE00E94C03D882369F067E070E012
:1018B00080E090E094DD82E41DDD6AE076E083EE76
:1018C0009AE00E94363C65E77AE087E79BE00E9459
:1018D0000E3C67E77BE08DE09BE00E940E3C62E3FC
:1018E00076E087ED9AE00E94363C6AEE71E08DED7D
:1018F0009AE00E94363C0E9495018FE39FE1019798
:10190000F1F700C000000E94930160911E017091E8
:101910001F0180912001909121010E94B6033BC0DC
:10192000682FCE0101960E944B3CBE016F5F7F4F36
:1019300085E79AE00E94663DCE0101960E94503BE9
:1019400062E176E087ED9AE00E94363C63E276E061
:10195000CE0101960E94B73B65E77AE0CE01019681
:101960000E948C3DBC018DED9AE00E940E3CCE01A0
:1019700001960E94503B67E276E083EE9AE00E9477
:10198000363C6091220B7091230B4AE050E081EDD0
:101990009AE00E94810326960FB6F894DEBF0FBE30
:1019A000CDBFDF91CF9108954F925F926F927F925A
:1019B0008F929F92AF92BF92CF92DF92EF92FF925F
:1019C0000F931F93CF93DF9300D000D000D0CDB7FB
:1019D000DEB77C015B014DB65EB66AE477E00E943B
:1019E000B73BF501C284D3848DB79EB78C199D098E
:1019F0000FB6F8949EBF0FBE8DBFEDB7FEB7319600
:101A00004F013F01F50104851585C00ED11E0C154F
:101A10001D054CF4C8010E945945F30181933F0113
:101A20000F5F1F4FF4CF6DEE71E080E19DE00E94EB
:101A30001C396DEE71E080E19DE00E941C39B4011B
:101A4000CE0101960E94B73BBE016F5F7F4FC70179
:101A50000E942B3CCE0101960E94503BB501CE0165
:101A600001960E94233C66E178E0CE0101960E9437
:101A70009D3DBC0180E19DE00E94E338CE010196CE
:101A80000E94503BB70180E19DE00E940C39C701E4
:101A90000FB6F8945EBE0FBE4DBE26960FB6F894F4
:101AA000DEBF0FBECDBFDF91CF911F910F91FF9091
:101AB000EF90DF90CF90BF90AF909F908F907F90EE
:101AC0006F905F904F9008954F925F926F927F92C8
:101AD0008F929F92AF92BF92CF92DF92EF92FF923E
:101AE0000F931F93CF93DF93CDB7DEB72C970FB62D
:101AF000F894DEBF0FBECDBF7C016B012A016DB62D
:101B00007EB66AE477E00E94B73B8DB79EB78C192A
:101B10009D090FB6F8949EBF0FBE8DBFEDB7FEB7FF
:101B200031965F016DEE71E080E19DE00E941C390D
:101B300062E476E080E19DE00E941C396DEE71E088
:101B400080E19DE00E941C3945018201C40CD51C36
:101B50000C151D055CF5C8010E945945F4018193DF
:101B60004F01882301F14AE0682FCE0107960E94B9
:101B7000623C6DEE71E0CE0101960E94B73BBE0162
:101B8000695F7F4FCE0101960E948C3DBC0180E1D0
:101B90009DE00E94E338CE0101960E94503BCE01A9
:101BA00007960E94503B0F5F1F4FD2CF6DEE71E042
:101BB00080E19DE00E941C396DEE71E080E19DE0C6
:101BC0000E941C39B501CE0101960E94B73BBE01AF
:101BD0006F5F7F4FC7010E942B3CCE0101960E9490
:101BE000503B65E576E080E19DE00E94F138B70169
:101BF00080E19DE00E940C39C7010FB6F8947EBECB
:101C00000FBE6DBE2C960FB6F894DEBF0FBECDBFD3
:101C1000DF91CF911F910F91FF90EF90DF90CF90C8
:101C2000BF90AF909F908F907F906F905F904F90FC
:101C300008958F929F92AF92BF92CF92DF92EF92D0
:101C4000FF920F931F93CF93DF93CDB7DEB72C97FF
:101C50000FB6F894DEBF0FBECDBF6B014A01ADB623
:101C6000BEB62DB73EB7261B370B0FB6F8943EBF56
:101C70000FBE2DBFEDB7FEB731967F01FC01448149
:101C800055814F5F5F4F20E030E0B7010E94DE3D9D
:101C90004AE0B601CE0107960E948D3C69EF71E0E3
:101CA000CE0101960E94B73BBE01695F7F4FCE0116
:101CB00001960E948C3DBC0180E19DE00E940C39A0
:101CC000CE0101960E94503BCE0107960E94503BE8
:101CD00060E072E080E19DE00E941C396DEE71E0F1
:101CE00080E19DE00E941C398401C80CD91C0C15B0
:101CF0001D056CF5F7016081662319F1C8010E948A
:101D00006145F7016081CE0107960E944B3C6DEE64
:101D100071E0CE0101960E94B73BBE01695F7F4F23
:101D2000CE0101960E948C3DBC0180E19DE00E94A5
:101D3000E338CE0101960E94503BCE0107960E94E7
:101D4000503B0F5F1F4FFFEFEF1AFF0AD0CF6DEE32
:101D500071E080E19DE00E941C3981E00FB6F894AB
:101D6000BEBE0FBEADBE2C960FB6F894DEBF0FBE42
:101D7000CDBFDF91CF911F910F91FF90EF90DF903A
:101D8000CF90BF90AF909F908F9008950F931F9327
:101D9000CF93DF93EC018B010E94233CB8016A5F73
:101DA0007F4FCE0106960E94233CF80184859585DD
:101DB0009D878C87DF91CF911F910F910895CF93CD
:101DC000DF93EC0106960E94503BCE01DF91CF914C
:101DD0000C94503BFC01DB0112968D919C91139762
:101DE0009383828314964D915D916D917C911797A9
:101DF000448355836683778318964D915D916D91E9
:101E00007C911B9740875187628773878EEC99E09E
:101E1000918380831C968C9184870895CF92DF9262
:101E2000EF92FF920F931F93CF93DF93CDB7DEB75F
:101E3000AA970FB6F894DEBF0FBECDBFE091220B7C
:101E4000F091230B3296ED30F10508F097C7EA5B6D
:101E5000FF4F0C94CE3F0E940A026CE676E080E1D0
:101E60009DE00E94F1386091B90B7091BA0BCE01E0
:101E700001968CDFBE016F5F7F4FCE01859694DDAA
:101E8000CE0101969CDF49A55AA54F5F5F4F20E028
:101E900030E064E371E0CE0185960E94DE3D0E9451
:101EA0000A026091B90B7091BA0B625F7F4FCE014D
:101EB00001966CDFBE016F5F7F4FCE014F9674DDE0
:101EC000CE0101967CDF0E940A026091B90B7091ED
:101ED000BA0B645E7F4FCE01019658DFBE016F5F83
:101EE0007F4FCE01479660DDCE01019668DF0E94EC
:101EF0000A026091B90B7091BA0B665D7F4FCE01FB
:101F0000019644DFBE016F5F7F4FCE010F964CDD1F
:101F1000CE01019654DF4B895C894F5F5F4F20E013
:101F200030E066E471E0CE010F960E94DE3D0E9433
:101F30000A028091220B9091230B01969093230B20
:101F40008093220BCE010F960E94503BCE01479604
:101F50000E94503BCE014F960E94503BCE01859689
:101F60000BC72FEF39EF80E0215030408040E1F780
:101F700000C00000B2D99FEF29EF30E0915020401F
:101F80003040E1F700C00000B2D98FEF99EF20E0B8
:101F9000815090402040E1F700C000008091220B6A
:101FA0009091230B01969093230B8093220BE6C60E
:101FB0003FEF83ED90E3315080409040E1F700C067
:101FC00000001092610B0E94930165E876E087EDB6
:101FD0009AE00E94363C6AEE71E08DED9AE00E9434
:101FE000363C69E976E083EE9AE00E94363C6091E7
:101FF000220B7091230B42E350E081ED9AE00E94A6
:1020000081038091220B9091230B01969093230BD7
:102010008093220B2FEF39E688E121503040804039
:10202000E1F700C00000AAC66AEE71E08BE79AE013
:102030000E94363C6AEE71E085E79AE00E94363CE9
:1020400067E872E0CE0147960E94B73B8091610B32
:10205000811116C0CE0101960E94C505BE016F5FB9
:102060007F4FCE0147960E942B3CCE0101960E94E5
:10207000503B44E650E060E070E082E00E947D0268
:1020800067E872E0CE0147960E94C03D811102C010
:10209000449BC0C662EB75E087ED9AE00E94363C37
:1020A00064EC75E08DED9AE00E94363C6BEC75E0D7
:1020B00083EE9AE00E94363CBE01695E7F4FCE01FE
:1020C0000F960E94233C6FE97AE0CE01019682DEF2
:1020D0009E01215F3F4FAE014F5F5F4F64E371E0B0
:1020E00080E590E00E949606182FCE010F960E9480
:1020F000503B449A112309F166EC77E083E19BE0C1
:102100000E94363C48EC50E060E070E081E00E94C4
:102110007D029FEF20E732E0915020403040E1F710
:1021200000C0000060912A0170912B0180912C0168
:1021300090912D010E94B60337C06CEA76E083E1EE
:102140009BE00E94363C48EC50E060E070E083E0A9
:102150000E947D0289E49BE00E94613060EB76E0A2
:1021600087ED9AE00E94363C64EC76E08DED9AE0D3
:102170000E94363C6AEE71E083EE9AE00E94363CA3
:102180006091220B7091230B4AE050E081ED9AE0C0
:102190000E9481038FEF93ED20E381509040204017
:1021A000E1F700C0000072D9CE014796E5C540E0D6
:1021B00060E089E49BE00E94673061E089E49BE095
:1021C0000E94F23840918B0A50918C0A60918D0ADE
:1021D00070918E0A8091870A9091880AA091890A4D
:1021E000B0918A0A480F591F6A1F7B1F415051093D
:1021F0006109710980918F0A9091900AA091910ACA
:10220000B091920A481B590B6A0B7B0B2AE0CE0156
:102210000F960E94E13C68EF76E0CE0101960E94A5
:10222000B73BBE01615F7F4FCE0101960E948C3D9E
:1022300066ED76E00E949D3DBC0189E49BE00E9432
:10224000E338CE0101960E94503BCE010F960E94CA
:10225000503B6CE382E79AE00E94EA1D82E79AE035
:102260000E94011EE82E42E0BE01695E7F4F90E0B1
:102270000E948B4263EC82E79AE00E94EA1D82E7AB
:102280009AE00E94011EF82E42E0BE01615F7F4F7E
:1022900090E00E948B42FE24EF2CF12C42E0BE0124
:1022A0006F5F7F4FC7010E948B42C7010E949B0254
:1022B0003FEF99EF20E0315090402040E1F700C01F
:1022C000000094D95BC540E060E089E49BE00E9497
:1022D000673061E089E49BE00E94F23840918B0A0C
:1022E00050918C0A60918D0A70918E0A8091870AB4
:1022F0009091880AA091890AB0918A0A480F591FC3
:102300006A1F7B1F415051096109710980918F0A31
:102310009091900AA091910AB091920A481B590B92
:102320006A0B7B0B2AE0CE010F960E94E13C68EF1E
:1023300076E0CE0101960E94B73BBE01615F7F4F00
:10234000CE0101960E948C3D66ED76E00E949D3D97
:10235000BC0189E49BE00E94E338CE0101960E9413
:10236000503BCE010F960E94503B80917F0A909186
:10237000800A0597E9F465E175E08BE69BE00E9431
:10238000363C6BE77AE081E79BE00E940E3C61E817
:1023900078E087E79BE00E94363C10921F0B60912B
:1023A00022017091230180912401909125012EC773
:1023B00060E0CE010F960E94E2048FE39CE9019752
:1023C000F1F700C00000BE01615F7F4F80E19DE03A
:1023D0000E940C392B893C8945E050E0BE01615FC9
:1023E0007F4FCE0101960E940C3EBE016F5F7F4F72
:1023F0008BE69BE00E942B3CCE0101960E94503B55
:1024000025E030E040E050E0BE01615F7F4FCE014B
:1024100001960E940C3EBE016F5F7F4F81E79BE0FB
:102420000E942B3CCE0101960E94503B61E878E06F
:1024300087E79BE00E94363C6CED76E0CE0101968A
:102440000E94B73B6BE67BE0CE0101960E948C3D7B
:10245000BC0180E19DE00E940C39CE0101960E94F2
:10246000503B6EEE76E0CE0101960E94B73B61E7ED
:102470007BE0CE0101960E948C3DBC0180E19DE095
:102480000E940C39CE0101960E94503B6DE975E027
:102490008BE69BE00E94C03D811127C56BE975E08A
:1024A0008BE69BE00E94C03D81111FC5CE010F96B7
:1024B00063C440E060E089E49BE00E94673061E033
:1024C00089E49BE00E94F23840918B0A50918C0A7B
:1024D00060918D0A70918E0A8091870A9091880A86
:1024E000A091890AB0918A0A480F591F6A1F7B1F61
:1024F000415051096109710980918F0A9091900AA8
:10250000A091910AB091920A481B590B6A0B7B0B60
:102510002AE0CE010F960E94E13C68EF76E0CE0102
:1025200001960E94B73BBE01615F7F4FCE010196CD
:102530000E948C3D66ED76E00E949D3DBC0189E4E1
:102540009BE00E94E338CE0101960E94503BCE01F1
:102550000F960E94503B6DE975E08BE69BE00E9470
:10256000C03D8111F9C480911F0B823009F020C554
:10257000F3C440E060E089E49BE00E94673061E0E2
:1025800089E49BE00E94F23840918B0A50918C0ABA
:1025900060918D0A70918E0A8091870A9091880AC5
:1025A000A091890AB0918A0A480F591F6A1F7B1FA0
:1025B000415051096109710980918F0A9091900AE7
:1025C000A091910AB091920A481B590B6A0B7B0BA0
:1025D0002AE0CE010F960E94E13C68EF76E0CE0142
:1025E00001960E94B73BBE01615F7F4FCE0101960D
:1025F0000E948C3D66ED76E00E949D3DBC0189E421
:102600009BE00E94E338CE0101960E94503BCE0130
:102610000F960E94503B6CE382E79AE00E94EA1D0D
:1026200082E79AE00E94011EE82E42E0BE01695E48
:102630007F4F90E00E948B4263EC82E79AE00E9419
:10264000EA1D82E79AE00E94011EF82E42E0BE01D8
:10265000615F7F4F90E00E948B42FE24EF2CF12CB3
:1026600042E0BE016F5F7F4FC7010E948B42C701EE
:102670000E949B029FEF29EF30E0915020403040B4
:10268000E1F700C00000BCD81092210B1092200B83
:1026900075C340E060E089E49BE00E94673061E040
:1026A00089E49BE00E94F23840918B0A50918C0A99
:1026B00060918D0A70918E0A8091870A9091880AA4
:1026C000A091890AB0918A0A480F591F6A1F7B1F7F
:1026D000415051096109710980918F0A9091900AC6
:1026E000A091910AB091920A481B590B6A0B7B0B7F
:1026F0002AE0CE010F960E94E13C68EF76E0CE0121
:1027000001960E94B73BBE01615F7F4FCE010196EB
:102710000E948C3D66ED76E00E949D3DBC0189E4FF
:102720009BE00E94E338CE0101960E94503BCE010F
:102730000F960E94503B019B08C06BE975E08BE649
:102740009BE00E94C03D811176C4199B17C36DE9BF
:1027500075E08BE69BE00E94C03D8111B5C40EC3BD
:1027600040E060E089E49BE00E94673061E089E43A
:102770009BE00E94F23840918B0A50918C0A609144
:102780008D0A70918E0A8091870A9091880AA09193
:10279000890AB0918A0A480F591F6A1F7B1F41504E
:1027A00051096109710980918F0A9091900AA09155
:1027B000910AB091920A481B590B6A0B7B0B2AE0D5
:1027C000CE010F960E94E13C66EF76E0CE010196C5
:1027D0000E94B73BBE01615F7F4FCE0101960E9410
:1027E0008C3D66ED76E00E949D3DBC0189E49BE056
:1027F0000E94E338CE0101960E94503BCE010F9615
:102800000E94503B8091200B9091210B0E948809DF
:102810006B017C0122E0AB01BC01CE010F960E944E
:102820000C3D60E077E0CE0101960E94B73BBE010F
:10283000615F7F4FCE0101960E948C3DBC0187ED08
:102840009AE00E940E3CCE0101960E94503BCE01C0
:102850000F960E94503B6091200B7091210B4AE033
:10286000CE010F960E948D3C68E077E0CE01019684
:102870000E94B73BBE01615F7F4FCE0101960E946F
:102880008C3DBC018DED9AE00E940E3CCE0101967C
:102890000E94503BCE010F960E94503B6EE077E0C5
:1028A000CE0101960E94B73B6CE27BE0CE0101961F
:1028B0000E948C3DBC0183EE9AE00E940E3CCE014A
:1028C00001960E94503B41E060E089E49BE00E9459
:1028D000673067ED7AE089E49BE00E94E33842E0EC
:1028E00060E089E49BE00E9467306DED7AE089E466
:1028F0009BE00E94E33843E060E089E49BE00E94B3
:10290000673063EE7AE089E49BE00E94E338019946
:1029100008C06BE975E08BE69BE00E94C03D811129
:102920001AC419992BC26DE975E08BE69BE00E94F1
:10293000C03D81113FC422C26CE27BE087ED9AE08A
:102940000E940E3C6BE177E08DED9AE00E94363CF0
:102950006AEE71E083EE9AE00E94363C6091220BB1
:102960007091230B44E650E081ED9AE00E948103D0
:102970006AEE71E089EE9AE00E94363C05EF1AE0BB
:1029800029E1E22E2BE0F22EB801CE0101960E9441
:10299000233C69E277E0CE0101960E949D3DBC0197
:1029A00089EE9AE00E94663DCE0101960E94503B5E
:1029B0000A5F1F4FE016F10639F766E471E089EE11
:1029C0009AE00E946C3D6BE277E0CE0101960E9496
:1029D000B73B69EE7AE0CE0101960E948C3DBC01C6
:1029E00080E19DE00E940C39CE0101960E94503B8F
:1029F0000E9495018FE39FE10197F1F700C000006D
:102A00000E9493019FEF23ED30E39150204030402E
:102A1000E1F700C000006EE170E080E090E0F6C3F6
:102A20004499ACC14AE050E069E070E081ED9AE081
:102A30000E9481036AEE71E089EE9AE00E94363CC2
:102A400005EF1AE099E1E92E9BE0F92EB801CE01DD
:102A500001960E94233C69E277E0CE0101960E9434
:102A60009D3DBC0189EE9AE00E94663DCE01019633
:102A70000E94503B0A5F1F4FE016F10639F766E4EB
:102A800071E089EE9AE00E946C3D6BE277E0CE0146
:102A900001960E94B73B69EE7AE0CE0101960E9452
:102AA0008C3DBC0180E19DE00E940C39CE01019675
:102AB0000E94503B8FEF93ED20E3815090402040E7
:102AC000E1F700C0000069EE7AE0CE010F960E94A7
:102AD000233C6CEA7AE0CE0101967CD99E01215F0D
:102AE0003F4FAE014F5F5F4F64E371E080E590E0E0
:102AF0000E94F007182FCE010F960E94503B112321
:102B000051F10E9495013FEF83EC99E031508040F4
:102B10009040E1F700C0000066E377E080E19DE0CF
:102B20000E941C396DE477E080E19DE00E941C3931
:102B30008FE39FE10197F1F700C000000E9493012D
:102B40008FE39FE10197F1F700C000006CE370E0B4
:102B500080E090E05BC30E9495014BE054E064E0AC
:102B600070E0CE014F960E94640DCE014F960E94F8
:102B7000A83E6B017C010091ED0A1091EE0A69EE0E
:102B80007AE0CE0101960E94233CA601B801CE0155
:102B900001964FD8182FCE0101960E94503B112369
:102BA00009F4E6C04AE0B601CE010F960E948D3CC2
:102BB0006AE877E0CE0101960E94B73BBE01615FF3
:102BC0007F4FCE0101960E948C3DBC0180E19DE0CB
:102BD0000E940C39CE0101960E94503BCE010F9607
:102BE0000E94503B92E3C90ED11C29EBC2162BE088
:102BF000D20624F080EDC82E87E0D82E4AE0B60138
:102C0000CE0147960E948D3C0B8D1C8DBE01695EE6
:102C10007F4FCE0101960E94233C4BE054E0B80167
:102C2000CE01019606D8182FCE0101960E94503B86
:102C3000112301F14AE0B601CE010F960E948D3CAE
:102C400060EA77E0CE0101960E94B73BBE01615F6A
:102C50007F4FCE0101960E948C3DBC0180E19DE03A
:102C60000E940C39CE0101960E94503BCE010F9676
:102C70000E94503BCE0147960E94503B79C04BE0EA
:102C800054E064E070E0CE014F960E94640DCE01E6
:102C90004F960E94A83E7B0100ED17E00E151F0520
:102CA0000CF04BC0A80162E370E0CE0147960E9491
:102CB000640D64EB77E0CE0101960E94B73BBE0144
:102CC000695E7F4FCE0101960E948C3DBC0180E180
:102CD0009DE00E940C39CE0101960E94503BBE013E
:102CE000695E7F4FCE010F960E94233C6CEA7AE02A
:102CF000CE0101966FD89E01215F3F4FAE014F5F1D
:102D00005F4F64E371E080E590E00E94F007CE0140
:102D10000F960E94503B0E5C1F4F3FEF83EC99E0F3
:102D2000315080409040E1F700C000000E940A024C
:102D3000CE0147960E94503BB1CF013D27E01207DC
:102D4000BCF065EC77E0CE0101960E94B73B4BE00A
:102D500054E064E070E0CE0101960E94190ECE01AD
:102D600001960E94503BB80180ED97E00E94460218
:102D70000E94460ACE014F960E94503B63E97AE0DA
:102D8000CE0101960E94A32386E0FE013196A1E8C0
:102D9000BAE001900D928A95E1F781E89AE00E94ED
:102DA000F42260938F0A7093900A8093910A909313
:102DB000920A00918B0A10918C0A20918D0A309111
:102DC0008E0AC090870AD090880AE090890AF09015
:102DD0008A0A0C0D1D1D2E1D3F1D68017901C61AA2
:102DE000D70AE80AF90AD701C6010297A105B10579
:102DF00008F00FC28091220B9091230B069719F0D7
:102E00000E94460A06C26EE170E080E090E00E94F7
:102E1000B603FFC16AEE71E080E19DE00E941C39BB
:102E20006AEC77E080E19DE00E94F1386AE078E0AA
:102E3000CE0101960E94B73BBE01695E7F4FCE0175
:102E400001960E948C3DBC0180E19DE00E940C39FE
:102E5000CE0101960E94503B6AEC77E080E19DE054
:102E60000E94F13869E178E080E19DE00E941C3920
:102E7000BE01695E7F4F85EF9AE00E940E3C89E4B7
:102E80009BE00E94493089E49BE00E94AF308FE3D1
:102E90009CE90197F1F700C000006EE378E087ED50
:102EA0009AE00E94363C60E578E08DED9AE00E9461
:102EB000363C63E678E083EE9AE00E94363C60910F
:102EC000220B7091230B44E650E081ED9AE00E94C2
:102ED00081030E9497019FEF23ED30E39150204042
:102EE0003040E1F700C00000D5C861E77BE08BEF20
:102EF0009AE00E940E3C6BE67BE081E09BE00E9442
:102F00000E3C6EEE76E0CE0101960E94B73B61E783
:102F10007BE0CE0101960E948C3DBC0183EE9AE0DD
:102F20000E940E3CCE0101960E94503B8FEF99E625
:102F300028E1815090402040E1F700C0000010924D
:102F40001F0B6091220170912301809124019091C7
:102F500025010E94B603AACA6DE975E08BE69BE0E5
:102F60000E94363C6AE076E08CE29BE00E94363CB0
:102F70006BE67BE081E09BE00E940E3C62E176E044
:102F800087ED9AE00E94363C63E276E08DED9AE0B0
:102F90000E94363C67E276E083EE9AE00E94363C7F
:102FA0003FEF81EE94E0315080409040E1F738C02F
:102FB0006BE975E08BE69BE00E94C03D811105C086
:102FC00080911F0B813009F0D9CE6BE975E08BE65B
:102FD0009BE00E94363C6BEF75E08CE29BE00E9428
:102FE000363C6BE67BE081E09BE00E940E3C62E1B8
:102FF00076E087ED9AE00E94363C63E276E08DED64
:103000009AE00E94363C67E276E083EE9AE00E9406
:10301000363C2FEF31EE84E0215030408040E1F724
:1030200000C0000060912601709127018091280165
:1030300090912901EBC066E778E087ED9AE00E9465
:10304000363C6091200B7091210B4AE0CE010F9627
:103050000E948D3C68E077E0CE0101960E94B73B6C
:10306000BE01615F7F4FCE0101960E948C3DBC0185
:103070008DED9AE00E940E3CCE0101960E94503BDD
:10308000CE010F960E94503B6EE077E0CE01019694
:103090000E94B73B6CE27BE0CE0101960E948C3D22
:1030A000BC0183EE9AE00E940E3CCE0101960E9484
:1030B000503B60911A0170911B0180911C0190910D
:1030C0001D010E94B60341CB66E778E087ED9AE0E8
:1030D0000E94363C6091200B7091210B4AE0CE019A
:1030E0000F960E948D3C68E077E0CE0101960E9429
:1030F000B73BBE01615F7F4FCE0101960E948C3DC0
:10310000BC018DED9AE00E940E3CCE0101960E941A
:10311000503BCE010F960E94503B6EE077E0CE010F
:1031200001960E94B73B6CE27BE0CE0101960E94C3
:103130008C3DBC0183EE9AE00E940E3CCE010196CC
:103140000E94503B60911A0170911B0180911C01FB
:1031500090911D015BC022E0B701A601CE0101964E
:103160000E940C3DBE016F5F7F4F87E09BE00E9495
:103170002B3CCE0101960E94503B63E878E08CE244
:103180009BE00E94363C67E070E081E090E00E94A6
:10319000EF0967E070E081E090E00E94B40960917F
:1031A00016017091170180911801909119010E94E8
:1031B000B603B7CB22E0B701A601CE0101960E946B
:1031C0000C3DBE016F5F7F4F87E09BE00E942B3C70
:1031D000CE0101960E94503B63E878E08CE29BE0D0
:1031E0000E94363C67E070E081E090E00E94EF09C9
:1031F00067E070E081E090E00E94B4096091160100
:103200007091170180911801909119010E94B603E5
:10321000B5CDAA960FB6F894DEBF0FBECDBFDF9135
:10322000CF911F910F91FF90EF90DF90CF90089575
:103230001F920F920FB60F9211240BB60F922F937D
:103240003F934F935F936F937F938F939F93AF932E
:10325000BF93EF93FF938091220B9091230B0797DD
:1032600041F5059B08C06BE975E08BE69BE00E9489
:10327000C03D811114C0069B1CC06DE975E08BE652
:103280009BE00E94C03D8823A1F08091200B90918B
:10329000210B01969093210B8093200B0AC0809103
:1032A000200B9091210B01969093210B8093200B82
:1032B000E2CFFF91EF91BF91AF919F918F917F915D
:1032C0006F915F914F913F912F910F900BBE0F9097
:1032D0000FBE0F901F9018951F920F920FB60F926E
:1032E00011248F939F938091220B9091230B04972D
:1032F00009F06AC04E9B1CC080917F0B9091800B9F
:1033000001969093800B80937F0B80917F0B90911F
:10331000800B181619061CF51092800B10927F0B6B
:1033200010927E0B10927D0B82E080931F0B17C0D2
:1033300080917D0B90917E0B019690937E0B8093F4
:103340007D0B80917D0B90917E0B029744F0109243
:10335000800B10927F0B10927E0B10927D0B4F9B77
:103360001CC080917F0B9091800B01969093800BF5
:1033700080937F0B80917F0B9091800B181619061C
:103380001CF51092800B10927F0B10927E0B109206
:103390007D0B81E080931F0B17C080917D0B909176
:1033A0007E0B019690937E0B80937D0B80917D0B1D
:1033B00090917E0B029744F01092800B10927F0B3D
:1033C00010927E0B10927D0B9F918F910F900FBEEC
:1033D0000F901F9018958F92AF92CF92EF920F930C
:1033E000CF93DF9300E020E040E060E08BEB9BE0D8
:1033F0000E945E386DE671E081E89BE00E94B73B79
:103400006EE771E087E89BE00E94B73BC1E8DBE034
:1034100088EE93E09D878C8761E971E08FE89BE0FF
:103420000E94B73B6AE971E085E99BE00E94B73BE7
:103430008CEF93E09B8F8A8F69EA71E08DE99BE0C6
:103440000E94B73B64EC71E083EA9BE00E94B73BCB
:103450008BE094E099A788A76AEC71E08BEA9BE087
:103460000E94B73B67ED71E081EB9BE00E94B73BA8
:1034700080E194E09FAB8EAB6AEE71E08BE69BE05F
:103480000E94B73B6AEE71E081E79BE00E94B73B88
:103490006AEE71E087E79BE00E94B73B1F9283E0F2
:1034A0008F9387E0882E96E0A92E25E0C22E34E087
:1034B000E32E21E042E067E289E49BE00E94E631EE
:1034C00043E064E082E39BE0C6D363E978E08CE20A
:1034D0009BE00E94B73B6AEE71E086E29BE00E94AF
:1034E000B73B6AEE71E089E19BE00E94B73B6AEE70
:1034F00071E085EF9AE00E94B73B6AEE71E08BEFD6
:103500009AE00E94B73B6AEE71E081E09BE00E9486
:10351000B73B6AEE71E087E09BE00E94B73B6AEE42
:1035200071E08DE09BE00E94B73B6AEE71E083E1C1
:103530009BE00E94B73B6AEE71E08FEE9AE00E943A
:10354000B73B6AEE71E089EE9AE00E94B73B65E115
:1035500075E081ED9AE00E94B73B65E175E087ED8B
:103560009AE00E94B73B65E175E08DED9AE00E941C
:10357000B73B65E175E083EE9AE00E94B73B04E655
:1035800023E048EA60EC8BEC9AE00E945E3805E1AB
:1035900021E048EA60EC85EC9AE00E945E3801E0A8
:1035A00020E048EA60EC8FEB9AE00E945E3800E091
:1035B00020E04FEF6FEF89EB9AE00E945E388CEAD3
:1035C0009AE00E944C298FE99AE00E944C2983E9F5
:1035D0009AE00E94292340E050E0BA0181E89AE095
:1035E000CCD66AEE71E08BE79AE00E94B73B6AEEB8
:1035F00071E085E79AE00E94B73B0F900F9082E759
:103600009AE0DF91CF910F91EF90CF90AF908F9094
:1036100082C2CF93DF9385E79AE00E94503B8BE70D
:103620009AE00E94503B83E99AE00E94302383EEA7
:103630009AE00E94503B8DED9AE00E94503B87ED4E
:103640009AE00E94503B81ED9AE00E94503B89EE47
:103650009AE00E94503B8FEE9AE00E94503BC9E1F5
:10366000DBE02697CE010E94503B8AE0C53FD80799
:10367000C1F789E19BE00E94503B86E29BE00E94FB
:10368000503B8CE29BE00E94503B87E79BE00E940E
:10369000503B81E79BE00E94503B8BE69BE00E9401
:1036A000503B8BEA9BE00E94DF0E8DE99BE00E947D
:1036B000DF0E8FE89BE00E94DF0E81E89BE0DF9148
:1036C000CF910C94DF0ECF92DF92EF92FF920F9387
:1036D0001F93CF93DF9300D000D000D0CDB7DEB7DB
:1036E0002FEF81EE94E0215080409040E1F700C040
:1036F00000000E9495012FEF81EE94E02150804060
:103700009040E1F700C000002C9A2FEF81EE94E08A
:10371000215080409040E1F700C00000289A2FEF30
:1037200081EE94E0215080409040E1F700C000001D
:103730002C9A2FEF81EE94E0215080409040E1F7E9
:1037400000C00000149A2FEF81EE94E021508040D9
:103750009040E1F700C000002B982FEF81EE94E03D
:10376000215080409040E1F700C000002FEF81EE33
:1037700094E0215080409040E1F700C000006CE9E7
:1037800078E080E19DE00E941C390E940A0281E8F5
:103790009BE09093BA0B8093B90B0E940A0261EBF5
:1037A00078E080E19DE00E94F1384AE050E060E07E
:1037B00070E180E19DE00E9485396DEE71E080E16D
:1037C0009DE00E941C396CEC78E080E19DE00E9455
:1037D000F1386AEE71E0CE0101960E94B73B0E947B
:1037E0000A023E9A3F9A0F9A8FE39CE90197F1F7FC
:1037F00000C00000479A8FE39CE90197F1F700C0F1
:103800000000179A0E940A0220E044E064E189E483
:103810009BE00E946C3289E49BE00E9449309FEF5C
:1038200024E38CE0915020408040E1F700C000008C
:1038300089E49BE00E9451309FEF24E38CE091509B
:1038400020408040E1F700C0000089E49BE00E9436
:1038500049309FEF24E38CE0915020408040E1F715
:1038600000C0000089E49BE00E9451309FEF24E3F8
:103870008CE0915020408040E1F700C0000041E51D
:1038800051E061E089E49BE00E942F319FEF29EF36
:1038900080E0915020408040E1F700C0000089E4C2
:1038A0009BE00E94493001ED1AE06AEE71E0C80128
:1038B0000E94363C0A5F1F4F9AE0093E1907A9F79C
:1038C0000E940A0282E39BE0D7D12FEF80E792E0CB
:1038D000215080409040E1F700C0000082E39BE06F
:1038E00070D36B017C01672B682B692B69F565EE42
:1038F00078E080E19DE00E94F13889E49BE00E943D
:1039000049302FEF84E39CE0215080409040E1F764
:1039100000C0000089E49BE00E9461306EEF78E017
:1039200089E49BE00E94F1382FEF87EA91E621506D
:1039300080409040E1F700C0000068E179E08CE24F
:103940009BE00E94363C06C06BE279E080E19DE09E
:103950000E941C3960E479E080E19DE00E94F1382A
:103960004F2D55276627772720E130E080E19DE045
:103970000E948A396FE479E080E19DE00E94F1388D
:103980004E2D50E060E070E02AE030E080E19DE004
:103990000E9473396EE280E19DE00E94F2384D2D65
:1039A00050E060E070E02AE030E080E19DE00E94BD
:1039B0008A396FEF82E39BE07AD382E39BE049D3BD
:1039C0000E940A0240EA56E861E070E083E99AE06A
:1039D0008AD6811110C064EE71E080E19DE00E9402
:1039E000FC382FEF83ED90E3215080409040E1F7C9
:1039F00000C00000E7CF2FEF80E792E02150804029
:103A00009040E1F700C0000066EC71E080E19DE0CD
:103A10000E94FC3883E99AE0C4D70E940A026EE54E
:103A200079E080E19DE00E941C398AEB9CE00E94D5
:103A3000CF3568E270E08AEB9CE00E94EC3560E0F4
:103A40008AEB9CE00E94913560E58AEB9CE00E9445
:103A500091358AEB9CE00E9463362FEF80E792E07D
:103A6000215080409040E1F700C0000062E570E026
:103A70008AEB9CE00E94EC3560E08AEB9CE00E94BF
:103A8000913560E58AEB9CE00E9491358AEB9CE0E1
:103A90000E9463368AEB9CE00E94DE3562E979E0A1
:103AA00080E19DE00E941C390E940A0260E282E7E8
:103AB0009AE036D02CE340E063EC82E79AE036D01F
:103AC0008EEF9FEF9093230B8093220B63EA79E0B4
:103AD0008CE29BE00E94363C6CE27BE080E19DE062
:103AE0000E940C390E940A020E940A020E940A02E5
:103AF000CE0101960E94503B26960FB6F894DEBF89
:103B00000FBECDBFDF91CF911F910F91FF90EF902E
:103B1000DF90CF900895FC011082118212820895E7
:103B2000FC0160838AEB9CE00C94CF35FF920F93ED
:103B30001F93CF93DF93EC01F62E042F122F688191
:103B40008AEB9CE00E94E23561E08AEB9CE00E94F7
:103B500091356F2D8AEB9CE00E9491358AEB9CE0B9
:103B60000E94633668818AEB9CE00E94E23562E045
:103B70008AEB9CE00E949135602F8AEB9CE00E94CA
:103B800091358AEB9CE00E9463368FE39CE90197B4
:103B9000F1F700C0000068818AEB9CE00E94E235EA
:103BA00063E08AEB9CE00E949135612F8AEB9CE0F8
:103BB0000E9491358AEB9CE00E9463368FE39CE97A
:103BC0000197F1F700C00000DF91CF911F910F9195
:103BD000FF900895CF93C62FFC0160818AEB9CE093
:103BE0000E94E23563E08AEB9CE00E9491356C2FE5
:103BF0008AEB9CE00E9491358AEB9CE0CF910C947B
:103C00006336CF93DF93EC0168818AEB9CE00E94DE
:103C1000E23560E08AEB9CE00E9491358AEB9CE003
:103C20000E946336688170E041E050E08AEB9CE0DE
:103C30000E946136C0E08AEB9CE00E940335892B2C
:103C400031F08AEB9CE00E940B35C82FF4CF8C2F0B
:103C5000DF91CF910895CF93DF93EC01862F6C8392
:103C60004D831D8A1E8A60E00E94BD3A61E08D810D
:103C7000DF91CF910C94BD3ACF93DF93EC018AEBA7
:103C80009CE00E94CF3561E08D810E94F93A60E0AE
:103C90008D810E94F93A60E971E080E090E00E9435
:103CA000153A61E08D810E94F93A6AE070E080E0A7
:103CB00090E0DF91CF910C94153A4F925F926F9202
:103CC0007F928F929F92AF92BF92EF92FF920F934B
:103CD0001F93CF93DF93CDB7DEB72C970FB6F89431
:103CE000DEBF0FBECDBF7C015A01280139016AEE4B
:103CF00071E00E94B73B8501812C912C5401841402
:103D00009504A604B70409F446C0F80161918F0137
:103D100040E1CE016031F0F401960E94623CB701AF
:103D2000CE0107960E94233C61E878E0CE01079619
:103D30000E949D3DBE016F5F7F4F0E948C3DBC0184
:103D4000C7010E940E3CCE0107960E94503BCE0157
:103D5000019619C007960E94623CB701CE010196F8
:103D60000E94233CBE01695F7F4FCE0101960E94F5
:103D70008C3DBC01C7010E940E3CCE0101960E9401
:103D8000503BCE0107960E94503BFFEF8F1A9F0ACF
:103D9000AF0ABF0AB4CF80E19DE00E94F938C701A5
:103DA0002C960FB6F894DEBF0FBECDBFDF91CF913A
:103DB0001F910F91FF90EF90BF90AF909F908F90C9
:103DC0007F906F905F904F900895FC0184810E94D6
:103DD000273B91E0811190E0892F0895CF92DF92E7
:103DE000EF92FF921F93CF93DF936C017B01C0E0B2
:103DF000D0E0C601EADF182F811115C0E114F104EB
:103E000059F02A96EC16FD0638F461EC79E080E171
:103E10009DE00E941C3907C06AE070E080E090E0FD
:103E20000E94153AE6CF812FDF91CF911F91FF902D
:103E3000EF90DF90CF900895FF920F931F93CF9351
:103E4000DF93F62E072F142F62E070E080E090E001
:103E50000E94153A42E0410F64E28AEB9CE00E9426
:103E60005F368AEB9CE00E940B35CF2DD02FCE0120
:103E7000810F911D8C01C017D10761F061E070E0E6
:103E800080E090E00E94153A8AEB9CE00E940B359E
:103E90008993F1CFDF91CF911F910F91FF900895FA
:103EA000CF93DF9300D000D000D0CDB7DEB746E08F
:103EB000BE016F5F7F4FC0DF46E050E06FE571E00D
:103EC000CE0101960E94644221E0892B09F020E096
:103ED000822F26960FB6F894DEBF0FBECDBFDF91BE
:103EE000CF910895682F8AEB9CE00C949135CF9286
:103EF000DF92EF92FF920F931F93CF93DF937B019B
:103F0000C1E0C40F62E070E080E090E00E94153AEA
:103F100064E270E08AEB9CE00E94EC3580E0E2DF36
:103F200080E0E0DF8FEFDEDF8C2FDCDF8C2F8195F0
:103F3000D9DF84EDD7DFC12C83EDD82ED0E02197D7
:103F40000C2D10E00C171D0754F40E0D1F1DF80169
:103F50008081C8DFF8018081D80EC394F1CF8D2D08
:103F60008095C0DF80E0BEDF8AEB9CE0DF91CF91DF
:103F70001F910F91FF90EF90DF90CF900C946336DC
:103F80000F931F93CF93DF93EC018901B0DFB8014A
:103F9000CE0124DF811102C080E00EC0CE0180DF9F
:103FA0008823D1F39D89992339F0B801CE01DF919F
:103FB000CF911F910F9112CFDF91CF911F910F9150
:103FC0000895CF93DF93EC0182E08093C10B28EE3C
:103FD00033E041E061EC7BE0CE01D2DF811104C02F
:103FE00060E070E0CB0132C04CE061EC7BE0CE01E0
:103FF00023DF46E050E069E571E081EC9BE00E9440
:104000006442892B69F78D89811103C0E7E0F0E0F4
:1040100002C0E6E0F0E0EF53F44F6081862F90E0BD
:10402000A0E0B0E0BA2FA92F982F88272181822BFA
:10403000BA2FA92F982F88272281822BBA2FA92F38
:10404000982F88272381BC01CD01622BDF91CF916E
:104050000895CF93DF93EC0194E19093C10B81E03D
:104060008093C20B9093C30B8093C40B28EE33E074
:1040700044E061EC7BE0CE0183DF8823A9F048E0D7
:1040800061EC7BE0CE01D8DE8D89811103C086E032
:1040900090E002C085E090E0FC01EF53F44F81E036
:1040A0009081953109F080E0DF91CF910895E1ECA6
:1040B000FBE022E3208325E021832FEF228321E010
:1040C0002383648328EE33E045E0BF0159CFAF92EC
:1040D000BF92CF92DF92EF92FF920F931F93CF93F5
:1040E000DF93EC017A01590168018AE48093C10BE6
:1040F00081E08093C20B6093C30B980143E061ECB5
:104100007BE0CE013DDF182F882341F18D89882384
:1041100079F044E161EC7BE0CE018EDE8091C80B4A
:104120008130E1F48091CD0BF501808380E006C001
:10413000B601CE0153DE8111ECCF10C09091CD0BB2
:10414000891768F4282F30E0F901EF53F44F958573
:10415000F701E20FF31F90838F5FF0CF10E0812F04
:10416000DF91CF911F910F91FF90EF90DF90CF9053
:10417000BF90AF900895AF92BF92CF92DF92EF922F
:104180000F931F93CF93DF93EC01142F5C018EE00C
:10419000A80EB11C86E0F601D50101900D928A951A
:1041A000E1F750E0CE0106960E944B421D8780E465
:1041B0008093C10B81E08093C20BE11002C080E6C6
:1041C00001C081E68093C30B0093C40B86E0F50128
:1041D000A5ECBBE001900D928A95E1F780E04D855A
:1041E000841760F4282F30E0FE01E20FF31F968160
:1041F000F901EF53F44F92878F5FF1CF465F28EEBE
:1042000033E061EC7BE0CE01BBDE882349F04CE07B
:1042100061EC7BE0CE0110DE81E09091C80B911142
:1042200080E0DF91CF911F910F91EF90DF90CF90C1
:10423000BF90AF9008950F931F93CF93DF93EC013E
:104240008A0180E48093C10B81E08093C20B80E3FC
:104250008093C30B6093C40B28EE33E044E061EC21
:104260007BE0CE018DDE811102C080E012C04AE108
:1042700061EC7BE0CE01E0DD8091C80B8111F5CFD0
:1042800080E1E9ECFBE0D80101900D928A95E1F71D
:1042900081E0DF91CF911F910F910895CF93DF932C
:1042A000EC0180E48093C10B81E08093C20B80EA33
:1042B0008093C30B6093C40B80E1FA01A5ECBBE0D3
:1042C00001900D928A95E1F728EE33E044E161EC2C
:1042D0007BE0CE0155DE882369F06AE070E080E083
:1042E00090E00E94153A4AE161EC7BE0CE01A4DD4A
:1042F00081E001C080E0DF91CF910895803D27E00B
:10430000920710F0805D974050E0E8E2F2E021E093
:10431000261730F43491430F511D2F5F3196F8CF9B
:10432000633038F09C0123703327232B11F44F5F47
:104330005F4FBC016D5F7F4F76956795769567956A
:10434000EDE6F1E08E9F90018F9F300D9E9F300D26
:104350001124C9010197860F971F840F951F089597
:10436000FC01908190539A3008F090E08181805355
:104370002AE0929F800D112408958F929F92AF9210
:10438000BF92CF92DF92EF92FF92CF93DF93EC0137
:104390006A017B0180E8C81A83E4D80A8DE6E80A3E
:1043A00088E3F80A8CE3882E912CA12CB12CC7014C
:1043B000B601A50194010E94AC3F6D83CA01B90109
:1043C000A50194010E94AC3F6C83C701B60120E1B6
:1043D0003EE040E050E00E94AC3FCA01B90128E154
:1043E00030E040E050E00E94AC3F6B83C701B60173
:1043F00020E831E541E050E00E94AC3F188288811E
:10440000982F937041E050E011F040E050E0BA0185
:1044100063597E4F2617370738F0241B350B2D566E
:1044200031408F5F8883EBCF81E089838981E82FDA
:10443000F0E0E95DFD4FE491911103C0823009F491
:10444000EF5FF0E02E173F0720F02E1B3F0B8F5F32
:10445000ECCF2F5F2A83DF91CF91FF90EF90DF9019
:10446000CF90BF90AF909F908F900895EF92FF9262
:104470000F931F93CF93DF93CDB7DEB72B970FB674
:10448000F894DEBF0FBECDBF8C017A014BE050E047
:10449000CE0101960E944242CE010A9661DFF801E8
:1044A0008083E9818E2F90E0FC01E154F109E33132
:1044B000F10548F5ED5AFF4F0C94CE3F8A818136C5
:1044C00029F08B818E3621F087E01BC081E019C076
:1044D00086E017C082E015C08B81823711F088E03A
:1044E00010C084E00EC08B81823711F085E009C0D6
:1044F00083E007C089E005C08AE003C08BE001C00B
:104500008CE0F8018183CE0105962ADFF8018283D1
:1045100048E050E0B701CE0101960E944242CE0130
:1045200001961EDFF8018383CE01049619DFF8019E
:104530008483CE01079614DFF80185832B960FB68E
:10454000F894DEBF0FBECDBFDF91CF911F910F91C9
:10455000FF90EF900895FC0180814281618190E09D
:10456000CDDE069667E070E00C94983F0895EF92D8
:10457000FF920F931F93CF93DF93EC0188814A81C1
:10458000698190E0BBDE9C01A8E1B0E00E94D73FCA
:104590002B817B018C01E20EF11C011D111DA80174
:1045A0009701ACE3B0E00E94E63F2C817B018C01D7
:1045B000E20EF11C011D111DA80197010E94E63FAA
:1045C0002D81DC01CB01820F911DA11DB11DBC010C
:1045D000CD0160587C4B8249974CDF91CF911F9160
:1045E0000F91FF90EF900895EF92FF920F931F931A
:1045F000CF93DF93EC0188814A81698190E07EDE70
:104600009C01A8E1B0E00E94D73F2B817B018C0187
:10461000E20EF11C011D111DA8019701ACE3B0E0F1
:104620000E94E63F2C817B018C01E20EF11C011DF2
:10463000111DA80197010E94E63F2D81620F711D97
:10464000811D911DDF91CF911F910F91FF90EF90F0
:104650000895FC011082118212821382148208953F
:1046600008950F931F93CF93DF93EC01062F142F20
:1046700068E68AEB9CE00E94E235602F8AEB9CE0C2
:104680000E949135612F8AEB9CE00E9491358AEB64
:104690009CE00E9463368883DF91CF911F910F9138
:1046A00008951F93CF93DF93EC01162F68E68AEBF2
:1046B0009CE00E94E235612F8AEB9CE00E949135DC
:1046C0008AEB9CE00E946336888341E068E68AEBCF
:1046D0009CE00E945F368AEB9CE00E940B35DF91E4
:1046E000CF911F910895CF92DF92EF92FF92CF93D7
:1046F000DF93EC016A017B018AEB9CE00E94CF35DD
:10470000B701A6018AEB9CE00E94DF3568E68AEBE0
:104710009CE00E94E2358AEB9CE00E9463368111A6
:104720000AC062E0CE01BDDF482F4F7B62E0CE01C0
:1047300098DF81E001C080E0DF91CF91FF90EF90A2
:10474000DF90CF9008950F931F93CF93DF938C0149
:10475000EB0168E68AEB9CE00E94E23560E08AEBC0
:104760009CE00E9491358AEB9CE00E94633688832E
:1047700047E068E68AEB9CE00E945F368AEB9CE0AB
:104780000E940335079709F064C08AEB9CE00E9401
:104790000B35982F9695969596959E70292F220FFA
:1047A000220F920F8F70890F8D838AEB9CE00E94FD
:1047B0000B35982F9695969596959E70292F220FDA
:1047C000220F920F8F70890F8E838AEB9CE00E94DC
:1047D0000B35982F9695969596959E70292F220FBA
:1047E000220F920F8F70890F8F838AEB9CE00E94BB
:1047F0000B358AEB9CE00E940B35982F9695969589
:1048000096959670292F220F220F920F8F70890F85
:1048100088878AEB9CE00E940B3584FB992790F9EE
:10482000990F292F220F220F920F8F70890F8987DE
:104830008AEB9CE00E940B35982F92959F708F70A9
:104840002AE0929F800D112490E08053984F9B871F
:104850008A872D813E814F81588569858A859B8510
:10486000803D77E0970710F0805D9740F8018083E6
:1048700061835283438334832583C801DF91CF91C1
:104880001F910F910895DF92EF92FF920F931F9364
:10489000CF93DF9300D000D000D0CDB7DEB78C012E
:1048A0007B01FB0185819AE0D92E6D2D0E948C3F02
:1048B000492FF0E18F9F400D112460E0C801D1DE47
:1048C000F70184816D2D0E948C3F492FF0E18F9F6D
:1048D000400D112461E0C801C4DEF70183816D2D14
:1048E0000E948C3F492FF0E18F9F400D112462E020
:1048F000C801B7DEC7012FDE482F63E0C801B1DE73
:10490000F70182816D2D0E948C3F492FF0E18F9F2E
:10491000400D112464E0C801A4DEF70181816D2DF2
:104920000E948C3F492FF0E18F9F400D112465E0DC
:10493000C80197DEF70180816D2D0E948C3F492FC1
:10494000F0E18F9F400D112466E0C8018ADE6FE020
:10495000C801A7DE482F4F776FE0C80182DE6EE006
:10496000C8019FDE482F4F776EE0C8017ADEB8019C
:10497000CE010196E8DECE010196F9DDF8016183F2
:1049800072838383948326960FB6F894DEBF0FBE9E
:10499000CDBFDF91CF911F910F91FF90EF90DF90EE
:1049A00008950F931F93CF93DF9300D000D000D0D2
:1049B000CDB7DEB78C014FE152E063E172E0CE018A
:1049C000019654DDBE016F5F7F4FC8015CDF269604
:1049D0000FB6F894DEBF0FBECDBFDF91CF911F9110
:1049E0000F9108950F9300E020E040E060E081E047
:1049F0009CE00E945E380F910895FB014281538133
:104A000064817581FC0142835383648375831782BB
:104A100016820895CF93DF93DA01FB01EB018991B0
:104A20008111FDCF80E090E020E030E04AE051913C
:104A30005523E9F02430310544F55E3269F48F3FA7
:104A4000910509F014F5ED01C20FD31F8A832F5F82
:104A50003F4F80E090E0EBCF489FB001499F700D41
:104A60001124852F90E0C097860F971FE0CF8F3FCE
:104A7000910509F054F4243031053CF4FD01E20FB6
:104A8000F31F828381E090E002C080E090E0DF913C
:104A9000CF9108950F9300E020E040E060E087E0D0
:104AA0009CE00E945E380F9108958F929F92AF9282
:104AB000BF92CF92DF92EF92FF920F931F93CF930B
:104AC000DF9300D01F92CDB7DEB76C017B010E944F
:104AD000E439F601778366838601085F1F4FB601CC
:104AE0006A5F7F4F42E050E0C80130D581E090E03E
:104AF0009A83898342E050E0BE016F5F7F4FC80117
:104B000025D580E091E09A83898342E050E0BE01A0
:104B10006F5F7F4FC8011AD51A82198242E050E0B8
:104B2000BE016F5F7F4FC80111D542E050E0BE016A
:104B30006F5F7F4FC8010AD542E050E0BE016F5F52
:104B40007F4FC80103D55701F50180818823F9F013
:104B5000A7015A01F50181916F01882321F08E325E
:104B600011F0A601F6CF4A018E189F0818141904F7
:104B700064F48B8241E050E0BE016D5F7F4FC8015D
:104B8000E5D4A401B701C801E1D47601DDCF1B82D1
:104B900041E050E0BE016D5F7F4FC801D7D4E12CEA
:104BA000FF24F394FA82E98242E050E0BE016F5F95
:104BB0007F4FC801CBD4FA82E98242E050E0BE01C7
:104BC0006F5F7F4FC801C2D481E090E00F900F90DB
:104BD0000F90DF91CF911F910F91FF90EF90DF9099
:104BE000CF90BF90AF909F908F9008952F923F925B
:104BF0004F925F926F927F928F929F92AF92BF92ED
:104C0000CF92DF92EF92FF920F931F93CF93DF9398
:104C1000CDB7DEB763970FB6F894DEBF0FBECDBF3A
:104C20007C016B011A010E94E4394B015C01870190
:104C3000085F1F4F2601612C712CC80129D5181659
:104C40001906A4F00E94E439DC01CB018819990906
:104C5000AA09BB09481659066A067B06D0F062E32A
:104C600070E080E090E00E94153AE7CFF7014281C2
:104C7000538164817581818D928DA38DB48D481788
:104C800059076A077B0749F4858D968DC59729F4E6
:104C900009C0EE24EA94FE2CF0C09EEFE92EFF241A
:104CA000FA94EBC0C80108D40C970CF4E2C04CE0B5
:104CB00050E0BE016F5F7F4FC80183D48B819C8120
:104CC0009827892798279A8B898BF70146815781E6
:104CD00029813A814217530711F497FD07C0C80193
:104CE00005D47CEFE72EFF24FA94C7C08F70927032
:104CF000892B39F0C801FAD36BEFE62EFF24FA9422
:104D0000BCC0CF80D884DC24CD24DC24C114D104E1
:104D100019F0E12CF12C1FC0C801E8D35AEFE52EA1
:104D2000FF24FA94AAC041E050E0BE01635F7F4FC8
:104D3000C80147D48D85811117C08D858111F3CFAE
:104D4000C80117D4C80115D4C80113D4C80111D49F
:104D5000FFEFEF1AFF0A8D819E81982789279827F8
:104D6000E816F90600F309C08D859FEF980F9D871F
:104D7000882319F3C801FDD3F7CFA12CB12C41E052
:104D800050E0BE016D5E7F4FC8011BD48B89982F08
:104D9000907C59F4882379F08B899FEF980F9B8B37
:104DA000882331F0C801E5D3F7CFC801E2D31B8ACD
:104DB0008B898111E4CF42E050E0BE01615F7F4FFB
:104DC000C801FFD342E050E0BE01635F7F4FC801DE
:104DD000F8D3C801CED3C801CCD3C801CAD3C80107
:104DE000C8D342E050E0BE016F5E7F4FC801E9D3F7
:104DF0008F8598898115914049F4ED84FE84FE24C5
:104E0000EF24FE2481E0E816F10419F0E12CF12CE6
:104E100014C089899A898115944039F0C80166D3F4
:104E200047EFE42EFF24FA9428C0B1016E5F7F4F54
:104E300044E050E0C801C5D320C089899A899827E9
:104E400089279827E816F90630F4C80192D3FFEFB6
:104E5000EF1AFF0AF2CF2FEFA21AB20ACA14DB042C
:104E600009F08DCFC80142D336EFE32EFF24FA9428
:104E700004C08DEFE82EFF24FA94C70163960FB6A5
:104E8000F894DEBF0FBECDBFDF91CF911F910F9180
:104E9000FF90EF90DF90CF90BF90AF909F908F905A
:104EA0007F906F905F904F903F902F9008958F92DA
:104EB0009F92AF92BF92CF92DF92EF92FF920F93A9
:104EC0001F93CF93DF9300D000D000D0CDB7DEB7D3
:104ED0007C014B015A019EDD8C01892B09F057C0E2
:104EE000F70142815381648175818091090C909111
:104EF0000A0CA0910B0CB0910C0C481759076A07CB
:104F00007B0709F447C00E94E4396701F8E0CF0E3F
:104F1000D11C6F7077277C5FC60189D3813009F07F
:104F20003BC082E59AE09A838983F701828193816D
:104F3000A481B5818B839C83AD83BE8345E350E020
:104F4000BE016F5F7F4FC601F7D2892B19F400E0D5
:104F500010E01AC0B401C701A8DD892BC1F3C60156
:104F6000F2D2892BA1F383E0882E912CA50168E869
:104F700073E1C7013BDE8C0121E0821A910821F028
:104F80000F3FFFEF1F0791F3C601C2D205C001E03A
:104F900010E002C00EEF1FEFC80126960FB6F8947E
:104FA000DEBF0FBECDBFDF91CF911F910F91FF905C
:104FB000EF90DF90CF90BF90AF909F908F9008952B
:104FC00024E030E0AC0164E081E090E035C624E00C
:104FD00030E0AC0164E085E090E02EC626E030E0F1
:104FE000AC0164E089E090E027C624E030E0AC0149
:104FF00064E08FE090E020C68F929F92AF92BF92C4
:10500000CF92DF92EF92FF920F931F93CF93DF9394
:105010004C015B016A01E901FC01648587E49CE0C5
:1050200053D6C501DBDFC6010296DFDFC801029659
:10503000C7DFC7010296CBDF8A819B81AC81BD812E
:10504000F40182839383A483B583DF91CF911F9171
:105050000F91FF90EF90DF90CF90BF90AF909F9017
:105060008F90089522E53AE0FC0131832083FB0113
:105070004281538164817581FC014283538364833F
:10508000758308950F9300E020E040E060E08AE23D
:105090009CE00E945E388DE09CE00E945438EDE078
:1050A000FCE0138612868AE084870F910895DC0164
:1050B000ED91FC91028CF38DE02D099591E089270B
:1050C0000895CF93DF931F92CDB7DEB76983DC01DC
:1050D000ED91FC910280F381E02D41E050E0BE01B2
:1050E0006F5F7F4F09950F90DF91CF91089521E079
:1050F000FC018485883009F420E0822F0895FC01AA
:105100009485FB018485981303C081E0983009F4ED
:1051100080E00895CF92DF92EF92FF920F931F935A
:10512000CF93DF93CDB7DEB7AF970FB6F894DEBF5E
:105130000FBECDBF8C016B017A01CE0101960E949A
:105140005438CE010996F3D2CE018A960E94543883
:105150006DE07CE0CE01849685DFBE016C5D7F4F03
:10516000CE0101964ADCAE01465D5F4FB601CE012D
:1051700001969DDE81309105C1F4D801ED91FC913D
:105180000684F785E02D82E59AE09DA38CA38CA58B
:105190009DA5AEA5BFA58EA39FA3A8A7B9A7A7014C
:1051A000BE016C5D7F4FC8010995AF960FB6F894AC
:1051B000DEBF0FBECDBFDF91CF911F910F91FF904A
:1051C000EF90DF90CF9008950F931F93CF93DF93CD
:1051D0008C01D42FC52FFC018485883041F481E0F7
:1051E00090E0F8019383828380E090E005C0CFD304
:1051F000892BA9F38D2F9C2FDF91CF911F910F91B8
:105200000895FC016485683019F087E49CE0D0C5FE
:1052100080E090E00895CF93DF931F92CDB7DEB783
:1052200041E050E0BE016F5F7F4FFC018485F7D302
:10523000181619061CF4898190E002C08FEF9FEFC9
:105240000F90DF91CF910895FC018485E8C30F93FF
:105250001F93CF93DF931F92CDB7DEB78C01DC0194
:10526000ED91FC910084F185E02D0995892B49F0A1
:10527000BE016F5F7F4FF801848512D4898190E071
:1052800002C08FEF9FEF0F90DF91CF911F910F9191
:105290000895FC01848511C4FC011382128288EEFA
:1052A00093E0A0E0B0E084839583A683B7838EEC7F
:1052B00099E09183808388E084870895FC01648568
:1052C000683039F06295660F607E685F83E090E039
:1052D000DFC480E00895CF93DF93FC01248528305C
:1052E000C9F0EC01EBDF843181F0882371F0883163
:1052F00061F08C3161F4E881F9810084F185E02D61
:10530000CE01099521E0892B19F420E001C021E0AC
:10531000822F01C080E0DF91CF910895CF92DF927C
:10532000EF92FF92CF93DF93EC018C85883069F187
:1053300029D30E94E4396B017C01CE01BFDF8823B1
:10534000A1F00E94E439DC01CB018C199D09AE0962
:10535000BF09883E9340A105B10538F461E070E0D3
:1053600080E090E00E94153AE8CFCE01A7DF8823C5
:1053700011F08C8596D2EC85F0E0EE0FFF1FE65E13
:10538000F34F1182108288E08C87DF91CF91FF90DC
:10539000EF90DF90CF900895CF92DF92FF920F931E
:1053A0001F93CF93DF93FC0124852830C1F56A0158
:1053B0008B01EC01F12C6F2D6295660F607E685FAA
:1053C00083E090E065D4811102C0FC8607C08B7F2A
:1053D0008831D9F3F394F8E0FF12EDCF8C85883053
:1053E000F1F020916501309166012F5F3F4F11F47C
:1053F00020E034E03093660120936501409165011F
:105400005091660120E061E057D2B8016E5F7F4F96
:10541000A6018C8584D2811105C088E08C8780E04C
:1054200090E00FC0CE014ADF873149F061E070E0C3
:1054300080E090E00E94153ACE0140DFECCF81E0A1
:1054400090E0DF91CF911F910F91FF90DF90CF906F
:1054500008950F9300E020E040E060E080E39CE0EE
:105460000E945E380F9108950F9300E020E040E025
:1054700060E086E39CE00E945E380F91089580E032
:105480000895DC01ED91FC91048CF58DE02D0994DB
:1054900022E53AE0FC0131832083FB0141895289F6
:1054A00063897489FC0142835383648375830895FF
:1054B000FC01858996890895FC01818D928D08955E
:1054C000CF93DF931F92CDB7DEB76983DC01ED91F7
:1054D000FC910280F381E02D41E050E0BE016F5F5E
:1054E0007F4F09950F90DF91CF910895CF93DF9370
:1054F000EC01898D9A8D892B41F0E881F981028434
:10550000F385E02DCE010995F4CFDF91CF91089579
:10551000CF93DF93EC018C85883059F0C2D1EC85B4
:10552000F0E0EE0FFF1FE65EF34F1182108288E07D
:105530008C87DF91CF910895FC01108E178A6E5FE2
:105540007F4F8485E6C2FC01848506C3CF93DF9339
:10555000EC019A018F89988DAB01BC018C85AED28C
:105560002F89388D280F391F388F2F8BDF91CF91DE
:1055700008950F931F93CF93DF931F92CDB7DEB79C
:10558000FC01218D328D232B59F08C0141E050E03C
:10559000BE016F5F7F4F848542D2181619061CF03A
:1055A0008FEF9FEF08C0F801818D928D0197928F48
:1055B000818F898190E00F90DF91CF911F910F91A2
:1055C0000895CF93DF93FC01218D328D2115310594
:1055D00019F48FEF9FEF10C0EC014217530708F04A
:1055E000A9018C851CD2181619069CF7298D3A8DB5
:1055F000281B390B3A8F298FDF91CF910895CF93D4
:10560000DF931F92CDB7DEB7FC01218D328D232BA6
:1056100041F0BE016F5F7F4F848542D2898190E067
:1056200002C08FEF9FEF0F90DF91CF910895EF921F
:10563000FF921F93CF93DF93FC012485283011F054
:1056400080E020C07B01EC0110E0612F6295660FC5
:10565000607E685F83E090E01BD3811102C01C87ED
:1056600005C08831E1F31F5F183079F78C858830E9
:1056700039F3FE86ED861A8E198E20E0A70162E0CE
:105680001BD181E0DF91CF911F91FF90EF900895A2
:105690000F931F93CF93DF93CDB7DEB728970FB645
:1056A000F894DEBF0FBECDBF8C01DC01ED91FC9103
:1056B0000680F781E02D0995F801648587E49CE078
:1056C00077D3892B39F148E050E0BE016F5F7F4FFF
:1056D000D8011C968C91A3D118161906ECF4BE01C2
:1056E0006F5F7F4FC8010F960E946A388D8190E0EE
:1056F000982F88272E81820F911DF801968B858B1C
:105700008F8190E0982F88272885820F911D928F96
:10571000818F02C080E090E028960FB6F894DEBF3B
:105720000FBECDBFDF91CF911F910F910895FC0166
:105730001382128288EE93E0A0E0B0E08483958328
:10574000A683B78380EF99E09183808388E0848784
:10575000CF010F960C945438CF92DF92EF92FF92C4
:105760000F931F93CF93DF93CDB7DEB7AF970FB6ED
:10577000F894DEBF0FBECDBF8C016B017A01CE0164
:1057800001960E945438CE010996D1DFCE018A9647
:105790000E9454386DE07CE0CE01849663DCBE014B
:1057A0006C5D7F4FCE01019628D9AE01465D5F4FFB
:1057B000B601CE0101967BDB81309105C1F4D801A1
:1057C000ED91FC910488F589E02D82E59AE09DA396
:1057D0008CA38CA59DA5AEA5BFA58EA39FA3A8A7AE
:1057E000B9A7A701BE016C5D7F4FC8010995AF96AF
:1057F0000FB6F894DEBF0FBECDBFDF91CF911F91E2
:105800000F91FF90EF90DF90CF9008950F9300E0FD
:1058100020E040E060E08CE39CE00E945E380F9165
:105820000895AB018295880F807E6CE0680F24E0BC
:1058300030E08CE090E000C29B018295880F807E72
:1058400068E0680FC90124C262E070E0F5CF9B01F7
:105850008295880F807E6CE0680FC901CFC1CF931D
:10586000DF93C82FD62F472F64E070E0F0DF4D2F75
:1058700065E070E08C2FDF91CF91E9CF462F62E099
:1058800070E0E5CFCF93DF93C82FD62F472F60E18D
:1058900070E0DDDF4D2F61E170E08C2FDF91CF9163
:1058A000D6CFCF93C82F40E1682F87E49CE070D318
:1058B0006FEF8C2FCF91E2CFFF920F931F93CF9377
:1058C000DF939FEF960F953018F5D22F8A01F62EB1
:1058D000C82FE7DF4F2D4D2B60E070E08C2FB7DF36
:1058E0000115110511F0B8010AC06091420C7091C8
:1058F000430C6F5F7F4F7093430C6093420C8C2F6F
:10590000AEDF41E06C2F87E49CE042D381E001C030
:1059100080E0DF91CF911F910F91FF9008950F9339
:105920001F93CF93FB0190819F3F51F491819F3F43
:1059300091F492819F3F79F493819F3F61F41CC061
:10594000911109C09181911106C09281911103C0FA
:105950009381992391F04115510571F08A01BF019E
:10596000C82F5FDFB8018C2F8DDF44E06C2F87E4F8
:105970009CE00ED391E001C090E0892FCF911F9160
:105980000F91089548E0682F87E49CE001C3CF920F
:10599000DF92EF92FF920F931F93CF93C82F7B015B
:1059A0008A014130584010F000E018E06C2F87E485
:1059B0009CE0CDD16C0163E070E08C2F3DDF87313E
:1059C00011F08C3121F4C016D10680F302C000E042
:1059D00010E09801A7016C2F87E49CE03DD240E2E3
:1059E0006C2F87E49CE0D4D28C2F2EDF84FD0BC07B
:1059F00063E070E08C2F20DF8111F6CF8C2F51DF18
:105A000080E090E004C060E18C2F38DFC801CF91C6
:105A10001F910F91FF90EF90DF90CF900895CF925C
:105A2000DF92EF92FF920F931F93CF93DF93182F84
:105A30006B017A01682F87E49CE0BAD1EC010097F2
:105A400091F463E070E0812FF7DE8431F9F0882370
:105A5000E9F0C1E0D0E08C3111F4C0E0D0E0D195A4
:105A6000C195D10913C0E816F9060CF4E7011C161C
:105A70001D0664F400E09E01A601612F87E49CE00E
:105A80003AD240E4612F87E49CE082D2CE01DF91DC
:105A9000CF911F910F91FF90EF90DF90CF900895DD
:105AA0000F93AB0101E021E030E0682F87E49CE038
:105AB00022D281E090E00F9108950895AF92BF92B5
:105AC000CF92DF92FF920F931F93CF93DF93F82E25
:105AD0006B015A01E901682F87E49CE038D18C17EB
