S015000074656D706C61746556756F746F2E7372656396
S113000062C100008AC1000088C1000086C10000EE
S11300100C94200F82C1000080C100000C94440F96
S11300207CC100007AC1000078C1000076C10000E4
S113003074C1000072C1000070C100006EC10000F4
S11300400C94D82E6AC100000C94CB2C0C94FD2C7B
S113005064C1000062C1000060C100005EC1000014
S11300605CC100005AC100000C94182956C100005C
S113007054C1000052C1000050C100004EC1000034
S11300804CC100004AC1000048C10000730998092E
S1130090AD09D609BF0A760B420C990CD10C3D0D63
S11300A0F80DF80DAF17C617C617C317C617AD1747
S11300B0C617C617C617A117C617C617B617C1178E
S11300C0BF17C617C617C617BD1700407A10F35AD4
S11300D000A0724E18090010A5D4E80000E8764884
S11300E0170000E40B54020000CA9A3B000000E130
S11300F0F505000080969800000040420F000000C3
S1130100A08601000000102700000000E8030000A2
S113011000006400000000000A000000000001006C
S1130120000000002C76D888DC674F0823DFC1DF8D
S1130130AE59E1B1B796E5E3E453C63AE651997690
S113014096E8E6C28426EB898C9B62ED407C6FFCCA
S1130150EFBC9C9F40F2BAA56FA5F490055A2AF70C
S11301605C936B6CF9676DC11BFCE0E40D47FEF515
S113017020E6B500D0ED902E03009435770500807D
S1130180841E080000204E0A000000C80C333333DC
S1130190330F986E12831141EF8D2114893BE6557C
S11301A016CFFEE6DB18D1844B381BF77C1D901D5F
S11301B0A4BBE424203284725E228100C9F124ECC1
S11301C0A1E53D27525443206368697020445333AA
S11301D03233314D20696E697469616C697A656482
S11301E02E00556E61626C6520746F2066696E64C2
S11301F0204453333233314D4D2E20436865636BB5
S1130200696E6720616761696E20696E2033732EA1
S11302100053657020313020323032300030393AAA
S113022031333A3134001F1C1F1E1F1E1F1F1E1F97
S11302301E1F000000000403080700000200090A52
S113024000000000000000000000000000000000AA
S113025000010102040810204080010210204080A7
S1130260102040801008200440800102040801028C
S11302700408040404040404040402020202020242
S1130280010101010303030303030101010103034A
S113029002020000000023002600290000000000E4
S11302A0250028002B0000000000240027002A005D
S11302B0F70F351A8D1A851D6C1F771F49211925D3
S11302C0A82B2B2DC81011241FBECFEFD0E4DEBF06
S11302D0CDBF18E0A0E0B1E0E6E8F3E700E00BBF33
S11302E002C007900D92AE31B107D9F72BE0AEE111
S11302F0B8E001C01D92A632B207E1F711E0C2E6F0
S1130300D1E004C02197FE010E948034C835D10792
S1130310C9F70E94B72D0C94B73972CE80E090E0F3
S11303200895089544980895449A0895EF92FF9289
S11303300F931F93CF93DF93CDB7DEB768970FB6B4
S1130340F894DEBF0FBECDBF8DEF97E09A8389830B
S1130350409161085091620860916308709164084B
S11303604B835C836D837E8398878F83409167087A
S1130370509168086091690870916A0849875A87A2
S11303806B877C879E878D8740916D0850916E089E
S113039060916F08709170084F87588B698B7A8BC6
S11303A09C8B8B8B8091730890917408A091750835
S11303B0B09176088D8B9E8BAF8BB88FCE01019652
S11303C07C018E01095F1F4F9E01235F3F4FAE01E9
S11303D04D5E5F4F66E271E089E799E00E943F1D40
S11303E068960FB6F894DEBF0FBECDBFDF91CF91F4
S11303F01F910F91FF90EF9008951816190644F479
S1130400EFE9FFE03197F1F700C000000197F5CF65
S11304100895CF938CE79AE00E943C2ECDE761E8E3
S113042071E08CE79AE00E94342EC150C1F78CE74A
S11304309AE0CF910C943C2ECF92DF92EF92FF92F0
S11304400F931F93CF93DF936A017B01C0E0D0E049
S1130450082F10E0C017D10724F4C601CEDF21967F
S1130460F9CFDF91CF911F910F91FF90EF90DF9023
S1130470CF9008958232910509F49AC06CF58A30C0
S1130480910509F483C0A4F48630910509F475C07C
S11304908930910509F45DC0059709F0CFC06091DA
S11304A006018CE79AE00E94352E20E030E059C026
S11304B08231910509F473C08132910509F454C065
S11304C0419709F0BBC0609108018CE79AE00E9453
S11304D0352E22E030E045C08036910509F499C0FC
S11304E0ACF48834910509F482C08035910509F48F
S11304F087C08434910509F0A1C0609112018CE792
S11305009AE00E94352E20E030E08BC088389105B7
S113051009F459C06CF48438910509F08FC06091D6
S11305200E018CE79AE00E94352E20E030E05CC09A
S11305308039910509F450C0803A910509F07EC0D4
S1130540609111018CE79AE00E94352E23E030E09F
S11305504BC0609107018CE79AE00E94352E21E0A0
S113056030E080E090E05FC0609109018CE79AE0A0
S11305700E94352E23E030E0F4CF60910A018CE72D
S11305809AE00E94352E20E030E01AC060910B0101
S11305908CE79AE00E94352E21E030E011C0609192
S11305A00C018CE79AE00E94352E22E030E008C06E
S11305B060910D018CE79AE00E94352E23E030E033
S11305C081E090E030C060910F018CE79AE00E94D6
S11305D0352E21E030E008C0609110018CE79AE0EC
S11305E00E94352E22E030E082E090E01CC0609151
S11305F013018CE79AE00E94352E21E030E011C00F
S1130600609114018CE79AE00E94352E22E030E0DC
S113061008C0609115018CE79AE00E94352E23E012
S113062030E083E090E0880F991F880F991F8A5F5C
S11306309E4FFC01E20FF31F808108958EE408951C
S1130640CF92DF92EF92FF920F931F93CF93DF939A
S1130650CDB7DEB72C970FB6F894DEBF0FBECDBF73
S11306608C016B017A0184EF98E00E94A42582E05A
S1130670C816D1040CF447C0409131085091320897
S1130680609133087091340880912D0890912E0860
S1130690A0912F08B0913008480F591F6A1F7B1F83
S11306A041505109610971098091350890913608CA
S11306B0A0913708B0913808481B590B6A0B7B0B83
S11306C02AE0CE0107960E94CB3163E971E0CE01A6
S11306D001960E94F530BE01695F7F4FCE010196FD
S11306E00E9476326BE971E00E948732BC0184EF8C
S11306F098E00E94262ECE0101960E948E30CE01F3
S113070007960E948E3061E084EF98E00E94352EB7
S113071041E060E084EF98E00E94AA25B8016A5F96
S11307207F4F84EF98E00E94262E42E060E084EF41
S113073098E00E94AA25B801645F7F4F84EF98E097
S11307400E94262E43E060E084EF98E00E94AA25F0
S1130750B8016E5E7F4F84EF98E00E94262EC70199
S11307604CDE2C960FB6F894DEBF0FBECDBFDF91E2
S1130770CF911F910F91FF90EF90DF90CF9008954C
S113078060932D0870932E0880932F08909330085F
S113079087E298E00E94371860933108709332081A
S11307A080933308909334088091CD089091CE08BB
S11307B001969093CE088093CD080895AF92BF928E
S11307C0CF92DF92EF92FF920F931F93CF93DF9319
S11307D0CDB7DEB7A2970FB6F894DEBF0FBECDBF7C
S11307E05C01F62E64E871E0CE014D960E94F5306E
S11307F008EC10E024E139E04DE059E060E08DEDD3
S113080098E00E94AA1580931509882309F49DC0D5
S11308104EE150E060E070E082E00EDE8091140969
S1130820843009F08CC086E0E3E7F1E0DE015796FE
S113083001900D928A95E1F7CE0147966C01E12C67
S113084004E010E020E030E044E06DE079E08DED7C
S113085098E00E94FE1580931509882309F45FC06F
S1130860FF2099F080E1ECE5F7E0DE0111960190BC
S11308700D928A95E1F7AE014F5F5F4F64E08DED15
S113088098E00E94911680931509AE014F5F5F4F67
S113089064E08DED98E00E945E168093150988232C
S11308A089F161EA71E08CE79AE00E945F2EBE0153
S11308B06F5F7F4FCE0141960E94F530BE016F5E9F
S11308C07F4F8CE79AE00E944F2E8D899E89069770
S11308D059F4BE016F5E7F4FC5010E944431CE01C1
S11308E041960E948E3037C09FEF21EE84E09150F4
S11308F020408040E1F700C00000CE0141960E94F4
S11309008E301DC084EF98E00E94A42541E060E091
S113091084EF98E00E94AA256FEA71E00CC084EF8E
S113092098E00E94A42541E060E084EF98E00E94F2
S1130930AA2569EB71E084EF98E00E94342E64E804
S113094071E08CE79AE00E945F2EBE01635E7F4FE8
S1130950C5010E944431CE014D960E948E30C501DE
S1130960A2960FB6F894DEBF0FBECDBFDF91CF9134
S11309701F910F91FF90EF90DF90CF90BF90AF90B9
S11309800895CF92DF92EF92FF920F931F93CF932C
S1130990DF93CDB7DEB764970FB6F894DEBF0FBE12
S11309A0CDBF7C01CE0101966C0187E0F601119266
S11309B08A95E9F761EC71E0C7010E94F53000E027
S11309C010E09E012C5E3F4FA60160E08DED98E0A3
S11309D00E94AA15882359F10C8910E020E030E028
S11309E0A6016DED78E0CE010E960E94A913CE010A
S11309F00E960E940B3328E030E040E050E0BE0148
S1130A00625F7F4FCE0108960E94C832BE01685FC4
S1130A107F4FC7010E946931CE0108960E948E3033
S1130A2081E080930C09CE010E960E948E30C7019E
S1130A3064960FB6F894DEBF0FBECDBFDF91CF91A1
S1130A401F910F91FF90EF90DF90CF900895EF9258
S1130A50FF920F931F93CF93DF93CDB7DEB72C97FD
S1130A600FB6F894DEBF0FBECDBF8C017B0168ECDE
S1130A7071E0CE0107960E94F53020915B01309120
S1130A805C01F701848195812817390799F4A9013C
S1130A9043505109B701CE0101960E94C832BE01EC
S1130AA06F5F7F4FC8010E944431CE0101960E94BE
S1130AB08E3006C0BE01695F7F4FC8010E94443179
S1130AC0CE0107960E948E30C8012C960FB6F8947A
S1130AD0DEBF0FBECDBFDF91CF911F910F91FF906D
S1130AE0EF900895EF92FF920F931F93CF93DF93AC
S1130AF0CDB7DEB72C970FB6F894DEBF0FBECDBFCF
S1130B008A017901AC01C8010E94CD1D892B09F429
S1130B1077C060ED71E0CE0101960E94F530B70117
S1130B20CE0101960E94763261E072E00E94873223
S1130B30BC0181ED98E00E944C31CE0101960E94E7
S1130B408E306EE072E081ED98E00E9456326BEFD9
S1130B5073E081ED98E00E9456326AE272E081ED22
S1130B6098E00E9456326BEF73E081ED98E00E94AA
S1130B70563263E472E081ED98E00E9456326BEFE6
S1130B8073E081ED98E00E94563262E672E081EDF6
S1130B9098E00E9456326BEF73E081ED98E00E947A
S1130BA0563262E872E081ED98E00E9456326BEFB3
S1130BB073E081ED98E00E9456326CE273E081EDBF
S1130BC098E00E9456326BEF73E081ED98E00E944A
S1130BD0563261ED78E0C8010E94262E2FEF87EE91
S1130BE093E0215080409040E1F700C000006BE4A6
S1130BF073E0C8010E945F2EC8010E943C2E25C0EC
S1130C0084EF98E00E94A42541E060E084EF98E03E
S1130C100E94AA256DE573E084EF98E00E94342ECB
S1130C2043E060E084EF98E00E94AA2562E773E065
S1130C3084EF98E00E94342E2FEF83ED90E321504F
S1130C4080409040E1F700C000002FEF81EE94E077
S1130C50215080409040E1F700C00000F12CC80111
S1130C600E94441E892B09F454C0C8010E944E1EE0
S1130C70E82E65EC78E0CE0101960E9461316E2D7C
S1130C80CE0101960E949E32BC0185EC98E00E9440
S1130C904C31CE0101960E948E3020915B0130913F
S1130CA05C018091C9089091CA0828173907B9F6E0
S1130CB065EC78E0CE0101960E946131BE016F5F60
S1130CC07F4FCE010796C3DECE0101960E948E307F
S1130CD02FEF87EE93E0215080409040E1F700C071
S1130CE0000061E873E0CE0107960E94AA328823CF
S1130CF011F0FF24F3942FEF87EE93E0215080400E
S1130D009040E1F700C00000CE0107960E948E30AB
S1130D10A6CF8F2D2C960FB6F894DEBF0FBECDBF95
S1130D20DF91CF911F910F91FF90EF900895EF9273
S1130D30FF920F931F93CF93DF93CDB7DEB72C971A
S1130D400FB6F894DEBF0FBECDBF8A017901AC01A6
S1130D50C8010E94CD1D892B09F492C02FEF81EEAA
S1130D6094E0215080409040E1F700C0000065E825
S1130D7073E081ED98E00E94743166EA73E081EDDE
S1130D8098E00E9456326BEF73E081ED98E00E9488
S1130D90563262E872E081ED98E00E9456326BEFC1
S1130DA073E081ED98E00E9456326CE273E081EDCD
S1130DB098E00E9456326BEF73E081ED98E00E9458
S1130DC0563268EC73E081ED98E00E9456326BEF86
S1130DD073E081ED98E00E94563264ED73E081ED9A
S1130DE098E00E9456326BEF73E081ED98E00E9428
S1130DF056326BEF73E081ED98E00E94563267EE55
S1130E0073E081ED98E00E9456326BEE73E0CE0100
S1130E1001960E94F530B701CE0101960E94763208
S1130E206AEF73E00E948732BC0181ED98E00E9472
S1130E305032CE0101960E948E306EEF73E081ED48
S1130E4098E00E94563261ED78E08CE79AE00E94C7
S1130E504F2E61ED78E0C8010E94262E2FEF87EE19
S1130E6093E0215080409040E1F700C000006BE423
S1130E7073E0C8010E945F2EC8010E943C2E25C069
S1130E8084EF98E00E94A42541E060E084EF98E0BC
S1130E900E94AA256DE573E084EF98E00E94342E49
S1130EA043E060E084EF98E00E94AA2562E773E0E3
S1130EB084EF98E00E94342E2FEF83ED90E32150CD
S1130EC080409040E1F700C000002FEF81EE94E0F5
S1130ED0215080409040E1F700C00000F12CC8018F
S1130EE00E94441E892B09F454C0C8010E944E1E5E
S1130EF0E82E65EC78E0CE0101960E9461316E2DFA
S1130F00CE0101960E949E32BC0185EC98E00E94BD
S1130F104C31CE0101960E948E3020915B013091BC
S1130F205C018091C9089091CA0828173907B9F65D
S1130F3065EC78E0CE0101960E946131BE016F5FDD
S1130F407F4FCE01079683DDCE0101960E948E303D
S1130F502FEF87EE93E0215080409040E1F700C0EE
S1130F60000061E873E0CE0107960E94AA3288234C
S1130F7011F0FF24F3942FEF87EE93E0215080408B
S1130F809040E1F700C00000CE0107960E948E3029
S1130F90A6CF2FEF80E792E0215080409040E1F708
S1130FA000C000008F2D2C960FB6F894DEBF0FBE44
S1130FB0CDBFDF91CF911F910F91FF90EF900895D6
S1130FC05798569888E08093680080EC809373006B
S1130FD07894089509980A98089591E09093680088
S1130FE0843419F40D9880E202C00E9880E4809352
S1130FF06B0078940895CF92DF92EF92FF92BC0138
S1131000990F880B990B0E94192C6B017C0120E02D
S113101030E0A9010E94AB2B87FF03C0C12CD12C67
S113102076016091590170915A01072E000C880BCA
S1131030990B0E94192C9B01AC01C701B6010E94B7
S1131040AF2BFF90EF90DF90CF9008953F9A8130BF
S1131050910571F082309105E1F0892B89F547986B
S11310602FEF30E742E0215030404040E1F70EC01E
S113107028B101C0880F6A95EAF7822B88B98FEFEF
S113108090E722E0815090402040E1F700C000004A
S1131090089528B181E090E001C0880F6A95EAF7CD
S11310A0982F9095922398B93FEF45EA2EE031505E
S11310B040402040E1F700C0000098B1892B88B976
S11310C008950F9A81309105B9F08230910529F184
S11310D0892BD1F522B181E090E001C0880F6A9597
S11310E0EAF78095822382B92FEF30E742E021505E
S11310F030404040E1F70EC022B101C0880F6A952C
S1131100EAF7822B82B98FEF90E722E0815090407A
S11311102040E1F700C00000089522B181E090E092
S113112001C0880F6A95EAF7982F9095922392B997
S11311303FEF45EA2EE0315040402040E1F700C047
S1131140000092B1892B82B90895239A2FEF36E7D4
S113115041E0215030404040E1F700C000008130C0
S1131160910511F42B9A0895892B09F42B9808956D
S113117064E871E085EC98E00E9474311092CC0828
S11311801092CB0810920C0969E774E08BE998E09F
S11311900E94743167E070E081E090E057DF67E01F
S11311A070E081E090E08DDF80E090E0CEDF8FE1C1
S11311B09EE40197F1F700C0000085E498E00E94E6
S11311C08C1E85E498E00E94D11E8FE19EE4019775
S11311D0F1F700C0000082E598E00E948C1E82E5D1
S11311E098E00E94D11E1092D0081092CF088FE18F
S11311F09EE40197F1F700C000002C988FE19EE473
S11312000197F1F700C000002C9A8FE19EE401974A
S1131210F1F700C0000088D88FE19EE40197F1F750
S113122000C000007FD882B182B982B182B964E87B
S113123071E08DE798E00E94743164E871E083E81E
S113124098E00E94743164E871E083E898E00E94B9
S1131250743184EF98E00E94942584EF98E00E9412
S1131260EC25109235081092360810923708109227
S113127038081092310810923208109233081092F4
S11312803408C7D86BE774E08CE79AE00E945F2EBD
S1131290C0D864E871E081E298E00E9474318EEF76
S11312A09FEF9093CE088093CD080895CF92DF925C
S11312B0EF92FF920F931F93CF93DF93CDB7DEB7D7
S11312C0A3970FB6F894DEBF0FBECDBFE091CD0853
S11312D0F091CE083296EC30F10508F08AC4EA5B4E
S11312E0FF4F0C94803464E871E08DE798E00E942D
S11312F074316CE874E083E898E00E94743164E827
S113130071E089E898E00E9474316091CD08709191
S1131310CE0844E650E087E798E092D92FEF33EC0B
S113132089E0215030408040E1F700C000000BC04C
S113133047DE9FEF29EF30E0915020403040E1F745
S113134000C0000047DE8091CD089091CE08019640
S11313509093CE088093CD084CC464E871E08DE787
S113136098E00E94743164E871E083E898E00E9498
S1131370743164E871E089E898E00E947431609106
S1131380CD087091CE0844E650E087E798E058D93C
S11313908FEF97EA21E6815090402040E1F700C0AA
S11313A0000010920C090E949201CDCF64E871E014
S11313B081E298E00E94743168E974E08DE798E076
S11313C00E94743164E871E083E898E00E9474310B
S11313D06CEA74E089E898E00E9474316091CD0869
S11313E07091CE0844E650E087E798E029D961EC93
S11313F071E0CE0146960E94F53080910C0981116E
S113140014C0CE010196BDDABE016F5F7F4FCE01DD
S113141046960E946931CE0101960E948E3044E6C0
S113142050E060E070E082E007D861EC71E0CE014A
S113143046960E94AA32811102C0449B18C4BE0180
S11314406A5E7F4FCE010E960E94613180914708FB
S1131450909148089C838B838091490890914A0815
S1131460A0914B08B0914C088D839E83AF83B887BD
S113147080914D0890914E08A0914F08B09150086A
S113148089879A87AB87BC8789E797E09A838983A2
S1131490809151088D879E01225F3F4FAE014F5FBF
S11314A05F4F63E471E080E590E01CDB182FCE0110
S11314B00E960E948E30112359F1449A40E951E06E
S11314C060E070E081E00E941C026FEB74E08DE745
S11314D098E00E94743164E871E083E898E00E9427
S11314E0743163ED74E089E898E00E94743160918E
S11314F0CD087091CE084AE050E087E798E0A0D884
S11315003FEF81EE94E0315080409040E1F729C0F4
S113151048EC50E060E070E083E00E941C026FEB56
S113152074E08DE798E00E94743164E871E083E828
S113153098E00E94743163ED74E089E898E00E94B9
S113154074316091CD087091CE084AE050E087E78D
S113155098E076D82FEF31EE84E02150304080407F
S1131560E1F700C000006091220170912301809195
S113157024019091250104D9CE01469680C10E9490
S113158094018FE19EE40197F1F700C000000E94EE
S113159092016CE38EE198E00E9432138EE198E0B0
S11315A00E944913082F42E0BE016A5E7F4F90E01B
S11315B00E94FE3663EC8EE198E00E9432138EE1C5
S11315C098E00E944913182F42E0BE01625F7F4FEA
S11315D090E00E94FE361027012F10E042E0BE0189
S11315E06F5F7F4FC8010E94FE36C8010E943A0215
S11315F09FEF21EE34E0915020403040E1F700C0ED
S11316000000813461F08E3419F0833299F516C0EC
S11316106AED74E08CE79AE00E94342E3BC064E8E3
S113162071E081E298E00E9474316091220170912E
S113163023018091240190912501A2D8809125084D
S113164090912608059731F561E278E08CE199E004
S11316500E944C316CE179E087EA98E00E944C31B9
S113166060912201709123018091240190912501C0
S113167087D810C0682FCE014E960E948931BE01D2
S1131680625E7F4F81E298E00E945032CE014E9616
S11316900E948E306FEB74E08DE798E00E94743105
S11316A064E871E083E898E00E94743163ED74E0CB
S11316B0CE014E960E94F53061E278E0CE014E965E
S11316C00E947632BC0189E898E00E944C31CE0138
S11316D04E960E948E306091CD087091CE084AE0FB
S11316E050E087E798E00E94200383C28091250898
S11316F0909126080597B9F464E871E086E199E0D1
S11317000E94743161E278E08CE199E00E944C31EE
S11317101092220960911E0170911F018091200195
S113172090912101EAC060E0CE010E9647D88FE384
S11317309CE90197F1F700C00000BE01625F7F4F92
S11317408CE79AE00E944F2E2A893B8945E050E0BD
S1131750BE01625F7F4FCE0101960E94C832BE0176
S11317606F5F7F4F86E199E00E946931CE01019657
S11317700E948E3025E030E040E050E0BE01625F20
S11317807F4FCE0101960E94C832BE016F5F7F4F2A
S11317908CE199E00E946931CE0101960E948E305D
S11317A01092220961EE74E08DE798E00E94743192
S11317B064E871E083E898E00E94743164EF74E0B7
S11317C0CE0101960E94F5306CE179E0CE010196DC
S11317D00E947632BC0189E898E00E944C31CE0127
S11317E001960E948E306091CD087091CE084AE037
S11317F050E087E798E00E9420036CEF74E0CE018C
S113180001960E94F53066E179E0CE0101960E94CE
S11318107632BC018CE79AE00E944F2ECE010196ED
S11318200E948E3064EF74E0CE0101960E94F53080
S11318306CE179E0CE0101960E947632BC018CE71E
S11318409AE00E944F2ECE0101960E948E3066E1EE
S113185079E08BE998E00E944C316EE075E086E116
S113186099E00E94AA3281116DC260E175E086E1BF
S113187099E00E94AA32811165C2CE010E960E949F
S11318808E30B7C162E175E08DE798E00E94743153
S113189064E871E083E898E00E9474316DE275E0D9
S11318A089E898E00E9474316091CD087091CE0867
S11318B044E650E087E798E00E9420036EE075E07C
S11318C086E199E00E94AA328823D1F082E485DB84
S11318D067E070E080E090E0F4DB6EE375E087EDB4
S11318E098E00E9474316EE075E08DEA98E00E9401
S11318F074316AE070E080E090E00E94C00379C136
S113190060E175E086E199E00E94AA32882309F437
S113191070C184E462DB67E070E080E090E096DB15
S113192066E475E087ED98E00E94743160E175E04B
S1131930DCCF1092CC081092CB086EE475E08DE7F2
S113194098E00E94743164E871E083E898E00E94B2
S1131950743165E675E0CE0101960E94F53067EDBD
S113196078E0CE0101960E9476326CE675E00E9422
S11319708732BC0189E898E00E944C31CE0101967F
S11319800E948E306091CD087091CE0844E650E0FC
S113199087E798E00E94200364E170E080E090E033
S11319A0ACCF0E9494018FE39FE10197F1F700C04F
S11319B000000E9492018091CB089091CC081BDB1F
S11319C06B017C0122E0AB01BC01CE010E960E94AA
S11319D0F63163E775E0CE0101960E94F530BE0151
S11319E0625F7F4FCE0101960E947632BC018DE783
S11319F098E00E944C31CE0101960E948E30CE01B7
S1131A000E960E948E3064E871E083E898E00E94AC
S1131A1074316BE775E0CE0101960E94F53067EDF5
S1131A2078E0CE0101960E947632BC0189E898E004
S1131A300E944C31CE0101960E948E306091CD08F7
S1131A407091CE0844E650E087E798E00E942003B6
S1131A50019B08C060E175E08BE998E00E94AA321E
S1131A60811187C1199BC5C06EE075E08BE998E0D0
S1131A700E94AA328111AAC1BCC064E871E08DE75A
S1131A8098E00E94743168E875E083E898E00E9469
S1131A90743164E871E089E898E00E9474314499F3
S1131AA0A8C06091CD087091CE084AE050E087E765
S1131AB098E00E94200364E871E08FE898E00E94B7
S1131AC0743101EA18E089EBE82E88E0F82EB801B9
S1131AD0CE0101960E94613166E975E0CE0101965E
S1131AE00E948732BC018FE898E00E945032CE01F8
S1131AF001960E948E300A5F1F4FE016F10639F7F7
S1131B009FEF23ED30E3915020403040E1F700C0D7
S1131B1000006FE878E0CE010E960E94613180915A
S1131B205408909155089C838B838091560890911A
S1131B305708A0915808B09159088D839E83AF83AC
S1131B40B88780915A0890915B08A0915C08B09185
S1131B505D0889879A87AB87BC8789E797E09A8372
S1131B60898380915E088D879E01225F3F4FAE017D
S1131B704F5F5F4F6CE271E089E893E1D8D8182F8A
S1131B80CE010E960E948E30112339F10E949401E9
S1131B9064E871E08DE798E00E94743168E975E0CB
S1131BA083E898E00E94743164E871E089E898E081
S1131BB00E9474316091CD087091CE0844E650E0E3
S1131BC087E798E00E9420038FEF99EF20E081508F
S1131BD090402040E1F700C000000E949401609111
S1131BE0160170911701809118019091190185CE09
S1131BF0BFDA69E378E0CE0101960E94E61886E038
S1131C00FE013196A7E2B8E001900D928A95E1F7C2
S1131C1087E298E00E94371860933508709336087D
S1131C208093370890933808009131081091320856
S1131C302091330830913408C0902D08D0902E089C
S1131C40E0902F08F09030080C0D1D1D2E1D3F1D37
S1131C5068017901C61AD70AE80AF90AD701C60148
S1131C600297A105B10508F0DCC082DADAC064E8A5
S1131C7071E08CE79AE00E945F2E67EA75E08CE7DA
S1131C809AE00E94342E67EE75E0CE0101960E9420
S1131C90F530BE016A5E7F4FCE0101960E94763216
S1131CA0BC018CE79AE00E944F2ECE0101960E945F
S1131CB08E3067EA75E08CE79AE00E94342E66EF76
S1131CC075E08CE79AE00E945F2EBE016A5E7F4F4A
S1131CD081EA98E00E944C3184EF98E00E948C25C0
S1131CE084EF98E00E94F2258FE39CE90197F1F7D5
S1131CF000C000006BE176E08DE798E00E9474314B
S1131D006DE276E083E898E00E94743160E476E066
S1131D1089E898E00E9474316091CD087091CE08F2
S1131D2044E650E087E798E00E9420030E94960171
S1131D309FEF23ED30E3915020403040E1F700C0A5
S1131D4000007DCB6CE179E087EA98E00E944C3199
S1131D5066E179E08DEA98E00E944C3160911E01C1
S1131D6070911F0180912001909121010E94C00374
S1131D7084CD22E0B701A601CE0101960E94F6317E
S1131D80BE016F5F7F4F83EB98E00E946931CE0103
S1131D9001960E948E3063E576E087ED98E00E941C
S1131DA0743167E070E081E090E08BD967E070E027
S1131DB081E090E04BD992B182E0892782B96AE050
S1131DC070E080E090E00E94C0034CCE22E0B701B6
S1131DD0A601CE0101960E94F631BE016F5F7F4FCE
S1131DE083EB98E00E946931CE0101960E948E3007
S1131DF063E576E087ED98E00E94743167E070E077
S1131E0081E090E05ED967E070E081E090E01ED967
S1131E1060911A0170911B0180911C0190911D0128
S1131E206CCDA3960FB6F894DEBF0FBECDBFDF9185
S1131E30CF911F910F91FF90EF90DF90CF90089575
S1131E401F920F920FB60F9211248F939F93059BAD
S1131E5009C08091CB089091CC0801969093CC084E
S1131E608093CB08069B09C08091CB089091CC0845
S1131E7001969093CC088093CB089F918F910F90FB
S1131E800FBE0F901F9018951F920F920FB60F92CE
S1131E9011240BB60F922F933F934F935F936F933D
S1131EA07F938F939F93AF93BF93EF93FF9380910F
S1131EB0CD089091CE08049709F086C04E9B2AC0A5
S1131EC08091250990912609019690932609809383
S1131ED025098091250990912609181619068CF573
S1131EE082E47BD867E070E080E090E0EAD86EE0BE
S1131EF075E08BE998E00E9474316EE375E087ED3C
S1131F0098E00E9474316AE070E080E090E00E9402
S1131F10C0030FC0809123099091240901969093E6
S1131F20240980932309809123099091240902971D
S1131F3044F0109226091092250910922409109257
S1131F4023094F9B2AC08091250990912609019667
S1131F50909326098093250980912509909126095B
S1131F60181619068CF584E438D867E070E080E030
S1131F7090E06CD860E175E08BE998E00E947431E0
S1131F8066E475E087ED98E00E9474316AE070E0E1
S1131F9080E090E00E94C0030FC0809123099091DB
S1131FA0240901969093240980932309809123099D
S1131FB090912409029744F0109226091092250961
S1131FC01092240910922309FF91EF91BF91AF91D0
S1131FD09F918F917F916F915F914F913F912F913D
S1131FE00F900BBE0F900FBE0F901F9018958F92FD
S1131FF0AF92CF92EF920F9300E020E040E060E0D8
S113200087E299E00E94A12D64E871E086E199E0FD
S11320100E94F53064E871E08CE199E00E94F530AB
S11320201F9283E08F9387E0882E96E0A92E25E007
S1132030C22E34E0E32E21E042E067E284EF98E030
S11320400E94292743E064E08DED98E04CD363E6D9
S113205076E087ED98E00E94F53064E871E081ED68
S113206098E00E94F53064E871E085EC98E00E9405
S1132070F53064E871E081EA98E00E94F53064E8A4
S113208071E087EA98E00E94F53064E871E08DEA37
S113209098E00E94F53064E871E083EB98E00E94D8
S11320A0F53064E871E089EB98E00E94F53064E86B
S11320B071E08FEB98E00E94F53069E774E08BE9FA
S11320C098E00E94F53064E871E085E998E00E94A8
S11320D0F53064E871E08FE898E00E94F53069E734
S11320E074E087E798E00E94F53069E774E08DE7D3
S11320F098E00E94F53069E774E083E898E00E9474
S1132100F53069E774E089E898E00E94F53002E36D
S113211020E048EA60EC81E798E00E94A12D05E107
S113212021E048EA60EC8BE698E00E94A12D01E0F2
S113213020E048EA60EC85E698E00E94A12D00E0EA
S113214020E04FEF6FEF8FE598E00E94A12D82E52C
S113215098E00E948F1E85E498E00E948F1E89E318
S113216098E0BAD740E050E0BA0187E298E048D658
S113217064E871E081E298E00E94F5300F900F90DE
S11321808EE198E00F91EF90CF90AF908F900BC2BB
S1132190CF93DF9381E298E00E948E3089E398E048
S11321A0A2D789E898E00E948E3083E898E00E94E4
S11321B08E308DE798E00E948E3087E798E00E9489
S11321C08E308FE898E00E948E3085E998E00E9476
S11321D08E308BE998E00E948E30C5ECD8E02697CB
S11321E0CE010E948E3088E0C13AD807C1F785EC51
S11321F098E00E948E3081ED98E00E948E3087ED49
S113220098E00E948E308CE199E00E948E3086E145
S113221099E0DF91CF910C948E30CF92DF92EF92C0
S1132220FF920F931F93CF93DF9300D000D000D081
S1132230CDB7DEB72FEF81EE94E02150804090407F
S1132240E1F700C000003C9A8FE19EE40197F1F7AA
S113225000C000000E9494016CE676E08CE79AE0EE
S11322600E945F2E3E9A3F9A0F9A8FE39CE9019752
S1132270F1F700C00000479A8FE39CE90197F1F75A
S113228000C00000179A0E94090220E044E064E1C3
S113229084EF98E00E94AF2784EF98E00E948C2599
S11322A09FEF24E38CE0915020408040E1F700C090
S11322B0000084EF98E00E9494259FEF24E38CE0D3
S11322C0915020408040E1F700C0000084EF98E086
S11322D00E948C259FEF24E38CE0915020408040A5
S11322E0E1F700C0000084EF98E00E9494259FEF7E
S11322F024E38CE0915020408040E1F700C00000CE
S11323004DE551E061E084EF98E00E9472269FEF72
S113231029EF80E0915020408040E1F700C00000A8
S113232084EF98E00E948C2507E718E064E871E0E8
S1132330C8010E9474310A5F1F4F98E00F381907D3
S1132340A9F70E9409028DED98E0DED12FEF80E716
S113235092E0215080409040E1F700C000008DEDF4
S113236098E072D36B017C01672B682B692B69F5AC
S113237061E876E08CE79AE00E94342E84EF98E0DE
S11323800E948C252FEF84E39CE0215080409040F4
S1132390E1F700C0000084EF98E00E94A4256AE9F8
S11323A076E084EF98E00E94342E2FEF87EA91E6DE
S11323B0215080409040E1F700C0000064EB76E0DB
S11323C087ED98E00E94743106C067EC76E08CE7F4
S11323D09AE00E945F2E6CED76E08CE79AE00E9412
S11323E0342E4F2D55276627772720E130E08CE7E0
S11323F09AE00E94C82E6BEE76E08CE79AE00E9489
S1132400342E4E2D50E060E070E02AE030E08CE79E
S11324109AE00E94B62E6EE28CE79AE00E94352E76
S11324204D2D50E060E070E02AE030E08CE79AE067
S11324300E94C82E6FEF8DED98E07CD38DED98E06F
S11324404BD30E94090240EA56E861E070E089E358
S113245098E08CD6811110C062EE71E08CE79AE0AE
S11324600E943F2E2FEF83ED90E321508040904057
S1132470E1F700C00000E7CF2FEF80E792E02150A2
S113248080409040E1F700C0000064EC71E08CE70C
S11324909AE00E943F2E89E398E0C6D70E94090281
S11324A06AEF76E08CE79AE00E945F2E86E29AE07B
S11324B00E94122B68E270E086E29AE00E942F2BC1
S11324C060E086E29AE00E94D42A62E386E29AE01F
S11324D00E94D42A86E29AE00E94A62B2FEF80E77E
S11324E092E0215080409040E1F700C0000062E596
S11324F070E086E29AE00E942F2B60E086E29AE088
S11325000E94D42A62E386E29AE00E94D42A86E2F8
S11325109AE00E94A62B86E29AE00E94212B6EE2AA
S113252077E08CE79AE00E945F2E0E94090260E245
S11325308EE198E03DD02CE340E063EC8EE198E03E
S11325403DD08EEF9FEF9093CE088093CD086FE33C
S113255077E087ED98E00E9474316DE477E0CE0176
S113256001960E94F53067ED78E0CE0101960E9455
S11325707632BC018CE79AE00E944F2ECE01019680
S11325800E948E300E94090226960FB6F894DEBF90
S11325900FBECDBFDF91CF911F910F91FF90EF90B0
S11325A0DF90CF900895FC01108211821282089569
S11325B0FC01608386E29AE00C94122BFF920F9345
S11325C01F93CF93DF93EC01F62E042F122F688113
S11325D086E29AE00E94252B61E086E29AE00E945E
S11325E0D42A6F2D86E29AE00E94D42A86E29AE0E9
S11325F00E94A62B688186E29AE00E94252B62E065
S113260086E29AE00E94D42A602F86E29AE00E9431
S1132610D42A86E29AE00E94A62B8FE39CE90197D4
S1132620F1F700C00000688186E29AE00E94252B41
S113263063E086E29AE00E94D42A612F86E29AE05F
S11326400E94D42A86E29AE00E94A62B8FE39CE99A
S11326500197F1F700C00000DF91CF911F910F9116
S1132660FF900895CF93C62FFC01608186E29AE023
S11326700E94252B63E086E29AE00E94D42A6C2F04
S113268086E29AE00E94D42A86E29AE0CF910C94E2
S1132690A62BCF93DF93EC01688186E29AE00E9437
S11326A0252B60E086E29AE00E94D42A86E29AE032
S11326B00E94A62B688170E041E050E086E29AE037
S11326C00E94A42BC0E086E29AE00E94462A892B4D
S11326D031F086E29AE00E944E2AC82FF4CF8C2F64
S11326E0DF91CF910895CF93DF93EC01862F6C8314
S11326F04D831D8A1E8A60E00E94FB2F61E08D815C
S1132700DF91CF910C94FB2FCF93DF93EC0186E202
S11327109AE00E94122B61E08D810E94373060E0C4
S11327208D810E9437302FEF87E893E1215080405C
S11327309040E1F700C0000061E08D810E943730D5
S11327408FE39CE90197F1F700C00000DF91CF917E
S113275008954F925F926F927F928F929F92AF9261
S1132760BF92EF92FF920F931F93CF93DF93CDB756
S1132770DEB72C970FB6F894DEBF0FBECDBF7C0139
S11327805A012801390164E871E00E94F53085019D
S1132790812C912C540184149504A604B70409F4E3
S11327A046C0F80161918F0140E1CE016031F0F43F
S11327B001960E94A031B701CE0107960E946131B3
S11327C066EC73E0CE0107960E948732BE016F5F0C
S11327D07F4F0E947632BC01C7010E944C31CE016A
S11327E007960E948E30CE01019619C007960E946A
S11327F0A031B701CE0101960E946131BE01695F2B
S11328007F4FCE0101960E947632BC01C7010E941F
S11328104C31CE0101960E948E30CE0107960E9463
S11328208E30FFEF8F1A9F0AAF0ABF0AB4CF8CE72E
S11328309AE00E943C2EC7012C960FB6F894DEBF96
S11328400FBECDBFDF91CF911F910F91FF90EF90FD
S1132850BF90AF909F908F907F906F905F904F90BC
S11328600895FC0184810E94653091E0811190E01B
S1132870892F0895CF92DF92EF92FF921F93CF9307
S1132880DF936C017B01C0E0D0E0C601EADF182FC2
S1132890811115C0E114F10459F02A96EC16FD06D5
S11328A038F46CE677E08CE79AE00E945F2E07C06C
S11328B08FE39CE90197F1F700C00000E6CF812F78
S11328C0DF91CF911F91FF90EF90DF90CF9008950B
S11328D0FF920F931F93CF93DF93F62E072F142F9E
S11328E08FE39FE10197F1F700C0000042E0410F40
S11328F064E286E29AE00E94A22B86E29AE00E94B9
S11329004E2ACF2DD02FCE01810F911D8C01C017DF
S1132910D10761F08FE99FE00197F1F700C0000053
S113292086E29AE00E944E2A8993F1CFDF91CF91FB
S11329301F910F91FF900895CF93DF9300D000D0A3
S113294000D0CDB7DEB746E0BE016F5F7F4FC0DF7A
S113295046E050E06BE671E0CE0101960E94F0364D
S113296021E0892B09F020E0822F26960FB6F894F7
S1132970DEBF0FBECDBFDF91CF910895682F86E2F1
S11329809AE00C94D42ACF92DF92EF92FF920F93A5
S11329901F93CF93DF937B01C1E0C40F8FE39FE1CB
S11329A00197F1F700C0000064E270E086E29AE06B
S11329B00E942F2B80E0E2DF80E0E0DF8FEFDEDF9C
S11329C08C2FDCDF8C2F8195D9DF84EDD7DFC12CF0
S11329D083EDD82ED0E021970C2D10E00C171D07A5
S11329E054F40E0D1F1DF8018081C8DFF8018081A9
S11329F0D80EC394F1CF8D2D8095C0DF80E0BEDF6B
S1132A0086E29AE0DF91CF911F910F91FF90EF90B2
S1132A10DF90CF900C94A62B0F931F93CF93DF934B
S1132A20EC018901B0DFB801CE0124DF882331F045
S1132A30CE01DF91CF911F910F917ECF80E0DF9186
S1132A40CF911F910F910895CF93DF93EC0182E012
S1132A5080932D0928EE33E041E06DE279E0CE0168
S1132A60DBDF811104C060E070E0CB0132C04CE0D8
S1132A706DE279E0CE012CDF46E050E065E671E0DE
S1132A808DE299E00E94F036892B69F78D898111D6
S1132A9003C0E7E0F0E002C0E6E0F0E0E35DF64FFB
S1132AA06081862F90E0A0E0B0E0BA2FA92F982F84
S1132AB088272181822BBA2FA92F982F882722813A
S1132AC0822BBA2FA92F982F88272381BC01CD01EF
S1132AD0622BDF91CF910895CF93DF93EC0194E1C2
S1132AE090932D0981E080932E0990932F09809370
S1132AF0300928EE33E044E06DE279E0CE018CDF6A
S1132B008823A9F048E06DE279E0CE01E1DE8D8909
S1132B10811103C086E090E002C085E090E0FC01F2
S1132B20E35DF64F81E09081953109F080E0DF911B
S1132B30CF910895EDE2F9E022E3208325E021839B
S1132B402FEF228321E02383648328EE33E045E0E2
S1132B50BF0162CFAF92BF92CF92DF92EF92FF920A
S1132B600F931F93CF93DF93EC017A01590168010E
S1132B708AE480932D0981E080932E0960932F09C4
S1132B80980143E06DE279E0CE0146DF182F8823F7
S1132B9041F18D89882379F044E16DE279E0CE0139
S1132BA097DE809134098130E1F480913909F5018F
S1132BB0808380E006C0B601CE015CDE8111ECCFDB
S1132BC010C090913909891768F4282F30E0F90171
S1132BD0E35DF64F9585F701E20FF31F90838F5F56
S1132BE0F0CF10E0812FDF91CF911F910F91FF90D3
S1132BF0EF90DF90CF90BF90AF900895AF92BF92C7
S1132C00CF92DF92EF920F931F93CF93DF93EC0158
S1132C10142F5C018EE0A80EB11C86E0F601D501EC
S1132C2001900D928A95E1F750E0CE0106960E943C
S1132C30D7361D8780E480932D0981E080932E0987
S1132C40E11002C080E601C081E680932F09009361
S1132C50300986E0F501A1E3B9E001900D928A956F
S1132C60E1F780E04D85841760F4282F30E0FE0101
S1132C70E20FF31F9681F901E35DF64F92878F5FB0
S1132C80F1CF465F28EE33E06DE279E0CE01C4DE99
S1132C90882349F04CE06DE279E0CE0119DE81E051
S1132CA090913409911180E0DF91CF911F910F91A0
S1132CB0EF90DF90CF90BF90AF9008950F931F9344
S1132CC0CF93DF93EC018A0180E480932D0981E0A6
S1132CD080932E0980E380932F096093300928EEB6
S1132CE033E044E06DE279E0CE0196DE811102C06A
S1132CF080E012C04AE16DE279E0CE01E9DD809125
S1132D0034098111F5CF80E1E5E3F9E0D8010190C0
S1132D100D928A95E1F781E0DF91CF911F910F9198
S1132D200895CF93DF93EC0180E480932D0981E033
S1132D3080932E0980EA80932F096093300980E103
S1132D40FA01A1E3B9E001900D928A95E1F728EE2A
S1132D5033E044E16DE279E0CE015EDE882369F080
S1132D608FE39CE90197F1F700C000004AE16DE2AE
S1132D7079E0CE01ADDD81E001C080E0DF91CF914B
S1132D800895803D27E0920710F0805D974050E061
S1132D90E6E2F2E021E0261730F43491430F511DAE
S1132DA02F5F3196F8CF633038F09C0123703327BE
S1132DB0232B11F44F5F5F4FBC016D5F7F4F7695FE
S1132DC0679576956795EDE6F1E08E9F90018F9F6C
S1132DD0300D9E9F300D1124C9010197860F971F56
S1132DE0840F951F0895FC01908190539A3008F048
S1132DF090E0818180532AE0929F800D11240895F0
S1132E008F929F92AF92BF92CF92DF92EF92FF92F6
S1132E10CF93DF93EC016A017B0180E8C81A83E455
S1132E20D80A8DE6E80A88E3F80A8CE3882E912C08
S1132E30A12CB12CC701B601A50194010E945E34F6
S1132E406D83CA01B901A50194010E945E346C83AB
S1132E50C701B60120E13EE040E050E00E945E344C
S1132E60CA01B90128E130E040E050E00E945E343C
S1132E706B83C701B60120E831E541E050E00E94D0
S1132E805E3418828881982F937041E050E011F0ED
S1132E9040E050E0BA0163597E4F2617370738F0F7
S1132EA0241B350B2D5631408F5F8883EBCF81E097
S1132EB089838981E82FF0E0EB5DFD4FE491911166
S1132EC003C0823009F4EF5FF0E02E173F0720F0D3
S1132ED02E1B3F0B8F5FECCF2F5F2A83DF91CF91A7
S1132EE0FF90EF90DF90CF90BF90AF909F908F9026
S1132EF00895EF92FF920F931F93CF93DF93CDB773
S1132F00DEB72B970FB6F894DEBF0FBECDBF8C0192
S1132F107A014BE050E0CE0101960E94CE36CE01FC
S1132F200A9661DFF8018083E9818E2F90E0FC012D
S1132F30E154F109E331F10548F5EE5AFF4F0C94E1
S1132F4080348A81813629F08B818E3621F087E0A6
S1132F501BC081E019C086E017C082E015C08B81D8
S1132F60823711F088E010C084E00EC08B81823774
S1132F7011F085E009C083E007C089E005C08AE05C
S1132F8003C08BE001C08CE0F8018183CE0105967B
S1132F902ADFF801828348E050E0B701CE010196B0
S1132FA00E94CE36CE0101961EDFF8018383CE0146
S1132FB0049619DFF8018483CE01079614DFF80123
S1132FC085832B960FB6F894DEBF0FBECDBFDF917D
S1132FD0CF911F910F91FF90EF900895FC01808194
S1132FE04281618190E0CDDE069667E070E00C944A
S1132FF04A340895EF92FF920F931F93CF93DF9378
S1133000EC0188814A81698190E0BBDE9C01A8E1E2
S1133010B0E00E9489342B817B018C01E20EF11C0B
S1133020011D111DA8019701ACE3B0E00E94983482
S11330302C817B018C01E20EF11C011D111DA801E4
S113304097010E9498342D81DC01CB01820F911DE0
S1133050A11DB11DBC01CD0160587C4B8249974C28
S1133060DF91CF911F910F91FF90EF900895EF9210
S1133070FF920F931F93CF93DF93EC0188814A81D2
S1133080698190E07EDE9C01A8E1B0E00E94893471
S11330902B817B018C01E20EF11C011D111DA80185
S11330A09701ACE3B0E00E9498342C817B018C0141
S11330B0E20EF11C011D111DA80197010E94983414
S11330C02D81620F711D811D911DDF91CF911F9183
S11330D00F91FF90EF900895FC01108211821282EB
S11330E013821482089508950F931F93CF93DF934F
S11330F0EC01062F142F68E686E29AE00E94252B45
S1133100602F86E29AE00E94D42A612F86E29AE038
S11331100E94D42A86E29AE00E94A62B8883DF913B
S1133120CF911F910F9108951F93CF93DF93EC01DB
S1133130162F68E686E29AE00E94252B612F86E22C
S11331409AE00E94D42A86E29AE00E94A62B888301
S113315041E068E686E29AE00E94A22B86E29AE0C9
S11331600E944E2ADF91CF911F910895CF92DF9252
S1133170EF92FF92CF93DF93EC016A017B0186E229
S11331809AE00E94122BB701A60186E29AE00E94FF
S1133190222B68E686E29AE00E94252B86E29AE0DA
S11331A00E94A62B81110AC062E0CE01BDDF482F28
S11331B04F7B62E0CE0198DF81E001C080E0DF91C7
S11331C0CF91FF90EF90DF90CF9008950F931F93CE
S11331D0CF93DF938C01EB0168E686E29AE00E94CC
S11331E0252B60E086E29AE00E94D42A86E29AE0E7
S11331F00E94A62B888347E068E686E29AE00E9454
S1133200A22B86E29AE00E94462A079709F064C03E
S113321086E29AE00E944E2A982F96959695969566
S11332209E70292F220F220F920F8F70890F8D838A
S113323086E29AE00E944E2A982F96959695969546
S11332409E70292F220F220F920F8F70890F8E8369
S113325086E29AE00E944E2A982F96959695969526
S11332609E70292F220F220F920F8F70890F8F8348
S113327086E29AE00E944E2A86E29AE00E944E2A52
S1133280982F9695969596959670292F220F220F32
S1133290920F8F70890F888786E29AE00E944E2AE7
S11332A084FB992790F9990F292F220F220F920F4F
S11332B08F70890F898786E29AE00E944E2A982FA0
S11332C092959F708F702AE0929F800D112490E058
S11332D08053984F9B878A872D813E814F815885E3
S11332E069858A859B85803D77E0970710F0805D2E
S11332F09740F80180836183528343833483258319
S1133300C801DF91CF911F910F910895DF92EF9241
S1133310FF920F931F93CF93DF9300D000D000D080
S1133320CDB7DEB78C017B01FB0185819AE0D92EF4
S11333306D2D0E943E34492FF0E18F9F400D1124E2
S113334060E0C801D1DEF70184816D2D0E943E3416
S1133350492FF0E18F9F400D112461E0C801C4DEC4
S1133360F70183816D2D0E943E34492FF0E18F9F38
S1133370400D112462E0C801B7DEC7012FDE482FDB
S113338063E0C801B1DEF70182816D2D0E943E34F5
S1133390492FF0E18F9F400D112464E0C801A4DEA1
S11333A0F70181816D2D0E943E34492FF0E18F9FFA
S11333B0400D112465E0C80197DEF70180816D2D71
S11333C00E943E34492FF0E18F9F400D112466E0A6
S11333D0C8018ADE6FE0C801A7DE482F4F776FE08F
S11333E0C80182DE6EE0C8019FDE482F4F776EE091
S11333F0C8017ADEB801CE010196E8DECE0101965D
S1133400F9DDF801618372838383948326960FB672
S1133410F894DEBF0FBECDBFDF91CF911F910F9106
S1133420FF90EF90DF9008950F931F93CF93DF9356
S113343000D000D000D0CDB7DEB78C014DE152E012
S113344061E172E0CE01019654DDBE016F5F7F4FF2
S1133450C8015CDF26960FB6F894DEBF0FBECDBF61
S1133460DF91CF911F910F9108950F9300E020E019
S113347040E060E08DE699E00E94A12D0F9108954F
S1133480FB014281538164817581FC014283538332
S113349064837583178216820895CF93DF93DA01CC
S11334A0FB01EB0189918111FDCF80E090E020E0E8
S11334B030E04AE051915523E9F02430310544F5D8
S11334C05E3269F48F3F910509F014F5ED01C20FE6
S11334D0D31F8A832F5F3F4F80E090E0EBCF489F5C
S11334E0B001499F700D1124852F90E0C097860F7D
S11334F0971FE0CF8F3F910509F054F42430310534
S11335003CF4FD01E20FF31F828381E090E002C0EE
S113351080E090E0DF91CF9108950F9300E020E0E8
S113352040E060E083E799E00E94A12D0F910895A7
S11335308F929F92AF92BF92CF92DF92EF92FF92BF
S11335400F931F93CF93DF9300D01F92CDB7DEB7B5
S11335506C017B010E94222FF6017783668386012A
S1133560085F1F4FB6016A5F7F4F42E050E0C80119
S113357030D581E090E09A83898342E050E0BE0137
S11335806F5F7F4FC80125D580E091E09A838983DE
S113359042E050E0BE016F5F7F4FC8011AD51A8226
S11335A0198242E050E0BE016F5F7F4FC80111D520
S11335B042E050E0BE016F5F7F4FC8010AD542E090
S11335C050E0BE016F5F7F4FC80103D55701F5017D
S11335D080818823F9F0A7015A01F50181916F01D7
S11335E0882321F08E3211F0A601F6CF4A018E18FD
S11335F09F081814190464F48B8241E050E0BE0162
S11336006D5F7F4FC801E5D4A401B701C801E1D4BF
S11336107601DDCF1B8241E050E0BE016D5F7F4F3C
S1133620C801D7D4E12CFF24F394FA82E98242E062
S113363050E0BE016F5F7F4FC801CBD4FA82E982AC
S113364042E050E0BE016F5F7F4FC801C2D481E009
S113365090E00F900F900F90DF91CF911F910F91F9
S1133660FF90EF90DF90CF90BF90AF909F908F909E
S113367008952F923F924F925F926F927F928F9212
S11336809F92AF92BF92CF92DF92EF92FF920F93ED
S11336901F93CF93DF93CDB7DEB763970FB6F8943C
S11336A0DEBF0FBECDBF7C016B011A010E94222F29
S11336B04B015C018701085F1F4F2601612C712CAF
S11336C0C80129D518161906A4F00E94222FDC017E
S11336D0CB0188199909AA09BB09481659066A0633
S11336E07B06D0F062E370E080E090E00E94532F0C
S11336F0E7CFF7014281538164817581818D928D79
S1133700A38DB48D481759076A077B0749F4858D43
S1133710968DC59729F409C0EE24EA94FE2CF0C0D6
S11337209EEFE92EFF24FA94EBC0C80108D40C974D
S11337300CF4E2C04CE050E0BE016F5F7F4FC80163
S113374083D48B819C819827892798279A8B898B8E
S1133750F7014681578129813A814217530711F4B1
S113376097FD07C0C80105D47CEFE72EFF24FA9427
S1133770C7C08F709270892B39F0C801FAD36BEFF0
S1133780E62EFF24FA94BCC0CF80D884DC24CD2458
S1133790DC24C114D10419F0E12CF12C1FC0C801A0
S11337A0E8D35AEFE52EFF24FA94AAC041E050E092
S11337B0BE01635F7F4FC80147D48D85811117C057
S11337C08D858111F3CFC80117D4C80115D4C80160
S11337D013D4C80111D4FFEFEF1AFF0A8D819E8123
S11337E0982789279827E816F90600F309C08D85DC
S11337F09FEF980F9D87882319F3C801FDD3F7CF56
S1133800A12CB12C41E050E0BE016D5E7F4FC80198
S11338101BD48B89982F907C59F4882379F08B8959
S11338209FEF980F9B8B882331F0C801E5D3F7CF26
S1133830C801E2D31B8A8B898111E4CF42E050E0B6
S1133840BE01615F7F4FC801FFD342E050E0BE017B
S1133850635F7F4FC801F8D3C801CED3C801CCD36E
S1133860C801CAD3C801C8D342E050E0BE016F5EAC
S11338707F4FC801E9D38F8598898115914049F418
S1133880ED84FE84FE24EF24FE2481E0E816F10496
S113389019F0E12CF12C14C089899A89811594407E
S11338A039F0C80166D347EFE42EFF24FA9428C008
S11338B0B1016E5F7F4F44E050E0C801C5D320C022
S11338C089899A89982789279827E816F90630F470
S11338D0C80192D3FFEFEF1AFF0AF2CF2FEFA21A1B
S11338E0B20ACA14DB0409F08DCFC80142D336EF03
S11338F0E32EFF24FA9404C08DEFE82EFF24FA94FB
S1133900C70163960FB6F894DEBF0FBECDBFDF913B
S1133910CF911F910F91FF90EF90DF90CF90BF90C8
S1133920AF909F908F907F906F905F904F903F905B
S11339302F9008958F929F92AF92BF92CF92DF9271
S1133940EF92FF920F931F93CF93DF9300D000D099
S113395000D0CDB7DEB77C014B015A019EDD8C014E
S1133960892B09F057C0F701428153816481758125
S11339708091750990917609A0917709B0917809A1
S1133980481759076A077B0709F447C00E94222F8A
S11339906701F8E0CF0ED11C6F7077277C5FC601FA
S11339A089D3813009F03BC08DEF97E09A838983F6
S11339B0F70182819381A481B5818B839C83AD833C
S11339C0BE8345E350E0BE016F5F7F4FC601F7D26F
S11339D0892B19F400E010E01AC0B401C701A8DD76
S11339E0892BC1F3C601F2D2892BA1F383E0882E7F
S11339F0912CA50168E873E1C7013BDE8C0121E04D
S1133A00821A910821F00F3FFFEF1F0791F3C601BF
S1133A10C2D205C001E010E002C00EEF1FEFC801E2
S1133A2026960FB6F894DEBF0FBECDBFDF91CF91BF
S1133A301F910F91FF90EF90DF90CF90BF90AF90C8
S1133A409F908F90089524E030E0AC0164E081E021
S1133A5090E035C624E030E0AC0164E085E090E01D
S1133A602EC626E030E0AC0164E089E090E027C691
S1133A7024E030E0AC0164E08FE090E020C68F9257
S1133A809F92AF92BF92CF92DF92EF92FF920F93E9
S1133A901F93CF93DF934C015B016A01E901FC01A1
S1133AA0648583EB99E053D6C501DBDFC60102963A
S1133AB0DFDFC8010296C7DFC7010296CBDF8A8128
S1133AC09B81AC81BD81F40182839383A483B583FC
S1133AD0DF91CF911F910F91FF90EF90DF90CF90E6
S1133AE0BF90AF909F908F9008952DEF37E0FC0129
S1133AF031832083FB014281538164817581FC0100
S1133B00428353836483758308950F9300E020E018
S1133B1040E060E086E999E00E94A12D89E799E000
S1133B200E94972DE9E7F9E0138612868AE08487DC
S1133B300F910895DC01ED91FC91028CF38DE02D41
S1133B40099591E089270895CF93DF931F92CDB70C
S1133B50DEB76983DC01ED91FC910280F381E02DF5
S1133B6041E050E0BE016F5F7F4F09950F90DF91F8
S1133B70CF91089521E0FC018485883009F420E088
S1133B80822F0895FC019485FB018485981303C05A
S1133B9081E0983009F480E00895CF92DF92EF92AB
S1133BA0FF920F931F93CF93DF93CDB7DEB7AF97F9
S1133BB00FB6F894DEBF0FBECDBF8C016B017A0146
S1133BC0CE0101960E94972DCE010996F3D2CE0123
S1133BD08A960E94972D69E779E0CE01849685DF65
S1133BE0BE016C5D7F4FCE0101964ADCAE01465D9D
S1133BF05F4FB601CE0101969DDE81309105C1F47F
S1133C00D801ED91FC910684F785E02D8DEF97E0C6
S1133C109DA38CA38CA59DA5AEA5BFA58EA39FA394
S1133C20A8A7B9A7A701BE016C5D7F4FC80109957C
S1133C30AF960FB6F894DEBF0FBECDBFDF91CF9124
S1133C401F910F91FF90EF90DF90CF9008950F9305
S1133C501F93CF93DF938C01D42FC52FFC01848550
S1133C60883041F481E090E0F8019383828380E01E
S1133C7090E005C0CFD3892BA9F38D2F9C2FDF9122
S1133C80CF911F910F910895FC016485683019F05C
S1133C9083EB99E0D0C580E090E00895CF93DF9363
S1133CA01F92CDB7DEB741E050E0BE016F5F7F4F9A
S1133CB0FC018485F7D3181619061CF4898190E059
S1133CC002C08FEF9FEF0F90DF91CF910895FC0119
S1133CD08485E8C30F931F93CF93DF931F92CDB7CF
S1133CE0DEB78C01DC01ED91FC910084F185E02DBF
S1133CF00995892B49F0BE016F5F7F4FF8018485D8
S1133D0012D4898190E002C08FEF9FEF0F90DF9172
S1133D10CF911F910F910895FC01848511C4FC017A
S1133D201382128288EE93E0A0E0B0E0848395834E
S1133D30A683B78389E797E09183808388E08487AB
S1133D400895FC016485683039F06295660F607EE1
S1133D50685F83E090E0DFC480E00895CF93DF9351
S1133D60FC0124852830C9F0EC01EBDF843181F0BB
S1133D70882371F0883161F08C3161F4E881F98134
S1133D800084F185E02DCE01099521E0892B19F4F9
S1133D9020E001C021E0822F01C080E0DF91CF91BB
S1133DA00895CF92DF92EF92FF92CF93DF93EC01CD
S1133DB08C85883069F129D30E94222F6B017C0104
S1133DC0CE01BFDF8823A1F00E94222FDC01CB01AA
S1133DD08C199D09AE09BF09883E9340A105B10520
S1133DE038F461E070E080E090E00E94532FE8CF67
S1133DF0CE01A7DF882311F08C8596D2EC85F0E004
S1133E00EE0FFF1FEA57F64F1182108288E08C876D
S1133E10DF91CF91FF90EF90DF90CF900895CF92F4
S1133E20DF92FF920F931F93CF93DF93FC012485BE
S1133E302830C1F56A018B01EC01F12C6F2D6295DC
S1133E40660F607E685F83E090E065D4811102C0F4
S1133E50FC8607C08B7F8831D9F3F394F8E0FF1216
S1133E60EDCF8C858830F1F0209171013091720191
S1133E702F5F3F4F11F420E034E030937201209320
S1133E807101409171015091720120E061E057D2BB
S1133E90B8016E5F7F4FA6018C8584D2811105C065
S1133EA088E08C8780E090E00FC0CE014ADF873144
S1133EB049F061E070E080E090E00E94532FCE0171
S1133EC040DFECCF81E090E0DF91CF911F910F9123
S1133ED0FF90DF90CF9008950F9300E020E040E042
S1133EE060E08CE999E00E94A12D0F9108950F9351
S1133EF000E020E040E060E082EA99E00E94A12D29
S1133F000F91089580E00895DC01ED91FC91048CFB
S1133F10F58DE02D09942DEF37E0FC0131832083EA
S1133F20FB014189528963897489FC01428353836B
S1133F30648375830895FC01858996890895FC013D
S1133F40818D928D0895CF93DF931F92CDB7DEB705
S1133F506983DC01ED91FC910280F381E02D41E065
S1133F6050E0BE016F5F7F4F09950F90DF91CF91B5
S1133F700895CF93DF93EC01898D9A8D892B41F0BD
S1133F80E881F9810284F385E02DCE010995F4CF0F
S1133F90DF91CF910895CF93DF93EC018C85883026
S1133FA059F0C2D1EC85F0E0EE0FFF1FEA57F64F4F
S1133FB01182108288E08C87DF91CF910895FC01F3
S1133FC0108E178A6E5F7F4F8485E6C2FC0184855C
S1133FD006C3CF93DF93EC019A018F89988DAB01CF
S1133FE0BC018C85AED22F89388D280F391F388FAC
S1133FF02F8BDF91CF9108950F931F93CF93DF936E
S11340001F92CDB7DEB7FC01218D328D232B59F0E1
S11340108C0141E050E0BE016F5F7F4F848542D246
S1134020181619061CF08FEF9FEF08C0F801818D58
S1134030928D0197928F818F898190E00F90DF910B
S1134040CF911F910F910895CF93DF93FC01218DA0
S1134050328D2115310519F48FEF9FEF10C0EC015B
S11340604217530708F0A9018C851CD218161906AB
S11340709CF7298D3A8D281B390B3A8F298FDF91B4
S1134080CF910895CF93DF931F92CDB7DEB7FC0194
S1134090218D328D232B41F0BE016F5F7F4F8485CC
S11340A042D2898190E002C08FEF9FEF0F90DF91A1
S11340B0CF910895EF92FF921F93CF93DF93FC016A
S11340C02485283011F080E020C07B01EC0110E051
S11340D0612F6295660F607E685F83E090E01BD37A
S11340E0811102C01C8705C08831E1F31F5F1830BD
S11340F079F78C85883039F3FE86ED861A8E198E11
S113410020E0A70162E01BD181E0DF91CF911F91F4
S1134110FF90EF9008950F931F93CF93DF93CDB744
S1134120DEB728970FB6F894DEBF0FBECDBF8C0163
S1134130DC01ED91FC910680F781E02D0995F801F1
S1134140648583EB99E077D3892B39F148E050E01B
S1134150BE016F5F7F4FD8011C968C91A3D11816B6
S11341601906ECF4BE016F5F7F4FC8010F960E94E1
S1134170AD2D8D8190E0982F88272E81820F911D7F
S1134180F801968B858B8F8190E0982F882728855E
S1134190820F911D928F818F02C080E090E028965B
S11341A00FB6F894DEBF0FBECDBFDF91CF911F9144
S11341B00F910895FC011382128288EE93E0A0E02F
S11341C0B0E084839583A683B7838BE997E09183DA
S11341D0808388E08487CF010F960C94972DCF922B
S11341E0DF92EF92FF920F931F93CF93DF93CDB79C
S11341F0DEB7AF970FB6F894DEBF0FBECDBF8C010C
S11342006B017A01CE0101960E94972DCE01099689
S1134210D1DFCE018A960E94972D69E779E0CE011D
S1134220849663DCBE016C5D7F4FCE01019628D974
S1134230AE01465D5F4FB601CE0101967BDB813056
S11342409105C1F4D801ED91FC910488F589E02D24
S11342508DEF97E09DA38CA38CA59DA5AEA5BFA5CE
S11342608EA39FA3A8A7B9A7A701BE016C5D7F4F2A
S1134270C8010995AF960FB6F894DEBF0FBECDBF47
S1134280DF91CF911F910F91FF90EF90DF90CF902E
S113429008950F9300E020E040E060E088EA99E0B0
S11342A00E94A12D0F910895AB018295880F807E05
S11342B06CE0680F24E030E08CE090E000C29B01E9
S11342C08295880F807E68E0680FC90124C262E08D
S11342D070E0F5CF9B018295880F807E6CE0680FBB
S11342E0C901CFC1CF93DF93C82FD62F472F64E0E6
S11342F070E0F0DF4D2F65E070E08C2FDF91CF91FF
S1134300E9CF462F62E070E0E5CFCF93DF93C82F6B
S1134310D62F472F60E170E0DDDF4D2F61E170E0C3
S11343208C2FDF91CF91D6CFCF93C82F40E1682F48
S113433083EB99E070D36FEF8C2FCF91E2CFFF9294
S11343400F931F93CF93DF939FEF960F953018F53C
S1134350D22F8A01F62EC82FE7DF4F2D4D2B60E0B8
S113436070E08C2FB7DF0115110511F0B8010AC0F8
S11343706091AE097091AF096F5F7F4F7093AF0981
S11343806093AE098C2FAEDF41E06C2F83EB99E094
S113439042D381E001C080E0DF91CF911F910F9162
S11343A0FF9008950F931F93CF93FB0190819F3F3C
S11343B051F491819F3F91F492819F3F79F49381CD
S11343C09F3F61F41CC0911109C09181911106C0F5
S11343D09281911103C09381992391F04115510564
S11343E071F08A01BF01C82F5FDFB8018C2F8DDF08
S11343F044E06C2F83EB99E00ED391E001C090E090
S1134400892FCF911F910F91089548E0682F83EB76
S113441099E001C3CF92DF92EF92FF920F931F9323
S1134420CF93C82F7B018A014130584010F000E03F
S113443018E06C2F83EB99E0CDD16C0163E070E060
S11344408C2F3DDF873111F08C3121F4C016D10659
S113445080F302C000E010E09801A7016C2F83EB09
S113446099E03DD240E26C2F83EB99E0D4D28C2FBB
S11344702EDF84FD0BC063E070E08C2F20DF811100
S1134480F6CF8C2F51DF80E090E004C060E18C2FE8
S113449038DFC801CF911F910F91FF90EF90DF900B
S11344A0CF900895CF92DF92EF92FF920F931F93D4
S11344B0CF93DF93182F6B017A01682F83EB99E078
S11344C0BAD1EC01009791F463E070E0812FF7DE3C
S11344D08431F9F08823E9F0C1E0D0E08C3111F4A3
S11344E0C0E0D0E0D195C195D10913C0E816F90612
S11344F00CF4E7011C161D0664F400E09E01A601FD
S1134500612F83EB99E03AD240E4612F83EB99E089
S113451082D2CE01DF91CF911F910F91FF90EF9046
S1134520DF90CF9008950F93AB0101E021E030E0DC
S1134530682F83EB99E022D281E090E00F910895F7
S11345400895AF92BF92CF92DF92FF920F931F9381
S1134550CF93DF93F82E6B015A01E901682F83EBA7
S113456099E038D18C179D0728F46F2D83EB99E0DF
S113457031D1EC018E019501A6016F2D83EB99E0F9
S113458074D1CE01DF91CF911F910F91FF90DF90F5
S1134590CF90BF90AF9008950F931F93CF93FB01DB
S11345A09081911109C09181911106C0928191115C
S11345B003C09381992369F04115510551F08A0193
S11345C0BF01C82F71DEB8018C2F9FDE81E090E01F
S11345D002C080E090E0CF911F910F910895CF9396
S11345E0C82F40E2682F83EB99E015D28C2F6FDE41
S11345F084FD0AC08C2F6BDE83FFF8CF68E18C2F1B
S113460080DE80E090E005C060E18C2F7ADE81E0FE
S113461090E0CF9108952091B609222399F04FB7E5
S1134620F8942091B609213059F42DB32093B4099C
S11346303DB32091B509209523232DBB4FBF02C064
S11346404093B4098CBD9DBD08958EBD00000DB48A
S113465007FEFDCF8EB508958091B609882361F0D9
S11346609FB7F8942091B6098091B409213019F4C8
S11346708DBB9FBF08958FBF089544980895449AB1
S113468008950F931F93CF93DF93182F092FD62FDD
S1134690C42F8091B1099091B209BDDFEEDF802F64
S11346A0D4DF812FD2DF8D2FD0DF8C2FCEDFE7DF59
S11346B0D3DF81E0DF91CF911F910F910895DF92B5
S11346C0EF92FF920F931F93CF93DF93D82FD92E9E
S11346D0C62F7A0189018091B1099091B2099BDFBB
S11346E0CCDF8D2DB2DF8D2FB0DF8C2FAEDFE70155
S11346F0E00EF11ECE15DF0519F08991A6DFFACF81
S1134700BEDFAADFC801DF91CF911F910F91FF9007
S1134710EF90DF9008951F93CF93DF93D82F192F35
S1134720C62F8091B1099091B20975DFA6DF812F60
S11347308CDF8D2F8ADF8C2F88DF80E086DFC82F07
S11347409EDF8ADF8C2FDF91CF911F910895CF9345
S1134750DF936093B00968EE73E080E090E00E941C
S1134760532F3C9A10D460E080E090E0D4DF482FCF
S1134770406864E080E090E084DFC0E0DC2FD29504
S1134780DD0FD07ED45F42E06D2F8EE190E079DFC3
S113479042E06D2F8FE190E074DFCF5FC83071F796
S11347A0DF91CF9108951F93CF93DF93182F60E289
S11347B070E085DDC82FD0E0DC2FCC2761E270E00B
S11347C0812F7DDD9E01280F311DC901DF91CF911D
S11347D01F910895FF920F931F93CF93DF93F62EAB
S11347E0C0E0D0E08F2DDFDF8C01892B19F08F2DF5
S11347F0DADFEC01C017D107A9F7CE01DF91CF9121
S11348001F910F91FF9008951F93CF93DF93182F5B
S113481066E270E054DDC82FD0E0DC2FCC2767E2DD
S113482070E0812F4CDD9E01280F311DC901DF91FD
S1134830CF911F910895FF920F931F93CF93DF930E
S1134840F62EC0E0D0E08F2DDFDF8C01892B19F02C
S11348508F2DDADFEC01C017D107A9F7CE01DF9164
S1134860CF911F910F91FF900895AF92BF92DF9265
S1134870EF92FF920F931F93CF93DF93D62E7A017B
S1134880590164E270E08D2D1ADDC82F65E270E0F5
S11348908D2D15DDD0E0DC2FCC27E80EF11CCE0DDC
S11348A0DF1D6D2D6295660F607E6C5E9801A5011B
S11348B0CE0105DFC00FD11F4D2F64E270E08D2DB6
S11348C009DD4C2F65E270E08D2DDF91CF911F91B2
S11348D00F91FF90EF90DF90BF90AF90FBCC0F93C0
S11348E01F9389019A0140E050E0BFDF1F910F91AF
S11348F00895DF92EF92FF920F931F93CF93DF936C
S1134900D82FD92EC62F7A0189018091B1099091AF
S1134910B20981DEB2DE8D2D98DE8D2F96DE8C2FCE
S113492094DEE701E00EF11ECE15DF0521F080E0F4
S11349308CDE8993F9CFA3DE8FDEC801DF91CF919E
S11349401F910F91FF90EF90DF9008950F931F93A5
S1134950CF93DF9300D0CDB7DEB75A834983A90143
S1134960980189819A816295660F607E685E0F90D6
S11349700F90DF91CF911F910F91BBCF8F929F9298
S1134980AF92BF92CF92DF92EF92FF920F931F9359
S1134990CF93DF936C01962E5A017901802E68E241
S11349A070E0892D8CDC082F69E270E0892D87DCAA
S11349B010E0102F0027E801C80FD11D87019501D1
S11349C0AE01692DC601C2DF811018C00C0F1D1F76
S11349D0412F68E270E0892D7DDC402F69E270E0B0
S11349E0892DDF91CF911F910F91FF90EF90DF9070
S11349F0CF90BF90AF909F908F906CCCDF91CF9170
S1134A001F910F91FF90EF90DF90CF90BF90AF90E8
S1134A109F908F900895CF93C62F61E070E08C2F04
S1134A2059DC61E070E08C2F4ADC8111FACFCF9120
S1134A300895E1EBF9E080E5808381E081830895C6
S1134A40FC0112828FEF8183108213820895FC018E
S1134A508381882331F0611103C08FEF818308952E
S1134A601182089586E29AE0F0D586E29AE06ED645
S1134A7091E0811190E0892F0895CF93DF93EC01A9
S1134A806A8386E29AE0CED56A81CE01EBDF8B831E
S1134A90882321F086E29AE001D588838B8190E017
S1134AA0DF91CF910895CF93DF93FC0123812223DB
S1134AB099F0EC018181809568236083628186E2AC
S1134AC09AE0C3D5688186E29AE06ED586E29AE0E0
S1134AD03DD6282F30E002C020E030E081E090E0B5
S1134AE0232B11F080E090E0DF91CF910895089599
S1134AF00895DC01ED91FC910684F785E02D41E0F9
S1134B00099581E090E00895FC011382128223EC60
S1134B1037E0318320830895DC01ED91FC91048416
S1134B20F585E02D6FEF0994DC01ED91FC9104848F
S1134B30F585E02D60E00994DC01ED91FC9106849B
S1134B40F785E02D40E0099461E0F6DF80ED97E021
S1134B500C948C2FCF93DF93CDB7DEB728970FB685
S1134B60F894DEBF0FBECDBFFC0180917901909116
S1134B707A01A0917B01B0917C018D839E83AF83E8
S1134B80B88780917D0190917E01A0917F01B091C1
S1134B90800189839A83AB83BC838781481710F093
S1134BA04FEF480F908550E0DE01A40FB51F903100
S1134BB029F4843019F411969C9102C015969C91A5
S1134BC0690F6068CF0128960FB6F894DEBF0FBE58
S1134BD0CDBFDF91CF91B0CFFC0165816B7F658341
S1134BE06860AACFFC016581262F246025836C6050
S1134BF0A3CFCF93DF93EC01423018F08C8188600F
S1134C008C834F836887222329F0413019F48C81E7
S1134C1084608C8364E670E080E090E00E94532F0F
S1134C206C8164FD31C0E881F9810684F785E02D4B
S1134C3042E063E0CE01099584E991E10E948C2F62
S1134C40E881F9810684F785E02D42E063E0CE0136
S1134C50099586E990E00E948C2FE881F981068409
S1134C60F785E02D42E063E0CE01099586E990E006
S1134C700E948C2FE881F9810684F785E02D42E0BB
S1134C8062E0CE01099513C06062CE0155DF84E96C
S1134C9091E10E948C2F6C816062CE014DDF86E928
S1134CA090E00E948C2F6C816062CE0145DF86E922
S1134CB090E00E948C2F6C816062CE013DDF8CE31A
S1134CC090E00E948C2F84E08D83CE018BDFCE0197
S1134CD03BDF82E08E8366E0CE012EDFCE01DF91E2
S1134CE0CF911ACFEF92FF920F931F93CF93DF933D
S1134CF08C017A01677088E0689FB00111246064B8
S1134D00C8011ADF8EE190E00E948C2FE701A8E031
S1134D10EA0EF11C6991D801ED91FC910190F081AA
S1134D20E02DC801099588E290E00E948C2FCE15F1
S1134D30DF0581F7DF91CF911F910F91FF90EF90E5
S1134D40089521E001C0220F6A95EAF7DC011B9661
S1134D502C931B9719964C931997ED91FC9104840D
S1134D60F585E02D60E00994FC018385882389F0B2
S1134D709185911103C0611105C006C0913021F4E1
S1134D80611102C0848701C014866485CF010D9629
S1134D908ACE08950F931F93CF93DF938C01EC0178
S1134DA02D96FC016285CE0168DE019759F461E01D
S1134DB0CE014DDEF801148260E0CE0174DE81E0A4
S1134DC090E002C080E090E0DF91CF911F910F91BD
S1134DD008958F92AF92CF92EF920F93CF93DF9378
S1134DE0CDB7DEB7FC01628713861486118681E095
S1134DF0982F01C0990F4A95EAF7918B982F01C01B
S1134E00990F2A95EAF7928B982F01C0990F0A956A
S1134E10EAF7938B982F01C0990FEA94EAF7948BE1
S1134E20982F01C0990FCA94EAF7958B982F01C067
S1134E30990FAA94EAF7968B01C0880F8A94EAF72F
S1134E40878BDF91CF910F91EF90CF90AF908F90A0
S1134E5008956F927F928F929F92AF92BF92CF925A
S1134E60DF92EF92FF920F931F93CF93DF93CDB70F
S1134E70DEB73C01D62EB42E922E1989FA8844DE70
S1134E8087ED97E0F30191838083C3010D96D8DD0C
S1134E90292D4B2D6D2DC3019CDF4F2D612FC30197
S1134EA0DF91CF911F910F91FF90EF90DF90CF9002
S1134EB0BF90AF909F908F907F906F9042CFEF9272
S1134EC0FF920F931F93CF938C01C62F7C018DE02B
S1134ED0E80EF11CF80161896C2BC701E4DDF801CF
S1134EE0618960956C23C701CF911F910F91FF9049
S1134EF0EF90D9CDFC01962FDF0184E060E090FFB4
S1134F0004C054962C915497622B96958150119617
S1134F108111F5CF413009F443899485692B642BC1
S1134F20CF01CDCF0F931F93CF93DF93062F0F7035
S1134F30423019F440E0602F0DC0142FEC0170E0F2
S1134F4084E0759567958A95E1F7CE01D3DF412F0B
S1134F50602FCE01DF91CF911F910F91CBCFFF92A4
S1134F600F931F93CF93DF93EC01162F042FF22E90
S1134F7011DF2F2D402F612FCE01DF91CF911F9193
S1134F800F91FF9036CECF93CFB7F8948091B709A5
S1134F90811127C0ECE7F2E08491ECE5F2E0949112
S1134FA0E82FF0E0EE0FFF1FEA55FD4FA591B491F5
S1134FB0EC91E92321F461E08AE00E94373061E05A
S1134FC08AE00E94FB2F8CB580618CBD8CB5806417
S1134FD08CBD61E08DE00E94FB2F61E08BE00E94BC
S1134FE0FB2F8091B7098F5F8093B709CFBFCF9113
S1134FF008951092250A81E08093230A1092220AD0
S113500061E08DE10E94373061E08CE10E9437302D
S1135010E9EBF0E080818E7F808380818D7F8083C7
S113502088E48093B80085E48093BC000895ECEB99
S1135030F0E080818A7B808360E08DE10E943730DC
S113504060E08CE10C9437309B01AC0160E074E2C9
S113505084EF90E00E945E34DA01C9014097A1090F
S1135060B109B695A795979587958093B80008954B
S1135070413208F043C09091250A9111FCCF91E090
S11350809093250A2093230A2FEF2093B8091092B6
S1135090FD09240F2093FC099093240A9091240A7B
S11350A0880F892B8093240A8091220A813061F42D
S11350B01092220A8091240A8093BB008091BC0044
S11350C083FDF8CF85EC01C085EE8093BC00809110
S11350D0250A8130E1F38091FD09841710F4409191
S11350E0FD09AEEFB9E0962FFB018E2F891B8417C3
S11350F018F48D918193F9CF842F089580E0089559
S11351000F93413208F04AC09091250A9111FCCFC7
S113511032E03093250A0093230A3FEF3093B80915
S11351201092FD094093FC09562FAEEFB9E0FB0144
S11351303E2F351B341718F431913D93F9CF10925B
S1135140240A3091240A880F832B8093240A8091A7
S1135150220A813061F41092220A8091240A8093F9
S1135160BB008091BC0083FDF8CF85EC01C085EEC7
S11351708093BC00222321F08091250A8230D1F350
S11351808091B8098F3F79F08091B809803241F05D
S11351908091B809803331F094E005C091E003C0F8
S11351A092E001C093E0892F0F9108954091DA09AC
S11351B0262F30E0240F311D21323105DCF42091FB
S11351C0250A2430C9F4FC0180E090E0861758F4E5
S11351D03091DA092191DC01A452B64FA30FB11D1D
S11351E02C930196F3CF8091DA09680F6093DA0962
S11351F080E0089581E0089582E0089590931F0A65
S113520080931E0A08959093210A8093200A08959A
S113521085ED8093BC008091BC0084FDFCCF10928E
S1135220250A089585EC8093BC001092250A089500
S11352301F920F920FB60F9211240BB60F922F9359
S11352403F934F935F936F937F938F939F93AF930A
S1135250BF93EF93FF938091B900887F803609F460
S11352609DC070F5883209F45CC090F4803109F473
S113527055C038F4882309F4F3C0883009F44EC0CB
S1135280F2C0883109F44DC0803209F45EC0EBC02D
S1135290803409F469C050F4803309F456C088336B
S11352A009F0E1C08093B809BDDFDDC0803509F4A1
S11352B04FC0883509F45DC0883409F0D4C0D2C029
S11352C0883909F4C3C0A8F4883709F467C038F4EE
S11352D0883609F463C0803709F460C0C4C08838D4
S11352E009F4B4C0803909F45FC0803809F0BBC048
S11352F05BC0803B09F482C038F4803A09F466C08C
S1135300883A09F47BC0AFC0803C09F4A3C0883C50
S113531009F4A0C0883B09F486C0A5C08091240A82
S113532010C09091FD098091FC09981770F5E091E7
S1135330FD0981E08E0F8093FD09F0E0E250F64F05
S113534080818093BB0085EC82C08093B8098AC0B9
S1135350E091FD0981E08E0F8093FD098091BB00EF
S1135360F0E0E250F64F80839091FD098091FC09B2
S11353706AC0E091FD0981E08E0F8093FD09809160
S1135380BB00F0E0E250F64F80838091230A811144
S113539069C081E08093220A84EA5DC083E080933F
S11353A0250A1092B909CFCF8091B909803208F04B
S11353B04DC0E091B90981E08E0F8093B9098091C5
S11353C0BB00F0E0E654F64F8083BDCF2BDF809125
S11353D0B909803230F4E091B909F0E0E654F64FAF
S11353E010826091B90970E0E0911E0AF0911F0AE1
S11353F08AEB99E009951092B90935C084E080934D
S1135400250A1092DB091092DA09E091200AF09142
S1135410210A09958091DA09811105C081E0809300
S1135420DA091092DC09E091DB0981E08E0F8093A8
S1135430DB09F0E0E452F64F80818093BB00909149
S1135440DB098091DA09981708F47DCF85E8809309
S1135450BC0009C085EC8093BC001092250A03C0EF
S11354601092B809D5DEFF91EF91BF91AF919F9152
S11354708F917F916F915F914F913F912F910F90F9
S11354800BBE0F900FBE0F901F90189580915A0A73
S113549090E020915B0A821B9109089590915B0A28
S11354A080915A0A981750F4E92FF0E0E45AF54F26
S11354B0208130E09F5F90935B0A02C02FEF3FEFA3
S11354C0C9010895E0915B0A80915A0AE81730F403
S11354D0F0E0E45AF54F808190E008958FEF9FEF5C
S11354E008950895CF93DF93EC01E091320AF0918F
S11354F0330A3097F1F090915B0A80915A0A981719
S1135500C0F090E0292F30E02617370754F4DE016D
S1135510A20FB31F4C91D901A45AB54F4C939F5F6E
S1135520F1CF10925B0A60935A0ACB01DF91CF91BD
S11355300994DF91CF910895E091340AF091350AEE
S1135540309729F01092380A1092370A0994089576
S1135550CF92DF92EF92FF920F931F93CF93DF933B
S11355607C01CB018A012091360A222389F0EB01C8
S11355706B01C40ED51ECC15DD0561F06991D70110
S1135580ED91FC910190F081E02DC7010995F3CFD5
S1135590642F0CDEC801DF91CF911F910F91FF9012
S11355A0EF90DF90CF900895CF93DF931F92CDB704
S11355B0DEB769832091360A2223D1F02091370A7D
S11355C0203240F021E030E0FC013383228380E08C
S11355D090E014C08091380AE82FF0E0E75CF54FC2
S11355E0998190838F5F8093380A8093370A04C02F
S11355F061E0CE010196DADD81E090E00F90DF9169
S1135600CF910895FC011382128288EE93E0A0E00A
S1135610B0E084839583A683B7838BEE97E0918370
S11356208083089510925B0A10925A0A1092380AE5
S11356301092370ADEDC8CE99AE2E5DD82E79AE231
S1135640DDCDF5CCCB01BA01FFCC81E08093360AE5
S11356506093590A1092380A1092370A0895F5CFC8
S11356600F93062F21E04091370A69E37AE0809195
S1135670590A46DD1092380A1092370A1092360AF7
S11356800F9108954F925F926F927F92AF92BF9263
S1135690CF92EF92FF920F931F93CF93DF935C010E
S11356A0F62ED42F28013901EE2011F1CEDFCE2DB4
S11356B0C43008F0C3E0C150C0F028E0C29FC0016C
S11356C01124A301920104C0569547953795279557
S11356D08A95D2F7CA01B901D501ED91FC910190E7
S11356E0F081E02DC5010995E6CF60E0C501B8DF82
S11356F04D2FD13208F040E22C2D6CE57AE08F2D4D
S1135700B7DC10925B0A80935A0ADF91CF911F9104
S11357100F91FF90EF90CF90BF90AF907F906F90DC
S11357205F904F900895CF92EF920F931F93C22EE4
S1135730E12C00E010E09801A5DF1F910F91EF909C
S1135740CF90089521E0EFCF21E0EDCF61E088CF45
S113575086E29AE057CFA8D008F481E008950CD0EF
S1135760DEC0D6D040F0CDD030F021F45F3F19F048
S1135770BFC0511108C1C2C0E3D098F39923C9F343
S11357805523B1F3951B550BBB27AA276217730743
S1135790840738F09F5F5F4F220F331F441FAA1FF7
S11357A0A9F333D00E2E3AF0E0E830D091505040B7
S11357B0E695001CCAF729D0FE2F27D0660F771F65
S11357C0881FBB1F261737074807AB07B0E809F047
S11357D0BB0B802DBF01FF2793585F4F2AF09E3FDC
S11357E0510568F085C0CFC05F3FECF3983EDCF311
S11357F0869577956795B795F7959F5FC9F7880F55
S1135800911D9695879597F90895E1E0660F771FA6
S1135810881FBB1F621773078407BA0720F0621B37
S1135820730B840BBA0BEE1F88F7E0950895E89488
S113583009C097FB3EF490958095709561957F4FD4
S11358408F4F9F4F9923A9F0F92F96E9BB27939582
S1135850F695879577956795B795F111F8CFFAF492
S1135860BB0F11F460FF1BC06F5F7F4F8F4F9F4FC3
S113587016C0882311F096E911C0772321F09EE821
S1135880872F762F05C0662371F096E8862F70E087
S113589060E02AF09A95660F771F881FDAF7880F61
S11358A09695879597F90895990F0008550FAA0BB7
S11358B0E0E8FEEF16161706E807F907C0F012161F
S11358C01306E407F50798F0621B730B840B950B22
S11358D039F40A2661F0232B242B252B21F4089577
S11358E00A2609F4A140A6958FEF811D811D089514
S11358F097F99F6780E870E060E008959FEF80EC7F
S1135900089500240A941616170618060906089521
S113591000240A9412161306140605060895092E87
S11359200394000C11F4882352F0BB0F40F4BF2BF6
S113593011F460FF04C06F5F7F4F8F4F9F4F089536
S113594057FD9058440F551F59F05F3F71F047952C
S1135950880F97FB991F61F09F3F79F08795089511
S1135960121613061406551FF2CF4695F1DF08C030
S1135970161617061806991FF1CF8695710561054D
S113598008940895E894BB2766277727CB0197F9F5
S113599008950E94C2361F920F920FB60F921124DF
S11359A02F938F939F93EF93FF93E0918C0AF09141
S11359B08D0A8081E091920AF091930A82FD12C0CF
S11359C090818091950A8F5F8F732091960A821738
S11359D051F0E091950AF0E0E458F54F958F8093EB
S11359E0950A01C08081FF91EF919F918F912F9132
S11359F00F900FBE0F901F9018951F920F920FB625
S1135A000F9211242F933F934F935F936F937F9340
S1135A108F939F93AF93BF93EF93FF938CE79AE099
S1135A209DD6FF91EF91BF91AF919F918F917F91FF
S1135A306F915F914F913F912F910F900FBE0F90F7
S1135A401F9018958CE79AE03FD621E0892B09F442
S1135A5020E0822F0895ECE7FAE01382128288EEA8
S1135A6093E0A0E0B0E084839583A683B7838FE0BE
S1135A7098E09183808385EC90E09587848784EC1B
S1135A8090E09787868780EC90E0918B808B81EC07
S1135A9090E0938B828B82EC90E0958B848B86ECE8
S1135AA090E0978B868B118E128E138E148E089530
S1135AB08F929F92AF92BF92CF92DF92EF92FF921A
S1135AC00F931F93CF93DF937C018B014C0182E0F2
S1135AD0880E911C5701E5E0AE0EB11CC0E0D0E089
S1135AE0F40161914F014AE050E0C8014BD16C01CF
S1135AF06EE2C801BAD08C0D9D1DC80FD91F8A143F
S1135B009B0471F74AE050E0F7016581C8013AD17E
S1135B108C0F9D1FDF91CF911F910F91FF90EF90FC
S1135B20DF90CF90BF90AF909F908F9008952DEF0E
S1135B3037E0FC01318320831282138214821582A0
S1135B4008950F93FC018DEF97E091838083628326
S1135B504383248305830F910895DC01129624E086
S1135B60FB0101900D922A95E1F708950895DFD184
S1135B70FDDF0E940D11C1EAD3E30E94560920976C
S1135B80E1F3DFD5FACFCF92DF92EF92FF920F933A
S1135B901F93CF93DF936C017A018B01C0E0D0E0B7
S1135BA0CE15DF0581F0D8016D918D01D601ED91FF
S1135BB0FC910190F081E02DC6010995892B11F02B
S1135BC02196EECF7E01C701DF91CF911F910F91F6
S1135BD0FF90EF90DF90CF9008956115710579F0F3
S1135BE0FB0101900020E9F73197AF01461B570BE9
S1135BF0DC01ED91FC910280F381E02D099480E0B9
S1135C0090E00895EF92FF920F931F93CF93DF9349
S1135C108C017B01C0E0D0E0F701EC0FFD1F649123
S1135C20662361F0D801ED91FC910190F081E02DA3
S1135C30C8010995892B11F02196EECFCE01DF9191
S1135C40CF911F910F91FF90EF900895DB0114966F
S1135C504D915C9115976D917C91DC01ED91FC91D6
S1135C600280F381E02D0994B8CFDC01ED91FC9121
S1135C700190F081E02D09946BEF73E0AECF0F93A8
S1135C801F93CF93DF93EC01BDDF8C01CE01F4DFD2
S1135C90800F911FDF91CF911F910F9108950F9362
S1135CA01F93CF93DF93EC01D1DF8C01CE01E4DFAE
S1135CB0800F911FDF91CF911F910F9108950F9342
S1135CC01F93CF93DF93EC0188DF8C01CE01D4DFE7
S1135CD0800F911FDF91CF911F910F9108958F92A3
S1135CE09F92AF92BF92EF92FF920F931F93CF9325
